{"abi":[{"type":"constructor","inputs":[{"name":"router","type":"address","internalType":"address"},{"name":"initialOwner","type":"address","internalType":"address"},{"name":"linkToken","type":"address","internalType":"address"},{"name":"usdcToken","type":"address","internalType":"address"},{"name":"beanHeads","type":"address","internalType":"address"}],"stateMutability":"nonpayable"},{"type":"function","name":"ADDITIONAL_FEED_PRECISION","inputs":[],"outputs":[{"name":"","type":"uint256","internalType":"uint256"}],"stateMutability":"view"},{"type":"function","name":"GAS_LIMIT_BUY","inputs":[],"outputs":[{"name":"","type":"uint256","internalType":"uint256"}],"stateMutability":"view"},{"type":"function","name":"GAS_LIMIT_MINT","inputs":[],"outputs":[{"name":"","type":"uint256","internalType":"uint256"}],"stateMutability":"view"},{"type":"function","name":"GAS_LIMIT_SELL","inputs":[],"outputs":[{"name":"","type":"uint256","internalType":"uint256"}],"stateMutability":"view"},{"type":"function","name":"GAS_LIMIT_TRANSFER","inputs":[],"outputs":[{"name":"","type":"uint256","internalType":"uint256"}],"stateMutability":"view"},{"type":"function","name":"PRECISION","inputs":[],"outputs":[{"name":"","type":"uint256","internalType":"uint256"}],"stateMutability":"view"},{"type":"function","name":"ccipReceive","inputs":[{"name":"message","type":"tuple","internalType":"struct Client.Any2EVMMessage","components":[{"name":"messageId","type":"bytes32","internalType":"bytes32"},{"name":"sourceChainSelector","type":"uint64","internalType":"uint64"},{"name":"sender","type":"bytes","internalType":"bytes"},{"name":"data","type":"bytes","internalType":"bytes"},{"name":"destTokenAmounts","type":"tuple[]","internalType":"struct Client.EVMTokenAmount[]","components":[{"name":"token","type":"address","internalType":"address"},{"name":"amount","type":"uint256","internalType":"uint256"}]}]}],"outputs":[],"stateMutability":"nonpayable"},{"type":"function","name":"depositLink","inputs":[{"name":"amount","type":"uint256","internalType":"uint256"}],"outputs":[],"stateMutability":"nonpayable"},{"type":"function","name":"getRouter","inputs":[],"outputs":[{"name":"","type":"address","internalType":"address"}],"stateMutability":"view"},{"type":"function","name":"i_beanHeadsContract","inputs":[],"outputs":[{"name":"","type":"address","internalType":"address"}],"stateMutability":"view"},{"type":"function","name":"i_router","inputs":[],"outputs":[{"name":"","type":"address","internalType":"contract IRouterClient"}],"stateMutability":"view"},{"type":"function","name":"onERC721Received","inputs":[{"name":"","type":"address","internalType":"address"},{"name":"","type":"address","internalType":"address"},{"name":"","type":"uint256","internalType":"uint256"},{"name":"","type":"bytes","internalType":"bytes"}],"outputs":[{"name":"","type":"bytes4","internalType":"bytes4"}],"stateMutability":"pure"},{"type":"function","name":"owner","inputs":[],"outputs":[{"name":"","type":"address","internalType":"address"}],"stateMutability":"view"},{"type":"function","name":"renounceOwnership","inputs":[],"outputs":[],"stateMutability":"nonpayable"},{"type":"function","name":"s_chainToRemoteBridge","inputs":[{"name":"chainSelector","type":"uint64","internalType":"uint64"}],"outputs":[{"name":"remoteBridge","type":"address","internalType":"address"}],"stateMutability":"view"},{"type":"function","name":"s_destChain","inputs":[],"outputs":[{"name":"","type":"uint64","internalType":"uint64"}],"stateMutability":"view"},{"type":"function","name":"s_linkToken","inputs":[],"outputs":[{"name":"","type":"address","internalType":"contract IERC20"}],"stateMutability":"view"},{"type":"function","name":"s_remoteBridgeAddresses","inputs":[{"name":"remoteBridge","type":"address","internalType":"address"}],"outputs":[{"name":"isRegistered","type":"bool","internalType":"bool"}],"stateMutability":"view"},{"type":"function","name":"s_usdcToken","inputs":[],"outputs":[{"name":"","type":"address","internalType":"contract IERC20"}],"stateMutability":"view"},{"type":"function","name":"sendBatchBuyTokenRequest","inputs":[{"name":"_destinationChainSelector","type":"uint64","internalType":"uint64"},{"name":"_tokenIds","type":"uint256[]","internalType":"uint256[]"},{"name":"_prices","type":"uint256[]","internalType":"uint256[]"},{"name":"_paymentToken","type":"address","internalType":"address"}],"outputs":[{"name":"messageId","type":"bytes32","internalType":"bytes32"}],"stateMutability":"nonpayable"},{"type":"function","name":"sendBatchCancelTokenSaleRequest","inputs":[{"name":"_destinationChainSelector","type":"uint64","internalType":"uint64"},{"name":"_cancelRequests","type":"tuple[]","internalType":"struct PermitTypes.Cancel[]","components":[{"name":"seller","type":"address","internalType":"address"},{"name":"tokenId","type":"uint256","internalType":"uint256"},{"name":"listingNonce","type":"uint256","internalType":"uint256"},{"name":"deadline","type":"uint64","internalType":"uint64"}]},{"name":"_cancelSigs","type":"bytes[]","internalType":"bytes[]"}],"outputs":[{"name":"messageId","type":"bytes32","internalType":"bytes32"}],"stateMutability":"nonpayable"},{"type":"function","name":"sendBatchSellTokenRequest","inputs":[{"name":"_destinationChainSelector","type":"uint64","internalType":"uint64"},{"name":"_sellRequests","type":"tuple[]","internalType":"struct PermitTypes.Sell[]","components":[{"name":"owner","type":"address","internalType":"address"},{"name":"tokenId","type":"uint256","internalType":"uint256"},{"name":"price","type":"uint256","internalType":"uint256"},{"name":"nonce","type":"uint256","internalType":"uint256"},{"name":"deadline","type":"uint64","internalType":"uint64"}]},{"name":"_sellSigs","type":"bytes[]","internalType":"bytes[]"},{"name":"_permitDeadlines","type":"uint256[]","internalType":"uint256[]"},{"name":"_permitSigs","type":"bytes[]","internalType":"bytes[]"}],"outputs":[{"name":"messageId","type":"bytes32","internalType":"bytes32"}],"stateMutability":"nonpayable"},{"type":"function","name":"sendBuyTokenRequest","inputs":[{"name":"_destinationChainSelector","type":"uint64","internalType":"uint64"},{"name":"_tokenId","type":"uint256","internalType":"uint256"},{"name":"_paymentToken","type":"address","internalType":"address"},{"name":"_price","type":"uint256","internalType":"uint256"}],"outputs":[{"name":"messageId","type":"bytes32","internalType":"bytes32"}],"stateMutability":"nonpayable"},{"type":"function","name":"sendCancelTokenSaleRequest","inputs":[{"name":"_destinationChainSelector","type":"uint64","internalType":"uint64"},{"name":"c","type":"tuple","internalType":"struct PermitTypes.Cancel","components":[{"name":"seller","type":"address","internalType":"address"},{"name":"tokenId","type":"uint256","internalType":"uint256"},{"name":"listingNonce","type":"uint256","internalType":"uint256"},{"name":"deadline","type":"uint64","internalType":"uint64"}]},{"name":"cancelSig","type":"bytes","internalType":"bytes"}],"outputs":[{"name":"messageId","type":"bytes32","internalType":"bytes32"}],"stateMutability":"nonpayable"},{"type":"function","name":"sendMintTokenRequest","inputs":[{"name":"_destinationChainSelector","type":"uint64","internalType":"uint64"},{"name":"_receiver","type":"address","internalType":"address"},{"name":"_params","type":"tuple","internalType":"struct Genesis.SVGParams","components":[{"name":"hairParams","type":"tuple","internalType":"struct Genesis.HairParams","components":[{"name":"hairStyle","type":"uint8","internalType":"uint8"},{"name":"hairColor","type":"uint8","internalType":"uint8"}]},{"name":"bodyParams","type":"tuple","internalType":"struct Genesis.BodyParams","components":[{"name":"bodyType","type":"uint8","internalType":"uint8"},{"name":"skinColor","type":"uint8","internalType":"uint8"}]},{"name":"clothingParams","type":"tuple","internalType":"struct Genesis.ClothingParams","components":[{"name":"clothes","type":"uint8","internalType":"uint8"},{"name":"clothingColor","type":"uint8","internalType":"uint8"},{"name":"clothesGraphic","type":"uint8","internalType":"uint8"}]},{"name":"facialFeaturesParams","type":"tuple","internalType":"struct Genesis.FacialFeaturesParams","components":[{"name":"eyebrowShape","type":"uint8","internalType":"uint8"},{"name":"eyeShape","type":"uint8","internalType":"uint8"},{"name":"facialHairType","type":"uint8","internalType":"uint8"},{"name":"mouthStyle","type":"uint8","internalType":"uint8"},{"name":"lipColor","type":"uint8","internalType":"uint8"}]},{"name":"accessoryParams","type":"tuple","internalType":"struct Genesis.AccessoryParams","components":[{"name":"accessoryId","type":"uint8","internalType":"uint8"},{"name":"hatStyle","type":"uint8","internalType":"uint8"},{"name":"hatColor","type":"uint8","internalType":"uint8"}]},{"name":"otherParams","type":"tuple","internalType":"struct Genesis.OtherParams","components":[{"name":"faceMask","type":"bool","internalType":"bool"},{"name":"faceMaskColor","type":"uint8","internalType":"uint8"},{"name":"shapes","type":"bool","internalType":"bool"},{"name":"shapeColor","type":"uint8","internalType":"uint8"},{"name":"lashes","type":"bool","internalType":"bool"}]}]},{"name":"_amount","type":"uint256","internalType":"uint256"},{"name":"_paymentToken","type":"address","internalType":"address"}],"outputs":[{"name":"messageId","type":"bytes32","internalType":"bytes32"}],"stateMutability":"payable"},{"type":"function","name":"sendSellTokenRequest","inputs":[{"name":"_destinationChainSelector","type":"uint64","internalType":"uint64"},{"name":"s","type":"tuple","internalType":"struct PermitTypes.Sell","components":[{"name":"owner","type":"address","internalType":"address"},{"name":"tokenId","type":"uint256","internalType":"uint256"},{"name":"price","type":"uint256","internalType":"uint256"},{"name":"nonce","type":"uint256","internalType":"uint256"},{"name":"deadline","type":"uint64","internalType":"uint64"}]},{"name":"sellSig","type":"bytes","internalType":"bytes"},{"name":"permitDeadline","type":"uint256","internalType":"uint256"},{"name":"permitSig","type":"bytes","internalType":"bytes"}],"outputs":[{"name":"messageId","type":"bytes32","internalType":"bytes32"}],"stateMutability":"nonpayable"},{"type":"function","name":"sendTransferTokenRequest","inputs":[{"name":"_destinationChainSelector","type":"uint64","internalType":"uint64"},{"name":"_tokenId","type":"uint256","internalType":"uint256"},{"name":"_receiver","type":"address","internalType":"address"}],"outputs":[{"name":"messageId","type":"bytes32","internalType":"bytes32"}],"stateMutability":"nonpayable"},{"type":"function","name":"setRemoteBridge","inputs":[{"name":"_chainSelector","type":"uint64","internalType":"uint64"},{"name":"_newRemoteBridge","type":"address","internalType":"address"},{"name":"allowed","type":"bool","internalType":"bool"}],"outputs":[],"stateMutability":"nonpayable"},{"type":"function","name":"supportsInterface","inputs":[{"name":"interfaceId","type":"bytes4","internalType":"bytes4"}],"outputs":[{"name":"","type":"bool","internalType":"bool"}],"stateMutability":"view"},{"type":"function","name":"transferOwnership","inputs":[{"name":"newOwner","type":"address","internalType":"address"}],"outputs":[],"stateMutability":"nonpayable"},{"type":"function","name":"withdrawLink","inputs":[{"name":"amount","type":"uint256","internalType":"uint256"}],"outputs":[],"stateMutability":"nonpayable"},{"type":"event","name":"BatchTokenBoughtCrossChain","inputs":[{"name":"buyer","type":"address","indexed":true,"internalType":"address"},{"name":"paymentToken","type":"address","indexed":true,"internalType":"address"}],"anonymous":false},{"type":"event","name":"BatchTokenSaleCancelledCrossChain","inputs":[{"name":"cancelRequests","type":"tuple[]","indexed":false,"internalType":"struct PermitTypes.Cancel[]","components":[{"name":"seller","type":"address","internalType":"address"},{"name":"tokenId","type":"uint256","internalType":"uint256"},{"name":"listingNonce","type":"uint256","internalType":"uint256"},{"name":"deadline","type":"uint64","internalType":"uint64"}]}],"anonymous":false},{"type":"event","name":"BatchTokensListedCrossChain","inputs":[{"name":"sellRequests","type":"tuple[]","indexed":false,"internalType":"struct PermitTypes.Sell[]","components":[{"name":"owner","type":"address","internalType":"address"},{"name":"tokenId","type":"uint256","internalType":"uint256"},{"name":"price","type":"uint256","internalType":"uint256"},{"name":"nonce","type":"uint256","internalType":"uint256"},{"name":"deadline","type":"uint64","internalType":"uint64"}]}],"anonymous":false},{"type":"event","name":"CancelBatchSellTokenRequest","inputs":[{"name":"cancelRequests","type":"tuple[]","indexed":false,"internalType":"struct PermitTypes.Cancel[]","components":[{"name":"seller","type":"address","internalType":"address"},{"name":"tokenId","type":"uint256","internalType":"uint256"},{"name":"listingNonce","type":"uint256","internalType":"uint256"},{"name":"deadline","type":"uint64","internalType":"uint64"}]}],"anonymous":false},{"type":"event","name":"CancelSellTokenRequest","inputs":[{"name":"messageId","type":"bytes32","indexed":true,"internalType":"bytes32"},{"name":"destinationChainSelector","type":"uint64","indexed":true,"internalType":"uint64"},{"name":"receiver","type":"address","indexed":true,"internalType":"address"},{"name":"tokenId","type":"uint256","indexed":false,"internalType":"uint256"}],"anonymous":false},{"type":"event","name":"OwnershipTransferred","inputs":[{"name":"previousOwner","type":"address","indexed":true,"internalType":"address"},{"name":"newOwner","type":"address","indexed":true,"internalType":"address"}],"anonymous":false},{"type":"event","name":"RemoteBridgeUpdated","inputs":[{"name":"newRemoteBridge","type":"address","indexed":false,"internalType":"address"}],"anonymous":false},{"type":"event","name":"SentBatchBuyTokensRequest","inputs":[{"name":"messageId","type":"bytes32","indexed":true,"internalType":"bytes32"},{"name":"destinationChainSelector","type":"uint64","indexed":true,"internalType":"uint64"},{"name":"receiver","type":"address","indexed":true,"internalType":"address"}],"anonymous":false},{"type":"event","name":"SentBatchSellTokensRequest","inputs":[{"name":"sellRequests","type":"tuple[]","indexed":false,"internalType":"struct PermitTypes.Sell[]","components":[{"name":"owner","type":"address","internalType":"address"},{"name":"tokenId","type":"uint256","internalType":"uint256"},{"name":"price","type":"uint256","internalType":"uint256"},{"name":"nonce","type":"uint256","internalType":"uint256"},{"name":"deadline","type":"uint64","internalType":"uint64"}]}],"anonymous":false},{"type":"event","name":"SentBuyTokenRequest","inputs":[{"name":"messageId","type":"bytes32","indexed":true,"internalType":"bytes32"},{"name":"destinationChainSelector","type":"uint64","indexed":true,"internalType":"uint64"},{"name":"receiver","type":"address","indexed":true,"internalType":"address"},{"name":"tokenId","type":"uint256","indexed":false,"internalType":"uint256"},{"name":"price","type":"uint256","indexed":false,"internalType":"uint256"}],"anonymous":false},{"type":"event","name":"SentMintTokenRequest","inputs":[{"name":"messageId","type":"bytes32","indexed":true,"internalType":"bytes32"},{"name":"destinationChainSelector","type":"uint64","indexed":true,"internalType":"uint64"},{"name":"receiver","type":"address","indexed":true,"internalType":"address"},{"name":"amount","type":"uint256","indexed":false,"internalType":"uint256"}],"anonymous":false},{"type":"event","name":"SentSellTokenRequest","inputs":[{"name":"messageId","type":"bytes32","indexed":true,"internalType":"bytes32"},{"name":"destinationChainSelector","type":"uint64","indexed":true,"internalType":"uint64"},{"name":"receiver","type":"address","indexed":true,"internalType":"address"},{"name":"tokenId","type":"uint256","indexed":false,"internalType":"uint256"},{"name":"price","type":"uint256","indexed":false,"internalType":"uint256"}],"anonymous":false},{"type":"event","name":"SentTransferTokenRequest","inputs":[{"name":"messageId","type":"bytes32","indexed":true,"internalType":"bytes32"},{"name":"destinationChainSelector","type":"uint64","indexed":true,"internalType":"uint64"},{"name":"receiver","type":"address","indexed":true,"internalType":"address"},{"name":"tokenId","type":"uint256","indexed":false,"internalType":"uint256"}],"anonymous":false},{"type":"event","name":"TokenBoughtCrossChain","inputs":[{"name":"buyer","type":"address","indexed":true,"internalType":"address"},{"name":"tokenId","type":"uint256","indexed":false,"internalType":"uint256"}],"anonymous":false},{"type":"event","name":"TokenListedCrossChain","inputs":[{"name":"seller","type":"address","indexed":true,"internalType":"address"},{"name":"tokenId","type":"uint256","indexed":false,"internalType":"uint256"},{"name":"price","type":"uint256","indexed":false,"internalType":"uint256"}],"anonymous":false},{"type":"event","name":"TokenMintedCrossChain","inputs":[{"name":"receiver","type":"address","indexed":true,"internalType":"address"},{"name":"params","type":"tuple","indexed":false,"internalType":"struct Genesis.SVGParams","components":[{"name":"hairParams","type":"tuple","internalType":"struct Genesis.HairParams","components":[{"name":"hairStyle","type":"uint8","internalType":"uint8"},{"name":"hairColor","type":"uint8","internalType":"uint8"}]},{"name":"bodyParams","type":"tuple","internalType":"struct Genesis.BodyParams","components":[{"name":"bodyType","type":"uint8","internalType":"uint8"},{"name":"skinColor","type":"uint8","internalType":"uint8"}]},{"name":"clothingParams","type":"tuple","internalType":"struct Genesis.ClothingParams","components":[{"name":"clothes","type":"uint8","internalType":"uint8"},{"name":"clothingColor","type":"uint8","internalType":"uint8"},{"name":"clothesGraphic","type":"uint8","internalType":"uint8"}]},{"name":"facialFeaturesParams","type":"tuple","internalType":"struct Genesis.FacialFeaturesParams","components":[{"name":"eyebrowShape","type":"uint8","internalType":"uint8"},{"name":"eyeShape","type":"uint8","internalType":"uint8"},{"name":"facialHairType","type":"uint8","internalType":"uint8"},{"name":"mouthStyle","type":"uint8","internalType":"uint8"},{"name":"lipColor","type":"uint8","internalType":"uint8"}]},{"name":"accessoryParams","type":"tuple","internalType":"struct Genesis.AccessoryParams","components":[{"name":"accessoryId","type":"uint8","internalType":"uint8"},{"name":"hatStyle","type":"uint8","internalType":"uint8"},{"name":"hatColor","type":"uint8","internalType":"uint8"}]},{"name":"otherParams","type":"tuple","internalType":"struct Genesis.OtherParams","components":[{"name":"faceMask","type":"bool","internalType":"bool"},{"name":"faceMaskColor","type":"uint8","internalType":"uint8"},{"name":"shapes","type":"bool","internalType":"bool"},{"name":"shapeColor","type":"uint8","internalType":"uint8"},{"name":"lashes","type":"bool","internalType":"bool"}]}]},{"name":"tokenId","type":"uint256","indexed":false,"internalType":"uint256"}],"anonymous":false},{"type":"event","name":"TokenMirroredOnDestinationChain","inputs":[{"name":"receiver","type":"address","indexed":true,"internalType":"address"},{"name":"tokenId","type":"uint256","indexed":false,"internalType":"uint256"},{"name":"params","type":"tuple","indexed":false,"internalType":"struct Genesis.SVGParams","components":[{"name":"hairParams","type":"tuple","internalType":"struct Genesis.HairParams","components":[{"name":"hairStyle","type":"uint8","internalType":"uint8"},{"name":"hairColor","type":"uint8","internalType":"uint8"}]},{"name":"bodyParams","type":"tuple","internalType":"struct Genesis.BodyParams","components":[{"name":"bodyType","type":"uint8","internalType":"uint8"},{"name":"skinColor","type":"uint8","internalType":"uint8"}]},{"name":"clothingParams","type":"tuple","internalType":"struct Genesis.ClothingParams","components":[{"name":"clothes","type":"uint8","internalType":"uint8"},{"name":"clothingColor","type":"uint8","internalType":"uint8"},{"name":"clothesGraphic","type":"uint8","internalType":"uint8"}]},{"name":"facialFeaturesParams","type":"tuple","internalType":"struct Genesis.FacialFeaturesParams","components":[{"name":"eyebrowShape","type":"uint8","internalType":"uint8"},{"name":"eyeShape","type":"uint8","internalType":"uint8"},{"name":"facialHairType","type":"uint8","internalType":"uint8"},{"name":"mouthStyle","type":"uint8","internalType":"uint8"},{"name":"lipColor","type":"uint8","internalType":"uint8"}]},{"name":"accessoryParams","type":"tuple","internalType":"struct Genesis.AccessoryParams","components":[{"name":"accessoryId","type":"uint8","internalType":"uint8"},{"name":"hatStyle","type":"uint8","internalType":"uint8"},{"name":"hatColor","type":"uint8","internalType":"uint8"}]},{"name":"otherParams","type":"tuple","internalType":"struct Genesis.OtherParams","components":[{"name":"faceMask","type":"bool","internalType":"bool"},{"name":"faceMaskColor","type":"uint8","internalType":"uint8"},{"name":"shapes","type":"bool","internalType":"bool"},{"name":"shapeColor","type":"uint8","internalType":"uint8"},{"name":"lashes","type":"bool","internalType":"bool"}]}]},{"name":"originChainId","type":"uint256","indexed":false,"internalType":"uint256"}],"anonymous":false},{"type":"event","name":"TokenReturnedToSourceChain","inputs":[{"name":"tokenId","type":"uint256","indexed":false,"internalType":"uint256"}],"anonymous":false},{"type":"event","name":"TokenSaleCancelled","inputs":[{"name":"owner","type":"address","indexed":true,"internalType":"address"},{"name":"tokenId","type":"uint256","indexed":false,"internalType":"uint256"}],"anonymous":false},{"type":"event","name":"TokenTransferredCrossChain","inputs":[{"name":"receiver","type":"address","indexed":true,"internalType":"address"},{"name":"tokenId","type":"uint256","indexed":false,"internalType":"uint256"}],"anonymous":false},{"type":"error","name":"IBeanHeadsBridge__InsufficientAllowance","inputs":[]},{"type":"error","name":"IBeanHeadsBridge__InsufficientLinkBalance","inputs":[{"name":"amount","type":"uint256","internalType":"uint256"}]},{"type":"error","name":"IBeanHeadsBridge__InsufficientPayment","inputs":[]},{"type":"error","name":"IBeanHeadsBridge__InvalidAmount","inputs":[]},{"type":"error","name":"IBeanHeadsBridge__InvalidLength","inputs":[]},{"type":"error","name":"IBeanHeadsBridge__InvalidNonce","inputs":[]},{"type":"error","name":"IBeanHeadsBridge__InvalidOraclePrice","inputs":[]},{"type":"error","name":"IBeanHeadsBridge__InvalidPaymentToken","inputs":[{"name":"received","type":"address","internalType":"address"},{"name":"expected","type":"address","internalType":"address"}]},{"type":"error","name":"IBeanHeadsBridge__InvalidRemoteAddress","inputs":[]},{"type":"error","name":"IBeanHeadsBridge__InvalidToken","inputs":[]},{"type":"error","name":"IBeanHeadsBridge__InvalidTokenReceived","inputs":[]},{"type":"error","name":"IBeanHeadsBridge__MismatchedArrayLengths","inputs":[]},{"type":"error","name":"IBeanHeadsBridge__PriceExceedsMax","inputs":[]},{"type":"error","name":"IBeanHeadsBridge__TokenIsNotForSale","inputs":[]},{"type":"error","name":"IBeanHeadsBridge__TokenNotAllowed","inputs":[{"name":"token","type":"address","internalType":"address"}]},{"type":"error","name":"IBeanHeadsBridge__TokenNotDeposited","inputs":[{"name":"tokenId","type":"uint256","internalType":"uint256"}]},{"type":"error","name":"IBeanHeadsBridge__UnauthorizedSender","inputs":[{"name":"sender","type":"address","internalType":"address"}]},{"type":"error","name":"InvalidRouter","inputs":[{"name":"router","type":"address","internalType":"address"}]},{"type":"error","name":"OwnableInvalidOwner","inputs":[{"name":"owner","type":"address","internalType":"address"}]},{"type":"error","name":"OwnableUnauthorizedAccount","inputs":[{"name":"account","type":"address","internalType":"address"}]},{"type":"error","name":"ReentrancyGuardReentrantCall","inputs":[]}],"bytecode":{"object":"0x60e0346200027757601f62005efd38819003918201601f191683019291906001600160401b038411838510176200027b578160a09284926040968752833981010312620002775762000051816200028f565b9162000060602083016200028f565b6200006d8284016200028f565b926200008a608062000082606084016200028f565b92016200028f565b9360018060a01b0392838716968715620002605760c05283169384156200024a57600480546001600160a01b0319808216881790925582519891969086167f8be0079c531659141344cd1fd0a4f28419497f9722a3daafe3b4186f6b6457e05f80a360016005556080525f549168010000000000000000600160e01b03911b169068010000000000000000600160e01b031916175f551690600154161760015560a052615c589081620002a5823960805181818161176301528181612b420152818161365601528181613b2901528181613fa50152818161564901526159e8015260a0518181816111cc0152818161127f0152818161145701528181611573015281816116fa01528181611724015281816117aa0152818161184c0152818161190501528181611975015281816119bb01528181611a5301528181611b3f01528181611bcf01528181611ccb01528181611d9601528181611ea901528181611f3a0152818161204f01528181612160015281816122780152818161231a015281816125a90152818161264901528181612ba901528181612be9015281816131bc0152818161393101526159a2015260c0518181816109bc0152610ee70152f35b51631e4fbdf760e01b81525f6004820152602490fd5b85516335fdcccd60e21b81525f6004820152602490fd5b5f80fd5b634e487b7160e01b5f52604160045260245ffd5b51906001600160a01b0382168203620002775756fe6080806040526004361015610012575f80fd5b5f905f3560e01c90816301ffc9a7146140b457508063100ebffc1461404757806310488413146106ea5780631179680f14613d3457806311d82d5514613c20578063150b7a0214613b93578063232df00d146139555780632c406d44146138e757806338c723531461370f57806341b8b269146136cb5780634fdb1ace1461367a578063581bdd161461360c57806362cd6c9014613122578063715018a6146130845780637725135b146130305780637a8042bd14612f125780637b0ef2091461248957806385572ffb14610e625780638da5cb5b14610e10578063a0da12a514610dd2578063a700a39c14610d96578063aa7ab1ab14610a5d578063aaf5eb6814610a1c578063ab895eb8146109e0578063b0f479a114610971578063b1a778ab146106ef578063ddf36e23146106ea578063ef74cd76146103e1578063f2fde38b146102fe578063f565b926146102965763f9eafa7014610173575f80fd5b346102935760207ffffffffffffffffffffffffffffffffffffffffffffffffffffffffffffffffc360112610293576004356101ad6145e2565b8015610269578154604080517f23b872dd000000000000000000000000000000000000000000000000000000008152336004820152306024820152604481019390935260209183916064918391879173ffffffffffffffffffffffffffffffffffffffff911c165af1801561025e57610224575080f35b6020813d602011610256575b8161023d602093836143e2565b810103126102525761024e906147ce565b5080f35b5080fd5b3d9150610230565b6040513d84823e3d90fd5b60046040517fd8287905000000000000000000000000000000000000000000000000000000008152fd5b80fd5b50346102935760207ffffffffffffffffffffffffffffffffffffffffffffffffffffffffffffffffc3601126102935760ff604060209273ffffffffffffffffffffffffffffffffffffffff6102ea61422b565b168152600384522054166040519015158152f35b50346102935760207ffffffffffffffffffffffffffffffffffffffffffffffffffffffffffffffffc3601126102935761033661422b565b61033e6145e2565b73ffffffffffffffffffffffffffffffffffffffff8091169081156103b057600454827fffffffffffffffffffffffff0000000000000000000000000000000000000000821617600455167f8be0079c531659141344cd1fd0a4f28419497f9722a3daafe3b4186f6b6457e05f80a380f35b602483604051907f1e4fbdf70000000000000000000000000000000000000000000000000000000082526004820152fd5b503461029357610120807ffffffffffffffffffffffffffffffffffffffffffffffffffffffffffffffffc3601126102525761041b614170565b9060a07fffffffffffffffffffffffffffffffffffffffffffffffffffffffffffffffdc3601126106e65767ffffffffffffffff9260c43584811161025257610468903690600401614292565b919092610104358681116106e657610484903690600401614292565b90958781169485855260209860028a5260ff604073ffffffffffffffffffffffffffffffffffffffff97888282205416815260038d52205416156106b85760643597881561026957604051926024358881168091036106e2578c8501526044359a8b60408601526060968b88870152608435608087015260a4359485168095036106e25761052c8694610565946105719760a08801526101009b8c60c0890152870191614633565b9160e43560e08601527fffffffffffffffffffffffffffffffffffffffffffffffffffffffffffffffe0998a8685030190860152614633565b038581018352826143e2565b6040519161057e8361438e565b5f835283608060405161059081614356565b828152828d8201528260408201525f838201520152865f5260028a528560405f2054169182156106b857610617604095610699956106237f5761d3c5b5fbf459631cf1b4ff7e51d2013d8de7edc5ff126526262bf3478a08998f958a5198878a01528689526105fe89614372565b8a519586916001898401528c8084015286830190614bbc565b039081018552846143e2565b895f54891c16928851946106368661438e565b620927c086528951957f97a657c9000000000000000000000000000000000000000000000000000000008288015251602487015260248652610677866143aa565b89519761068389614356565b8852870152878601528401526080830152615631565b9586936106a4614547565b1695825191825288820152a4604051908152f35b60046040517f4836199a000000000000000000000000000000000000000000000000000000008152fd5b5f80fd5b8280fd5b61419c565b50346102935760c07ffffffffffffffffffffffffffffffffffffffffffffffffffffffffffffffffc36011261029357610727614170565b9060807fffffffffffffffffffffffffffffffffffffffffffffffffffffffffffffffdc3601126102935767ffffffffffffffff60a4358181116106e657610773903690600401614292565b92828516918282526020956002875260ff604073ffffffffffffffffffffffffffffffffffffffff94858282205416815260038a52205416156106b857604051956024358481168091036106e2578888015260443595866040890152606093606435858a01526084359182168092036106e257889261080192608085015260a08085015260c0840191614633565b03956108337fffffffffffffffffffffffffffffffffffffffffffffffffffffffffffffffe0978881018352826143e2565b604051916108408361438e565b5f835283608060405161085281614356565b828152828c8201528260408201525f838201520152855f52600289528460405f2054169182156106b8576106177fd6040e24e094f8dd2461f146e1a24805ab644cde60f103bf02c04c8b5d07e1ed95610955956108db8d9c8d9560405198878a01528689526108c089614372565b60405195869160038984015260408084015286830190614bbc565b885f5460401c16926040516108ef8161438e565b620927c081527f97a657c9000000000000000000000000000000000000000000000000000000006040519687015251602486015260248552610930856143aa565b6040519661093d88614356565b87528c87015260408601528401526080830152615631565b948592610960614547565b1694604051908152a4604051908152f35b503461029357807ffffffffffffffffffffffffffffffffffffffffffffffffffffffffffffffffc36011261029357602060405173ffffffffffffffffffffffffffffffffffffffff7f0000000000000000000000000000000000000000000000000000000000000000168152f35b503461029357807ffffffffffffffffffffffffffffffffffffffffffffffffffffffffffffffffc360112610293576020604051620927c08152f35b503461029357807ffffffffffffffffffffffffffffffffffffffffffffffffffffffffffffffffc360112610293576020604051670de0b6b3a76400008152f35b50346102935760a07ffffffffffffffffffffffffffffffffffffffffffffffffffffffffffffffffc36011261029357610a95614170565b9067ffffffffffffffff906024358281116102525736602382011215610252578060040135928084116106e65760248201916024369160a087020101116106e657604435818111610d9257610aee9036906004016141d7565b9095606435838111610d8e57610b089036906004016141d7565b92909360843598818a11610d8a57610b2660409a36906004016141d7565b92851692838a5260ff60209c8d9b60028d52600373ffffffffffffffffffffffffffffffffffffffff9d8e8484205416835252205416156106b857848b14801590610d80575b8015610d76575b610d4c5760405160808d820152978893610b9160a086018e8d6144bb565b7fffffffffffffffffffffffffffffffffffffffffffffffffffffffffffffffe09788878303016040880152610bc692614671565b60609887868303018a870152610bdb926145a5565b9085848303016080850152610bef92614671565b038281018652610bff90866143e2565b60405190610c0c8261438e565b5f825284604051610c1c81614356565b818152818c8201528160408201528181015f9052608001525f52600289528660405f2054169384156106b8577fa372371a2ece9b022744cfcc0877b9fd6002ceb224dbe1e13f5f2662ad560e2197610cb06007948c610ca4610d2b9a6040519a838c0152828b52610c8c8b614372565b60405198899384015260408084015286830190614bbc565b039081018652856143e2565b5f5460401c169160405193610cc48561438e565b620927c08552604051947f97a657c9000000000000000000000000000000000000000000000000000000008d87015251602486015260248552610d06856143aa565b60405196610d1388614356565b87528b87015260408601528401526080830152615631565b92610d41604051928392878452878401916144bb565b0390a1604051908152f35b60046040517fed9f42b0000000000000000000000000000000000000000000000000000000008152fd5b50808b1415610b73565b50868b1415610b6c565b8780fd5b8580fd5b8380fd5b503461029357807ffffffffffffffffffffffffffffffffffffffffffffffffffffffffffffffffc360112610293576020604051622dc6c08152f35b503461029357807ffffffffffffffffffffffffffffffffffffffffffffffffffffffffffffffffc3601126102935760206040516402540be4008152f35b503461029357807ffffffffffffffffffffffffffffffffffffffffffffffffffffffffffffffffc36011261029357602073ffffffffffffffffffffffffffffffffffffffff60045416604051908152f35b50346102935760207ffffffffffffffffffffffffffffffffffffffffffffffffffffffffffffffffc3601126102935760043567ffffffffffffffff81116102525760a07ffffffffffffffffffffffffffffffffffffffffffffffffffffffffffffffffc82360301126102525773ffffffffffffffffffffffffffffffffffffffff7f00000000000000000000000000000000000000000000000000000000000000001633036124595760405190610f1a82614356565b80600401358252610f2d60248201614187565b6020830152604481013567ffffffffffffffff8111610d9257610f56906004369184010161445d565b6040830152606481013567ffffffffffffffff8111610d9257610f7f906004369184010161445d565b606083015260848101359067ffffffffffffffff8211610d9257366023838301011215610d925760048282010135610fb6816144a3565b92610fc460405194856143e2565b81845260208401923660248460061b84840101011161131f5780820160240193915b60248460061b8284010101851061241d57878787608082015267ffffffffffffffff6020820151166040820151602081805181010312610d9257611041602073ffffffffffffffffffffffffffffffffffffffff9201614981565b16908352600260205273ffffffffffffffffffffffffffffffffffffffff6040842054168114801590612406575b6123d55750606081015180518101604082820312610d925760208201519160098310156113015760408101519167ffffffffffffffff8311610d8e576110bc9260208092019201016149c3565b9181156121f8575b60018214611fc4575b60028214611e24575b60038214611c6f575b60048214611af1575b600582146118cf575b60068214611635575b5060078114611323575b60081461110f575080f35b8051810190604081602084019303126106e657602081015167ffffffffffffffff8111610d925781019180603f84011215610d9257602083015192611153846144a3565b9361116160405195866143e2565b8085526040602086019160071b8301019183831161131f57604001905b8282106113055750505060408201519167ffffffffffffffff8311611301576111aa9201602001614d26565b8151815103610d4c57829073ffffffffffffffffffffffffffffffffffffffff7f0000000000000000000000000000000000000000000000000000000000000000163b15610252578161126591604051809381927f8742be81000000000000000000000000000000000000000000000000000000008352604060048401526112356044840189614ea8565b907ffffffffffffffffffffffffffffffffffffffffffffffffffffffffffffffffc848303016024850152614e2e565b03818373ffffffffffffffffffffffffffffffffffffffff7f0000000000000000000000000000000000000000000000000000000000000000165af1801561025e576112ed575b50506112e77fe3ddbf949cb7a018a68cffca747f34ef37679c4bb300c4293efe5aa4018310ff91604051918291602083526020830190614ea8565b0390a180f35b6112f690614342565b6102525781836112ac565b8480fd5b60206080916113148685614bff565b81520191019061117e565b8680fd5b8151820190608083830312610d925760208301519167ffffffffffffffff83116113015760208101603f8486010112156113015760208385010151611367816144a3565b9361137560405195866143e2565b818552602085019060208401604060a08502838a01010111610d8a5790604082880101915b604060a08502828a01010183106116135750505050604084015167ffffffffffffffff8111610d8e576113d590602080840191870101614d26565b90606085015167ffffffffffffffff811161131f576113fc90602080840191880101614c92565b90608086015167ffffffffffffffff8111610d8a57602080611422930191880101614d26565b9184518151811490811591611607575b81156115fb575b50610d4c57869273ffffffffffffffffffffffffffffffffffffffff7f0000000000000000000000000000000000000000000000000000000000000000163b15610d925783916115596114f99261152960405196879586957f8734aa12000000000000000000000000000000000000000000000000000000008752608060048801526114c98d6084890190614da6565b907ffffffffffffffffffffffffffffffffffffffffffffffffffffffffffffffffc888303016024890152614e2e565b907ffffffffffffffffffffffffffffffffffffffffffffffffffffffffffffffffc868303016044870152614cf3565b907ffffffffffffffffffffffffffffffffffffffffffffffffffffffffffffffffc848303016064850152614e2e565b03818373ffffffffffffffffffffffffffffffffffffffff7f0000000000000000000000000000000000000000000000000000000000000000165af1801561025e576115e7575b50507fe8b32231159ca2aeb6bd2ea21844874f9dbbf5304d06aabe82cad6cf3ca3b87b6115dd600893604051918291602083526020830190614da6565b0390a19050611104565b6115f090614342565b610d925783856115a0565b90508351141588611439565b83518114159150611432565b60a0806020604094611627828a0188614b6d565b81520194019392505061139a565b8251830160a0848203126113015761164f60208501614981565b90604085015167ffffffffffffffff811161131f5761167690602080840191880101614c92565b90606086015167ffffffffffffffff8111610d8a5760208061169c930191880101614c92565b6116a860808701614981565b5060a0860151908251905103610d4c5760206116eb608073ffffffffffffffffffffffffffffffffffffffff6116e082890151614a08565b515116960151614a08565b5101510361026957859061171f7f0000000000000000000000000000000000000000000000000000000000000000856151a3565b6117497f000000000000000000000000000000000000000000000000000000000000000085615200565b61179373ffffffffffffffffffffffffffffffffffffffff7f00000000000000000000000000000000000000000000000000000000000000001661178d81876151a3565b85615200565b73ffffffffffffffffffffffffffffffffffffffff7f0000000000000000000000000000000000000000000000000000000000000000163b15610252578161182c91604051809381927f3dda355800000000000000000000000000000000000000000000000000000000835273ffffffffffffffffffffffffffffffffffffffff88166004840152606060248401526064830190614cf3565b87604483015203818373ffffffffffffffffffffffffffffffffffffffff7f0000000000000000000000000000000000000000000000000000000000000000165af1801561025e576118bb575b505073ffffffffffffffffffffffffffffffffffffffff167f98d64dcf31d860b89de519aee807342854eca9a1a02df1042f850509fdd493ad8580a3836110fa565b6118c490614342565b611301578486611879565b604083805181010312610d92576118e860208401614981565b60408401519073ffffffffffffffffffffffffffffffffffffffff7f0000000000000000000000000000000000000000000000000000000000000000163b15610d8e57856040517fdd2e0ac000000000000000000000000000000000000000000000000000000000815283600482015281816024818373ffffffffffffffffffffffffffffffffffffffff7f0000000000000000000000000000000000000000000000000000000000000000165af1801561025e57611add575b505073ffffffffffffffffffffffffffffffffffffffff7f0000000000000000000000000000000000000000000000000000000000000000163b15610d8e576040517f42842e0e00000000000000000000000000000000000000000000000000000000815230600482015273ffffffffffffffffffffffffffffffffffffffff821660248201526044810183905286908181806064810103818373ffffffffffffffffffffffffffffffffffffffff7f0000000000000000000000000000000000000000000000000000000000000000165af1801561025e57611ac9575b5050602073ffffffffffffffffffffffffffffffffffffffff7fa0269577557e44b1e484388711aaee9dcfdebb716a88654f37c4c8388bc08739926040519485521692a26110f1565b611ad290614342565b610d8e578587611a80565b611ae690614342565b610d8e5785876119a2565b825183016102e08482031261130157611b0c60208501614981565b611b21602060408701519301606087016147db565b6102e08601519073ffffffffffffffffffffffffffffffffffffffff7f0000000000000000000000000000000000000000000000000000000000000000163b15610d8a57876040517fa462cd49000000000000000000000000000000000000000000000000000000008152818180611bb587878b73ffffffffffffffffffffffffffffffffffffffff8c1660048601614c55565b03818373ffffffffffffffffffffffffffffffffffffffff7f0000000000000000000000000000000000000000000000000000000000000000165af1801561025e57611c5b575b50507f7f3ef432bb1e77a701484dc68486dd0b262c06596baea7f6804d6894c388eaad926102c092611c4d73ffffffffffffffffffffffffffffffffffffffff936040519788526020880190614a42565b6102a08601521692a26110e8565b611c6490614342565b610d8a578789611bfc565b8251830160a0848203126113015784611c8e6020830160208701614bff565b9160a086015167ffffffffffffffff81116106e657602080611cb49301918801016149c3565b73ffffffffffffffffffffffffffffffffffffffff7f0000000000000000000000000000000000000000000000000000000000000000163b156102525781611d7c91604051809381927f7dd98451000000000000000000000000000000000000000000000000000000008352611d6b600484018967ffffffffffffffff6060809273ffffffffffffffffffffffffffffffffffffffff81511685526020810151602086015260408101516040860152015116910152565b60a0608484015260a4830190614bbc565b03818373ffffffffffffffffffffffffffffffffffffffff7f0000000000000000000000000000000000000000000000000000000000000000165af1801561025e57611e10575b50507ffd29d40736f7e30e737c49f0da6edb357095e0117291cd63e251ef8b2a5cd57360208073ffffffffffffffffffffffffffffffffffffffff845116930151604051908152a26110df565b611e1990614342565b611301578486611dc3565b608083805181010312610d9257611e3d60208401614981565b604084015190611e4f60608601614981565b50856020611e606080860151614a08565b510151611e9273ffffffffffffffffffffffffffffffffffffffff611e886080880151614a08565b5151169182615997565b73ffffffffffffffffffffffffffffffffffffffff7f0000000000000000000000000000000000000000000000000000000000000000163b1561025257604051907f692bf4a800000000000000000000000000000000000000000000000000000000825273ffffffffffffffffffffffffffffffffffffffff84166004830152846024830152604482015281816064818373ffffffffffffffffffffffffffffffffffffffff7f0000000000000000000000000000000000000000000000000000000000000000165af1801561025e57611fb0575b5050602073ffffffffffffffffffffffffffffffffffffffff7f4b425220000394679f443a7312a5351c5b75afe298ef4ffad4f7d6f6b33e295a926040519485521692a26110d6565b611fb990614342565b610d8e578587611f67565b82518301610100848203126113015784611fe46020830160208701614b6d565b9160c086015167ffffffffffffffff81116106e65761200b906020808401918901016149c3565b60e08701519161010088015167ffffffffffffffff8111611301576020806120379301918a01016149c3565b9173ffffffffffffffffffffffffffffffffffffffff7f0000000000000000000000000000000000000000000000000000000000000000163b15610d925783916121466121119260405195869485947f24e79fc20000000000000000000000000000000000000000000000000000000086526120fe600487018c67ffffffffffffffff6080809273ffffffffffffffffffffffffffffffffffffffff8151168552602081015160208601526040810151604086015260608101516060860152015116910152565b61010060a4870152610104860190614bbc565b9160c48501527ffffffffffffffffffffffffffffffffffffffffffffffffffffffffffffffffc8483030160e4850152614bbc565b03818373ffffffffffffffffffffffffffffffffffffffff7f0000000000000000000000000000000000000000000000000000000000000000165af1801561025e576121e4575b50507f95b55f38d05a2c5664b9788437177cc4cd38ad59294ccd15d9527664355380ec604073ffffffffffffffffffffffffffffffffffffffff8351169281602082015191015182519182526020820152a26110cd565b6121ed90614342565b61130157848661218d565b825183016102c084820312611301576122226020612217818701614981565b9201604086016147db565b906102c085015173ffffffffffffffffffffffffffffffffffffffff61224b6080860151614a08565b51511690602061225e6080870151614a08565b510151908103610269578061227661229d9284615997565b7f0000000000000000000000000000000000000000000000000000000000000000836158d9565b604051907fce0a052000000000000000000000000000000000000000000000000000000000825273ffffffffffffffffffffffffffffffffffffffff831660048301526122ed6024830185614a42565b60016102a48301526102c48201526020816102e4818a73ffffffffffffffffffffffffffffffffffffffff7f0000000000000000000000000000000000000000000000000000000000000000165af180156123ca5761239f575b506102a073ffffffffffffffffffffffffffffffffffffffff7f1d2662fa144aac97b5af0577237e997d47a91ebcc35ddbbd495282ed122af39a9261238f6040518096614a42565b60016102808601521692a26110c4565b602090813d83116123c3575b6123b581836143e2565b810103126106e25786612347565b503d6123ab565b6040513d89823e3d90fd5b602490604051907f3319937b0000000000000000000000000000000000000000000000000000000082526004820152fd5b50808352600360205260ff6040842054161561106f565b604085360312610d8a5760406020602494825161243981614372565b61244289614271565b815282890135838201528152019501949250610fe6565b60246040517fd7f73334000000000000000000000000000000000000000000000000000000008152336004820152fd5b506103007ffffffffffffffffffffffffffffffffffffffffffffffffffffffffffffffffc360112610293576124bd614170565b6124c5614208565b916102807fffffffffffffffffffffffffffffffffffffffffffffffffffffffffffffffbc3601126102935773ffffffffffffffffffffffffffffffffffffffff6102e435166102e435036106e25767ffffffffffffffff82168152600260205273ffffffffffffffffffffffffffffffffffffffff6040822054168152600360205260ff604082205416156106b85761255d61456a565b6102c43515610269576040517fa7f93ebd00000000000000000000000000000000000000000000000000000000815260208160048173ffffffffffffffffffffffffffffffffffffffff7f0000000000000000000000000000000000000000000000000000000000000000165afa801561025e578290612ede575b6125e791506102c4359061496e565b6040517f5b6cca8000000000000000000000000000000000000000000000000000000000815273ffffffffffffffffffffffffffffffffffffffff6102e43516600482015260208160248173ffffffffffffffffffffffffffffffffffffffff7f0000000000000000000000000000000000000000000000000000000000000000165afa8015612e5c578390612e91575b73ffffffffffffffffffffffffffffffffffffffff915016908115612e675760a0600492604051938480927ffeaf968c0000000000000000000000000000000000000000000000000000000082525afa918215612e5c578392612e0d575b5082821315612de3576402540be400918083810204831481151715612db657604051927f313ce56700000000000000000000000000000000000000000000000000000000845260208460048173ffffffffffffffffffffffffffffffffffffffff6102e435165afa938415612dab578594612d6f575b50670de0b6b3a7640000918383810204831484151715612d42579160ff93916127779302910261594f565b9116916012831015612cce575060ff8260120311612ca15761279e6127a492601203615986565b9061594f565b6127c78173ffffffffffffffffffffffffffffffffffffffff6102e43516614f26565b6127ec81303373ffffffffffffffffffffffffffffffffffffffff6102e435166150a9565b73ffffffffffffffffffffffffffffffffffffffff60405193169081602085015260443560ff81168091036106e25760408501526064359060ff82168092036106e2576060918286015260843560ff81168091036106e257608086015260a43560ff81168091036106e25760a086015260c43560ff81168091036106e25760c086015260e43560ff81168091036106e25760e08601526101043560ff81168091036106e2576101008601526101243560ff81168091036106e2576101208601526101443560ff81168091036106e2576101408601526101643560ff81168091036106e2576101608601526101843560ff81168091036106e2576101808601526101a43560ff81168091036106e2576101a08601526101c43560ff81168091036106e2576101c08601526101e43560ff81168091036106e2576101e08601526102043560ff81168091036106e257610200860152610224358015158091036106e2576102208601526102443560ff81168091036106e257610240860152610264358015158091036106e2576102608601526102843560ff81168091036106e2576102808601526102a4358015158091036106e2576102a08601526102c0818187015285526102e0850185811067ffffffffffffffff821117612c74576040526129d7816102e435615118565b918060806040516129e781614356565b8281528260208201528260408201525f83820152015267ffffffffffffffff85165f52600260205273ffffffffffffffffffffffffffffffffffffffff60405f2054169182156106b857612a70612c2d94612c2793612a9c60209a604051978c8901528b8852612a5688614372565b6040519485915f8e84015260408084015284830190614bbc565b037fffffffffffffffffffffffffffffffffffffffffffffffffffffffffffffffe081018552846143e2565b73ffffffffffffffffffffffffffffffffffffffff5f5460401c169160405193612ac58561438e565b622dc6c08552604051947f97a657c9000000000000000000000000000000000000000000000000000000008d87015251602486015260248552612b07856143aa565b60405197612b1489614356565b88528b88015260408701528501526080840152612ba48173ffffffffffffffffffffffffffffffffffffffff7f000000000000000000000000000000000000000000000000000000000000000016612b858173ffffffffffffffffffffffffffffffffffffffff6102e435166151a3565b73ffffffffffffffffffffffffffffffffffffffff6102e43516615384565b612be77f000000000000000000000000000000000000000000000000000000000000000073ffffffffffffffffffffffffffffffffffffffff6102e435166151a3565b7f000000000000000000000000000000000000000000000000000000000000000073ffffffffffffffffffffffffffffffffffffffff6102e43516615384565b83615631565b91827fd0b8c5ed1d955fe287fda914e47fa0bc1188c054366fdc1cb9c665c10c9d9cf98567ffffffffffffffff604051946102c43586521693a46001600555604051908152f35b7f4e487b71000000000000000000000000000000000000000000000000000000005f52604160045260245ffd5b7f4e487b71000000000000000000000000000000000000000000000000000000005f52601160045260245ffd5b506012821115612d3b5760ff7fffffffffffffffffffffffffffffffffffffffffffffffffffffffffffffffee830111612ca157612d307fffffffffffffffffffffffffffffffffffffffffffffffffffffffffffffffee612d369301615986565b9061496e565b6127a4565b90506127a4565b6024867f4e487b710000000000000000000000000000000000000000000000000000000081526011600452fd5b9093506020813d602011612da3575b81612d8b602093836143e2565b8101031261130157612d9c90614737565b925f61274c565b3d9150612d7e565b6040513d87823e3d90fd5b6024847f4e487b710000000000000000000000000000000000000000000000000000000081526011600452fd5b60046040517fa3019c86000000000000000000000000000000000000000000000000000000008152fd5b90915060a0813d60a011612e54575b81612e2960a093836143e2565b810103126106e657612e3a81615938565b50612e4c608060208301519201615938565b50905f6126d6565b3d9150612e1c565b6040513d85823e3d90fd5b60046040517f6c8b8de7000000000000000000000000000000000000000000000000000000008152fd5b506020813d602011612ed6575b81612eab602093836143e2565b810103126106e657612ed173ffffffffffffffffffffffffffffffffffffffff91614981565b612678565b3d9150612e9e565b506020813d602011612f0a575b81612ef8602093836143e2565b810103126106e2576125e790516125d8565b3d9150612eeb565b50346102935760207ffffffffffffffffffffffffffffffffffffffffffffffffffffffffffffffffc3601126102935760043590612f4e6145e2565b81156102695773ffffffffffffffffffffffffffffffffffffffff815460401c1691604051927f70a08231000000000000000000000000000000000000000000000000000000008452306004850152602084602481845afa938415612e5c578394612ffc575b50838211612fcb5790612fc89133906158d9565b80f35b602484604051907f1116d9ef0000000000000000000000000000000000000000000000000000000082526004820152fd5b9093506020813d602011613028575b81613018602093836143e2565b810103126106e25751925f612fb4565b3d915061300b565b503461029357807ffffffffffffffffffffffffffffffffffffffffffffffffffffffffffffffffc3601126102935773ffffffffffffffffffffffffffffffffffffffff6020915460401c16604051908152f35b503461029357807ffffffffffffffffffffffffffffffffffffffffffffffffffffffffffffffffc360112610293576130bb6145e2565b5f73ffffffffffffffffffffffffffffffffffffffff6004547fffffffffffffffffffffffff00000000000000000000000000000000000000008116600455167f8be0079c531659141344cd1fd0a4f28419497f9722a3daafe3b4186f6b6457e08280a380f35b50346106e2576060807ffffffffffffffffffffffffffffffffffffffffffffffffffffffffffffffffc3601126106e25761315b614170565b91602492833561316961424e565b9267ffffffffffffffff831692835f526020956002875273ffffffffffffffffffffffffffffffffffffffff8060405f2054165f526003885260ff60405f205416156106b8578087169687156106b857817f000000000000000000000000000000000000000000000000000000000000000016604051957f7e4d03d8000000000000000000000000000000000000000000000000000000008752876004880152868c61028098899181865afa9788156135c7575f986135d2575b5050813b156106e2576040517f42842e0e00000000000000000000000000000000000000000000000000000000815233600482015230602482015260448101899052915f8360648183855af19283156135c7578d936135b4575b508b60405180947f5b16d9680000000000000000000000000000000000000000000000000000000082528b600483015281845afa92831561025e578293613585575b504683036134e357803b15610252578180918e8b60405194859384927f80f2036300000000000000000000000000000000000000000000000000000000845260048401525af1801561025e57908c92916134cb575b505061332e61335a926004988a6040519687958601614c55565b037fffffffffffffffffffffffffffffffffffffffffffffffffffffffffffffffe081018352826143e2565b935b604051916133698361438e565b5f835283608060405161337b81614356565b828152828d8201528260408201525f838201520152875f5260028a528060405f2054169586156106b857604051968b8801528a87526133b987614372565b60405192600981101561349f5793838c9d9361343c828f977f95519b111edaffd68641c56e5ffce32883ef4bfbb37da2156501c7eff4b309f99c9a9661348d9c9a8a61341093015260408084015287830190614bbc565b037fffffffffffffffffffffffffffffffffffffffffffffffffffffffffffffffe081018452836143e2565b5f5460401c169360405161344f8161438e565b6207a12081527f97a657c9000000000000000000000000000000000000000000000000000000006040519788015251818701528552610930856143aa565b948592604051908152a4604051908152f35b8c7f4e487b71000000000000000000000000000000000000000000000000000000005f5260216004525ffd5b8192506134d790614342565b61029357808b91613314565b9150919550803b15610252578180918c604051809481937f7b47ec1a0000000000000000000000000000000000000000000000000000000083528c60048401525af1801561025e57613571575b50506040805173ffffffffffffffffffffffffffffffffffffffff909516898601908152602081018790526005959161356b9183910161332e565b9361335c565b61357b8291614342565b6102935780613530565b9092508b81813d83116135ad575b61359d81836143e2565b810103126106e25751915f6132bf565b503d613593565b6135bf919250614342565b5f905f61327d565b6040513d5f823e3d90fd5b80919298503d8211613605575b6135e981846143e2565b820190828203126106e2576135fd916147db565b955f80613223565b503d6135df565b346106e2575f7ffffffffffffffffffffffffffffffffffffffffffffffffffffffffffffffffc3601126106e257602060405173ffffffffffffffffffffffffffffffffffffffff7f0000000000000000000000000000000000000000000000000000000000000000168152f35b346106e2575f7ffffffffffffffffffffffffffffffffffffffffffffffffffffffffffffffffc3601126106e257602073ffffffffffffffffffffffffffffffffffffffff60015416604051908152f35b346106e2575f7ffffffffffffffffffffffffffffffffffffffffffffffffffffffffffffffffc3601126106e257602067ffffffffffffffff5f5416604051908152f35b346106e2576060807ffffffffffffffffffffffffffffffffffffffffffffffffffffffffffffffffc3601126106e257613747614170565b67ffffffffffffffff91906024358381116106e257366023820112156106e2578060040135928484116106e2576024820191602436918660071b0101116106e2576044358581116106e2576137a09036906004016141d7565b919095841693845f526020966002885273ffffffffffffffffffffffffffffffffffffffff958660405f2054165f526003895260ff60405f205416156106b857848803610d4c576138456138399560405196879160408d8401526138078884018d8c6142c0565b907fffffffffffffffffffffffffffffffffffffffffffffffffffffffffffffffe09687858403016040860152614671565b038381018752866143e2565b604051906138528261438e565b5f825284608060405161386481614356565b828152828d8201528260408201525f8382015201525f52600289528660405f2054169384156106b8577fc40f92ba5e837dc6a178798dc7c78f3936420be612221197dbaf149ed3a59f7997610cb06008948c610ca46138d19a6040519a838c0152828b52610c8c8b614372565b92610d41604051928392878452878401916142c0565b346106e2575f7ffffffffffffffffffffffffffffffffffffffffffffffffffffffffffffffffc3601126106e257602060405173ffffffffffffffffffffffffffffffffffffffff7f0000000000000000000000000000000000000000000000000000000000000000168152f35b346106e25760807ffffffffffffffffffffffffffffffffffffffffffffffffffffffffffffffffc3601126106e25761398c614170565b60243561399761424e565b906064359167ffffffffffffffff841690815f526020946002865273ffffffffffffffffffffffffffffffffffffffff908160405f2054165f526003875260ff60405f205416156106b8576139ea61456a565b818316926139f88785614f26565b613a04873033876150a9565b604051903389830152866040830152613a3788606092818486015287608086015260808552613a3285614356565b615118565b94816080604051613a4781614356565b828152828d8201528260408201525f838201520152865f5260028a528460405f2054169485156106b8578a612a708b94613b5499613ab1613b4f986040519b868d0152858c52613a968c614372565b60405194859160028884015260408084015285830190614bbc565b845f5460401c169260405194613ac68661438e565b6207a1208652604051957f97a657c9000000000000000000000000000000000000000000000000000000008288015251602487015260248652613b08866143aa565b6040519b613b158d614356565b8c528b015260408a015288015260808701527f00000000000000000000000000000000000000000000000000000000000000001690615384565b615631565b9260405192835284830152827f80e9f53f7f7f7b19c2b2adb19df0805d08493490b6d67b4ff8d2d9920fdbf1d360403394a46001600555604051908152f35b346106e25760807ffffffffffffffffffffffffffffffffffffffffffffffffffffffffffffffffc3601126106e257613bca61422b565b50613bd3614208565b5060643567ffffffffffffffff81116106e257613bf4903690600401614292565b505060206040517f150b7a02000000000000000000000000000000000000000000000000000000008152f35b346106e25760607ffffffffffffffffffffffffffffffffffffffffffffffffffffffffffffffffc3601126106e257613c57614170565b613c5f614208565b90604435918215158093036106e25773ffffffffffffffffffffffffffffffffffffffff90613c8c6145e2565b1680156106b8577fa54ce142349af8e389fe00f37d69e79664a287b29c8e325917962e92e4fe5fcd9267ffffffffffffffff602093165f526002835260405f20827fffffffffffffffffffffffff0000000000000000000000000000000000000000825416179055815f526003835260405f209060ff7fffffffffffffffffffffffffffffffffffffffffffffffffffffffffffffff008354169116179055604051908152a1005b346106e25760807ffffffffffffffffffffffffffffffffffffffffffffffffffffffffffffffffc3601126106e257613d6b614170565b60249067ffffffffffffffff9082358281116106e257613d8f9036906004016141d7565b9390916044358481116106e257613daa9036906004016141d7565b9390926064359573ffffffffffffffffffffffffffffffffffffffff808816918289036106e257851697885f5260209960028b528260405f2054165f5260038b5260ff60405f205416156106b857613e0061456a565b888103610d4c578015610269575f945f905b8a8210613fff5750508490613e278286614f26565b613e33823033886150a9565b6040519687918d33908401526040830160a0905260c0830190613e55926145a5565b987fffffffffffffffffffffffffffffffffffffffffffffffffffffffffffffffe09960609b8b848303018d850152613e8d926145a5565b8560808301528260a0830152038881018752613ea990876143e2565b613eb291615118565b9587604051613ec081614356565b818152818c8201528160408201528181015f905260800152885f5260028a528160405f2054169485156106b857613fcb988b98613f2e8a9461061794613b4f9a6040519d8e0152868d52613f138d614372565b60405195869160068984015260408084015286830190614bbc565b845f5460401c1692604051613f428161438e565b6207a12081527f97a657c9000000000000000000000000000000000000000000000000000000006040519687015251602486015260248552613f83856143aa565b6040519a613f908c614356565b8b528d8b015260408a015288015260808701527f00000000000000000000000000000000000000000000000000000000000000001690615384565b604051913390827fc3cfbc41fdf2854a8b8598251acff98cb7e98fba5428a216647848b5f8d1c0af5f80a460016005558152f35b90958660051b8a0135810180911161401b579560010190613e12565b507f4e487b71000000000000000000000000000000000000000000000000000000005f5260116004525ffd5b346106e25760207ffffffffffffffffffffffffffffffffffffffffffffffffffffffffffffffffc3601126106e25767ffffffffffffffff614087614170565b165f526002602052602073ffffffffffffffffffffffffffffffffffffffff60405f205416604051908152f35b346106e25760207ffffffffffffffffffffffffffffffffffffffffffffffffffffffffffffffffc3601126106e257600435907fffffffff0000000000000000000000000000000000000000000000000000000082168092036106e257817f85572ffb0000000000000000000000000000000000000000000000000000000060209314908115614146575b5015158152f35b7f01ffc9a7000000000000000000000000000000000000000000000000000000009150148361413f565b6004359067ffffffffffffffff821682036106e257565b359067ffffffffffffffff821682036106e257565b346106e2575f7ffffffffffffffffffffffffffffffffffffffffffffffffffffffffffffffffc3601126106e25760206040516207a1208152f35b9181601f840112156106e25782359167ffffffffffffffff83116106e2576020808501948460051b0101116106e257565b6024359073ffffffffffffffffffffffffffffffffffffffff821682036106e257565b6004359073ffffffffffffffffffffffffffffffffffffffff821682036106e257565b6044359073ffffffffffffffffffffffffffffffffffffffff821682036106e257565b359073ffffffffffffffffffffffffffffffffffffffff821682036106e257565b9181601f840112156106e25782359167ffffffffffffffff83116106e257602083818601950101116106e257565b9190808252602080920192915f905b8282106142dd575050505090565b9091929360019073ffffffffffffffffffffffffffffffffffffffff61430287614271565b168152828601358382015260408087013590820152606067ffffffffffffffff61432d828901614187565b169082015260809081019501939201906142cf565b67ffffffffffffffff8111612c7457604052565b60a0810190811067ffffffffffffffff821117612c7457604052565b6040810190811067ffffffffffffffff821117612c7457604052565b6020810190811067ffffffffffffffff821117612c7457604052565b6060810190811067ffffffffffffffff821117612c7457604052565b6080810190811067ffffffffffffffff821117612c7457604052565b90601f7fffffffffffffffffffffffffffffffffffffffffffffffffffffffffffffffe0910116810190811067ffffffffffffffff821117612c7457604052565b67ffffffffffffffff8111612c7457601f017fffffffffffffffffffffffffffffffffffffffffffffffffffffffffffffffe01660200190565b81601f820112156106e25780359061447482614423565b9261448260405194856143e2565b828452602083830101116106e257815f926020809301838601378301015290565b67ffffffffffffffff8111612c745760051b60200190565b9190808252602080920192915f905b8282106144d8575050505090565b9091929360019073ffffffffffffffffffffffffffffffffffffffff6144fd87614271565b16815282860135838201526040808701359082015260608087013590820152608067ffffffffffffffff614532828901614187565b169082015260a09081019501939201906144ca565b60243573ffffffffffffffffffffffffffffffffffffffff811681036106e25790565b60026005541461457b576002600555565b60046040517f3ee5aeb5000000000000000000000000000000000000000000000000000000008152fd5b90918281527f07ffffffffffffffffffffffffffffffffffffffffffffffffffffffffffffff83116106e25760209260051b809284830137010190565b73ffffffffffffffffffffffffffffffffffffffff60045416330361460357565b60246040517f118cdaa7000000000000000000000000000000000000000000000000000000008152336004820152fd5b601f82602094937fffffffffffffffffffffffffffffffffffffffffffffffffffffffffffffffe093818652868601375f8582860101520116010190565b908281815260208091019360208360051b82010194845f925b85841061469b575050505050505090565b909192939495967fffffffffffffffffffffffffffffffffffffffffffffffffffffffffffffffe082820301845287357fffffffffffffffffffffffffffffffffffffffffffffffffffffffffffffffe1843603018112156106e257830186810191903567ffffffffffffffff81116106e25780360383136106e25761472688928392600195614633565b99019401940192959493919061468a565b519060ff821682036106e257565b91908260409103126106e25760405161475d81614372565b602061477681839561476e81614737565b855201614737565b910152565b91908260609103126106e2576040516060810181811067ffffffffffffffff821117612c745760405260406147768183956147b581614737565b85526147c360208201614737565b602086015201614737565b519081151582036106e257565b9190918083039061028082126106e25760409182519060c0820182811067ffffffffffffffff821117612c7457845281956148168185614745565b835261482481868601614745565b6020840152614836816080860161477b565b8584015260a07fffffffffffffffffffffffffffffffffffffffffffffffffffffffffffffff208301126106e25760a0916148fb7ffffffffffffffffffffffffffffffffffffffffffffffffffffffffffffffe2092875161489781614356565b6148a360e08901614737565b81526148b26101008901614737565b60208201526148c46101208901614737565b898201526148d56101408901614737565b60608201526148e76101608901614737565b60808201526060870152610180870161477b565b608085015201126106e25761496561026060a09385519561491b87614356565b6149286101e083016147ce565b87526149376102008301614737565b602088015261494961022083016147ce565b9087015261495a6102408201614737565b6060870152016147ce565b60808401520152565b81810292918115918404141715612ca157565b519073ffffffffffffffffffffffffffffffffffffffff821682036106e257565b5f5b8381106149b35750505f910152565b81810151838201526020016149a4565b81601f820112156106e25780516149d981614423565b926149e760405194856143e2565b818452602082840101116106e257614a0591602080850191016149a2565b90565b805115614a155760200190565b7f4e487b71000000000000000000000000000000000000000000000000000000005f52603260045260245ffd5b60808060a061026093614a6586825160ff60208092828151168552015116910152565b602081810151805160ff90811660408a0152910151166060870152614aac60408201518488019060ff60408092828151168552826020820151166020860152015116910152565b606081015160ff9381858093511660e08a0152826020820151166101008a0152826040820151166101208a0152826060820151166101408a0152015116610160870152614b1c8482015161018088019060ff60408092828151168552826020820151166020860152015116910152565b015190815115156101e0860152806020830151166102008601526040820151151561022086015260608201511661024085015201511515910152565b519067ffffffffffffffff821682036106e257565b91908260a09103126106e257604051614b8581614356565b6080614776818395614b9681614981565b855260208101516020860152604081015160408601526060810151606086015201614b58565b907fffffffffffffffffffffffffffffffffffffffffffffffffffffffffffffffe0601f602093614bf8815180928187528780880191016149a2565b0116010190565b91908260809103126106e2576040516080810181811067ffffffffffffffff821117612c74576040526060614776818395614c3981614981565b8552602081015160208601526040810151604086015201614b58565b90949392614c8e906102c09373ffffffffffffffffffffffffffffffffffffffff6102e085019816845260208401526040830190614a42565b0152565b9080601f830112156106e257815190602091614cad816144a3565b93614cbb60405195866143e2565b81855260208086019260051b8201019283116106e257602001905b828210614ce4575050505090565b81518152908301908301614cd6565b9081518082526020808093019301915f5b828110614d12575050505090565b835185529381019392810192600101614d04565b81601f820112156106e257805191602091614d40846144a3565b93614d4e60405195866143e2565b808552838086019160051b830101928084116106e257848301915b848310614d795750505050505090565b825167ffffffffffffffff81116106e2578691614d9b848480948901016149c3565b815201920191614d69565b9081518082526020808093019301915f5b828110614dc5575050505090565b909192938260a082614e22600194895167ffffffffffffffff6080809273ffffffffffffffffffffffffffffffffffffffff8151168552602081015160208601526040810151604086015260608101516060860152015116910152565b01950193929101614db7565b90808251908181526020809101926020808460051b8301019501935f915b848310614e5c5750505050505090565b9091929394958480614e98837fffffffffffffffffffffffffffffffffffffffffffffffffffffffffffffffe086600196030187528a51614bbc565b9801930193019194939290614e4c565b9081518082526020808093019301915f5b828110614ec7575050505090565b9091929382608082614f1a600194895167ffffffffffffffff6060809273ffffffffffffffffffffffffffffffffffffffff81511685526020810151602086015260408101516040860152015116910152565b01950193929101614eb9565b604080517fdd62ed3e00000000000000000000000000000000000000000000000000000000815233600482015230602482015290929160209173ffffffffffffffffffffffffffffffffffffffff909116908281604481855afa90811561509f579084915f9161506e575b501061504557816024918551928380927f70a082310000000000000000000000000000000000000000000000000000000082523360048301525afa91821561503b575f9261500d575b505010614fe45750565b600490517f68724d74000000000000000000000000000000000000000000000000000000008152fd5b90809250813d8311615034575b61502481836143e2565b810103126106e257515f80614fda565b503d61501a565b84513d5f823e3d90fd5b600484517f2c283f55000000000000000000000000000000000000000000000000000000008152fd5b809250848092503d8311615098575b61508781836143e2565b810103126106e2578390515f614f91565b503d61507d565b85513d5f823e3d90fd5b6040517f23b872dd00000000000000000000000000000000000000000000000000000000602082015273ffffffffffffffffffffffffffffffffffffffff92831660248201529290911660448301526064820192909252615116916151118260848101613410565b615a18565b565b91906040926040519161512a83614372565b600183525f5b60208082101561515c5786516020929161514982614372565b5f82525f81830152828701015201615130565b50509350906151a091819473ffffffffffffffffffffffffffffffffffffffff6040519261518984614372565b168252602082015261519a82614a08565b52614a08565b50565b906151169173ffffffffffffffffffffffffffffffffffffffff604051927f095ea7b30000000000000000000000000000000000000000000000000000000060208501521660248301525f604483015260448252615111826143c6565b6040517fdd62ed3e00000000000000000000000000000000000000000000000000000000815230600482015273ffffffffffffffffffffffffffffffffffffffff83811660248301529293926020929183816044818686165afa9081156135c7575f91615357575b506152d35761511693947f095ea7b300000000000000000000000000000000000000000000000000000000604051948501521660248301527fffffffffffffffffffffffffffffffffffffffffffffffffffffffffffffffff604483015260448252615111826143c6565b608483604051907f08c379a00000000000000000000000000000000000000000000000000000000082526004820152603660248201527f5361666545524332303a20617070726f76652066726f6d206e6f6e2d7a65726f60448201527f20746f206e6f6e2d7a65726f20616c6c6f77616e6365000000000000000000006064820152fd5b90508381813d831161537d575b61536e81836143e2565b810103126106e257515f615268565b503d615364565b91909181158015615479575b156153f5576040517f095ea7b300000000000000000000000000000000000000000000000000000000602082015273ffffffffffffffffffffffffffffffffffffffff9093166024840152604483019190915261511691906151118260648101613410565b60846040517f08c379a000000000000000000000000000000000000000000000000000000000815260206004820152603660248201527f5361666545524332303a20617070726f76652066726f6d206e6f6e2d7a65726f60448201527f20746f206e6f6e2d7a65726f20616c6c6f77616e6365000000000000000000006064820152fd5b506040517fdd62ed3e00000000000000000000000000000000000000000000000000000000815230600482015273ffffffffffffffffffffffffffffffffffffffff841660248201526020818060448101038173ffffffffffffffffffffffffffffffffffffffff86165afa9081156135c7575f916154fa575b5015615390565b90506020813d602011615524575b81615515602093836143e2565b810103126106e257515f6154f3565b3d9150615508565b9092919267ffffffffffffffff60409116825260209160408382015261555e855160a0604084015260e0830190614bbc565b9161559884870151937fffffffffffffffffffffffffffffffffffffffffffffffffffffffffffffffc09485858303016060860152614bbc565b604087015194848483030160808501528080875193848152019601925f905b8382106155fb57505050505060c060808673ffffffffffffffffffffffffffffffffffffffff6060614a05989901511660a085015201519282850301910152614bbc565b8451805173ffffffffffffffffffffffffffffffffffffffff1689528301518884015296870196938201936001909101906155b7565b73ffffffffffffffffffffffffffffffffffffffff807f0000000000000000000000000000000000000000000000000000000000000000169260409384517f20487ded0000000000000000000000000000000000000000000000000000000081526020938482806156a6878a6004840161552c565b0381865afa9182156158cf575f926158a0575b505f54871c169086517f70a082310000000000000000000000000000000000000000000000000000000081523060048201528581602481865afa908115615896575f91615869575b5081116158395786517f095ea7b300000000000000000000000000000000000000000000000000000000815273ffffffffffffffffffffffffffffffffffffffff841660048201526024810191909152908490829060449082905f905af1801561582f576157f1575b509082916157a7945f87518097819582947f96f4e9f90000000000000000000000000000000000000000000000000000000084526004840161552c565b03925af19283156157e857505f926157be57505090565b90809250813d83116157e1575b6157d581836143e2565b810103126106e2575190565b503d6157cb565b513d5f823e3d90fd5b91908383813d8311615828575b61580881836143e2565b810103126106e2576157a79461581e85946147ce565b509450909161576a565b503d6157fe565b86513d5f823e3d90fd5b6024908751907f1116d9ef0000000000000000000000000000000000000000000000000000000082526004820152fd5b90508581813d831161588f575b61588081836143e2565b810103126106e257515f615701565b503d615876565b88513d5f823e3d90fd5b9091508481813d83116158c8575b6158b881836143e2565b810103126106e25751905f6156b9565b503d6158ae565b87513d5f823e3d90fd5b6040517fa9059cbb00000000000000000000000000000000000000000000000000000000602082015273ffffffffffffffffffffffffffffffffffffffff90921660248301526044820192909252615116916151118260648101613410565b519069ffffffffffffffffffff821682036106e257565b8115615959570490565b7f4e487b71000000000000000000000000000000000000000000000000000000005f52601260045260245ffd5b60ff16604d8111612ca157600a0a90565b90615116916159d1827f00000000000000000000000000000000000000000000000000000000000000006159cb81856151a3565b83615384565b73ffffffffffffffffffffffffffffffffffffffff7f00000000000000000000000000000000000000000000000000000000000000001690615a1382826151a3565b615384565b604051615aa09173ffffffffffffffffffffffffffffffffffffffff16615a3e82614372565b5f806020958685527f5361666545524332303a206c6f772d6c6576656c2063616c6c206661696c656487860152868151910182855af13d15615b4e573d91615a8583614423565b92615a9360405194856143e2565b83523d5f8785013e615b52565b805180615aac57505050565b818391810103126106e25781615ac291016147ce565b15615aca5750565b608490604051907f08c379a00000000000000000000000000000000000000000000000000000000082526004820152602a60248201527f5361666545524332303a204552433230206f7065726174696f6e20646964206e60448201527f6f742073756363656564000000000000000000000000000000000000000000006064820152fd5b6060915b91929015615bcd5750815115615b66575090565b3b15615b6f5790565b60646040517f08c379a000000000000000000000000000000000000000000000000000000000815260206004820152601d60248201527f416464726573733a2063616c6c20746f206e6f6e2d636f6e74726163740000006044820152fd5b825190915015615be05750805190602001fd5b615c1e906040519182917f08c379a0000000000000000000000000000000000000000000000000000000008352602060048401526024830190614bbc565b0390fdfea2646970667358221220b943efd3968533a83e25813fe54886348332f0398a0b3bc11c8632a8cd5f426864736f6c63430008180033","linkReferences":{}},"methodIdentifiers":{"ADDITIONAL_FEED_PRECISION()":"a0da12a5","GAS_LIMIT_BUY()":"10488413","GAS_LIMIT_MINT()":"a700a39c","GAS_LIMIT_SELL()":"ab895eb8","GAS_LIMIT_TRANSFER()":"ddf36e23","PRECISION()":"aaf5eb68","ccipReceive((bytes32,uint64,bytes,bytes,(address,uint256)[]))":"85572ffb","depositLink(uint256)":"f9eafa70","getRouter()":"b0f479a1","i_beanHeadsContract()":"2c406d44","i_router()":"581bdd16","onERC721Received(address,address,uint256,bytes)":"150b7a02","owner()":"8da5cb5b","renounceOwnership()":"715018a6","s_chainToRemoteBridge(uint64)":"100ebffc","s_destChain()":"41b8b269","s_linkToken()":"7725135b","s_remoteBridgeAddresses(address)":"f565b926","s_usdcToken()":"4fdb1ace","sendBatchBuyTokenRequest(uint64,uint256[],uint256[],address)":"1179680f","sendBatchCancelTokenSaleRequest(uint64,(address,uint256,uint256,uint64)[],bytes[])":"38c72353","sendBatchSellTokenRequest(uint64,(address,uint256,uint256,uint256,uint64)[],bytes[],uint256[],bytes[])":"aa7ab1ab","sendBuyTokenRequest(uint64,uint256,address,uint256)":"232df00d","sendCancelTokenSaleRequest(uint64,(address,uint256,uint256,uint64),bytes)":"b1a778ab","sendMintTokenRequest(uint64,address,((uint8,uint8),(uint8,uint8),(uint8,uint8,uint8),(uint8,uint8,uint8,uint8,uint8),(uint8,uint8,uint8),(bool,uint8,bool,uint8,bool)),uint256,address)":"7b0ef209","sendSellTokenRequest(uint64,(address,uint256,uint256,uint256,uint64),bytes,uint256,bytes)":"ef74cd76","sendTransferTokenRequest(uint64,uint256,address)":"62cd6c90","setRemoteBridge(uint64,address,bool)":"11d82d55","supportsInterface(bytes4)":"01ffc9a7","transferOwnership(address)":"f2fde38b","withdrawLink(uint256)":"7a8042bd"},"id":113}