{
  "abi": [
    {
      "type": "function",
      "name": "approve",
      "inputs": [
        {
          "name": "to",
          "type": "address",
          "internalType": "address"
        },
        {
          "name": "tokenId",
          "type": "uint256",
          "internalType": "uint256"
        }
      ],
      "outputs": [],
      "stateMutability": "payable"
    },
    {
      "type": "function",
      "name": "balanceOf",
      "inputs": [
        {
          "name": "owner",
          "type": "address",
          "internalType": "address"
        }
      ],
      "outputs": [
        {
          "name": "",
          "type": "uint256",
          "internalType": "uint256"
        }
      ],
      "stateMutability": "view"
    },
    {
      "type": "function",
      "name": "exists",
      "inputs": [
        {
          "name": "tokenId",
          "type": "uint256",
          "internalType": "uint256"
        }
      ],
      "outputs": [
        {
          "name": "",
          "type": "bool",
          "internalType": "bool"
        }
      ],
      "stateMutability": "view"
    },
    {
      "type": "function",
      "name": "getApproved",
      "inputs": [
        {
          "name": "tokenId",
          "type": "uint256",
          "internalType": "uint256"
        }
      ],
      "outputs": [
        {
          "name": "",
          "type": "address",
          "internalType": "address"
        }
      ],
      "stateMutability": "view"
    },
    {
      "type": "function",
      "name": "getAttributes",
      "inputs": [
        {
          "name": "_tokenId",
          "type": "uint256",
          "internalType": "uint256"
        }
      ],
      "outputs": [
        {
          "name": "",
          "type": "string",
          "internalType": "string"
        }
      ],
      "stateMutability": "view"
    },
    {
      "type": "function",
      "name": "getAttributesByOwner",
      "inputs": [
        {
          "name": "_owner",
          "type": "address",
          "internalType": "address"
        },
        {
          "name": "_tokenId",
          "type": "uint256",
          "internalType": "uint256"
        }
      ],
      "outputs": [
        {
          "name": "",
          "type": "tuple",
          "internalType": "struct Genesis.SVGParams",
          "components": [
            {
              "name": "hairParams",
              "type": "tuple",
              "internalType": "struct Genesis.HairParams",
              "components": [
                {
                  "name": "hairStyle",
                  "type": "uint8",
                  "internalType": "uint8"
                },
                {
                  "name": "hairColor",
                  "type": "uint8",
                  "internalType": "uint8"
                }
              ]
            },
            {
              "name": "bodyParams",
              "type": "tuple",
              "internalType": "struct Genesis.BodyParams",
              "components": [
                {
                  "name": "bodyType",
                  "type": "uint8",
                  "internalType": "uint8"
                },
                {
                  "name": "skinColor",
                  "type": "uint8",
                  "internalType": "uint8"
                }
              ]
            },
            {
              "name": "clothingParams",
              "type": "tuple",
              "internalType": "struct Genesis.ClothingParams",
              "components": [
                {
                  "name": "clothes",
                  "type": "uint8",
                  "internalType": "uint8"
                },
                {
                  "name": "clothingColor",
                  "type": "uint8",
                  "internalType": "uint8"
                },
                {
                  "name": "clothesGraphic",
                  "type": "uint8",
                  "internalType": "uint8"
                }
              ]
            },
            {
              "name": "facialFeaturesParams",
              "type": "tuple",
              "internalType": "struct Genesis.FacialFeaturesParams",
              "components": [
                {
                  "name": "eyebrowShape",
                  "type": "uint8",
                  "internalType": "uint8"
                },
                {
                  "name": "eyeShape",
                  "type": "uint8",
                  "internalType": "uint8"
                },
                {
                  "name": "facialHairType",
                  "type": "uint8",
                  "internalType": "uint8"
                },
                {
                  "name": "mouthStyle",
                  "type": "uint8",
                  "internalType": "uint8"
                },
                {
                  "name": "lipColor",
                  "type": "uint8",
                  "internalType": "uint8"
                }
              ]
            },
            {
              "name": "accessoryParams",
              "type": "tuple",
              "internalType": "struct Genesis.AccessoryParams",
              "components": [
                {
                  "name": "accessoryId",
                  "type": "uint8",
                  "internalType": "uint8"
                },
                {
                  "name": "hatStyle",
                  "type": "uint8",
                  "internalType": "uint8"
                },
                {
                  "name": "hatColor",
                  "type": "uint8",
                  "internalType": "uint8"
                }
              ]
            },
            {
              "name": "otherParams",
              "type": "tuple",
              "internalType": "struct Genesis.OtherParams",
              "components": [
                {
                  "name": "faceMask",
                  "type": "bool",
                  "internalType": "bool"
                },
                {
                  "name": "faceMaskColor",
                  "type": "uint8",
                  "internalType": "uint8"
                },
                {
                  "name": "shapes",
                  "type": "bool",
                  "internalType": "bool"
                },
                {
                  "name": "shapeColor",
                  "type": "uint8",
                  "internalType": "uint8"
                },
                {
                  "name": "lashes",
                  "type": "bool",
                  "internalType": "bool"
                }
              ]
            }
          ]
        }
      ],
      "stateMutability": "view"
    },
    {
      "type": "function",
      "name": "getAttributesByTokenId",
      "inputs": [
        {
          "name": "_tokenId",
          "type": "uint256",
          "internalType": "uint256"
        }
      ],
      "outputs": [
        {
          "name": "",
          "type": "tuple",
          "internalType": "struct Genesis.SVGParams",
          "components": [
            {
              "name": "hairParams",
              "type": "tuple",
              "internalType": "struct Genesis.HairParams",
              "components": [
                {
                  "name": "hairStyle",
                  "type": "uint8",
                  "internalType": "uint8"
                },
                {
                  "name": "hairColor",
                  "type": "uint8",
                  "internalType": "uint8"
                }
              ]
            },
            {
              "name": "bodyParams",
              "type": "tuple",
              "internalType": "struct Genesis.BodyParams",
              "components": [
                {
                  "name": "bodyType",
                  "type": "uint8",
                  "internalType": "uint8"
                },
                {
                  "name": "skinColor",
                  "type": "uint8",
                  "internalType": "uint8"
                }
              ]
            },
            {
              "name": "clothingParams",
              "type": "tuple",
              "internalType": "struct Genesis.ClothingParams",
              "components": [
                {
                  "name": "clothes",
                  "type": "uint8",
                  "internalType": "uint8"
                },
                {
                  "name": "clothingColor",
                  "type": "uint8",
                  "internalType": "uint8"
                },
                {
                  "name": "clothesGraphic",
                  "type": "uint8",
                  "internalType": "uint8"
                }
              ]
            },
            {
              "name": "facialFeaturesParams",
              "type": "tuple",
              "internalType": "struct Genesis.FacialFeaturesParams",
              "components": [
                {
                  "name": "eyebrowShape",
                  "type": "uint8",
                  "internalType": "uint8"
                },
                {
                  "name": "eyeShape",
                  "type": "uint8",
                  "internalType": "uint8"
                },
                {
                  "name": "facialHairType",
                  "type": "uint8",
                  "internalType": "uint8"
                },
                {
                  "name": "mouthStyle",
                  "type": "uint8",
                  "internalType": "uint8"
                },
                {
                  "name": "lipColor",
                  "type": "uint8",
                  "internalType": "uint8"
                }
              ]
            },
            {
              "name": "accessoryParams",
              "type": "tuple",
              "internalType": "struct Genesis.AccessoryParams",
              "components": [
                {
                  "name": "accessoryId",
                  "type": "uint8",
                  "internalType": "uint8"
                },
                {
                  "name": "hatStyle",
                  "type": "uint8",
                  "internalType": "uint8"
                },
                {
                  "name": "hatColor",
                  "type": "uint8",
                  "internalType": "uint8"
                }
              ]
            },
            {
              "name": "otherParams",
              "type": "tuple",
              "internalType": "struct Genesis.OtherParams",
              "components": [
                {
                  "name": "faceMask",
                  "type": "bool",
                  "internalType": "bool"
                },
                {
                  "name": "faceMaskColor",
                  "type": "uint8",
                  "internalType": "uint8"
                },
                {
                  "name": "shapes",
                  "type": "bool",
                  "internalType": "bool"
                },
                {
                  "name": "shapeColor",
                  "type": "uint8",
                  "internalType": "uint8"
                },
                {
                  "name": "lashes",
                  "type": "bool",
                  "internalType": "bool"
                }
              ]
            }
          ]
        }
      ],
      "stateMutability": "view"
    },
    {
      "type": "function",
      "name": "getOriginChainId",
      "inputs": [
        {
          "name": "_tokenId",
          "type": "uint256",
          "internalType": "uint256"
        }
      ],
      "outputs": [
        {
          "name": "",
          "type": "uint256",
          "internalType": "uint256"
        }
      ],
      "stateMutability": "view"
    },
    {
      "type": "function",
      "name": "getOwnerTokensCount",
      "inputs": [
        {
          "name": "_owner",
          "type": "address",
          "internalType": "address"
        }
      ],
      "outputs": [
        {
          "name": "",
          "type": "uint256",
          "internalType": "uint256"
        }
      ],
      "stateMutability": "view"
    },
    {
      "type": "function",
      "name": "isApprovedForAll",
      "inputs": [
        {
          "name": "owner",
          "type": "address",
          "internalType": "address"
        },
        {
          "name": "operator",
          "type": "address",
          "internalType": "address"
        }
      ],
      "outputs": [
        {
          "name": "",
          "type": "bool",
          "internalType": "bool"
        }
      ],
      "stateMutability": "view"
    },
    {
      "type": "function",
      "name": "isBridgeAuthorized",
      "inputs": [
        {
          "name": "chainSelector",
          "type": "uint64",
          "internalType": "uint64"
        },
        {
          "name": "bridge",
          "type": "address",
          "internalType": "address"
        }
      ],
      "outputs": [
        {
          "name": "",
          "type": "bool",
          "internalType": "bool"
        }
      ],
      "stateMutability": "view"
    },
    {
      "type": "function",
      "name": "isTokenLocked",
      "inputs": [
        {
          "name": "_tokenId",
          "type": "uint256",
          "internalType": "uint256"
        }
      ],
      "outputs": [
        {
          "name": "",
          "type": "bool",
          "internalType": "bool"
        }
      ],
      "stateMutability": "view"
    },
    {
      "type": "function",
      "name": "name",
      "inputs": [],
      "outputs": [
        {
          "name": "",
          "type": "string",
          "internalType": "string"
        }
      ],
      "stateMutability": "view"
    },
    {
      "type": "function",
      "name": "ownerOf",
      "inputs": [
        {
          "name": "tokenId",
          "type": "uint256",
          "internalType": "uint256"
        }
      ],
      "outputs": [
        {
          "name": "",
          "type": "address",
          "internalType": "address"
        }
      ],
      "stateMutability": "view"
    },
    {
      "type": "function",
      "name": "safeTransferFrom",
      "inputs": [
        {
          "name": "from",
          "type": "address",
          "internalType": "address"
        },
        {
          "name": "to",
          "type": "address",
          "internalType": "address"
        },
        {
          "name": "tokenId",
          "type": "uint256",
          "internalType": "uint256"
        }
      ],
      "outputs": [],
      "stateMutability": "payable"
    },
    {
      "type": "function",
      "name": "safeTransferFrom",
      "inputs": [
        {
          "name": "from",
          "type": "address",
          "internalType": "address"
        },
        {
          "name": "to",
          "type": "address",
          "internalType": "address"
        },
        {
          "name": "tokenId",
          "type": "uint256",
          "internalType": "uint256"
        },
        {
          "name": "_data",
          "type": "bytes",
          "internalType": "bytes"
        }
      ],
      "outputs": [],
      "stateMutability": "payable"
    },
    {
      "type": "function",
      "name": "setApprovalForAll",
      "inputs": [
        {
          "name": "operator",
          "type": "address",
          "internalType": "address"
        },
        {
          "name": "approved",
          "type": "bool",
          "internalType": "bool"
        }
      ],
      "outputs": [],
      "stateMutability": "nonpayable"
    },
    {
      "type": "function",
      "name": "symbol",
      "inputs": [],
      "outputs": [
        {
          "name": "",
          "type": "string",
          "internalType": "string"
        }
      ],
      "stateMutability": "view"
    },
    {
      "type": "function",
      "name": "tokenURI",
      "inputs": [
        {
          "name": "_tokenId",
          "type": "uint256",
          "internalType": "uint256"
        }
      ],
      "outputs": [
        {
          "name": "",
          "type": "string",
          "internalType": "string"
        }
      ],
      "stateMutability": "view"
    },
    {
      "type": "function",
      "name": "totalSupply",
      "inputs": [],
      "outputs": [
        {
          "name": "",
          "type": "uint256",
          "internalType": "uint256"
        }
      ],
      "stateMutability": "view"
    },
    {
      "type": "function",
      "name": "transferFrom",
      "inputs": [
        {
          "name": "from",
          "type": "address",
          "internalType": "address"
        },
        {
          "name": "to",
          "type": "address",
          "internalType": "address"
        },
        {
          "name": "tokenId",
          "type": "uint256",
          "internalType": "uint256"
        }
      ],
      "outputs": [],
      "stateMutability": "payable"
    },
    {
      "type": "event",
      "name": "Approval",
      "inputs": [
        {
          "name": "owner",
          "type": "address",
          "indexed": true,
          "internalType": "address"
        },
        {
          "name": "approved",
          "type": "address",
          "indexed": true,
          "internalType": "address"
        },
        {
          "name": "tokenId",
          "type": "uint256",
          "indexed": true,
          "internalType": "uint256"
        }
      ],
      "anonymous": false
    },
    {
      "type": "event",
      "name": "ApprovalForAll",
      "inputs": [
        {
          "name": "owner",
          "type": "address",
          "indexed": true,
          "internalType": "address"
        },
        {
          "name": "operator",
          "type": "address",
          "indexed": true,
          "internalType": "address"
        },
        {
          "name": "approved",
          "type": "bool",
          "indexed": false,
          "internalType": "bool"
        }
      ],
      "anonymous": false
    },
    {
      "type": "event",
      "name": "ConsecutiveTransfer",
      "inputs": [
        {
          "name": "fromTokenId",
          "type": "uint256",
          "indexed": true,
          "internalType": "uint256"
        },
        {
          "name": "toTokenId",
          "type": "uint256",
          "indexed": false,
          "internalType": "uint256"
        },
        {
          "name": "from",
          "type": "address",
          "indexed": true,
          "internalType": "address"
        },
        {
          "name": "to",
          "type": "address",
          "indexed": true,
          "internalType": "address"
        }
      ],
      "anonymous": false
    },
    {
      "type": "event",
      "name": "Transfer",
      "inputs": [
        {
          "name": "from",
          "type": "address",
          "indexed": true,
          "internalType": "address"
        },
        {
          "name": "to",
          "type": "address",
          "indexed": true,
          "internalType": "address"
        },
        {
          "name": "tokenId",
          "type": "uint256",
          "indexed": true,
          "internalType": "uint256"
        }
      ],
      "anonymous": false
    },
    {
      "type": "error",
      "name": "AccessoryDetail__InvalidType",
      "inputs": [
        {
          "name": "id",
          "type": "uint8",
          "internalType": "uint8"
        }
      ]
    },
    {
      "type": "error",
      "name": "ApprovalCallerNotOwnerNorApproved",
      "inputs": []
    },
    {
      "type": "error",
      "name": "ApprovalQueryForNonexistentToken",
      "inputs": []
    },
    {
      "type": "error",
      "name": "BalanceQueryForZeroAddress",
      "inputs": []
    },
    {
      "type": "error",
      "name": "BodyDetail__InvalidColor",
      "inputs": [
        {
          "name": "id",
          "type": "uint8",
          "internalType": "uint8"
        }
      ]
    },
    {
      "type": "error",
      "name": "BodyDetail__InvalidType",
      "inputs": [
        {
          "name": "id",
          "type": "uint8",
          "internalType": "uint8"
        }
      ]
    },
    {
      "type": "error",
      "name": "ClothingDetail__InvalidColor",
      "inputs": [
        {
          "name": "id",
          "type": "uint8",
          "internalType": "uint8"
        }
      ]
    },
    {
      "type": "error",
      "name": "ClothingDetail__InvalidType",
      "inputs": [
        {
          "name": "id",
          "type": "uint8",
          "internalType": "uint8"
        }
      ]
    },
    {
      "type": "error",
      "name": "ClothingGraphicDetail__InvalidType",
      "inputs": [
        {
          "name": "id",
          "type": "uint8",
          "internalType": "uint8"
        }
      ]
    },
    {
      "type": "error",
      "name": "Errors__InvalidColor",
      "inputs": [
        {
          "name": "id",
          "type": "uint8",
          "internalType": "uint8"
        }
      ]
    },
    {
      "type": "error",
      "name": "EyebrowDetail__InvalidType",
      "inputs": [
        {
          "name": "id",
          "type": "uint8",
          "internalType": "uint8"
        }
      ]
    },
    {
      "type": "error",
      "name": "EyesDetail__InvalidType",
      "inputs": [
        {
          "name": "id",
          "type": "uint8",
          "internalType": "uint8"
        }
      ]
    },
    {
      "type": "error",
      "name": "FacialHairDetail__InvalidType",
      "inputs": [
        {
          "name": "id",
          "type": "uint8",
          "internalType": "uint8"
        }
      ]
    },
    {
      "type": "error",
      "name": "HairDetail__InvalidColor",
      "inputs": [
        {
          "name": "id",
          "type": "uint8",
          "internalType": "uint8"
        }
      ]
    },
    {
      "type": "error",
      "name": "HairDetail__InvalidType",
      "inputs": [
        {
          "name": "id",
          "type": "uint8",
          "internalType": "uint8"
        }
      ]
    },
    {
      "type": "error",
      "name": "HatsDetail__InvalidColor",
      "inputs": [
        {
          "name": "id",
          "type": "uint8",
          "internalType": "uint8"
        }
      ]
    },
    {
      "type": "error",
      "name": "HatsDetail__InvalidType",
      "inputs": [
        {
          "name": "id",
          "type": "uint8",
          "internalType": "uint8"
        }
      ]
    },
    {
      "type": "error",
      "name": "IBeanHeadsView__NotOwner",
      "inputs": []
    },
    {
      "type": "error",
      "name": "IBeanHeadsView__TokenDoesNotExist",
      "inputs": []
    },
    {
      "type": "error",
      "name": "IBeanHeadsView__TokenNotForSale",
      "inputs": []
    },
    {
      "type": "error",
      "name": "InvalidTokenId",
      "inputs": []
    },
    {
      "type": "error",
      "name": "MintERC2309QuantityExceedsLimit",
      "inputs": []
    },
    {
      "type": "error",
      "name": "MintToZeroAddress",
      "inputs": []
    },
    {
      "type": "error",
      "name": "MintZeroQuantity",
      "inputs": []
    },
    {
      "type": "error",
      "name": "MouthDetail__InvalidColor",
      "inputs": [
        {
          "name": "id",
          "type": "uint8",
          "internalType": "uint8"
        }
      ]
    },
    {
      "type": "error",
      "name": "MouthDetail__InvalidType",
      "inputs": [
        {
          "name": "id",
          "type": "uint8",
          "internalType": "uint8"
        }
      ]
    },
    {
      "type": "error",
      "name": "OwnerQueryForNonexistentToken",
      "inputs": []
    },
    {
      "type": "error",
      "name": "OwnershipNotInitializedForExtraData",
      "inputs": []
    },
    {
      "type": "error",
      "name": "TokenAlreadyExists",
      "inputs": []
    },
    {
      "type": "error",
      "name": "TransferCallerNotOwnerNorApproved",
      "inputs": []
    },
    {
      "type": "error",
      "name": "TransferFromIncorrectOwner",
      "inputs": []
    },
    {
      "type": "error",
      "name": "TransferToNonERC721ReceiverImplementer",
      "inputs": []
    },
    {
      "type": "error",
      "name": "TransferToZeroAddress",
      "inputs": []
    },
    {
      "type": "error",
      "name": "URIQueryForNonexistentToken",
      "inputs": []
    }
  ],
  "bytecode": {
    "object": "0x6080806040523461001657615097908161001b8239f35b5f80fdfe60806040526004361015610011575f80fd5b5f3560e01c806306fdde0314610164578063081812fc1461015f578063095ea7b31461015a57806318160ddd146101555780631efa613c1461015057806323b872dd1461014b578063276a28a31461014657806342842e0e146101415780634378a6e31461013c5780634f558e79146101375780635b16d968146101325780636352211e1461012d57806370a082311461012857806371563f14146101235780637e4d03d81461011e57806384d1e1ff1461011957806395d89b4114610114578063a22cb4651461010f578063b88d4fde1461010a578063c87b56dd146101055763e985e9c514610100575f80fd5b6116bc565b611240565b61119f565b610efa565b610ddd565b610d41565b610cc3565b610c41565b610b6a565b610b10565b610a9b565b610a55565b61099a565b610978565b6108fe565b6108ea565b61078b565b6105ef565b610476565b61037d565b6101e1565b5f5b83811061017a5750505f910152565b818101518382015260200161016b565b907fffffffffffffffffffffffffffffffffffffffffffffffffffffffffffffffe0601f6020936101c681518092818752878088019101610169565b0116010190565b9060206101de92818152019061018a565b90565b34610379575f7ffffffffffffffffffffffffffffffffffffffffffffffffffffffffffffffffc360112610379576040515f7f8785b62d5a7098417c833f00e99883e36791da2bbef1ddc66d7797ca0681c2d25460018160011c916001811691821561036f575b602091602085108414610342578487526020870193908115610305575060011461028d575b6102898661027d818803826110d5565b604051918291826101cd565b0390f35b7f8785b62d5a7098417c833f00e99883e36791da2bbef1ddc66d7797ca0681c2d25f90815294509192917f4eff6dd2ce7e3eed3d8c57a965022ef5c4089064f80bafbcccb1920be91b46a15b8386106102f4575050509101905061027d826102895f61026d565b8054858701529482019481016102d9565b7fffffffffffffffffffffffffffffffffffffffffffffffffffffffffffffff0016845250505090151560051b01905061027d826102895f61026d565b7f4e487b71000000000000000000000000000000000000000000000000000000005f52602260045260245ffd5b92607f1692610248565b5f80fd5b346103795760207ffffffffffffffffffffffffffffffffffffffffffffffffffffffffffffffffc360112610379576004356103b881611d1d565b15610408575f527f8785b62d5a7098417c833f00e99883e36791da2bbef1ddc66d7797ca0681c2d6602052602073ffffffffffffffffffffffffffffffffffffffff60405f205416604051908152f35b7fcf4700e4000000000000000000000000000000000000000000000000000000005f5260045ffd5b6004359073ffffffffffffffffffffffffffffffffffffffff8216820361037957565b6024359073ffffffffffffffffffffffffffffffffffffffff8216820361037957565b60407ffffffffffffffffffffffffffffffffffffffffffffffffffffffffffffffffc360112610379576104a8610430565b6024359073ffffffffffffffffffffffffffffffffffffffff806104cb84611e78565b1690813303610551575b835f527f8785b62d5a7098417c833f00e99883e36791da2bbef1ddc66d7797ca0681c2d660205260405f20921691827fffffffffffffffffffffffff00000000000000000000000000000000000000008254161790557f8c5be1e5ebec7d5bd14f71427d1e84f3dd0314c0f7b2291e5b200ac8c7c3b9255f80a4005b60ff6105c13361059e8573ffffffffffffffffffffffffffffffffffffffff165f527f8785b62d5a7098417c833f00e99883e36791da2bbef1ddc66d7797ca0681c2d760205260405f2090565b9073ffffffffffffffffffffffffffffffffffffffff165f5260205260405f2090565b54166104d5577fcfb3b942000000000000000000000000000000000000000000000000000000005f5260045ffd5b34610379575f7ffffffffffffffffffffffffffffffffffffffffffffffffffffffffffffffffc3601126103795760207f8785b62d5a7098417c833f00e99883e36791da2bbef1ddc66d7797ca0681c2d0547f8785b62d5a7098417c833f00e99883e36791da2bbef1ddc66d7797ca0681c2d1549003604051908152f35b610789909291926101e060a061028083019561069984825160ff60208092828151168552015116910152565b602081810151805160ff9081166040880152910151166060850152604081810151805160ff90811660808801526020820151811660a08801529101511660c085015260ff608060608301518281511660e088015282602082015116610100880152826040820151166101208801528260608201511661014088015201511661016085015261074b608082015161018086019060ff60408092828151168552826020820151166020860152015116910152565b01519101906080809180511515845260ff602082015116602085015260408101511515604085015260ff606082015116606085015201511515910152565b565b346103795760407ffffffffffffffffffffffffffffffffffffffffffffffffffffffffffffffffc360112610379576107c2610430565b602435906107ce6117b5565b506107d882611d1d565b156108625773ffffffffffffffffffffffffffffffffffffffff16330361083a575f527f791cad950d3b9b323a06def8cb8b7bf2c934c7f4cea39385f023ba145f9b93ae60205261028961082e60405f206118a8565b6040519182918261066d565b7ff4169f36000000000000000000000000000000000000000000000000000000005f5260045ffd5b7ff8989659000000000000000000000000000000000000000000000000000000005f5260045ffd5b7ffffffffffffffffffffffffffffffffffffffffffffffffffffffffffffffffc60609101126103795773ffffffffffffffffffffffffffffffffffffffff90600435828116810361037957916024359081168103610379579060443590565b6108fc6108f63661088a565b9161195d565b005b346103795760207ffffffffffffffffffffffffffffffffffffffffffffffffffffffffffffffffc3601126103795760043561093981611d1d565b15610862575f527f791cad950d3b9b323a06def8cb8b7bf2c934c7f4cea39385f023ba145f9b93c0602052602060ff60405f2054166040519015158152f35b6108fc6109843661088a565b90604051926109928461109d565b5f8452611c96565b346103795760207ffffffffffffffffffffffffffffffffffffffffffffffffffffffffffffffffc360112610379576004356109d581611d1d565b15610862575f527f791cad950d3b9b323a06def8cb8b7bf2c934c7f4cea39385f023ba145f9b93ae602052610289610a4160405f207f791cad950d3b9b323a06def8cb8b7bf2c934c7f4cea39385f023ba145f9b93af602052610a3c60405f2054916118a8565b612027565b60405191829160208352602083019061018a565b346103795760207ffffffffffffffffffffffffffffffffffffffffffffffffffffffffffffffffc360112610379576020610a91600435611d1d565b6040519015158152f35b346103795760207ffffffffffffffffffffffffffffffffffffffffffffffffffffffffffffffffc36011261037957600435610ad681611d1d565b15610862575f527f791cad950d3b9b323a06def8cb8b7bf2c934c7f4cea39385f023ba145f9b93c1602052602060405f2054604051908152f35b346103795760207ffffffffffffffffffffffffffffffffffffffffffffffffffffffffffffffffc36011261037957602073ffffffffffffffffffffffffffffffffffffffff610b61600435611e78565b16604051908152f35b346103795760207ffffffffffffffffffffffffffffffffffffffffffffffffffffffffffffffffc36011261037957610ba1610430565b73ffffffffffffffffffffffffffffffffffffffff811615610c195767ffffffffffffffff610c0f60209273ffffffffffffffffffffffffffffffffffffffff165f527f8785b62d5a7098417c833f00e99883e36791da2bbef1ddc66d7797ca0681c2d560205260405f2090565b5416604051908152f35b7f8f4eb604000000000000000000000000000000000000000000000000000000005f5260045ffd5b346103795760207ffffffffffffffffffffffffffffffffffffffffffffffffffffffffffffffffc3601126103795773ffffffffffffffffffffffffffffffffffffffff610c8d610430565b165f527f791cad950d3b9b323a06def8cb8b7bf2c934c7f4cea39385f023ba145f9b93b1602052602060405f2054604051908152f35b346103795760207ffffffffffffffffffffffffffffffffffffffffffffffffffffffffffffffffc36011261037957600435610cfd6117b5565b50610d0781611d1d565b15610862575f527f791cad950d3b9b323a06def8cb8b7bf2c934c7f4cea39385f023ba145f9b93ae60205261028961082e60405f206118a8565b346103795760407ffffffffffffffffffffffffffffffffffffffffffffffffffffffffffffffffc3601126103795760043567ffffffffffffffff811680910361037957602090610d90610453565b905f527f791cad950d3b9b323a06def8cb8b7bf2c934c7f4cea39385f023ba145f9b93c3825273ffffffffffffffffffffffffffffffffffffffff8060405f205416906040519216148152f35b34610379575f7ffffffffffffffffffffffffffffffffffffffffffffffffffffffffffffffffc360112610379576040515f7f8785b62d5a7098417c833f00e99883e36791da2bbef1ddc66d7797ca0681c2d35460018160011c9160018116918215610ef0575b6020916020851084146103425784875260208701939081156103055750600114610e78576102898661027d818803826110d5565b7f8785b62d5a7098417c833f00e99883e36791da2bbef1ddc66d7797ca0681c2d35f90815294509192917feab2a30426a14f07ecdc76635cd0729eb655bee4c9d04a8fb1b5d85c28c9dae35b838610610edf575050509101905061027d826102895f61026d565b805485870152948201948101610ec4565b92607f1692610e44565b346103795760407ffffffffffffffffffffffffffffffffffffffffffffffffffffffffffffffffc36011261037957610f31610430565b602435908115158092036103795780610fa073ffffffffffffffffffffffffffffffffffffffff9261059e3373ffffffffffffffffffffffffffffffffffffffff165f527f8785b62d5a7098417c833f00e99883e36791da2bbef1ddc66d7797ca0681c2d760205260405f2090565b7fffffffffffffffffffffffffffffffffffffffffffffffffffffffffffffff0081541660ff851617905560405192835216907f17307eab39ab6107e8899845ad3d59bd9653f200f220920489ca2b5937696c3160203392a3005b7f4e487b71000000000000000000000000000000000000000000000000000000005f52604160045260245ffd5b6040810190811067ffffffffffffffff82111761104457604052565b610ffb565b6060810190811067ffffffffffffffff82111761104457604052565b60a0810190811067ffffffffffffffff82111761104457604052565b60c0810190811067ffffffffffffffff82111761104457604052565b6020810190811067ffffffffffffffff82111761104457604052565b60e0810190811067ffffffffffffffff82111761104457604052565b90601f7fffffffffffffffffffffffffffffffffffffffffffffffffffffffffffffffe0910116810190811067ffffffffffffffff82111761104457604052565b60405190610100820182811067ffffffffffffffff82111761104457604052565b6040519061078982611081565b60405190610120820182811067ffffffffffffffff82111761104457604052565b67ffffffffffffffff811161104457601f017fffffffffffffffffffffffffffffffffffffffffffffffffffffffffffffffe01660200190565b60807ffffffffffffffffffffffffffffffffffffffffffffffffffffffffffffffffc360112610379576111d1610430565b6111d9610453565b6064359167ffffffffffffffff831161037957366023840112156103795782600401359161120683611165565b9261121460405194856110d5565b8084523660248287010111610379576020815f9260246108fc9801838801378501015260443591611c96565b34610379576020807ffffffffffffffffffffffffffffffffffffffffffffffffffffffffffffffffc3601126103795760043561127c81611d1d565b1561086257805f527f791cad950d3b9b323a06def8cb8b7bf2c934c7f4cea39385f023ba145f9b93ae8252604090815f206112b6906118a8565b90805f527f791cad950d3b9b323a06def8cb8b7bf2c934c7f4cea39385f023ba145f9b93af84528380845f20546112ed9085612027565b930151015183517f3c73766720786d6c6e733d22687474703a2f2f7777772e77332e6f72672f3230868201527f30302f737667222076696577426f783d223020302035303020353030223e0000818601527f3c726563742077696474683d2235303022206865696768743d22353030222066605e8201527f696c6c3d22000000000000000000000000000000000000000000000000000000607e82015260f89190911b7fff000000000000000000000000000000000000000000000000000000000000001660838201527f222f3e000000000000000000000000000000000000000000000000000000000060848201527f3c7465787420783d223530252220793d223530252220646f6d696e616e742d6260878201527f6173656c696e653d226d6964646c652220746578742d616e63686f723d226d6960a78201527f64646c652220666f6e742d73697a653d223234223e000000000000000000000060c78201527f4265616e4865616473204176617461723c2f746578743e00000000000000000060dc8201527f3c2f7376673e000000000000000000000000000000000000000000000000000060f382015260d981527fffffffffffffffffffffffffffffffffffffffffffffffffffffffffffffffe092906114cd60f9826110d5565b6114d5614e8a565b6114de91614f27565b918451809387820161151490601a907f646174613a696d6167652f7376672b786d6c3b6261736536342c00000000000081520190565b61151d91612010565b03848101845261152d90846110d5565b61153690614d1d565b90845192839287840161156d906014907f7b226e616d65223a224265616e4865616473202300000000000000000000000081520190565b61157691612010565b7f222c226465736372697074696f6e223a224265616e486561647320697320612081527f637573746f6d697a61626c6520617661746172206f6e2d636861696e204e465460208201527f20636f6c6c656374696f6e222c22696d616765223a220000000000000000000060408201526056016115f191612010565b7f222c2261747472696275746573223a00000000000000000000000000000000008152600f0161162091612010565b7f7d00000000000000000000000000000000000000000000000000000000000000815260010103828101825261165690826110d5565b61165e614e8a565b61166791614f27565b82517f646174613a6170706c69636174696f6e2f6a736f6e3b6261736536342c00000094810194855293849190601d016116a091612010565b0390810183526116b090836110d5565b516102898192826101cd565b346103795760407ffffffffffffffffffffffffffffffffffffffffffffffffffffffffffffffffc36011261037957602060ff6117496116fa610430565b61059e611705610453565b9173ffffffffffffffffffffffffffffffffffffffff165f527f8785b62d5a7098417c833f00e99883e36791da2bbef1ddc66d7797ca0681c2d760205260405f2090565b54166040519015158152f35b6040519061176282611028565b5f6020838281520152565b6040519061177a82611049565b5f6040838281528260208201520152565b6040519061179882611065565b5f6080838281528260208201528260408201528260608201520152565b604051906117c282611081565b816117cb611755565b81526117d5611755565b60208201526117e261176d565b60408201526117ef61178b565b60608201526117fc61176d565b608082015260a061180b61178b565b910152565b9060405161181d81611028565b602060ff829454818116845260081c16910152565b9060405161183f81611049565b604060ff8294548181168452818160081c16602085015260101c16910152565b9060405161186c81611065565b608060ff82945481811615158452818160081c166020850152818160101c1615156040850152818160181c16606085015260201c161515910152565b906040516118b581611081565b60a061180b600583956118c781611810565b85526118d560018201611810565b60208601526118e660028201611832565b60408601526040516118f781611065565b61194160ff60038401548181168452818160081c166020850152818160101c166040850152611931828260181c16606086019060ff169052565b60201c16608083019060ff169052565b606086015261195260048201611832565b60808601520161185f565b91909161196982611e78565b9273ffffffffffffffffffffffffffffffffffffffff809216938483821603611c7f575f8481527f8785b62d5a7098417c833f00e99883e36791da2bbef1ddc66d7797ca0681c2d66020526040902080546119e473ffffffffffffffffffffffffffffffffffffffff881633908114908314171590565b1590565b611c1d575b611c14575b50611a368573ffffffffffffffffffffffffffffffffffffffff165f527f8785b62d5a7098417c833f00e99883e36791da2bbef1ddc66d7797ca0681c2d560205260405f2090565b80547fffffffffffffffffffffffffffffffffffffffffffffffffffffffffffffffff019055611aa38273ffffffffffffffffffffffffffffffffffffffff165f527f8785b62d5a7098417c833f00e99883e36791da2bbef1ddc66d7797ca0681c2d560205260405f2090565b8054600101905573ffffffffffffffffffffffffffffffffffffffff82164260a01b177c020000000000000000000000000000000000000000000000000000000017611b16855f527f8785b62d5a7098417c833f00e99883e36791da2bbef1ddc66d7797ca0681c2d460205260405f2090565b557c0200000000000000000000000000000000000000000000000000000000811615611b71575b501680927fddf252ad1be2c89b69c2b068fc378daa952ba7f163c4a11628f55a4df523b3ef5f80a415611b6c57565b611e28565b60018401611ba6815f527f8785b62d5a7098417c833f00e99883e36791da2bbef1ddc66d7797ca0681c2d460205260405f2090565b5415611bb3575b50611b3d565b7f8785b62d5a7098417c833f00e99883e36791da2bbef1ddc66d7797ca0681c2d0548114611bad57611c0c905f527f8785b62d5a7098417c833f00e99883e36791da2bbef1ddc66d7797ca0681c2d460205260405f2090565b555f80611bad565b5f90555f6119ee565b611c756119e0611c6e3361059e8b73ffffffffffffffffffffffffffffffffffffffff165f527f8785b62d5a7098417c833f00e99883e36791da2bbef1ddc66d7797ca0681c2d760205260405f2090565b5460ff1690565b156119e957611e00565b611dd8565b60405190611c918261109d565b5f8252565b929190611ca482828661195d565b803b611cb1575b50505050565b611cba936127b0565b15611cc8575f808080611cab565b7fd1a57ed6000000000000000000000000000000000000000000000000000000005f5260045ffd5b7f4e487b71000000000000000000000000000000000000000000000000000000005f52601160045260245ffd5b905f917f8785b62d5a7098417c833f00e99883e36791da2bbef1ddc66d7797ca0681c2d0548110611d4b5750565b9091505b805f527f8785b62d5a7098417c833f00e99883e36791da2bbef1ddc66d7797ca0681c2d460205260405f205480611db357508015611dae577fffffffffffffffffffffffffffffffffffffffffffffffffffffffffffffffff01611d4f565b611cf0565b7c01000000000000000000000000000000000000000000000000000000009150161590565b7fa1148100000000000000000000000000000000000000000000000000000000005f5260045ffd5b7f59c896be000000000000000000000000000000000000000000000000000000005f5260045ffd5b7fea553b34000000000000000000000000000000000000000000000000000000005f5260045ffd5b7fdf2d9b42000000000000000000000000000000000000000000000000000000005f5260045ffd5b611ea9815f527f8785b62d5a7098417c833f00e99883e36791da2bbef1ddc66d7797ca0681c2d460205260405f2090565b54908115611ed957507c01000000000000000000000000000000000000000000000000000000008116611e505790565b90507f8785b62d5a7098417c833f00e99883e36791da2bbef1ddc66d7797ca0681c2d054811015611e50577fffffffffffffffffffffffffffffffffffffffffffffffffffffffffffffffff905b01611f59815f527f8785b62d5a7098417c833f00e99883e36791da2bbef1ddc66d7797ca0681c2d460205260405f2090565b54908115611faf57507c01000000000000000000000000000000000000000000000000000000008116156101de577fdf2d9b42000000000000000000000000000000000000000000000000000000005f5260045ffd5b7fffffffffffffffffffffffffffffffffffffffffffffffffffffffffffffffff9150611f27565b60405190611fe482611028565b600182527f5b000000000000000000000000000000000000000000000000000000000000006020830152565b9061202360209282815194859201610169565b0190565b612162916101de91612037611fd7565b916120466001938351906128a4565b9061205c612057845160ff90511690565b612c0b565b51159283612727575b612076846080830194855190612f15565b9284612708575b846126e6575b846126b7575b509161221e9161224793602095866120a782828501968751906134fc565b9482612698575b8261267a575b5050604097886120ca8382860197885190613910565b958361265b575b8361263a575b83612619575b50506120f0826060850196875190613fa3565b94826125fa575b826125d9575b826125b8575b82612596575b8261255f575b505060a081920190612122825151151590565b61246b575b508051880151612367575b51608001516122d4575b15612253575b6121b76121516121e092614d1d565b6121b188519a8b9589870190612010565b7f7b2274726169745f74797065223a202247656e65726174696f6e222c2022766181527f6c7565223a202200000000000000000000000000000000000000000000000000602082015260270190565b90612010565b7f227d000000000000000000000000000000000000000000000000000000000000815260020190565b03936122127fffffffffffffffffffffffffffffffffffffffffffffffffffffffffffffffe0958681018952886110d5565b51958693840190612010565b7f5d00000000000000000000000000000000000000000000000000000000000000815260010190565b039081018352826110d5565b906121b76121516122756122ca6121e09461229e8b519384928c840190612010565b7f2c00000000000000000000000000000000000000000000000000000000000000815260010190565b037fffffffffffffffffffffffffffffffffffffffffffffffffffffffffffffffe081018352826110d5565b9392505050612142565b6122f49192612343911561234a575b61229e885193849289840190612010565b7f7b2274726169745f74797065223a20224c6173686573222c202276616c75652281527f3a202274727565227d0000000000000000000000000000000000000000000000602082015260290190565b905f61213c565b6123626122759161229e8a519384928b840190612010565b6122e3565b92901561244e575b6124468661229e6121b78a6121b16123f76123a861239b61239660608d510160ff90511690565b614c2b565b9351988997880190612010565b7f7b2274726169745f74797065223a2022536861706573222c202276616c75652281527f3a202274727565227d2c000000000000000000000000000000000000000000006020820152602a0190565b7f7b2274726169745f74797065223a2022536861706520436f6c6f72222c20227681527f616c7565223a2022000000000000000000000000000000000000000000000000602082015260280190565b915f90612132565b6124666122759161229e89519384928a840190612010565b61236f565b9093915015612542575b6125398661229e6121b78a6121b16124ea61249b61239b612396888d510160ff90511690565b7f7b2274726169745f74797065223a202246616365204d61736b222c202276616c81527f7565223a202274727565227d2c000000000000000000000000000000000000006020820152602d0190565b7f7b2274726169745f74797065223a202246616365204d61736b20436f6c6f722281527f2c202276616c7565223a202200000000000000000000000000000000000000006020820152602c0190565b915f905f612127565b61255a6122759161229e89519384928a840190612010565b612475565b51606081015160ff16919091148015925061257d575b505f8061210f565b6080015161258e915060ff16614b37565b51155f612575565b91506125b06125ab606084510160ff90511690565b614a57565b511591612109565b91506125d16125cc8a84510160ff90511690565b614865565b511591612103565b91506125f26125ed8984510160ff90511690565b61479c565b5115916120fd565b915061261161260c835160ff90511690565b6144cf565b5115916120f7565b5101519091506126309060ff16613ee0565b613ee0565b511590885f6120dd565b925061265361264e8a85510160ff90511690565b613d1c565b5115926120d7565b925061267261266d845160ff90511690565b613c28565b5115926120d1565b51015161268f915060ff1661386e565b61386e565b5115865f6120b4565b91506126af6126aa835160ff90511690565b613660565b5115916120ae565b61224793919450916126da6126d5604061221e95510160ff90511690565b613459565b51159491935091612089565b93506127006126fb602086510160ff90511690565b6132c5565b511593612083565b935061271f61271a855160ff90511690565b6131ea565b51159361207d565b925061274161273c602085510160ff90511690565b612e35565b511592612065565b9081602091031261037957517fffffffff00000000000000000000000000000000000000000000000000000000811681036103795790565b3d156127ab573d9061279282611165565b916127a060405193846110d5565b82523d5f602084013e565b606090565b9260209161281f935f73ffffffffffffffffffffffffffffffffffffffff604051809781968295847f150b7a02000000000000000000000000000000000000000000000000000000009c8d8652336004870152166024850152604484015260806064840152608483019061018a565b0393165af15f9181612873575b5061284d57612839612781565b80511561284857805190602001fd5b611cc8565b7fffffffff00000000000000000000000000000000000000000000000000000000161490565b61289691925060203d60201161289d575b61288e81836110d5565b810190612749565b905f61282c565b503d612884565b906128b3612057825160ff1690565b908151612979575b602001516128cb9060ff16612e35565b9081516128d757505090565b916101de91612900935161294f575b6121b761229e916121b16040519687956020870190612010565b7f7b2274726169745f74797065223a20224861697220436f6c6f72222c2022766181527f6c7565223a202200000000000000000000000000000000000000000000000000602082015260270190565b906121b761227561297061229e9361229e6040519384926020840190612010565b929150506128e6565b9161273c60206129a16129f66128cb9461229e6121b76129f060405195869488860190612010565b7f7b2274726169745f74797065223a202248616972205374796c65222c2022766181527f6c7565223a202200000000000000000000000000000000000000000000000000602082015260270190565b89612010565b94925050506128bb565b60405190612a0d82611028565b600482527f4e6f6e65000000000000000000000000000000000000000000000000000000006020830152565b60405190612a4682611028565b600482527f4166726f000000000000000000000000000000000000000000000000000000006020830152565b60405190612a7f82611028565b600482527f42616c64000000000000000000000000000000000000000000000000000000006020830152565b60405190612ab882611028565b600782527f426f6220437574000000000000000000000000000000000000000000000000006020830152565b60405190612af182611028565b600382527f42756e00000000000000000000000000000000000000000000000000000000006020830152565b60405190612b2a82611028565b600982527f4c6f6e67204861697200000000000000000000000000000000000000000000006020830152565b60405190612b6382611028565b600982527f50697869652043757400000000000000000000000000000000000000000000006020830152565b60405190612b9c82611028565b600a82527f53686f72742048616972000000000000000000000000000000000000000000006020830152565b7f4e487b71000000000000000000000000000000000000000000000000000000005f52603260045260245ffd5b906008811015612c065760051b0190565b612bc8565b90612c14611116565b612c1c612a00565b8152612c26612a39565b6020820152612c33612a72565b6040820152612c40612aab565b6060820152612c4d612ae4565b6080820152612c5a612b1d565b60a0820152612c67612b56565b60c0820152612c74612b8f565b60e082015260ff8316906008821015612c9657612c92929350612bf5565b5190565b6040517f9d3ca7f300000000000000000000000000000000000000000000000000000000815260ff85166004820152602490fd5b0390fd5b60405190612cdb82611028565b600682527f4f72616e676500000000000000000000000000000000000000000000000000006020830152565b60405190612d1482611028565b600582527f426c61636b0000000000000000000000000000000000000000000000000000006020830152565b60405190612d4d82611028565b600582527f57686974650000000000000000000000000000000000000000000000000000006020830152565b60405190612d8682611028565b600582527f42726f776e0000000000000000000000000000000000000000000000000000006020830152565b60405190612dbf82611028565b600482527f426c7565000000000000000000000000000000000000000000000000000000006020830152565b60405190612df882611028565b600482527f50696e6b000000000000000000000000000000000000000000000000000000006020830152565b906007811015612c065760051b0190565b90604051612e42816110b9565b604051612e4e81611028565b600681527f426c6f6e6465000000000000000000000000000000000000000000000000000060208201528152612e82612cce565b6020820152612e8f612d07565b6040820152612e9c612d40565b6060820152612ea9612d79565b6080820152612eb6612db2565b60a0820152612ec3612deb565b60c082015260ff8316906007821015612ee157612c92929350612e24565b6040517fc74a94f600000000000000000000000000000000000000000000000000000000815260ff85166004820152602490fd5b9190612f2561271a825160ff1690565b9081516130c5575b612f3e6126fb602083015160ff1690565b90815161300e575b60400151612f569060ff16613459565b928351612f65575b5050505090565b91612fef9391612fa0959315918215613003575b508115612ff8575b5061294f576121b761229e916121b16040519687956020870190612010565b7f7b2274726169745f74797065223a202248617420436f6c6f72222c202276616c81527f7565223a20220000000000000000000000000000000000000000000000000000602082015260260190565b5f808080612f5e565b90505115155f612f81565b51151591505f612f79565b936126d56040613044613093612f5694881580156130bb575b61309d575b61229e6121b76129f086519586946020860190612010565b7f7b2274726169745f74797065223a2022486174205374796c65222c202276616c81527f7565223a20220000000000000000000000000000000000000000000000000000602082015260260190565b9692505050612f46565b6130b66122759161229e86519384926020840190612010565b61302c565b5087511515613027565b926131426130ed918415613148575b61229e6121b761313c6040519586946020860190612010565b7f7b2274726169745f74797065223a20224163636573736f7279222c202276616c81527f7565223a20220000000000000000000000000000000000000000000000000000602082015260260190565b86612010565b92612f2d565b6131626122759161229e6040519384926020840190612010565b6130d4565b6040519061317482611028565b600682527f53686164657300000000000000000000000000000000000000000000000000006020830152565b604051906131ad82611028565b600c82527f54696e7920476c617373657300000000000000000000000000000000000000006020830152565b906004811015612c065760051b0190565b906040516080810181811067ffffffffffffffff82111761104457604052613210612a00565b815260405161321e81611028565b600d81527f526f756e6420476c61737365730000000000000000000000000000000000000060208201526020820152613255613167565b60408201526132626131a0565b606082015260ff831690600482101561328057612c929293506131d9565b6040517fce2705fb00000000000000000000000000000000000000000000000000000000815260ff85166004820152602490fd5b906003811015612c065760051b0190565b60ff604051916132d483611049565b6132dc612a00565b83526040516132ea81611028565b600681527f4265616e696500000000000000000000000000000000000000000000000000006020820152602084015260405161332581611028565b600681527f54757262616e000000000000000000000000000000000000000000000000000060208201526040840152169060038210156133695790612c92916132b4565b602482604051907fd8ecd9f70000000000000000000000000000000000000000000000000000000082526004820152fd5b7f4e487b71000000000000000000000000000000000000000000000000000000005f52602160045260245ffd5b600511156133d157565b61339a565b604051906133e382611028565b600582527f477265656e0000000000000000000000000000000000000000000000000000006020830152565b6040519061341c82611028565b600382527f52656400000000000000000000000000000000000000000000000000000000006020830152565b906005811015612c065760051b0190565b60ff16613465816133c7565b60405161347181611065565b613479612d40565b8152613483612db2565b6020820152613490612d07565b604082015261349d6133d6565b60608201526134aa61340f565b608082015260058210156134cb5790612c92916134c6826133c7565b613448565b602482604051907f5a8493520000000000000000000000000000000000000000000000000000000082526004820152fd5b919061350c6126aa825160ff1690565b9081516135ba575b602001516135249060ff1661386e565b918251613532575b50505090565b9161356393916135b29315908115612ff8575061294f576121b761229e916121b16040519687956020870190612010565b7f7b2274726169745f74797065223a2022536b696e20436f6c6f72222c2022766181527f6c7565223a202200000000000000000000000000000000000000000000000000602082015260270190565b5f808061352c565b9261268a60206135e9613638613524948715613642575b61229e6121b76129f060405195869488860190612010565b7f7b2274726169745f74797065223a2022426f64792054797065222c202276616c81527f7565223a20220000000000000000000000000000000000000000000000000000602082015260260190565b9592505050613514565b61365b6122759161229e60405193849288840190612010565b6135d1565b60ff16600181146136de57600281146136a457602490604051907f1f3c94a50000000000000000000000000000000000000000000000000000000082526004820152fd5b506040516136b181611028565b600581527f4368657374000000000000000000000000000000000000000000000000000000602082015290565b506040516136eb81611028565b600681527f4272656173740000000000000000000000000000000000000000000000000000602082015290565b6040519061372582611028565b600a82527f4c6967687420536b696e000000000000000000000000000000000000000000006020830152565b6040519061375e82611028565b600b82527f59656c6c6f7720536b696e0000000000000000000000000000000000000000006020830152565b6040519061379782611028565b600a82527f42726f776e20536b696e000000000000000000000000000000000000000000006020830152565b604051906137d082611028565b600982527f4461726b20536b696e00000000000000000000000000000000000000000000006020830152565b6040519061380982611028565b600882527f52656420536b696e0000000000000000000000000000000000000000000000006020830152565b6040519061384282611028565b600a82527f426c61636b20536b696e000000000000000000000000000000000000000000006020830152565b60ff8116801561390657600181146138fc57600281146138f257600381146138e857600481146138de576005146138d5576040517fb211f5ef00000000000000000000000000000000000000000000000000000000815260ff919091166004820152602490fd5b506101de613835565b50506101de6137fc565b50506101de6137c3565b50506101de61378a565b50506101de613751565b50506101de613718565b919061392061266d825160ff1690565b908151613a74575b61393961264e602083015160ff1690565b9081516139e7575b604001516139519060ff16613ee0565b92835161395f575050505090565b91612fef939161399895931591821561300357508115612ff8575061294f576121b761229e916121b16040519687956020870190612010565b7f7b2274726169745f74797065223a2022436c6f7468657320477261706869632281527f2c202276616c7565223a202200000000000000000000000000000000000000006020820152602c0190565b9361262b6040613a1b613a6a61395194881580156130bb5761309d5761229e6121b76129f086519586946020860190612010565b7f7b2274726169745f74797065223a2022436c6f7468657320436f6c6f72222c2081527f2276616c7565223a2022000000000000000000000000000000000000000000006020820152602a0190565b9692505050613941565b92613aea613a9b9184156131485761229e6121b761313c6040519586946020860190612010565b7f7b2274726169745f74797065223a2022436c6f74686573222c202276616c756581527f223a202200000000000000000000000000000000000000000000000000000000602082015260240190565b92613928565b600611156133d157565b60405190613b0782611028565b600582527f44726573730000000000000000000000000000000000000000000000000000006020830152565b60405190613b4082611028565b600582527f53686972740000000000000000000000000000000000000000000000000000006020830152565b60405190613b7982611028565b600782527f542d5368697274000000000000000000000000000000000000000000000000006020830152565b60405190613bb282611028565b600882527f54616e6b20546f700000000000000000000000000000000000000000000000006020830152565b60405190613beb82611028565b600682527f562d4e65636b00000000000000000000000000000000000000000000000000006020830152565b906006811015612c065760051b0190565b60ff16613c3481613af0565b604051613c4081611081565b604051613c4c81611028565b600581527f4e616b656400000000000000000000000000000000000000000000000000000060208201528152613c80613afa565b6020820152613c8d613b33565b6040820152613c9a613b6c565b6060820152613ca7613ba5565b6080820152613cb4613bde565b60a08201526006821015613cd55790612c9291613cd082613af0565b613c17565b612cca82613ce281613af0565b6040517f93f5dc4a00000000000000000000000000000000000000000000000000000000815260ff90911660048201529081906024820190565b60ff16613d28816133c7565b604051613d3481611065565b613d3c612d40565b8152613d46612db2565b6020820152613d53612d07565b6040820152613d606133d6565b6060820152613d6d61340f565b60808201526005821015613d895790612c92916134c6826133c7565b602482613d95816133c7565b604051907f581a42cc0000000000000000000000000000000000000000000000000000000082526004820152fd5b60405190613dd082611028565b600682527f47617473627900000000000000000000000000000000000000000000000000006020830152565b60405190613e0982611028565b600782527f4772617068716c000000000000000000000000000000000000000000000000006020830152565b60405190613e4282611028565b600582527f52656163740000000000000000000000000000000000000000000000000000006020830152565b60405190613e7b82611028565b600782527f526564776f6f64000000000000000000000000000000000000000000000000006020830152565b60405190613eb482611028565b600382527f56756500000000000000000000000000000000000000000000000000000000006020830152565b9060ff8216613eee81613af0565b613ef781613af0565b8015613f9857613f05611137565b613f0d612a00565b8152613f17613dc3565b6020820152613f24613dfc565b6040820152613f31613e35565b6060820152613f3e613e6e565b6080820152613f4b613ea7565b60a08201526006821015613f6457612c92929350613c17565b6040517fa8d1dcb600000000000000000000000000000000000000000000000000000000815260ff85166004820152602490fd5b5090506101de611c84565b9091613fb361260c845160ff1690565b9081516143a8575b602091613fce6125ed8487015160ff1690565b9485516142f7575b604095613fe96125cc8884015160ff1690565b90815161423d575b60608301926140046125ab855160ff1690565b93898551614149575b5060ff61401d6001925160ff1690565b1614614030575b50505050505050905090565b608001516140409060ff16614b37565b94855115614024571593841561413e575b508315614133575b508215614128575b50811561411d575b506140e9575b6121b761229e916121b161408d6140dc969751978896870190612010565b7f7b2274726169745f74797065223a20224c697020436f6c6f72222c202276616c81527f7565223a20220000000000000000000000000000000000000000000000000000602082015260260190565b805f808080808080614024565b6121b761229e916121b161408d6122756141116140dc9861229e8b519384928b840190612010565b9650505091505061406f565b90505115155f614069565b51151591505f614061565b51151592505f614059565b51151593505f614051565b61401d60ff916001939b8b8b158015614233575b8015614229575b801561421f575b6141ed575b61229e6121b76141dc61418d6141e2959651968795860190612010565b7f7b2274726169745f74797065223a20224d6f757468205374796c65222c20227681527f616c7565223a2022000000000000000000000000000000000000000000000000602082015260280190565b8c612010565b9a925050508961400d565b61229e6121b76141dc61418d6122756142146141e29761229e8a519384928a840190612010565b955050505050614170565b508851151561416b565b5087511515614164565b508a51151561415d565b956142c061427191861580156142ed575b80156142e3575b6142c6575b61229e6121b761313c8c519586948c860190612010565b7f7b2274726169745f74797065223a202246616369616c2048616972205479706581527f222c202276616c7565223a2022000000000000000000000000000000000000006020820152602d0190565b95613ff1565b6142de6122759161229e8c519384928c840190612010565b61425a565b5088511515614255565b508551151561424e565b9361437a614325918415801561439e575b614380575b61229e6121b76143746040519586948a860190612010565b7f7b2274726169745f74797065223a2022457965205368617065222c202276616c81527f7565223a20220000000000000000000000000000000000000000000000000000602082015260260190565b8a612010565b93613fd6565b6143996122759161229e6040519384928a840190612010565b61430d565b5083511515614308565b9161441e6143cf9184156131485761229e6121b761313c6040519586946020860190612010565b7f7b2274726169745f74797065223a202245796562726f77205368617065222c2081527f2276616c7565223a2022000000000000000000000000000000000000000000006020820152602a0190565b91613fbb565b6040519061443182611028565b600c82527f4c656674204c6f776572656400000000000000000000000000000000000000006020830152565b6040519061446a82611028565b600682527f4e6f726d616c00000000000000000000000000000000000000000000000000006020830152565b604051906144a382611028565b600782527f536572696f7573000000000000000000000000000000000000000000000000006020830152565b906040516144dc81611065565b6040516144e881611028565b600581527f416e6772790000000000000000000000000000000000000000000000000000006020820152815260405161452081611028565b600981527f436f6e6365726e6564000000000000000000000000000000000000000000000060208201526020820152614557614424565b604082015261456461445d565b6060820152614571614496565b608082015260ff831690600582101561458f57612c92929350613448565b6040517f21706bf100000000000000000000000000000000000000000000000000000000815260ff85166004820152602490fd5b604051906145d082611028565b600782527f436f6e74656e74000000000000000000000000000000000000000000000000006020830152565b6040519061460982611028565b600582527f44697a7a790000000000000000000000000000000000000000000000000000006020830152565b6040519061464282611028565b600582527f48617070790000000000000000000000000000000000000000000000000000006020830152565b6040519061467b82611028565b600582527f48656172740000000000000000000000000000000000000000000000000000006020830152565b604051906146b482611028565b600b82527f4c656674205477697463680000000000000000000000000000000000000000006020830152565b604051906146ed82611028565b600682527f53696d706c6500000000000000000000000000000000000000000000000000006020830152565b6040519061472682611028565b600682527f537175696e7400000000000000000000000000000000000000000000000000006020830152565b6040519061475f82611028565b600482527f57696e6b000000000000000000000000000000000000000000000000000000006020830152565b906009811015612c065760051b0190565b906147a5611144565b6147ad6145c3565b81526147b76145fc565b60208201526147c4614635565b60408201526147d161466e565b60608201526147de6146a7565b60808201526147eb61445d565b60a08201526147f86146e0565b60c0820152614805614719565b60e0820152614812614752565b61010082015260ff831690600982101561483157612c9292935061478b565b6040517fcc386b4c00000000000000000000000000000000000000000000000000000000815260ff85166004820152602490fd5b60ff6040519161487483611049565b61487c612a00565b835260405161488a81611028565b600c81527f4d656469756d2042656172640000000000000000000000000000000000000000602082015260208401526040516148c581611028565b600781527f53747562626c650000000000000000000000000000000000000000000000000060208201526040840152169060038210156149095790612c92916132b4565b602482604051907fd4668a280000000000000000000000000000000000000000000000000000000082526004820152fd5b6040519061494782611028565b600482527f4c697073000000000000000000000000000000000000000000000000000000006020830152565b6040519061498082611028565b600482527f4f70656e000000000000000000000000000000000000000000000000000000006020830152565b604051906149b982611028565b600a82527f4f70656e20536d696c65000000000000000000000000000000000000000000006020830152565b604051906149f282611028565b600382527f53616400000000000000000000000000000000000000000000000000000000006020830152565b60405190614a2b82611028565b600682527f546f6e67756500000000000000000000000000000000000000000000000000006020830152565b90604051614a64816110b9565b604051614a7081611028565b600481527f4772696e0000000000000000000000000000000000000000000000000000000060208201528152614aa461493a565b6020820152614ab1614973565b6040820152614abe6149ac565b6060820152614acb6149e5565b6080820152614ad8614496565b60a0820152614ae5614a1e565b60c082015260ff8316906007821015614b0357612c92929350612e24565b6040517f85379a4800000000000000000000000000000000000000000000000000000000815260ff85166004820152602490fd5b90604051614b4481611065565b614b4c61340f565b8152604051614b5a81611028565b600681527f507572706c65000000000000000000000000000000000000000000000000000060208201526020820152614b91612deb565b6040820152604051614ba281611028565b600981527f54757271756f697365000000000000000000000000000000000000000000000060208201526060820152614bd96133d6565b608082015260ff8316906005821015614bf757612c92929350613448565b6040517f65690ed900000000000000000000000000000000000000000000000000000000815260ff85166004820152602490fd5b60ff16614c37816133c7565b604051614c4381611065565b614c4b612d40565b8152614c55612db2565b6020820152614c62612d07565b6040820152614c6f6133d6565b6060820152614c7c61340f565b60808201526005821015614c945790612c9291613448565b602482614ca0816133c7565b604051907fb114d50d0000000000000000000000000000000000000000000000000000000082526004820152fd5b90614cd882611165565b614ce560405191826110d5565b8281527fffffffffffffffffffffffffffffffffffffffffffffffffffffffffffffffe0614d138294611165565b0190602036910137565b805f917a184f03e93ff9f4daa797ed6e38ed64bf6a1f01000000000000000080821015614e7c575b506d04ee2d6d415b85acef810000000080831015614e6d575b50662386f26fc1000080831015614e5e575b506305f5e10080831015614e4f575b5061271080831015614e40575b506064821015614e30575b600a80921015614e26575b600190816021614db460018701614cce565b95860101905b614dc5575050505090565b7fffffffffffffffffffffffffffffffffffffffffffffffffffffffffffffffff849101917f30313233343536373839616263646566000000000000000000000000000000008282061a835304918215614e2157919082614dba565b612f5e565b9160010191614da2565b9190606460029104910191614d97565b6004919392049101915f614d8c565b6008919392049101915f614d7f565b6010919392049101915f614d70565b6020919392049101915f614d5e565b60409350810491505f614d45565b60405190614e9782611049565b604082527f6768696a6b6c6d6e6f707172737475767778797a303132333435363738392b2f6040837f4142434445464748494a4b4c4d4e4f505152535455565758595a61626364656660208201520152565b908160021b917f3fffffffffffffffffffffffffffffffffffffffffffffffffffffffffffffff811603611dae57565b9060028201809211611dae57565b9081511561505757614f53614f4e614f49614f428551614f19565b6003900490565b614ee9565b614cce565b916020830191818251830160208101918251935f84525b8282106150055750505052516003900660018114614fb657600214614f8d575090565b7fffffffffffffffffffffffffffffffffffffffffffffffffffffffffffffffff603d91015390565b507ffffffffffffffffffffffffffffffffffffffffffffffffffffffffffffffffe81603d7fffffffffffffffffffffffffffffffffffffffffffffffffffffffffffffffff81940153015390565b9091956004906003809401938451600190603f9082828260121c16880101518553828282600c1c16880101518386015382828260061c1688010151600286015316850101519082015301959190614f6a565b50506101de611c8456fea2646970667358221220839bddb58e9bcec58c55def12771135652cab0119e327fa9a7fb7062cc22f59264736f6c63430008180033",
    "linkReferences": {}
  },
  "methodIdentifiers": {
    "approve(address,uint256)": "095ea7b3",
    "balanceOf(address)": "70a08231",
    "exists(uint256)": "4f558e79",
    "getApproved(uint256)": "081812fc",
    "getAttributes(uint256)": "4378a6e3",
    "getAttributesByOwner(address,uint256)": "1efa613c",
    "getAttributesByTokenId(uint256)": "7e4d03d8",
    "getOriginChainId(uint256)": "5b16d968",
    "getOwnerTokensCount(address)": "71563f14",
    "isApprovedForAll(address,address)": "e985e9c5",
    "isBridgeAuthorized(uint64,address)": "84d1e1ff",
    "isTokenLocked(uint256)": "276a28a3",
    "name()": "06fdde03",
    "ownerOf(uint256)": "6352211e",
    "safeTransferFrom(address,address,uint256)": "42842e0e",
    "safeTransferFrom(address,address,uint256,bytes)": "b88d4fde",
    "setApprovalForAll(address,bool)": "a22cb465",
    "symbol()": "95d89b41",
    "tokenURI(uint256)": "c87b56dd",
    "totalSupply()": "18160ddd",
    "transferFrom(address,address,uint256)": "23b872dd"
  },
  "id": 123
}