{"abi":[{"type":"function","name":"addPriceFeed","inputs":[{"name":"_token","type":"address","internalType":"address"},{"name":"_priceFeed","type":"address","internalType":"address"}],"outputs":[],"stateMutability":"nonpayable"},{"type":"function","name":"approve","inputs":[{"name":"to","type":"address","internalType":"address"},{"name":"tokenId","type":"uint256","internalType":"uint256"}],"outputs":[],"stateMutability":"payable"},{"type":"function","name":"authorizeBreeder","inputs":[{"name":"_breeder","type":"address","internalType":"address"}],"outputs":[],"stateMutability":"nonpayable"},{"type":"function","name":"balanceOf","inputs":[{"name":"owner","type":"address","internalType":"address"}],"outputs":[{"name":"","type":"uint256","internalType":"uint256"}],"stateMutability":"view"},{"type":"function","name":"getApproved","inputs":[{"name":"tokenId","type":"uint256","internalType":"uint256"}],"outputs":[{"name":"","type":"address","internalType":"address"}],"stateMutability":"view"},{"type":"function","name":"isApprovedForAll","inputs":[{"name":"owner","type":"address","internalType":"address"},{"name":"operator","type":"address","internalType":"address"}],"outputs":[{"name":"","type":"bool","internalType":"bool"}],"stateMutability":"view"},{"type":"function","name":"name","inputs":[],"outputs":[{"name":"","type":"string","internalType":"string"}],"stateMutability":"view"},{"type":"function","name":"ownerOf","inputs":[{"name":"tokenId","type":"uint256","internalType":"uint256"}],"outputs":[{"name":"","type":"address","internalType":"address"}],"stateMutability":"view"},{"type":"function","name":"safeTransferFrom","inputs":[{"name":"from","type":"address","internalType":"address"},{"name":"to","type":"address","internalType":"address"},{"name":"tokenId","type":"uint256","internalType":"uint256"}],"outputs":[],"stateMutability":"payable"},{"type":"function","name":"safeTransferFrom","inputs":[{"name":"from","type":"address","internalType":"address"},{"name":"to","type":"address","internalType":"address"},{"name":"tokenId","type":"uint256","internalType":"uint256"},{"name":"_data","type":"bytes","internalType":"bytes"}],"outputs":[],"stateMutability":"payable"},{"type":"function","name":"setAllowedToken","inputs":[{"name":"_token","type":"address","internalType":"address"},{"name":"_isAllowed","type":"bool","internalType":"bool"}],"outputs":[],"stateMutability":"nonpayable"},{"type":"function","name":"setApprovalForAll","inputs":[{"name":"operator","type":"address","internalType":"address"},{"name":"approved","type":"bool","internalType":"bool"}],"outputs":[],"stateMutability":"nonpayable"},{"type":"function","name":"setMintPrice","inputs":[{"name":"_newPrice","type":"uint256","internalType":"uint256"}],"outputs":[],"stateMutability":"nonpayable"},{"type":"function","name":"setRemoteBridge","inputs":[{"name":"_chainSelector","type":"uint64","internalType":"uint64"},{"name":"_bridge","type":"address","internalType":"address"}],"outputs":[],"stateMutability":"nonpayable"},{"type":"function","name":"symbol","inputs":[],"outputs":[{"name":"","type":"string","internalType":"string"}],"stateMutability":"view"},{"type":"function","name":"totalSupply","inputs":[],"outputs":[{"name":"","type":"uint256","internalType":"uint256"}],"stateMutability":"view"},{"type":"function","name":"transferFrom","inputs":[{"name":"from","type":"address","internalType":"address"},{"name":"to","type":"address","internalType":"address"},{"name":"tokenId","type":"uint256","internalType":"uint256"}],"outputs":[],"stateMutability":"payable"},{"type":"function","name":"withdraw","inputs":[{"name":"_paymentToken","type":"address","internalType":"address"}],"outputs":[],"stateMutability":"nonpayable"},{"type":"event","name":"AllowedTokenUpdated","inputs":[{"name":"token","type":"address","indexed":true,"internalType":"address"},{"name":"isAllowed","type":"bool","indexed":false,"internalType":"bool"}],"anonymous":false},{"type":"event","name":"Approval","inputs":[{"name":"owner","type":"address","indexed":true,"internalType":"address"},{"name":"approved","type":"address","indexed":true,"internalType":"address"},{"name":"tokenId","type":"uint256","indexed":true,"internalType":"uint256"}],"anonymous":false},{"type":"event","name":"ApprovalForAll","inputs":[{"name":"owner","type":"address","indexed":true,"internalType":"address"},{"name":"operator","type":"address","indexed":true,"internalType":"address"},{"name":"approved","type":"bool","indexed":false,"internalType":"bool"}],"anonymous":false},{"type":"event","name":"AuthorizedBridgesAdded","inputs":[{"name":"bridges","type":"address","indexed":true,"internalType":"address"}],"anonymous":false},{"type":"event","name":"ConsecutiveTransfer","inputs":[{"name":"fromTokenId","type":"uint256","indexed":true,"internalType":"uint256"},{"name":"toTokenId","type":"uint256","indexed":false,"internalType":"uint256"},{"name":"from","type":"address","indexed":true,"internalType":"address"},{"name":"to","type":"address","indexed":true,"internalType":"address"}],"anonymous":false},{"type":"event","name":"MintPriceUpdated","inputs":[{"name":"newPrice","type":"uint256","indexed":false,"internalType":"uint256"}],"anonymous":false},{"type":"event","name":"PriceFeedAdded","inputs":[{"name":"token","type":"address","indexed":true,"internalType":"address"},{"name":"priceFeed","type":"address","indexed":true,"internalType":"address"}],"anonymous":false},{"type":"event","name":"Transfer","inputs":[{"name":"from","type":"address","indexed":true,"internalType":"address"},{"name":"to","type":"address","indexed":true,"internalType":"address"},{"name":"tokenId","type":"uint256","indexed":true,"internalType":"uint256"}],"anonymous":false},{"type":"error","name":"ApprovalCallerNotOwnerNorApproved","inputs":[]},{"type":"error","name":"ApprovalQueryForNonexistentToken","inputs":[]},{"type":"error","name":"BHDLib__NotContractOwner","inputs":[{"name":"caller","type":"address","internalType":"address"},{"name":"owner","type":"address","internalType":"address"}]},{"type":"error","name":"BalanceQueryForZeroAddress","inputs":[]},{"type":"error","name":"IBeanHeadsAdmin__InvalidAddress","inputs":[]},{"type":"error","name":"IBeanHeadsAdmin__InvalidTokenAddress","inputs":[]},{"type":"error","name":"IBeanHeadsAdmin__PriceMustBeGreaterThanZero","inputs":[]},{"type":"error","name":"IBeanHeadsAdmin__WithdrawFailed","inputs":[]},{"type":"error","name":"InvalidTokenId","inputs":[]},{"type":"error","name":"MintERC2309QuantityExceedsLimit","inputs":[]},{"type":"error","name":"MintToZeroAddress","inputs":[]},{"type":"error","name":"MintZeroQuantity","inputs":[]},{"type":"error","name":"OwnerQueryForNonexistentToken","inputs":[]},{"type":"error","name":"OwnershipNotInitializedForExtraData","inputs":[]},{"type":"error","name":"TokenAlreadyExists","inputs":[]},{"type":"error","name":"TransferCallerNotOwnerNorApproved","inputs":[]},{"type":"error","name":"TransferFromIncorrectOwner","inputs":[]},{"type":"error","name":"TransferToNonERC721ReceiverImplementer","inputs":[]},{"type":"error","name":"TransferToZeroAddress","inputs":[]},{"type":"error","name":"URIQueryForNonexistentToken","inputs":[]}],"bytecode":{"object":"0x6080806040523461001657611f38908161001b8239f35b5f80fdfe60806040526004361015610011575f80fd5b5f3560e01c806306fdde0314610134578063081812fc1461012f578063095ea7b31461012a5780631114e7651461012557806318160ddd1461012057806323b872dd1461011b57806342842e0e1461011657806351cff8d9146101115780636352211e1461010c57806370a08231146101075780638aaa22841461010257806395d89b41146100fd578063a22cb465146100f8578063b88d4fde146100f3578063e8a97a3e146100ee578063e985e9c5146100e9578063f4a0a528146100e45763ffa739df146100df575f80fd5b611396565b6112de565b611245565b61109f565b610ffe565b610e60565b610d43565b610c08565b610b27565b610acd565b6108d0565b610897565b610883565b6107a5565b6106cb565b610531565b610345565b6101a9565b91908251928382525f5b8481106101815750507fffffffffffffffffffffffffffffffffffffffffffffffffffffffffffffffe0601f845f6020809697860101520116010190565b602081830181015184830182015201610143565b9060206101a6928181520190610139565b90565b34610341575f7ffffffffffffffffffffffffffffffffffffffffffffffffffffffffffffffffc360112610341576040515f7f8785b62d5a7098417c833f00e99883e36791da2bbef1ddc66d7797ca0681c2d25460018160011c9160018116918215610337575b60209160208510841461030a5784875260208701939081156102cd5750600114610255575b6102518661024581880382610f83565b60405191829182610195565b0390f35b7f8785b62d5a7098417c833f00e99883e36791da2bbef1ddc66d7797ca0681c2d25f90815294509192917f4eff6dd2ce7e3eed3d8c57a965022ef5c4089064f80bafbcccb1920be91b46a15b8386106102bc5750505091019050610245826102515f610235565b8054858701529482019481016102a1565b7fffffffffffffffffffffffffffffffffffffffffffffffffffffffffffffff0016845250505090151560051b019050610245826102515f610235565b7f4e487b71000000000000000000000000000000000000000000000000000000005f52602260045260245ffd5b92607f1692610210565b5f80fd5b34610341576020807ffffffffffffffffffffffffffffffffffffffffffffffffffffffffffffffffc3601126103415760049060043580925f927f8785b62d5a7098417c833f00e99883e36791da2bbef1ddc66d7797ca0681c2d054831061042d575b50505015610428576104016103e7610251925f527f8785b62d5a7098417c833f00e99883e36791da2bbef1ddc66d7797ca0681c2d660205260405f2090565b5473ffffffffffffffffffffffffffffffffffffffff1690565b60405173ffffffffffffffffffffffffffffffffffffffff90911681529081906020820190565b61189d565b93919092505b805f527f8785b62d5a7098417c833f00e99883e36791da2bbef1ddc66d7797ca0681c2d4845260405f2054806104bd57508015610491577fffffffffffffffffffffffffffffffffffffffffffffffffffffffffffffffff01610433565b6011837f4e487b71000000000000000000000000000000000000000000000000000000005f525260245ffd5b919350507c0100000000000000000000000000000000000000000000000000000000915016155f80806103a8565b6004359073ffffffffffffffffffffffffffffffffffffffff8216820361034157565b6024359073ffffffffffffffffffffffffffffffffffffffff8216820361034157565b60407ffffffffffffffffffffffffffffffffffffffffffffffffffffffffffffffffc360112610341576105636104eb565b6024359073ffffffffffffffffffffffffffffffffffffffff8061058684611a06565b169182330361062d575b610605816105c5865f527f8785b62d5a7098417c833f00e99883e36791da2bbef1ddc66d7797ca0681c2d660205260405f2090565b9073ffffffffffffffffffffffffffffffffffffffff167fffffffffffffffffffffffff0000000000000000000000000000000000000000825416179055565b16907f8c5be1e5ebec7d5bd14f71427d1e84f3dd0314c0f7b2291e5b200ac8c7c3b9255f80a4005b60ff61069d3361067a8673ffffffffffffffffffffffffffffffffffffffff165f527f8785b62d5a7098417c833f00e99883e36791da2bbef1ddc66d7797ca0681c2d760205260405f2090565b9073ffffffffffffffffffffffffffffffffffffffff165f5260205260405f2090565b5416610590577fcfb3b942000000000000000000000000000000000000000000000000000000005f5260045ffd5b346103415760207ffffffffffffffffffffffffffffffffffffffffffffffffffffffffffffffffc3601126103415773ffffffffffffffffffffffffffffffffffffffff6107176104eb565b61071f61198d565b16801561077d575f527f791cad950d3b9b323a06def8cb8b7bf2c934c7f4cea39385f023ba145f9b93b060205260405f2060017fffffffffffffffffffffffffffffffffffffffffffffffffffffffffffffff008254161790555f80f35b7fe51962c3000000000000000000000000000000000000000000000000000000005f5260045ffd5b34610341575f7ffffffffffffffffffffffffffffffffffffffffffffffffffffffffffffffffc3601126103415760207f8785b62d5a7098417c833f00e99883e36791da2bbef1ddc66d7797ca0681c2d0547f8785b62d5a7098417c833f00e99883e36791da2bbef1ddc66d7797ca0681c2d1549003604051908152f35b7ffffffffffffffffffffffffffffffffffffffffffffffffffffffffffffffffc60609101126103415773ffffffffffffffffffffffffffffffffffffffff90600435828116810361034157916024359081168103610341579060443590565b61089561088f36610823565b9161150d565b005b6108a036610823565b60405191602083019383851067ffffffffffffffff8611176108cb57610895946040525f8452611843565b610f3a565b346103415760207ffffffffffffffffffffffffffffffffffffffffffffffffffffffffffffffffc360112610341576109076104eb565b61090f61198d565b7f862460a2be1e75f44234ae220583844903aaee6923993409e3eaa0efbd0da8416002815414610a6f576002905561099561099161098a8373ffffffffffffffffffffffffffffffffffffffff165f527f791cad950d3b9b323a06def8cb8b7bf2c934c7f4cea39385f023ba145f9b93b260205260405f2090565b5460ff1690565b1590565b610a6a576040517f70a0823100000000000000000000000000000000000000000000000000000000815230600482015273ffffffffffffffffffffffffffffffffffffffff9190911690602081602481855afa908115610a65575f91610a36575b508015610a3157610a08913390611b65565b61089560017f862460a2be1e75f44234ae220583844903aaee6923993409e3eaa0efbd0da84155565b6118c5565b610a58915060203d602011610a5e575b610a508183610f83565b810190611829565b5f6109f6565b503d610a46565b611838565b610d1b565b60646040517f08c379a000000000000000000000000000000000000000000000000000000000815260206004820152601d60248201527f5265656e7472616e63794c69623a207265656e7472616e742063616c6c0000006044820152fd5b346103415760207ffffffffffffffffffffffffffffffffffffffffffffffffffffffffffffffffc36011261034157602073ffffffffffffffffffffffffffffffffffffffff610b1e600435611a06565b16604051908152f35b346103415760207ffffffffffffffffffffffffffffffffffffffffffffffffffffffffffffffffc36011261034157610b5e6104eb565b73ffffffffffffffffffffffffffffffffffffffff811615610bd65767ffffffffffffffff610bcc60209273ffffffffffffffffffffffffffffffffffffffff165f527f8785b62d5a7098417c833f00e99883e36791da2bbef1ddc66d7797ca0681c2d560205260405f2090565b5416604051908152f35b7f8f4eb604000000000000000000000000000000000000000000000000000000005f5260045ffd5b8015150361034157565b346103415760407ffffffffffffffffffffffffffffffffffffffffffffffffffffffffffffffffc36011261034157610c3f6104eb565b602435610c4b81610bfe565b610c5361198d565b73ffffffffffffffffffffffffffffffffffffffff8216918215610d1b5781610d107f3a7d4b919c66e25bb96b646b1fa5df47aca5411773bfe1829fc8e86ab7006e6a93610ce060209473ffffffffffffffffffffffffffffffffffffffff165f527f791cad950d3b9b323a06def8cb8b7bf2c934c7f4cea39385f023ba145f9b93b260205260405f2090565b9060ff7fffffffffffffffffffffffffffffffffffffffffffffffffffffffffffffff0083541691151516179055565b6040519015158152a2005b7f257a7c02000000000000000000000000000000000000000000000000000000005f5260045ffd5b34610341575f7ffffffffffffffffffffffffffffffffffffffffffffffffffffffffffffffffc360112610341576040515f7f8785b62d5a7098417c833f00e99883e36791da2bbef1ddc66d7797ca0681c2d35460018160011c9160018116918215610e56575b60209160208510841461030a5784875260208701939081156102cd5750600114610dde576102518661024581880382610f83565b7f8785b62d5a7098417c833f00e99883e36791da2bbef1ddc66d7797ca0681c2d35f90815294509192917feab2a30426a14f07ecdc76635cd0729eb655bee4c9d04a8fb1b5d85c28c9dae35b838610610e455750505091019050610245826102515f610235565b805485870152948201948101610e2a565b92607f1692610daa565b346103415760407ffffffffffffffffffffffffffffffffffffffffffffffffffffffffffffffffc36011261034157610e976104eb565b73ffffffffffffffffffffffffffffffffffffffff60243591610eb983610bfe565b610f0883610ce08361067a3373ffffffffffffffffffffffffffffffffffffffff165f527f8785b62d5a7098417c833f00e99883e36791da2bbef1ddc66d7797ca0681c2d760205260405f2090565b604051921515835216907f17307eab39ab6107e8899845ad3d59bd9653f200f220920489ca2b5937696c3160203392a3005b7f4e487b71000000000000000000000000000000000000000000000000000000005f52604160045260245ffd5b6040810190811067ffffffffffffffff8211176108cb57604052565b90601f7fffffffffffffffffffffffffffffffffffffffffffffffffffffffffffffffe0910116810190811067ffffffffffffffff8211176108cb57604052565b67ffffffffffffffff81116108cb57601f017fffffffffffffffffffffffffffffffffffffffffffffffffffffffffffffffe01660200190565b60807ffffffffffffffffffffffffffffffffffffffffffffffffffffffffffffffffc360112610341576110306104eb565b61103861050e565b6064359167ffffffffffffffff831161034157366023840112156103415782600401359161106583610fc4565b926110736040519485610f83565b8084523660248287010111610341576020815f9260246108959801838801378501015260443591611843565b346103415760407ffffffffffffffffffffffffffffffffffffffffffffffffffffffffffffffffc360112610341576110d66104eb565b6110de61050e565b906110e761198d565b73ffffffffffffffffffffffffffffffffffffffff808216918215801561123b575b610d1b57836105c56111589273ffffffffffffffffffffffffffffffffffffffff165f527f791cad950d3b9b323a06def8cb8b7bf2c934c7f4cea39385f023ba145f9b93b460205260405f2090565b7f791cad950d3b9b323a06def8cb8b7bf2c934c7f4cea39385f023ba145f9b93b7805490680100000000000000008210156108cb576001820180915581101561120e577f9817d9a61ec72a1911c3812ad6bc0510b1a4ad3929dfcc31158f99b78e8d307b01921691827fffffffffffffffffffffffff00000000000000000000000000000000000000008254161790557f2940c4bfb544a4b0a5b4262767947b0acc0b8f144197528463c4d476658cff795f80a3005b7f4e487b71000000000000000000000000000000000000000000000000000000005f52603260045260245ffd5b5081841615611109565b346103415760407ffffffffffffffffffffffffffffffffffffffffffffffffffffffffffffffffc36011261034157602060ff6112d26112836104eb565b61067a61128e61050e565b9173ffffffffffffffffffffffffffffffffffffffff165f527f8785b62d5a7098417c833f00e99883e36791da2bbef1ddc66d7797ca0681c2d760205260405f2090565b54166040519015158152f35b346103415760207ffffffffffffffffffffffffffffffffffffffffffffffffffffffffffffffffc3601126103415760043561131861198d565b801561136e576020817f525b762709cc2a983aec5ccdfd807a061f993c91090b5bcd7da92ca254976aaa927f791cad950d3b9b323a06def8cb8b7bf2c934c7f4cea39385f023ba145f9b93bb55604051908152a1005b7f7fc1abb9000000000000000000000000000000000000000000000000000000005f5260045ffd5b346103415760407ffffffffffffffffffffffffffffffffffffffffffffffffffffffffffffffffc3601126103415760043567ffffffffffffffff8116809103610341576113e261050e565b906113eb61198d565b73ffffffffffffffffffffffffffffffffffffffff821691821561077d576114be915f527f791cad950d3b9b323a06def8cb8b7bf2c934c7f4cea39385f023ba145f9b93c360205261147b8160405f209073ffffffffffffffffffffffffffffffffffffffff167fffffffffffffffffffffffff0000000000000000000000000000000000000000825416179055565b73ffffffffffffffffffffffffffffffffffffffff165f527f791cad950d3b9b323a06def8cb8b7bf2c934c7f4cea39385f023ba145f9b93c260205260405f2090565b60017fffffffffffffffffffffffffffffffffffffffffffffffffffffffffffffff008254161790557fbf8336d1ca1673134b093b51b93eed5a0a8533c80e5e89c249490162b625e2015f80a2005b91909161151982611a06565b9273ffffffffffffffffffffffffffffffffffffffff809216938483821603611824575f8481527f8785b62d5a7098417c833f00e99883e36791da2bbef1ddc66d7797ca0681c2d660205260409020805461159073ffffffffffffffffffffffffffffffffffffffff881633908114908314171590565b6117c9575b6117c0575b506115e28573ffffffffffffffffffffffffffffffffffffffff165f527f8785b62d5a7098417c833f00e99883e36791da2bbef1ddc66d7797ca0681c2d560205260405f2090565b80547fffffffffffffffffffffffffffffffffffffffffffffffffffffffffffffffff01905561164f8273ffffffffffffffffffffffffffffffffffffffff165f527f8785b62d5a7098417c833f00e99883e36791da2bbef1ddc66d7797ca0681c2d560205260405f2090565b8054600101905573ffffffffffffffffffffffffffffffffffffffff82164260a01b177c0200000000000000000000000000000000000000000000000000000000176116c2855f527f8785b62d5a7098417c833f00e99883e36791da2bbef1ddc66d7797ca0681c2d460205260405f2090565b557c020000000000000000000000000000000000000000000000000000000081161561171d575b501680927fddf252ad1be2c89b69c2b068fc378daa952ba7f163c4a11628f55a4df523b3ef5f80a41561171857565b61193d565b60018401611752815f527f8785b62d5a7098417c833f00e99883e36791da2bbef1ddc66d7797ca0681c2d460205260405f2090565b541561175f575b506116e9565b7f8785b62d5a7098417c833f00e99883e36791da2bbef1ddc66d7797ca0681c2d0548114611759576117b8905f527f8785b62d5a7098417c833f00e99883e36791da2bbef1ddc66d7797ca0681c2d460205260405f2090565b555f80611759565b5f90555f61159a565b61181a61099161098a3361067a8b73ffffffffffffffffffffffffffffffffffffffff165f527f8785b62d5a7098417c833f00e99883e36791da2bbef1ddc66d7797ca0681c2d760205260405f2090565b1561159557611915565b6118ed565b90816020910312610341575190565b6040513d5f823e3d90fd5b92919061185182828661150d565b803b61185e575b50505050565b61186793611cbb565b15611875575f808080611858565b7fd1a57ed6000000000000000000000000000000000000000000000000000000005f5260045ffd5b7fcf4700e4000000000000000000000000000000000000000000000000000000005f5260045ffd5b7f01c801b3000000000000000000000000000000000000000000000000000000005f5260045ffd5b7fa1148100000000000000000000000000000000000000000000000000000000005f5260045ffd5b7f59c896be000000000000000000000000000000000000000000000000000000005f5260045ffd5b7fea553b34000000000000000000000000000000000000000000000000000000005f5260045ffd5b7fdf2d9b42000000000000000000000000000000000000000000000000000000005f5260045ffd5b73ffffffffffffffffffffffffffffffffffffffff7f791cad950d3b9b323a06def8cb8b7bf2c934c7f4cea39385f023ba145f9b93bc54168033036119cf5750565b604490604051907f38586c580000000000000000000000000000000000000000000000000000000082523360048301526024820152fd5b611a37815f527f8785b62d5a7098417c833f00e99883e36791da2bbef1ddc66d7797ca0681c2d460205260405f2090565b54908115611a6757507c010000000000000000000000000000000000000000000000000000000081166119655790565b90507f8785b62d5a7098417c833f00e99883e36791da2bbef1ddc66d7797ca0681c2d054811015611965577fffffffffffffffffffffffffffffffffffffffffffffffffffffffffffffffff905b01611ae7815f527f8785b62d5a7098417c833f00e99883e36791da2bbef1ddc66d7797ca0681c2d460205260405f2090565b54908115611b3d57507c01000000000000000000000000000000000000000000000000000000008116156101a6577fdf2d9b42000000000000000000000000000000000000000000000000000000005f5260045ffd5b7fffffffffffffffffffffffffffffffffffffffffffffffffffffffffffffffff9150611ab5565b906040519060208201937fa9059cbb00000000000000000000000000000000000000000000000000000000855273ffffffffffffffffffffffffffffffffffffffff8092166024840152604483015260448252608082019282841067ffffffffffffffff8511176108cb57611c25945f928392866040521693611be786610f67565b602086527f5361666545524332303a206c6f772d6c6576656c2063616c6c206661696c656460a0820152519082855af1611c1f611c8c565b91611e3a565b805180611c30575050565b8160209181010312610341576020611c52910151611c4d81610bfe565b611daf565b565b9081602091031261034157517fffffffff00000000000000000000000000000000000000000000000000000000811681036103415790565b3d15611cb6573d90611c9d82610fc4565b91611cab6040519384610f83565b82523d5f602084013e565b606090565b92602091611d2a935f73ffffffffffffffffffffffffffffffffffffffff604051809781968295847f150b7a02000000000000000000000000000000000000000000000000000000009c8d86523360048701521660248501526044840152608060648401526084830190610139565b0393165af15f9181611d7e575b50611d5857611d44611c8c565b805115611d5357805190602001fd5b611875565b7fffffffff00000000000000000000000000000000000000000000000000000000161490565b611da191925060203d602011611da8575b611d998183610f83565b810190611c54565b905f611d37565b503d611d8f565b15611db657565b60846040517f08c379a000000000000000000000000000000000000000000000000000000000815260206004820152602a60248201527f5361666545524332303a204552433230206f7065726174696f6e20646964206e60448201527f6f742073756363656564000000000000000000000000000000000000000000006064820152fd5b91929015611eb55750815115611e4e575090565b3b15611e575790565b60646040517f08c379a000000000000000000000000000000000000000000000000000000000815260206004820152601d60248201527f416464726573733a2063616c6c20746f206e6f6e2d636f6e74726163740000006044820152fd5b825190915015611ec85750805190602001fd5b611efe906040519182917f08c379a000000000000000000000000000000000000000000000000000000000835260048301610195565b0390fdfea2646970667358221220870257bd41a4658520c68b33aa33ce20aca6ec89844d7e45011337ba361d2d7b64736f6c63430008180033","linkReferences":{}},"methodIdentifiers":{"addPriceFeed(address,address)":"e8a97a3e","approve(address,uint256)":"095ea7b3","authorizeBreeder(address)":"1114e765","balanceOf(address)":"70a08231","getApproved(uint256)":"081812fc","isApprovedForAll(address,address)":"e985e9c5","name()":"06fdde03","ownerOf(uint256)":"6352211e","safeTransferFrom(address,address,uint256)":"42842e0e","safeTransferFrom(address,address,uint256,bytes)":"b88d4fde","setAllowedToken(address,bool)":"8aaa2284","setApprovalForAll(address,bool)":"a22cb465","setMintPrice(uint256)":"f4a0a528","setRemoteBridge(uint64,address)":"ffa739df","symbol()":"95d89b41","totalSupply()":"18160ddd","transferFrom(address,address,uint256)":"23b872dd","withdraw(address)":"51cff8d9"},"id":124}