{
  "abi": [
    {
      "type": "function",
      "name": "approve",
      "inputs": [
        {
          "name": "to",
          "type": "address",
          "internalType": "address"
        },
        {
          "name": "tokenId",
          "type": "uint256",
          "internalType": "uint256"
        }
      ],
      "outputs": [],
      "stateMutability": "payable"
    },
    {
      "type": "function",
      "name": "balanceOf",
      "inputs": [
        {
          "name": "owner",
          "type": "address",
          "internalType": "address"
        }
      ],
      "outputs": [
        {
          "name": "",
          "type": "uint256",
          "internalType": "uint256"
        }
      ],
      "stateMutability": "view"
    },
    {
      "type": "function",
      "name": "exists",
      "inputs": [
        {
          "name": "tokenId",
          "type": "uint256",
          "internalType": "uint256"
        }
      ],
      "outputs": [
        {
          "name": "",
          "type": "bool",
          "internalType": "bool"
        }
      ],
      "stateMutability": "view"
    },
    {
      "type": "function",
      "name": "getApproved",
      "inputs": [
        {
          "name": "tokenId",
          "type": "uint256",
          "internalType": "uint256"
        }
      ],
      "outputs": [
        {
          "name": "",
          "type": "address",
          "internalType": "address"
        }
      ],
      "stateMutability": "view"
    },
    {
      "type": "function",
      "name": "getAttributes",
      "inputs": [
        {
          "name": "_tokenId",
          "type": "uint256",
          "internalType": "uint256"
        }
      ],
      "outputs": [
        {
          "name": "",
          "type": "string",
          "internalType": "string"
        }
      ],
      "stateMutability": "view"
    },
    {
      "type": "function",
      "name": "getAttributesByOwner",
      "inputs": [
        {
          "name": "_owner",
          "type": "address",
          "internalType": "address"
        },
        {
          "name": "_tokenId",
          "type": "uint256",
          "internalType": "uint256"
        }
      ],
      "outputs": [
        {
          "name": "",
          "type": "tuple",
          "internalType": "struct Genesis.SVGParams",
          "components": [
            {
              "name": "hairParams",
              "type": "tuple",
              "internalType": "struct Genesis.HairParams",
              "components": [
                {
                  "name": "hairStyle",
                  "type": "uint8",
                  "internalType": "uint8"
                },
                {
                  "name": "hairColor",
                  "type": "uint8",
                  "internalType": "uint8"
                }
              ]
            },
            {
              "name": "bodyParams",
              "type": "tuple",
              "internalType": "struct Genesis.BodyParams",
              "components": [
                {
                  "name": "bodyType",
                  "type": "uint8",
                  "internalType": "uint8"
                },
                {
                  "name": "skinColor",
                  "type": "uint8",
                  "internalType": "uint8"
                }
              ]
            },
            {
              "name": "clothingParams",
              "type": "tuple",
              "internalType": "struct Genesis.ClothingParams",
              "components": [
                {
                  "name": "clothes",
                  "type": "uint8",
                  "internalType": "uint8"
                },
                {
                  "name": "clothingColor",
                  "type": "uint8",
                  "internalType": "uint8"
                },
                {
                  "name": "clothesGraphic",
                  "type": "uint8",
                  "internalType": "uint8"
                }
              ]
            },
            {
              "name": "facialFeaturesParams",
              "type": "tuple",
              "internalType": "struct Genesis.FacialFeaturesParams",
              "components": [
                {
                  "name": "eyebrowShape",
                  "type": "uint8",
                  "internalType": "uint8"
                },
                {
                  "name": "eyeShape",
                  "type": "uint8",
                  "internalType": "uint8"
                },
                {
                  "name": "facialHairType",
                  "type": "uint8",
                  "internalType": "uint8"
                },
                {
                  "name": "mouthStyle",
                  "type": "uint8",
                  "internalType": "uint8"
                },
                {
                  "name": "lipColor",
                  "type": "uint8",
                  "internalType": "uint8"
                }
              ]
            },
            {
              "name": "accessoryParams",
              "type": "tuple",
              "internalType": "struct Genesis.AccessoryParams",
              "components": [
                {
                  "name": "accessoryId",
                  "type": "uint8",
                  "internalType": "uint8"
                },
                {
                  "name": "hatStyle",
                  "type": "uint8",
                  "internalType": "uint8"
                },
                {
                  "name": "hatColor",
                  "type": "uint8",
                  "internalType": "uint8"
                }
              ]
            },
            {
              "name": "otherParams",
              "type": "tuple",
              "internalType": "struct Genesis.OtherParams",
              "components": [
                {
                  "name": "faceMask",
                  "type": "bool",
                  "internalType": "bool"
                },
                {
                  "name": "faceMaskColor",
                  "type": "uint8",
                  "internalType": "uint8"
                },
                {
                  "name": "shapes",
                  "type": "bool",
                  "internalType": "bool"
                },
                {
                  "name": "shapeColor",
                  "type": "uint8",
                  "internalType": "uint8"
                },
                {
                  "name": "lashes",
                  "type": "bool",
                  "internalType": "bool"
                }
              ]
            }
          ]
        }
      ],
      "stateMutability": "view"
    },
    {
      "type": "function",
      "name": "getAttributesByTokenId",
      "inputs": [
        {
          "name": "_tokenId",
          "type": "uint256",
          "internalType": "uint256"
        }
      ],
      "outputs": [
        {
          "name": "",
          "type": "tuple",
          "internalType": "struct Genesis.SVGParams",
          "components": [
            {
              "name": "hairParams",
              "type": "tuple",
              "internalType": "struct Genesis.HairParams",
              "components": [
                {
                  "name": "hairStyle",
                  "type": "uint8",
                  "internalType": "uint8"
                },
                {
                  "name": "hairColor",
                  "type": "uint8",
                  "internalType": "uint8"
                }
              ]
            },
            {
              "name": "bodyParams",
              "type": "tuple",
              "internalType": "struct Genesis.BodyParams",
              "components": [
                {
                  "name": "bodyType",
                  "type": "uint8",
                  "internalType": "uint8"
                },
                {
                  "name": "skinColor",
                  "type": "uint8",
                  "internalType": "uint8"
                }
              ]
            },
            {
              "name": "clothingParams",
              "type": "tuple",
              "internalType": "struct Genesis.ClothingParams",
              "components": [
                {
                  "name": "clothes",
                  "type": "uint8",
                  "internalType": "uint8"
                },
                {
                  "name": "clothingColor",
                  "type": "uint8",
                  "internalType": "uint8"
                },
                {
                  "name": "clothesGraphic",
                  "type": "uint8",
                  "internalType": "uint8"
                }
              ]
            },
            {
              "name": "facialFeaturesParams",
              "type": "tuple",
              "internalType": "struct Genesis.FacialFeaturesParams",
              "components": [
                {
                  "name": "eyebrowShape",
                  "type": "uint8",
                  "internalType": "uint8"
                },
                {
                  "name": "eyeShape",
                  "type": "uint8",
                  "internalType": "uint8"
                },
                {
                  "name": "facialHairType",
                  "type": "uint8",
                  "internalType": "uint8"
                },
                {
                  "name": "mouthStyle",
                  "type": "uint8",
                  "internalType": "uint8"
                },
                {
                  "name": "lipColor",
                  "type": "uint8",
                  "internalType": "uint8"
                }
              ]
            },
            {
              "name": "accessoryParams",
              "type": "tuple",
              "internalType": "struct Genesis.AccessoryParams",
              "components": [
                {
                  "name": "accessoryId",
                  "type": "uint8",
                  "internalType": "uint8"
                },
                {
                  "name": "hatStyle",
                  "type": "uint8",
                  "internalType": "uint8"
                },
                {
                  "name": "hatColor",
                  "type": "uint8",
                  "internalType": "uint8"
                }
              ]
            },
            {
              "name": "otherParams",
              "type": "tuple",
              "internalType": "struct Genesis.OtherParams",
              "components": [
                {
                  "name": "faceMask",
                  "type": "bool",
                  "internalType": "bool"
                },
                {
                  "name": "faceMaskColor",
                  "type": "uint8",
                  "internalType": "uint8"
                },
                {
                  "name": "shapes",
                  "type": "bool",
                  "internalType": "bool"
                },
                {
                  "name": "shapeColor",
                  "type": "uint8",
                  "internalType": "uint8"
                },
                {
                  "name": "lashes",
                  "type": "bool",
                  "internalType": "bool"
                }
              ]
            }
          ]
        }
      ],
      "stateMutability": "view"
    },
    {
      "type": "function",
      "name": "getOriginChainId",
      "inputs": [
        {
          "name": "_tokenId",
          "type": "uint256",
          "internalType": "uint256"
        }
      ],
      "outputs": [
        {
          "name": "",
          "type": "uint256",
          "internalType": "uint256"
        }
      ],
      "stateMutability": "view"
    },
    {
      "type": "function",
      "name": "getOwnedTokenIds",
      "inputs": [
        {
          "name": "_owner",
          "type": "address",
          "internalType": "address"
        }
      ],
      "outputs": [
        {
          "name": "",
          "type": "uint256[]",
          "internalType": "uint256[]"
        }
      ],
      "stateMutability": "view"
    },
    {
      "type": "function",
      "name": "getOwnerTokensCount",
      "inputs": [
        {
          "name": "_owner",
          "type": "address",
          "internalType": "address"
        }
      ],
      "outputs": [
        {
          "name": "",
          "type": "uint256",
          "internalType": "uint256"
        }
      ],
      "stateMutability": "view"
    },
    {
      "type": "function",
      "name": "isApprovedForAll",
      "inputs": [
        {
          "name": "owner",
          "type": "address",
          "internalType": "address"
        },
        {
          "name": "operator",
          "type": "address",
          "internalType": "address"
        }
      ],
      "outputs": [
        {
          "name": "",
          "type": "bool",
          "internalType": "bool"
        }
      ],
      "stateMutability": "view"
    },
    {
      "type": "function",
      "name": "isBridgeAuthorized",
      "inputs": [
        {
          "name": "chainSelector",
          "type": "uint64",
          "internalType": "uint64"
        },
        {
          "name": "bridge",
          "type": "address",
          "internalType": "address"
        }
      ],
      "outputs": [
        {
          "name": "",
          "type": "bool",
          "internalType": "bool"
        }
      ],
      "stateMutability": "view"
    },
    {
      "type": "function",
      "name": "isTokenLocked",
      "inputs": [
        {
          "name": "_tokenId",
          "type": "uint256",
          "internalType": "uint256"
        }
      ],
      "outputs": [
        {
          "name": "",
          "type": "bool",
          "internalType": "bool"
        }
      ],
      "stateMutability": "view"
    },
    {
      "type": "function",
      "name": "name",
      "inputs": [],
      "outputs": [
        {
          "name": "",
          "type": "string",
          "internalType": "string"
        }
      ],
      "stateMutability": "view"
    },
    {
      "type": "function",
      "name": "ownerOf",
      "inputs": [
        {
          "name": "tokenId",
          "type": "uint256",
          "internalType": "uint256"
        }
      ],
      "outputs": [
        {
          "name": "",
          "type": "address",
          "internalType": "address"
        }
      ],
      "stateMutability": "view"
    },
    {
      "type": "function",
      "name": "safeTransferFrom",
      "inputs": [
        {
          "name": "from",
          "type": "address",
          "internalType": "address"
        },
        {
          "name": "to",
          "type": "address",
          "internalType": "address"
        },
        {
          "name": "tokenId",
          "type": "uint256",
          "internalType": "uint256"
        }
      ],
      "outputs": [],
      "stateMutability": "payable"
    },
    {
      "type": "function",
      "name": "safeTransferFrom",
      "inputs": [
        {
          "name": "from",
          "type": "address",
          "internalType": "address"
        },
        {
          "name": "to",
          "type": "address",
          "internalType": "address"
        },
        {
          "name": "tokenId",
          "type": "uint256",
          "internalType": "uint256"
        },
        {
          "name": "_data",
          "type": "bytes",
          "internalType": "bytes"
        }
      ],
      "outputs": [],
      "stateMutability": "payable"
    },
    {
      "type": "function",
      "name": "setApprovalForAll",
      "inputs": [
        {
          "name": "operator",
          "type": "address",
          "internalType": "address"
        },
        {
          "name": "approved",
          "type": "bool",
          "internalType": "bool"
        }
      ],
      "outputs": [],
      "stateMutability": "nonpayable"
    },
    {
      "type": "function",
      "name": "symbol",
      "inputs": [],
      "outputs": [
        {
          "name": "",
          "type": "string",
          "internalType": "string"
        }
      ],
      "stateMutability": "view"
    },
    {
      "type": "function",
      "name": "tokenURI",
      "inputs": [
        {
          "name": "_tokenId",
          "type": "uint256",
          "internalType": "uint256"
        }
      ],
      "outputs": [
        {
          "name": "",
          "type": "string",
          "internalType": "string"
        }
      ],
      "stateMutability": "view"
    },
    {
      "type": "function",
      "name": "totalSupply",
      "inputs": [],
      "outputs": [
        {
          "name": "",
          "type": "uint256",
          "internalType": "uint256"
        }
      ],
      "stateMutability": "view"
    },
    {
      "type": "function",
      "name": "transferFrom",
      "inputs": [
        {
          "name": "from",
          "type": "address",
          "internalType": "address"
        },
        {
          "name": "to",
          "type": "address",
          "internalType": "address"
        },
        {
          "name": "tokenId",
          "type": "uint256",
          "internalType": "uint256"
        }
      ],
      "outputs": [],
      "stateMutability": "payable"
    },
    {
      "type": "event",
      "name": "Approval",
      "inputs": [
        {
          "name": "owner",
          "type": "address",
          "indexed": true,
          "internalType": "address"
        },
        {
          "name": "approved",
          "type": "address",
          "indexed": true,
          "internalType": "address"
        },
        {
          "name": "tokenId",
          "type": "uint256",
          "indexed": true,
          "internalType": "uint256"
        }
      ],
      "anonymous": false
    },
    {
      "type": "event",
      "name": "ApprovalForAll",
      "inputs": [
        {
          "name": "owner",
          "type": "address",
          "indexed": true,
          "internalType": "address"
        },
        {
          "name": "operator",
          "type": "address",
          "indexed": true,
          "internalType": "address"
        },
        {
          "name": "approved",
          "type": "bool",
          "indexed": false,
          "internalType": "bool"
        }
      ],
      "anonymous": false
    },
    {
      "type": "event",
      "name": "ConsecutiveTransfer",
      "inputs": [
        {
          "name": "fromTokenId",
          "type": "uint256",
          "indexed": true,
          "internalType": "uint256"
        },
        {
          "name": "toTokenId",
          "type": "uint256",
          "indexed": false,
          "internalType": "uint256"
        },
        {
          "name": "from",
          "type": "address",
          "indexed": true,
          "internalType": "address"
        },
        {
          "name": "to",
          "type": "address",
          "indexed": true,
          "internalType": "address"
        }
      ],
      "anonymous": false
    },
    {
      "type": "event",
      "name": "Transfer",
      "inputs": [
        {
          "name": "from",
          "type": "address",
          "indexed": true,
          "internalType": "address"
        },
        {
          "name": "to",
          "type": "address",
          "indexed": true,
          "internalType": "address"
        },
        {
          "name": "tokenId",
          "type": "uint256",
          "indexed": true,
          "internalType": "uint256"
        }
      ],
      "anonymous": false
    },
    {
      "type": "error",
      "name": "AccessoryDetail__InvalidType",
      "inputs": [
        {
          "name": "id",
          "type": "uint8",
          "internalType": "uint8"
        }
      ]
    },
    {
      "type": "error",
      "name": "ApprovalCallerNotOwnerNorApproved",
      "inputs": []
    },
    {
      "type": "error",
      "name": "ApprovalQueryForNonexistentToken",
      "inputs": []
    },
    {
      "type": "error",
      "name": "BalanceQueryForZeroAddress",
      "inputs": []
    },
    {
      "type": "error",
      "name": "BodyDetail__InvalidColor",
      "inputs": [
        {
          "name": "id",
          "type": "uint8",
          "internalType": "uint8"
        }
      ]
    },
    {
      "type": "error",
      "name": "BodyDetail__InvalidType",
      "inputs": [
        {
          "name": "id",
          "type": "uint8",
          "internalType": "uint8"
        }
      ]
    },
    {
      "type": "error",
      "name": "ClothingDetail__InvalidColor",
      "inputs": [
        {
          "name": "id",
          "type": "uint8",
          "internalType": "uint8"
        }
      ]
    },
    {
      "type": "error",
      "name": "ClothingDetail__InvalidType",
      "inputs": [
        {
          "name": "id",
          "type": "uint8",
          "internalType": "uint8"
        }
      ]
    },
    {
      "type": "error",
      "name": "ClothingGraphicDetail__InvalidType",
      "inputs": [
        {
          "name": "id",
          "type": "uint8",
          "internalType": "uint8"
        }
      ]
    },
    {
      "type": "error",
      "name": "Errors__InvalidColor",
      "inputs": [
        {
          "name": "id",
          "type": "uint8",
          "internalType": "uint8"
        }
      ]
    },
    {
      "type": "error",
      "name": "EyebrowDetail__InvalidType",
      "inputs": [
        {
          "name": "id",
          "type": "uint8",
          "internalType": "uint8"
        }
      ]
    },
    {
      "type": "error",
      "name": "EyesDetail__InvalidType",
      "inputs": [
        {
          "name": "id",
          "type": "uint8",
          "internalType": "uint8"
        }
      ]
    },
    {
      "type": "error",
      "name": "FacialHairDetail__InvalidType",
      "inputs": [
        {
          "name": "id",
          "type": "uint8",
          "internalType": "uint8"
        }
      ]
    },
    {
      "type": "error",
      "name": "HairDetail__InvalidColor",
      "inputs": [
        {
          "name": "id",
          "type": "uint8",
          "internalType": "uint8"
        }
      ]
    },
    {
      "type": "error",
      "name": "HairDetail__InvalidType",
      "inputs": [
        {
          "name": "id",
          "type": "uint8",
          "internalType": "uint8"
        }
      ]
    },
    {
      "type": "error",
      "name": "HatsDetail__InvalidColor",
      "inputs": [
        {
          "name": "id",
          "type": "uint8",
          "internalType": "uint8"
        }
      ]
    },
    {
      "type": "error",
      "name": "HatsDetail__InvalidType",
      "inputs": [
        {
          "name": "id",
          "type": "uint8",
          "internalType": "uint8"
        }
      ]
    },
    {
      "type": "error",
      "name": "IBeanHeadsView__NotOwner",
      "inputs": []
    },
    {
      "type": "error",
      "name": "IBeanHeadsView__TokenDoesNotExist",
      "inputs": []
    },
    {
      "type": "error",
      "name": "IBeanHeadsView__TokenNotForSale",
      "inputs": []
    },
    {
      "type": "error",
      "name": "InvalidTokenId",
      "inputs": []
    },
    {
      "type": "error",
      "name": "MintERC2309QuantityExceedsLimit",
      "inputs": []
    },
    {
      "type": "error",
      "name": "MintToZeroAddress",
      "inputs": []
    },
    {
      "type": "error",
      "name": "MintZeroQuantity",
      "inputs": []
    },
    {
      "type": "error",
      "name": "MouthDetail__InvalidColor",
      "inputs": [
        {
          "name": "id",
          "type": "uint8",
          "internalType": "uint8"
        }
      ]
    },
    {
      "type": "error",
      "name": "MouthDetail__InvalidType",
      "inputs": [
        {
          "name": "id",
          "type": "uint8",
          "internalType": "uint8"
        }
      ]
    },
    {
      "type": "error",
      "name": "OwnerQueryForNonexistentToken",
      "inputs": []
    },
    {
      "type": "error",
      "name": "OwnershipNotInitializedForExtraData",
      "inputs": []
    },
    {
      "type": "error",
      "name": "TokenAlreadyExists",
      "inputs": []
    },
    {
      "type": "error",
      "name": "TransferCallerNotOwnerNorApproved",
      "inputs": []
    },
    {
      "type": "error",
      "name": "TransferFromIncorrectOwner",
      "inputs": []
    },
    {
      "type": "error",
      "name": "TransferToNonERC721ReceiverImplementer",
      "inputs": []
    },
    {
      "type": "error",
      "name": "TransferToZeroAddress",
      "inputs": []
    },
    {
      "type": "error",
      "name": "URIQueryForNonexistentToken",
      "inputs": []
    }
  ],
  "bytecode": {
    "object": "0x6080806040523461001657615174908161001b8239f35b5f80fdfe60806040526004361015610011575f80fd5b5f3560e01c806306fdde0314610174578063081812fc1461016f578063095ea7b31461016a57806318160ddd146101655780631efa613c1461016057806323b872dd1461015b578063276a28a31461015657806342842e0e146101515780634378a6e31461014c5780634f558e79146101475780634fac7e41146101425780635b16d9681461013d5780636352211e1461013857806370a082311461013357806371563f141461012e5780637e4d03d81461012957806384d1e1ff1461012457806395d89b411461011f578063a22cb4651461011a578063b88d4fde14610115578063c87b56dd146101105763e985e9c51461010b575f80fd5b611799565b61131d565b61127c565b610fd7565b610eba565b610e1e565b610da0565b610d5b565b610c84565b610c2a565b610bb5565b610ab6565b610a70565b6109b5565b610993565b610919565b610905565b61079b565b6105ff565b610486565b61038d565b6101f1565b5f5b83811061018a5750505f910152565b818101518382015260200161017b565b907fffffffffffffffffffffffffffffffffffffffffffffffffffffffffffffffe0601f6020936101d681518092818752878088019101610179565b0116010190565b9060206101ee92818152019061019a565b90565b34610389575f7ffffffffffffffffffffffffffffffffffffffffffffffffffffffffffffffffc360112610389576040515f7f8785b62d5a7098417c833f00e99883e36791da2bbef1ddc66d7797ca0681c2d25460018160011c916001811691821561037f575b602091602085108414610352578487526020870193908115610315575060011461029d575b6102998661028d818803826111b2565b604051918291826101dd565b0390f35b7f8785b62d5a7098417c833f00e99883e36791da2bbef1ddc66d7797ca0681c2d25f90815294509192917f4eff6dd2ce7e3eed3d8c57a965022ef5c4089064f80bafbcccb1920be91b46a15b838610610304575050509101905061028d826102995f61027d565b8054858701529482019481016102e9565b7fffffffffffffffffffffffffffffffffffffffffffffffffffffffffffffff0016845250505090151560051b01905061028d826102995f61027d565b7f4e487b71000000000000000000000000000000000000000000000000000000005f52602260045260245ffd5b92607f1692610258565b5f80fd5b346103895760207ffffffffffffffffffffffffffffffffffffffffffffffffffffffffffffffffc360112610389576004356103c881611dfa565b15610418575f527f8785b62d5a7098417c833f00e99883e36791da2bbef1ddc66d7797ca0681c2d6602052602073ffffffffffffffffffffffffffffffffffffffff60405f205416604051908152f35b7fcf4700e4000000000000000000000000000000000000000000000000000000005f5260045ffd5b6004359073ffffffffffffffffffffffffffffffffffffffff8216820361038957565b6024359073ffffffffffffffffffffffffffffffffffffffff8216820361038957565b60407ffffffffffffffffffffffffffffffffffffffffffffffffffffffffffffffffc360112610389576104b8610440565b6024359073ffffffffffffffffffffffffffffffffffffffff806104db84611f55565b1690813303610561575b835f527f8785b62d5a7098417c833f00e99883e36791da2bbef1ddc66d7797ca0681c2d660205260405f20921691827fffffffffffffffffffffffff00000000000000000000000000000000000000008254161790557f8c5be1e5ebec7d5bd14f71427d1e84f3dd0314c0f7b2291e5b200ac8c7c3b9255f80a4005b60ff6105d1336105ae8573ffffffffffffffffffffffffffffffffffffffff165f527f8785b62d5a7098417c833f00e99883e36791da2bbef1ddc66d7797ca0681c2d760205260405f2090565b9073ffffffffffffffffffffffffffffffffffffffff165f5260205260405f2090565b54166104e5577fcfb3b942000000000000000000000000000000000000000000000000000000005f5260045ffd5b34610389575f7ffffffffffffffffffffffffffffffffffffffffffffffffffffffffffffffffc3601126103895760207f8785b62d5a7098417c833f00e99883e36791da2bbef1ddc66d7797ca0681c2d0547f8785b62d5a7098417c833f00e99883e36791da2bbef1ddc66d7797ca0681c2d1549003604051908152f35b610799909291926101e060a06102808301956106a984825160ff60208092828151168552015116910152565b602081810151805160ff9081166040880152910151166060850152604081810151805160ff90811660808801526020820151811660a08801529101511660c085015260ff608060608301518281511660e088015282602082015116610100880152826040820151166101208801528260608201511661014088015201511661016085015261075b608082015161018086019060ff60408092828151168552826020820151166020860152015116910152565b01519101906080809180511515845260ff602082015116602085015260408101511515604085015260ff606082015116606085015201511515910152565b565b346103895760407ffffffffffffffffffffffffffffffffffffffffffffffffffffffffffffffffc360112610389576107d2610440565b602435906107de611892565b506107e882611dfa565b1561087d5773ffffffffffffffffffffffffffffffffffffffff8061080c84611f55565b16911603610855575f527f791cad950d3b9b323a06def8cb8b7bf2c934c7f4cea39385f023ba145f9b93ae60205261029961084960405f20611985565b6040519182918261067d565b7ff4169f36000000000000000000000000000000000000000000000000000000005f5260045ffd5b7ff8989659000000000000000000000000000000000000000000000000000000005f5260045ffd5b7ffffffffffffffffffffffffffffffffffffffffffffffffffffffffffffffffc60609101126103895773ffffffffffffffffffffffffffffffffffffffff90600435828116810361038957916024359081168103610389579060443590565b610917610911366108a5565b91611a3a565b005b346103895760207ffffffffffffffffffffffffffffffffffffffffffffffffffffffffffffffffc3601126103895760043561095481611dfa565b1561087d575f527f791cad950d3b9b323a06def8cb8b7bf2c934c7f4cea39385f023ba145f9b93c0602052602060ff60405f2054166040519015158152f35b61091761099f366108a5565b90604051926109ad8461117a565b5f8452611d73565b346103895760207ffffffffffffffffffffffffffffffffffffffffffffffffffffffffffffffffc360112610389576004356109f081611dfa565b1561087d575f527f791cad950d3b9b323a06def8cb8b7bf2c934c7f4cea39385f023ba145f9b93ae602052610299610a5c60405f207f791cad950d3b9b323a06def8cb8b7bf2c934c7f4cea39385f023ba145f9b93af602052610a5760405f205491611985565b612104565b60405191829160208352602083019061019a565b346103895760207ffffffffffffffffffffffffffffffffffffffffffffffffffffffffffffffffc360112610389576020610aac600435611dfa565b6040519015158152f35b34610389576020807ffffffffffffffffffffffffffffffffffffffffffffffffffffffffffffffffc36011261038957610b34610af1610440565b73ffffffffffffffffffffffffffffffffffffffff165f527f791cad950d3b9b323a06def8cb8b7bf2c934c7f4cea39385f023ba145f9b93b160205260405f2090565b604051908183825491828152019081925f52845f20905f5b86828210610ba1578686610b62828803836111b2565b60405192839281840190828552518091526040840192915f5b828110610b8a57505050500390f35b835185528695509381019392810192600101610b7b565b835485529093019260019283019201610b4c565b346103895760207ffffffffffffffffffffffffffffffffffffffffffffffffffffffffffffffffc36011261038957600435610bf081611dfa565b1561087d575f527f791cad950d3b9b323a06def8cb8b7bf2c934c7f4cea39385f023ba145f9b93c1602052602060405f2054604051908152f35b346103895760207ffffffffffffffffffffffffffffffffffffffffffffffffffffffffffffffffc36011261038957602073ffffffffffffffffffffffffffffffffffffffff610c7b600435611f55565b16604051908152f35b346103895760207ffffffffffffffffffffffffffffffffffffffffffffffffffffffffffffffffc36011261038957610cbb610440565b73ffffffffffffffffffffffffffffffffffffffff811615610d335767ffffffffffffffff610d2960209273ffffffffffffffffffffffffffffffffffffffff165f527f8785b62d5a7098417c833f00e99883e36791da2bbef1ddc66d7797ca0681c2d560205260405f2090565b5416604051908152f35b7f8f4eb604000000000000000000000000000000000000000000000000000000005f5260045ffd5b346103895760207ffffffffffffffffffffffffffffffffffffffffffffffffffffffffffffffffc360112610389576020610d97610af1610440565b54604051908152f35b346103895760207ffffffffffffffffffffffffffffffffffffffffffffffffffffffffffffffffc36011261038957600435610dda611892565b50610de481611dfa565b1561087d575f527f791cad950d3b9b323a06def8cb8b7bf2c934c7f4cea39385f023ba145f9b93ae60205261029961084960405f20611985565b346103895760407ffffffffffffffffffffffffffffffffffffffffffffffffffffffffffffffffc3601126103895760043567ffffffffffffffff811680910361038957602090610e6d610463565b905f527f791cad950d3b9b323a06def8cb8b7bf2c934c7f4cea39385f023ba145f9b93c3825273ffffffffffffffffffffffffffffffffffffffff8060405f205416906040519216148152f35b34610389575f7ffffffffffffffffffffffffffffffffffffffffffffffffffffffffffffffffc360112610389576040515f7f8785b62d5a7098417c833f00e99883e36791da2bbef1ddc66d7797ca0681c2d35460018160011c9160018116918215610fcd575b6020916020851084146103525784875260208701939081156103155750600114610f55576102998661028d818803826111b2565b7f8785b62d5a7098417c833f00e99883e36791da2bbef1ddc66d7797ca0681c2d35f90815294509192917feab2a30426a14f07ecdc76635cd0729eb655bee4c9d04a8fb1b5d85c28c9dae35b838610610fbc575050509101905061028d826102995f61027d565b805485870152948201948101610fa1565b92607f1692610f21565b346103895760407ffffffffffffffffffffffffffffffffffffffffffffffffffffffffffffffffc3601126103895761100e610440565b60243590811515809203610389578061107d73ffffffffffffffffffffffffffffffffffffffff926105ae3373ffffffffffffffffffffffffffffffffffffffff165f527f8785b62d5a7098417c833f00e99883e36791da2bbef1ddc66d7797ca0681c2d760205260405f2090565b7fffffffffffffffffffffffffffffffffffffffffffffffffffffffffffffff0081541660ff851617905560405192835216907f17307eab39ab6107e8899845ad3d59bd9653f200f220920489ca2b5937696c3160203392a3005b7f4e487b71000000000000000000000000000000000000000000000000000000005f52604160045260245ffd5b6040810190811067ffffffffffffffff82111761112157604052565b6110d8565b6060810190811067ffffffffffffffff82111761112157604052565b60a0810190811067ffffffffffffffff82111761112157604052565b60c0810190811067ffffffffffffffff82111761112157604052565b6020810190811067ffffffffffffffff82111761112157604052565b60e0810190811067ffffffffffffffff82111761112157604052565b90601f7fffffffffffffffffffffffffffffffffffffffffffffffffffffffffffffffe0910116810190811067ffffffffffffffff82111761112157604052565b60405190610100820182811067ffffffffffffffff82111761112157604052565b604051906107998261115e565b60405190610120820182811067ffffffffffffffff82111761112157604052565b67ffffffffffffffff811161112157601f017fffffffffffffffffffffffffffffffffffffffffffffffffffffffffffffffe01660200190565b60807ffffffffffffffffffffffffffffffffffffffffffffffffffffffffffffffffc360112610389576112ae610440565b6112b6610463565b6064359167ffffffffffffffff83116103895736602384011215610389578260040135916112e383611242565b926112f160405194856111b2565b8084523660248287010111610389576020815f9260246109179801838801378501015260443591611d73565b34610389576020807ffffffffffffffffffffffffffffffffffffffffffffffffffffffffffffffffc3601126103895760043561135981611dfa565b1561087d57805f527f791cad950d3b9b323a06def8cb8b7bf2c934c7f4cea39385f023ba145f9b93ae8252604090815f2061139390611985565b90805f527f791cad950d3b9b323a06def8cb8b7bf2c934c7f4cea39385f023ba145f9b93af84528380845f20546113ca9085612104565b930151015183517f3c73766720786d6c6e733d22687474703a2f2f7777772e77332e6f72672f3230868201527f30302f737667222076696577426f783d223020302035303020353030223e0000818601527f3c726563742077696474683d2235303022206865696768743d22353030222066605e8201527f696c6c3d22000000000000000000000000000000000000000000000000000000607e82015260f89190911b7fff000000000000000000000000000000000000000000000000000000000000001660838201527f222f3e000000000000000000000000000000000000000000000000000000000060848201527f3c7465787420783d223530252220793d223530252220646f6d696e616e742d6260878201527f6173656c696e653d226d6964646c652220746578742d616e63686f723d226d6960a78201527f64646c652220666f6e742d73697a653d223234223e000000000000000000000060c78201527f4265616e4865616473204176617461723c2f746578743e00000000000000000060dc8201527f3c2f7376673e000000000000000000000000000000000000000000000000000060f382015260d981527fffffffffffffffffffffffffffffffffffffffffffffffffffffffffffffffe092906115aa60f9826111b2565b6115b2614f67565b6115bb91615004565b91845180938782016115f190601a907f646174613a696d6167652f7376672b786d6c3b6261736536342c00000000000081520190565b6115fa916120ed565b03848101845261160a90846111b2565b61161390614dfa565b90845192839287840161164a906014907f7b226e616d65223a224265616e4865616473202300000000000000000000000081520190565b611653916120ed565b7f222c226465736372697074696f6e223a224265616e486561647320697320612081527f637573746f6d697a61626c6520617661746172206f6e2d636861696e204e465460208201527f20636f6c6c656374696f6e222c22696d616765223a220000000000000000000060408201526056016116ce916120ed565b7f222c2261747472696275746573223a00000000000000000000000000000000008152600f016116fd916120ed565b7f7d00000000000000000000000000000000000000000000000000000000000000815260010103828101825261173390826111b2565b61173b614f67565b61174491615004565b82517f646174613a6170706c69636174696f6e2f6a736f6e3b6261736536342c00000094810194855293849190601d0161177d916120ed565b03908101835261178d90836111b2565b516102998192826101dd565b346103895760407ffffffffffffffffffffffffffffffffffffffffffffffffffffffffffffffffc36011261038957602060ff6118266117d7610440565b6105ae6117e2610463565b9173ffffffffffffffffffffffffffffffffffffffff165f527f8785b62d5a7098417c833f00e99883e36791da2bbef1ddc66d7797ca0681c2d760205260405f2090565b54166040519015158152f35b6040519061183f82611105565b5f6020838281520152565b6040519061185782611126565b5f6040838281528260208201520152565b6040519061187582611142565b5f6080838281528260208201528260408201528260608201520152565b6040519061189f8261115e565b816118a8611832565b81526118b2611832565b60208201526118bf61184a565b60408201526118cc611868565b60608201526118d961184a565b608082015260a06118e8611868565b910152565b906040516118fa81611105565b602060ff829454818116845260081c16910152565b9060405161191c81611126565b604060ff8294548181168452818160081c16602085015260101c16910152565b9060405161194981611142565b608060ff82945481811615158452818160081c166020850152818160101c1615156040850152818160181c16606085015260201c161515910152565b906040516119928161115e565b60a06118e8600583956119a4816118ed565b85526119b2600182016118ed565b60208601526119c36002820161190f565b60408601526040516119d481611142565b611a1e60ff60038401548181168452818160081c166020850152818160101c166040850152611a0e828260181c16606086019060ff169052565b60201c16608083019060ff169052565b6060860152611a2f6004820161190f565b60808601520161193c565b919091611a4682611f55565b9273ffffffffffffffffffffffffffffffffffffffff809216938483821603611d5c575f8481527f8785b62d5a7098417c833f00e99883e36791da2bbef1ddc66d7797ca0681c2d6602052604090208054611ac173ffffffffffffffffffffffffffffffffffffffff881633908114908314171590565b1590565b611cfa575b611cf1575b50611b138573ffffffffffffffffffffffffffffffffffffffff165f527f8785b62d5a7098417c833f00e99883e36791da2bbef1ddc66d7797ca0681c2d560205260405f2090565b80547fffffffffffffffffffffffffffffffffffffffffffffffffffffffffffffffff019055611b808273ffffffffffffffffffffffffffffffffffffffff165f527f8785b62d5a7098417c833f00e99883e36791da2bbef1ddc66d7797ca0681c2d560205260405f2090565b8054600101905573ffffffffffffffffffffffffffffffffffffffff82164260a01b177c020000000000000000000000000000000000000000000000000000000017611bf3855f527f8785b62d5a7098417c833f00e99883e36791da2bbef1ddc66d7797ca0681c2d460205260405f2090565b557c0200000000000000000000000000000000000000000000000000000000811615611c4e575b501680927fddf252ad1be2c89b69c2b068fc378daa952ba7f163c4a11628f55a4df523b3ef5f80a415611c4957565b611f05565b60018401611c83815f527f8785b62d5a7098417c833f00e99883e36791da2bbef1ddc66d7797ca0681c2d460205260405f2090565b5415611c90575b50611c1a565b7f8785b62d5a7098417c833f00e99883e36791da2bbef1ddc66d7797ca0681c2d0548114611c8a57611ce9905f527f8785b62d5a7098417c833f00e99883e36791da2bbef1ddc66d7797ca0681c2d460205260405f2090565b555f80611c8a565b5f90555f611acb565b611d52611abd611d4b336105ae8b73ffffffffffffffffffffffffffffffffffffffff165f527f8785b62d5a7098417c833f00e99883e36791da2bbef1ddc66d7797ca0681c2d760205260405f2090565b5460ff1690565b15611ac657611edd565b611eb5565b60405190611d6e8261117a565b5f8252565b929190611d81828286611a3a565b803b611d8e575b50505050565b611d979361288d565b15611da5575f808080611d88565b7fd1a57ed6000000000000000000000000000000000000000000000000000000005f5260045ffd5b7f4e487b71000000000000000000000000000000000000000000000000000000005f52601160045260245ffd5b905f917f8785b62d5a7098417c833f00e99883e36791da2bbef1ddc66d7797ca0681c2d0548110611e285750565b9091505b805f527f8785b62d5a7098417c833f00e99883e36791da2bbef1ddc66d7797ca0681c2d460205260405f205480611e9057508015611e8b577fffffffffffffffffffffffffffffffffffffffffffffffffffffffffffffffff01611e2c565b611dcd565b7c01000000000000000000000000000000000000000000000000000000009150161590565b7fa1148100000000000000000000000000000000000000000000000000000000005f5260045ffd5b7f59c896be000000000000000000000000000000000000000000000000000000005f5260045ffd5b7fea553b34000000000000000000000000000000000000000000000000000000005f5260045ffd5b7fdf2d9b42000000000000000000000000000000000000000000000000000000005f5260045ffd5b611f86815f527f8785b62d5a7098417c833f00e99883e36791da2bbef1ddc66d7797ca0681c2d460205260405f2090565b54908115611fb657507c01000000000000000000000000000000000000000000000000000000008116611f2d5790565b90507f8785b62d5a7098417c833f00e99883e36791da2bbef1ddc66d7797ca0681c2d054811015611f2d577fffffffffffffffffffffffffffffffffffffffffffffffffffffffffffffffff905b01612036815f527f8785b62d5a7098417c833f00e99883e36791da2bbef1ddc66d7797ca0681c2d460205260405f2090565b5490811561208c57507c01000000000000000000000000000000000000000000000000000000008116156101ee577fdf2d9b42000000000000000000000000000000000000000000000000000000005f5260045ffd5b7fffffffffffffffffffffffffffffffffffffffffffffffffffffffffffffffff9150612004565b604051906120c182611105565b600182527f5b000000000000000000000000000000000000000000000000000000000000006020830152565b9061210060209282815194859201610179565b0190565b61223f916101ee916121146120b4565b91612123600193835190612981565b90612139612134845160ff90511690565b612ce8565b51159283612804575b612153846080830194855190612ff2565b92846127e5575b846127c3575b84612794575b50916122fb91612324936020958661218482828501968751906135d9565b9482612775575b82612757575b5050604097886121a783828601978851906139ed565b9583612738575b83612717575b836126f6575b50506121cd826060850196875190614080565b94826126d7575b826126b6575b82612695575b82612673575b8261263c575b505060a0819201906121ff825151151590565b612548575b508051880151612444575b51608001516123b1575b15612330575b61229461222e6122bd92614dfa565b61228e88519a8b95898701906120ed565b7f7b2274726169745f74797065223a202247656e65726174696f6e222c2022766181527f6c7565223a202200000000000000000000000000000000000000000000000000602082015260270190565b906120ed565b7f227d000000000000000000000000000000000000000000000000000000000000815260020190565b03936122ef7fffffffffffffffffffffffffffffffffffffffffffffffffffffffffffffffe0958681018952886111b2565b519586938401906120ed565b7f5d00000000000000000000000000000000000000000000000000000000000000815260010190565b039081018352826111b2565b9061229461222e6123526123a76122bd9461237b8b519384928c8401906120ed565b7f2c00000000000000000000000000000000000000000000000000000000000000815260010190565b037fffffffffffffffffffffffffffffffffffffffffffffffffffffffffffffffe081018352826111b2565b939250505061221f565b6123d191926124209115612427575b61237b8851938492898401906120ed565b7f7b2274726169745f74797065223a20224c6173686573222c202276616c75652281527f3a202274727565227d0000000000000000000000000000000000000000000000602082015260290190565b905f612219565b61243f6123529161237b8a519384928b8401906120ed565b6123c0565b92901561252b575b6125238661237b6122948a61228e6124d461248561247861247360608d510160ff90511690565b614d08565b93519889978801906120ed565b7f7b2274726169745f74797065223a2022536861706573222c202276616c75652281527f3a202274727565227d2c000000000000000000000000000000000000000000006020820152602a0190565b7f7b2274726169745f74797065223a2022536861706520436f6c6f72222c20227681527f616c7565223a2022000000000000000000000000000000000000000000000000602082015260280190565b915f9061220f565b6125436123529161237b89519384928a8401906120ed565b61244c565b909391501561261f575b6126168661237b6122948a61228e6125c7612578612478612473888d510160ff90511690565b7f7b2274726169745f74797065223a202246616365204d61736b222c202276616c81527f7565223a202274727565227d2c000000000000000000000000000000000000006020820152602d0190565b7f7b2274726169745f74797065223a202246616365204d61736b20436f6c6f722281527f2c202276616c7565223a202200000000000000000000000000000000000000006020820152602c0190565b915f905f612204565b6126376123529161237b89519384928a8401906120ed565b612552565b51606081015160ff16919091148015925061265a575b505f806121ec565b6080015161266b915060ff16614c14565b51155f612652565b915061268d612688606084510160ff90511690565b614b34565b5115916121e6565b91506126ae6126a98a84510160ff90511690565b614942565b5115916121e0565b91506126cf6126ca8984510160ff90511690565b614879565b5115916121da565b91506126ee6126e9835160ff90511690565b6145ac565b5115916121d4565b51015190915061270d9060ff16613fbd565b613fbd565b511590885f6121ba565b925061273061272b8a85510160ff90511690565b613df9565b5115926121b4565b925061274f61274a845160ff90511690565b613d05565b5115926121ae565b51015161276c915060ff1661394b565b61394b565b5115865f612191565b915061278c612787835160ff90511690565b61373d565b51159161218b565b61232493919450916127b76127b260406122fb95510160ff90511690565b613536565b51159491935091612166565b93506127dd6127d8602086510160ff90511690565b6133a2565b511593612160565b93506127fc6127f7855160ff90511690565b6132c7565b51159361215a565b925061281e612819602085510160ff90511690565b612f12565b511592612142565b9081602091031261038957517fffffffff00000000000000000000000000000000000000000000000000000000811681036103895790565b3d15612888573d9061286f82611242565b9161287d60405193846111b2565b82523d5f602084013e565b606090565b926020916128fc935f73ffffffffffffffffffffffffffffffffffffffff604051809781968295847f150b7a02000000000000000000000000000000000000000000000000000000009c8d8652336004870152166024850152604484015260806064840152608483019061019a565b0393165af15f9181612950575b5061292a5761291661285e565b80511561292557805190602001fd5b611da5565b7fffffffff00000000000000000000000000000000000000000000000000000000161490565b61297391925060203d60201161297a575b61296b81836111b2565b810190612826565b905f612909565b503d612961565b90612990612134825160ff1690565b908151612a56575b602001516129a89060ff16612f12565b9081516129b457505090565b916101ee916129dd9351612a2c575b61229461237b9161228e60405196879560208701906120ed565b7f7b2274726169745f74797065223a20224861697220436f6c6f72222c2022766181527f6c7565223a202200000000000000000000000000000000000000000000000000602082015260270190565b90612294612352612a4d61237b9361237b60405193849260208401906120ed565b929150506129c3565b916128196020612a7e612ad36129a89461237b612294612acd604051958694888601906120ed565b7f7b2274726169745f74797065223a202248616972205374796c65222c2022766181527f6c7565223a202200000000000000000000000000000000000000000000000000602082015260270190565b896120ed565b9492505050612998565b60405190612aea82611105565b600482527f4e6f6e65000000000000000000000000000000000000000000000000000000006020830152565b60405190612b2382611105565b600482527f4166726f000000000000000000000000000000000000000000000000000000006020830152565b60405190612b5c82611105565b600482527f42616c64000000000000000000000000000000000000000000000000000000006020830152565b60405190612b9582611105565b600782527f426f6220437574000000000000000000000000000000000000000000000000006020830152565b60405190612bce82611105565b600382527f42756e00000000000000000000000000000000000000000000000000000000006020830152565b60405190612c0782611105565b600982527f4c6f6e67204861697200000000000000000000000000000000000000000000006020830152565b60405190612c4082611105565b600982527f50697869652043757400000000000000000000000000000000000000000000006020830152565b60405190612c7982611105565b600a82527f53686f72742048616972000000000000000000000000000000000000000000006020830152565b7f4e487b71000000000000000000000000000000000000000000000000000000005f52603260045260245ffd5b906008811015612ce35760051b0190565b612ca5565b90612cf16111f3565b612cf9612add565b8152612d03612b16565b6020820152612d10612b4f565b6040820152612d1d612b88565b6060820152612d2a612bc1565b6080820152612d37612bfa565b60a0820152612d44612c33565b60c0820152612d51612c6c565b60e082015260ff8316906008821015612d7357612d6f929350612cd2565b5190565b6040517f9d3ca7f300000000000000000000000000000000000000000000000000000000815260ff85166004820152602490fd5b0390fd5b60405190612db882611105565b600682527f4f72616e676500000000000000000000000000000000000000000000000000006020830152565b60405190612df182611105565b600582527f426c61636b0000000000000000000000000000000000000000000000000000006020830152565b60405190612e2a82611105565b600582527f57686974650000000000000000000000000000000000000000000000000000006020830152565b60405190612e6382611105565b600582527f42726f776e0000000000000000000000000000000000000000000000000000006020830152565b60405190612e9c82611105565b600482527f426c7565000000000000000000000000000000000000000000000000000000006020830152565b60405190612ed582611105565b600482527f50696e6b000000000000000000000000000000000000000000000000000000006020830152565b906007811015612ce35760051b0190565b90604051612f1f81611196565b604051612f2b81611105565b600681527f426c6f6e6465000000000000000000000000000000000000000000000000000060208201528152612f5f612dab565b6020820152612f6c612de4565b6040820152612f79612e1d565b6060820152612f86612e56565b6080820152612f93612e8f565b60a0820152612fa0612ec8565b60c082015260ff8316906007821015612fbe57612d6f929350612f01565b6040517fc74a94f600000000000000000000000000000000000000000000000000000000815260ff85166004820152602490fd5b91906130026127f7825160ff1690565b9081516131a2575b61301b6127d8602083015160ff1690565b9081516130eb575b604001516130339060ff16613536565b928351613042575b5050505090565b916130cc939161307d9593159182156130e0575b5081156130d5575b50612a2c5761229461237b9161228e60405196879560208701906120ed565b7f7b2274726169745f74797065223a202248617420436f6c6f72222c202276616c81527f7565223a20220000000000000000000000000000000000000000000000000000602082015260260190565b5f80808061303b565b90505115155f61305e565b51151591505f613056565b936127b260406131216131706130339488158015613198575b61317a575b61237b612294612acd865195869460208601906120ed565b7f7b2274726169745f74797065223a2022486174205374796c65222c202276616c81527f7565223a20220000000000000000000000000000000000000000000000000000602082015260260190565b9692505050613023565b6131936123529161237b865193849260208401906120ed565b613109565b5087511515613104565b9261321f6131ca918415613225575b61237b61229461321960405195869460208601906120ed565b7f7b2274726169745f74797065223a20224163636573736f7279222c202276616c81527f7565223a20220000000000000000000000000000000000000000000000000000602082015260260190565b866120ed565b9261300a565b61323f6123529161237b60405193849260208401906120ed565b6131b1565b6040519061325182611105565b600682527f53686164657300000000000000000000000000000000000000000000000000006020830152565b6040519061328a82611105565b600c82527f54696e7920476c617373657300000000000000000000000000000000000000006020830152565b906004811015612ce35760051b0190565b906040516080810181811067ffffffffffffffff821117611121576040526132ed612add565b81526040516132fb81611105565b600d81527f526f756e6420476c61737365730000000000000000000000000000000000000060208201526020820152613332613244565b604082015261333f61327d565b606082015260ff831690600482101561335d57612d6f9293506132b6565b6040517fce2705fb00000000000000000000000000000000000000000000000000000000815260ff85166004820152602490fd5b906003811015612ce35760051b0190565b60ff604051916133b183611126565b6133b9612add565b83526040516133c781611105565b600681527f4265616e696500000000000000000000000000000000000000000000000000006020820152602084015260405161340281611105565b600681527f54757262616e000000000000000000000000000000000000000000000000000060208201526040840152169060038210156134465790612d6f91613391565b602482604051907fd8ecd9f70000000000000000000000000000000000000000000000000000000082526004820152fd5b7f4e487b71000000000000000000000000000000000000000000000000000000005f52602160045260245ffd5b600511156134ae57565b613477565b604051906134c082611105565b600582527f477265656e0000000000000000000000000000000000000000000000000000006020830152565b604051906134f982611105565b600382527f52656400000000000000000000000000000000000000000000000000000000006020830152565b906005811015612ce35760051b0190565b60ff16613542816134a4565b60405161354e81611142565b613556612e1d565b8152613560612e8f565b602082015261356d612de4565b604082015261357a6134b3565b60608201526135876134ec565b608082015260058210156135a85790612d6f916135a3826134a4565b613525565b602482604051907f5a8493520000000000000000000000000000000000000000000000000000000082526004820152fd5b91906135e9612787825160ff1690565b908151613697575b602001516136019060ff1661394b565b91825161360f575b50505090565b91613640939161368f93159081156130d55750612a2c5761229461237b9161228e60405196879560208701906120ed565b7f7b2274726169745f74797065223a2022536b696e20436f6c6f72222c2022766181527f6c7565223a202200000000000000000000000000000000000000000000000000602082015260270190565b5f8080613609565b9261276760206136c661371561360194871561371f575b61237b612294612acd604051958694888601906120ed565b7f7b2274726169745f74797065223a2022426f64792054797065222c202276616c81527f7565223a20220000000000000000000000000000000000000000000000000000602082015260260190565b95925050506135f1565b6137386123529161237b604051938492888401906120ed565b6136ae565b60ff16600181146137bb576002811461378157602490604051907f1f3c94a50000000000000000000000000000000000000000000000000000000082526004820152fd5b5060405161378e81611105565b600581527f4368657374000000000000000000000000000000000000000000000000000000602082015290565b506040516137c881611105565b600681527f4272656173740000000000000000000000000000000000000000000000000000602082015290565b6040519061380282611105565b600a82527f4c6967687420536b696e000000000000000000000000000000000000000000006020830152565b6040519061383b82611105565b600b82527f59656c6c6f7720536b696e0000000000000000000000000000000000000000006020830152565b6040519061387482611105565b600a82527f42726f776e20536b696e000000000000000000000000000000000000000000006020830152565b604051906138ad82611105565b600982527f4461726b20536b696e00000000000000000000000000000000000000000000006020830152565b604051906138e682611105565b600882527f52656420536b696e0000000000000000000000000000000000000000000000006020830152565b6040519061391f82611105565b600a82527f426c61636b20536b696e000000000000000000000000000000000000000000006020830152565b60ff811680156139e357600181146139d957600281146139cf57600381146139c557600481146139bb576005146139b2576040517fb211f5ef00000000000000000000000000000000000000000000000000000000815260ff919091166004820152602490fd5b506101ee613912565b50506101ee6138d9565b50506101ee6138a0565b50506101ee613867565b50506101ee61382e565b50506101ee6137f5565b91906139fd61274a825160ff1690565b908151613b51575b613a1661272b602083015160ff1690565b908151613ac4575b60400151613a2e9060ff16613fbd565b928351613a3c575050505090565b916130cc9391613a759593159182156130e0575081156130d55750612a2c5761229461237b9161228e60405196879560208701906120ed565b7f7b2274726169745f74797065223a2022436c6f7468657320477261706869632281527f2c202276616c7565223a202200000000000000000000000000000000000000006020820152602c0190565b936127086040613af8613b47613a2e94881580156131985761317a5761237b612294612acd865195869460208601906120ed565b7f7b2274726169745f74797065223a2022436c6f7468657320436f6c6f72222c2081527f2276616c7565223a2022000000000000000000000000000000000000000000006020820152602a0190565b9692505050613a1e565b92613bc7613b789184156132255761237b61229461321960405195869460208601906120ed565b7f7b2274726169745f74797065223a2022436c6f74686573222c202276616c756581527f223a202200000000000000000000000000000000000000000000000000000000602082015260240190565b92613a05565b600611156134ae57565b60405190613be482611105565b600582527f44726573730000000000000000000000000000000000000000000000000000006020830152565b60405190613c1d82611105565b600582527f53686972740000000000000000000000000000000000000000000000000000006020830152565b60405190613c5682611105565b600782527f542d5368697274000000000000000000000000000000000000000000000000006020830152565b60405190613c8f82611105565b600882527f54616e6b20546f700000000000000000000000000000000000000000000000006020830152565b60405190613cc882611105565b600682527f562d4e65636b00000000000000000000000000000000000000000000000000006020830152565b906006811015612ce35760051b0190565b60ff16613d1181613bcd565b604051613d1d8161115e565b604051613d2981611105565b600581527f4e616b656400000000000000000000000000000000000000000000000000000060208201528152613d5d613bd7565b6020820152613d6a613c10565b6040820152613d77613c49565b6060820152613d84613c82565b6080820152613d91613cbb565b60a08201526006821015613db25790612d6f91613dad82613bcd565b613cf4565b612da782613dbf81613bcd565b6040517f93f5dc4a00000000000000000000000000000000000000000000000000000000815260ff90911660048201529081906024820190565b60ff16613e05816134a4565b604051613e1181611142565b613e19612e1d565b8152613e23612e8f565b6020820152613e30612de4565b6040820152613e3d6134b3565b6060820152613e4a6134ec565b60808201526005821015613e665790612d6f916135a3826134a4565b602482613e72816134a4565b604051907f581a42cc0000000000000000000000000000000000000000000000000000000082526004820152fd5b60405190613ead82611105565b600682527f47617473627900000000000000000000000000000000000000000000000000006020830152565b60405190613ee682611105565b600782527f4772617068716c000000000000000000000000000000000000000000000000006020830152565b60405190613f1f82611105565b600582527f52656163740000000000000000000000000000000000000000000000000000006020830152565b60405190613f5882611105565b600782527f526564776f6f64000000000000000000000000000000000000000000000000006020830152565b60405190613f9182611105565b600382527f56756500000000000000000000000000000000000000000000000000000000006020830152565b9060ff8216613fcb81613bcd565b613fd481613bcd565b801561407557613fe2611214565b613fea612add565b8152613ff4613ea0565b6020820152614001613ed9565b604082015261400e613f12565b606082015261401b613f4b565b6080820152614028613f84565b60a0820152600682101561404157612d6f929350613cf4565b6040517fa8d1dcb600000000000000000000000000000000000000000000000000000000815260ff85166004820152602490fd5b5090506101ee611d61565b90916140906126e9845160ff1690565b908151614485575b6020916140ab6126ca8487015160ff1690565b9485516143d4575b6040956140c66126a98884015160ff1690565b90815161431a575b60608301926140e1612688855160ff1690565b93898551614226575b5060ff6140fa6001925160ff1690565b161461410d575b50505050505050905090565b6080015161411d9060ff16614c14565b94855115614101571593841561421b575b508315614210575b508215614205575b5081156141fa575b506141c6575b61229461237b9161228e61416a6141b99697519788968701906120ed565b7f7b2274726169745f74797065223a20224c697020436f6c6f72222c202276616c81527f7565223a20220000000000000000000000000000000000000000000000000000602082015260260190565b805f808080808080614101565b61229461237b9161228e61416a6123526141ee6141b99861237b8b519384928b8401906120ed565b9650505091505061414c565b90505115155f614146565b51151591505f61413e565b51151592505f614136565b51151593505f61412e565b6140fa60ff916001939b8b8b158015614310575b8015614306575b80156142fc575b6142ca575b61237b6122946142b961426a6142bf9596519687958601906120ed565b7f7b2274726169745f74797065223a20224d6f757468205374796c65222c20227681527f616c7565223a2022000000000000000000000000000000000000000000000000602082015260280190565b8c6120ed565b9a92505050896140ea565b61237b6122946142b961426a6123526142f16142bf9761237b8a519384928a8401906120ed565b95505050505061424d565b5088511515614248565b5087511515614241565b508a51151561423a565b9561439d61434e91861580156143ca575b80156143c0575b6143a3575b61237b6122946132198c519586948c8601906120ed565b7f7b2274726169745f74797065223a202246616369616c2048616972205479706581527f222c202276616c7565223a2022000000000000000000000000000000000000006020820152602d0190565b956140ce565b6143bb6123529161237b8c519384928c8401906120ed565b614337565b5088511515614332565b508551151561432b565b93614457614402918415801561447b575b61445d575b61237b6122946144516040519586948a8601906120ed565b7f7b2274726169745f74797065223a2022457965205368617065222c202276616c81527f7565223a20220000000000000000000000000000000000000000000000000000602082015260260190565b8a6120ed565b936140b3565b6144766123529161237b6040519384928a8401906120ed565b6143ea565b50835115156143e5565b916144fb6144ac9184156132255761237b61229461321960405195869460208601906120ed565b7f7b2274726169745f74797065223a202245796562726f77205368617065222c2081527f2276616c7565223a2022000000000000000000000000000000000000000000006020820152602a0190565b91614098565b6040519061450e82611105565b600c82527f4c656674204c6f776572656400000000000000000000000000000000000000006020830152565b6040519061454782611105565b600682527f4e6f726d616c00000000000000000000000000000000000000000000000000006020830152565b6040519061458082611105565b600782527f536572696f7573000000000000000000000000000000000000000000000000006020830152565b906040516145b981611142565b6040516145c581611105565b600581527f416e677279000000000000000000000000000000000000000000000000000000602082015281526040516145fd81611105565b600981527f436f6e6365726e6564000000000000000000000000000000000000000000000060208201526020820152614634614501565b604082015261464161453a565b606082015261464e614573565b608082015260ff831690600582101561466c57612d6f929350613525565b6040517f21706bf100000000000000000000000000000000000000000000000000000000815260ff85166004820152602490fd5b604051906146ad82611105565b600782527f436f6e74656e74000000000000000000000000000000000000000000000000006020830152565b604051906146e682611105565b600582527f44697a7a790000000000000000000000000000000000000000000000000000006020830152565b6040519061471f82611105565b600582527f48617070790000000000000000000000000000000000000000000000000000006020830152565b6040519061475882611105565b600582527f48656172740000000000000000000000000000000000000000000000000000006020830152565b6040519061479182611105565b600b82527f4c656674205477697463680000000000000000000000000000000000000000006020830152565b604051906147ca82611105565b600682527f53696d706c6500000000000000000000000000000000000000000000000000006020830152565b6040519061480382611105565b600682527f537175696e7400000000000000000000000000000000000000000000000000006020830152565b6040519061483c82611105565b600482527f57696e6b000000000000000000000000000000000000000000000000000000006020830152565b906009811015612ce35760051b0190565b90614882611221565b61488a6146a0565b81526148946146d9565b60208201526148a1614712565b60408201526148ae61474b565b60608201526148bb614784565b60808201526148c861453a565b60a08201526148d56147bd565b60c08201526148e26147f6565b60e08201526148ef61482f565b61010082015260ff831690600982101561490e57612d6f929350614868565b6040517fcc386b4c00000000000000000000000000000000000000000000000000000000815260ff85166004820152602490fd5b60ff6040519161495183611126565b614959612add565b835260405161496781611105565b600c81527f4d656469756d2042656172640000000000000000000000000000000000000000602082015260208401526040516149a281611105565b600781527f53747562626c650000000000000000000000000000000000000000000000000060208201526040840152169060038210156149e65790612d6f91613391565b602482604051907fd4668a280000000000000000000000000000000000000000000000000000000082526004820152fd5b60405190614a2482611105565b600482527f4c697073000000000000000000000000000000000000000000000000000000006020830152565b60405190614a5d82611105565b600482527f4f70656e000000000000000000000000000000000000000000000000000000006020830152565b60405190614a9682611105565b600a82527f4f70656e20536d696c65000000000000000000000000000000000000000000006020830152565b60405190614acf82611105565b600382527f53616400000000000000000000000000000000000000000000000000000000006020830152565b60405190614b0882611105565b600682527f546f6e67756500000000000000000000000000000000000000000000000000006020830152565b90604051614b4181611196565b604051614b4d81611105565b600481527f4772696e0000000000000000000000000000000000000000000000000000000060208201528152614b81614a17565b6020820152614b8e614a50565b6040820152614b9b614a89565b6060820152614ba8614ac2565b6080820152614bb5614573565b60a0820152614bc2614afb565b60c082015260ff8316906007821015614be057612d6f929350612f01565b6040517f85379a4800000000000000000000000000000000000000000000000000000000815260ff85166004820152602490fd5b90604051614c2181611142565b614c296134ec565b8152604051614c3781611105565b600681527f507572706c65000000000000000000000000000000000000000000000000000060208201526020820152614c6e612ec8565b6040820152604051614c7f81611105565b600981527f54757271756f697365000000000000000000000000000000000000000000000060208201526060820152614cb66134b3565b608082015260ff8316906005821015614cd457612d6f929350613525565b6040517f65690ed900000000000000000000000000000000000000000000000000000000815260ff85166004820152602490fd5b60ff16614d14816134a4565b604051614d2081611142565b614d28612e1d565b8152614d32612e8f565b6020820152614d3f612de4565b6040820152614d4c6134b3565b6060820152614d596134ec565b60808201526005821015614d715790612d6f91613525565b602482614d7d816134a4565b604051907fb114d50d0000000000000000000000000000000000000000000000000000000082526004820152fd5b90614db582611242565b614dc260405191826111b2565b8281527fffffffffffffffffffffffffffffffffffffffffffffffffffffffffffffffe0614df08294611242565b0190602036910137565b805f917a184f03e93ff9f4daa797ed6e38ed64bf6a1f01000000000000000080821015614f59575b506d04ee2d6d415b85acef810000000080831015614f4a575b50662386f26fc1000080831015614f3b575b506305f5e10080831015614f2c575b5061271080831015614f1d575b506064821015614f0d575b600a80921015614f03575b600190816021614e9160018701614dab565b95860101905b614ea2575050505090565b7fffffffffffffffffffffffffffffffffffffffffffffffffffffffffffffffff849101917f30313233343536373839616263646566000000000000000000000000000000008282061a835304918215614efe57919082614e97565b61303b565b9160010191614e7f565b9190606460029104910191614e74565b6004919392049101915f614e69565b6008919392049101915f614e5c565b6010919392049101915f614e4d565b6020919392049101915f614e3b565b60409350810491505f614e22565b60405190614f7482611126565b604082527f6768696a6b6c6d6e6f707172737475767778797a303132333435363738392b2f6040837f4142434445464748494a4b4c4d4e4f505152535455565758595a61626364656660208201520152565b908160021b917f3fffffffffffffffffffffffffffffffffffffffffffffffffffffffffffffff811603611e8b57565b9060028201809211611e8b57565b908151156151345761503061502b61502661501f8551614ff6565b6003900490565b614fc6565b614dab565b916020830191818251830160208101918251935f84525b8282106150e257505050525160039006600181146150935760021461506a575090565b7fffffffffffffffffffffffffffffffffffffffffffffffffffffffffffffffff603d91015390565b507ffffffffffffffffffffffffffffffffffffffffffffffffffffffffffffffffe81603d7fffffffffffffffffffffffffffffffffffffffffffffffffffffffffffffffff81940153015390565b9091956004906003809401938451600190603f9082828260121c16880101518553828282600c1c16880101518386015382828260061c1688010151600286015316850101519082015301959190615047565b50506101ee611d6156fea264697066735822122024c4b43d58da360e65ba6e5893e3fb686fd66d02b3dc492e225323930716e7db64736f6c63430008180033",
    "linkReferences": {}
  },
  "methodIdentifiers": {
    "approve(address,uint256)": "095ea7b3",
    "balanceOf(address)": "70a08231",
    "exists(uint256)": "4f558e79",
    "getApproved(uint256)": "081812fc",
    "getAttributes(uint256)": "4378a6e3",
    "getAttributesByOwner(address,uint256)": "1efa613c",
    "getAttributesByTokenId(uint256)": "7e4d03d8",
    "getOriginChainId(uint256)": "5b16d968",
    "getOwnedTokenIds(address)": "4fac7e41",
    "getOwnerTokensCount(address)": "71563f14",
    "isApprovedForAll(address,address)": "e985e9c5",
    "isBridgeAuthorized(uint64,address)": "84d1e1ff",
    "isTokenLocked(uint256)": "276a28a3",
    "name()": "06fdde03",
    "ownerOf(uint256)": "6352211e",
    "safeTransferFrom(address,address,uint256)": "42842e0e",
    "safeTransferFrom(address,address,uint256,bytes)": "b88d4fde",
    "setApprovalForAll(address,bool)": "a22cb465",
    "symbol()": "95d89b41",
    "tokenURI(uint256)": "c87b56dd",
    "totalSupply()": "18160ddd",
    "transferFrom(address,address,uint256)": "23b872dd"
  },
  "id": 93
}