{
  "abi": [
    {
      "type": "constructor",
      "inputs": [
        {
          "name": "_owner",
          "type": "address",
          "internalType": "address"
        },
        {
          "name": "_beanHeads",
          "type": "address",
          "internalType": "address"
        },
        {
          "name": "_gasLimit",
          "type": "uint32",
          "internalType": "uint32"
        },
        {
          "name": "_requestConfirmations",
          "type": "uint16",
          "internalType": "uint16"
        },
        {
          "name": "_breedCoolDown",
          "type": "uint256",
          "internalType": "uint256"
        },
        {
          "name": "_maxBreedRequests",
          "type": "uint256",
          "internalType": "uint256"
        },
        {
          "name": "_vrfCoordinator",
          "type": "address",
          "internalType": "address"
        },
        {
          "name": "_subscriptionId",
          "type": "uint256",
          "internalType": "uint256"
        },
        {
          "name": "_keyHash",
          "type": "bytes32",
          "internalType": "bytes32"
        }
      ],
      "stateMutability": "nonpayable"
    },
    {
      "type": "fallback",
      "stateMutability": "payable"
    },
    {
      "type": "receive",
      "stateMutability": "payable"
    },
    {
      "type": "function",
      "name": "acceptOwnership",
      "inputs": [],
      "outputs": [],
      "stateMutability": "nonpayable"
    },
    {
      "type": "function",
      "name": "claimRefund",
      "inputs": [
        {
          "name": "token",
          "type": "address",
          "internalType": "address"
        }
      ],
      "outputs": [],
      "stateMutability": "nonpayable"
    },
    {
      "type": "function",
      "name": "depositBeanHeads",
      "inputs": [
        {
          "name": "tokenId",
          "type": "uint256",
          "internalType": "uint256"
        }
      ],
      "outputs": [],
      "stateMutability": "nonpayable"
    },
    {
      "type": "function",
      "name": "getBreedRequest",
      "inputs": [
        {
          "name": "requestId",
          "type": "uint256",
          "internalType": "uint256"
        }
      ],
      "outputs": [
        {
          "name": "request",
          "type": "tuple",
          "internalType": "struct IBeanHeadsBreeder.BreedRequest",
          "components": [
            {
              "name": "owner",
              "type": "address",
              "internalType": "address"
            },
            {
              "name": "parent1Id",
              "type": "uint256",
              "internalType": "uint256"
            },
            {
              "name": "parent2Id",
              "type": "uint256",
              "internalType": "uint256"
            },
            {
              "name": "mode",
              "type": "uint8",
              "internalType": "enum IBeanHeadsBreeder.BreedingMode"
            },
            {
              "name": "paymentToken",
              "type": "address",
              "internalType": "address"
            },
            {
              "name": "paymentAmount",
              "type": "uint256",
              "internalType": "uint256"
            },
            {
              "name": "requestedAtBlock",
              "type": "uint48",
              "internalType": "uint48"
            },
            {
              "name": "status",
              "type": "uint8",
              "internalType": "enum IBeanHeadsBreeder.RequestStatus"
            }
          ]
        }
      ],
      "stateMutability": "view"
    },
    {
      "type": "function",
      "name": "getEscrowedTokenOwner",
      "inputs": [
        {
          "name": "tokenId",
          "type": "uint256",
          "internalType": "uint256"
        }
      ],
      "outputs": [
        {
          "name": "owner",
          "type": "address",
          "internalType": "address"
        }
      ],
      "stateMutability": "view"
    },
    {
      "type": "function",
      "name": "getParentBreedingCount",
      "inputs": [
        {
          "name": "tokenId",
          "type": "uint256",
          "internalType": "uint256"
        }
      ],
      "outputs": [
        {
          "name": "count",
          "type": "uint256",
          "internalType": "uint256"
        }
      ],
      "stateMutability": "view"
    },
    {
      "type": "function",
      "name": "getRarityPoints",
      "inputs": [
        {
          "name": "tokenId",
          "type": "uint256",
          "internalType": "uint256"
        }
      ],
      "outputs": [
        {
          "name": "",
          "type": "uint256",
          "internalType": "uint256"
        }
      ],
      "stateMutability": "view"
    },
    {
      "type": "function",
      "name": "onERC721Received",
      "inputs": [
        {
          "name": "",
          "type": "address",
          "internalType": "address"
        },
        {
          "name": "",
          "type": "address",
          "internalType": "address"
        },
        {
          "name": "",
          "type": "uint256",
          "internalType": "uint256"
        },
        {
          "name": "",
          "type": "bytes",
          "internalType": "bytes"
        }
      ],
      "outputs": [
        {
          "name": "",
          "type": "bytes4",
          "internalType": "bytes4"
        }
      ],
      "stateMutability": "pure"
    },
    {
      "type": "function",
      "name": "owner",
      "inputs": [],
      "outputs": [
        {
          "name": "",
          "type": "address",
          "internalType": "address"
        }
      ],
      "stateMutability": "view"
    },
    {
      "type": "function",
      "name": "rawFulfillRandomWords",
      "inputs": [
        {
          "name": "requestId",
          "type": "uint256",
          "internalType": "uint256"
        },
        {
          "name": "randomWords",
          "type": "uint256[]",
          "internalType": "uint256[]"
        }
      ],
      "outputs": [],
      "stateMutability": "nonpayable"
    },
    {
      "type": "function",
      "name": "requestBreed",
      "inputs": [
        {
          "name": "parent1Id",
          "type": "uint256",
          "internalType": "uint256"
        },
        {
          "name": "parent2Id",
          "type": "uint256",
          "internalType": "uint256"
        },
        {
          "name": "mode",
          "type": "uint8",
          "internalType": "enum IBeanHeadsBreeder.BreedingMode"
        },
        {
          "name": "paymentToken",
          "type": "address",
          "internalType": "address"
        }
      ],
      "outputs": [
        {
          "name": "requestId",
          "type": "uint256",
          "internalType": "uint256"
        }
      ],
      "stateMutability": "nonpayable"
    },
    {
      "type": "function",
      "name": "s_breedRequests",
      "inputs": [
        {
          "name": "requestId",
          "type": "uint256",
          "internalType": "uint256"
        }
      ],
      "outputs": [
        {
          "name": "owner",
          "type": "address",
          "internalType": "address"
        },
        {
          "name": "parent1Id",
          "type": "uint256",
          "internalType": "uint256"
        },
        {
          "name": "parent2Id",
          "type": "uint256",
          "internalType": "uint256"
        },
        {
          "name": "mode",
          "type": "uint8",
          "internalType": "enum IBeanHeadsBreeder.BreedingMode"
        },
        {
          "name": "paymentToken",
          "type": "address",
          "internalType": "address"
        },
        {
          "name": "paymentAmount",
          "type": "uint256",
          "internalType": "uint256"
        },
        {
          "name": "requestedAtBlock",
          "type": "uint48",
          "internalType": "uint48"
        },
        {
          "name": "status",
          "type": "uint8",
          "internalType": "enum IBeanHeadsBreeder.RequestStatus"
        }
      ],
      "stateMutability": "view"
    },
    {
      "type": "function",
      "name": "s_escrowedTokens",
      "inputs": [
        {
          "name": "tokenId",
          "type": "uint256",
          "internalType": "uint256"
        }
      ],
      "outputs": [
        {
          "name": "owner",
          "type": "address",
          "internalType": "address"
        }
      ],
      "stateMutability": "view"
    },
    {
      "type": "function",
      "name": "s_lastBreedingBlock",
      "inputs": [
        {
          "name": "owner",
          "type": "address",
          "internalType": "address"
        }
      ],
      "outputs": [
        {
          "name": "lastBreedingBlock",
          "type": "uint256",
          "internalType": "uint256"
        }
      ],
      "stateMutability": "view"
    },
    {
      "type": "function",
      "name": "s_mutatedRarityPoints",
      "inputs": [
        {
          "name": "tokenId",
          "type": "uint256",
          "internalType": "uint256"
        }
      ],
      "outputs": [
        {
          "name": "rarityPoints",
          "type": "uint256",
          "internalType": "uint256"
        }
      ],
      "stateMutability": "view"
    },
    {
      "type": "function",
      "name": "s_parentBreedingCount",
      "inputs": [
        {
          "name": "tokenId",
          "type": "uint256",
          "internalType": "uint256"
        }
      ],
      "outputs": [
        {
          "name": "count",
          "type": "uint256",
          "internalType": "uint256"
        }
      ],
      "stateMutability": "view"
    },
    {
      "type": "function",
      "name": "s_refundable",
      "inputs": [
        {
          "name": "user",
          "type": "address",
          "internalType": "address"
        },
        {
          "name": "token",
          "type": "address",
          "internalType": "address"
        }
      ],
      "outputs": [
        {
          "name": "amount",
          "type": "uint256",
          "internalType": "uint256"
        }
      ],
      "stateMutability": "view"
    },
    {
      "type": "function",
      "name": "s_totalRefundable",
      "inputs": [
        {
          "name": "token",
          "type": "address",
          "internalType": "address"
        }
      ],
      "outputs": [
        {
          "name": "amount",
          "type": "uint256",
          "internalType": "uint256"
        }
      ],
      "stateMutability": "view"
    },
    {
      "type": "function",
      "name": "s_vrfCoordinator",
      "inputs": [],
      "outputs": [
        {
          "name": "",
          "type": "address",
          "internalType": "contract IVRFCoordinatorV2Plus"
        }
      ],
      "stateMutability": "view"
    },
    {
      "type": "function",
      "name": "setCoolDown",
      "inputs": [
        {
          "name": "coolDown",
          "type": "uint256",
          "internalType": "uint256"
        }
      ],
      "outputs": [],
      "stateMutability": "nonpayable"
    },
    {
      "type": "function",
      "name": "setCoordinator",
      "inputs": [
        {
          "name": "_vrfCoordinator",
          "type": "address",
          "internalType": "address"
        }
      ],
      "outputs": [],
      "stateMutability": "nonpayable"
    },
    {
      "type": "function",
      "name": "settleRequestExternal",
      "inputs": [
        {
          "name": "requestId",
          "type": "uint256",
          "internalType": "uint256"
        },
        {
          "name": "randomWord",
          "type": "uint256",
          "internalType": "uint256"
        }
      ],
      "outputs": [
        {
          "name": "",
          "type": "bool",
          "internalType": "bool"
        }
      ],
      "stateMutability": "nonpayable"
    },
    {
      "type": "function",
      "name": "timeoutRefund",
      "inputs": [
        {
          "name": "requestId",
          "type": "uint256",
          "internalType": "uint256"
        }
      ],
      "outputs": [],
      "stateMutability": "nonpayable"
    },
    {
      "type": "function",
      "name": "transferOwnership",
      "inputs": [
        {
          "name": "to",
          "type": "address",
          "internalType": "address"
        }
      ],
      "outputs": [],
      "stateMutability": "nonpayable"
    },
    {
      "type": "function",
      "name": "withdrawBeanHeads",
      "inputs": [
        {
          "name": "tokenId",
          "type": "uint256",
          "internalType": "uint256"
        }
      ],
      "outputs": [],
      "stateMutability": "nonpayable"
    },
    {
      "type": "function",
      "name": "withdrawFunds",
      "inputs": [
        {
          "name": "token",
          "type": "address",
          "internalType": "address"
        }
      ],
      "outputs": [],
      "stateMutability": "nonpayable"
    },
    {
      "type": "event",
      "name": "AscensionCompleted",
      "inputs": [
        {
          "name": "owner",
          "type": "address",
          "indexed": true,
          "internalType": "address"
        },
        {
          "name": "requestId",
          "type": "uint256",
          "indexed": true,
          "internalType": "uint256"
        },
        {
          "name": "burnedTokenId",
          "type": "uint256",
          "indexed": false,
          "internalType": "uint256"
        },
        {
          "name": "newTokenId",
          "type": "uint256",
          "indexed": false,
          "internalType": "uint256"
        },
        {
          "name": "childGeneration",
          "type": "uint256",
          "indexed": false,
          "internalType": "uint256"
        },
        {
          "name": "rarityPoints",
          "type": "uint256",
          "indexed": false,
          "internalType": "uint256"
        }
      ],
      "anonymous": false
    },
    {
      "type": "event",
      "name": "BeanHeadsDeposited",
      "inputs": [
        {
          "name": "owner",
          "type": "address",
          "indexed": true,
          "internalType": "address"
        },
        {
          "name": "parent1Id",
          "type": "uint256",
          "indexed": false,
          "internalType": "uint256"
        }
      ],
      "anonymous": false
    },
    {
      "type": "event",
      "name": "BeanHeadsWithdrawn",
      "inputs": [
        {
          "name": "owner",
          "type": "address",
          "indexed": true,
          "internalType": "address"
        },
        {
          "name": "tokenId",
          "type": "uint256",
          "indexed": false,
          "internalType": "uint256"
        }
      ],
      "anonymous": false
    },
    {
      "type": "event",
      "name": "BreedRequestFulfilled",
      "inputs": [
        {
          "name": "owner",
          "type": "address",
          "indexed": true,
          "internalType": "address"
        },
        {
          "name": "requestId",
          "type": "uint256",
          "indexed": false,
          "internalType": "uint256"
        },
        {
          "name": "mode",
          "type": "uint8",
          "indexed": false,
          "internalType": "enum IBeanHeadsBreeder.BreedingMode"
        },
        {
          "name": "newTokenId",
          "type": "uint256",
          "indexed": false,
          "internalType": "uint256"
        }
      ],
      "anonymous": false
    },
    {
      "type": "event",
      "name": "BreedRequestRefunded",
      "inputs": [
        {
          "name": "owner",
          "type": "address",
          "indexed": true,
          "internalType": "address"
        },
        {
          "name": "paymentToken",
          "type": "address",
          "indexed": true,
          "internalType": "address"
        },
        {
          "name": "paymentAmount",
          "type": "uint256",
          "indexed": false,
          "internalType": "uint256"
        }
      ],
      "anonymous": false
    },
    {
      "type": "event",
      "name": "CoordinatorSet",
      "inputs": [
        {
          "name": "vrfCoordinator",
          "type": "address",
          "indexed": false,
          "internalType": "address"
        }
      ],
      "anonymous": false
    },
    {
      "type": "event",
      "name": "FundsWithdrawn",
      "inputs": [
        {
          "name": "token",
          "type": "address",
          "indexed": true,
          "internalType": "address"
        },
        {
          "name": "amount",
          "type": "uint256",
          "indexed": false,
          "internalType": "uint256"
        }
      ],
      "anonymous": false
    },
    {
      "type": "event",
      "name": "FusionCompleted",
      "inputs": [
        {
          "name": "owner",
          "type": "address",
          "indexed": true,
          "internalType": "address"
        },
        {
          "name": "requestId",
          "type": "uint256",
          "indexed": true,
          "internalType": "uint256"
        },
        {
          "name": "burnedParent1Id",
          "type": "uint256",
          "indexed": false,
          "internalType": "uint256"
        },
        {
          "name": "burnedParent2Id",
          "type": "uint256",
          "indexed": false,
          "internalType": "uint256"
        },
        {
          "name": "newTokenId",
          "type": "uint256",
          "indexed": false,
          "internalType": "uint256"
        },
        {
          "name": "childGeneration",
          "type": "uint256",
          "indexed": false,
          "internalType": "uint256"
        },
        {
          "name": "rarityPoints",
          "type": "uint256",
          "indexed": false,
          "internalType": "uint256"
        }
      ],
      "anonymous": false
    },
    {
      "type": "event",
      "name": "MutationCompleted",
      "inputs": [
        {
          "name": "owner",
          "type": "address",
          "indexed": true,
          "internalType": "address"
        },
        {
          "name": "requestId",
          "type": "uint256",
          "indexed": true,
          "internalType": "uint256"
        },
        {
          "name": "burnedTokenId",
          "type": "uint256",
          "indexed": false,
          "internalType": "uint256"
        },
        {
          "name": "survivingTokenId",
          "type": "uint256",
          "indexed": false,
          "internalType": "uint256"
        },
        {
          "name": "newTokenId",
          "type": "uint256",
          "indexed": false,
          "internalType": "uint256"
        },
        {
          "name": "childGeneration",
          "type": "uint256",
          "indexed": false,
          "internalType": "uint256"
        },
        {
          "name": "rarityPoints",
          "type": "uint256",
          "indexed": false,
          "internalType": "uint256"
        }
      ],
      "anonymous": false
    },
    {
      "type": "event",
      "name": "NewBreedCompleted",
      "inputs": [
        {
          "name": "owner",
          "type": "address",
          "indexed": true,
          "internalType": "address"
        },
        {
          "name": "requestId",
          "type": "uint256",
          "indexed": true,
          "internalType": "uint256"
        },
        {
          "name": "parent1Id",
          "type": "uint256",
          "indexed": false,
          "internalType": "uint256"
        },
        {
          "name": "parent2Id",
          "type": "uint256",
          "indexed": false,
          "internalType": "uint256"
        },
        {
          "name": "newTokenId",
          "type": "uint256",
          "indexed": false,
          "internalType": "uint256"
        },
        {
          "name": "childGeneration",
          "type": "uint256",
          "indexed": false,
          "internalType": "uint256"
        },
        {
          "name": "rarityPoints",
          "type": "uint256",
          "indexed": false,
          "internalType": "uint256"
        }
      ],
      "anonymous": false
    },
    {
      "type": "event",
      "name": "OwnershipTransferRequested",
      "inputs": [
        {
          "name": "from",
          "type": "address",
          "indexed": true,
          "internalType": "address"
        },
        {
          "name": "to",
          "type": "address",
          "indexed": true,
          "internalType": "address"
        }
      ],
      "anonymous": false
    },
    {
      "type": "event",
      "name": "OwnershipTransferred",
      "inputs": [
        {
          "name": "from",
          "type": "address",
          "indexed": true,
          "internalType": "address"
        },
        {
          "name": "to",
          "type": "address",
          "indexed": true,
          "internalType": "address"
        }
      ],
      "anonymous": false
    },
    {
      "type": "event",
      "name": "RequestBreed",
      "inputs": [
        {
          "name": "owner",
          "type": "address",
          "indexed": true,
          "internalType": "address"
        },
        {
          "name": "parent1Id",
          "type": "uint256",
          "indexed": false,
          "internalType": "uint256"
        },
        {
          "name": "parent2Id",
          "type": "uint256",
          "indexed": false,
          "internalType": "uint256"
        },
        {
          "name": "requestId",
          "type": "uint256",
          "indexed": false,
          "internalType": "uint256"
        },
        {
          "name": "mode",
          "type": "uint8",
          "indexed": false,
          "internalType": "enum IBeanHeadsBreeder.BreedingMode"
        }
      ],
      "anonymous": false
    },
    {
      "type": "event",
      "name": "RequestExpired",
      "inputs": [
        {
          "name": "requestId",
          "type": "uint256",
          "indexed": true,
          "internalType": "uint256"
        },
        {
          "name": "user",
          "type": "address",
          "indexed": true,
          "internalType": "address"
        },
        {
          "name": "token",
          "type": "address",
          "indexed": false,
          "internalType": "address"
        },
        {
          "name": "amount",
          "type": "uint256",
          "indexed": false,
          "internalType": "uint256"
        }
      ],
      "anonymous": false
    },
    {
      "type": "event",
      "name": "RequestFailed",
      "inputs": [
        {
          "name": "requestId",
          "type": "uint256",
          "indexed": true,
          "internalType": "uint256"
        },
        {
          "name": "user",
          "type": "address",
          "indexed": true,
          "internalType": "address"
        },
        {
          "name": "token",
          "type": "address",
          "indexed": false,
          "internalType": "address"
        },
        {
          "name": "amount",
          "type": "uint256",
          "indexed": false,
          "internalType": "uint256"
        }
      ],
      "anonymous": false
    },
    {
      "type": "event",
      "name": "RequestRefunded",
      "inputs": [
        {
          "name": "user",
          "type": "address",
          "indexed": true,
          "internalType": "address"
        },
        {
          "name": "token",
          "type": "address",
          "indexed": true,
          "internalType": "address"
        },
        {
          "name": "amount",
          "type": "uint256",
          "indexed": false,
          "internalType": "uint256"
        }
      ],
      "anonymous": false
    },
    {
      "type": "error",
      "name": "IBeanHeadsBreeder__BadStatus",
      "inputs": []
    },
    {
      "type": "error",
      "name": "IBeanHeadsBreeder__BreedLimitReached",
      "inputs": []
    },
    {
      "type": "error",
      "name": "IBeanHeadsBreeder__CannotBreedSameBeanHead",
      "inputs": []
    },
    {
      "type": "error",
      "name": "IBeanHeadsBreeder__CoolDownNotPassed",
      "inputs": []
    },
    {
      "type": "error",
      "name": "IBeanHeadsBreeder__InsufficientAllowance",
      "inputs": []
    },
    {
      "type": "error",
      "name": "IBeanHeadsBreeder__InsufficientBalance",
      "inputs": []
    },
    {
      "type": "error",
      "name": "IBeanHeadsBreeder__InsufficientPayment",
      "inputs": []
    },
    {
      "type": "error",
      "name": "IBeanHeadsBreeder__InvalidOraclePrice",
      "inputs": []
    },
    {
      "type": "error",
      "name": "IBeanHeadsBreeder__InvalidRequestId",
      "inputs": []
    },
    {
      "type": "error",
      "name": "IBeanHeadsBreeder__InvalidToken",
      "inputs": []
    },
    {
      "type": "error",
      "name": "IBeanHeadsBreeder__InvalidTokenId",
      "inputs": []
    },
    {
      "type": "error",
      "name": "IBeanHeadsBreeder__NoRefundableAmount",
      "inputs": []
    },
    {
      "type": "error",
      "name": "IBeanHeadsBreeder__NotOwner",
      "inputs": []
    },
    {
      "type": "error",
      "name": "IBeanHeadsBreeder__NotRequestor",
      "inputs": []
    },
    {
      "type": "error",
      "name": "IBeanHeadsBreeder__NotVRFCoordinator",
      "inputs": []
    },
    {
      "type": "error",
      "name": "IBeanHeadsBreeder__RequestAlreadyFulfilled",
      "inputs": []
    },
    {
      "type": "error",
      "name": "IBeanHeadsBreeder__StalePrice",
      "inputs": []
    },
    {
      "type": "error",
      "name": "IBeanHeadsBreeder__StaleRound",
      "inputs": []
    },
    {
      "type": "error",
      "name": "IBeanHeadsBreeder__StatusNotPending",
      "inputs": []
    },
    {
      "type": "error",
      "name": "IBeanHeadsBreeder__TokensNotEscrowedBySender",
      "inputs": []
    },
    {
      "type": "error",
      "name": "IBeanHeadsBreeder__TransferFailed",
      "inputs": []
    },
    {
      "type": "error",
      "name": "OnlyCoordinatorCanFulfill",
      "inputs": [
        {
          "name": "have",
          "type": "address",
          "internalType": "address"
        },
        {
          "name": "want",
          "type": "address",
          "internalType": "address"
        }
      ]
    },
    {
      "type": "error",
      "name": "OnlyOwnerOrCoordinator",
      "inputs": [
        {
          "name": "have",
          "type": "address",
          "internalType": "address"
        },
        {
          "name": "owner",
          "type": "address",
          "internalType": "address"
        },
        {
          "name": "coordinator",
          "type": "address",
          "internalType": "address"
        }
      ]
    },
    {
      "type": "error",
      "name": "ZeroAddress",
      "inputs": []
    }
  ],
  "bytecode": {
    "object": "0x610140346200030b5762005482601f38829003908101601f19168301906001600160401b038211848310176200030f5780849360409384528439610120928391810103126200030b57620000538362000323565b620000616020850162000323565b828501519163ffffffff831683036200030b5760608601519261ffff841684036200030b5760808701519060a088015190620000a060c08a0162000323565b9460e08a015192610100809b0151943315620002c7575f80546001600160a01b03199081163317909155986001600160a01b03988916948515620002b657898b60025416951660805260e0528c5260035589521760025560a05260c0521690338214801562000235575b505050519061514992836200033984396080518381816105c6015281816106c40152818161090301528181610d23015281816110eb01528181612453015281816124d20152818161258a015281816126760152818161270e015281816127720152818161280601528181612b1d01528181612bcc01528181612c4c01528181612ccb01528181612da401528181612e3c01528181612ebd01528181612f2c0152818161319b0152818161321a015281816132d2015281816133a5015281816134140152818161345f015281816134ce015281816136d10152818161377e0152818161384a015281816138b9015281816147c901526148c4015260a051836115d9015260c051836115b3015260e051836116390152518261160a0152518181816111850152611e1f0152f35b620002725781906001541617600155337fed8889f560326eb138920d842192f0eb3dd22b4f139c87a2c57538e05bae12785f80a35f80806200010a565b825162461bcd60e51b815260206004820152601760248201527f43616e6e6f74207472616e7366657220746f2073656c660000000000000000006044820152606490fd5b8b5163d92e233d60e01b8152600490fd5b895162461bcd60e51b815260206004820152601860248201527f43616e6e6f7420736574206f776e657220746f207a65726f00000000000000006044820152606490fd5b5f80fd5b634e487b7160e01b5f52604160045260245ffd5b51906001600160a01b03821682036200030b5756fe608080604052600436101561001a575b50361561001857005b005b5f905f915f3560e01c918263150b7a0214613f56575081631fe543e314613e6b5781632bc6b14514613e085781632e098b2014613da55781632e24be5d14613d475781634565dc3e14613ce257816347c6b15a1461222057816358b515c814610ea557816368742da6146120fb57816379ba509714611ff45781637c172ef314610e0b5781637c56687a14611fb357816382b1208214611ead5781638702cc76146110775781638da5cb5b146110265781638ea9811714610eed57816394e9992914610ea55781639eccacf614610e53578163a76c280314610e0b578163bb87eaa314610c90578163bffa55d514610b92578163c420cfd014610b1a578163c490078c146108b6578163dcdfd05e1461031f57508063dd7a37a6146102575763f2fde38b0361000f57346102545760207ffffffffffffffffffffffffffffffffffffffffffffffffffffffffffffffffc3601126102545761017a613ff4565b61018261445a565b73ffffffffffffffffffffffffffffffffffffffff809116903382146101f657817fffffffffffffffffffffffff000000000000000000000000000000000000000060015416176001558254167fed8889f560326eb138920d842192f0eb3dd22b4f139c87a2c57538e05bae12788380a380f35b60646040517f08c379a000000000000000000000000000000000000000000000000000000000815260206004820152601760248201527f43616e6e6f74207472616e7366657220746f2073656c660000000000000000006044820152fd5b80fd5b50346102545760207ffffffffffffffffffffffffffffffffffffffffffffffffffffffffffffffffc36011261025457604061010091600435815260046020522061031d73ffffffffffffffffffffffffffffffffffffffff808354169260018101549160028201546003830154906005600485015494015494604051978852602088015260408701526102f16060870160ff831661403a565b60081c16608085015260a084015265ffffffffffff811660c084015260ff60e084019160301c16614047565bf35b9050346108b2576020807ffffffffffffffffffffffffffffffffffffffffffffffffffffffffffffffffc3601126108ae57600435808452600482526040842073ffffffffffffffffffffffffffffffffffffffff908181541690811561088457600501549060ff8260301c1660068110156108575760010361082d573303610803576003546103b69165ffffffffffff166142d6565b4311156107d957838285526004845260408520916005830166050000000000007fffffffffffffffffffffffffffffffffffffffffffffffffff00ffffffffffff8254161790556004830191825480610783575b50600184018054885260058752604088208054848754168582161461069d575b50505060028401805480151580610684575b610593575b505080604061044f8661417c565b8881018051845260088a528284205461057b575b500180518015159081610567575b50610547575b5061051a57509282817f7751bd7ae8a434d89bb184d43ddbc1aa7ddd6d156852e3888051accdf3513e82604097948760036105179b99600499541695015460081c169054906104ed8a51928392836020909392919373ffffffffffffffffffffffffffffffffffffffff60408201951681520152565b0390a38352522060055f918281558260018201558260028201558260038201558260048201550155565b80f35b807f4e487b7100000000000000000000000000000000000000000000000000000000602492526021600452fd5b905051815260088652806040812061055f8154614cdd565b90555f610477565b83525060088852604082205415155f610471565b51835281832061058b8154614cdd565b90555f610463565b825260058752604082207fffffffffffffffffffffffff00000000000000000000000000000000000000008154169055827f00000000000000000000000000000000000000000000000000000000000000001683865416915491813b15610680576040517f42842e0e00000000000000000000000000000000000000000000000000000000815230600482015273ffffffffffffffffffffffffffffffffffffffff919091166024820152604481019290925282908290606490829084905af1801561067557908291156104415761066a906140f1565b61025457805f610441565b6040513d84823e3d90fd5b8380fd5b508083526005885283604084205416848754161461043c565b7fffffffffffffffffffffffff0000000000000000000000000000000000000000169055827f00000000000000000000000000000000000000000000000000000000000000001683865416915491813b1561077f576040517f42842e0e00000000000000000000000000000000000000000000000000000000815230600482015273ffffffffffffffffffffffffffffffffffffffff919091166024820152604481019290925288908290606490829084905af1801561077457610763575b808061042a565b61076d91506140f1565b855f61075c565b6040513d8a823e3d90fd5b8980fd5b828554168852600987526040882090600386019184835460081c168a5288526107b160408a209182546142d6565b9055828454915460081c168852600a87526107d1604089209182546142d6565b90555f61040a565b60046040517f3d4e82d9000000000000000000000000000000000000000000000000000000008152fd5b60046040517fe2743ccc000000000000000000000000000000000000000000000000000000008152fd5b60046040517ffd4faa94000000000000000000000000000000000000000000000000000000008152fd5b6024887f4e487b710000000000000000000000000000000000000000000000000000000081526021600452fd5b60046040517f227d721c000000000000000000000000000000000000000000000000000000008152fd5b8280fd5b5080fd5b8234610254576020807ffffffffffffffffffffffffffffffffffffffffffffffffffffffffffffffffc3601126108b2576004359073ffffffffffffffffffffffffffffffffffffffff807f000000000000000000000000000000000000000000000000000000000000000016906040517f4f558e790000000000000000000000000000000000000000000000000000000081528460048201528381602481865afa908115610ab8578691610aed575b5015610ac357604051907f836387100000000000000000000000000000000000000000000000000000000082528460048301528382602481865afa918215610ab8578692610a89575b5033911603610884578084913b156108b2576040517f42842e0e000000000000000000000000000000000000000000000000000000008152336004820152306024820152604481018590529082908290606490829084905af1801561067557610a75575b5090827fee22009d0b6e203a1c7f5484115c17db41da0fd98cc0c98abd5299731679b04a92526005815260408420337fffffffffffffffffffffffff00000000000000000000000000000000000000008254161790556040519283523392a280f35b610a7e906140f1565b6108ae578284610a13565b610aaa919250843d8611610ab1575b610aa28183614122565b8101906142aa565b90866109af565b503d610a98565b6040513d88823e3d90fd5b60046040517fcc3e8aa7000000000000000000000000000000000000000000000000000000008152fd5b610b0d9150843d8611610b13575b610b058183614122565b810190614209565b86610966565b503d610afb565b9050346108b25760407ffffffffffffffffffffffffffffffffffffffffffffffffffffffffffffffffc3601126108b257604090602092610b59613ff4565b83610b62614017565b9273ffffffffffffffffffffffffffffffffffffffff809316815260098752209116825283522054604051908152f35b9050346108b2576020807ffffffffffffffffffffffffffffffffffffffffffffffffffffffffffffffffc3601126108ae57610bcc613ff4565b913384526009825273ffffffffffffffffffffffffffffffffffffffff6040852093169283825282526040812054918215610c66578460407fa1239b92212ed7335b4054327185e0a4559610d62da1b92ef124ef51013059e5933383526009845281832087825284522055838552600a815260408520610c4d848254614163565b9055610c5a8333866144d8565b6040519283523392a380f35b60046040517ff774e5a9000000000000000000000000000000000000000000000000000000008152fd5b82346102545760207ffffffffffffffffffffffffffffffffffffffffffffffffffffffffffffffffc36011261025457600435808252600560205273ffffffffffffffffffffffffffffffffffffffff806040842054163303610de15782908282526005602052604082207fffffffffffffffffffffffff000000000000000000000000000000000000000081541690557f000000000000000000000000000000000000000000000000000000000000000016803b156108b2576040517f42842e0e000000000000000000000000000000000000000000000000000000008152306004820152336024820152604481018490529082908290606490829084905af1801561067557610dcd575b50506040519081527f3becb35d36294fb30aed06b9fa47efe4eafb95989d00ae497d9f4b3be6534b2360203392a280f35b610dd6906140f1565b6108b2578183610d9c565b60046040517f551258f4000000000000000000000000000000000000000000000000000000008152fd5b82346102545760207ffffffffffffffffffffffffffffffffffffffffffffffffffffffffffffffffc3601126102545760406020916004358152600683522054604051908152f35b823461025457807ffffffffffffffffffffffffffffffffffffffffffffffffffffffffffffffffc36011261025457602073ffffffffffffffffffffffffffffffffffffffff60025416604051908152f35b82346102545760207ffffffffffffffffffffffffffffffffffffffffffffffffffffffffffffffffc3601126102545760406020916004358152600883522054604051908152f35b82346102545760207ffffffffffffffffffffffffffffffffffffffffffffffffffffffffffffffffc36011261025457610f25613ff4565b73ffffffffffffffffffffffffffffffffffffffff90818354168033141580611018575b610fd75750168015610fad576020817fd1a6a14209a385a964d036e404cb5cfb71f4000cdb03c9366292430787261be6927fffffffffffffffffffffffff00000000000000000000000000000000000000006002541617600255604051908152a180f35b60046040517fd92e233d000000000000000000000000000000000000000000000000000000008152fd5b6064908360025416604051917f061db9c100000000000000000000000000000000000000000000000000000000835233600484015260248301526044820152fd5b508260025416331415610f49565b823461025457807ffffffffffffffffffffffffffffffffffffffffffffffffffffffffffffffffc3601126102545773ffffffffffffffffffffffffffffffffffffffff6020915416604051908152f35b9050346108b25760807ffffffffffffffffffffffffffffffffffffffffffffffffffffffffffffffffc3601126108b257600460443510156108b2576064359173ffffffffffffffffffffffffffffffffffffffff831683036108b25773ffffffffffffffffffffffffffffffffffffffff7f0000000000000000000000000000000000000000000000000000000000000000166040517ff9eaee0d00000000000000000000000000000000000000000000000000000000815273ffffffffffffffffffffffffffffffffffffffff85166004820152602081602481855afa90811561199f578391611e8e575b5015611c6b57604435600303611e0e576004358252600860205260408220547f00000000000000000000000000000000000000000000000000000000000000001115611de4575b338252600760205260408220548015159081611dcf575b506107d957604435600303611d1357602435611ce957600435825260056020523373ffffffffffffffffffffffffffffffffffffffff60408420541603610de1575b604051907fa7f93ebd000000000000000000000000000000000000000000000000000000008252602082600481845afa91821561199f578392611cb4575b506020602491604051928380927f5b6cca8000000000000000000000000000000000000000000000000000000000825273ffffffffffffffffffffffffffffffffffffffff8a1660048301525afa90811561199f579073ffffffffffffffffffffffffffffffffffffffff918491611c95575b5016908115611c6b5760a0600492604051938480927ffeaf968c0000000000000000000000000000000000000000000000000000000082525afa91821561199f578392849385928692611c15575b5085851315611beb5769ffffffffffffffffffff809116911610611bc15761132e610e109142614163565b11611b97576402540be400918083810204831481151715611aa357604051927f313ce56700000000000000000000000000000000000000000000000000000000845260208460048173ffffffffffffffffffffffffffffffffffffffff8b165afa938415611b8c578594611b4e575b50670de0b6b3a7640000918383810204831484151715611b21579160ff93916113c893029102614569565b91166012811015611ad05760120360ff8111611aa357906113eb6113f1926145a0565b90614569565b6040517fdd62ed3e00000000000000000000000000000000000000000000000000000000815233600482015230602482015260208160448173ffffffffffffffffffffffffffffffffffffffff89165afa90811561199f578391611a71575b50604051907f70a0823100000000000000000000000000000000000000000000000000000000825233600483015260208260248173ffffffffffffffffffffffffffffffffffffffff8a165afa918215611a66579083918593611a2b575b5010611a015781116119d7576040517f23b872dd0000000000000000000000000000000000000000000000000000000060208201523360248201523060448201526064808201839052815261152490611508608482614122565b73ffffffffffffffffffffffffffffffffffffffff8616614b72565b73ffffffffffffffffffffffffffffffffffffffff600254166040519081602081011067ffffffffffffffff6020840111176119aa57602090818301604052848352604051927f92fd133800000000000000000000000000000000000000000000000000000000838501525115156024840152602483526115a4836140b9565b604051906115b182614054565b7f000000000000000000000000000000000000000000000000000000000000000082528282017f000000000000000000000000000000000000000000000000000000000000000081528660408401936116d261ffff97887f00000000000000000000000000000000000000000000000000000000000000001687526060830163ffffffff90817f00000000000000000000000000000000000000000000000000000000000000001681528160808601916001835260a087019485526040519c8d9b8c9a8b997f9b1c385e000000000000000000000000000000000000000000000000000000008b528f60048c01525160248b01525160448a01525116606488015251166084860152511660a48401525160c060c484015260e4830190614221565b03925af193841561199f578394611968575b505073ffffffffffffffffffffffffffffffffffffffff6040519461170886614105565b3386526004356020870152602435604087015261172a60443560608801614170565b16608085015260a084015265ffffffffffff431660c084015260e08301926001845282825260046020526040822073ffffffffffffffffffffffffffffffffffffffff8251167fffffffffffffffffffffffff00000000000000000000000000000000000000008254161781556020820151600182015560408201516002820155600381016060830151600481101561193b5765ffffffffffff928260059260c094547fffffffffffffffffffffff00000000000000000000000000000000000000000060ff74ffffffffffffffffffffffffffffffffffffffff0060808b015160081b16931691161717905560a085015160048201550192015116938154905194600686101561190e577fffffffffffffffffffffffffffffffffffffffffffffffffff0000000000000066ff00000000000060209760301b16921617179055338152600783524360408220556004358152600883526040812061188f815461427d565b90556003604435036118ef575b506040516004358152602435838201528160408201526118c16060820160443561403a565b7fece922f945e7448de18bb9ed229389aafd0f5a7c3ab43ef4c052701251ad34cf60803392a2604051908152f35b60409060243581526008845220611906815461427d565b90555f61189c565b6024847f4e487b710000000000000000000000000000000000000000000000000000000081526021600452fd5b6024857f4e487b710000000000000000000000000000000000000000000000000000000081526021600452fd5b909193506020823d602011611997575b8161198560209383614122565b81010312610254575051915f806116e4565b3d9150611978565b6040513d85823e3d90fd5b6024857f4e487b710000000000000000000000000000000000000000000000000000000081526041600452fd5b60046040517fcc3d7335000000000000000000000000000000000000000000000000000000008152fd5b60046040517ff94b3651000000000000000000000000000000000000000000000000000000008152fd5b915091506020813d602011611a5e575b81611a4860209383614122565b81010312611a5a57829051915f6114ae565b8480fd5b3d9150611a3b565b6040513d86823e3d90fd5b90506020813d602011611a9b575b81611a8c60209383614122565b8101031261068057515f611450565b3d9150611a7f565b6024847f4e487b710000000000000000000000000000000000000000000000000000000081526011600452fd5b6012811115611b1b577fffffffffffffffffffffffffffffffffffffffffffffffffffffffffffffffee0160ff8111611aa35790611b10611b16926145a0565b90614556565b6113f1565b506113f1565b6024867f4e487b710000000000000000000000000000000000000000000000000000000081526011600452fd5b9093506020813d602011611b84575b81611b6a60209383614122565b81010312611a5a575160ff81168103611a5a57925f61139d565b3d9150611b5d565b6040513d87823e3d90fd5b60046040517f2a54e607000000000000000000000000000000000000000000000000000000008152fd5b60046040517ffe046945000000000000000000000000000000000000000000000000000000008152fd5b60046040517f90ef88cf000000000000000000000000000000000000000000000000000000008152fd5b945050505060a0823d60a011611c63575b81611c3360a09383614122565b810103126108ae57611c448261453f565b6020830151611c5a60806060860151950161453f565b9093915f611303565b3d9150611c26565b60046040517f989bddc7000000000000000000000000000000000000000000000000000000008152fd5b611cae915060203d602011610ab157610aa28183614122565b5f6112b5565b9091506020813d602011611ce1575b81611cd060209383614122565b810103126106805751906020611242565b3d9150611cc3565b60046040517fcffc9a0b000000000000000000000000000000000000000000000000000000008152fd5b60243560043514611da557600435825260056020523373ffffffffffffffffffffffffffffffffffffffff60408420541614801590611d7c575b156112045760046040517f551258f4000000000000000000000000000000000000000000000000000000008152fd5b5060243582523373ffffffffffffffffffffffffffffffffffffffff6040842054161415611d4d565b60046040517fe9c2bc80000000000000000000000000000000000000000000000000000000008152fd5b611dda915043614163565b600354115f6111c2565b60046040517f0c7209df000000000000000000000000000000000000000000000000000000008152fd5b6004358252600860205260408220547f000000000000000000000000000000000000000000000000000000000000000080911090811591611e7a575b50156111ab5760046040517f0c7209df000000000000000000000000000000000000000000000000000000008152fd5b90506024358352604083205410155f611e4a565b611ea7915060203d602011610b1357610b058183614122565b5f611164565b82346102545760207ffffffffffffffffffffffffffffffffffffffffffffffffffffffffffffffffc36011261025457604081611f299260e08351611ef181614105565b82815282602082015282858201528260608201528260808201528260a08201528260c08201520152600435815260046020522061417c565b73ffffffffffffffffffffffffffffffffffffffff8082511615611ce95761031d60e061010093604051938082511685526020820151602086015260408201516040860152611f806060830151606087019061403a565b608082015116608085015260a081015160a085015265ffffffffffff60c08201511660c0850152015160e0830190614047565b82346102545760207ffffffffffffffffffffffffffffffffffffffffffffffffffffffffffffffffc36011261025457611feb61445a565b60043560035580f35b823461025457807ffffffffffffffffffffffffffffffffffffffffffffffffffffffffffffffffc3601126102545760015473ffffffffffffffffffffffffffffffffffffffff808216330361209d5782547fffffffffffffffffffffffff00000000000000000000000000000000000000008082163390811786559316600155167f8be0079c531659141344cd1fd0a4f28419497f9722a3daafe3b4186f6b6457e08380a380f35b60646040517f08c379a000000000000000000000000000000000000000000000000000000000815260206004820152601660248201527f4d7573742062652070726f706f736564206f776e6572000000000000000000006044820152fd5b9050346108b257602090817ffffffffffffffffffffffffffffffffffffffffffffffffffffffffffffffffc3601126108ae5773ffffffffffffffffffffffffffffffffffffffff61214b613ff4565b61215361445a565b16916040517f70a082310000000000000000000000000000000000000000000000000000000081523060048201528181602481875afa928315611b8c5785936121ee575b5050828452600a8152604084205491828111156119d7577feaff4b37086828766ad3268786972c0cd24259d4c87a80f9d3963a3c3d999b0d926121d991614163565b6121e48133866144d8565b604051908152a280f35b909180935082813d8311612219575b6122078183614122565b81010312610254575051905f80612197565b503d6121fd565b8234613c6d5760407ffffffffffffffffffffffffffffffffffffffffffffffffffffffffffffffffc360112613c6d57303303610884576004355f52600460205260405f2060ff600582015460301c166006811015613c1457600203613cb85760405161228c81614054565b6040516122988161409d565b5f81525f602082015281526040516122af8161409d565b5f81525f602082015260208201526122c56149ea565b60408201526122d2614a08565b60608201526122df6149ea565b608082015260a06122ee614a08565b91015260ff600a60243506169260ff60056024350616604051946123118661409d565b8086528160208701526040516123268161409d565b81815282602082015260405161233b816140b9565b82815283602082015282604082015260405191612357836140d5565b8383528360208401528360408401528360608401528460808401526040519361237f856140b9565b808552602085015284604085015260016024351615604051956123a1876140d5565b81875280602088015281604088015260608701526080860152604051986123c78a614054565b8952602089015260408801526060870152608086015260a085015260ff6003830154166004811015613c145780612abc57509091926124058361417c565b6020810151604051907f56e3df97000000000000000000000000000000000000000000000000000000008252600482015260208160248173ffffffffffffffffffffffffffffffffffffffff7f0000000000000000000000000000000000000000000000000000000000000000165afa908115610ab8578691612a8a575b506040820151604051907f56e3df97000000000000000000000000000000000000000000000000000000008252600482015260208160248173ffffffffffffffffffffffffffffffffffffffff7f0000000000000000000000000000000000000000000000000000000000000000165afa9081156129a1578791612a58575b5080821115612a515781935b600185018511612a245760206125709173ffffffffffffffffffffffffffffffffffffffff8651169060405193849283927fbf51418200000000000000000000000000000000000000000000000000000000845260018b019160048501614a32565b03818b73ffffffffffffffffffffffffffffffffffffffff7f0000000000000000000000000000000000000000000000000000000000000000165af19586156107745788966129ed575b505060208301519060408401519260608501519360048510156129c057906125e89493929160243593614d08565b908386526006602052816040872055602081015186526005602052604086207fffffffffffffffffffffffff00000000000000000000000000000000000000009081815416905560408201518752604087209081541690558573ffffffffffffffffffffffffffffffffffffffff82511660208301519073ffffffffffffffffffffffffffffffffffffffff7f0000000000000000000000000000000000000000000000000000000000000000163b156108ae576040517f42842e0e00000000000000000000000000000000000000000000000000000000815230600482015273ffffffffffffffffffffffffffffffffffffffff909116602482015260448101919091528181806064810103818373ffffffffffffffffffffffffffffffffffffffff7f0000000000000000000000000000000000000000000000000000000000000000165af18015610675576129ac575b505073ffffffffffffffffffffffffffffffffffffffff81511686604083015173ffffffffffffffffffffffffffffffffffffffff7f0000000000000000000000000000000000000000000000000000000000000000163b156108b2576040517f42842e0e00000000000000000000000000000000000000000000000000000000815230600482015273ffffffffffffffffffffffffffffffffffffffff9093166024840152604483015281806064810103818373ffffffffffffffffffffffffffffffffffffffff7f0000000000000000000000000000000000000000000000000000000000000000165af180156129a157612989575b5083604095937faf02e36fab6d22c5c3c6541916656dafdcf98690c4320d16c76d1a6351efc31c937f1407240319d14655cb34d8aa0cf82b7a7cac52c7cc4a745893ccd7e67b9dce9361297e9997856128dc73ffffffffffffffffffffffffffffffffffffffff6060985116948c6020840151930151928d5194859460016004359a0192869192608093969594919660a084019784526020840152604083015260608201520152565b0390a35b66030000000000007fffffffffffffffffffffffffffffffffffffffffffffffffff00ffffffffffff60058601541617600585015560ff600373ffffffffffffffffffffffffffffffffffffffff865416950154169061294b8751926004358452602084019061403a565b86820152a2600435815260046020522060055f918281558260018201558260028201558260038201558260048201550155565b602060405160018152f35b61299387916140f1565b61299d5786612833565b8580fd5b6040513d89823e3d90fd5b6129b5906140f1565b61299d57858761273b565b60248a7f4e487b710000000000000000000000000000000000000000000000000000000081526021600452fd5b909195506020823d602011612a1c575b81612a0a60209383614122565b810103126102545750519387806125ba565b3d91506129fd565b6024887f4e487b710000000000000000000000000000000000000000000000000000000081526011600452fd5b809361250e565b90506020813d602011612a82575b81612a7360209383614122565b81010312611a5a575187612502565b3d9150612a66565b90506020813d602011612ab4575b81612aa560209383614122565b81010312610680575186612483565b3d9150612a98565b600181036131345750612ace8261417c565b602081015191604051927f56e3df97000000000000000000000000000000000000000000000000000000008452600484015260208360248173ffffffffffffffffffffffffffffffffffffffff7f0000000000000000000000000000000000000000000000000000000000000000165afa928315611b8c578593613100575b506001830183116130d3576020612bb294959673ffffffffffffffffffffffffffffffffffffffff8451169060405196879283927fbf514182000000000000000000000000000000000000000000000000000000008452600189019160048501614a32565b03818973ffffffffffffffffffffffffffffffffffffffff7f0000000000000000000000000000000000000000000000000000000000000000165af1938415610ab857869461309f575b50602082015190604051917f56e3df97000000000000000000000000000000000000000000000000000000008352600483015260208260248173ffffffffffffffffffffffffffffffffffffffff7f0000000000000000000000000000000000000000000000000000000000000000165afa9182156129a157879261306b575b506040830151604051907f56e3df97000000000000000000000000000000000000000000000000000000008252600482015260208160248173ffffffffffffffffffffffffffffffffffffffff7f0000000000000000000000000000000000000000000000000000000000000000165afa918215610774578892613036575b505060208301519060408401519260608501519360048510156129c05790612d299493929160243593614d08565b908386526006602052816040872055604081015186526005602052604086207fffffffffffffffffffffffff000000000000000000000000000000000000000081541690558573ffffffffffffffffffffffffffffffffffffffff82511660408301519073ffffffffffffffffffffffffffffffffffffffff7f0000000000000000000000000000000000000000000000000000000000000000163b156108ae576040517f42842e0e00000000000000000000000000000000000000000000000000000000815230600482015273ffffffffffffffffffffffffffffffffffffffff909116602482015260448101919091528181806064810103818373ffffffffffffffffffffffffffffffffffffffff7f0000000000000000000000000000000000000000000000000000000000000000165af1801561067557613022575b5050602081015186526005602052604086207fffffffffffffffffffffffff00000000000000000000000000000000000000008154169055602081015173ffffffffffffffffffffffffffffffffffffffff7f0000000000000000000000000000000000000000000000000000000000000000163b1561301e57604051907f42966c68000000000000000000000000000000000000000000000000000000008252600482015286816024818373ffffffffffffffffffffffffffffffffffffffff7f0000000000000000000000000000000000000000000000000000000000000000165af180156129a15761300a575b5083604095937faf02e36fab6d22c5c3c6541916656dafdcf98690c4320d16c76d1a6351efc31c937fa1e6a96d067dfd84f9461d6b48debedc5a5015a7ffbcda5bdc9c03d3d93a139561297e99978561300273ffffffffffffffffffffffffffffffffffffffff6060985116948c6020840151930151928d5194859460016004359a0192869192608093969594919660a084019784526020840152604083015260608201520152565b0390a36128e0565b61301487916140f1565b61299d5786612f59565b8680fd5b61302b906140f1565b61299d578587612e69565b9091506020823d602011613063575b8161305260209383614122565b810103126102545750518780612cfb565b3d9150613045565b9091506020813d602011613097575b8161308760209383614122565b810103126108b257519087612c7c565b3d915061307a565b9093506020813d6020116130cb575b816130bb60209383614122565b8101031261068057519286612bfc565b3d91506130ae565b6024857f4e487b710000000000000000000000000000000000000000000000000000000081526011600452fd5b9092506020813d60201161312c575b8161311c60209383614122565b810103126108ae57519186612b4d565b3d915061310f565b6002819592939495145f1461366e575061314d8361417c565b6020810151604051907f56e3df97000000000000000000000000000000000000000000000000000000008252600482015260208160248173ffffffffffffffffffffffffffffffffffffffff7f0000000000000000000000000000000000000000000000000000000000000000165afa908115610ab857869161363c575b506040820151604051907f56e3df97000000000000000000000000000000000000000000000000000000008252600482015260208160248173ffffffffffffffffffffffffffffffffffffffff7f0000000000000000000000000000000000000000000000000000000000000000165afa9081156129a157879161360a575b50808211156136035781935b600185018511612a245760206132b89173ffffffffffffffffffffffffffffffffffffffff8651169060405193849283927fbf51418200000000000000000000000000000000000000000000000000000000845260018b019160048501614a32565b03818b73ffffffffffffffffffffffffffffffffffffffff7f0000000000000000000000000000000000000000000000000000000000000000165af19586156107745788966135cc575b505060208301519060408401519260608501519360048510156129c057906133309493929160243593614d08565b908386526006602052816040872055602081015186526005602052604086207fffffffffffffffffffffffff000000000000000000000000000000000000000090818154169055604082015187526040872090815416905585602082015173ffffffffffffffffffffffffffffffffffffffff7f0000000000000000000000000000000000000000000000000000000000000000163b156108b257604051907f42966c68000000000000000000000000000000000000000000000000000000008252600482015281816024818373ffffffffffffffffffffffffffffffffffffffff7f0000000000000000000000000000000000000000000000000000000000000000165af18015610675576135b8575b5050604081015173ffffffffffffffffffffffffffffffffffffffff7f0000000000000000000000000000000000000000000000000000000000000000163b1561301e57604051907f42966c68000000000000000000000000000000000000000000000000000000008252600482015286816024818373ffffffffffffffffffffffffffffffffffffffff7f0000000000000000000000000000000000000000000000000000000000000000165af180156129a1576135a4575b5083604095937faf02e36fab6d22c5c3c6541916656dafdcf98690c4320d16c76d1a6351efc31c937f1c89258102cdd62631944bf583c2bcf39cf04e964d8002f7459395d88eaf620a61297e99978561300273ffffffffffffffffffffffffffffffffffffffff6060985116948c6020840151930151928d5194859460016004359a0192869192608093969594919660a084019784526020840152604083015260608201520152565b6135ae87916140f1565b61299d57866134fb565b6135c1906140f1565b61299d578587613441565b909195506020823d6020116135fb575b816135e960209383614122565b81010312610254575051938780613302565b3d91506135dc565b8093613256565b90506020813d602011613634575b8161362560209383614122565b81010312611a5a57518761324a565b3d9150613618565b90506020813d602011613666575b8161365760209383614122565b810103126106805751866131cb565b3d915061364a565b91939291600303611ce9576136828261417c565b602081015190604051917f56e3df97000000000000000000000000000000000000000000000000000000008352600483015260208260248173ffffffffffffffffffffffffffffffffffffffff7f0000000000000000000000000000000000000000000000000000000000000000165afa918215613c79575f92613c84575b50600182018211613ad05760206137649373ffffffffffffffffffffffffffffffffffffffff8351169060405195869283927fbf514182000000000000000000000000000000000000000000000000000000008452600188019160048501614a32565b03815f73ffffffffffffffffffffffffffffffffffffffff7f0000000000000000000000000000000000000000000000000000000000000000165af1928315613c79575f93613c41575b5060208101516060820151906004821015613c14575f915f918115613b9d575b60018214613b2a575b60028214613a54575b506003146139c1575b508387526006602052806040882055602082015187526005602052604087207fffffffffffffffffffffffff00000000000000000000000000000000000000008154169055602082015173ffffffffffffffffffffffffffffffffffffffff7f0000000000000000000000000000000000000000000000000000000000000000163b156139bd57604051907f42966c68000000000000000000000000000000000000000000000000000000008252600482015287816024818373ffffffffffffffffffffffffffffffffffffffff7f0000000000000000000000000000000000000000000000000000000000000000165af18015610774579760409796959493929161297e9961397e575b505091816060936001602073ffffffffffffffffffffffffffffffffffffffff7faf02e36fab6d22c5c3c6541916656dafdcf98690c4320d16c76d1a6351efc31c98965116930151938a519485528560208601520189840152848301527fa9c3dd317d526fd62b630e3e369b3f25888c853e130b5a182fa769d9539ede6c608060043593a36128e0565b606094929750906139b17faf02e36fab6d22c5c3c6541916656dafdcf98690c4320d16c76d1a6351efc31c9694926140f1565b969193819395506138f4565b8780fd5b90506028830283810460281484151715613a27576139e590602860243506906142d6565b906032820182116139fa5750603201876137e9565b807f4e487b7100000000000000000000000000000000000000000000000000000000602492526011600452fd5b6024827f4e487b710000000000000000000000000000000000000000000000000000000081526011600452fd5b90925084601e810204601e1485151715613a275781613a275788613afd57600185151715613ad0576032613abb91604051602081019182525f604082015260408152613a9f816140b9565b51902006613ab660326024350691601e88026142d6565b6142d6565b606481018111613ad0576064019160036137e0565b7f4e487b71000000000000000000000000000000000000000000000000000000005f52601160045260245ffd5b6024897f4e487b710000000000000000000000000000000000000000000000000000000081526011600452fd5b9250905083601e810204601e1484151715612a2457879081613afd57600185151715613ad057613b8a602860405160208101908682525f604082015260408152613b73816140b9565b51902006613ab660286024350691601e89026142d6565b601481018111613ad057601401926137d7565b925097505f9784600a810204600a1485151715613ad0575f85613c0c575b613bf990613ab6601e60405160208101908882525f604082015260408152613be2816140b9565b51902006613ab6601e6024350693600a8b026142d6565b600a81018111613ad057600a01926137ce565b506014613bbb565b7f4e487b71000000000000000000000000000000000000000000000000000000005f52602160045260245ffd5b9092506020813d602011613c71575b81613c5d60209383614122565b81010312613c6d575191866137ae565b5f80fd5b3d9150613c50565b6040513d5f823e3d90fd5b9091506020813d602011613cb0575b81613ca060209383614122565b81010312613c6d57519086613701565b3d9150613c93565b60046040517feb5fc8bb000000000000000000000000000000000000000000000000000000008152fd5b34613c6d5760207ffffffffffffffffffffffffffffffffffffffffffffffffffffffffffffffffc360112613c6d576004355f52600560205273ffffffffffffffffffffffffffffffffffffffff60405f2054168015611ce957602090604051908152f35b34613c6d5760207ffffffffffffffffffffffffffffffffffffffffffffffffffffffffffffffffc360112613c6d576004355f526005602052602073ffffffffffffffffffffffffffffffffffffffff60405f205416604051908152f35b34613c6d5760207ffffffffffffffffffffffffffffffffffffffffffffffffffffffffffffffffc360112613c6d5773ffffffffffffffffffffffffffffffffffffffff613df1613ff4565b165f52600a602052602060405f2054604051908152f35b34613c6d5760207ffffffffffffffffffffffffffffffffffffffffffffffffffffffffffffffffc360112613c6d5773ffffffffffffffffffffffffffffffffffffffff613e54613ff4565b165f526007602052602060405f2054604051908152f35b34613c6d5760407ffffffffffffffffffffffffffffffffffffffffffffffffffffffffffffffffc360112613c6d5760243567ffffffffffffffff808211613c6d5736602383011215613c6d578160040135908111613c6d573660248260051b84010111613c6d5773ffffffffffffffffffffffffffffffffffffffff60025416803303613f035750602461001892016004356142e3565b6040517f1cf993f400000000000000000000000000000000000000000000000000000000815233600482015273ffffffffffffffffffffffffffffffffffffffff919091166024820152604490fd5b0390fd5b34613c6d5760807ffffffffffffffffffffffffffffffffffffffffffffffffffffffffffffffffc360112613c6d57613f8d613ff4565b50613f96614017565b5060643567ffffffffffffffff808211613c6d5736602383011215613c6d578160040135908111613c6d5736910160240111613c6d57807f150b7a020000000000000000000000000000000000000000000000000000000060209252f35b6004359073ffffffffffffffffffffffffffffffffffffffff82168203613c6d57565b6024359073ffffffffffffffffffffffffffffffffffffffff82168203613c6d57565b906004821015613c145752565b906006821015613c145752565b60c0810190811067ffffffffffffffff82111761407057604052565b7f4e487b71000000000000000000000000000000000000000000000000000000005f52604160045260245ffd5b6040810190811067ffffffffffffffff82111761407057604052565b6060810190811067ffffffffffffffff82111761407057604052565b60a0810190811067ffffffffffffffff82111761407057604052565b67ffffffffffffffff811161407057604052565b610100810190811067ffffffffffffffff82111761407057604052565b90601f7fffffffffffffffffffffffffffffffffffffffffffffffffffffffffffffffe0910116810190811067ffffffffffffffff82111761407057604052565b91908203918211613ad057565b6004821015613c145752565b9060405161418981614105565b60ff6005829473ffffffffffffffffffffffffffffffffffffffff808254168552600182015460208601526002820154604086015260038201546141d285821660608801614170565b60081c166080850152600481015460a0850152015465ffffffffffff811660c084015260301c16906006821015613c145760e00152565b90816020910312613c6d57518015158103613c6d5790565b91908251928382525f5b8481106142695750507fffffffffffffffffffffffffffffffffffffffffffffffffffffffffffffffe0601f845f6020809697860101520116010190565b60208183018101518483018201520161422b565b7fffffffffffffffffffffffffffffffffffffffffffffffffffffffffffffffff8114613ad05760010190565b90816020910312613c6d575173ffffffffffffffffffffffffffffffffffffffff81168103613c6d5790565b91908201809211613ad057565b9173ffffffffffffffffffffffffffffffffffffffff8060025416330361443057835f52600460205260405f2090815416158015614412575b61440c5760050166020000000000007fffffffffffffffffffffffffffffffffffffffffffffffffff00ffffffffffff825416179055156143df57604051907f47c6b15a0000000000000000000000000000000000000000000000000000000082528260048301523560248201526020816044815f305af15f91816143be575b506143ad57506143ab906145b1565b565b156143b55750565b6143ab906145b1565b6143d891925060203d602011610b1357610b058183614122565b905f61439c565b7f4e487b71000000000000000000000000000000000000000000000000000000005f52603260045260245ffd5b50505050565b5060ff600582015460301c166006811015613c14576001141561431c565b60046040517f6959678d000000000000000000000000000000000000000000000000000000008152fd5b73ffffffffffffffffffffffffffffffffffffffff5f5416330361447a57565b60646040517f08c379a000000000000000000000000000000000000000000000000000000000815260206004820152601660248201527f4f6e6c792063616c6c61626c65206279206f776e6572000000000000000000006044820152fd5b6040517fa9059cbb00000000000000000000000000000000000000000000000000000000602082015273ffffffffffffffffffffffffffffffffffffffff9290921660248301526044808301939093529181526143ab9161453a606483614122565b614b72565b519069ffffffffffffffffffff82168203613c6d57565b81810292918115918404141715613ad057565b8115614573570490565b7f4e487b71000000000000000000000000000000000000000000000000000000005f52601260045260245ffd5b60ff16604d8111613ad057600a0a90565b905f91805f5260046020818152604092835f206005810166040000000000007fffffffffffffffffffffffffffffffffffffffffffffffffff00ffffffffffff82541617905583810196875480614983575b50600182019081545f5260058552865f209182549273ffffffffffffffffffffffffffffffffffffffff93848654168582161461489d575b50505060028301805480151580614885575b614797575b5050808761465f8561417c565b87810180518452600889528284205461477f575b50018051801515908161476c575b5061474d575b5061472157507f3e876cc49a9bcfbcd89b6a8c86b585d1da640bd06f0d6cb71ec3ed0bea9c0f846143ab9798826003869486541695015460081c169054906146f68951928392836020909392919373ffffffffffffffffffffffffffffffffffffffff60408201951681520152565b0390a35f52525f2060055f918281558260018201558260028201558260038201558260048201550155565b806021877f4e487b71000000000000000000000000000000000000000000000000000000006024945252fd5b905051815260088552808781206147648154614cdd565b90555f614687565b835250600887528882205415155f614681565b51835281832061478f8154614cdd565b90555f614673565b8252600586528782207fffffffffffffffffffffffff00000000000000000000000000000000000000008154169055827f00000000000000000000000000000000000000000000000000000000000000001683855416915491813b156106805789517f42842e0e00000000000000000000000000000000000000000000000000000000815230818b0190815273ffffffffffffffffffffffffffffffffffffffff909216602083015260408201939093528391839182908490829060600103925af1801561487b579082911561465257614870906140f1565b61025457805f614652565b88513d84823e3d90fd5b5080835260058752838984205416848654161461464d565b7fffffffffffffffffffffffff0000000000000000000000000000000000000000169055827f00000000000000000000000000000000000000000000000000000000000000001690838554169054823b15613c6d5789517f42842e0e00000000000000000000000000000000000000000000000000000000815230818b0190815273ffffffffffffffffffffffffffffffffffffffff90931660208401526040830191909152915f9183919082908490829060600103925af1801561497957614968575b808061463b565b61497291506140f1565b5f80614961565b88513d5f823e3d90fd5b73ffffffffffffffffffffffffffffffffffffffff808454165f5260098652875f2091600385019282845460081c165f5287526149c4895f209182546142d6565b90558954915460081c165f52600a85526149e2875f209182546142d6565b90555f614603565b604051906149f7826140b9565b5f6040838281528260208201520152565b60405190614a15826140d5565b5f6080838281528260208201528260408201528260608201520152565b60808060a06102a09497969573ffffffffffffffffffffffffffffffffffffffff6102c0860199168552614a7960208601825160ff60208092828151168552015116910152565b602081810151805160ff9081166060890152910151166080860152614ac060408201518387019060ff60408092828151168552826020820151166020860152015116910152565b606081015160ff93818580935116610100890152826020820151166101208901528260408201511661014089015282606082015116610160890152015116610180860152614b31848201516101a087019060ff60408092828151168552826020820151166020860152015116910152565b015190815115156102008501528060208301511661022085015260408201511515610240850152606082015116610260840152015115156102808201520152565b73ffffffffffffffffffffffffffffffffffffffff16604051614b948161409d565b5f806020948584527f5361666545524332303a206c6f772d6c6576656c2063616c6c206661696c656486850152858151910182865af13d15614cd0573d9067ffffffffffffffff821161407057614c279360405192614c1a877fffffffffffffffffffffffffffffffffffffffffffffffffffffffffffffffe0601f8401160185614122565b83523d5f8785013e615047565b80519081614c3457505050565b8280614c44938301019101614209565b15614c4c5750565b608490604051907f08c379a00000000000000000000000000000000000000000000000000000000082526004820152602a60248201527f5361666545524332303a204552433230206f7065726174696f6e20646964206e60448201527f6f742073756363656564000000000000000000000000000000000000000000006064820152fd5b91614c2792606091615047565b8015613ad0577fffffffffffffffffffffffffffffffffffffffffffffffffffffffffffffffff0190565b9490939192935f956004958684101561501b578315614fa0575b60018414614f02575b60028414614dd7575b505050600314614d45575b50505090565b90919250602882029180830460281490151715614dab57906028614d6a9206906142d6565b9060328201809211614d7f57505f8080614d3f565b6011907f4e487b71000000000000000000000000000000000000000000000000000000005f525260245ffd5b6011837f4e487b71000000000000000000000000000000000000000000000000000000005f525260245ffd5b9091929650601e8502858104601e1486151715614eaa57601482029082820460141483151715614ed657614e1591614e0e916142d6565b9186614556565b90600a820291808304600a1490151715614eaa57614e699392614e3d613ab6936032936142d6565b936040519060208201928352604082015260408152614e5b816140b9565b5190200660328506926142d6565b60648101809111614e7e579360035f80614d34565b6011847f4e487b71000000000000000000000000000000000000000000000000000000005f525260245ffd5b6011877f4e487b71000000000000000000000000000000000000000000000000000000005f525260245ffd5b6011887f4e487b71000000000000000000000000000000000000000000000000000000005f525260245ffd5b9650601e8502858104601e1486151715614eaa57601488029088820460141489151715614ed65790614f33916142d6565b614f3d8887614556565b90600a820291808304600a1490151715614ed657614f8f91614f5e916142d6565b613ab66028604051602081019086825287604082015260408152614f81816140b9565b5190200660288806926142d6565b60148101809111614eaa5796614d2b565b9650614fac87866142d6565b600a810290808204600a1490151715614eaa57615002905f898803615013575b613ab690613ab6601e604051602081019088825289604082015260408152614ff3816140b9565b5190200691601e8a06946142d6565b600a8101809111614eaa5796614d22565b506014614fcc565b6021877f4e487b71000000000000000000000000000000000000000000000000000000005f525260245ffd5b919290156150c2575081511561505b575090565b3b156150645790565b60646040517f08c379a000000000000000000000000000000000000000000000000000000000815260206004820152601d60248201527f416464726573733a2063616c6c20746f206e6f6e2d636f6e74726163740000006044820152fd5b8251909150156150d55750805190602001fd5b613f52906040519182917f08c379a000000000000000000000000000000000000000000000000000000000835260206004840152602483019061422156fea2646970667358221220be8b8f7a1a6768560191031fdc037636413aa06b5f27a5eda144f7dba14ca1f964736f6c63430008180033",
    "linkReferences": {}
  },
  "methodIdentifiers": {
    "acceptOwnership()": "79ba5097",
    "claimRefund(address)": "bffa55d5",
    "depositBeanHeads(uint256)": "c490078c",
    "getBreedRequest(uint256)": "82b12082",
    "getEscrowedTokenOwner(uint256)": "4565dc3e",
    "getParentBreedingCount(uint256)": "94e99929",
    "getRarityPoints(uint256)": "a76c2803",
    "onERC721Received(address,address,uint256,bytes)": "150b7a02",
    "owner()": "8da5cb5b",
    "rawFulfillRandomWords(uint256,uint256[])": "1fe543e3",
    "requestBreed(uint256,uint256,uint8,address)": "8702cc76",
    "s_breedRequests(uint256)": "dd7a37a6",
    "s_escrowedTokens(uint256)": "2e24be5d",
    "s_lastBreedingBlock(address)": "2bc6b145",
    "s_mutatedRarityPoints(uint256)": "7c172ef3",
    "s_parentBreedingCount(uint256)": "58b515c8",
    "s_refundable(address,address)": "c420cfd0",
    "s_totalRefundable(address)": "2e098b20",
    "s_vrfCoordinator()": "9eccacf6",
    "setCoolDown(uint256)": "7c56687a",
    "setCoordinator(address)": "8ea98117",
    "settleRequestExternal(uint256,uint256)": "47c6b15a",
    "timeoutRefund(uint256)": "dcdfd05e",
    "transferOwnership(address)": "f2fde38b",
    "withdrawBeanHeads(uint256)": "bb87eaa3",
    "withdrawFunds(address)": "68742da6"
  },
  "id": 173
}