{
  "abi": [
    {
      "type": "function",
      "name": "approve",
      "inputs": [
        {
          "name": "to",
          "type": "address",
          "internalType": "address"
        },
        {
          "name": "tokenId",
          "type": "uint256",
          "internalType": "uint256"
        }
      ],
      "outputs": [],
      "stateMutability": "payable"
    },
    {
      "type": "function",
      "name": "balanceOf",
      "inputs": [
        {
          "name": "owner",
          "type": "address",
          "internalType": "address"
        }
      ],
      "outputs": [
        {
          "name": "",
          "type": "uint256",
          "internalType": "uint256"
        }
      ],
      "stateMutability": "view"
    },
    {
      "type": "function",
      "name": "burnToken",
      "inputs": [
        {
          "name": "_tokenId",
          "type": "uint256",
          "internalType": "uint256"
        }
      ],
      "outputs": [],
      "stateMutability": "nonpayable"
    },
    {
      "type": "function",
      "name": "getApproved",
      "inputs": [
        {
          "name": "tokenId",
          "type": "uint256",
          "internalType": "uint256"
        }
      ],
      "outputs": [
        {
          "name": "",
          "type": "address",
          "internalType": "address"
        }
      ],
      "stateMutability": "view"
    },
    {
      "type": "function",
      "name": "getNextTokenId",
      "inputs": [],
      "outputs": [
        {
          "name": "",
          "type": "uint256",
          "internalType": "uint256"
        }
      ],
      "stateMutability": "view"
    },
    {
      "type": "function",
      "name": "getOwnerOf",
      "inputs": [
        {
          "name": "_tokenId",
          "type": "uint256",
          "internalType": "uint256"
        }
      ],
      "outputs": [
        {
          "name": "",
          "type": "address",
          "internalType": "address"
        }
      ],
      "stateMutability": "view"
    },
    {
      "type": "function",
      "name": "getTotalSupply",
      "inputs": [],
      "outputs": [
        {
          "name": "",
          "type": "uint256",
          "internalType": "uint256"
        }
      ],
      "stateMutability": "view"
    },
    {
      "type": "function",
      "name": "isApprovedForAll",
      "inputs": [
        {
          "name": "owner",
          "type": "address",
          "internalType": "address"
        },
        {
          "name": "operator",
          "type": "address",
          "internalType": "address"
        }
      ],
      "outputs": [
        {
          "name": "",
          "type": "bool",
          "internalType": "bool"
        }
      ],
      "stateMutability": "view"
    },
    {
      "type": "function",
      "name": "lockToken",
      "inputs": [
        {
          "name": "_tokenId",
          "type": "uint256",
          "internalType": "uint256"
        }
      ],
      "outputs": [],
      "stateMutability": "nonpayable"
    },
    {
      "type": "function",
      "name": "mintBridgeGenesis",
      "inputs": [
        {
          "name": "_to",
          "type": "address",
          "internalType": "address"
        },
        {
          "name": "_params",
          "type": "tuple",
          "internalType": "struct Genesis.SVGParams",
          "components": [
            {
              "name": "hairParams",
              "type": "tuple",
              "internalType": "struct Genesis.HairParams",
              "components": [
                {
                  "name": "hairStyle",
                  "type": "uint8",
                  "internalType": "uint8"
                },
                {
                  "name": "hairColor",
                  "type": "uint8",
                  "internalType": "uint8"
                }
              ]
            },
            {
              "name": "bodyParams",
              "type": "tuple",
              "internalType": "struct Genesis.BodyParams",
              "components": [
                {
                  "name": "bodyType",
                  "type": "uint8",
                  "internalType": "uint8"
                },
                {
                  "name": "skinColor",
                  "type": "uint8",
                  "internalType": "uint8"
                }
              ]
            },
            {
              "name": "clothingParams",
              "type": "tuple",
              "internalType": "struct Genesis.ClothingParams",
              "components": [
                {
                  "name": "clothes",
                  "type": "uint8",
                  "internalType": "uint8"
                },
                {
                  "name": "clothingColor",
                  "type": "uint8",
                  "internalType": "uint8"
                },
                {
                  "name": "clothesGraphic",
                  "type": "uint8",
                  "internalType": "uint8"
                }
              ]
            },
            {
              "name": "facialFeaturesParams",
              "type": "tuple",
              "internalType": "struct Genesis.FacialFeaturesParams",
              "components": [
                {
                  "name": "eyebrowShape",
                  "type": "uint8",
                  "internalType": "uint8"
                },
                {
                  "name": "eyeShape",
                  "type": "uint8",
                  "internalType": "uint8"
                },
                {
                  "name": "facialHairType",
                  "type": "uint8",
                  "internalType": "uint8"
                },
                {
                  "name": "mouthStyle",
                  "type": "uint8",
                  "internalType": "uint8"
                },
                {
                  "name": "lipColor",
                  "type": "uint8",
                  "internalType": "uint8"
                }
              ]
            },
            {
              "name": "accessoryParams",
              "type": "tuple",
              "internalType": "struct Genesis.AccessoryParams",
              "components": [
                {
                  "name": "accessoryId",
                  "type": "uint8",
                  "internalType": "uint8"
                },
                {
                  "name": "hatStyle",
                  "type": "uint8",
                  "internalType": "uint8"
                },
                {
                  "name": "hatColor",
                  "type": "uint8",
                  "internalType": "uint8"
                }
              ]
            },
            {
              "name": "otherParams",
              "type": "tuple",
              "internalType": "struct Genesis.OtherParams",
              "components": [
                {
                  "name": "faceMask",
                  "type": "bool",
                  "internalType": "bool"
                },
                {
                  "name": "faceMaskColor",
                  "type": "uint8",
                  "internalType": "uint8"
                },
                {
                  "name": "shapes",
                  "type": "bool",
                  "internalType": "bool"
                },
                {
                  "name": "shapeColor",
                  "type": "uint8",
                  "internalType": "uint8"
                },
                {
                  "name": "lashes",
                  "type": "bool",
                  "internalType": "bool"
                }
              ]
            }
          ]
        },
        {
          "name": "_amount",
          "type": "uint256",
          "internalType": "uint256"
        },
        {
          "name": "_paymentToken",
          "type": "address",
          "internalType": "address"
        }
      ],
      "outputs": [
        {
          "name": "_tokenId",
          "type": "uint256",
          "internalType": "uint256"
        }
      ],
      "stateMutability": "nonpayable"
    },
    {
      "type": "function",
      "name": "mintBridgeToken",
      "inputs": [
        {
          "name": "_to",
          "type": "address",
          "internalType": "address"
        },
        {
          "name": "_tokenId",
          "type": "uint256",
          "internalType": "uint256"
        },
        {
          "name": "_params",
          "type": "tuple",
          "internalType": "struct Genesis.SVGParams",
          "components": [
            {
              "name": "hairParams",
              "type": "tuple",
              "internalType": "struct Genesis.HairParams",
              "components": [
                {
                  "name": "hairStyle",
                  "type": "uint8",
                  "internalType": "uint8"
                },
                {
                  "name": "hairColor",
                  "type": "uint8",
                  "internalType": "uint8"
                }
              ]
            },
            {
              "name": "bodyParams",
              "type": "tuple",
              "internalType": "struct Genesis.BodyParams",
              "components": [
                {
                  "name": "bodyType",
                  "type": "uint8",
                  "internalType": "uint8"
                },
                {
                  "name": "skinColor",
                  "type": "uint8",
                  "internalType": "uint8"
                }
              ]
            },
            {
              "name": "clothingParams",
              "type": "tuple",
              "internalType": "struct Genesis.ClothingParams",
              "components": [
                {
                  "name": "clothes",
                  "type": "uint8",
                  "internalType": "uint8"
                },
                {
                  "name": "clothingColor",
                  "type": "uint8",
                  "internalType": "uint8"
                },
                {
                  "name": "clothesGraphic",
                  "type": "uint8",
                  "internalType": "uint8"
                }
              ]
            },
            {
              "name": "facialFeaturesParams",
              "type": "tuple",
              "internalType": "struct Genesis.FacialFeaturesParams",
              "components": [
                {
                  "name": "eyebrowShape",
                  "type": "uint8",
                  "internalType": "uint8"
                },
                {
                  "name": "eyeShape",
                  "type": "uint8",
                  "internalType": "uint8"
                },
                {
                  "name": "facialHairType",
                  "type": "uint8",
                  "internalType": "uint8"
                },
                {
                  "name": "mouthStyle",
                  "type": "uint8",
                  "internalType": "uint8"
                },
                {
                  "name": "lipColor",
                  "type": "uint8",
                  "internalType": "uint8"
                }
              ]
            },
            {
              "name": "accessoryParams",
              "type": "tuple",
              "internalType": "struct Genesis.AccessoryParams",
              "components": [
                {
                  "name": "accessoryId",
                  "type": "uint8",
                  "internalType": "uint8"
                },
                {
                  "name": "hatStyle",
                  "type": "uint8",
                  "internalType": "uint8"
                },
                {
                  "name": "hatColor",
                  "type": "uint8",
                  "internalType": "uint8"
                }
              ]
            },
            {
              "name": "otherParams",
              "type": "tuple",
              "internalType": "struct Genesis.OtherParams",
              "components": [
                {
                  "name": "faceMask",
                  "type": "bool",
                  "internalType": "bool"
                },
                {
                  "name": "faceMaskColor",
                  "type": "uint8",
                  "internalType": "uint8"
                },
                {
                  "name": "shapes",
                  "type": "bool",
                  "internalType": "bool"
                },
                {
                  "name": "shapeColor",
                  "type": "uint8",
                  "internalType": "uint8"
                },
                {
                  "name": "lashes",
                  "type": "bool",
                  "internalType": "bool"
                }
              ]
            }
          ]
        },
        {
          "name": "_originChainId",
          "type": "uint256",
          "internalType": "uint256"
        }
      ],
      "outputs": [],
      "stateMutability": "nonpayable"
    },
    {
      "type": "function",
      "name": "mintGenesis",
      "inputs": [
        {
          "name": "_to",
          "type": "address",
          "internalType": "address"
        },
        {
          "name": "_params",
          "type": "tuple",
          "internalType": "struct Genesis.SVGParams",
          "components": [
            {
              "name": "hairParams",
              "type": "tuple",
              "internalType": "struct Genesis.HairParams",
              "components": [
                {
                  "name": "hairStyle",
                  "type": "uint8",
                  "internalType": "uint8"
                },
                {
                  "name": "hairColor",
                  "type": "uint8",
                  "internalType": "uint8"
                }
              ]
            },
            {
              "name": "bodyParams",
              "type": "tuple",
              "internalType": "struct Genesis.BodyParams",
              "components": [
                {
                  "name": "bodyType",
                  "type": "uint8",
                  "internalType": "uint8"
                },
                {
                  "name": "skinColor",
                  "type": "uint8",
                  "internalType": "uint8"
                }
              ]
            },
            {
              "name": "clothingParams",
              "type": "tuple",
              "internalType": "struct Genesis.ClothingParams",
              "components": [
                {
                  "name": "clothes",
                  "type": "uint8",
                  "internalType": "uint8"
                },
                {
                  "name": "clothingColor",
                  "type": "uint8",
                  "internalType": "uint8"
                },
                {
                  "name": "clothesGraphic",
                  "type": "uint8",
                  "internalType": "uint8"
                }
              ]
            },
            {
              "name": "facialFeaturesParams",
              "type": "tuple",
              "internalType": "struct Genesis.FacialFeaturesParams",
              "components": [
                {
                  "name": "eyebrowShape",
                  "type": "uint8",
                  "internalType": "uint8"
                },
                {
                  "name": "eyeShape",
                  "type": "uint8",
                  "internalType": "uint8"
                },
                {
                  "name": "facialHairType",
                  "type": "uint8",
                  "internalType": "uint8"
                },
                {
                  "name": "mouthStyle",
                  "type": "uint8",
                  "internalType": "uint8"
                },
                {
                  "name": "lipColor",
                  "type": "uint8",
                  "internalType": "uint8"
                }
              ]
            },
            {
              "name": "accessoryParams",
              "type": "tuple",
              "internalType": "struct Genesis.AccessoryParams",
              "components": [
                {
                  "name": "accessoryId",
                  "type": "uint8",
                  "internalType": "uint8"
                },
                {
                  "name": "hatStyle",
                  "type": "uint8",
                  "internalType": "uint8"
                },
                {
                  "name": "hatColor",
                  "type": "uint8",
                  "internalType": "uint8"
                }
              ]
            },
            {
              "name": "otherParams",
              "type": "tuple",
              "internalType": "struct Genesis.OtherParams",
              "components": [
                {
                  "name": "faceMask",
                  "type": "bool",
                  "internalType": "bool"
                },
                {
                  "name": "faceMaskColor",
                  "type": "uint8",
                  "internalType": "uint8"
                },
                {
                  "name": "shapes",
                  "type": "bool",
                  "internalType": "bool"
                },
                {
                  "name": "shapeColor",
                  "type": "uint8",
                  "internalType": "uint8"
                },
                {
                  "name": "lashes",
                  "type": "bool",
                  "internalType": "bool"
                }
              ]
            }
          ]
        },
        {
          "name": "_amount",
          "type": "uint256",
          "internalType": "uint256"
        },
        {
          "name": "_paymentToken",
          "type": "address",
          "internalType": "address"
        }
      ],
      "outputs": [
        {
          "name": "_tokenId",
          "type": "uint256",
          "internalType": "uint256"
        }
      ],
      "stateMutability": "nonpayable"
    },
    {
      "type": "function",
      "name": "name",
      "inputs": [],
      "outputs": [
        {
          "name": "",
          "type": "string",
          "internalType": "string"
        }
      ],
      "stateMutability": "view"
    },
    {
      "type": "function",
      "name": "ownerOf",
      "inputs": [
        {
          "name": "tokenId",
          "type": "uint256",
          "internalType": "uint256"
        }
      ],
      "outputs": [
        {
          "name": "",
          "type": "address",
          "internalType": "address"
        }
      ],
      "stateMutability": "view"
    },
    {
      "type": "function",
      "name": "safeTransferFrom",
      "inputs": [
        {
          "name": "from",
          "type": "address",
          "internalType": "address"
        },
        {
          "name": "to",
          "type": "address",
          "internalType": "address"
        },
        {
          "name": "tokenId",
          "type": "uint256",
          "internalType": "uint256"
        }
      ],
      "outputs": [],
      "stateMutability": "payable"
    },
    {
      "type": "function",
      "name": "safeTransferFrom",
      "inputs": [
        {
          "name": "from",
          "type": "address",
          "internalType": "address"
        },
        {
          "name": "to",
          "type": "address",
          "internalType": "address"
        },
        {
          "name": "tokenId",
          "type": "uint256",
          "internalType": "uint256"
        },
        {
          "name": "data",
          "type": "bytes",
          "internalType": "bytes"
        }
      ],
      "outputs": [],
      "stateMutability": "payable"
    },
    {
      "type": "function",
      "name": "setApprovalForAll",
      "inputs": [
        {
          "name": "operator",
          "type": "address",
          "internalType": "address"
        },
        {
          "name": "approved",
          "type": "bool",
          "internalType": "bool"
        }
      ],
      "outputs": [],
      "stateMutability": "nonpayable"
    },
    {
      "type": "function",
      "name": "symbol",
      "inputs": [],
      "outputs": [
        {
          "name": "",
          "type": "string",
          "internalType": "string"
        }
      ],
      "stateMutability": "view"
    },
    {
      "type": "function",
      "name": "totalSupply",
      "inputs": [],
      "outputs": [
        {
          "name": "",
          "type": "uint256",
          "internalType": "uint256"
        }
      ],
      "stateMutability": "view"
    },
    {
      "type": "function",
      "name": "transferFrom",
      "inputs": [
        {
          "name": "from",
          "type": "address",
          "internalType": "address"
        },
        {
          "name": "to",
          "type": "address",
          "internalType": "address"
        },
        {
          "name": "tokenId",
          "type": "uint256",
          "internalType": "uint256"
        }
      ],
      "outputs": [],
      "stateMutability": "payable"
    },
    {
      "type": "function",
      "name": "unlockToken",
      "inputs": [
        {
          "name": "_tokenId",
          "type": "uint256",
          "internalType": "uint256"
        }
      ],
      "outputs": [],
      "stateMutability": "nonpayable"
    },
    {
      "type": "event",
      "name": "Approval",
      "inputs": [
        {
          "name": "owner",
          "type": "address",
          "indexed": true,
          "internalType": "address"
        },
        {
          "name": "approved",
          "type": "address",
          "indexed": true,
          "internalType": "address"
        },
        {
          "name": "tokenId",
          "type": "uint256",
          "indexed": true,
          "internalType": "uint256"
        }
      ],
      "anonymous": false
    },
    {
      "type": "event",
      "name": "ApprovalForAll",
      "inputs": [
        {
          "name": "owner",
          "type": "address",
          "indexed": true,
          "internalType": "address"
        },
        {
          "name": "operator",
          "type": "address",
          "indexed": true,
          "internalType": "address"
        },
        {
          "name": "approved",
          "type": "bool",
          "indexed": false,
          "internalType": "bool"
        }
      ],
      "anonymous": false
    },
    {
      "type": "event",
      "name": "ConsecutiveTransfer",
      "inputs": [
        {
          "name": "fromTokenId",
          "type": "uint256",
          "indexed": true,
          "internalType": "uint256"
        },
        {
          "name": "toTokenId",
          "type": "uint256",
          "indexed": false,
          "internalType": "uint256"
        },
        {
          "name": "from",
          "type": "address",
          "indexed": true,
          "internalType": "address"
        },
        {
          "name": "to",
          "type": "address",
          "indexed": true,
          "internalType": "address"
        }
      ],
      "anonymous": false
    },
    {
      "type": "event",
      "name": "MintedGenesis",
      "inputs": [
        {
          "name": "owner",
          "type": "address",
          "indexed": true,
          "internalType": "address"
        },
        {
          "name": "tokenId",
          "type": "uint256",
          "indexed": true,
          "internalType": "uint256"
        }
      ],
      "anonymous": false
    },
    {
      "type": "event",
      "name": "ReturnedToSource",
      "inputs": [
        {
          "name": "owner",
          "type": "address",
          "indexed": true,
          "internalType": "address"
        },
        {
          "name": "tokenId",
          "type": "uint256",
          "indexed": true,
          "internalType": "uint256"
        }
      ],
      "anonymous": false
    },
    {
      "type": "event",
      "name": "TokenBurned",
      "inputs": [
        {
          "name": "owner",
          "type": "address",
          "indexed": true,
          "internalType": "address"
        },
        {
          "name": "tokenId",
          "type": "uint256",
          "indexed": true,
          "internalType": "uint256"
        }
      ],
      "anonymous": false
    },
    {
      "type": "event",
      "name": "Transfer",
      "inputs": [
        {
          "name": "from",
          "type": "address",
          "indexed": true,
          "internalType": "address"
        },
        {
          "name": "to",
          "type": "address",
          "indexed": true,
          "internalType": "address"
        },
        {
          "name": "tokenId",
          "type": "uint256",
          "indexed": true,
          "internalType": "uint256"
        }
      ],
      "anonymous": false
    },
    {
      "type": "error",
      "name": "ApprovalCallerNotOwnerNorApproved",
      "inputs": []
    },
    {
      "type": "error",
      "name": "ApprovalQueryForNonexistentToken",
      "inputs": []
    },
    {
      "type": "error",
      "name": "BalanceQueryForZeroAddress",
      "inputs": []
    },
    {
      "type": "error",
      "name": "IBeanHeadsBase__InsufficientAllowance",
      "inputs": []
    },
    {
      "type": "error",
      "name": "IBeanHeadsBase__InsufficientPayment",
      "inputs": []
    },
    {
      "type": "error",
      "name": "IBeanHeadsBase__InvalidOraclePrice",
      "inputs": []
    },
    {
      "type": "error",
      "name": "IBeanHeadsBase__NotOwner",
      "inputs": []
    },
    {
      "type": "error",
      "name": "IBeanHeadsBase__PriceMustBeGreaterThanZero",
      "inputs": []
    },
    {
      "type": "error",
      "name": "IBeanHeadsBase__TokenDoesNotExist",
      "inputs": []
    },
    {
      "type": "error",
      "name": "IBeanHeadsBase__TokenIsAlreadyListed",
      "inputs": []
    },
    {
      "type": "error",
      "name": "IBeanHeadsBase__TokenIsLocked",
      "inputs": []
    },
    {
      "type": "error",
      "name": "IBeanHeadsBase__TokenIsNotForSale",
      "inputs": []
    },
    {
      "type": "error",
      "name": "IBeanHeadsBase__TokenNotAllowed",
      "inputs": [
        {
          "name": "token",
          "type": "address",
          "internalType": "address"
        }
      ]
    },
    {
      "type": "error",
      "name": "IBeanHeadsMint__AlreadyLocked",
      "inputs": []
    },
    {
      "type": "error",
      "name": "IBeanHeadsMint__CannotBurnOriginToken",
      "inputs": []
    },
    {
      "type": "error",
      "name": "IBeanHeadsMint__InsufficientAllowance",
      "inputs": []
    },
    {
      "type": "error",
      "name": "IBeanHeadsMint__InsufficientPayment",
      "inputs": []
    },
    {
      "type": "error",
      "name": "IBeanHeadsMint__InvalidAmount",
      "inputs": []
    },
    {
      "type": "error",
      "name": "IBeanHeadsMint__InvalidOraclePrice",
      "inputs": []
    },
    {
      "type": "error",
      "name": "IBeanHeadsMint__MultiHopNotAllowed",
      "inputs": []
    },
    {
      "type": "error",
      "name": "IBeanHeadsMint__NotLocked",
      "inputs": []
    },
    {
      "type": "error",
      "name": "IBeanHeadsMint__NotOwner",
      "inputs": []
    },
    {
      "type": "error",
      "name": "IBeanHeadsMint__NotOwnerOrApproved",
      "inputs": []
    },
    {
      "type": "error",
      "name": "IBeanHeadsMint__TokenAlreadyExists",
      "inputs": []
    },
    {
      "type": "error",
      "name": "IBeanHeadsMint__TokenDoesNotExist",
      "inputs": []
    },
    {
      "type": "error",
      "name": "IBeanHeadsMint__TokenNotAllowed",
      "inputs": [
        {
          "name": "token",
          "type": "address",
          "internalType": "address"
        }
      ]
    },
    {
      "type": "error",
      "name": "IBeanHeadsMint__UnauthorizedBridge",
      "inputs": []
    },
    {
      "type": "error",
      "name": "InvalidTokenId",
      "inputs": []
    },
    {
      "type": "error",
      "name": "MintERC2309QuantityExceedsLimit",
      "inputs": []
    },
    {
      "type": "error",
      "name": "MintToZeroAddress",
      "inputs": []
    },
    {
      "type": "error",
      "name": "MintZeroQuantity",
      "inputs": []
    },
    {
      "type": "error",
      "name": "OwnerQueryForNonexistentToken",
      "inputs": []
    },
    {
      "type": "error",
      "name": "OwnershipNotInitializedForExtraData",
      "inputs": []
    },
    {
      "type": "error",
      "name": "TokenAlreadyExists",
      "inputs": []
    },
    {
      "type": "error",
      "name": "TransferCallerNotOwnerNorApproved",
      "inputs": []
    },
    {
      "type": "error",
      "name": "TransferFromIncorrectOwner",
      "inputs": []
    },
    {
      "type": "error",
      "name": "TransferToNonERC721ReceiverImplementer",
      "inputs": []
    },
    {
      "type": "error",
      "name": "TransferToZeroAddress",
      "inputs": []
    },
    {
      "type": "error",
      "name": "URIQueryForNonexistentToken",
      "inputs": []
    }
  ],
  "bytecode": {
    "object": "0x6080806040523461001657614485908161001b8239f35b5f80fdfe60806040526004361015610011575f80fd5b5f3560e01c806306fdde031461015f578063081812fc1461015a578063095ea7b31461015557806318160ddd1461015057806323b872dd1461014b5780632c33b9d91461014657806342842e0e146101415780636352211e1461013c57806370a08231146101375780637b47ec1a1461013257806380f203631461012d578063836387101461012857806395d89b4114610123578063a22cb4651461011e578063a462cd4914610119578063b88d4fde14610114578063c4e41b221461010f578063caa0f92a1461010f578063ce0a05201461010a578063dd2e0ac0146101055763e985e9c514610100575f80fd5b6118a5565b611789565b6115a2565b611548565b6114a7565b6112c1565b6111b7565b611090565b611030565b610f12565b610c0e565b610b37565b610add565b6109f6565b610766565b6106c1565b6105e3565b610410565b610370565b6101d4565b91908251928382525f5b8481106101ac5750507fffffffffffffffffffffffffffffffffffffffffffffffffffffffffffffffe0601f845f6020809697860101520116010190565b60208183018101518483018201520161016e565b9060206101d1928181520190610164565b90565b3461036c575f7ffffffffffffffffffffffffffffffffffffffffffffffffffffffffffffffffc36011261036c576040515f7f8785b62d5a7098417c833f00e99883e36791da2bbef1ddc66d7797ca0681c2d25460018160011c9160018116918215610362575b6020916020851084146103355784875260208701939081156102f85750600114610280575b61027c866102708188038261140c565b604051918291826101c0565b0390f35b7f8785b62d5a7098417c833f00e99883e36791da2bbef1ddc66d7797ca0681c2d25f90815294509192917f4eff6dd2ce7e3eed3d8c57a965022ef5c4089064f80bafbcccb1920be91b46a15b8386106102e757505050910190506102708261027c5f610260565b8054858701529482019481016102cc565b7fffffffffffffffffffffffffffffffffffffffffffffffffffffffffffffff0016845250505090151560051b0190506102708261027c5f610260565b7f4e487b71000000000000000000000000000000000000000000000000000000005f52602260045260245ffd5b92607f169261023b565b5f80fd5b3461036c5760207ffffffffffffffffffffffffffffffffffffffffffffffffffffffffffffffffc36011261036c5760206103ac60043561193e565b73ffffffffffffffffffffffffffffffffffffffff60405191168152f35b6004359073ffffffffffffffffffffffffffffffffffffffff8216820361036c57565b6024359073ffffffffffffffffffffffffffffffffffffffff8216820361036c57565b60407ffffffffffffffffffffffffffffffffffffffffffffffffffffffffffffffffc36011261036c576104426103ca565b6024359073ffffffffffffffffffffffffffffffffffffffff8061046584612a83565b1633036105bb578061047684612a83565b169182330361051d575b6104f5816104b5865f527f8785b62d5a7098417c833f00e99883e36791da2bbef1ddc66d7797ca0681c2d660205260405f2090565b9073ffffffffffffffffffffffffffffffffffffffff167fffffffffffffffffffffffff0000000000000000000000000000000000000000825416179055565b16907f8c5be1e5ebec7d5bd14f71427d1e84f3dd0314c0f7b2291e5b200ac8c7c3b9255f80a4005b60ff61058d3361056a8673ffffffffffffffffffffffffffffffffffffffff165f527f8785b62d5a7098417c833f00e99883e36791da2bbef1ddc66d7797ca0681c2d760205260405f2090565b9073ffffffffffffffffffffffffffffffffffffffff165f5260205260405f2090565b5416610480577fcfb3b942000000000000000000000000000000000000000000000000000000005f5260045ffd5b7f0e25afc9000000000000000000000000000000000000000000000000000000005f5260045ffd5b3461036c575f7ffffffffffffffffffffffffffffffffffffffffffffffffffffffffffffffffc36011261036c5760207f8785b62d5a7098417c833f00e99883e36791da2bbef1ddc66d7797ca0681c2d0547f8785b62d5a7098417c833f00e99883e36791da2bbef1ddc66d7797ca0681c2d1549003604051908152f35b7ffffffffffffffffffffffffffffffffffffffffffffffffffffffffffffffffc606091011261036c5773ffffffffffffffffffffffffffffffffffffffff90600435828116810361036c5791602435908116810361036c579060443590565b6106d36106cd36610661565b916119b8565b005b906102e07ffffffffffffffffffffffffffffffffffffffffffffffffffffffffffffffffc83011261036c5773ffffffffffffffffffffffffffffffffffffffff600435818116810361036c577fffffffffffffffffffffffffffffffffffffffffffffffffffffffffffffffdc6102809194011261036c576024916102a435916102c435908116810361036c5790565b3461036c57610774366106d5565b9080939293156109f1576107d66107d26107cb8473ffffffffffffffffffffffffffffffffffffffff165f527f791cad950d3b9b323a06def8cb8b7bf2c934c7f4cea39385f023ba145f9b93b260205260405f2090565b5460ff1690565b1590565b6109ec5773ffffffffffffffffffffffffffffffffffffffff938483169261086161082b610825857f791cad950d3b9b323a06def8cb8b7bf2c934c7f4cea39385f023ba145f9b93bb54611d0c565b836130e5565b610835818761339f565b7f8785b62d5a7098417c833f00e99883e36791da2bbef1ddc66d7797ca0681c2d05495309033906134ab565b61086b8386613590565b5f5b8381106108ad576040518061027c87808a8c167f54627187ccac9ad3566355b77d021df78dd877a086fef2e404a7fdaca4e5a6115f80a382526020820190565b806108ba60019287611d48565b6108f4856108ef835f527f791cad950d3b9b323a06def8cb8b7bf2c934c7f4cea39385f023ba145f9b93ae60205260405f2090565b6122e4565b6109446108ff61144d565b5f81525f60208201525f604082015261093f835f527f791cad950d3b9b323a06def8cb8b7bf2c934c7f4cea39385f023ba145f9b93ad60205260405f2090565b612391565b610979846104b5835f527f791cad950d3b9b323a06def8cb8b7bf2c934c7f4cea39385f023ba145f9b93b360205260405f2090565b6109b36109ad825f527f791cad950d3b9b323a06def8cb8b7bf2c934c7f4cea39385f023ba145f9b93af60205260405f2090565b60019055565b6109e546915f527f791cad950d3b9b323a06def8cb8b7bf2c934c7f4cea39385f023ba145f9b93c160205260405f2090565b550161086d565b612823565b6127fb565b6109ff36610661565b73ffffffffffffffffffffffffffffffffffffffff9291928083163314159081610a85575b81610a70575b50610a48576106d39260405192610a40846113b3565b5f8452612651565b7ff1ce7c7d000000000000000000000000000000000000000000000000000000005f5260045ffd5b339150610a7c8361193e565b1614155f610a2a565b905060ff610ad43361056a8673ffffffffffffffffffffffffffffffffffffffff165f527f8785b62d5a7098417c833f00e99883e36791da2bbef1ddc66d7797ca0681c2d760205260405f2090565b54161590610a24565b3461036c5760207ffffffffffffffffffffffffffffffffffffffffffffffffffffffffffffffffc36011261036c57602073ffffffffffffffffffffffffffffffffffffffff610b2e600435612a83565b16604051908152f35b3461036c5760207ffffffffffffffffffffffffffffffffffffffffffffffffffffffffffffffffc36011261036c57610b6e6103ca565b73ffffffffffffffffffffffffffffffffffffffff811615610be65767ffffffffffffffff610bdc60209273ffffffffffffffffffffffffffffffffffffffff165f527f8785b62d5a7098417c833f00e99883e36791da2bbef1ddc66d7797ca0681c2d560205260405f2090565b5416604051908152f35b7f8f4eb604000000000000000000000000000000000000000000000000000000005f5260045ffd5b3461036c5760207ffffffffffffffffffffffffffffffffffffffffffffffffffffffffffffffffc36011261036c57600435610c4981612745565b15610eea5760ff610c973373ffffffffffffffffffffffffffffffffffffffff165f527f791cad950d3b9b323a06def8cb8b7bf2c934c7f4cea39385f023ba145f9b93c260205260405f2090565b541615610ec257610cc9610cb0610cb0610cb084612a83565b73ffffffffffffffffffffffffffffffffffffffff1690565b3303610ebd57610d00815f527f791cad950d3b9b323a06def8cb8b7bf2c934c7f4cea39385f023ba145f9b93c160205260405f2090565b544614610eb857610d108161379f565b610d67610d44825f527f791cad950d3b9b323a06def8cb8b7bf2c934c7f4cea39385f023ba145f9b93ae60205260405f2090565b60055f918281558260018201558260028201558260038201558260048201550155565b610dac610d9b825f527f791cad950d3b9b323a06def8cb8b7bf2c934c7f4cea39385f023ba145f9b93ad60205260405f2090565b60025f918281558260018201550155565b610e08610de0825f527f791cad950d3b9b323a06def8cb8b7bf2c934c7f4cea39385f023ba145f9b93b360205260405f2090565b7fffffffffffffffffffffffff00000000000000000000000000000000000000008154169055565b5f8181527f791cad950d3b9b323a06def8cb8b7bf2c934c7f4cea39385f023ba145f9b93c16020526040812055610e91610e69825f527f791cad950d3b9b323a06def8cb8b7bf2c934c7f4cea39385f023ba145f9b93c060205260405f2090565b7fffffffffffffffffffffffffffffffffffffffffffffffffffffffffffffff008154169055565b337f1af5163f80e79b5e554f61e1d052084d3a3fe1166e42a265798c4e2ddce8ffa25f80a3005b61284b565b6105bb565b7fd8b7de09000000000000000000000000000000000000000000000000000000005f5260045ffd5b7f687e1724000000000000000000000000000000000000000000000000000000005f5260045ffd5b3461036c5760207ffffffffffffffffffffffffffffffffffffffffffffffffffffffffffffffffc36011261036c5760043560ff610f8d3373ffffffffffffffffffffffffffffffffffffffff165f527f791cad950d3b9b323a06def8cb8b7bf2c934c7f4cea39385f023ba145f9b93c260205260405f2090565b541615610ec257610f9d81612745565b15610eea57805f527f791cad950d3b9b323a06def8cb8b7bf2c934c7f4cea39385f023ba145f9b93c060205260ff60405f205416611008575f5260405f2060017fffffffffffffffffffffffffffffffffffffffffffffffffffffffffffffff008254161790555f80f35b7f24cc4ee6000000000000000000000000000000000000000000000000000000005f5260045ffd5b3461036c5760207ffffffffffffffffffffffffffffffffffffffffffffffffffffffffffffffffc36011261036c5760043561106b81612745565b15610eea5773ffffffffffffffffffffffffffffffffffffffff610b2e602092612a83565b3461036c575f7ffffffffffffffffffffffffffffffffffffffffffffffffffffffffffffffffc36011261036c576040515f7f8785b62d5a7098417c833f00e99883e36791da2bbef1ddc66d7797ca0681c2d35460018160011c91600181169182156111a3575b6020916020851084146103355784875260208701939081156102f8575060011461112b5761027c866102708188038261140c565b7f8785b62d5a7098417c833f00e99883e36791da2bbef1ddc66d7797ca0681c2d35f90815294509192917feab2a30426a14f07ecdc76635cd0729eb655bee4c9d04a8fb1b5d85c28c9dae35b83861061119257505050910190506102708261027c5f610260565b805485870152948201948101611177565b92607f16926110f7565b8015150361036c57565b3461036c5760407ffffffffffffffffffffffffffffffffffffffffffffffffffffffffffffffffc36011261036c576111ee6103ca565b73ffffffffffffffffffffffffffffffffffffffff60243591611210836111ad565b61128f8361125f8361056a3373ffffffffffffffffffffffffffffffffffffffff165f527f8785b62d5a7098417c833f00e99883e36791da2bbef1ddc66d7797ca0681c2d760205260405f2090565b9060ff7fffffffffffffffffffffffffffffffffffffffffffffffffffffffffffffff0083541691151516179055565b604051921515835216907f17307eab39ab6107e8899845ad3d59bd9653f200f220920489ca2b5937696c3160203392a3005b3461036c576102e07ffffffffffffffffffffffffffffffffffffffffffffffffffffffffffffffffc36011261036c576112f96103ca565b6102807fffffffffffffffffffffffffffffffffffffffffffffffffffffffffffffffbc36011261036c5760ff61136d3373ffffffffffffffffffffffffffffffffffffffff165f527f791cad950d3b9b323a06def8cb8b7bf2c934c7f4cea39385f023ba145f9b93c260205260405f2090565b541615610ec2576106d3906102c4359060243590612447565b7f4e487b71000000000000000000000000000000000000000000000000000000005f52604160045260245ffd5b6020810190811067ffffffffffffffff8211176113cf57604052565b611386565b60a0810190811067ffffffffffffffff8211176113cf57604052565b6040810190811067ffffffffffffffff8211176113cf57604052565b90601f7fffffffffffffffffffffffffffffffffffffffffffffffffffffffffffffffe0910116810190811067ffffffffffffffff8211176113cf57604052565b604051906060820182811067ffffffffffffffff8211176113cf57604052565b67ffffffffffffffff81116113cf57601f017fffffffffffffffffffffffffffffffffffffffffffffffffffffffffffffffe01660200190565b60807ffffffffffffffffffffffffffffffffffffffffffffffffffffffffffffffffc36011261036c576114d96103ca565b6114e16103ed565b6064359167ffffffffffffffff831161036c573660238401121561036c5782600401359161150e8361146d565b9261151c604051948561140c565b808452366024828701011161036c576020815f9260246106d39801838801378501015260443591612651565b3461036c575f7ffffffffffffffffffffffffffffffffffffffffffffffffffffffffffffffffc36011261036c5760207f8785b62d5a7098417c833f00e99883e36791da2bbef1ddc66d7797ca0681c2d054604051908152f35b3461036c576115b0366106d5565b60ff6115fc9392933373ffffffffffffffffffffffffffffffffffffffff165f527f791cad950d3b9b323a06def8cb8b7bf2c934c7f4cea39385f023ba145f9b93c260205260405f2090565b541615610ec25782156109f1576116566107d26107cb8373ffffffffffffffffffffffffffffffffffffffff165f527f791cad950d3b9b323a06def8cb8b7bf2c934c7f4cea39385f023ba145f9b93b260205260405f2090565b6109ec57611686837f8785b62d5a7098417c833f00e99883e36791da2bbef1ddc66d7797ca0681c2d05495613590565b5f5b83811061169a57604051858152602090f35b806116a760019287611d48565b6116dc856108ef835f527f791cad950d3b9b323a06def8cb8b7bf2c934c7f4cea39385f023ba145f9b93ae60205260405f2090565b6116e76108ff61144d565b61171c846104b5835f527f791cad950d3b9b323a06def8cb8b7bf2c934c7f4cea39385f023ba145f9b93b360205260405f2090565b6117506109ad825f527f791cad950d3b9b323a06def8cb8b7bf2c934c7f4cea39385f023ba145f9b93af60205260405f2090565b61178246915f527f791cad950d3b9b323a06def8cb8b7bf2c934c7f4cea39385f023ba145f9b93c160205260405f2090565b5501611688565b3461036c5760207ffffffffffffffffffffffffffffffffffffffffffffffffffffffffffffffffc36011261036c5760043560ff6118043373ffffffffffffffffffffffffffffffffffffffff165f527f791cad950d3b9b323a06def8cb8b7bf2c934c7f4cea39385f023ba145f9b93c260205260405f2090565b541615610ec25761181481612745565b15610eea57805f527f791cad950d3b9b323a06def8cb8b7bf2c934c7f4cea39385f023ba145f9b93c060205260ff60405f2054161561187d575f5260405f207fffffffffffffffffffffffffffffffffffffffffffffffffffffffffffffff0081541690555f80f35b7fe64eb0c4000000000000000000000000000000000000000000000000000000005f5260045ffd5b3461036c5760407ffffffffffffffffffffffffffffffffffffffffffffffffffffffffffffffffc36011261036c57602060ff6119326118e36103ca565b61056a6118ee6103ed565b9173ffffffffffffffffffffffffffffffffffffffff165f527f8785b62d5a7098417c833f00e99883e36791da2bbef1ddc66d7797ca0681c2d760205260405f2090565b54166040519015158152f35b61194781612745565b15611990575f527f8785b62d5a7098417c833f00e99883e36791da2bbef1ddc66d7797ca0681c2d660205273ffffffffffffffffffffffffffffffffffffffff60405f20541690565b7fcf4700e4000000000000000000000000000000000000000000000000000000005f5260045ffd5b9190916119c482612a83565b9273ffffffffffffffffffffffffffffffffffffffff809216938483821603611cda575f8481527f8785b62d5a7098417c833f00e99883e36791da2bbef1ddc66d7797ca0681c2d6602052604090208054611a3b73ffffffffffffffffffffffffffffffffffffffff881633908114908314171590565b611c7f575b611a4b868589612c82565b611c76575b50611a988573ffffffffffffffffffffffffffffffffffffffff165f527f8785b62d5a7098417c833f00e99883e36791da2bbef1ddc66d7797ca0681c2d560205260405f2090565b80547fffffffffffffffffffffffffffffffffffffffffffffffffffffffffffffffff019055611b058273ffffffffffffffffffffffffffffffffffffffff165f527f8785b62d5a7098417c833f00e99883e36791da2bbef1ddc66d7797ca0681c2d560205260405f2090565b8054600101905573ffffffffffffffffffffffffffffffffffffffff82164260a01b177c020000000000000000000000000000000000000000000000000000000017611b78855f527f8785b62d5a7098417c833f00e99883e36791da2bbef1ddc66d7797ca0681c2d460205260405f2090565b557c0200000000000000000000000000000000000000000000000000000000811615611bd3575b501680927fddf252ad1be2c89b69c2b068fc378daa952ba7f163c4a11628f55a4df523b3ef5f80a415611bce57565b6128c3565b60018401611c08815f527f8785b62d5a7098417c833f00e99883e36791da2bbef1ddc66d7797ca0681c2d460205260405f2090565b5415611c15575b50611b9f565b7f8785b62d5a7098417c833f00e99883e36791da2bbef1ddc66d7797ca0681c2d0548114611c0f57611c6e905f527f8785b62d5a7098417c833f00e99883e36791da2bbef1ddc66d7797ca0681c2d460205260405f2090565b555f80611c0f565b5f90555f611a50565b611cd06107d26107cb3361056a8b73ffffffffffffffffffffffffffffffffffffffff165f527f8785b62d5a7098417c833f00e99883e36791da2bbef1ddc66d7797ca0681c2d760205260405f2090565b15611a405761289b565b612873565b7f4e487b71000000000000000000000000000000000000000000000000000000005f52601160045260245ffd5b81810292918115918404141715611d1f57565b611cdf565b9060018201809211611d1f57565b90680100000000000000018201809211611d1f57565b91908201809211611d1f57565b60ff81160361036c57565b611de190611da1608435611d7381611d55565b829060ff167fffffffffffffffffffffffffffffffffffffffffffffffffffffffffffffff00825416179055565b60a43590611dae82611d55565b907fffffffffffffffffffffffffffffffffffffffffffffffffffffffffffff00ff61ff0083549260081b169116179055565b565b6020611de192611e258135611df781611d55565b849060ff167fffffffffffffffffffffffffffffffffffffffffffffffffffffffffffffff00825416179055565b013590611dae82611d55565b9055565b611e4460c435611d7381611d55565b611e8660e435611e5381611d55565b82547fffffffffffffffffffffffffffffffffffffffffffffffffffffffffffff00ff1660089190911b61ff0016178255565b611e3160ff61010435611e9881611d55565b83547fffffffffffffffffffffffffffffffffffffffffffffffffffffffffff00ffff16911660101b62ff0000161790565b611eda6101c435611d7381611d55565b611eea6101e435611e5381611d55565b611e3160ff61020435611e9881611d55565b9060ff6040611e3192611f418135611f1381611d55565b869060ff167fffffffffffffffffffffffffffffffffffffffffffffffffffffffffffffff00825416179055565b611f856020820135611f5281611d55565b86547fffffffffffffffffffffffffffffffffffffffffffffffffffffffffffff00ff1660089190911b61ff0016178655565b0135611e9881611d55565b611fd161022435611fa0816111ad565b829060ff7fffffffffffffffffffffffffffffffffffffffffffffffffffffffffffffff0083541691151516179055565b611fe161024435611e5381611d55565b61202461026435611ff1816111ad565b82547fffffffffffffffffffffffffffffffffffffffffffffffffffffffffff00ffff1690151560101b62ff0000161790565b815561206b6102843561203681611d55565b82547fffffffffffffffffffffffffffffffffffffffffffffffffffffffff00ffffff1660189190911b63ff00000016178255565b611e316102a43561207b816111ad565b82547fffffffffffffffffffffffffffffffffffffffffffffffffffffff00ffffffff1690151560201b64ff00000000161790565b906080611e31916120f681356120c5816111ad565b859060ff7fffffffffffffffffffffffffffffffffffffffffffffffffffffffffffffff0083541691151516179055565b61213a602082013561210781611d55565b85547fffffffffffffffffffffffffffffffffffffffffffffffffffffffffffff00ff1660089190911b61ff0016178555565b61217e604082013561214b816111ad565b85547fffffffffffffffffffffffffffffffffffffffffffffffffffffffffff00ffff1690151560101b62ff0000161790565b84556121c6606082013561219181611d55565b85547fffffffffffffffffffffffffffffffffffffffffffffffffffffffff00ffffff1660189190911b63ff00000016178555565b013561207b816111ad565b6005611de1916121e6604435611d7381611d55565b6121f5606435611e5381611d55565b61220160018201611d60565b61220d60028201611e35565b6003810161222161012435611d7381611d55565b61223161014435611e5381611d55565b61227a6101643561224181611d55565b82805490917fffffffffffffffffffffffffffffffffffffffffffffffffffffffffff00ffff90911660109190911b62ff000016179055565b61228a6101843561203681611d55565b6122d060ff6101a43561229c81611d55565b83547fffffffffffffffffffffffffffffffffffffffffffffffffffffff00ffffffff16911660201b64ff00000000161790565b90556122de60048201611eca565b01611f90565b60056101e0611de1936122f78185611de3565b6123076040820160018601611de3565b6123176080820160028601611efc565b6003840161232c60e0830135611d7381611d55565b61233e610100830135611e5381611d55565b61235061012083013561224181611d55565b61236261014083013561203681611d55565b61237660ff61016084013561229c81611d55565b9055612389610180820160048601611efc565b0191016120b0565b60026040611de1936123f573ffffffffffffffffffffffffffffffffffffffff825116859073ffffffffffffffffffffffffffffffffffffffff167fffffffffffffffffffffffff0000000000000000000000000000000000000000825416179055565b602081015160018501550151151591019060ff7fffffffffffffffffffffffffffffffffffffffffffffffffffffffffffffff0083541691151516179055565b60405190612442826113b3565b5f8252565b91909161245383612745565b61256b57612488835f527f791cad950d3b9b323a06def8cb8b7bf2c934c7f4cea39385f023ba145f9b93c160205260405f2090565b54918215928184159182612560575b505061255b5773ffffffffffffffffffffffffffffffffffffffff92612523575b506124c38382613d72565b6124fc6124f7845f527f791cad950d3b9b323a06def8cb8b7bf2c934c7f4cea39385f023ba145f9b93ae60205260405f2090565b6121d1565b167f54627187ccac9ad3566355b77d021df78dd877a086fef2e404a7fdaca4e5a6115f80a3565b612554845f527f791cad950d3b9b323a06def8cb8b7bf2c934c7f4cea39385f023ba145f9b93c160205260405f2090565b555f6124b8565b6128eb565b14159050815f612497565b90506125a46107d26107cb845f527f791cad950d3b9b323a06def8cb8b7bf2c934c7f4cea39385f023ba145f9b93c060205260405f2090565b61264c576125dc610e69835f527f791cad950d3b9b323a06def8cb8b7bf2c934c7f4cea39385f023ba145f9b93c060205260405f2090565b6125eb610cb0610cb084612a83565b9073ffffffffffffffffffffffffffffffffffffffff91828116612632575b50167f482469ed6d6f56569ed4bc4a5adc86cc115c7e09c1f5574b36d53373cdac21965f80a3565b612646908483612640612435565b92613aa0565b5f61260a565b61187d565b92919073ffffffffffffffffffffffffffffffffffffffff80851633141590816126ed575b816126d8575b50610a485761268c8282866119b8565b803b612699575b50505050565b6126a293614331565b156126b0575f808080612693565b7fd1a57ed6000000000000000000000000000000000000000000000000000000005f5260045ffd5b3391506126e48461193e565b1614155f61267c565b905060ff61273c3361056a8873ffffffffffffffffffffffffffffffffffffffff165f527f8785b62d5a7098417c833f00e99883e36791da2bbef1ddc66d7797ca0681c2d760205260405f2090565b54161590612676565b905f917f8785b62d5a7098417c833f00e99883e36791da2bbef1ddc66d7797ca0681c2d05481106127735750565b9091505b805f527f8785b62d5a7098417c833f00e99883e36791da2bbef1ddc66d7797ca0681c2d460205260405f2054806127d657508015611d1f577fffffffffffffffffffffffffffffffffffffffffffffffffffffffffffffffff01612777565b7c01000000000000000000000000000000000000000000000000000000009150161590565b7f28b4d3d1000000000000000000000000000000000000000000000000000000005f5260045ffd5b7f3e48f451000000000000000000000000000000000000000000000000000000005f5260045ffd5b7f65803194000000000000000000000000000000000000000000000000000000005f5260045ffd5b7fa1148100000000000000000000000000000000000000000000000000000000005f5260045ffd5b7f59c896be000000000000000000000000000000000000000000000000000000005f5260045ffd5b7fea553b34000000000000000000000000000000000000000000000000000000005f5260045ffd5b7f96ed3a18000000000000000000000000000000000000000000000000000000005f5260045ffd5b7fdf2d9b42000000000000000000000000000000000000000000000000000000005f5260045ffd5b7f0fb51c13000000000000000000000000000000000000000000000000000000005f5260045ffd5b7fd5a6b05d000000000000000000000000000000000000000000000000000000005f5260045ffd5b7f59ca34d4000000000000000000000000000000000000000000000000000000005f5260045ffd5b7fbf79ab09000000000000000000000000000000000000000000000000000000005f5260045ffd5b7fef07d5e4000000000000000000000000000000000000000000000000000000005f5260045ffd5b7fb562e8dd000000000000000000000000000000000000000000000000000000005f5260045ffd5b7f2e076300000000000000000000000000000000000000000000000000000000005f5260045ffd5b5f805260045ffd5b7fc991cbb1000000000000000000000000000000000000000000000000000000005f5260045ffd5b612ab4815f527f8785b62d5a7098417c833f00e99883e36791da2bbef1ddc66d7797ca0681c2d460205260405f2090565b54908115612ae457507c010000000000000000000000000000000000000000000000000000000081166129135790565b90507f8785b62d5a7098417c833f00e99883e36791da2bbef1ddc66d7797ca0681c2d054811015612913577fffffffffffffffffffffffffffffffffffffffffffffffffffffffffffffffff905b01612b64815f527f8785b62d5a7098417c833f00e99883e36791da2bbef1ddc66d7797ca0681c2d460205260405f2090565b54908115612bba57507c01000000000000000000000000000000000000000000000000000000008116156101d1577fdf2d9b42000000000000000000000000000000000000000000000000000000005f5260045ffd5b7fffffffffffffffffffffffffffffffffffffffffffffffffffffffffffffffff9150612b32565b8054821015612bf7575f5260205f2001905f90565b7f4e487b71000000000000000000000000000000000000000000000000000000005f52603260045260245ffd5b90815491680100000000000000008310156113cf5782612c4c916001611de195018155612be2565b9091907fffffffffffffffffffffffffffffffffffffffffffffffffffffffffffffffff83549160031b92831b921b1916179055565b9190915f5b60018110612d57575073ffffffffffffffffffffffffffffffffffffffff90818116612d2b575b508216612cb9575050565b5f5b60018110612cc857505050565b600190612d25612d158573ffffffffffffffffffffffffffffffffffffffff165f527f791cad950d3b9b323a06def8cb8b7bf2c934c7f4cea39385f023ba145f9b93b160205260405f2090565b612d1f8386611d48565b90612c24565b01612cbb565b5f5b60018110612d3b5750612cae565b80612d51612d4b60019387611d48565b84613fb9565b01612d2d565b612d618184611d48565b73ffffffffffffffffffffffffffffffffffffffff831615159081612d93575b50612d8e57600101612c87565b61293b565b612dc991506107cb905f527f791cad950d3b9b323a06def8cb8b7bf2c934c7f4cea39385f023ba145f9b93c060205260405f2090565b5f612d81565b9190915f5b828110612e70575073ffffffffffffffffffffffffffffffffffffffff8116612dfc57505050565b5f5b828110612e0b5750505050565b612e528273ffffffffffffffffffffffffffffffffffffffff165f527f791cad950d3b9b323a06def8cb8b7bf2c934c7f4cea39385f023ba145f9b93b160205260405f2090565b9080850191828611611d1f57600192612e6a91612c24565b01612dfe565b8084018411611d1f57600101612dd4565b5f5b60018110612ed0575073ffffffffffffffffffffffffffffffffffffffff8116612eab575050565b5f5b60018110612eba57505050565b80612eca612d4b60019386611d48565b01612ead565b612eda8184611d48565b73ffffffffffffffffffffffffffffffffffffffff831615159081612f07575b50612d8e57600101612e83565b612f3d91506107cb905f527f791cad950d3b9b323a06def8cb8b7bf2c934c7f4cea39385f023ba145f9b93c060205260405f2090565b5f612efa565b5f5b60018110612fe1575073ffffffffffffffffffffffffffffffffffffffff8116612f6d575050565b5f5b60018110612f7c57505050565b612fc38273ffffffffffffffffffffffffffffffffffffffff165f527f791cad950d3b9b323a06def8cb8b7bf2c934c7f4cea39385f023ba145f9b93b160205260405f2090565b9080840191828511611d1f57600192612fdb91612c24565b01612f6f565b8083018311611d1f57600101612f45565b519069ffffffffffffffffffff8216820361036c57565b908160a091031261036c5761301d81612ff2565b916020820151916040810151916101d1608060608401519301612ff2565b6040513d5f823e3d90fd5b9081602091031261036c57516101d181611d55565b60ff16604d8111611d1f57600a0a90565b8115613076570490565b7f4e487b71000000000000000000000000000000000000000000000000000000005f52601260045260245ffd5b60ff166012039060ff8211611d1f57565b60ff7fffffffffffffffffffffffffffffffffffffffffffffffffffffffffffffffee9116019060ff8211611d1f57565b9073ffffffffffffffffffffffffffffffffffffffff806131606131468573ffffffffffffffffffffffffffffffffffffffff165f527f791cad950d3b9b323a06def8cb8b7bf2c934c7f4cea39385f023ba145f9b93b460205260405f2090565b5473ffffffffffffffffffffffffffffffffffffffff1690565b161561338b576131b6610cb0610cb06131468673ffffffffffffffffffffffffffffffffffffffff165f527f791cad950d3b9b323a06def8cb8b7bf2c934c7f4cea39385f023ba145f9b93b460205260405f2090565b92604051907ffeaf968c00000000000000000000000000000000000000000000000000000000825260a082600481885afa918215613306575f925f935f925f92613350575b505f851392831593613347575b50821561332d575b50506133285760405193847f313ce567000000000000000000000000000000000000000000000000000000009687825281600460209889935afa9384156133065761327360049361326d8997613278955f9161330b575b5061305b565b90611d0c565b61306c565b9560405194859384928352165afa918215613306575f926132d9575b505060ff8116601281106132c2576012106132ad575090565b9061326d6132bd6101d1936130b4565b61305b565b50906132d36132bd6101d1936130a3565b9061306c565b6132f89250803d106132ff575b6132f0818361140c565b810190613046565b5f80613294565b503d6132e6565b61303b565b6133229150893d8b116132ff576132f0818361140c565b5f613267565b61298b565b69ffffffffffffffffffff90811691161090505f80613210565b1592505f613208565b9250505061337791925060a03d60a011613384575b61336f818361140c565b810190613009565b929493909291505f6131fb565b503d613365565b612963565b9081602091031261036c575190565b6040517fdd62ed3e00000000000000000000000000000000000000000000000000000000815233600482015230602482015260209173ffffffffffffffffffffffffffffffffffffffff16908281604481855afa80156133065784915f9161348e575b5010613489576040517f70a08231000000000000000000000000000000000000000000000000000000008152336004820152908290829060249082905afa918215613306575f9261345c575b50501061345757565b6129db565b61347b9250803d10613482575b613473818361140c565b810190613390565b5f8061344e565b503d613469565b6129b3565b6134a59150843d861161348257613473818361140c565b5f613402565b5f613563949381926040519560208701957f23b872dd00000000000000000000000000000000000000000000000000000000875273ffffffffffffffffffffffffffffffffffffffff938480921660248a0152166044880152606487015260648652613516866113d4565b169260405194613525866113f0565b602086527f5361666545524332303a206c6f772d6c6576656c2063616c6c206661696c65646020870152519082855af161355d61422c565b91614387565b80518061356e575050565b816020918101031261036c576020611de191015161358b816111ad565b6140f5565b60405161359c816113b3565b5f81527f8785b62d5a7098417c833f00e99883e36791da2bbef1ddc66d7797ca0681c2d091825490841561379a576135d5858383612dcf565b60019173ffffffffffffffffffffffffffffffffffffffff82164260a01b87851460e11b171761362c825f527f8785b62d5a7098417c833f00e99883e36791da2bbef1ddc66d7797ca0681c2d460205260405f2090565b556136748273ffffffffffffffffffffffffffffffffffffffff165f527f8785b62d5a7098417c833f00e99883e36791da2bbef1ddc66d7797ca0681c2d560205260405f2090565b680100000000000000018702815401905573ffffffffffffffffffffffffffffffffffffffff821680156137955786820191908480805b613746575b505050506136dc907f8785b62d5a7098417c833f00e99883e36791da2bbef1ddc66d7797ca0681c2d055565b803b6136ea575b5050505050565b83549485039180805b613712575b5050505050540361370d575f808080806136e3565b612a53565b15613739575b5f61372a6107d286848701968661425b565b61373457816136f3565b6126b0565b85831061371857806136f8565b1561377d575b505f8583835f7fddf252ad1be2c89b69c2b068fc378daa952ba7f163c4a11628f55a4df523b3ef8180a490816136ab565b9091019082821461378e578461374c565b84816136b0565b612a2b565b612a03565b6137a881612a83565b73ffffffffffffffffffffffffffffffffffffffff81166137f3835f527f8785b62d5a7098417c833f00e99883e36791da2bbef1ddc66d7797ca0681c2d660205260405f2090815490565b929061381b73ffffffffffffffffffffffffffffffffffffffff841633908114908614171590565b613a45575b5f9361382c8685612e81565b613a3c575b506138798273ffffffffffffffffffffffffffffffffffffffff165f527f8785b62d5a7098417c833f00e99883e36791da2bbef1ddc66d7797ca0681c2d560205260405f2090565b80546fffffffffffffffffffffffffffffffff01905573ffffffffffffffffffffffffffffffffffffffff82164260a01b177c0300000000000000000000000000000000000000000000000000000000176138fb855f527f8785b62d5a7098417c833f00e99883e36791da2bbef1ddc66d7797ca0681c2d460205260405f2090565b557c0200000000000000000000000000000000000000000000000000000000811615613999575b507fddf252ad1be2c89b69c2b068fc378daa952ba7f163c4a11628f55a4df523b3ef8280a4611de16139757f8785b62d5a7098417c833f00e99883e36791da2bbef1ddc66d7797ca0681c2d15460010190565b7f8785b62d5a7098417c833f00e99883e36791da2bbef1ddc66d7797ca0681c2d155565b600184016139ce815f527f8785b62d5a7098417c833f00e99883e36791da2bbef1ddc66d7797ca0681c2d460205260405f2090565b54156139db575b50613922565b7f8785b62d5a7098417c833f00e99883e36791da2bbef1ddc66d7797ca0681c2d05481146139d557613a34905f527f8785b62d5a7098417c833f00e99883e36791da2bbef1ddc66d7797ca0681c2d460205260405f2090565b555f806139d5565b8390555f613831565b613a966107d26107cb3361056a8773ffffffffffffffffffffffffffffffffffffffff165f527f8785b62d5a7098417c833f00e99883e36791da2bbef1ddc66d7797ca0681c2d760205260405f2090565b156138205761289b565b91929092613aad81612a83565b73ffffffffffffffffffffffffffffffffffffffff90818516918281831603611cda578391613b06835f527f8785b62d5a7098417c833f00e99883e36791da2bbef1ddc66d7797ca0681c2d660205260405f2090815490565b613b11858b88612c82565b613d5c575b50613b5e8473ffffffffffffffffffffffffffffffffffffffff165f527f8785b62d5a7098417c833f00e99883e36791da2bbef1ddc66d7797ca0681c2d560205260405f2090565b80547fffffffffffffffffffffffffffffffffffffffffffffffffffffffffffffffff019055613bcb8873ffffffffffffffffffffffffffffffffffffffff165f527f8785b62d5a7098417c833f00e99883e36791da2bbef1ddc66d7797ca0681c2d560205260405f2090565b8054600101905573ffffffffffffffffffffffffffffffffffffffff88164260a01b177c020000000000000000000000000000000000000000000000000000000017613c3e845f527f8785b62d5a7098417c833f00e99883e36791da2bbef1ddc66d7797ca0681c2d460205260405f2090565b557c0200000000000000000000000000000000000000000000000000000000811615613cb9575b50861680927fddf252ad1be2c89b69c2b068fc378daa952ba7f163c4a11628f55a4df523b3ef5f80a415611bce57833b613c9f5750505050565b613cac936107d293614331565b613734575f808080612693565b60018301613cee815f527f8785b62d5a7098417c833f00e99883e36791da2bbef1ddc66d7797ca0681c2d460205260405f2090565b5415613cfb575b50613c65565b7f8785b62d5a7098417c833f00e99883e36791da2bbef1ddc66d7797ca0681c2d0548114613cf557613d54905f527f8785b62d5a7098417c833f00e99883e36791da2bbef1ddc66d7797ca0681c2d460205260405f2090565b555f80613cf5565b5f90555f613b16565b91908203918211611d1f57565b73ffffffffffffffffffffffffffffffffffffffff8116918215613795577f8785b62d5a7098417c833f00e99883e36791da2bbef1ddc66d7797ca0681c2d0805493848310613fb457613e95848493611de197613dd286613ecb99612f43565b613ddc8187613d65565b80613eef575b50505073ffffffffffffffffffffffffffffffffffffffff81164260a01b177c020000000000000000000000000000000000000000000000000000000017613e51855f527f8785b62d5a7098417c833f00e99883e36791da2bbef1ddc66d7797ca0681c2d460205260405f2090565b5573ffffffffffffffffffffffffffffffffffffffff165f527f8785b62d5a7098417c833f00e99883e36791da2bbef1ddc66d7797ca0681c2d560205260405f2090565b613e9f8154611d32565b90555f7fddf252ad1be2c89b69c2b068fc378daa952ba7f163c4a11628f55a4df523b3ef8180a4611d24565b7f8785b62d5a7098417c833f00e99883e36791da2bbef1ddc66d7797ca0681c2d055565b613fa392613ecb9260018303613fab57613f6e7c02000000000000000000000000000000000000000000000000000000005b7c010000000000000000000000000000000000000000000000000000000017915f527f8785b62d5a7098417c833f00e99883e36791da2bbef1ddc66d7797ca0681c2d460205260405f2090565b55613f9d613975837f8785b62d5a7098417c833f00e99883e36791da2bbef1ddc66d7797ca0681c2d154611d48565b54611d48565b5f8080613de2565b613f6e5f613f21565b612a5b565b6140009073ffffffffffffffffffffffffffffffffffffffff165f527f791cad950d3b9b323a06def8cb8b7bf2c934c7f4cea39385f023ba145f9b93b160205260405f2090565b80545f5b8181106140115750505050565b8361401c8285612be2565b919054600392831b1c146140335750600101614004565b919293507fffffffffffffffffffffffffffffffffffffffffffffffffffffffffffffffff92838101908111611d1f5761408092614074612c4c9287612be2565b9054911b1c9185612be2565b815480156140c85701906140c56140978383612be2565b7fffffffffffffffffffffffffffffffffffffffffffffffffffffffffffffffff82549160031b1b19169055565b55565b7f4e487b71000000000000000000000000000000000000000000000000000000005f52603160045260245ffd5b156140fc57565b60846040517f08c379a000000000000000000000000000000000000000000000000000000000815260206004820152602a60248201527f5361666545524332303a204552433230206f7065726174696f6e20646964206e60448201527f6f742073756363656564000000000000000000000000000000000000000000006064820152fd5b9081602091031261036c57517fffffffff000000000000000000000000000000000000000000000000000000008116810361036c5790565b6101d1939273ffffffffffffffffffffffffffffffffffffffff6080931682525f602083015260408201528160608201520190610164565b90926101d1949360809373ffffffffffffffffffffffffffffffffffffffff809216845216602083015260408201528160608201520190610164565b3d15614256573d9061423d8261146d565b9161424b604051938461140c565b82523d5f602084013e565b606090565b6142b160209173ffffffffffffffffffffffffffffffffffffffff93945f6040519586809581947f150b7a02000000000000000000000000000000000000000000000000000000009a8b845233600485016141b8565b0393165af15f9181614300575b506142da576142cb61422c565b8051156126b057805190602001fd5b7fffffffff00000000000000000000000000000000000000000000000000000000161490565b61432391925060203d60201161432a575b61431b818361140c565b810190614180565b905f6142be565b503d614311565b926020916142b1935f73ffffffffffffffffffffffffffffffffffffffff6040518097819682957f150b7a02000000000000000000000000000000000000000000000000000000009b8c855233600486016141f0565b91929015614402575081511561439b575090565b3b156143a45790565b60646040517f08c379a000000000000000000000000000000000000000000000000000000000815260206004820152601d60248201527f416464726573733a2063616c6c20746f206e6f6e2d636f6e74726163740000006044820152fd5b8251909150156144155750805190602001fd5b61444b906040519182917f08c379a0000000000000000000000000000000000000000000000000000000008352600483016101c0565b0390fdfea2646970667358221220a69d4fae5d5c3ee2a5b8ad240f7fab76e865278360fee9dd06218b77983898fd64736f6c63430008180033",
    "linkReferences": {}
  },
  "methodIdentifiers": {
    "approve(address,uint256)": "095ea7b3",
    "balanceOf(address)": "70a08231",
    "burnToken(uint256)": "7b47ec1a",
    "getApproved(uint256)": "081812fc",
    "getNextTokenId()": "caa0f92a",
    "getOwnerOf(uint256)": "83638710",
    "getTotalSupply()": "c4e41b22",
    "isApprovedForAll(address,address)": "e985e9c5",
    "lockToken(uint256)": "80f20363",
    "mintBridgeGenesis(address,((uint8,uint8),(uint8,uint8),(uint8,uint8,uint8),(uint8,uint8,uint8,uint8,uint8),(uint8,uint8,uint8),(bool,uint8,bool,uint8,bool)),uint256,address)": "ce0a0520",
    "mintBridgeToken(address,uint256,((uint8,uint8),(uint8,uint8),(uint8,uint8,uint8),(uint8,uint8,uint8,uint8,uint8),(uint8,uint8,uint8),(bool,uint8,bool,uint8,bool)),uint256)": "a462cd49",
    "mintGenesis(address,((uint8,uint8),(uint8,uint8),(uint8,uint8,uint8),(uint8,uint8,uint8,uint8,uint8),(uint8,uint8,uint8),(bool,uint8,bool,uint8,bool)),uint256,address)": "2c33b9d9",
    "name()": "06fdde03",
    "ownerOf(uint256)": "6352211e",
    "safeTransferFrom(address,address,uint256)": "42842e0e",
    "safeTransferFrom(address,address,uint256,bytes)": "b88d4fde",
    "setApprovalForAll(address,bool)": "a22cb465",
    "symbol()": "95d89b41",
    "totalSupply()": "18160ddd",
    "transferFrom(address,address,uint256)": "23b872dd",
    "unlockToken(uint256)": "dd2e0ac0"
  },
  "id": 128
}