{"abi":[{"type":"function","name":"DOMAIN_SEPARATOR","inputs":[],"outputs":[{"name":"","type":"bytes32","internalType":"bytes32"}],"stateMutability":"view"},{"type":"function","name":"approve","inputs":[{"name":"to","type":"address","internalType":"address"},{"name":"tokenId","type":"uint256","internalType":"uint256"}],"outputs":[],"stateMutability":"payable"},{"type":"function","name":"balanceOf","inputs":[{"name":"owner","type":"address","internalType":"address"}],"outputs":[{"name":"","type":"uint256","internalType":"uint256"}],"stateMutability":"view"},{"type":"function","name":"batchCancelTokenSalesWithPermit","inputs":[{"name":"cancelRequests","type":"tuple[]","internalType":"struct PermitTypes.Cancel[]","components":[{"name":"seller","type":"address","internalType":"address"},{"name":"tokenId","type":"uint256","internalType":"uint256"},{"name":"listingNonce","type":"uint256","internalType":"uint256"},{"name":"deadline","type":"uint64","internalType":"uint64"}]},{"name":"cancelSigs","type":"bytes[]","internalType":"bytes[]"}],"outputs":[],"stateMutability":"nonpayable"},{"type":"function","name":"batchSellTokensWithPermit","inputs":[{"name":"sellRequests","type":"tuple[]","internalType":"struct PermitTypes.Sell[]","components":[{"name":"owner","type":"address","internalType":"address"},{"name":"tokenId","type":"uint256","internalType":"uint256"},{"name":"price","type":"uint256","internalType":"uint256"},{"name":"nonce","type":"uint256","internalType":"uint256"},{"name":"deadline","type":"uint64","internalType":"uint64"}]},{"name":"sellSigs","type":"bytes[]","internalType":"bytes[]"},{"name":"permitDeadlines","type":"uint256[]","internalType":"uint256[]"},{"name":"permitSigs","type":"bytes[]","internalType":"bytes[]"}],"outputs":[],"stateMutability":"nonpayable"},{"type":"function","name":"buyTokenWithPermit","inputs":[{"name":"b","type":"tuple","internalType":"struct PermitTypes.Buy","components":[{"name":"buyer","type":"address","internalType":"address"},{"name":"paymentToken","type":"address","internalType":"address"},{"name":"recipient","type":"address","internalType":"address"},{"name":"tokenId","type":"uint256","internalType":"uint256"},{"name":"maxPriceUsd","type":"uint256","internalType":"uint256"},{"name":"listingNonce","type":"uint256","internalType":"uint256"},{"name":"deadline","type":"uint64","internalType":"uint64"}]},{"name":"buySig","type":"bytes","internalType":"bytes"},{"name":"permitValue","type":"uint256","internalType":"uint256"},{"name":"permitDeadline","type":"uint256","internalType":"uint256"},{"name":"v","type":"uint8","internalType":"uint8"},{"name":"r","type":"bytes32","internalType":"bytes32"},{"name":"s","type":"bytes32","internalType":"bytes32"}],"outputs":[],"stateMutability":"nonpayable"},{"type":"function","name":"cancelTokenSaleWithPermit","inputs":[{"name":"c","type":"tuple","internalType":"struct PermitTypes.Cancel","components":[{"name":"seller","type":"address","internalType":"address"},{"name":"tokenId","type":"uint256","internalType":"uint256"},{"name":"listingNonce","type":"uint256","internalType":"uint256"},{"name":"deadline","type":"uint64","internalType":"uint64"}]},{"name":"cancelSig","type":"bytes","internalType":"bytes"}],"outputs":[],"stateMutability":"nonpayable"},{"type":"function","name":"eip712Domain","inputs":[],"outputs":[{"name":"fields","type":"bytes1","internalType":"bytes1"},{"name":"name","type":"string","internalType":"string"},{"name":"version","type":"string","internalType":"string"},{"name":"chainId","type":"uint256","internalType":"uint256"},{"name":"verifyingContract","type":"address","internalType":"address"},{"name":"salt","type":"bytes32","internalType":"bytes32"},{"name":"extensions","type":"uint256[]","internalType":"uint256[]"}],"stateMutability":"view"},{"type":"function","name":"getApproved","inputs":[{"name":"tokenId","type":"uint256","internalType":"uint256"}],"outputs":[{"name":"","type":"address","internalType":"address"}],"stateMutability":"view"},{"type":"function","name":"isApprovedForAll","inputs":[{"name":"owner","type":"address","internalType":"address"},{"name":"operator","type":"address","internalType":"address"}],"outputs":[{"name":"","type":"bool","internalType":"bool"}],"stateMutability":"view"},{"type":"function","name":"name","inputs":[],"outputs":[{"name":"","type":"string","internalType":"string"}],"stateMutability":"view"},{"type":"function","name":"nonces","inputs":[{"name":"tokenId","type":"uint256","internalType":"uint256"}],"outputs":[{"name":"","type":"uint256","internalType":"uint256"}],"stateMutability":"view"},{"type":"function","name":"onERC721Received","inputs":[{"name":"","type":"address","internalType":"address"},{"name":"","type":"address","internalType":"address"},{"name":"","type":"uint256","internalType":"uint256"},{"name":"","type":"bytes","internalType":"bytes"}],"outputs":[{"name":"","type":"bytes4","internalType":"bytes4"}],"stateMutability":"pure"},{"type":"function","name":"ownerOf","inputs":[{"name":"tokenId","type":"uint256","internalType":"uint256"}],"outputs":[{"name":"","type":"address","internalType":"address"}],"stateMutability":"view"},{"type":"function","name":"permit","inputs":[{"name":"spender","type":"address","internalType":"address"},{"name":"tokenId","type":"uint256","internalType":"uint256"},{"name":"deadline","type":"uint256","internalType":"uint256"},{"name":"sig","type":"bytes","internalType":"bytes"}],"outputs":[],"stateMutability":"nonpayable"},{"type":"function","name":"safeTransferFrom","inputs":[{"name":"from","type":"address","internalType":"address"},{"name":"to","type":"address","internalType":"address"},{"name":"tokenId","type":"uint256","internalType":"uint256"}],"outputs":[],"stateMutability":"payable"},{"type":"function","name":"safeTransferFrom","inputs":[{"name":"from","type":"address","internalType":"address"},{"name":"to","type":"address","internalType":"address"},{"name":"tokenId","type":"uint256","internalType":"uint256"},{"name":"_data","type":"bytes","internalType":"bytes"}],"outputs":[],"stateMutability":"payable"},{"type":"function","name":"sellTokenWithPermit","inputs":[{"name":"s","type":"tuple","internalType":"struct PermitTypes.Sell","components":[{"name":"owner","type":"address","internalType":"address"},{"name":"tokenId","type":"uint256","internalType":"uint256"},{"name":"price","type":"uint256","internalType":"uint256"},{"name":"nonce","type":"uint256","internalType":"uint256"},{"name":"deadline","type":"uint64","internalType":"uint64"}]},{"name":"sellSig","type":"bytes","internalType":"bytes"},{"name":"permitDeadline","type":"uint256","internalType":"uint256"},{"name":"permitSig","type":"bytes","internalType":"bytes"}],"outputs":[],"stateMutability":"nonpayable"},{"type":"function","name":"setApprovalForAll","inputs":[{"name":"operator","type":"address","internalType":"address"},{"name":"approved","type":"bool","internalType":"bool"}],"outputs":[],"stateMutability":"nonpayable"},{"type":"function","name":"supportsInterface","inputs":[{"name":"interfaceId","type":"bytes4","internalType":"bytes4"}],"outputs":[{"name":"","type":"bool","internalType":"bool"}],"stateMutability":"view"},{"type":"function","name":"symbol","inputs":[],"outputs":[{"name":"","type":"string","internalType":"string"}],"stateMutability":"view"},{"type":"function","name":"totalSupply","inputs":[],"outputs":[{"name":"","type":"uint256","internalType":"uint256"}],"stateMutability":"view"},{"type":"function","name":"transferFrom","inputs":[{"name":"from","type":"address","internalType":"address"},{"name":"to","type":"address","internalType":"address"},{"name":"tokenId","type":"uint256","internalType":"uint256"}],"outputs":[],"stateMutability":"payable"},{"type":"event","name":"Approval","inputs":[{"name":"owner","type":"address","indexed":true,"internalType":"address"},{"name":"approved","type":"address","indexed":true,"internalType":"address"},{"name":"tokenId","type":"uint256","indexed":true,"internalType":"uint256"}],"anonymous":false},{"type":"event","name":"ApprovalForAll","inputs":[{"name":"owner","type":"address","indexed":true,"internalType":"address"},{"name":"operator","type":"address","indexed":true,"internalType":"address"},{"name":"approved","type":"bool","indexed":false,"internalType":"bool"}],"anonymous":false},{"type":"event","name":"ConsecutiveTransfer","inputs":[{"name":"fromTokenId","type":"uint256","indexed":true,"internalType":"uint256"},{"name":"toTokenId","type":"uint256","indexed":false,"internalType":"uint256"},{"name":"from","type":"address","indexed":true,"internalType":"address"},{"name":"to","type":"address","indexed":true,"internalType":"address"}],"anonymous":false},{"type":"event","name":"RoyaltyPaidCrossChain","inputs":[{"name":"receiver","type":"address","indexed":true,"internalType":"address"},{"name":"tokenId","type":"uint256","indexed":true,"internalType":"uint256"},{"name":"salePrice","type":"uint256","indexed":false,"internalType":"uint256"},{"name":"royaltyAmount","type":"uint256","indexed":false,"internalType":"uint256"}],"anonymous":false},{"type":"event","name":"TokenListedCrossChain","inputs":[{"name":"owner","type":"address","indexed":true,"internalType":"address"},{"name":"tokenId","type":"uint256","indexed":true,"internalType":"uint256"},{"name":"price","type":"uint256","indexed":false,"internalType":"uint256"}],"anonymous":false},{"type":"event","name":"TokenSaleCancelledCrossChain","inputs":[{"name":"owner","type":"address","indexed":true,"internalType":"address"},{"name":"tokenId","type":"uint256","indexed":true,"internalType":"uint256"}],"anonymous":false},{"type":"event","name":"TokenSoldCrossChain","inputs":[{"name":"buyer","type":"address","indexed":true,"internalType":"address"},{"name":"seller","type":"address","indexed":true,"internalType":"address"},{"name":"tokenId","type":"uint256","indexed":true,"internalType":"uint256"},{"name":"salePrice","type":"uint256","indexed":false,"internalType":"uint256"}],"anonymous":false},{"type":"event","name":"Transfer","inputs":[{"name":"from","type":"address","indexed":true,"internalType":"address"},{"name":"to","type":"address","indexed":true,"internalType":"address"},{"name":"tokenId","type":"uint256","indexed":true,"internalType":"uint256"}],"anonymous":false},{"type":"error","name":"ApprovalCallerNotOwnerNorApproved","inputs":[]},{"type":"error","name":"ApprovalQueryForNonexistentToken","inputs":[]},{"type":"error","name":"BalanceQueryForZeroAddress","inputs":[]},{"type":"error","name":"IBeanHeadsBase__InsufficientAllowance","inputs":[]},{"type":"error","name":"IBeanHeadsBase__InsufficientPayment","inputs":[]},{"type":"error","name":"IBeanHeadsBase__InvalidOraclePrice","inputs":[]},{"type":"error","name":"IBeanHeadsBase__NotOwner","inputs":[]},{"type":"error","name":"IBeanHeadsBase__PriceMustBeGreaterThanZero","inputs":[]},{"type":"error","name":"IBeanHeadsBase__TokenDoesNotExist","inputs":[]},{"type":"error","name":"IBeanHeadsBase__TokenIsAlreadyListed","inputs":[]},{"type":"error","name":"IBeanHeadsBase__TokenIsLocked","inputs":[]},{"type":"error","name":"IBeanHeadsBase__TokenIsNotForSale","inputs":[]},{"type":"error","name":"IBeanHeadsBase__TokenNotAllowed","inputs":[{"name":"token","type":"address","internalType":"address"}]},{"type":"error","name":"IBeanHeadsMarketplaceSig__InsufficientAllowance","inputs":[]},{"type":"error","name":"IBeanHeadsMarketplaceSig__InsufficientPayment","inputs":[]},{"type":"error","name":"IBeanHeadsMarketplaceSig__InvalidAmount","inputs":[]},{"type":"error","name":"IBeanHeadsMarketplaceSig__InvalidOraclePrice","inputs":[]},{"type":"error","name":"IBeanHeadsMarketplaceSig__MismatchedArrayLengths","inputs":[]},{"type":"error","name":"IBeanHeadsMarketplaceSig__NotOwner","inputs":[]},{"type":"error","name":"IBeanHeadsMarketplaceSig__NotOwnerOrApproved","inputs":[]},{"type":"error","name":"IBeanHeadsMarketplaceSig__PriceExceedsMax","inputs":[]},{"type":"error","name":"IBeanHeadsMarketplaceSig__PriceMustBeGreaterThanZero","inputs":[]},{"type":"error","name":"IBeanHeadsMarketplaceSig__TokenDoesNotExist","inputs":[]},{"type":"error","name":"IBeanHeadsMarketplaceSig__TokenNotAllowed","inputs":[{"name":"token","type":"address","internalType":"address"}]},{"type":"error","name":"IBeanHeadsMarketplaceSig__TokenNotForSale","inputs":[]},{"type":"error","name":"IPermit__ERC2612ExpiredSignature","inputs":[{"name":"deadline","type":"uint256","internalType":"uint256"}]},{"type":"error","name":"IPermit__ERC2612InvalidSigner","inputs":[{"name":"signer","type":"address","internalType":"address"},{"name":"owner","type":"address","internalType":"address"}]},{"type":"error","name":"IPermit__InvalidNonce","inputs":[{"name":"expected","type":"uint256","internalType":"uint256"},{"name":"actual","type":"uint256","internalType":"uint256"}]},{"type":"error","name":"InvalidTokenId","inputs":[]},{"type":"error","name":"MintERC2309QuantityExceedsLimit","inputs":[]},{"type":"error","name":"MintToZeroAddress","inputs":[]},{"type":"error","name":"MintZeroQuantity","inputs":[]},{"type":"error","name":"OwnerQueryForNonexistentToken","inputs":[]},{"type":"error","name":"OwnershipNotInitializedForExtraData","inputs":[]},{"type":"error","name":"TokenAlreadyExists","inputs":[]},{"type":"error","name":"TransferCallerNotOwnerNorApproved","inputs":[]},{"type":"error","name":"TransferFromIncorrectOwner","inputs":[]},{"type":"error","name":"TransferToNonERC721ReceiverImplementer","inputs":[]},{"type":"error","name":"TransferToZeroAddress","inputs":[]},{"type":"error","name":"URIQueryForNonexistentToken","inputs":[]}],"bytecode":{"object":"0x608034620000a9576040906001600160401b0390808301828111828210176200009557835260098152684265616e486561647360b81b6020909101527f63d0f177cf2b06af4da57652d5ad703397898e5caf034bcfc7cbe3b16ade04b45f55815190818301908111828210176200009557600191602091845282815201603160f81b81522060015551614b099081620000ae8239f35b634e487b7160e01b5f52604160045260245ffd5b5f80fdfe60806040526004361015610011575f80fd5b5f3560e01c806301ffc9a71461018457806306fdde031461017f578063081812fc1461017a578063095ea7b314610175578063141a468c14610170578063150b7a021461016b57806318160ddd1461016657806323b872dd1461016157806324e79fc21461015c5780633644e5151461015757806342842e0e146101525780636352211e1461014d57806370a0823114610148578063745a41bc146101435780637dd984511461013e57806384b0196e146101395780638734aa12146101345780638742be811461012f57806395d89b411461012a578063a033d9ed14610125578063a22cb46514610120578063b88d4fde1461011b5763e985e9c514610116575f80fd5b611cec565b611c7c565b611b6e565b611821565b6116f9565b611669565b6115a5565b611434565b6111f5565b610f47565b610cca565b610c70565b610c4e565b610c0e565b6108d1565b6108bd565b6107f5565b610764565b6106cf565b610531565b610460565b6102c8565b6101b7565b7fffffffff000000000000000000000000000000000000000000000000000000008116036101b357565b5f80fd5b346101b35760207ffffffffffffffffffffffffffffffffffffffffffffffffffffffffffffffffc3601126101b3577fffffffff0000000000000000000000000000000000000000000000000000000060043561021381610189565b165f527f791cad950d3b9b323a06def8cb8b7bf2c934c7f4cea39385f023ba145f9b93be602052602060ff60405f2054166040519015158152f35b5f9103126101b357565b91908251928382525f5b8481106102a05750507fffffffffffffffffffffffffffffffffffffffffffffffffffffffffffffffe0601f845f6020809697860101520116010190565b602081830181015184830182015201610262565b9060206102c5928181520190610258565b90565b346101b3575f7ffffffffffffffffffffffffffffffffffffffffffffffffffffffffffffffffc3601126101b3576040515f7f8785b62d5a7098417c833f00e99883e36791da2bbef1ddc66d7797ca0681c2d25460018160011c9160018116918215610456575b6020916020851084146104295784875260208701939081156103ec5750600114610374575b6103708661036481880382610e5b565b604051918291826102b4565b0390f35b7f8785b62d5a7098417c833f00e99883e36791da2bbef1ddc66d7797ca0681c2d25f90815294509192917f4eff6dd2ce7e3eed3d8c57a965022ef5c4089064f80bafbcccb1920be91b46a15b8386106103db5750505091019050610364826103705f610354565b8054858701529482019481016103c0565b7fffffffffffffffffffffffffffffffffffffffffffffffffffffffffffffff0016845250505090151560051b019050610364826103705f610354565b7f4e487b71000000000000000000000000000000000000000000000000000000005f52602260045260245ffd5b92607f169261032f565b346101b35760207ffffffffffffffffffffffffffffffffffffffffffffffffffffffffffffffffc3601126101b35760043561049b81612906565b156104eb575f527f8785b62d5a7098417c833f00e99883e36791da2bbef1ddc66d7797ca0681c2d6602052602073ffffffffffffffffffffffffffffffffffffffff60405f205416604051908152f35b7fcf4700e4000000000000000000000000000000000000000000000000000000005f5260045ffd5b73ffffffffffffffffffffffffffffffffffffffff8116036101b357565b60407ffffffffffffffffffffffffffffffffffffffffffffffffffffffffffffffffc3601126101b35760043561056781610513565b6024359073ffffffffffffffffffffffffffffffffffffffff8061058a84612d0f565b1691823303610631575b610609816105c9865f527f8785b62d5a7098417c833f00e99883e36791da2bbef1ddc66d7797ca0681c2d660205260405f2090565b9073ffffffffffffffffffffffffffffffffffffffff167fffffffffffffffffffffffff0000000000000000000000000000000000000000825416179055565b16907f8c5be1e5ebec7d5bd14f71427d1e84f3dd0314c0f7b2291e5b200ac8c7c3b9255f80a4005b60ff6106a13361067e8673ffffffffffffffffffffffffffffffffffffffff165f527f8785b62d5a7098417c833f00e99883e36791da2bbef1ddc66d7797ca0681c2d760205260405f2090565b9073ffffffffffffffffffffffffffffffffffffffff165f5260205260405f2090565b5416610594577fcfb3b942000000000000000000000000000000000000000000000000000000005f5260045ffd5b346101b35760207ffffffffffffffffffffffffffffffffffffffffffffffffffffffffffffffffc3601126101b3576004355f527f791cad950d3b9b323a06def8cb8b7bf2c934c7f4cea39385f023ba145f9b93bf602052602060405f2054604051908152f35b9181601f840112156101b35782359167ffffffffffffffff83116101b357602083818601950101116101b357565b346101b35760807ffffffffffffffffffffffffffffffffffffffffffffffffffffffffffffffffc3601126101b35761079e600435610513565b6107a9602435610513565b60643567ffffffffffffffff81116101b3576107c9903690600401610736565b505060206040517f150b7a02000000000000000000000000000000000000000000000000000000008152f35b346101b3575f7ffffffffffffffffffffffffffffffffffffffffffffffffffffffffffffffffc3601126101b35760207f8785b62d5a7098417c833f00e99883e36791da2bbef1ddc66d7797ca0681c2d0547f8785b62d5a7098417c833f00e99883e36791da2bbef1ddc66d7797ca0681c2d1549003604051908152f35b7ffffffffffffffffffffffffffffffffffffffffffffffffffffffffffffffffc60609101126101b3576004356108a981610513565b906024356108b681610513565b9060443590565b6108cf6108c936610873565b91611d8d565b005b346101b3577ffffffffffffffffffffffffffffffffffffffffffffffffffffffffffffffffc360161010081126101b35760a0136101b35767ffffffffffffffff60a4358181116101b35761092a903690600401610736565b9160e4359081116101b357610943903690600401610736565b906024359361095185612906565b15610be65761096e6109616120cb565b67ffffffffffffffff1690565b4211610be157604435938415610bdc576109af865f527f791cad950d3b9b323a06def8cb8b7bf2c934c7f4cea39385f023ba145f9b93bf60205260405f2090565b54906064358203610bd7576001926109c6916130c8565b016109f8855f527f791cad950d3b9b323a06def8cb8b7bf2c934c7f4cea39385f023ba145f9b93bf60205260405f2090565b55303b156101b357610a3f915f9160405193849283927f745a41bc00000000000000000000000000000000000000000000000000000000845260c43589306004870161210e565b038183305af18015610bbf57610bc4575b50610a59612186565b303b156101b3576040517f42842e0e00000000000000000000000000000000000000000000000000000000815273ffffffffffffffffffffffffffffffffffffffff9091166004820152306024820152604481018390525f818060648101038183305af18015610bbf57610ba6575b50610b44610ad4612186565b610afb610adf610e9c565b73ffffffffffffffffffffffffffffffffffffffff9092168252565b826020820152610b0e6040820160019052565b610b3f845f527f791cad950d3b9b323a06def8cb8b7bf2c934c7f4cea39385f023ba145f9b93ad60205260405f2090565b6121b4565b610b4d82613f09565b507f95b55f38d05a2c5664b9788437177cc4cd38ad59294ccd15d9527664355380ec610ba173ffffffffffffffffffffffffffffffffffffffff610b8f612186565b60405194855216929081906020820190565b0390a3005b80610bb3610bb992610dd2565b8061024e565b5f610ac8565b61217b565b80610bb3610bd192610dd2565b5f610a50565b612a39565b612ad9565b6129c1565b7fd80afb82000000000000000000000000000000000000000000000000000000005f5260045ffd5b346101b3575f7ffffffffffffffffffffffffffffffffffffffffffffffffffffffffffffffffc3601126101b3576020610c466132b4565b604051908152f35b6108cf610c5a36610873565b9060405192610c6884610deb565b5f845261287f565b346101b35760207ffffffffffffffffffffffffffffffffffffffffffffffffffffffffffffffffc3601126101b357602073ffffffffffffffffffffffffffffffffffffffff610cc1600435612d0f565b16604051908152f35b346101b35760207ffffffffffffffffffffffffffffffffffffffffffffffffffffffffffffffffc3601126101b357600435610d0581610513565b73ffffffffffffffffffffffffffffffffffffffff811615610d7d5767ffffffffffffffff610d7360209273ffffffffffffffffffffffffffffffffffffffff165f527f8785b62d5a7098417c833f00e99883e36791da2bbef1ddc66d7797ca0681c2d560205260405f2090565b5416604051908152f35b7f8f4eb604000000000000000000000000000000000000000000000000000000005f5260045ffd5b7f4e487b71000000000000000000000000000000000000000000000000000000005f52604160045260245ffd5b67ffffffffffffffff8111610de657604052565b610da5565b6020810190811067ffffffffffffffff821117610de657604052565b6040810190811067ffffffffffffffff821117610de657604052565b60c0810190811067ffffffffffffffff821117610de657604052565b60e0810190811067ffffffffffffffff821117610de657604052565b90601f7fffffffffffffffffffffffffffffffffffffffffffffffffffffffffffffffe0910116810190811067ffffffffffffffff821117610de657604052565b604051906060820182811067ffffffffffffffff821117610de657604052565b67ffffffffffffffff8111610de657601f017fffffffffffffffffffffffffffffffffffffffffffffffffffffffffffffffe01660200190565b929192610f0282610ebc565b91610f106040519384610e5b565b8294818452818301116101b3578281602093845f960137010152565b9080601f830112156101b3578160206102c593359101610ef6565b346101b35760807ffffffffffffffffffffffffffffffffffffffffffffffffffffffffffffffffc3601126101b357600435610f8281610513565b6024356044359160643567ffffffffffffffff81116101b357610fa9903690600401610f2c565b834210156111bf576110886110fe6108cf956001936110bc86610fea610fd1610fd18b612d0f565b73ffffffffffffffffffffffffffffffffffffffff1690565b936110b48a611020815f527f791cad950d3b9b323a06def8cb8b7bf2c934c7f4cea39385f023ba145f9b93bf60205260405f2090565b549889936040519485936020850197889094939260809273ffffffffffffffffffffffffffffffffffffffff60a08401977f49ecf333e5b8c95c40fdafc95c1ad136e8914a8fb55e9dc8bb01eaa83a2df9ad8552166020840152604083015260608201520152565b037fffffffffffffffffffffffffffffffffffffffffffffffffffffffffffffffe08101835282610e5b565b519020613dcb565b6110c68282613e0c565b50509273ffffffffffffffffffffffffffffffffffffffff938481168015159586611148575b5050508315611136575b50505061330e565b01611130835f527f791cad950d3b9b323a06def8cb8b7bf2c934c7f4cea39385f023ba145f9b93bf60205260405f2090565b55612c91565b6111409350613e46565b5f80806110f6565b9091928096501614908115611162575b50925f80806110ec565b6111b991506111b29061067e8673ffffffffffffffffffffffffffffffffffffffff165f527f8785b62d5a7098417c833f00e99883e36791da2bbef1ddc66d7797ca0681c2d760205260405f2090565b5460ff1690565b5f611158565b6040517f0a7b15ac00000000000000000000000000000000000000000000000000000000815260048101859052602490fd5b0390fd5b346101b3577ffffffffffffffffffffffffffffffffffffffffffffffffffffffffffffffffc360160a081126101b3576080136101b35760843567ffffffffffffffff81116101b35761124c903690600401610736565b906024359161125a83612906565b15610be65761126a6109616120b4565b4211610be1576112a1835f527f791cad950d3b9b323a06def8cb8b7bf2c934c7f4cea39385f023ba145f9b93ad60205260405f2090565b91600283016112b86112b4825460ff1690565b1590565b61142f57835473ffffffffffffffffffffffffffffffffffffffff166112df610fd1612186565b73ffffffffffffffffffffffffffffffffffffffff8092160361142a5761132d865f527f791cad950d3b9b323a06def8cb8b7bf2c934c7f4cea39385f023ba145f9b93bf60205260405f2090565b5492604435809403610bd7576114279561139488946113516001986113c195613373565b61136c61135c612186565b8761136561225a565b9130613494565b7fffffffffffffffffffffffffffffffffffffffffffffffffffffffffffffff008154169055565b5f868201557fffffffffffffffffffffffff00000000000000000000000000000000000000008154169055565b6113ca8261403c565b506113d3612186565b167f03a22e74c0a02b76999e54133f3bad8438003aec05906408c2f6ccce8b43af2d5f80a301915f527f791cad950d3b9b323a06def8cb8b7bf2c934c7f4cea39385f023ba145f9b93bf60205260405f2090565b55005b612a11565b6129e9565b346101b3575f7ffffffffffffffffffffffffffffffffffffffffffffffffffffffffffffffffc3601126101b35760405161146e81610deb565b5f8152604051602061147f82610e07565b600982527f4265616e4865616473000000000000000000000000000000000000000000000081830152604051906114b582610e07565b61152c600192600181527f31000000000000000000000000000000000000000000000000000000000000008382015261151e604051957f0f00000000000000000000000000000000000000000000000000000000000000875260e08588015260e0870190610258565b908582036040870152610258565b4660608501523060808501525f60a085015283810360c08501528180865192838152019501915f5b8281106115615785870386f35b8351875295810195928101928401611554565b9181601f840112156101b35782359167ffffffffffffffff83116101b3576020808501948460051b0101116101b357565b346101b35760807ffffffffffffffffffffffffffffffffffffffffffffffffffffffffffffffffc3601126101b35760043567ffffffffffffffff8082116101b357366023830112156101b3578160040135918183116101b35736602460a08502830101116101b3576024358281116101b357611626903690600401611574565b906044358481116101b35761163f903690600401611574565b9290916064359586116101b3576108cf966116606024973690600401611574565b9790960161226c565b346101b35760407ffffffffffffffffffffffffffffffffffffffffffffffffffffffffffffffffc3601126101b35760043567ffffffffffffffff8082116101b357366023830112156101b3578160040135918183116101b3573660248460071b830101116101b3576024359182116101b3576108cf926116f06024933690600401611574565b939092016126bc565b346101b3575f7ffffffffffffffffffffffffffffffffffffffffffffffffffffffffffffffffc3601126101b3576040515f7f8785b62d5a7098417c833f00e99883e36791da2bbef1ddc66d7797ca0681c2d35460018160011c916001811691821561180c575b6020916020851084146104295784875260208701939081156103ec5750600114611794576103708661036481880382610e5b565b7f8785b62d5a7098417c833f00e99883e36791da2bbef1ddc66d7797ca0681c2d35f90815294509192917feab2a30426a14f07ecdc76635cd0729eb655bee4c9d04a8fb1b5d85c28c9dae35b8386106117fb5750505091019050610364826103705f610354565b8054858701529482019481016117e0565b92607f1692611760565b60ff8116036101b357565b346101b3577ffffffffffffffffffffffffffffffffffffffffffffffffffffffffffffffffc36016101a081126101b35760e0136101b35760e43567ffffffffffffffff81116101b357611879903690600401610736565b610144359161188783611816565b61188f61375e565b6064359161189c83612906565b15610be6576118ac6109616120e2565b4211610be1576118bb916137ec565b6118ec815f527f791cad950d3b9b323a06def8cb8b7bf2c934c7f4cea39385f023ba145f9b93ad60205260405f2090565b60028101926118ff6112b4855460ff1690565b61142f576119576112b46111b2611914612192565b73ffffffffffffffffffffffffffffffffffffffff165f527f791cad950d3b9b323a06def8cb8b7bf2c934c7f4cea39385f023ba145f9b93b260205260405f2090565b611b5f5761198c835f527f791cad950d3b9b323a06def8cb8b7bf2c934c7f4cea39385f023ba145f9b93bf60205260405f2090565b549060a435809203610bd757611b35945f611afd92611ad486886119c66001995473ffffffffffffffffffffffffffffffffffffffff1690565b93898301946119f16119d887546138f8565b80936101843590610164359061012435610104356139c3565b611a068282611a01610fd1612192565b613ac2565b611a42611a11612192565b6105c9855f527f791cad950d3b9b323a06def8cb8b7bf2c934c7f4cea39385f023ba145f9b93b360205260405f2090565b611a56611a4d61219e565b8461136561225a565b7f750c36c1151184a24e0af140e77692bedec79858e113552e61d123f784cc9be46020611a8161219e565b93015160405190815273ffffffffffffffffffffffffffffffffffffffff928316939290921691602090a47fffffffffffffffffffffffff00000000000000000000000000000000000000008154169055565b557fffffffffffffffffffffffffffffffffffffffffffffffffffffffffffffff008154169055565b01611b2f825f527f791cad950d3b9b323a06def8cb8b7bf2c934c7f4cea39385f023ba145f9b93bf60205260405f2090565b5561403c565b506108cf60017f862460a2be1e75f44234ae220583844903aaee6923993409e3eaa0efbd0da84155565b612b29565b801515036101b357565b346101b35760407ffffffffffffffffffffffffffffffffffffffffffffffffffffffffffffffffc3601126101b357600435611ba981610513565b73ffffffffffffffffffffffffffffffffffffffff60243591611bcb83611b64565b611c4a83611c1a8361067e3373ffffffffffffffffffffffffffffffffffffffff165f527f8785b62d5a7098417c833f00e99883e36791da2bbef1ddc66d7797ca0681c2d760205260405f2090565b9060ff7fffffffffffffffffffffffffffffffffffffffffffffffffffffffffffffff0083541691151516179055565b604051921515835216907f17307eab39ab6107e8899845ad3d59bd9653f200f220920489ca2b5937696c3160203392a3005b60807ffffffffffffffffffffffffffffffffffffffffffffffffffffffffffffffffc3601126101b357600435611cb281610513565b602435611cbe81610513565b6064359167ffffffffffffffff83116101b357611ce26108cf933690600401610f2c565b916044359161287f565b346101b35760407ffffffffffffffffffffffffffffffffffffffffffffffffffffffffffffffffc3601126101b357602060ff611d81600435611d2e81610513565b61067e60243591611d3e83610513565b73ffffffffffffffffffffffffffffffffffffffff165f527f8785b62d5a7098417c833f00e99883e36791da2bbef1ddc66d7797ca0681c2d760205260405f2090565b54166040519015158152f35b919091611d9982612d0f565b9273ffffffffffffffffffffffffffffffffffffffff8092169384838216036120af575f8481527f8785b62d5a7098417c833f00e99883e36791da2bbef1ddc66d7797ca0681c2d6602052604090208054611e1073ffffffffffffffffffffffffffffffffffffffff881633908114908314171590565b612054575b611e20868589612f7b565b61204b575b50611e6d8573ffffffffffffffffffffffffffffffffffffffff165f527f8785b62d5a7098417c833f00e99883e36791da2bbef1ddc66d7797ca0681c2d560205260405f2090565b80547fffffffffffffffffffffffffffffffffffffffffffffffffffffffffffffffff019055611eda8273ffffffffffffffffffffffffffffffffffffffff165f527f8785b62d5a7098417c833f00e99883e36791da2bbef1ddc66d7797ca0681c2d560205260405f2090565b8054600101905573ffffffffffffffffffffffffffffffffffffffff82164260a01b177c020000000000000000000000000000000000000000000000000000000017611f4d855f527f8785b62d5a7098417c833f00e99883e36791da2bbef1ddc66d7797ca0681c2d460205260405f2090565b557c0200000000000000000000000000000000000000000000000000000000811615611fa8575b501680927fddf252ad1be2c89b69c2b068fc378daa952ba7f163c4a11628f55a4df523b3ef5f80a415611fa357565b612ab1565b60018401611fdd815f527f8785b62d5a7098417c833f00e99883e36791da2bbef1ddc66d7797ca0681c2d460205260405f2090565b5415611fea575b50611f74565b7f8785b62d5a7098417c833f00e99883e36791da2bbef1ddc66d7797ca0681c2d0548114611fe457612043905f527f8785b62d5a7098417c833f00e99883e36791da2bbef1ddc66d7797ca0681c2d460205260405f2090565b555f80611fe4565b5f90555f611e25565b6120a56112b46111b23361067e8b73ffffffffffffffffffffffffffffffffffffffff165f527f8785b62d5a7098417c833f00e99883e36791da2bbef1ddc66d7797ca0681c2d760205260405f2090565b15611e1557612a89565b612a61565b60643567ffffffffffffffff811681036101b35790565b60843567ffffffffffffffff811681036101b35790565b60c43567ffffffffffffffff811681036101b35790565b3567ffffffffffffffff811681036101b35790565b939460a0957fffffffffffffffffffffffffffffffffffffffffffffffffffffffffffffffe094601f9473ffffffffffffffffffffffffffffffffffffffff84951688526020880152604087015260806060870152816080870152868601375f8582860101520116010190565b6040513d5f823e3d90fd5b6004356102c581610513565b6024356102c581610513565b6044356102c581610513565b356102c581610513565b600260406122589361221873ffffffffffffffffffffffffffffffffffffffff825116859073ffffffffffffffffffffffffffffffffffffffff167fffffffffffffffffffffffff0000000000000000000000000000000000000000825416179055565b602081015160018501550151151591019060ff7fffffffffffffffffffffffffffffffffffffffffffffffffffffffffffffff0083541691151516179055565b565b6040519061226782610deb565b5f8252565b97969095919461227a61375e565b8387148015906125f0575b80156125e6575b6125e1575f5b87811061243b57505050505050505f5b8181106122d6575050905061225860017f862460a2be1e75f44234ae220583844903aaee6923993409e3eaa0efbd0da84155565b6122e1818386612627565b9060209182810135906122f382612906565b612350575b600193507f95b55f38d05a2c5664b9788437177cc4cd38ad59294ccd15d9527664355380ec73ffffffffffffffffffffffffffffffffffffffff61233b836121aa565b6040805194013584521691602090a3016122a2565b612359816121aa565b93303b156101b357604080517f23b872dd00000000000000000000000000000000000000000000000000000000815273ffffffffffffffffffffffffffffffffffffffff90961660048701523060248701526044860184905294905f828060648101038183305af18015610bbf5760019661241993610b0e92612428575b506123e1856121aa565b926124096123ed610e9c565b73ffffffffffffffffffffffffffffffffffffffff9095168552565b8186013590840152820160019052565b61242282613f09565b506122f8565b80610bb361243592610dd2565b5f6123d7565b61244681898c612627565b90602082013561247d815f527f791cad950d3b9b323a06def8cb8b7bf2c934c7f4cea39385f023ba145f9b93ad60205260405f2090565b6124896112b483612906565b6125cc576002015460ff166125d7576124a7610961608085016120f9565b42116125d75760409283810135156125cc576124ea825f527f791cad950d3b9b323a06def8cb8b7bf2c934c7f4cea39385f023ba145f9b93bf60205260405f2090565b546060820135036125cc5761250a90612504848a8d61263c565b916131c0565b61253b815f527f791cad950d3b9b323a06def8cb8b7bf2c934c7f4cea39385f023ba145f9b93bf60205260405f2090565b8054600101905561254d82858a61269c565b3561255983878961263c565b929094303b156101b3575f9361259c915196879485947f745a41bc000000000000000000000000000000000000000000000000000000008652306004870161210e565b038183305af1918215610bbf576001926125b9575b505b01612292565b80610bb36125c692610dd2565b5f6125b1565b5050600191506125b3565b50600191506125b3565b612b01565b508187141561228c565b5080871415612285565b7f4e487b71000000000000000000000000000000000000000000000000000000005f52603260045260245ffd5b91908110156126375760a0020190565b6125fa565b91908110156126375760051b810135907fffffffffffffffffffffffffffffffffffffffffffffffffffffffffffffffe1813603018212156101b357019081359167ffffffffffffffff83116101b35760200182360381136101b3579190565b91908110156126375760051b0190565b91908110156126375760071b0190565b92908181036125e1575f5b8181106126d5575050505050565b806126e360019284886126ac565b60208101359061271a825f527f791cad950d3b9b323a06def8cb8b7bf2c934c7f4cea39385f023ba145f9b93ad60205260405f2090565b6127266112b484612906565b61287757600281019161273d6112b4845460ff1690565b61286e57612750610961606083016120f9565b421161286e5787612788855f527f791cad950d3b9b323a06def8cb8b7bf2c934c7f4cea39385f023ba145f9b93bf60205260405f2090565b54916040810135809303612863578a6127b5855473ffffffffffffffffffffffffffffffffffffffff1690565b91886127c3610fd1836121aa565b73ffffffffffffffffffffffffffffffffffffffff809516036128555761284d976128006127f961280c938c986113d39761263c565b90856133ff565b61136c61135c846121aa565b61283e8a965f888201557fffffffffffffffffffffffff00000000000000000000000000000000000000008154169055565b6128478461403c565b506121aa565b555b016126c7565b50505050505050505061284f565b50505050505061284f565b5050505061284f565b50505061284f565b92919061288d828286611d8d565b803b61289a575b50505050565b6128a393613b98565b156128b1575f808080612894565b7fd1a57ed6000000000000000000000000000000000000000000000000000000005f5260045ffd5b7f4e487b71000000000000000000000000000000000000000000000000000000005f52601160045260245ffd5b905f917f8785b62d5a7098417c833f00e99883e36791da2bbef1ddc66d7797ca0681c2d05481106129345750565b9091505b805f527f8785b62d5a7098417c833f00e99883e36791da2bbef1ddc66d7797ca0681c2d460205260405f20548061299c57508015612997577fffffffffffffffffffffffffffffffffffffffffffffffffffffffffffffffff01612938565b6128d9565b7c01000000000000000000000000000000000000000000000000000000009150161590565b7f0a7b15ac000000000000000000000000000000000000000000000000000000005f5260045ffd5b7fca8c4a08000000000000000000000000000000000000000000000000000000005f5260045ffd5b7fb740f1fe000000000000000000000000000000000000000000000000000000005f5260045ffd5b7f5beab066000000000000000000000000000000000000000000000000000000005f5260045ffd5b7fa1148100000000000000000000000000000000000000000000000000000000005f5260045ffd5b7f59c896be000000000000000000000000000000000000000000000000000000005f5260045ffd5b7fea553b34000000000000000000000000000000000000000000000000000000005f5260045ffd5b7f0fd7627b000000000000000000000000000000000000000000000000000000005f5260045ffd5b7fd1d912a0000000000000000000000000000000000000000000000000000000005f5260045ffd5b7f10d59a6f000000000000000000000000000000000000000000000000000000005f5260045ffd5b7fdf2d9b42000000000000000000000000000000000000000000000000000000005f5260045ffd5b7f0fb51c13000000000000000000000000000000000000000000000000000000005f5260045ffd5b7fe770f489000000000000000000000000000000000000000000000000000000005f5260045ffd5b7f7b8273f6000000000000000000000000000000000000000000000000000000005f5260045ffd5b7fd5a6b05d000000000000000000000000000000000000000000000000000000005f5260045ffd5b7f59ca34d4000000000000000000000000000000000000000000000000000000005f5260045ffd5b7fbf79ab09000000000000000000000000000000000000000000000000000000005f5260045ffd5b7fef07d5e4000000000000000000000000000000000000000000000000000000005f5260045ffd5b73ffffffffffffffffffffffffffffffffffffffff80612cb084612d0f565b1691612ce7816105c9865f527f8785b62d5a7098417c833f00e99883e36791da2bbef1ddc66d7797ca0681c2d660205260405f2090565b16907f8c5be1e5ebec7d5bd14f71427d1e84f3dd0314c0f7b2291e5b200ac8c7c3b9255f80a4565b612d40815f527f8785b62d5a7098417c833f00e99883e36791da2bbef1ddc66d7797ca0681c2d460205260405f2090565b54908115612d7057507c01000000000000000000000000000000000000000000000000000000008116612b515790565b90507f8785b62d5a7098417c833f00e99883e36791da2bbef1ddc66d7797ca0681c2d054811015612b51577fffffffffffffffffffffffffffffffffffffffffffffffffffffffffffffffff905b01612df0815f527f8785b62d5a7098417c833f00e99883e36791da2bbef1ddc66d7797ca0681c2d460205260405f2090565b54908115612e4657507c01000000000000000000000000000000000000000000000000000000008116156102c5577fdf2d9b42000000000000000000000000000000000000000000000000000000005f5260045ffd5b7fffffffffffffffffffffffffffffffffffffffffffffffffffffffffffffffff9150612dbe565b9190820180921161299757565b7f791cad950d3b9b323a06def8cb8b7bf2c934c7f4cea39385f023ba145f9b93c48054821015612637575f527f8cecb7c2563cbe0d544d5d5de7aabb1586c37ae42947b8cba537816a5911522d01905f90565b8054821015612637575f5260205f2001905f90565b91612f1b918354907fffffffffffffffffffffffffffffffffffffffffffffffffffffffffffffffff9060031b92831b921b19161790565b9055565b80549068010000000000000000821015610de65781612f46916001612f1b94018155612ece565b81939154907fffffffffffffffffffffffffffffffffffffffffffffffffffffffffffffffff9060031b92831b921b19161790565b9190915f5b60018110613050575073ffffffffffffffffffffffffffffffffffffffff90818116613024575b508216612fb2575050565b5f5b60018110612fc157505050565b60019061301e61300e8573ffffffffffffffffffffffffffffffffffffffff165f527f791cad950d3b9b323a06def8cb8b7bf2c934c7f4cea39385f023ba145f9b93b160205260405f2090565b6130188386612e6e565b90612f1f565b01612fb4565b5f5b600181106130345750612fa7565b8061304a61304460019387612e6e565b84613d01565b01613026565b61305a8184612e6e565b73ffffffffffffffffffffffffffffffffffffffff83161515908161308c575b5061308757600101612f80565b612b79565b6130c291506111b2905f527f791cad950d3b9b323a06def8cb8b7bf2c934c7f4cea39385f023ba145f9b93c060205260405f2090565b5f61307a565b906004356130d581610513565b61315c6130e06120cb565b60405167ffffffffffffffff60208201927f2f422e04bd053cdb31061a639ced22e7ae0feabf80b43dc05ea9e4ed2e621a58845273ffffffffffffffffffffffffffffffffffffffff80961660408401526024356060840152604435608084015260643560a08401521660c082015260c081526110b481610e3f565b9061317161316b368587610ef6565b83613e0c565b50509061317f610fd1612186565b911614928315613199575b5050501561319457565b612ba1565b6131b893506131b2906131aa612186565b933691610ef6565b91613e46565b5f808061318a565b91908235906131ce82610513565b61325f6131dd608086016120f9565b60405167ffffffffffffffff60208201927f2f422e04bd053cdb31061a639ced22e7ae0feabf80b43dc05ea9e4ed2e621a58845273ffffffffffffffffffffffffffffffffffffffff80971660408401526020890135606084015260408901356080840152606089013560a08401521660c082015260c081526110b481610e3f565b9161327461326e368685610ef6565b84613e0c565b505090613283610fd1876121aa565b911614938415613299575b505050501561319457565b6132ab9450906131aa6131b2926121aa565b5f80808061328e565b5f546001546040519060208201927f8b73c3c69bb8fe3d512ecc4cf759cc79239f7b179b0ffacaa9a75d522b39400f8452604083015260608201524660808201523060a082015260a0815261330881610e23565b51902090565b1561331557565b60646040517f08c379a000000000000000000000000000000000000000000000000000000000815260206004820152601f60248201527f4552433732315065726d69743a20496e76616c6964207369676e6174757265006044820152fd5b9060043561338081610513565b61315c61338b6120b4565b60405167ffffffffffffffff60208201927ff0782c572dbd9f38a882c8b82f5fa1bd7fc0195873a66ca5bfcbb0c617adbd9b845273ffffffffffffffffffffffffffffffffffffffff8096166040840152602435606084015260443560808401521660a082015260a081526110b481610e23565b919082359061340d82610513565b61325f61341c606086016120f9565b60405167ffffffffffffffff60208201927ff0782c572dbd9f38a882c8b82f5fa1bd7fc0195873a66ca5bfcbb0c617adbd9b845273ffffffffffffffffffffffffffffffffffffffff809716604084015260208901356060840152604089013560808401521660a082015260a081526110b481610e23565b919290926134a181612d0f565b73ffffffffffffffffffffffffffffffffffffffff908185169182818316036120af5783916134fa835f527f8785b62d5a7098417c833f00e99883e36791da2bbef1ddc66d7797ca0681c2d660205260405f2090815490565b613505858b88612f7b565b613755575b506135528473ffffffffffffffffffffffffffffffffffffffff165f527f8785b62d5a7098417c833f00e99883e36791da2bbef1ddc66d7797ca0681c2d560205260405f2090565b80547fffffffffffffffffffffffffffffffffffffffffffffffffffffffffffffffff0190556135bf8873ffffffffffffffffffffffffffffffffffffffff165f527f8785b62d5a7098417c833f00e99883e36791da2bbef1ddc66d7797ca0681c2d560205260405f2090565b8054600101905573ffffffffffffffffffffffffffffffffffffffff88164260a01b177c020000000000000000000000000000000000000000000000000000000017613632845f527f8785b62d5a7098417c833f00e99883e36791da2bbef1ddc66d7797ca0681c2d460205260405f2090565b557c02000000000000000000000000000000000000000000000000000000008116156136b2575b50861680927fddf252ad1be2c89b69c2b068fc378daa952ba7f163c4a11628f55a4df523b3ef5f80a415611fa357833b6136935750505050565b6136a0936112b493613b98565b6136ad575f808080612894565b6128b1565b600183016136e7815f527f8785b62d5a7098417c833f00e99883e36791da2bbef1ddc66d7797ca0681c2d460205260405f2090565b54156136f4575b50613659565b7f8785b62d5a7098417c833f00e99883e36791da2bbef1ddc66d7797ca0681c2d05481146136ee5761374d905f527f8785b62d5a7098417c833f00e99883e36791da2bbef1ddc66d7797ca0681c2d460205260405f2090565b555f806136ee565b5f90555f61350a565b7f862460a2be1e75f44234ae220583844903aaee6923993409e3eaa0efbd0da841600281541461378e5760029055565b60646040517f08c379a000000000000000000000000000000000000000000000000000000000815260206004820152601d60248201527f5265656e7472616e63794c69623a207265656e7472616e742063616c6c0000006044820152fd5b906138b56004356137fc81610513565b60243561380881610513565b6110b46044359161381883610513565b6110886138236120e2565b604080517f5d14d2851cdedb9567bfa64bf22cff06acc9916f48793dbd0d91cfb15694aa1a6020820190815273ffffffffffffffffffffffffffffffffffffffff98891692820192909252938716606085015295909416608083015260643560a083015260843560c083015260a43560e083015267ffffffffffffffff93909316610100820152918290610120820190565b6138c96138c3368486610ef6565b82613e0c565b505073ffffffffffffffffffffffffffffffffffffffff61317f610fd1612186565b9190820391821161299757565b6040519060c0820182811067ffffffffffffffff821117610de6576040525f825260208201905f8252604083015f815260608401925f845260808501915f835260a08601945f865260843585116139af576139916139a192613975876139aa988b5261396b81613966612192565b614246565b87526064356144ec565b845273ffffffffffffffffffffffffffffffffffffffff169052565b613999612192565b905190614246565b809252516138eb565b905290565b612bc9565b908160209103126101b3575190565b9091949373ffffffffffffffffffffffffffffffffffffffff6024356139e881610513565b1693604051957f70a08231000000000000000000000000000000000000000000000000000000008752306004880152602087602481895afa968715610bbf575f97613a90575b506020015195868110613a46575b5050505050505050565b860395861161299757613a8396613a73948794613a64610fd1612192565b88613a6d612186565b916145bb565b3090613a7d612186565b9061466f565b5f80808080808080613a3c565b6020919750613ab490823d8411613abb575b613aac8183610e5b565b8101906139b4565b9690613a2e565b503d613aa2565b9060a06122589360808101805180613adf575b50500151916146de565b60408301613b0673ffffffffffffffffffffffffffffffffffffffff9283835116896146de565b51167f84f6410a16d4c30032a999c71f4e52a8e2a50831c876f14e11161dbe3e7f8423613b4a84519351604051918291868360209093929193604081019481520152565b0390a35f80613ad5565b908160209103126101b357516102c581610189565b3d15613b93573d90613b7a82610ebc565b91613b886040519384610e5b565b82523d5f602084013e565b606090565b92602091613c07935f73ffffffffffffffffffffffffffffffffffffffff604051809781968295847f150b7a02000000000000000000000000000000000000000000000000000000009c8d86523360048701521660248501526044840152608060648401526084830190610258565b0393165af15f9181613c56575b50613c3057613c21613b69565b8051156136ad57805190602001fd5b7fffffffff00000000000000000000000000000000000000000000000000000000161490565b613c7991925060203d602011613c80575b613c718183610e5b565b810190613b54565b905f613c14565b503d613c67565b7f4e487b71000000000000000000000000000000000000000000000000000000005f52603160045260245ffd5b8054908115613cfc577fffffffffffffffffffffffffffffffffffffffffffffffffffffffffffffffff80920191613cec8383612ece565b909182549160031b1b1916905555565b613c87565b73ffffffffffffffffffffffffffffffffffffffff165f527f791cad950d3b9b323a06def8cb8b7bf2c934c7f4cea39385f023ba145f9b93b160205260405f208054905f5b828110613d535750505050565b83613d5e8284612ece565b919054600392831b1c14613d755750600101613d46565b90919293507fffffffffffffffffffffffffffffffffffffffffffffffffffffffffffffffff840193841161299757612f46613dc491613db86122589686612ece565b9054911b1c9284612ece565b9055613cb4565b604290613dd66132b4565b90604051917f19010000000000000000000000000000000000000000000000000000000000008352600283015260228201522090565b8151919060418303613e3c57613e359250602082015190606060408401519301515f1a90614751565b9192909190565b50505f9160029190565b9091813b15613f02575f918291604051613e9d8161108860208201947f1626ba7e00000000000000000000000000000000000000000000000000000000998a87526024840152604060448401526064830190610258565b51915afa90613eaa613b69565b82613ef6575b82613eba57505090565b7fffffffff0000000000000000000000000000000000000000000000000000000091925080602080613ef193518301019101613b54565b161490565b80516020149250613eb0565b5050505f90565b805f527f791cad950d3b9b323a06def8cb8b7bf2c934c7f4cea39385f023ba145f9b93c58060205260405f2054155f14613fb5577f791cad950d3b9b323a06def8cb8b7bf2c934c7f4cea39385f023ba145f9b93c4805468010000000000000000811015610de657600181018083558110156126375783907f8cecb7c2563cbe0d544d5d5de7aabb1586c37ae42947b8cba537816a5911522d015554915f5260205260405f2055600190565b50505f90565b7f791cad950d3b9b323a06def8cb8b7bf2c934c7f4cea39385f023ba145f9b93c48054908115613cfc577fffffffffffffffffffffffffffffffffffffffffffffffffffffffffffffffff82019180831015612637577f8cecb7c2563cbe0d544d5d5de7aabb1586c37ae42947b8cba537816a5911522c5f91838352015555565b5f8181527f791cad950d3b9b323a06def8cb8b7bf2c934c7f4cea39385f023ba145f9b93c560205260409020548015613fb5577fffffffffffffffffffffffffffffffffffffffffffffffffffffffffffffffff9182820191808311612997577f791cad950d3b9b323a06def8cb8b7bf2c934c7f4cea39385f023ba145f9b93c4549384019384116129975783835f9561410e9503614114575b5050506140e1613fbb565b5f527f791cad950d3b9b323a06def8cb8b7bf2c934c7f4cea39385f023ba145f9b93c560205260405f2090565b55600190565b6140e161413c9161413461412a61414295612e7b565b90549060031b1c90565b928391612e7b565b90612ee3565b555f80806140d6565b519069ffffffffffffffffffff821682036101b357565b908160a09103126101b3576141768161414b565b916020820151916040810151916102c560806060840151930161414b565b908160209103126101b357516102c581611816565b60ff16604d811161299757600a0a90565b8181029291811591840414171561299757565b81156141d7570490565b7f4e487b71000000000000000000000000000000000000000000000000000000005f52601260045260245ffd5b60ff166012039060ff821161299757565b60ff7fffffffffffffffffffffffffffffffffffffffffffffffffffffffffffffffee9116019060ff821161299757565b9073ffffffffffffffffffffffffffffffffffffffff806142c16142a78573ffffffffffffffffffffffffffffffffffffffff165f527f791cad950d3b9b323a06def8cb8b7bf2c934c7f4cea39385f023ba145f9b93b460205260405f2090565b5473ffffffffffffffffffffffffffffffffffffffff1690565b16156144e757614317610fd1610fd16142a78673ffffffffffffffffffffffffffffffffffffffff165f527f791cad950d3b9b323a06def8cb8b7bf2c934c7f4cea39385f023ba145f9b93b460205260405f2090565b92604051907ffeaf968c00000000000000000000000000000000000000000000000000000000825260a082600481885afa918215610bbf575f925f935f925f926144ac575b505f8513928315936144a3575b508215614489575b50506144845760405193847f313ce567000000000000000000000000000000000000000000000000000000009687825281600460209889935afa938415610bbf576143d46004936143ce89976143d9955f91614467575b506141a9565b906141ba565b6141cd565b9560405194859384928352165afa918215610bbf575f9261443a575b505060ff8116601281106144235760121061440e575090565b906143ce61441e6102c593614215565b6141a9565b509061443461441e6102c593614204565b906141cd565b6144599250803d10614460575b6144518183610e5b565b810190614194565b5f806143f5565b503d614447565b61447e9150893d8b11614460576144518183610e5b565b5f6143c8565b612c19565b69ffffffffffffffffffff90811691161090505f80614371565b1592505f614369565b925050506144d391925060a03d60a0116144e0575b6144cb8183610e5b565b810190614162565b929493909291505f61435c565b503d6144c1565b612bf1565b7f791cad950d3b9b323a06def8cb8b7bf2c934c7f4cea39385f023ba145f9b93b954604080517f2a55205a00000000000000000000000000000000000000000000000000000000815260048101939093526024830193909352909291908390604490829073ffffffffffffffffffffffffffffffffffffffff165afa918215610bbf575f905f9361457c57509190565b9250506040823d6040116145b3575b8161459860409383610e5b565b810103126101b35760208251926145ae84610513565b015190565b3d915061458b565b9294979693909795919573ffffffffffffffffffffffffffffffffffffffff809416803b156101b3575f9560e49460ff88948b966040519b8c9a8b997fd505accf000000000000000000000000000000000000000000000000000000008b521660048a01523060248a01526044890152606488015216608486015260a485015260c48401525af1908161465c575b5061465757612258926147e0565b505050565b80610bb361466992610dd2565b5f614649565b6040517f23b872dd00000000000000000000000000000000000000000000000000000000602082015273ffffffffffffffffffffffffffffffffffffffff9283166024820152929091166044830152606480830193909352918152612258916146d9608483610e5b565b6148f6565b9173ffffffffffffffffffffffffffffffffffffffff604051927fa9059cbb000000000000000000000000000000000000000000000000000000006020850152166024830152604482015260448152608081019181831067ffffffffffffffff841117610de657612258926040526148f6565b91907f7fffffffffffffffffffffffffffffff5d576e7357a4501ddfe92f46681b20a084116147d5579160209360809260ff5f9560405194855216868401526040830152606082015282805260015afa15610bbf575f5173ffffffffffffffffffffffffffffffffffffffff8116156147cb57905f905f90565b505f906001905f90565b5050505f9160039190565b6040517fdd62ed3e00000000000000000000000000000000000000000000000000000000815273ffffffffffffffffffffffffffffffffffffffff83811660048301523060248301526020939216908381604481855afa8015610bbf5785915f916148d9575b50106148d4576040517f70a0823100000000000000000000000000000000000000000000000000000000815273ffffffffffffffffffffffffffffffffffffffff9290921660048301528290829060249082905afa918215610bbf575f926148b7575b5050106148b257565b612c69565b6148cd9250803d10613abb57613aac8183610e5b565b5f806148a9565b612c41565b6148f09150853d8711613abb57613aac8183610e5b565b5f614846565b6040516149609173ffffffffffffffffffffffffffffffffffffffff1661491c82610e07565b5f806020958685527f5361666545524332303a206c6f772d6c6576656c2063616c6c206661696c656487860152868151910182855af161495a613b69565b91614a0f565b80518061496c57505050565b818391810103126101b35781015161498381611b64565b1561498b5750565b608490604051907f08c379a00000000000000000000000000000000000000000000000000000000082526004820152602a60248201527f5361666545524332303a204552433230206f7065726174696f6e20646964206e60448201527f6f742073756363656564000000000000000000000000000000000000000000006064820152fd5b91929015614a8a5750815115614a23575090565b3b15614a2c5790565b60646040517f08c379a000000000000000000000000000000000000000000000000000000000815260206004820152601d60248201527f416464726573733a2063616c6c20746f206e6f6e2d636f6e74726163740000006044820152fd5b825190915015614a9d5750805190602001fd5b6111f1906040519182917f08c379a0000000000000000000000000000000000000000000000000000000008352600483016102b456fea26469706673582212207b42991a88347a36aed4edfb4b6a09a49890f56a73e8fb1a2577c4744a250ea464736f6c63430008180033","linkReferences":{}},"methodIdentifiers":{"DOMAIN_SEPARATOR()":"3644e515","approve(address,uint256)":"095ea7b3","balanceOf(address)":"70a08231","batchCancelTokenSalesWithPermit((address,uint256,uint256,uint64)[],bytes[])":"8742be81","batchSellTokensWithPermit((address,uint256,uint256,uint256,uint64)[],bytes[],uint256[],bytes[])":"8734aa12","buyTokenWithPermit((address,address,address,uint256,uint256,uint256,uint64),bytes,uint256,uint256,uint8,bytes32,bytes32)":"a033d9ed","cancelTokenSaleWithPermit((address,uint256,uint256,uint64),bytes)":"7dd98451","eip712Domain()":"84b0196e","getApproved(uint256)":"081812fc","isApprovedForAll(address,address)":"e985e9c5","name()":"06fdde03","nonces(uint256)":"141a468c","onERC721Received(address,address,uint256,bytes)":"150b7a02","ownerOf(uint256)":"6352211e","permit(address,uint256,uint256,bytes)":"745a41bc","safeTransferFrom(address,address,uint256)":"42842e0e","safeTransferFrom(address,address,uint256,bytes)":"b88d4fde","sellTokenWithPermit((address,uint256,uint256,uint256,uint64),bytes,uint256,bytes)":"24e79fc2","setApprovalForAll(address,bool)":"a22cb465","supportsInterface(bytes4)":"01ffc9a7","symbol()":"95d89b41","totalSupply()":"18160ddd","transferFrom(address,address,uint256)":"23b872dd"},"id":125}