{"abi":[{"type":"function","name":"approve","inputs":[{"name":"to","type":"address","internalType":"address"},{"name":"tokenId","type":"uint256","internalType":"uint256"}],"outputs":[],"stateMutability":"payable"},{"type":"function","name":"balanceOf","inputs":[{"name":"owner","type":"address","internalType":"address"}],"outputs":[{"name":"","type":"uint256","internalType":"uint256"}],"stateMutability":"view"},{"type":"function","name":"batchBuyTokens","inputs":[{"name":"_buyer","type":"address","internalType":"address"},{"name":"_tokenIds","type":"uint256[]","internalType":"uint256[]"},{"name":"_paymentToken","type":"address","internalType":"address"}],"outputs":[],"stateMutability":"nonpayable"},{"type":"function","name":"batchCancelTokenSales","inputs":[{"name":"_tokenIds","type":"uint256[]","internalType":"uint256[]"},{"name":"_seller","type":"address","internalType":"address"}],"outputs":[],"stateMutability":"nonpayable"},{"type":"function","name":"batchSellTokens","inputs":[{"name":"_tokenIds","type":"uint256[]","internalType":"uint256[]"},{"name":"_prices","type":"uint256[]","internalType":"uint256[]"}],"outputs":[],"stateMutability":"nonpayable"},{"type":"function","name":"buyToken","inputs":[{"name":"_buyer","type":"address","internalType":"address"},{"name":"_tokenId","type":"uint256","internalType":"uint256"},{"name":"_paymentToken","type":"address","internalType":"address"}],"outputs":[],"stateMutability":"nonpayable"},{"type":"function","name":"cancelTokenSale","inputs":[{"name":"_tokenId","type":"uint256","internalType":"uint256"}],"outputs":[],"stateMutability":"nonpayable"},{"type":"function","name":"getAllActiveSaleTokens","inputs":[],"outputs":[{"name":"","type":"uint256[]","internalType":"uint256[]"}],"stateMutability":"view"},{"type":"function","name":"getApproved","inputs":[{"name":"tokenId","type":"uint256","internalType":"uint256"}],"outputs":[{"name":"","type":"address","internalType":"address"}],"stateMutability":"view"},{"type":"function","name":"getTokenSaleInfo","inputs":[{"name":"_tokenId","type":"uint256","internalType":"uint256"}],"outputs":[{"name":"seller","type":"address","internalType":"address"},{"name":"price","type":"uint256","internalType":"uint256"},{"name":"isActive","type":"bool","internalType":"bool"}],"stateMutability":"view"},{"type":"function","name":"getTokenSalePrice","inputs":[{"name":"_tokenId","type":"uint256","internalType":"uint256"}],"outputs":[{"name":"","type":"uint256","internalType":"uint256"}],"stateMutability":"view"},{"type":"function","name":"isApprovedForAll","inputs":[{"name":"owner","type":"address","internalType":"address"},{"name":"operator","type":"address","internalType":"address"}],"outputs":[{"name":"","type":"bool","internalType":"bool"}],"stateMutability":"view"},{"type":"function","name":"isTokenAllowed","inputs":[{"name":"_token","type":"address","internalType":"address"}],"outputs":[{"name":"","type":"bool","internalType":"bool"}],"stateMutability":"view"},{"type":"function","name":"isTokenForSale","inputs":[{"name":"_tokenId","type":"uint256","internalType":"uint256"}],"outputs":[{"name":"","type":"bool","internalType":"bool"}],"stateMutability":"view"},{"type":"function","name":"name","inputs":[],"outputs":[{"name":"","type":"string","internalType":"string"}],"stateMutability":"view"},{"type":"function","name":"onERC721Received","inputs":[{"name":"","type":"address","internalType":"address"},{"name":"","type":"address","internalType":"address"},{"name":"","type":"uint256","internalType":"uint256"},{"name":"","type":"bytes","internalType":"bytes"}],"outputs":[{"name":"","type":"bytes4","internalType":"bytes4"}],"stateMutability":"pure"},{"type":"function","name":"ownerOf","inputs":[{"name":"tokenId","type":"uint256","internalType":"uint256"}],"outputs":[{"name":"","type":"address","internalType":"address"}],"stateMutability":"view"},{"type":"function","name":"safeTransferFrom","inputs":[{"name":"from","type":"address","internalType":"address"},{"name":"to","type":"address","internalType":"address"},{"name":"tokenId","type":"uint256","internalType":"uint256"}],"outputs":[],"stateMutability":"payable"},{"type":"function","name":"safeTransferFrom","inputs":[{"name":"from","type":"address","internalType":"address"},{"name":"to","type":"address","internalType":"address"},{"name":"tokenId","type":"uint256","internalType":"uint256"},{"name":"_data","type":"bytes","internalType":"bytes"}],"outputs":[],"stateMutability":"payable"},{"type":"function","name":"sellToken","inputs":[{"name":"_tokenId","type":"uint256","internalType":"uint256"},{"name":"_price","type":"uint256","internalType":"uint256"}],"outputs":[],"stateMutability":"nonpayable"},{"type":"function","name":"setApprovalForAll","inputs":[{"name":"operator","type":"address","internalType":"address"},{"name":"approved","type":"bool","internalType":"bool"}],"outputs":[],"stateMutability":"nonpayable"},{"type":"function","name":"symbol","inputs":[],"outputs":[{"name":"","type":"string","internalType":"string"}],"stateMutability":"view"},{"type":"function","name":"totalSupply","inputs":[],"outputs":[{"name":"","type":"uint256","internalType":"uint256"}],"stateMutability":"view"},{"type":"function","name":"transferFrom","inputs":[{"name":"from","type":"address","internalType":"address"},{"name":"to","type":"address","internalType":"address"},{"name":"tokenId","type":"uint256","internalType":"uint256"}],"outputs":[],"stateMutability":"payable"},{"type":"event","name":"Approval","inputs":[{"name":"owner","type":"address","indexed":true,"internalType":"address"},{"name":"approved","type":"address","indexed":true,"internalType":"address"},{"name":"tokenId","type":"uint256","indexed":true,"internalType":"uint256"}],"anonymous":false},{"type":"event","name":"ApprovalForAll","inputs":[{"name":"owner","type":"address","indexed":true,"internalType":"address"},{"name":"operator","type":"address","indexed":true,"internalType":"address"},{"name":"approved","type":"bool","indexed":false,"internalType":"bool"}],"anonymous":false},{"type":"event","name":"ConsecutiveTransfer","inputs":[{"name":"fromTokenId","type":"uint256","indexed":true,"internalType":"uint256"},{"name":"toTokenId","type":"uint256","indexed":false,"internalType":"uint256"},{"name":"from","type":"address","indexed":true,"internalType":"address"},{"name":"to","type":"address","indexed":true,"internalType":"address"}],"anonymous":false},{"type":"event","name":"RoyaltyPaid","inputs":[{"name":"receiver","type":"address","indexed":true,"internalType":"address"},{"name":"tokenId","type":"uint256","indexed":true,"internalType":"uint256"},{"name":"salePrice","type":"uint256","indexed":false,"internalType":"uint256"},{"name":"royaltyAmount","type":"uint256","indexed":false,"internalType":"uint256"}],"anonymous":false},{"type":"event","name":"SetTokenPrice","inputs":[{"name":"owner","type":"address","indexed":true,"internalType":"address"},{"name":"tokenId","type":"uint256","indexed":true,"internalType":"uint256"},{"name":"price","type":"uint256","indexed":false,"internalType":"uint256"}],"anonymous":false},{"type":"event","name":"TokenSaleCancelled","inputs":[{"name":"owner","type":"address","indexed":true,"internalType":"address"},{"name":"tokenId","type":"uint256","indexed":true,"internalType":"uint256"}],"anonymous":false},{"type":"event","name":"TokenSold","inputs":[{"name":"buyer","type":"address","indexed":true,"internalType":"address"},{"name":"seller","type":"address","indexed":true,"internalType":"address"},{"name":"tokenId","type":"uint256","indexed":true,"internalType":"uint256"},{"name":"salePrice","type":"uint256","indexed":false,"internalType":"uint256"}],"anonymous":false},{"type":"event","name":"Transfer","inputs":[{"name":"from","type":"address","indexed":true,"internalType":"address"},{"name":"to","type":"address","indexed":true,"internalType":"address"},{"name":"tokenId","type":"uint256","indexed":true,"internalType":"uint256"}],"anonymous":false},{"type":"error","name":"ApprovalCallerNotOwnerNorApproved","inputs":[]},{"type":"error","name":"ApprovalQueryForNonexistentToken","inputs":[]},{"type":"error","name":"BalanceQueryForZeroAddress","inputs":[]},{"type":"error","name":"IBeanHeadsBase__InsufficientAllowance","inputs":[]},{"type":"error","name":"IBeanHeadsBase__InsufficientPayment","inputs":[]},{"type":"error","name":"IBeanHeadsBase__InvalidOraclePrice","inputs":[]},{"type":"error","name":"IBeanHeadsBase__NotOwner","inputs":[]},{"type":"error","name":"IBeanHeadsBase__PriceMustBeGreaterThanZero","inputs":[]},{"type":"error","name":"IBeanHeadsBase__TokenDoesNotExist","inputs":[]},{"type":"error","name":"IBeanHeadsBase__TokenIsAlreadyListed","inputs":[]},{"type":"error","name":"IBeanHeadsBase__TokenIsLocked","inputs":[]},{"type":"error","name":"IBeanHeadsBase__TokenIsNotForSale","inputs":[]},{"type":"error","name":"IBeanHeadsBase__TokenNotAllowed","inputs":[{"name":"token","type":"address","internalType":"address"}]},{"type":"error","name":"IBeanHeadsMarketplace__InsufficientAllowance","inputs":[]},{"type":"error","name":"IBeanHeadsMarketplace__InsufficientPayment","inputs":[]},{"type":"error","name":"IBeanHeadsMarketplace__InvalidOraclePrice","inputs":[]},{"type":"error","name":"IBeanHeadsMarketplace__MismatchedArrayLengths","inputs":[]},{"type":"error","name":"IBeanHeadsMarketplace__NotOwner","inputs":[]},{"type":"error","name":"IBeanHeadsMarketplace__PriceExceedsMax","inputs":[]},{"type":"error","name":"IBeanHeadsMarketplace__PriceMustBeGreaterThanZero","inputs":[]},{"type":"error","name":"IBeanHeadsMarketplace__TokenDoesNotExist","inputs":[]},{"type":"error","name":"IBeanHeadsMarketplace__TokenNotAllowed","inputs":[{"name":"token","type":"address","internalType":"address"}]},{"type":"error","name":"IBeanHeadsMarketplace__TokenNotForSale","inputs":[]},{"type":"error","name":"InvalidTokenId","inputs":[]},{"type":"error","name":"MintERC2309QuantityExceedsLimit","inputs":[]},{"type":"error","name":"MintToZeroAddress","inputs":[]},{"type":"error","name":"MintZeroQuantity","inputs":[]},{"type":"error","name":"OwnerQueryForNonexistentToken","inputs":[]},{"type":"error","name":"OwnershipNotInitializedForExtraData","inputs":[]},{"type":"error","name":"TokenAlreadyExists","inputs":[]},{"type":"error","name":"TransferCallerNotOwnerNorApproved","inputs":[]},{"type":"error","name":"TransferFromIncorrectOwner","inputs":[]},{"type":"error","name":"TransferToNonERC721ReceiverImplementer","inputs":[]},{"type":"error","name":"TransferToZeroAddress","inputs":[]},{"type":"error","name":"URIQueryForNonexistentToken","inputs":[]}],"bytecode":{"object":"0x6080806040523461001657613a3b908161001b8239f35b5f80fdfe60806040526004361015610011575f80fd5b5f3560e01c8063018f83431461019457806306fdde031461018f578063081812fc1461018a578063095ea7b314610185578063150b7a021461018057806318160ddd1461017b5780631897bcf31461017657806318eef3951461017157806323b872dd1461016c5780632bda5ac3146101675780633dda35581461016257806342842e0e1461015d5780634930d709146101585780634fed1c94146101535780636352211e1461014e578063692bf4a81461014957806370a082311461014457806371695f1d1461013f57806395d89b411461013a578063a22cb46514610135578063b88d4fde14610130578063cfbf99031461012b578063e985e9c5146101265763f9eaee0d14610121575f80fd5b611c46565b611ba5565b6119f9565b611950565b611732565b61160b565b61151c565b611441565b6110f0565b611096565b611019565b610e17565b610df5565b610bb1565b610a27565b610a13565b61091b565b6107fb565b61077d565b6106d8565b610540565b61046f565b6102d7565b346102635760207ffffffffffffffffffffffffffffffffffffffffffffffffffffffffffffffffc360112610263576004356101cf8161222e565b1561023b575f527f791cad950d3b9b323a06def8cb8b7bf2c934c7f4cea39385f023ba145f9b93ad602052606060405f2073ffffffffffffffffffffffffffffffffffffffff8154169060ff600260018301549201541690604051928352602083015215156040820152f35b7f527aa816000000000000000000000000000000000000000000000000000000005f5260045ffd5b5f80fd5b91908251928382525f5b8481106102af5750507fffffffffffffffffffffffffffffffffffffffffffffffffffffffffffffffe0601f845f6020809697860101520116010190565b602081830181015184830182015201610271565b9060206102d4928181520190610267565b90565b34610263575f7ffffffffffffffffffffffffffffffffffffffffffffffffffffffffffffffffc360112610263576040515f7f8785b62d5a7098417c833f00e99883e36791da2bbef1ddc66d7797ca0681c2d25460018160011c9160018116918215610465575b6020916020851084146104385784875260208701939081156103fb5750600114610383575b61037f86610373818803826118c6565b604051918291826102c3565b0390f35b7f8785b62d5a7098417c833f00e99883e36791da2bbef1ddc66d7797ca0681c2d25f90815294509192917f4eff6dd2ce7e3eed3d8c57a965022ef5c4089064f80bafbcccb1920be91b46a15b8386106103ea57505050910190506103738261037f5f610363565b8054858701529482019481016103cf565b7fffffffffffffffffffffffffffffffffffffffffffffffffffffffffffffff0016845250505090151560051b0190506103738261037f5f610363565b7f4e487b71000000000000000000000000000000000000000000000000000000005f52602260045260245ffd5b92607f169261033e565b346102635760207ffffffffffffffffffffffffffffffffffffffffffffffffffffffffffffffffc360112610263576004356104aa8161222e565b156104fa575f527f8785b62d5a7098417c833f00e99883e36791da2bbef1ddc66d7797ca0681c2d6602052602073ffffffffffffffffffffffffffffffffffffffff60405f205416604051908152f35b7fcf4700e4000000000000000000000000000000000000000000000000000000005f5260045ffd5b73ffffffffffffffffffffffffffffffffffffffff81160361026357565b60407ffffffffffffffffffffffffffffffffffffffffffffffffffffffffffffffffc3601126102635760043561057681610522565b6024359073ffffffffffffffffffffffffffffffffffffffff8061059984612564565b169182330361063a575b835f527f8785b62d5a7098417c833f00e99883e36791da2bbef1ddc66d7797ca0681c2d66020526106128160405f209073ffffffffffffffffffffffffffffffffffffffff167fffffffffffffffffffffffff0000000000000000000000000000000000000000825416179055565b16907f8c5be1e5ebec7d5bd14f71427d1e84f3dd0314c0f7b2291e5b200ac8c7c3b9255f80a4005b60ff6106aa336106878673ffffffffffffffffffffffffffffffffffffffff165f527f8785b62d5a7098417c833f00e99883e36791da2bbef1ddc66d7797ca0681c2d760205260405f2090565b9073ffffffffffffffffffffffffffffffffffffffff165f5260205260405f2090565b54166105a3577fcfb3b942000000000000000000000000000000000000000000000000000000005f5260045ffd5b346102635760807ffffffffffffffffffffffffffffffffffffffffffffffffffffffffffffffffc36011261026357610712600435610522565b61071d602435610522565b60643567ffffffffffffffff80821161026357366023830112156102635781600401359081116102635736910160240111610263576040517f150b7a02000000000000000000000000000000000000000000000000000000008152602090f35b34610263575f7ffffffffffffffffffffffffffffffffffffffffffffffffffffffffffffffffc3601126102635760207f8785b62d5a7098417c833f00e99883e36791da2bbef1ddc66d7797ca0681c2d0547f8785b62d5a7098417c833f00e99883e36791da2bbef1ddc66d7797ca0681c2d1549003604051908152f35b346102635760407ffffffffffffffffffffffffffffffffffffffffffffffffffffffffffffffffc360112610263576004356024356108398261222e565b1561023b5761086961085061085061085085612564565b73ffffffffffffffffffffffffffffffffffffffff1690565b330361091657801561091157610880823033612140565b6108d761088b611907565b3381528260208201526108a16040820160019052565b6108d2845f527f791cad950d3b9b323a06def8cb8b7bf2c934c7f4cea39385f023ba145f9b93ad60205260405f2090565b611ccb565b6108e08261343c565b5060405190815233907fe1d604800ecfffb56e9d4ca585816df41dde9a764119d7ef01d927cdf8c237b090602090a3005b61230c565b6122e4565b346102635760207ffffffffffffffffffffffffffffffffffffffffffffffffffffffffffffffffc360112610263576004356109568161222e565b1561023b575f527f791cad950d3b9b323a06def8cb8b7bf2c934c7f4cea39385f023ba145f9b93ad60205260405f2060ff600282015416156109a15760016020910154604051908152f35b7f782e2fe9000000000000000000000000000000000000000000000000000000005f5260045ffd5b7ffffffffffffffffffffffffffffffffffffffffffffffffffffffffffffffffc6060910112610263576004356109ff81610522565b90602435610a0c81610522565b9060443590565b610a25610a1f366109c9565b91611d6f565b005b346102635760207ffffffffffffffffffffffffffffffffffffffffffffffffffffffffffffffffc36011261026357600435610a628161222e565b1561023b57610a98815f527f791cad950d3b9b323a06def8cb8b7bf2c934c7f4cea39385f023ba145f9b93ad60205260405f2090565b610ab9610850825473ffffffffffffffffffffffffffffffffffffffff1690565b3303610916576002810190610ad6610ad2835460ff1690565b1590565b610b7b57610b1c610b4a92610af4610aec612096565b86333061291d565b7fffffffffffffffffffffffffffffffffffffffffffffffffffffffffffffff008154169055565b5f60018201557fffffffffffffffffffffffff00000000000000000000000000000000000000008154169055565b610b5381613715565b50337ffd29d40736f7e30e737c49f0da6edb357095e0117291cd63e251ef8b2a5cd5735f80a3005b6109a1565b9181601f840112156102635782359167ffffffffffffffff8311610263576020808501948460051b01011161026357565b346102635760607ffffffffffffffffffffffffffffffffffffffffffffffffffffffffffffffffc36011261026357600435610bec81610522565b60243567ffffffffffffffff811161026357610c0c903690600401610b80565b60443590610c1982610522565b610c2161292b565b60ff610c6a8373ffffffffffffffffffffffffffffffffffffffff165f527f791cad950d3b9b323a06def8cb8b7bf2c934c7f4cea39385f023ba145f9b93b260205260405f2090565b541615610dcd57610c7a816129b9565b92604094610c8b60405195866118c6565b828552610c97836129b9565b957fffffffffffffffffffffffffffffffffffffffffffffffffffffffffffffffe0602097013660208801375f965f915b858310610d4e57505050610d2086610cea610d2598610ce56120a8565b6129e5565b610d188173ffffffffffffffffffffffffffffffffffffffff8816610d0f8282612a8d565b30903390612b9e565b610ce56120e1565b612c1a565b610a2560017f862460a2be1e75f44234ae220583844903aaee6923993409e3eaa0efbd0da84155565b909197610d5c898787612180565b355f527f791cad950d3b9b323a06def8cb8b7bf2c934c7f4cea39385f023ba145f9b93ad8352815f20610d96610ad2600283015460ff1690565b610dc857600191610dad83610dbf9301548a612f13565b9081610db98d8d6129d1565b526126c3565b98019190610cc8565b612334565b7ffa3d8e01000000000000000000000000000000000000000000000000000000005f5260045ffd5b610a25610e01366109c9565b9060405192610e0f8461188e565b5f84526121d4565b34610263576040807ffffffffffffffffffffffffffffffffffffffffffffffffffffffffffffffffc3601126102635767ffffffffffffffff60043581811161026357610e68903690600401610b80565b9160243590811161026357610e81903690600401610b80565b929091838203610ff1575f5b828110610e9657005b610ea1818484612180565b3590610eae818787612180565b3591610ee1815f527f791cad950d3b9b323a06def8cb8b7bf2c934c7f4cea39385f023ba145f9b93ad60205260405f2090565b92610eee610ad28361222e565b610fec573373ffffffffffffffffffffffffffffffffffffffff610f1761085061085086612564565b1603610fe7578015610fe2576002840193610f33855460ff1690565b610fdd576001948286610fa093610f4b873033612140565b80547fffffffffffffffffffffffff00000000000000000000000000000000000000001633178155015560017fffffffffffffffffffffffffffffffffffffffffffffffffffffffffffffff00825416179055565b610fa98261343c565b50885190815233907fe1d604800ecfffb56e9d4ca585816df41dde9a764119d7ef01d927cdf8c237b090602090a301610e8d565b6123d4565b6123ac565b612384565b61235c565b7fd6b68c7c000000000000000000000000000000000000000000000000000000005f5260045ffd5b346102635760207ffffffffffffffffffffffffffffffffffffffffffffffffffffffffffffffffc360112610263576004356110548161222e565b1561023b575f527f791cad950d3b9b323a06def8cb8b7bf2c934c7f4cea39385f023ba145f9b93ad602052602060ff600260405f200154166040519015158152f35b346102635760207ffffffffffffffffffffffffffffffffffffffffffffffffffffffffffffffffc36011261026357602073ffffffffffffffffffffffffffffffffffffffff6110e7600435612564565b16604051908152f35b346102635760607ffffffffffffffffffffffffffffffffffffffffffffffffffffffffffffffffc3601126102635760043561112b81610522565b6024356044359161113b83610522565b61114361292b565b61114c8261222e565b1561023b57611182825f527f791cad950d3b9b323a06def8cb8b7bf2c934c7f4cea39385f023ba145f9b93ad60205260405f2090565b90611194610ad2600284015460ff1690565b610b7b576111ec610ad26111e58673ffffffffffffffffffffffffffffffffffffffff165f527f791cad950d3b9b323a06def8cb8b7bf2c934c7f4cea39385f023ba145f9b93b260205260405f2090565b5460ff1690565b61143c57827fa8a7473f10e62cf9687e243de1c3ac8b3cbc3dd04b96826beb3a65b5953858146113af95611350839561132373ffffffffffffffffffffffffffffffffffffffff936112b285821660018501549061124a8285612f13565b998a926112578484612a8d565b61126384303386612b9e565b61127a8a611271868561319f565b809391976121c2565b9582151580611431575b6113d9575b50505050506112ac865473ffffffffffffffffffffffffffffffffffffffff1690565b9061326e565b6112e3895f527f791cad950d3b9b323a06def8cb8b7bf2c934c7f4cea39385f023ba145f9b93b360205260405f2090565b9073ffffffffffffffffffffffffffffffffffffffff167fffffffffffffffffffffffff0000000000000000000000000000000000000000825416179055565b61133661132e612096565b88883061291d565b5473ffffffffffffffffffffffffffffffffffffffff1690565b6040519384528116931691602090a46113aa61136a611907565b5f81525f60208201525f60408201526108d2835f527f791cad950d3b9b323a06def8cb8b7bf2c934c7f4cea39385f023ba145f9b93ad60205260405f2090565b613715565b50610a2560017f862460a2be1e75f44234ae220583844903aaee6923993409e3eaa0efbd0da84155565b611424836114097f70f417ac564051a4ecb55ef0f383eb66de1611967ce4c0bcf70edfdbb94b5c6795848a61326e565b60405193849316958360209093929193604081019481520152565b0390a38b5f808a81611289565b508181161515611284565b610dcd565b346102635760207ffffffffffffffffffffffffffffffffffffffffffffffffffffffffffffffffc3601126102635760043561147c81610522565b73ffffffffffffffffffffffffffffffffffffffff8116156114f45767ffffffffffffffff6114ea60209273ffffffffffffffffffffffffffffffffffffffff165f527f8785b62d5a7098417c833f00e99883e36791da2bbef1ddc66d7797ca0681c2d560205260405f2090565b5416604051908152f35b7f8f4eb604000000000000000000000000000000000000000000000000000000005f5260045ffd5b34610263575f7ffffffffffffffffffffffffffffffffffffffffffffffffffffffffffffffffc36011261026357604051807f791cad950d3b9b323a06def8cb8b7bf2c934c7f4cea39385f023ba145f9b93c4805480845260208094019081925f527f8cecb7c2563cbe0d544d5d5de7aabb1586c37ae42947b8cba537816a5911522d905f5b868282106115f75786866115b8828803836118c6565b60405192839281840190828552518091526040840192915f5b8281106115e057505050500390f35b8351855286955093810193928101926001016115d1565b8354855290930192600192830192016115a2565b34610263575f7ffffffffffffffffffffffffffffffffffffffffffffffffffffffffffffffffc360112610263576040515f7f8785b62d5a7098417c833f00e99883e36791da2bbef1ddc66d7797ca0681c2d35460018160011c916001811691821561171e575b6020916020851084146104385784875260208701939081156103fb57506001146116a65761037f86610373818803826118c6565b7f8785b62d5a7098417c833f00e99883e36791da2bbef1ddc66d7797ca0681c2d35f90815294509192917feab2a30426a14f07ecdc76635cd0729eb655bee4c9d04a8fb1b5d85c28c9dae35b83861061170d57505050910190506103738261037f5f610363565b8054858701529482019481016116f2565b92607f1692611672565b8015150361026357565b346102635760407ffffffffffffffffffffffffffffffffffffffffffffffffffffffffffffffffc3601126102635760043561176d81610522565b73ffffffffffffffffffffffffffffffffffffffff6024359161178f83611728565b61180e836117de836106873373ffffffffffffffffffffffffffffffffffffffff165f527f8785b62d5a7098417c833f00e99883e36791da2bbef1ddc66d7797ca0681c2d760205260405f2090565b9060ff7fffffffffffffffffffffffffffffffffffffffffffffffffffffffffffffff0083541691151516179055565b604051921515835216907f17307eab39ab6107e8899845ad3d59bd9653f200f220920489ca2b5937696c3160203392a3005b7f4e487b71000000000000000000000000000000000000000000000000000000005f52604160045260245ffd5b6060810190811067ffffffffffffffff82111761188957604052565b611840565b6020810190811067ffffffffffffffff82111761188957604052565b6040810190811067ffffffffffffffff82111761188957604052565b90601f7fffffffffffffffffffffffffffffffffffffffffffffffffffffffffffffffe0910116810190811067ffffffffffffffff82111761188957604052565b604051906119148261186d565b565b67ffffffffffffffff811161188957601f017fffffffffffffffffffffffffffffffffffffffffffffffffffffffffffffffe01660200190565b60807ffffffffffffffffffffffffffffffffffffffffffffffffffffffffffffffffc3601126102635760043561198681610522565b60243561199281610522565b6064359167ffffffffffffffff83116102635736602384011215610263578260040135916119bf83611916565b926119cd60405194856118c6565b8084523660248287010111610263576020815f926024610a2598018388013785010152604435916121d4565b346102635760407ffffffffffffffffffffffffffffffffffffffffffffffffffffffffffffffffc3601126102635760043567ffffffffffffffff811161026357611a48903690600401610b80565b9060243591611a5683610522565b73ffffffffffffffffffffffffffffffffffffffff8316905f5b818110611a7957005b611a84818386612180565b3590611ab7825f527f791cad950d3b9b323a06def8cb8b7bf2c934c7f4cea39385f023ba145f9b93ad60205260405f2090565b91611ac4610ad28261222e565b610fec57611ae9610850845473ffffffffffffffffffffffffffffffffffffffff1690565b8503610fe7576002830192611b02610ad2855460ff1690565b610dc8576001935f8583611b3b611b65957fffffffffffffffffffffffff00000000000000000000000000000000000000008154169055565b01557fffffffffffffffffffffffffffffffffffffffffffffffffffffffffffffff008154169055565b611b6e81613715565b50611b7a818830613632565b847ffd29d40736f7e30e737c49f0da6edb357095e0117291cd63e251ef8b2a5cd5735f80a301611a70565b346102635760407ffffffffffffffffffffffffffffffffffffffffffffffffffffffffffffffffc36011261026357602060ff611c3a600435611be781610522565b61068760243591611bf783610522565b73ffffffffffffffffffffffffffffffffffffffff165f527f8785b62d5a7098417c833f00e99883e36791da2bbef1ddc66d7797ca0681c2d760205260405f2090565b54166040519015158152f35b346102635760207ffffffffffffffffffffffffffffffffffffffffffffffffffffffffffffffffc36011261026357602060ff611c3a600435611c8881610522565b73ffffffffffffffffffffffffffffffffffffffff165f527f791cad950d3b9b323a06def8cb8b7bf2c934c7f4cea39385f023ba145f9b93b260205260405f2090565b6002604061191493611d2f73ffffffffffffffffffffffffffffffffffffffff825116859073ffffffffffffffffffffffffffffffffffffffff167fffffffffffffffffffffffff0000000000000000000000000000000000000000825416179055565b602081015160018501550151151591019060ff7fffffffffffffffffffffffffffffffffffffffffffffffffffffffffffffff0083541691151516179055565b919091611d7b82612564565b9273ffffffffffffffffffffffffffffffffffffffff809216938483821603612091575f8481527f8785b62d5a7098417c833f00e99883e36791da2bbef1ddc66d7797ca0681c2d6602052604090208054611df273ffffffffffffffffffffffffffffffffffffffff881633908114908314171590565b612036575b611e028685896127d0565b61202d575b50611e4f8573ffffffffffffffffffffffffffffffffffffffff165f527f8785b62d5a7098417c833f00e99883e36791da2bbef1ddc66d7797ca0681c2d560205260405f2090565b80547fffffffffffffffffffffffffffffffffffffffffffffffffffffffffffffffff019055611ebc8273ffffffffffffffffffffffffffffffffffffffff165f527f8785b62d5a7098417c833f00e99883e36791da2bbef1ddc66d7797ca0681c2d560205260405f2090565b8054600101905573ffffffffffffffffffffffffffffffffffffffff82164260a01b177c020000000000000000000000000000000000000000000000000000000017611f2f855f527f8785b62d5a7098417c833f00e99883e36791da2bbef1ddc66d7797ca0681c2d460205260405f2090565b557c0200000000000000000000000000000000000000000000000000000000811615611f8a575b501680927fddf252ad1be2c89b69c2b068fc378daa952ba7f163c4a11628f55a4df523b3ef5f80a415611f8557565b61244c565b60018401611fbf815f527f8785b62d5a7098417c833f00e99883e36791da2bbef1ddc66d7797ca0681c2d460205260405f2090565b5415611fcc575b50611f56565b7f8785b62d5a7098417c833f00e99883e36791da2bbef1ddc66d7797ca0681c2d0548114611fc657612025905f527f8785b62d5a7098417c833f00e99883e36791da2bbef1ddc66d7797ca0681c2d460205260405f2090565b555f80611fc6565b5f90555f611e07565b612087610ad26111e5336106878b73ffffffffffffffffffffffffffffffffffffffff165f527f8785b62d5a7098417c833f00e99883e36791da2bbef1ddc66d7797ca0681c2d760205260405f2090565b15611df757612424565b6123fc565b604051906120a38261188e565b5f8252565b604051906120b5826118aa565b601d82527f546f74616c20707269636520696e207061796d656e7420746f6b656e3a0000006020830152565b604051906120ee8261186d565b602a82527f20636f6e74726163743a000000000000000000000000000000000000000000006040837f546f6b656e73207472616e736665727265642066726f6d20627579657220746f60208201520152565b90916119149260405192610e0f8461188e565b7f4e487b71000000000000000000000000000000000000000000000000000000005f52603260045260245ffd5b91908110156121905760051b0190565b612153565b7f4e487b71000000000000000000000000000000000000000000000000000000005f52601160045260245ffd5b919082039182116121cf57565b612195565b9291906121e2828286611d6f565b803b6121ef575b50505050565b6121f893613348565b15612206575f8080806121e9565b7fd1a57ed6000000000000000000000000000000000000000000000000000000005f5260045ffd5b905f917f8785b62d5a7098417c833f00e99883e36791da2bbef1ddc66d7797ca0681c2d054811061225c5750565b9091505b805f527f8785b62d5a7098417c833f00e99883e36791da2bbef1ddc66d7797ca0681c2d460205260405f2054806122bf575080156121cf577fffffffffffffffffffffffffffffffffffffffffffffffffffffffffffffffff01612260565b7c01000000000000000000000000000000000000000000000000000000009150161590565b7f104d44d3000000000000000000000000000000000000000000000000000000005f5260045ffd5b7faf2e5d30000000000000000000000000000000000000000000000000000000005f5260045ffd5b7f0a5f49d5000000000000000000000000000000000000000000000000000000005f5260045ffd5b7f83319d33000000000000000000000000000000000000000000000000000000005f5260045ffd5b7f5f7b67f9000000000000000000000000000000000000000000000000000000005f5260045ffd5b7f6906bb5e000000000000000000000000000000000000000000000000000000005f5260045ffd5b7fa9d9e89f000000000000000000000000000000000000000000000000000000005f5260045ffd5b7fa1148100000000000000000000000000000000000000000000000000000000005f5260045ffd5b7f59c896be000000000000000000000000000000000000000000000000000000005f5260045ffd5b7fea553b34000000000000000000000000000000000000000000000000000000005f5260045ffd5b7fdf2d9b42000000000000000000000000000000000000000000000000000000005f5260045ffd5b7f0fb51c13000000000000000000000000000000000000000000000000000000005f5260045ffd5b7fbf79ab09000000000000000000000000000000000000000000000000000000005f5260045ffd5b7fef07d5e4000000000000000000000000000000000000000000000000000000005f5260045ffd5b7fd5a6b05d000000000000000000000000000000000000000000000000000000005f5260045ffd5b7f59ca34d4000000000000000000000000000000000000000000000000000000005f5260045ffd5b612595815f527f8785b62d5a7098417c833f00e99883e36791da2bbef1ddc66d7797ca0681c2d460205260405f2090565b549081156125c557507c010000000000000000000000000000000000000000000000000000000081166124745790565b90507f8785b62d5a7098417c833f00e99883e36791da2bbef1ddc66d7797ca0681c2d054811015612474577fffffffffffffffffffffffffffffffffffffffffffffffffffffffffffffffff905b01612645815f527f8785b62d5a7098417c833f00e99883e36791da2bbef1ddc66d7797ca0681c2d460205260405f2090565b5490811561269b57507c01000000000000000000000000000000000000000000000000000000008116156102d4577fdf2d9b42000000000000000000000000000000000000000000000000000000005f5260045ffd5b7fffffffffffffffffffffffffffffffffffffffffffffffffffffffffffffffff9150612613565b919082018092116121cf57565b7f791cad950d3b9b323a06def8cb8b7bf2c934c7f4cea39385f023ba145f9b93c48054821015612190575f527f8cecb7c2563cbe0d544d5d5de7aabb1586c37ae42947b8cba537816a5911522d01905f90565b8054821015612190575f5260205f2001905f90565b91612770918354907fffffffffffffffffffffffffffffffffffffffffffffffffffffffffffffffff9060031b92831b921b19161790565b9055565b80549068010000000000000000821015611889578161279b91600161277094018155612723565b81939154907fffffffffffffffffffffffffffffffffffffffffffffffffffffffffffffffff9060031b92831b921b19161790565b9190915f5b600181106128a5575073ffffffffffffffffffffffffffffffffffffffff90818116612879575b508216612807575050565b5f5b6001811061281657505050565b6001906128736128638573ffffffffffffffffffffffffffffffffffffffff165f527f791cad950d3b9b323a06def8cb8b7bf2c934c7f4cea39385f023ba145f9b93b160205260405f2090565b61286d83866126c3565b90612774565b01612809565b5f5b6001811061288957506127fc565b8061289f612899600193876126c3565b84613568565b0161287b565b6128af81846126c3565b73ffffffffffffffffffffffffffffffffffffffff8316151590816128e1575b506128dc576001016127d5565b61249c565b61291791506111e5905f527f791cad950d3b9b323a06def8cb8b7bf2c934c7f4cea39385f023ba145f9b93c060205260405f2090565b5f6128cf565b9291906121e2828286613632565b7f862460a2be1e75f44234ae220583844903aaee6923993409e3eaa0efbd0da841600281541461295b5760029055565b60646040517f08c379a000000000000000000000000000000000000000000000000000000000815260206004820152601d60248201527f5265656e7472616e63794c69623a207265656e7472616e742063616c6c0000006044820152fd5b67ffffffffffffffff81116118895760051b60200190565b80518210156121905760209160051b010190565b5f91908291612a606040518092612a2e60208301957fb60e72cc000000000000000000000000000000000000000000000000000000008752604060248501526064840190610267565b906044830152037fffffffffffffffffffffffffffffffffffffffffffffffffffffffffffffffe081018352826118c6565b51906a636f6e736f6c652e6c6f675afa50565b90816020910312610263575190565b6040513d5f823e3d90fd5b6040517fdd62ed3e00000000000000000000000000000000000000000000000000000000815233600482015230602482015260209173ffffffffffffffffffffffffffffffffffffffff16908281604481855afa8015612b775784915f91612b81575b5010612b7c576040517f70a08231000000000000000000000000000000000000000000000000000000008152336004820152908290829060249082905afa918215612b77575f92612b4a575b505010612b4557565b6124ec565b612b699250803d10612b70575b612b6181836118c6565b810190612a73565b5f80612b3c565b503d612b57565b612a82565b6124c4565b612b989150843d8611612b7057612b6181836118c6565b5f612af0565b9290604051927f23b872dd00000000000000000000000000000000000000000000000000000000602085015273ffffffffffffffffffffffffffffffffffffffff809216602485015216604483015260648201526064815260a081019181831067ffffffffffffffff8411176118895761191492604052613824565b9093915f5b818110612c2e57505050505050565b80612dba612c3f600193858a612180565b356113aa6002898389612c52888d6129d1565b517fa8a7473f10e62cf9687e243de1c3ac8b3cbc3dd04b96826beb3a65b59538581473ffffffffffffffffffffffffffffffffffffffff808616612d44612cc0875f527f791cad950d3b9b323a06def8cb8b7bf2c934c7f4cea39385f023ba145f9b93ad60205260405f2090565b97612d13612ce28a5473ffffffffffffffffffffffffffffffffffffffff1690565b9384612d0d898c612cf3828261319f565b92908b84151580612e09575b612dc1575b505090506121c2565b9161326e565b6112e3885f527f791cad950d3b9b323a06def8cb8b7bf2c934c7f4cea39385f023ba145f9b93b360205260405f2090565b612d57612d4f612096565b87873061291d565b6040519384528116931691602090a480547fffffffffffffffffffffffff00000000000000000000000000000000000000001681555f87820155017fffffffffffffffffffffffffffffffffffffffffffffffffffffffffffffff008154169055565b5001612c1f565b81612dee867f70f417ac564051a4ecb55ef0f383eb66de1611967ce4c0bcf70edfdbb94b5c67948b61326e565b6040805194855260208501879052911692a38c8b5f8b612d04565b508082161515612cff565b519069ffffffffffffffffffff8216820361026357565b908160a091031261026357612e3f81612e14565b916020820151916040810151916102d4608060608401519301612e14565b90816020910312610263575160ff811681036102635790565b60ff16604d81116121cf57600a0a90565b818102929181159184041417156121cf57565b8115612ea4570490565b7f4e487b71000000000000000000000000000000000000000000000000000000005f52601260045260245ffd5b60ff166012039060ff82116121cf57565b60ff7fffffffffffffffffffffffffffffffffffffffffffffffffffffffffffffffee9116019060ff82116121cf57565b9073ffffffffffffffffffffffffffffffffffffffff80612f746113368573ffffffffffffffffffffffffffffffffffffffff165f527f791cad950d3b9b323a06def8cb8b7bf2c934c7f4cea39385f023ba145f9b93b460205260405f2090565b161561319a57612fca6108506108506113368673ffffffffffffffffffffffffffffffffffffffff165f527f791cad950d3b9b323a06def8cb8b7bf2c934c7f4cea39385f023ba145f9b93b460205260405f2090565b92604051907ffeaf968c00000000000000000000000000000000000000000000000000000000825260a082600481885afa918215612b77575f925f935f925f9261315f575b505f851392831593613156575b50821561313c575b50506131375760405193847f313ce567000000000000000000000000000000000000000000000000000000009687825281600460209889935afa938415612b7757613087600493613081899761308c955f9161311a575b50612e76565b90612e87565b612e9a565b9560405194859384928352165afa918215612b77575f926130ed575b505060ff8116601281106130d6576012106130c1575090565b906130816130d16102d493612ee2565b612e76565b50906130e76130d16102d493612ed1565b90612e9a565b61310c9250803d10613113575b61310481836118c6565b810190612e5d565b5f806130a8565b503d6130fa565b6131319150893d8b116131135761310481836118c6565b5f61307b565b61253c565b69ffffffffffffffffffff90811691161090505f80613024565b1592505f61301c565b9250505061318691925060a03d60a011613193575b61317e81836118c6565b810190612e2b565b929493909291505f61300f565b503d613174565b612514565b7f791cad950d3b9b323a06def8cb8b7bf2c934c7f4cea39385f023ba145f9b93b954604080517f2a55205a00000000000000000000000000000000000000000000000000000000815260048101939093526024830193909352909291908390604490829073ffffffffffffffffffffffffffffffffffffffff165afa918215612b77575f905f9361322f57509190565b9250506040823d604011613266575b8161324b604093836118c6565b8101031261026357602082519261326184610522565b015190565b3d915061323e565b9173ffffffffffffffffffffffffffffffffffffffff604051927fa9059cbb000000000000000000000000000000000000000000000000000000006020850152166024830152604482015260448152608081019181831067ffffffffffffffff8411176118895761191492604052613824565b9081602091031261026357517fffffffff00000000000000000000000000000000000000000000000000000000811681036102635790565b3d15613343573d9061332a82611916565b9161333860405193846118c6565b82523d5f602084013e565b606090565b926020916133b7935f73ffffffffffffffffffffffffffffffffffffffff604051809781968295847f150b7a02000000000000000000000000000000000000000000000000000000009c8d86523360048701521660248501526044840152608060648401526084830190610267565b0393165af15f918161340b575b506133e5576133d1613319565b8051156133e057805190602001fd5b612206565b7fffffffff00000000000000000000000000000000000000000000000000000000161490565b61342e91925060203d602011613435575b61342681836118c6565b8101906132e1565b905f6133c4565b503d61341c565b805f527f791cad950d3b9b323a06def8cb8b7bf2c934c7f4cea39385f023ba145f9b93c58060205260405f2054155f146134e8577f791cad950d3b9b323a06def8cb8b7bf2c934c7f4cea39385f023ba145f9b93c480546801000000000000000081101561188957600181018083558110156121905783907f8cecb7c2563cbe0d544d5d5de7aabb1586c37ae42947b8cba537816a5911522d015554915f5260205260405f2055600190565b50505f90565b7f4e487b71000000000000000000000000000000000000000000000000000000005f52603160045260245ffd5b8054908115613563577fffffffffffffffffffffffffffffffffffffffffffffffffffffffffffffffff809201916135538383612723565b909182549160031b1b1916905555565b6134ee565b73ffffffffffffffffffffffffffffffffffffffff165f527f791cad950d3b9b323a06def8cb8b7bf2c934c7f4cea39385f023ba145f9b93b160205260405f208054905f5b8281106135ba5750505050565b836135c58284612723565b919054600392831b1c146135dc57506001016135ad565b90919293507fffffffffffffffffffffffffffffffffffffffffffffffffffffffffffffffff84019384116121cf5761279b61362b9161361f6119149686612723565b9054911b1c9284612723565b905561351b565b91909161363e82612564565b9273ffffffffffffffffffffffffffffffffffffffff809216938483821603612091575f8481527f8785b62d5a7098417c833f00e99883e36791da2bbef1ddc66d7797ca0681c2d6602052604090208054611df7565b7f791cad950d3b9b323a06def8cb8b7bf2c934c7f4cea39385f023ba145f9b93c48054908115613563577fffffffffffffffffffffffffffffffffffffffffffffffffffffffffffffffff82019180831015612190577f8cecb7c2563cbe0d544d5d5de7aabb1586c37ae42947b8cba537816a5911522c5f91838352015555565b5f8181527f791cad950d3b9b323a06def8cb8b7bf2c934c7f4cea39385f023ba145f9b93c5602052604090205480156134e8577fffffffffffffffffffffffffffffffffffffffffffffffffffffffffffffffff91828201918083116121cf577f791cad950d3b9b323a06def8cb8b7bf2c934c7f4cea39385f023ba145f9b93c4549384019384116121cf5783835f956137e795036137ed575b5050506137ba613694565b5f527f791cad950d3b9b323a06def8cb8b7bf2c934c7f4cea39385f023ba145f9b93c560205260405f2090565b55600190565b6137ba6138159161380d61380361381b956126d0565b90549060031b1c90565b9283916126d0565b90612738565b555f80806137af565b60405161388e9173ffffffffffffffffffffffffffffffffffffffff1661384a826118aa565b5f806020958685527f5361666545524332303a206c6f772d6c6576656c2063616c6c206661696c656487860152868151910182855af1613888613319565b9161393d565b80518061389a57505050565b81839181010312610263578101516138b181611728565b156138b95750565b608490604051907f08c379a00000000000000000000000000000000000000000000000000000000082526004820152602a60248201527f5361666545524332303a204552433230206f7065726174696f6e20646964206e60448201527f6f742073756363656564000000000000000000000000000000000000000000006064820152fd5b919290156139b85750815115613951575090565b3b1561395a5790565b60646040517f08c379a000000000000000000000000000000000000000000000000000000000815260206004820152601d60248201527f416464726573733a2063616c6c20746f206e6f6e2d636f6e74726163740000006044820152fd5b8251909150156139cb5750805190602001fd5b613a01906040519182917f08c379a0000000000000000000000000000000000000000000000000000000008352600483016102c3565b0390fdfea264697066735822122011fa923745b56cb7d8da654c3a784f1d0ad7082590fe302dbf1aea64ebbf5dfc64736f6c63430008180033","linkReferences":{}},"methodIdentifiers":{"approve(address,uint256)":"095ea7b3","balanceOf(address)":"70a08231","batchBuyTokens(address,uint256[],address)":"3dda3558","batchCancelTokenSales(uint256[],address)":"cfbf9903","batchSellTokens(uint256[],uint256[])":"4930d709","buyToken(address,uint256,address)":"692bf4a8","cancelTokenSale(uint256)":"2bda5ac3","getAllActiveSaleTokens()":"71695f1d","getApproved(uint256)":"081812fc","getTokenSaleInfo(uint256)":"018f8343","getTokenSalePrice(uint256)":"18eef395","isApprovedForAll(address,address)":"e985e9c5","isTokenAllowed(address)":"f9eaee0d","isTokenForSale(uint256)":"4fed1c94","name()":"06fdde03","onERC721Received(address,address,uint256,bytes)":"150b7a02","ownerOf(uint256)":"6352211e","safeTransferFrom(address,address,uint256)":"42842e0e","safeTransferFrom(address,address,uint256,bytes)":"b88d4fde","sellToken(uint256,uint256)":"1897bcf3","setApprovalForAll(address,bool)":"a22cb465","symbol()":"95d89b41","totalSupply()":"18160ddd","transferFrom(address,address,uint256)":"23b872dd"},"id":124}