{
  "abi": [
    {
      "type": "constructor",
      "inputs": [
        {
          "name": "router",
          "type": "address",
          "internalType": "address"
        },
        {
          "name": "initialOwner",
          "type": "address",
          "internalType": "address"
        },
        {
          "name": "linkToken",
          "type": "address",
          "internalType": "address"
        },
        {
          "name": "usdcToken",
          "type": "address",
          "internalType": "address"
        },
        {
          "name": "beanHeads",
          "type": "address",
          "internalType": "address"
        }
      ],
      "stateMutability": "nonpayable"
    },
    {
      "type": "function",
      "name": "ADDITIONAL_FEED_PRECISION",
      "inputs": [],
      "outputs": [
        {
          "name": "",
          "type": "uint256",
          "internalType": "uint256"
        }
      ],
      "stateMutability": "view"
    },
    {
      "type": "function",
      "name": "GAS_LIMIT_BUY",
      "inputs": [],
      "outputs": [
        {
          "name": "",
          "type": "uint256",
          "internalType": "uint256"
        }
      ],
      "stateMutability": "view"
    },
    {
      "type": "function",
      "name": "GAS_LIMIT_MINT",
      "inputs": [],
      "outputs": [
        {
          "name": "",
          "type": "uint256",
          "internalType": "uint256"
        }
      ],
      "stateMutability": "view"
    },
    {
      "type": "function",
      "name": "GAS_LIMIT_SELL",
      "inputs": [],
      "outputs": [
        {
          "name": "",
          "type": "uint256",
          "internalType": "uint256"
        }
      ],
      "stateMutability": "view"
    },
    {
      "type": "function",
      "name": "GAS_LIMIT_TRANSFER",
      "inputs": [],
      "outputs": [
        {
          "name": "",
          "type": "uint256",
          "internalType": "uint256"
        }
      ],
      "stateMutability": "view"
    },
    {
      "type": "function",
      "name": "PRECISION",
      "inputs": [],
      "outputs": [
        {
          "name": "",
          "type": "uint256",
          "internalType": "uint256"
        }
      ],
      "stateMutability": "view"
    },
    {
      "type": "function",
      "name": "ccipReceive",
      "inputs": [
        {
          "name": "message",
          "type": "tuple",
          "internalType": "struct Client.Any2EVMMessage",
          "components": [
            {
              "name": "messageId",
              "type": "bytes32",
              "internalType": "bytes32"
            },
            {
              "name": "sourceChainSelector",
              "type": "uint64",
              "internalType": "uint64"
            },
            {
              "name": "sender",
              "type": "bytes",
              "internalType": "bytes"
            },
            {
              "name": "data",
              "type": "bytes",
              "internalType": "bytes"
            },
            {
              "name": "destTokenAmounts",
              "type": "tuple[]",
              "internalType": "struct Client.EVMTokenAmount[]",
              "components": [
                {
                  "name": "token",
                  "type": "address",
                  "internalType": "address"
                },
                {
                  "name": "amount",
                  "type": "uint256",
                  "internalType": "uint256"
                }
              ]
            }
          ]
        }
      ],
      "outputs": [],
      "stateMutability": "nonpayable"
    },
    {
      "type": "function",
      "name": "depositLink",
      "inputs": [
        {
          "name": "amount",
          "type": "uint256",
          "internalType": "uint256"
        }
      ],
      "outputs": [],
      "stateMutability": "nonpayable"
    },
    {
      "type": "function",
      "name": "getRouter",
      "inputs": [],
      "outputs": [
        {
          "name": "",
          "type": "address",
          "internalType": "address"
        }
      ],
      "stateMutability": "view"
    },
    {
      "type": "function",
      "name": "i_beanHeadsContract",
      "inputs": [],
      "outputs": [
        {
          "name": "",
          "type": "address",
          "internalType": "address"
        }
      ],
      "stateMutability": "view"
    },
    {
      "type": "function",
      "name": "i_router",
      "inputs": [],
      "outputs": [
        {
          "name": "",
          "type": "address",
          "internalType": "contract IRouterClient"
        }
      ],
      "stateMutability": "view"
    },
    {
      "type": "function",
      "name": "onERC721Received",
      "inputs": [
        {
          "name": "",
          "type": "address",
          "internalType": "address"
        },
        {
          "name": "",
          "type": "address",
          "internalType": "address"
        },
        {
          "name": "",
          "type": "uint256",
          "internalType": "uint256"
        },
        {
          "name": "",
          "type": "bytes",
          "internalType": "bytes"
        }
      ],
      "outputs": [
        {
          "name": "",
          "type": "bytes4",
          "internalType": "bytes4"
        }
      ],
      "stateMutability": "pure"
    },
    {
      "type": "function",
      "name": "owner",
      "inputs": [],
      "outputs": [
        {
          "name": "",
          "type": "address",
          "internalType": "address"
        }
      ],
      "stateMutability": "view"
    },
    {
      "type": "function",
      "name": "remoteBridgeAddresses",
      "inputs": [
        {
          "name": "remoteBridge",
          "type": "address",
          "internalType": "address"
        }
      ],
      "outputs": [
        {
          "name": "isRegistered",
          "type": "bool",
          "internalType": "bool"
        }
      ],
      "stateMutability": "view"
    },
    {
      "type": "function",
      "name": "renounceOwnership",
      "inputs": [],
      "outputs": [],
      "stateMutability": "nonpayable"
    },
    {
      "type": "function",
      "name": "s_destChain",
      "inputs": [],
      "outputs": [
        {
          "name": "",
          "type": "uint64",
          "internalType": "uint64"
        }
      ],
      "stateMutability": "view"
    },
    {
      "type": "function",
      "name": "s_linkToken",
      "inputs": [],
      "outputs": [
        {
          "name": "",
          "type": "address",
          "internalType": "contract IERC20"
        }
      ],
      "stateMutability": "view"
    },
    {
      "type": "function",
      "name": "s_remoteBridge",
      "inputs": [],
      "outputs": [
        {
          "name": "",
          "type": "address",
          "internalType": "address"
        }
      ],
      "stateMutability": "view"
    },
    {
      "type": "function",
      "name": "s_usdcToken",
      "inputs": [],
      "outputs": [
        {
          "name": "",
          "type": "address",
          "internalType": "contract IERC20"
        }
      ],
      "stateMutability": "view"
    },
    {
      "type": "function",
      "name": "sendBatchBuyTokenRequest",
      "inputs": [
        {
          "name": "_destinationChainSelector",
          "type": "uint64",
          "internalType": "uint64"
        },
        {
          "name": "_tokenIds",
          "type": "uint256[]",
          "internalType": "uint256[]"
        },
        {
          "name": "_prices",
          "type": "uint256[]",
          "internalType": "uint256[]"
        },
        {
          "name": "_paymentToken",
          "type": "address",
          "internalType": "address"
        }
      ],
      "outputs": [
        {
          "name": "messageId",
          "type": "bytes32",
          "internalType": "bytes32"
        }
      ],
      "stateMutability": "nonpayable"
    },
    {
      "type": "function",
      "name": "sendBatchCancelTokenSaleRequest",
      "inputs": [
        {
          "name": "_destinationChainSelector",
          "type": "uint64",
          "internalType": "uint64"
        },
        {
          "name": "_cancelRequests",
          "type": "tuple[]",
          "internalType": "struct PermitTypes.Cancel[]",
          "components": [
            {
              "name": "seller",
              "type": "address",
              "internalType": "address"
            },
            {
              "name": "tokenId",
              "type": "uint256",
              "internalType": "uint256"
            },
            {
              "name": "listingNonce",
              "type": "uint256",
              "internalType": "uint256"
            },
            {
              "name": "deadline",
              "type": "uint64",
              "internalType": "uint64"
            }
          ]
        },
        {
          "name": "_cancelSigs",
          "type": "bytes[]",
          "internalType": "bytes[]"
        }
      ],
      "outputs": [
        {
          "name": "messageId",
          "type": "bytes32",
          "internalType": "bytes32"
        }
      ],
      "stateMutability": "nonpayable"
    },
    {
      "type": "function",
      "name": "sendBatchSellTokenRequest",
      "inputs": [
        {
          "name": "_destinationChainSelector",
          "type": "uint64",
          "internalType": "uint64"
        },
        {
          "name": "_sellRequests",
          "type": "tuple[]",
          "internalType": "struct PermitTypes.Sell[]",
          "components": [
            {
              "name": "owner",
              "type": "address",
              "internalType": "address"
            },
            {
              "name": "tokenId",
              "type": "uint256",
              "internalType": "uint256"
            },
            {
              "name": "price",
              "type": "uint256",
              "internalType": "uint256"
            },
            {
              "name": "nonce",
              "type": "uint256",
              "internalType": "uint256"
            },
            {
              "name": "deadline",
              "type": "uint64",
              "internalType": "uint64"
            }
          ]
        },
        {
          "name": "_sellSigs",
          "type": "bytes[]",
          "internalType": "bytes[]"
        },
        {
          "name": "_permitDeadlines",
          "type": "uint256[]",
          "internalType": "uint256[]"
        },
        {
          "name": "_permitSigs",
          "type": "bytes[]",
          "internalType": "bytes[]"
        }
      ],
      "outputs": [
        {
          "name": "messageId",
          "type": "bytes32",
          "internalType": "bytes32"
        }
      ],
      "stateMutability": "nonpayable"
    },
    {
      "type": "function",
      "name": "sendBuyTokenRequest",
      "inputs": [
        {
          "name": "_destinationChainSelector",
          "type": "uint64",
          "internalType": "uint64"
        },
        {
          "name": "_tokenId",
          "type": "uint256",
          "internalType": "uint256"
        },
        {
          "name": "_paymentToken",
          "type": "address",
          "internalType": "address"
        },
        {
          "name": "_price",
          "type": "uint256",
          "internalType": "uint256"
        }
      ],
      "outputs": [
        {
          "name": "messageId",
          "type": "bytes32",
          "internalType": "bytes32"
        }
      ],
      "stateMutability": "nonpayable"
    },
    {
      "type": "function",
      "name": "sendCancelTokenSaleRequest",
      "inputs": [
        {
          "name": "_destinationChainSelector",
          "type": "uint64",
          "internalType": "uint64"
        },
        {
          "name": "c",
          "type": "tuple",
          "internalType": "struct PermitTypes.Cancel",
          "components": [
            {
              "name": "seller",
              "type": "address",
              "internalType": "address"
            },
            {
              "name": "tokenId",
              "type": "uint256",
              "internalType": "uint256"
            },
            {
              "name": "listingNonce",
              "type": "uint256",
              "internalType": "uint256"
            },
            {
              "name": "deadline",
              "type": "uint64",
              "internalType": "uint64"
            }
          ]
        },
        {
          "name": "cancelSig",
          "type": "bytes",
          "internalType": "bytes"
        }
      ],
      "outputs": [
        {
          "name": "messageId",
          "type": "bytes32",
          "internalType": "bytes32"
        }
      ],
      "stateMutability": "nonpayable"
    },
    {
      "type": "function",
      "name": "sendMintTokenRequest",
      "inputs": [
        {
          "name": "_destinationChainSelector",
          "type": "uint64",
          "internalType": "uint64"
        },
        {
          "name": "_receiver",
          "type": "address",
          "internalType": "address"
        },
        {
          "name": "_params",
          "type": "tuple",
          "internalType": "struct Genesis.SVGParams",
          "components": [
            {
              "name": "hairParams",
              "type": "tuple",
              "internalType": "struct Genesis.HairParams",
              "components": [
                {
                  "name": "hairStyle",
                  "type": "uint8",
                  "internalType": "uint8"
                },
                {
                  "name": "hairColor",
                  "type": "uint8",
                  "internalType": "uint8"
                }
              ]
            },
            {
              "name": "bodyParams",
              "type": "tuple",
              "internalType": "struct Genesis.BodyParams",
              "components": [
                {
                  "name": "bodyType",
                  "type": "uint8",
                  "internalType": "uint8"
                },
                {
                  "name": "skinColor",
                  "type": "uint8",
                  "internalType": "uint8"
                }
              ]
            },
            {
              "name": "clothingParams",
              "type": "tuple",
              "internalType": "struct Genesis.ClothingParams",
              "components": [
                {
                  "name": "clothes",
                  "type": "uint8",
                  "internalType": "uint8"
                },
                {
                  "name": "clothingColor",
                  "type": "uint8",
                  "internalType": "uint8"
                },
                {
                  "name": "clothesGraphic",
                  "type": "uint8",
                  "internalType": "uint8"
                }
              ]
            },
            {
              "name": "facialFeaturesParams",
              "type": "tuple",
              "internalType": "struct Genesis.FacialFeaturesParams",
              "components": [
                {
                  "name": "eyebrowShape",
                  "type": "uint8",
                  "internalType": "uint8"
                },
                {
                  "name": "eyeShape",
                  "type": "uint8",
                  "internalType": "uint8"
                },
                {
                  "name": "facialHairType",
                  "type": "uint8",
                  "internalType": "uint8"
                },
                {
                  "name": "mouthStyle",
                  "type": "uint8",
                  "internalType": "uint8"
                },
                {
                  "name": "lipColor",
                  "type": "uint8",
                  "internalType": "uint8"
                }
              ]
            },
            {
              "name": "accessoryParams",
              "type": "tuple",
              "internalType": "struct Genesis.AccessoryParams",
              "components": [
                {
                  "name": "accessoryId",
                  "type": "uint8",
                  "internalType": "uint8"
                },
                {
                  "name": "hatStyle",
                  "type": "uint8",
                  "internalType": "uint8"
                },
                {
                  "name": "hatColor",
                  "type": "uint8",
                  "internalType": "uint8"
                }
              ]
            },
            {
              "name": "otherParams",
              "type": "tuple",
              "internalType": "struct Genesis.OtherParams",
              "components": [
                {
                  "name": "faceMask",
                  "type": "bool",
                  "internalType": "bool"
                },
                {
                  "name": "faceMaskColor",
                  "type": "uint8",
                  "internalType": "uint8"
                },
                {
                  "name": "shapes",
                  "type": "bool",
                  "internalType": "bool"
                },
                {
                  "name": "shapeColor",
                  "type": "uint8",
                  "internalType": "uint8"
                },
                {
                  "name": "lashes",
                  "type": "bool",
                  "internalType": "bool"
                }
              ]
            }
          ]
        },
        {
          "name": "_amount",
          "type": "uint256",
          "internalType": "uint256"
        },
        {
          "name": "_paymentToken",
          "type": "address",
          "internalType": "address"
        }
      ],
      "outputs": [
        {
          "name": "messageId",
          "type": "bytes32",
          "internalType": "bytes32"
        }
      ],
      "stateMutability": "payable"
    },
    {
      "type": "function",
      "name": "sendSellTokenRequest",
      "inputs": [
        {
          "name": "_destinationChainSelector",
          "type": "uint64",
          "internalType": "uint64"
        },
        {
          "name": "s",
          "type": "tuple",
          "internalType": "struct PermitTypes.Sell",
          "components": [
            {
              "name": "owner",
              "type": "address",
              "internalType": "address"
            },
            {
              "name": "tokenId",
              "type": "uint256",
              "internalType": "uint256"
            },
            {
              "name": "price",
              "type": "uint256",
              "internalType": "uint256"
            },
            {
              "name": "nonce",
              "type": "uint256",
              "internalType": "uint256"
            },
            {
              "name": "deadline",
              "type": "uint64",
              "internalType": "uint64"
            }
          ]
        },
        {
          "name": "sellSig",
          "type": "bytes",
          "internalType": "bytes"
        },
        {
          "name": "permitDeadline",
          "type": "uint256",
          "internalType": "uint256"
        },
        {
          "name": "permitSig",
          "type": "bytes",
          "internalType": "bytes"
        }
      ],
      "outputs": [
        {
          "name": "messageId",
          "type": "bytes32",
          "internalType": "bytes32"
        }
      ],
      "stateMutability": "nonpayable"
    },
    {
      "type": "function",
      "name": "sendTransferTokenRequest",
      "inputs": [
        {
          "name": "_destinationChainSelector",
          "type": "uint64",
          "internalType": "uint64"
        },
        {
          "name": "_tokenId",
          "type": "uint256",
          "internalType": "uint256"
        },
        {
          "name": "_receiver",
          "type": "address",
          "internalType": "address"
        }
      ],
      "outputs": [
        {
          "name": "messageId",
          "type": "bytes32",
          "internalType": "bytes32"
        }
      ],
      "stateMutability": "nonpayable"
    },
    {
      "type": "function",
      "name": "setRemoteBridge",
      "inputs": [
        {
          "name": "_newRemoteBridge",
          "type": "address",
          "internalType": "address"
        },
        {
          "name": "allowed",
          "type": "bool",
          "internalType": "bool"
        }
      ],
      "outputs": [],
      "stateMutability": "nonpayable"
    },
    {
      "type": "function",
      "name": "supportsInterface",
      "inputs": [
        {
          "name": "interfaceId",
          "type": "bytes4",
          "internalType": "bytes4"
        }
      ],
      "outputs": [
        {
          "name": "",
          "type": "bool",
          "internalType": "bool"
        }
      ],
      "stateMutability": "view"
    },
    {
      "type": "function",
      "name": "transferOwnership",
      "inputs": [
        {
          "name": "newOwner",
          "type": "address",
          "internalType": "address"
        }
      ],
      "outputs": [],
      "stateMutability": "nonpayable"
    },
    {
      "type": "function",
      "name": "withdrawLink",
      "inputs": [
        {
          "name": "amount",
          "type": "uint256",
          "internalType": "uint256"
        }
      ],
      "outputs": [],
      "stateMutability": "nonpayable"
    },
    {
      "type": "event",
      "name": "BatchTokenBoughtCrossChain",
      "inputs": [
        {
          "name": "buyer",
          "type": "address",
          "indexed": true,
          "internalType": "address"
        },
        {
          "name": "paymentToken",
          "type": "address",
          "indexed": true,
          "internalType": "address"
        }
      ],
      "anonymous": false
    },
    {
      "type": "event",
      "name": "BatchTokenSaleCancelledCrossChain",
      "inputs": [
        {
          "name": "cancelRequests",
          "type": "tuple[]",
          "indexed": false,
          "internalType": "struct PermitTypes.Cancel[]",
          "components": [
            {
              "name": "seller",
              "type": "address",
              "internalType": "address"
            },
            {
              "name": "tokenId",
              "type": "uint256",
              "internalType": "uint256"
            },
            {
              "name": "listingNonce",
              "type": "uint256",
              "internalType": "uint256"
            },
            {
              "name": "deadline",
              "type": "uint64",
              "internalType": "uint64"
            }
          ]
        }
      ],
      "anonymous": false
    },
    {
      "type": "event",
      "name": "BatchTokensListedCrossChain",
      "inputs": [
        {
          "name": "sellRequests",
          "type": "tuple[]",
          "indexed": false,
          "internalType": "struct PermitTypes.Sell[]",
          "components": [
            {
              "name": "owner",
              "type": "address",
              "internalType": "address"
            },
            {
              "name": "tokenId",
              "type": "uint256",
              "internalType": "uint256"
            },
            {
              "name": "price",
              "type": "uint256",
              "internalType": "uint256"
            },
            {
              "name": "nonce",
              "type": "uint256",
              "internalType": "uint256"
            },
            {
              "name": "deadline",
              "type": "uint64",
              "internalType": "uint64"
            }
          ]
        }
      ],
      "anonymous": false
    },
    {
      "type": "event",
      "name": "CancelBatchSellTokenRequest",
      "inputs": [
        {
          "name": "cancelRequests",
          "type": "tuple[]",
          "indexed": false,
          "internalType": "struct PermitTypes.Cancel[]",
          "components": [
            {
              "name": "seller",
              "type": "address",
              "internalType": "address"
            },
            {
              "name": "tokenId",
              "type": "uint256",
              "internalType": "uint256"
            },
            {
              "name": "listingNonce",
              "type": "uint256",
              "internalType": "uint256"
            },
            {
              "name": "deadline",
              "type": "uint64",
              "internalType": "uint64"
            }
          ]
        }
      ],
      "anonymous": false
    },
    {
      "type": "event",
      "name": "CancelSellTokenRequest",
      "inputs": [
        {
          "name": "messageId",
          "type": "bytes32",
          "indexed": true,
          "internalType": "bytes32"
        },
        {
          "name": "destinationChainSelector",
          "type": "uint64",
          "indexed": true,
          "internalType": "uint64"
        },
        {
          "name": "receiver",
          "type": "address",
          "indexed": true,
          "internalType": "address"
        },
        {
          "name": "tokenId",
          "type": "uint256",
          "indexed": false,
          "internalType": "uint256"
        }
      ],
      "anonymous": false
    },
    {
      "type": "event",
      "name": "OwnershipTransferred",
      "inputs": [
        {
          "name": "previousOwner",
          "type": "address",
          "indexed": true,
          "internalType": "address"
        },
        {
          "name": "newOwner",
          "type": "address",
          "indexed": true,
          "internalType": "address"
        }
      ],
      "anonymous": false
    },
    {
      "type": "event",
      "name": "RemoteBridgeUpdated",
      "inputs": [
        {
          "name": "newRemoteBridge",
          "type": "address",
          "indexed": false,
          "internalType": "address"
        }
      ],
      "anonymous": false
    },
    {
      "type": "event",
      "name": "SentBatchBuyTokensRequest",
      "inputs": [
        {
          "name": "messageId",
          "type": "bytes32",
          "indexed": true,
          "internalType": "bytes32"
        },
        {
          "name": "destinationChainSelector",
          "type": "uint64",
          "indexed": true,
          "internalType": "uint64"
        },
        {
          "name": "receiver",
          "type": "address",
          "indexed": true,
          "internalType": "address"
        }
      ],
      "anonymous": false
    },
    {
      "type": "event",
      "name": "SentBatchSellTokensRequest",
      "inputs": [
        {
          "name": "sellRequests",
          "type": "tuple[]",
          "indexed": false,
          "internalType": "struct PermitTypes.Sell[]",
          "components": [
            {
              "name": "owner",
              "type": "address",
              "internalType": "address"
            },
            {
              "name": "tokenId",
              "type": "uint256",
              "internalType": "uint256"
            },
            {
              "name": "price",
              "type": "uint256",
              "internalType": "uint256"
            },
            {
              "name": "nonce",
              "type": "uint256",
              "internalType": "uint256"
            },
            {
              "name": "deadline",
              "type": "uint64",
              "internalType": "uint64"
            }
          ]
        }
      ],
      "anonymous": false
    },
    {
      "type": "event",
      "name": "SentBuyTokenRequest",
      "inputs": [
        {
          "name": "messageId",
          "type": "bytes32",
          "indexed": true,
          "internalType": "bytes32"
        },
        {
          "name": "destinationChainSelector",
          "type": "uint64",
          "indexed": true,
          "internalType": "uint64"
        },
        {
          "name": "receiver",
          "type": "address",
          "indexed": true,
          "internalType": "address"
        },
        {
          "name": "tokenId",
          "type": "uint256",
          "indexed": false,
          "internalType": "uint256"
        },
        {
          "name": "price",
          "type": "uint256",
          "indexed": false,
          "internalType": "uint256"
        }
      ],
      "anonymous": false
    },
    {
      "type": "event",
      "name": "SentMintTokenRequest",
      "inputs": [
        {
          "name": "messageId",
          "type": "bytes32",
          "indexed": true,
          "internalType": "bytes32"
        },
        {
          "name": "destinationChainSelector",
          "type": "uint64",
          "indexed": true,
          "internalType": "uint64"
        },
        {
          "name": "receiver",
          "type": "address",
          "indexed": true,
          "internalType": "address"
        },
        {
          "name": "amount",
          "type": "uint256",
          "indexed": false,
          "internalType": "uint256"
        }
      ],
      "anonymous": false
    },
    {
      "type": "event",
      "name": "SentSellTokenRequest",
      "inputs": [
        {
          "name": "messageId",
          "type": "bytes32",
          "indexed": true,
          "internalType": "bytes32"
        },
        {
          "name": "destinationChainSelector",
          "type": "uint64",
          "indexed": true,
          "internalType": "uint64"
        },
        {
          "name": "receiver",
          "type": "address",
          "indexed": true,
          "internalType": "address"
        },
        {
          "name": "tokenId",
          "type": "uint256",
          "indexed": false,
          "internalType": "uint256"
        },
        {
          "name": "price",
          "type": "uint256",
          "indexed": false,
          "internalType": "uint256"
        }
      ],
      "anonymous": false
    },
    {
      "type": "event",
      "name": "SentTransferTokenRequest",
      "inputs": [
        {
          "name": "messageId",
          "type": "bytes32",
          "indexed": true,
          "internalType": "bytes32"
        },
        {
          "name": "destinationChainSelector",
          "type": "uint64",
          "indexed": true,
          "internalType": "uint64"
        },
        {
          "name": "receiver",
          "type": "address",
          "indexed": true,
          "internalType": "address"
        },
        {
          "name": "tokenId",
          "type": "uint256",
          "indexed": false,
          "internalType": "uint256"
        }
      ],
      "anonymous": false
    },
    {
      "type": "event",
      "name": "TokenBoughtCrossChain",
      "inputs": [
        {
          "name": "buyer",
          "type": "address",
          "indexed": true,
          "internalType": "address"
        },
        {
          "name": "tokenId",
          "type": "uint256",
          "indexed": false,
          "internalType": "uint256"
        }
      ],
      "anonymous": false
    },
    {
      "type": "event",
      "name": "TokenListedCrossChain",
      "inputs": [
        {
          "name": "seller",
          "type": "address",
          "indexed": true,
          "internalType": "address"
        },
        {
          "name": "tokenId",
          "type": "uint256",
          "indexed": false,
          "internalType": "uint256"
        },
        {
          "name": "price",
          "type": "uint256",
          "indexed": false,
          "internalType": "uint256"
        }
      ],
      "anonymous": false
    },
    {
      "type": "event",
      "name": "TokenMintedCrossChain",
      "inputs": [
        {
          "name": "receiver",
          "type": "address",
          "indexed": true,
          "internalType": "address"
        },
        {
          "name": "params",
          "type": "tuple",
          "indexed": false,
          "internalType": "struct Genesis.SVGParams",
          "components": [
            {
              "name": "hairParams",
              "type": "tuple",
              "internalType": "struct Genesis.HairParams",
              "components": [
                {
                  "name": "hairStyle",
                  "type": "uint8",
                  "internalType": "uint8"
                },
                {
                  "name": "hairColor",
                  "type": "uint8",
                  "internalType": "uint8"
                }
              ]
            },
            {
              "name": "bodyParams",
              "type": "tuple",
              "internalType": "struct Genesis.BodyParams",
              "components": [
                {
                  "name": "bodyType",
                  "type": "uint8",
                  "internalType": "uint8"
                },
                {
                  "name": "skinColor",
                  "type": "uint8",
                  "internalType": "uint8"
                }
              ]
            },
            {
              "name": "clothingParams",
              "type": "tuple",
              "internalType": "struct Genesis.ClothingParams",
              "components": [
                {
                  "name": "clothes",
                  "type": "uint8",
                  "internalType": "uint8"
                },
                {
                  "name": "clothingColor",
                  "type": "uint8",
                  "internalType": "uint8"
                },
                {
                  "name": "clothesGraphic",
                  "type": "uint8",
                  "internalType": "uint8"
                }
              ]
            },
            {
              "name": "facialFeaturesParams",
              "type": "tuple",
              "internalType": "struct Genesis.FacialFeaturesParams",
              "components": [
                {
                  "name": "eyebrowShape",
                  "type": "uint8",
                  "internalType": "uint8"
                },
                {
                  "name": "eyeShape",
                  "type": "uint8",
                  "internalType": "uint8"
                },
                {
                  "name": "facialHairType",
                  "type": "uint8",
                  "internalType": "uint8"
                },
                {
                  "name": "mouthStyle",
                  "type": "uint8",
                  "internalType": "uint8"
                },
                {
                  "name": "lipColor",
                  "type": "uint8",
                  "internalType": "uint8"
                }
              ]
            },
            {
              "name": "accessoryParams",
              "type": "tuple",
              "internalType": "struct Genesis.AccessoryParams",
              "components": [
                {
                  "name": "accessoryId",
                  "type": "uint8",
                  "internalType": "uint8"
                },
                {
                  "name": "hatStyle",
                  "type": "uint8",
                  "internalType": "uint8"
                },
                {
                  "name": "hatColor",
                  "type": "uint8",
                  "internalType": "uint8"
                }
              ]
            },
            {
              "name": "otherParams",
              "type": "tuple",
              "internalType": "struct Genesis.OtherParams",
              "components": [
                {
                  "name": "faceMask",
                  "type": "bool",
                  "internalType": "bool"
                },
                {
                  "name": "faceMaskColor",
                  "type": "uint8",
                  "internalType": "uint8"
                },
                {
                  "name": "shapes",
                  "type": "bool",
                  "internalType": "bool"
                },
                {
                  "name": "shapeColor",
                  "type": "uint8",
                  "internalType": "uint8"
                },
                {
                  "name": "lashes",
                  "type": "bool",
                  "internalType": "bool"
                }
              ]
            }
          ]
        },
        {
          "name": "amount",
          "type": "uint256",
          "indexed": false,
          "internalType": "uint256"
        }
      ],
      "anonymous": false
    },
    {
      "type": "event",
      "name": "TokenMirroredOnDestinationChain",
      "inputs": [
        {
          "name": "receiver",
          "type": "address",
          "indexed": true,
          "internalType": "address"
        },
        {
          "name": "tokenId",
          "type": "uint256",
          "indexed": false,
          "internalType": "uint256"
        },
        {
          "name": "params",
          "type": "tuple",
          "indexed": false,
          "internalType": "struct Genesis.SVGParams",
          "components": [
            {
              "name": "hairParams",
              "type": "tuple",
              "internalType": "struct Genesis.HairParams",
              "components": [
                {
                  "name": "hairStyle",
                  "type": "uint8",
                  "internalType": "uint8"
                },
                {
                  "name": "hairColor",
                  "type": "uint8",
                  "internalType": "uint8"
                }
              ]
            },
            {
              "name": "bodyParams",
              "type": "tuple",
              "internalType": "struct Genesis.BodyParams",
              "components": [
                {
                  "name": "bodyType",
                  "type": "uint8",
                  "internalType": "uint8"
                },
                {
                  "name": "skinColor",
                  "type": "uint8",
                  "internalType": "uint8"
                }
              ]
            },
            {
              "name": "clothingParams",
              "type": "tuple",
              "internalType": "struct Genesis.ClothingParams",
              "components": [
                {
                  "name": "clothes",
                  "type": "uint8",
                  "internalType": "uint8"
                },
                {
                  "name": "clothingColor",
                  "type": "uint8",
                  "internalType": "uint8"
                },
                {
                  "name": "clothesGraphic",
                  "type": "uint8",
                  "internalType": "uint8"
                }
              ]
            },
            {
              "name": "facialFeaturesParams",
              "type": "tuple",
              "internalType": "struct Genesis.FacialFeaturesParams",
              "components": [
                {
                  "name": "eyebrowShape",
                  "type": "uint8",
                  "internalType": "uint8"
                },
                {
                  "name": "eyeShape",
                  "type": "uint8",
                  "internalType": "uint8"
                },
                {
                  "name": "facialHairType",
                  "type": "uint8",
                  "internalType": "uint8"
                },
                {
                  "name": "mouthStyle",
                  "type": "uint8",
                  "internalType": "uint8"
                },
                {
                  "name": "lipColor",
                  "type": "uint8",
                  "internalType": "uint8"
                }
              ]
            },
            {
              "name": "accessoryParams",
              "type": "tuple",
              "internalType": "struct Genesis.AccessoryParams",
              "components": [
                {
                  "name": "accessoryId",
                  "type": "uint8",
                  "internalType": "uint8"
                },
                {
                  "name": "hatStyle",
                  "type": "uint8",
                  "internalType": "uint8"
                },
                {
                  "name": "hatColor",
                  "type": "uint8",
                  "internalType": "uint8"
                }
              ]
            },
            {
              "name": "otherParams",
              "type": "tuple",
              "internalType": "struct Genesis.OtherParams",
              "components": [
                {
                  "name": "faceMask",
                  "type": "bool",
                  "internalType": "bool"
                },
                {
                  "name": "faceMaskColor",
                  "type": "uint8",
                  "internalType": "uint8"
                },
                {
                  "name": "shapes",
                  "type": "bool",
                  "internalType": "bool"
                },
                {
                  "name": "shapeColor",
                  "type": "uint8",
                  "internalType": "uint8"
                },
                {
                  "name": "lashes",
                  "type": "bool",
                  "internalType": "bool"
                }
              ]
            }
          ]
        },
        {
          "name": "originChainId",
          "type": "uint256",
          "indexed": false,
          "internalType": "uint256"
        }
      ],
      "anonymous": false
    },
    {
      "type": "event",
      "name": "TokenReturnedToSourceChain",
      "inputs": [
        {
          "name": "tokenId",
          "type": "uint256",
          "indexed": false,
          "internalType": "uint256"
        }
      ],
      "anonymous": false
    },
    {
      "type": "event",
      "name": "TokenSaleCancelled",
      "inputs": [
        {
          "name": "owner",
          "type": "address",
          "indexed": true,
          "internalType": "address"
        },
        {
          "name": "tokenId",
          "type": "uint256",
          "indexed": false,
          "internalType": "uint256"
        }
      ],
      "anonymous": false
    },
    {
      "type": "event",
      "name": "TokenTransferredCrossChain",
      "inputs": [
        {
          "name": "receiver",
          "type": "address",
          "indexed": true,
          "internalType": "address"
        },
        {
          "name": "tokenId",
          "type": "uint256",
          "indexed": false,
          "internalType": "uint256"
        }
      ],
      "anonymous": false
    },
    {
      "type": "error",
      "name": "IBeanHeadsBridge__InsufficientAllowance",
      "inputs": []
    },
    {
      "type": "error",
      "name": "IBeanHeadsBridge__InsufficientLinkBalance",
      "inputs": [
        {
          "name": "amount",
          "type": "uint256",
          "internalType": "uint256"
        }
      ]
    },
    {
      "type": "error",
      "name": "IBeanHeadsBridge__InsufficientPayment",
      "inputs": []
    },
    {
      "type": "error",
      "name": "IBeanHeadsBridge__InvalidAmount",
      "inputs": []
    },
    {
      "type": "error",
      "name": "IBeanHeadsBridge__InvalidLength",
      "inputs": []
    },
    {
      "type": "error",
      "name": "IBeanHeadsBridge__InvalidNonce",
      "inputs": []
    },
    {
      "type": "error",
      "name": "IBeanHeadsBridge__InvalidOraclePrice",
      "inputs": []
    },
    {
      "type": "error",
      "name": "IBeanHeadsBridge__InvalidPaymentToken",
      "inputs": [
        {
          "name": "received",
          "type": "address",
          "internalType": "address"
        },
        {
          "name": "expected",
          "type": "address",
          "internalType": "address"
        }
      ]
    },
    {
      "type": "error",
      "name": "IBeanHeadsBridge__InvalidRemoteAddress",
      "inputs": []
    },
    {
      "type": "error",
      "name": "IBeanHeadsBridge__InvalidToken",
      "inputs": []
    },
    {
      "type": "error",
      "name": "IBeanHeadsBridge__InvalidTokenReceived",
      "inputs": []
    },
    {
      "type": "error",
      "name": "IBeanHeadsBridge__MismatchedArrayLengths",
      "inputs": []
    },
    {
      "type": "error",
      "name": "IBeanHeadsBridge__PriceExceedsMax",
      "inputs": []
    },
    {
      "type": "error",
      "name": "IBeanHeadsBridge__TokenIsNotForSale",
      "inputs": []
    },
    {
      "type": "error",
      "name": "IBeanHeadsBridge__TokenNotAllowed",
      "inputs": [
        {
          "name": "token",
          "type": "address",
          "internalType": "address"
        }
      ]
    },
    {
      "type": "error",
      "name": "IBeanHeadsBridge__TokenNotDeposited",
      "inputs": [
        {
          "name": "tokenId",
          "type": "uint256",
          "internalType": "uint256"
        }
      ]
    },
    {
      "type": "error",
      "name": "IBeanHeadsBridge__UnauthorizedSender",
      "inputs": [
        {
          "name": "sender",
          "type": "address",
          "internalType": "address"
        }
      ]
    },
    {
      "type": "error",
      "name": "InvalidRouter",
      "inputs": [
        {
          "name": "router",
          "type": "address",
          "internalType": "address"
        }
      ]
    },
    {
      "type": "error",
      "name": "OwnableInvalidOwner",
      "inputs": [
        {
          "name": "owner",
          "type": "address",
          "internalType": "address"
        }
      ]
    },
    {
      "type": "error",
      "name": "OwnableUnauthorizedAccount",
      "inputs": [
        {
          "name": "account",
          "type": "address",
          "internalType": "address"
        }
      ]
    },
    {
      "type": "error",
      "name": "ReentrancyGuardReentrantCall",
      "inputs": []
    }
  ],
  "bytecode": {
    "object": "0x60e0346200024657601f62005b3038819003918201601f19168301916001600160401b038311848410176200024a5780849260a09460405283398101031262000246576200004d816200025e565b906200005c602082016200025e565b916200006b604083016200025e565b9062000088608062000080606086016200025e565b94016200025e565b9260018060a01b03918281169586156200022e57839160c052169283156200021657600480546001600160a01b031980821687179092556040519791958593929184167f8be0079c531659141344cd1fd0a4f28419497f9722a3daafe3b4186f6b6457e05f80a36001600555608052168360015416176001551690600254161760025560a0526158bc9081620002748239608051818181611652015281816116bb0152818161174101528181611f7001528181612399015281816129a0015281816132ef0152818161387301528181613bce0152615034015260a051818181611111015281816111c401528181611394015281816114b0015281816117b601528181611858015281816119d201528181611a4201528181611a8801528181611b2001528181611c0c01528181611c9c01528181611d9801528181611e6301528181611fb7015281816120480152818161215a01528181612268015281816124290152818161265501528181612d4f015281816136a70152615377015260c05181818161098a0152610e4e0152f35b604051631e4fbdf760e01b81525f6004820152602490fd5b6040516335fdcccd60e21b81525f6004820152602490fd5b5f80fd5b634e487b7160e01b5f52604160045260245ffd5b51906001600160a01b0382168203620002465756fe6080806040526004361015610012575f80fd5b5f905f3560e01c90816301ffc9a714613c7f5750806310488413146106695780631179680f14613976578063150b7a02146138e9578063232df00d146136cb5780632c406d441461365d57806338c72353146133fb57806341b8b269146133b45780634fdb1ace1461336357806357c9cafb14613313578063581bdd16146132a55780635caffcd6146131ad57806362cd6c9014612cc9578063715018a614612c2b5780637725135b14612bd95780637a8042bd14612a515780637b0ef2091461256957806385572ffb14610dc95780638da5cb5b14610d77578063a0da12a514610d39578063a700a39c14610669578063aa7ab1ab14610a2b578063aaf5eb68146109ea578063ab895eb8146109ae578063b0f479a11461093f578063b1a778ab146106d6578063b95ff2061461066e578063ddf36e2314610669578063ef74cd7614610377578063f2fde38b146102945763f9eafa7014610173575f80fd5b346102915760207ffffffffffffffffffffffffffffffffffffffffffffffffffffffffffffffffc360112610291576004356101ad6142b1565b8015610267576001546040517f23b872dd000000000000000000000000000000000000000000000000000000008152336004820152306024820152604481019290925260209082906064908290869073ffffffffffffffffffffffffffffffffffffffff165af1801561025c57610222575080f35b6020813d602011610254575b8161023b60209383613fad565b810103126102505761024c90614399565b5080f35b5080fd5b3d915061022e565b6040513d84823e3d90fd5b60046040517fd8287905000000000000000000000000000000000000000000000000000000008152fd5b80fd5b50346102915760207ffffffffffffffffffffffffffffffffffffffffffffffffffffffffffffffffc360112610291576102cc613dd3565b6102d46142b1565b73ffffffffffffffffffffffffffffffffffffffff80911690811561034657600454827fffffffffffffffffffffffff0000000000000000000000000000000000000000821617600455167f8be0079c531659141344cd1fd0a4f28419497f9722a3daafe3b4186f6b6457e05f80a380f35b602483604051907f1e4fbdf70000000000000000000000000000000000000000000000000000000082526004820152fd5b503461029157610120807ffffffffffffffffffffffffffffffffffffffffffffffffffffffffffffffffc360112610250576103b1613d76565b60a07fffffffffffffffffffffffffffffffffffffffffffffffffffffffffffffffdc3601126106655767ffffffffffffffff60c435818111610661576103fc903690600401613e5d565b936101043583811161065d57610416903690600401613e5d565b91909373ffffffffffffffffffffffffffffffffffffffff9687895416895260ff604060209a60038c52205416156106335760643594851561026757604051906024358a811680910361062f578b8301526044359788604084015260608881850152608435608085015260a4359486861680960361062f576105976040988f958f9361051e61058b977f5761d3c5b5fbf459631cf1b4ff7e51d2013d8de7edc5ff126526262bf3478a089e6104e561052a958d9561060d9f60a0880152610100988960c08901528701916141ad565b9160e43560e08601527fffffffffffffffffffffffffffffffffffffffffffffffffffffffffffffffe0968786850301908601526141ad565b03828101895288613fad565b89519261053684613f59565b5f84528460808c5161054781613f21565b828152828a820152828e8201525f8382015201525f5416968a51978789015286885261057288613f3d565b8a519586916001898401528c80840152868301906147b4565b03908101855284613fad565b8c60015416928851946105a986613f59565b620927c086528951957f97a657c90000000000000000000000000000000000000000000000000000000082880152516024870152602486526105ea86613f75565b8951966105f688613f21565b87528601528785015283015260808201528761501c565b968794610618614112565b9084519788528a88015216951693a4604051908152f35b5f80fd5b60046040517f4836199a000000000000000000000000000000000000000000000000000000008152fd5b8680fd5b8480fd5b8280fd5b613d3b565b50346102915760207ffffffffffffffffffffffffffffffffffffffffffffffffffffffffffffffffc3601126102915760ff604060209273ffffffffffffffffffffffffffffffffffffffff6106c2613dd3565b168152600384522054166040519015158152f35b50346102915760c07ffffffffffffffffffffffffffffffffffffffffffffffffffffffffffffffffc3601126102915761070e613d76565b60807fffffffffffffffffffffffffffffffffffffffffffffffffffffffffffffffdc3601126102505767ffffffffffffffff9060a43582811161093b5761075a903690600401613e5d565b73ffffffffffffffffffffffffffffffffffffffff9081865416865260ff60406020976003895220541615610633576040519060243583811680910361062f578783015260443593846040840152606092606435848201526084359188831680930361062f577fd6040e24e094f8dd2461f146e1a24805ab644cde60f103bf02c04c8b5d07e1ed948261080561058b938d9761091d97608085015260a08085015260c08401916141ad565b03906108377fffffffffffffffffffffffffffffffffffffffffffffffffffffffffffffffe092838101865285613fad565b6108a26040519261084784613f59565b5f845282608060405161085981613f21565b828152828b8201528260408201525f838201520152895f541695604051968988015288875261088787613f3d565b60405195869160038b840152604080840152858301906147b4565b876001541691604051936108b585613f59565b620927c08552604051947f97a657c90000000000000000000000000000000000000000000000000000000089870152516024860152602485526108f785613f75565b6040519561090487613f21565b865287860152604085015283015260808201528661501c565b958693610928614112565b60405196875216951693a4604051908152f35b8380fd5b503461029157807ffffffffffffffffffffffffffffffffffffffffffffffffffffffffffffffffc36011261029157602060405173ffffffffffffffffffffffffffffffffffffffff7f0000000000000000000000000000000000000000000000000000000000000000168152f35b503461029157807ffffffffffffffffffffffffffffffffffffffffffffffffffffffffffffffffc360112610291576020604051620927c08152f35b503461029157807ffffffffffffffffffffffffffffffffffffffffffffffffffffffffffffffffc360112610291576020604051670de0b6b3a76400008152f35b50346102915760a07ffffffffffffffffffffffffffffffffffffffffffffffffffffffffffffffffc36011261029157610a63613d76565b9060243567ffffffffffffffff928382116106655736602383011215610665578160040135928484116102915760248301926024369160a087020101116102915760443585811161025057610abc903690600401613da2565b9160643587811161025057610ad5903690600401613da2565b909260843598891161066557610af16003993690600401613da2565b60ff604073ffffffffffffffffffffffffffffffffffffffff9687815416815260209d8e522054161561063357868a14801590610d2f575b8015610d25575b610cfb5760405160808c820152958693610b4e60a086018d8d614086565b7fffffffffffffffffffffffffffffffffffffffffffffffffffffffffffffffe0998a878303016040880152610b83926141eb565b606095898683030187870152610b9892614170565b9087848303016080850152610bac926141eb565b038481018452610bbc9084613fad565b60405191610bc983613f59565b5f835281604051610bd981613f21565b818152818b8201528160408201528181015f905260800152805f541694604051958a870152898652610c0a86613f3d565b60405180958b8201600790526040820160409052848201610c2a916147b4565b039081018552610c3a9085613fad565b600154169160405193610c4c85613f59565b620927c08552604051948a86017f97a657c900000000000000000000000000000000000000000000000000000000905251602486015260248552610c8f85613f75565b60405195610c9c87613f21565b86528986015260408501528301526080820152610cb89161501c565b9160405191829185835285830190610ccf92614086565b037fa372371a2ece9b022744cfcc0877b9fd6002ceb224dbe1e13f5f2662ad560e2191a1604051908152f35b60046040517fed9f42b0000000000000000000000000000000000000000000000000000000008152fd5b50808a1415610b30565b50838a1415610b29565b503461029157807ffffffffffffffffffffffffffffffffffffffffffffffffffffffffffffffffc3601126102915760206040516402540be4008152f35b503461029157807ffffffffffffffffffffffffffffffffffffffffffffffffffffffffffffffffc36011261029157602073ffffffffffffffffffffffffffffffffffffffff60045416604051908152f35b50346102915760207ffffffffffffffffffffffffffffffffffffffffffffffffffffffffffffffffc3601126102915760043567ffffffffffffffff81116102505760a07ffffffffffffffffffffffffffffffffffffffffffffffffffffffffffffffffc82360301126102505773ffffffffffffffffffffffffffffffffffffffff7f00000000000000000000000000000000000000000000000000000000000000001633036125395760405190610e8182613f21565b80600401358252610e9460248201613d8d565b6020830152604481013567ffffffffffffffff811161093b57610ebd9060043691840101614028565b6040830152606481013567ffffffffffffffff811161093b57610ee69060043691840101614028565b606083015260848101359067ffffffffffffffff821161093b5736602383830101121561093b5760048282010135610f1d8161406e565b92610f2b6040519485613fad565b81845260208401923660248460061b84840101011161065d5780820160240193915b60248460061b828401010185106124fd578787876080820152604081015160208180518101031261066557610f99602073ffffffffffffffffffffffffffffffffffffffff9201614579565b1673ffffffffffffffffffffffffffffffffffffffff83541681036124cc575060608101518051810160408282031261093b5760208201519160098310156106615760408101519167ffffffffffffffff8311611554576110019260208092019201016145bb565b918115612300575b600182146120d2575b60028214611ef1575b60038214611d3c575b60048214611bbe575b6005821461199c575b6006821461157a575b5060078114611260575b600814611054575080f35b80518101906040816020840193031261066557602081015167ffffffffffffffff811161093b5781019180603f8401121561093b576020830151926110988461406e565b936110a66040519586613fad565b8085526040602086019160071b8301019183831161065d57604001905b8282106112465750505060408201519167ffffffffffffffff8311610661576110ef920160200161491e565b8151815103610cfb57829073ffffffffffffffffffffffffffffffffffffffff7f0000000000000000000000000000000000000000000000000000000000000000163b1561025057816111aa91604051809381927f8742be810000000000000000000000000000000000000000000000000000000083526040600484015261117a6044840189614aa0565b907ffffffffffffffffffffffffffffffffffffffffffffffffffffffffffffffffc848303016024850152614a26565b03818373ffffffffffffffffffffffffffffffffffffffff7f0000000000000000000000000000000000000000000000000000000000000000165af1801561025c57611232575b505061122c7fe3ddbf949cb7a018a68cffca747f34ef37679c4bb300c4293efe5aa4018310ff91604051918291602083526020830190614aa0565b0390a180f35b61123b90613f0d565b6102505781836111f1565b602060809161125586856147f7565b8152019101906110c3565b815182019060808383031261093b5760208301519167ffffffffffffffff83116106615760208101603f84860101121561066157602083850101516112a48161406e565b936112b26040519586613fad565b818552602085019060208401604060a08502838a010101116115505790604082880101915b604060a08502828a01010183106115585750505050604084015167ffffffffffffffff8111611554576113129060208084019187010161491e565b90606085015167ffffffffffffffff811161065d576113399060208084019188010161488a565b90608086015167ffffffffffffffff81116115505760208061135f93019188010161491e565b9184518151811490811591611544575b8115611538575b50610cfb57869273ffffffffffffffffffffffffffffffffffffffff7f0000000000000000000000000000000000000000000000000000000000000000163b1561093b5783916114966114369261146660405196879586957f8734aa12000000000000000000000000000000000000000000000000000000008752608060048801526114068d608489019061499e565b907ffffffffffffffffffffffffffffffffffffffffffffffffffffffffffffffffc888303016024890152614a26565b907ffffffffffffffffffffffffffffffffffffffffffffffffffffffffffffffffc8683030160448701526148eb565b907ffffffffffffffffffffffffffffffffffffffffffffffffffffffffffffffffc848303016064850152614a26565b03818373ffffffffffffffffffffffffffffffffffffffff7f0000000000000000000000000000000000000000000000000000000000000000165af1801561025c57611524575b50507fe8b32231159ca2aeb6bd2ea21844874f9dbbf5304d06aabe82cad6cf3ca3b87b61151a60089360405191829160208352602083019061499e565b0390a19050611049565b61152d90613f0d565b61093b5783856114dd565b90508351141588611376565b8351811415915061136f565b8780fd5b8580fd5b60a080602060409461156c828a0188614765565b8152019401939250506112d7565b8251830160a0848203126106615761159460208501614579565b90604085015167ffffffffffffffff811161065d576115bb9060208084019188010161488a565b90606086015167ffffffffffffffff8111611550576020806115e193019188010161488a565b6115ed60808701614579565b5060a0860151908251905103610cfb576020611630608073ffffffffffffffffffffffffffffffffffffffff61162582890151614600565b515116960151614600565b510151036102675761167873ffffffffffffffffffffffffffffffffffffffff7f00000000000000000000000000000000000000000000000000000000000000001684614d96565b6040517fdd62ed3e00000000000000000000000000000000000000000000000000000000815230600482015273ffffffffffffffffffffffffffffffffffffffff7f0000000000000000000000000000000000000000000000000000000000000000166024820152602081604481875afa908115611991575f9161195f575b506118db57859061179f6040517f095ea7b300000000000000000000000000000000000000000000000000000000602082015273ffffffffffffffffffffffffffffffffffffffff7f00000000000000000000000000000000000000000000000000000000000000001660248201527fffffffffffffffffffffffffffffffffffffffffffffffffffffffffffffffff60448201526044815261179981613f91565b8561567c565b73ffffffffffffffffffffffffffffffffffffffff7f0000000000000000000000000000000000000000000000000000000000000000163b15610250578161183891604051809381927f3dda355800000000000000000000000000000000000000000000000000000000835273ffffffffffffffffffffffffffffffffffffffff881660048401526060602484015260648301906148eb565b87604483015203818373ffffffffffffffffffffffffffffffffffffffff7f0000000000000000000000000000000000000000000000000000000000000000165af1801561025c576118c7575b505073ffffffffffffffffffffffffffffffffffffffff167f98d64dcf31d860b89de519aee807342854eca9a1a02df1042f850509fdd493ad8580a38361103f565b6118d090613f0d565b610661578486611885565b60846040517f08c379a000000000000000000000000000000000000000000000000000000000815260206004820152603660248201527f5361666545524332303a20617070726f76652066726f6d206e6f6e2d7a65726f60448201527f20746f206e6f6e2d7a65726f20616c6c6f77616e6365000000000000000000006064820152fd5b90506020813d602011611989575b8161197a60209383613fad565b8101031261062f5751876116f7565b3d915061196d565b6040513d5f823e3d90fd5b60408380518101031261093b576119b560208401614579565b60408401519073ffffffffffffffffffffffffffffffffffffffff7f0000000000000000000000000000000000000000000000000000000000000000163b1561155457856040517fdd2e0ac000000000000000000000000000000000000000000000000000000000815283600482015281816024818373ffffffffffffffffffffffffffffffffffffffff7f0000000000000000000000000000000000000000000000000000000000000000165af1801561025c57611baa575b505073ffffffffffffffffffffffffffffffffffffffff7f0000000000000000000000000000000000000000000000000000000000000000163b15611554576040517f42842e0e00000000000000000000000000000000000000000000000000000000815230600482015273ffffffffffffffffffffffffffffffffffffffff821660248201526044810183905286908181806064810103818373ffffffffffffffffffffffffffffffffffffffff7f0000000000000000000000000000000000000000000000000000000000000000165af1801561025c57611b96575b5050602073ffffffffffffffffffffffffffffffffffffffff7fa0269577557e44b1e484388711aaee9dcfdebb716a88654f37c4c8388bc08739926040519485521692a2611036565b611b9f90613f0d565b611554578587611b4d565b611bb390613f0d565b611554578587611a6f565b825183016102e08482031261066157611bd960208501614579565b611bee602060408701519301606087016143a6565b6102e08601519073ffffffffffffffffffffffffffffffffffffffff7f0000000000000000000000000000000000000000000000000000000000000000163b1561155057876040517fa462cd49000000000000000000000000000000000000000000000000000000008152818180611c8287878b73ffffffffffffffffffffffffffffffffffffffff8c166004860161484d565b03818373ffffffffffffffffffffffffffffffffffffffff7f0000000000000000000000000000000000000000000000000000000000000000165af1801561025c57611d28575b50507f7f3ef432bb1e77a701484dc68486dd0b262c06596baea7f6804d6894c388eaad926102c092611d1a73ffffffffffffffffffffffffffffffffffffffff93604051978852602088019061463a565b6102a08601521692a261102d565b611d3190613f0d565b611550578789611cc9565b8251830160a0848203126106615784611d5b60208301602087016147f7565b9160a086015167ffffffffffffffff811161066557602080611d819301918801016145bb565b73ffffffffffffffffffffffffffffffffffffffff7f0000000000000000000000000000000000000000000000000000000000000000163b156102505781611e4991604051809381927f7dd98451000000000000000000000000000000000000000000000000000000008352611e38600484018967ffffffffffffffff6060809273ffffffffffffffffffffffffffffffffffffffff81511685526020810151602086015260408101516040860152015116910152565b60a0608484015260a48301906147b4565b03818373ffffffffffffffffffffffffffffffffffffffff7f0000000000000000000000000000000000000000000000000000000000000000165af1801561025c57611edd575b50507ffd29d40736f7e30e737c49f0da6edb357095e0117291cd63e251ef8b2a5cd57360208073ffffffffffffffffffffffffffffffffffffffff845116930151604051908152a2611024565b611ee690613f0d565b610661578486611e90565b60808380518101031261093b57611f0a60208401614579565b604084015190611f1c60608601614579565b50856020611f2d6080860151614600565b510151611fa073ffffffffffffffffffffffffffffffffffffffff611f556080880151614600565b5151169173ffffffffffffffffffffffffffffffffffffffff7f000000000000000000000000000000000000000000000000000000000000000016611f9a8185614d96565b83614df3565b73ffffffffffffffffffffffffffffffffffffffff7f0000000000000000000000000000000000000000000000000000000000000000163b1561025057604051907f692bf4a800000000000000000000000000000000000000000000000000000000825273ffffffffffffffffffffffffffffffffffffffff84166004830152846024830152604482015281816064818373ffffffffffffffffffffffffffffffffffffffff7f0000000000000000000000000000000000000000000000000000000000000000165af1801561025c576120be575b5050602073ffffffffffffffffffffffffffffffffffffffff7f4b425220000394679f443a7312a5351c5b75afe298ef4ffad4f7d6f6b33e295a926040519485521692a261101b565b6120c790613f0d565b611554578587612075565b82518301848460208301926101009182910312610250576120f68360208801614765565b9260c087015167ffffffffffffffff811161093b5781602061211a928a01016145bb565b60e088015191838901519067ffffffffffffffff8211611554576020612142928b01016145bb565b9273ffffffffffffffffffffffffffffffffffffffff7f0000000000000000000000000000000000000000000000000000000000000000163b156106615761224e85936122199560405196879586957f24e79fc2000000000000000000000000000000000000000000000000000000008752612209600488018d67ffffffffffffffff6080809273ffffffffffffffffffffffffffffffffffffffff8151168552602081015160208601526040810151604086015260608101516060860152015116910152565b60a48701526101048601906147b4565b9160c48501527ffffffffffffffffffffffffffffffffffffffffffffffffffffffffffffffffc8483030160e48501526147b4565b03818373ffffffffffffffffffffffffffffffffffffffff7f0000000000000000000000000000000000000000000000000000000000000000165af1801561025c576122ec575b50507f95b55f38d05a2c5664b9788437177cc4cd38ad59294ccd15d9527664355380ec604073ffffffffffffffffffffffffffffffffffffffff8351169281602082015191015182519182526020820152a2611012565b6122f590613f0d565b610661578486612295565b825183016102c0848203126106615761232a602061231f818701614579565b9201604086016143a6565b73ffffffffffffffffffffffffffffffffffffffff6102c086015192169173ffffffffffffffffffffffffffffffffffffffff61236a6080860151614600565b5151166123c3602061237f6080880151614600565b51015173ffffffffffffffffffffffffffffffffffffffff7f000000000000000000000000000000000000000000000000000000000000000016611f9a8185614d96565b604051907f2c33b9d90000000000000000000000000000000000000000000000000000000082528460048301526123fd602483018561463a565b826102a48301526102c48201526020816102e4818b73ffffffffffffffffffffffffffffffffffffffff7f0000000000000000000000000000000000000000000000000000000000000000165af180156124c157612496575b507f1d2662fa144aac97b5af0577237e997d47a91ebcc35ddbbd495282ed122af39a916102a09161248a604051809361463a565b610280820152a2611009565b602090813d83116124ba575b6124ac8183613fad565b8101031261062f5787612456565b503d6124a2565b6040513d8a823e3d90fd5b602490604051907f3319937b0000000000000000000000000000000000000000000000000000000082526004820152fd5b6040853603126115505760406020602494825161251981613f3d565b61252289613e3c565b815282890135838201528152019501949250610f4d565b60246040517fd7f73334000000000000000000000000000000000000000000000000000000008152336004820152fd5b506103007ffffffffffffffffffffffffffffffffffffffffffffffffffffffffffffffffc3601126102915761259d613d76565b6125a5613df6565b9161028091827fffffffffffffffffffffffffffffffffffffffffffffffffffffffffffffffbc360112610250576102c435906102e43573ffffffffffffffffffffffffffffffffffffffff908181169586820361062f578286541686526020976003895260ff96876040822054161561063357612621614135565b8615610267576040517fa7f93ebd0000000000000000000000000000000000000000000000000000000081528a81600481897f0000000000000000000000000000000000000000000000000000000000000000165afa918215612a4557908892612a12575b5061269a9161269491614539565b84615322565b926126a5848a614b1e565b6126b18430338c614ca1565b84604051921697888b84015260443581811680910361062f5760408401526064359381851680950361062f576060948585015260843582811680910361062f57608085015260a43582811680910361062f5760a085015260c43582811680910361062f5760c085015260e43582811680910361062f5760e08501526101043582811680910361062f576101008501526101243582811680910361062f576101208501526101443582811680910361062f576101408501526101643582811680910361062f576101608501526101843582811680910361062f576101808501526101a43582811680910361062f576101a08501526101c43582811680910361062f576101c08501526101e43582811680910361062f576101e08501526102043582811680910361062f576102008501526102243580151580910361062f576102208501526102443582811680910361062f576102408501526102643580151580910361062f576102608501526102843591821680920361062f578301526102a43580151580910361062f576102a08301526102c0878184015282526102e082019367ffffffffffffffff998386108b8711176129e5577fd0b8c5ed1d955fe287fda914e47fa0bc1188c054366fdc1cb9c665c10c9d9cf9965f6129cc966128a08f996129c6978791604052614d0b565b908060806040516128b081613f21565b828152828d820152826040820152858382015201526129298a6128fd868654169a6040519b838d0152828c526128e58c613f3d565b604051968793840152604080840152848301906147b4565b037fffffffffffffffffffffffffffffffffffffffffffffffffffffffffffffffe08101855284613fad565b8360015416916040519361293c85613f59565b6207a1208552604051947f97a657c9000000000000000000000000000000000000000000000000000000008d8701525160248601526024855261297e85613f75565b6040519961298b8b613f21565b8a528b8a0152604089015287015260808601527f00000000000000000000000000000000000000000000000000000000000000001690614df3565b8461501c565b9586936040519586521693a46001600555604051908152f35b7f4e487b71000000000000000000000000000000000000000000000000000000005f52604160045260245ffd5b8092508b8092503d8311612a3e575b612a2b8183613fad565b8101031261062f5751869061269a612686565b503d612a21565b604051903d90823e3d90fd5b5034610291576020807ffffffffffffffffffffffffffffffffffffffffffffffffffffffffffffffffc3601126102505760043590612a8e6142b1565b81156102675773ffffffffffffffffffffffffffffffffffffffff60015416916040517f70a082310000000000000000000000000000000000000000000000000000000081523060048201528281602481875afa908115612bce578591612ba1575b50808211612b7057506040517fa9059cbb00000000000000000000000000000000000000000000000000000000928101929092523360248301526044820152612b6d91612b6882606481015b037fffffffffffffffffffffffffffffffffffffffffffffffffffffffffffffffe08101845283613fad565b61567c565b80f35b602490604051907f1116d9ef0000000000000000000000000000000000000000000000000000000082526004820152fd5b90508281813d8311612bc7575b612bb88183613fad565b8101031261062f57515f612af0565b503d612bae565b6040513d87823e3d90fd5b503461029157807ffffffffffffffffffffffffffffffffffffffffffffffffffffffffffffffffc36011261029157602073ffffffffffffffffffffffffffffffffffffffff60015416604051908152f35b503461029157807ffffffffffffffffffffffffffffffffffffffffffffffffffffffffffffffffc36011261029157612c626142b1565b5f73ffffffffffffffffffffffffffffffffffffffff6004547fffffffffffffffffffffffff00000000000000000000000000000000000000008116600455167f8be0079c531659141344cd1fd0a4f28419497f9722a3daafe3b4186f6b6457e08280a380f35b503461062f576060807ffffffffffffffffffffffffffffffffffffffffffffffffffffffffffffffffc36011261062f57612d02613d76565b91602492833590612d11613e19565b9273ffffffffffffffffffffffffffffffffffffffff90815f54165f526020956003875260ff60405f205416156106335782861695861561063357837f000000000000000000000000000000000000000000000000000000000000000016604051937f7e4d03d80000000000000000000000000000000000000000000000000000000085528760048601526102809485818d81865afa958615611991575f96613173575b5050813b1561062f576040517f42842e0e000000000000000000000000000000000000000000000000000000008152336004820152306024820152604481018990525f8160648183875af1801561199157613162575b50604051917f5b16d9680000000000000000000000000000000000000000000000000000000083528860048401528a838d81845afa92831561025c578293613133575b5046830361309157803b15610250578180918d8b60405194859384927f80f2036300000000000000000000000000000000000000000000000000000000845260048401525af1801561025c57908b9291613079575b5050612ebd612ee9926004968a604051968795860161484d565b037fffffffffffffffffffffffffffffffffffffffffffffffffffffffffffffffe08101835282613fad565b925b60405190612ef882613f59565b5f8252826080604051612f0a81613f21565b828152828c8201528260408201525f838201520152805f541694604051958a870152898652612f3886613f3d565b60405194600981101561304d57937f95519b111edaffd68641c56e5ffce32883ef4bfbb37da2156501c7eff4b309f996938b9c93612fc288612f9667ffffffffffffffff9f9a966130399a8c840152604080840152868301906147b4565b037fffffffffffffffffffffffffffffffffffffffffffffffffffffffffffffffe08101865285613fad565b600154169260405194612fd486613f59565b6207a1208652604051957f97a657c9000000000000000000000000000000000000000000000000000000008a8801525181870152855261301385613f75565b6040519561302087613f21565b865287860152604085015283015260808201528461501c565b9586936040519586521693a4604051908152f35b8b7f4e487b71000000000000000000000000000000000000000000000000000000005f5260216004525ffd5b81925061308590613f0d565b61029157808a91612ea3565b9150919350803b15610250578180918b604051809481937f7b47ec1a0000000000000000000000000000000000000000000000000000000083528c60048401525af1801561025c5761311f575b50506040805173ffffffffffffffffffffffffffffffffffffffff909316888401908152602081018790526005939161311991839101612ebd565b92612eeb565b6131298291613f0d565b61029157806130de565b9092508a81813d831161315b575b61314b8183613fad565b8101031261062f5751915f612e4e565b503d613141565b61316c9150613f0d565b5f80612e0b565b80919296503d82116131a6575b61318a8184613fad565b8201908282031261062f5761319e916143a6565b935f80612db5565b503d613180565b3461062f5760407ffffffffffffffffffffffffffffffffffffffffffffffffffffffffffffffffc36011261062f576131e4613dd3565b6024359081151580920361062f5773ffffffffffffffffffffffffffffffffffffffff906132106142b1565b1690811561063357816020917fa54ce142349af8e389fe00f37d69e79664a287b29c8e325917962e92e4fe5fcd937fffffffffffffffffffffffff00000000000000000000000000000000000000005f5416175f55815f526003835260405f209060ff7fffffffffffffffffffffffffffffffffffffffffffffffffffffffffffffff008354169116179055604051908152a1005b3461062f575f7ffffffffffffffffffffffffffffffffffffffffffffffffffffffffffffffffc36011261062f57602060405173ffffffffffffffffffffffffffffffffffffffff7f0000000000000000000000000000000000000000000000000000000000000000168152f35b3461062f575f7ffffffffffffffffffffffffffffffffffffffffffffffffffffffffffffffffc36011261062f57602073ffffffffffffffffffffffffffffffffffffffff5f5416604051908152f35b3461062f575f7ffffffffffffffffffffffffffffffffffffffffffffffffffffffffffffffffc36011261062f57602073ffffffffffffffffffffffffffffffffffffffff60025416604051908152f35b3461062f575f7ffffffffffffffffffffffffffffffffffffffffffffffffffffffffffffffffc36011261062f57602067ffffffffffffffff5f5460a01c16604051908152f35b3461062f576060807ffffffffffffffffffffffffffffffffffffffffffffffffffffffffffffffffc36011261062f57613433613d76565b9067ffffffffffffffff9060243582811161062f573660238201121561062f5780600401359280841161062f576024820191602436918660071b01011161062f5760443590811161062f5761348c903690600401613da2565b73ffffffffffffffffffffffffffffffffffffffff95919591825f541691825f526020976003895260ff60405f2054161561063357818803610cfb577fc40f92ba5e837dc6a178798dc7c78f3936420be612221197dbaf149ed3a59f799661363c956135c36040936135538d6135476008988f8e613515918b519b8c968701528a860191613e8b565b907fffffffffffffffffffffffffffffffffffffffffffffffffffffffffffffffe095868584030160408601526141eb565b03828101875286613fad565b8c6135b76040519661356488613f59565b5f885286608060405161357681613f21565b82815282868201528260408201525f8382015201526040519a838c0152828b5261359f8b613f3d565b604051988993840152604080840152868301906147b4565b03908101865285613fad565b6001541691604051936135d585613f59565b620927c08552604051947f97a657c9000000000000000000000000000000000000000000000000000000008d8701525160248601526024855261361785613f75565b6040519661362488613f21565b87528b8701526040860152840152608083015261501c565b9261365260405192839287845287840191613e8b565b0390a1604051908152f35b3461062f575f7ffffffffffffffffffffffffffffffffffffffffffffffffffffffffffffffffc36011261062f57602060405173ffffffffffffffffffffffffffffffffffffffff7f0000000000000000000000000000000000000000000000000000000000000000168152f35b3461062f5760807ffffffffffffffffffffffffffffffffffffffffffffffffffffffffffffffffc36011261062f57613702613d76565b60243561370d613e19565b916064359173ffffffffffffffffffffffffffffffffffffffff805f54165f526020946003865260ff60405f20541615610633576138998561389f93613751614135565b8084169061375f8383614b1e565b61376b83303385614ca1565b896128fd6040519633838901528960408901526137a28660609281848c01528760808c015260808b5261379d8b613f21565b614d0b565b8160806040516137b181613f21565b82815282878201528260408201525f8382015201526137fd855f5416996040519a868c0152858b526137e28b613f3d565b604051948591600288840152604080840152858301906147b4565b8460015416926040519461381086613f59565b6207a1208652604051957f97a657c900000000000000000000000000000000000000000000000000000000828801525160248701526024865261385286613f75565b6040519a61385f8c613f21565b8b528a0152604089015287015260808601527f00000000000000000000000000000000000000000000000000000000000000001690614df3565b8361501c565b9260405191825284820152827f80e9f53f7f7f7b19c2b2adb19df0805d08493490b6d67b4ff8d2d9920fdbf1d3604067ffffffffffffffff33951693a46001600555604051908152f35b3461062f5760807ffffffffffffffffffffffffffffffffffffffffffffffffffffffffffffffffc36011261062f57613920613dd3565b50613929613df6565b5060643567ffffffffffffffff811161062f5761394a903690600401613e5d565b505060206040517f150b7a02000000000000000000000000000000000000000000000000000000008152f35b3461062f5760807ffffffffffffffffffffffffffffffffffffffffffffffffffffffffffffffffc36011261062f576139ad613d76565b60249067ffffffffffffffff90823582811161062f576139d1903690600401613da2565b939060443584811161062f576139eb903690600401613da2565b6064939193359273ffffffffffffffffffffffffffffffffffffffff918285169485810361062f57835f54165f5260209960038b5260ff60405f2054161561063357613a35614135565b828103610cfb578015610267575f955f905b848210613c375750508590613a5c8289614b1e565b613a688230338b614ca1565b6040519485918d33908401526040830160a0905260c0830190613a8a92614170565b987fffffffffffffffffffffffffffffffffffffffffffffffffffffffffffffffe0996060958b8483030187850152613ac292614170565b8860808301528260a0830152038881018552613ade9085613fad565b613ae791614d0b565b9080604051613af581613f21565b818152818c8201528160408201528181015f905260800152835f541696604051978b8901528a8852613b2688613f3d565b60405180948c8201600690526040820160409052838201613b46916147b4565b039081018452613b569084613fad565b83600154169160405193613b6985613f59565b6207a1208552604051948c86017f97a657c900000000000000000000000000000000000000000000000000000000905251602486015260248552613bac85613f75565b60405198613bb98a613f21565b89528b890152604088015286015260808501527f000000000000000000000000000000000000000000000000000000000000000016613bf792614df3565b613c01908261501c565b9060405192339116827fc3cfbc41fdf2854a8b8598251acff98cb7e98fba5428a216647848b5f8d1c0af5f80a460016005558152f35b90968760051b8a01358101809111613c53579660010190613a47565b507f4e487b71000000000000000000000000000000000000000000000000000000005f5260116004525ffd5b3461062f5760207ffffffffffffffffffffffffffffffffffffffffffffffffffffffffffffffffc36011261062f57600435907fffffffff00000000000000000000000000000000000000000000000000000000821680920361062f57817f85572ffb0000000000000000000000000000000000000000000000000000000060209314908115613d11575b5015158152f35b7f01ffc9a70000000000000000000000000000000000000000000000000000000091501483613d0a565b3461062f575f7ffffffffffffffffffffffffffffffffffffffffffffffffffffffffffffffffc36011261062f5760206040516207a1208152f35b6004359067ffffffffffffffff8216820361062f57565b359067ffffffffffffffff8216820361062f57565b9181601f8401121561062f5782359167ffffffffffffffff831161062f576020808501948460051b01011161062f57565b6004359073ffffffffffffffffffffffffffffffffffffffff8216820361062f57565b6024359073ffffffffffffffffffffffffffffffffffffffff8216820361062f57565b6044359073ffffffffffffffffffffffffffffffffffffffff8216820361062f57565b359073ffffffffffffffffffffffffffffffffffffffff8216820361062f57565b9181601f8401121561062f5782359167ffffffffffffffff831161062f576020838186019501011161062f57565b9190808252602080920192915f905b828210613ea8575050505090565b9091929360019073ffffffffffffffffffffffffffffffffffffffff613ecd87613e3c565b168152828601358382015260408087013590820152606067ffffffffffffffff613ef8828901613d8d565b16908201526080908101950193920190613e9a565b67ffffffffffffffff81116129e557604052565b60a0810190811067ffffffffffffffff8211176129e557604052565b6040810190811067ffffffffffffffff8211176129e557604052565b6020810190811067ffffffffffffffff8211176129e557604052565b6060810190811067ffffffffffffffff8211176129e557604052565b6080810190811067ffffffffffffffff8211176129e557604052565b90601f7fffffffffffffffffffffffffffffffffffffffffffffffffffffffffffffffe0910116810190811067ffffffffffffffff8211176129e557604052565b67ffffffffffffffff81116129e557601f017fffffffffffffffffffffffffffffffffffffffffffffffffffffffffffffffe01660200190565b81601f8201121561062f5780359061403f82613fee565b9261404d6040519485613fad565b8284526020838301011161062f57815f926020809301838601378301015290565b67ffffffffffffffff81116129e55760051b60200190565b9190808252602080920192915f905b8282106140a3575050505090565b9091929360019073ffffffffffffffffffffffffffffffffffffffff6140c887613e3c565b16815282860135838201526040808701359082015260608087013590820152608067ffffffffffffffff6140fd828901613d8d565b169082015260a0908101950193920190614095565b60243573ffffffffffffffffffffffffffffffffffffffff8116810361062f5790565b600260055414614146576002600555565b60046040517f3ee5aeb5000000000000000000000000000000000000000000000000000000008152fd5b90918281527f07ffffffffffffffffffffffffffffffffffffffffffffffffffffffffffffff831161062f5760209260051b809284830137010190565b601f82602094937fffffffffffffffffffffffffffffffffffffffffffffffffffffffffffffffe093818652868601375f8582860101520116010190565b908281815260208091019360208360051b82010194845f925b858410614215575050505050505090565b909192939495967fffffffffffffffffffffffffffffffffffffffffffffffffffffffffffffffe082820301845287357fffffffffffffffffffffffffffffffffffffffffffffffffffffffffffffffe18436030181121561062f57830186810191903567ffffffffffffffff811161062f57803603831361062f576142a0889283926001956141ad565b990194019401929594939190614204565b73ffffffffffffffffffffffffffffffffffffffff6004541633036142d257565b60246040517f118cdaa7000000000000000000000000000000000000000000000000000000008152336004820152fd5b519060ff8216820361062f57565b919082604091031261062f5760405161432881613f3d565b602061434181839561433981614302565b855201614302565b910152565b919082606091031261062f576040516060810181811067ffffffffffffffff8211176129e557604052604061434181839561438081614302565b855261438e60208201614302565b602086015201614302565b5190811515820361062f57565b91909180830390610280821261062f5760409182519060c0820182811067ffffffffffffffff8211176129e557845281956143e18185614310565b83526143ef81868601614310565b60208401526144018160808601614346565b8584015260a07fffffffffffffffffffffffffffffffffffffffffffffffffffffffffffffff2083011261062f5760a0916144c67ffffffffffffffffffffffffffffffffffffffffffffffffffffffffffffffe2092875161446281613f21565b61446e60e08901614302565b815261447d6101008901614302565b602082015261448f6101208901614302565b898201526144a06101408901614302565b60608201526144b26101608901614302565b608082015260608701526101808701614346565b6080850152011261062f5761453061026060a0938551956144e687613f21565b6144f36101e08301614399565b87526145026102008301614302565b60208801526145146102208301614399565b908701526145256102408201614302565b606087015201614399565b60808401520152565b8181029291811591840414171561454c57565b7f4e487b71000000000000000000000000000000000000000000000000000000005f52601160045260245ffd5b519073ffffffffffffffffffffffffffffffffffffffff8216820361062f57565b5f5b8381106145ab5750505f910152565b818101518382015260200161459c565b81601f8201121561062f5780516145d181613fee565b926145df6040519485613fad565b8184526020828401011161062f576145fd916020808501910161459a565b90565b80511561460d5760200190565b7f4e487b71000000000000000000000000000000000000000000000000000000005f52603260045260245ffd5b60808060a06102609361465d86825160ff60208092828151168552015116910152565b602081810151805160ff90811660408a01529101511660608701526146a460408201518488019060ff60408092828151168552826020820151166020860152015116910152565b606081015160ff9381858093511660e08a0152826020820151166101008a0152826040820151166101208a0152826060820151166101408a01520151166101608701526147148482015161018088019060ff60408092828151168552826020820151166020860152015116910152565b015190815115156101e0860152806020830151166102008601526040820151151561022086015260608201511661024085015201511515910152565b519067ffffffffffffffff8216820361062f57565b91908260a091031261062f5760405161477d81613f21565b608061434181839561478e81614579565b855260208101516020860152604081015160408601526060810151606086015201614750565b907fffffffffffffffffffffffffffffffffffffffffffffffffffffffffffffffe0601f6020936147f08151809281875287808801910161459a565b0116010190565b919082608091031261062f576040516080810181811067ffffffffffffffff8211176129e557604052606061434181839561483181614579565b8552602081015160208601526040810151604086015201614750565b90949392614886906102c09373ffffffffffffffffffffffffffffffffffffffff6102e08501981684526020840152604083019061463a565b0152565b9080601f8301121561062f578151906020916148a58161406e565b936148b36040519586613fad565b81855260208086019260051b82010192831161062f57602001905b8282106148dc575050505090565b815181529083019083016148ce565b9081518082526020808093019301915f5b82811061490a575050505090565b8351855293810193928101926001016148fc565b81601f8201121561062f578051916020916149388461406e565b936149466040519586613fad565b808552838086019160051b8301019280841161062f57848301915b8483106149715750505050505090565b825167ffffffffffffffff811161062f578691614993848480948901016145bb565b815201920191614961565b9081518082526020808093019301915f5b8281106149bd575050505090565b909192938260a082614a1a600194895167ffffffffffffffff6080809273ffffffffffffffffffffffffffffffffffffffff8151168552602081015160208601526040810151604086015260608101516060860152015116910152565b019501939291016149af565b90808251908181526020809101926020808460051b8301019501935f915b848310614a545750505050505090565b9091929394958480614a90837fffffffffffffffffffffffffffffffffffffffffffffffffffffffffffffffe086600196030187528a516147b4565b9801930193019194939290614a44565b9081518082526020808093019301915f5b828110614abf575050505090565b9091929382608082614b12600194895167ffffffffffffffff6060809273ffffffffffffffffffffffffffffffffffffffff81511685526020810151602086015260408101516040860152015116910152565b01950193929101614ab1565b604080517fdd62ed3e00000000000000000000000000000000000000000000000000000000815233600482015230602482015290929160209173ffffffffffffffffffffffffffffffffffffffff909116908281604481855afa908115614c97579084915f91614c66575b5010614c3d57816024918551928380927f70a082310000000000000000000000000000000000000000000000000000000082523360048301525afa918215614c33575f92614c05575b505010614bdc5750565b600490517f68724d74000000000000000000000000000000000000000000000000000000008152fd5b90809250813d8311614c2c575b614c1c8183613fad565b8101031261062f57515f80614bd2565b503d614c12565b84513d5f823e3d90fd5b600484517f2c283f55000000000000000000000000000000000000000000000000000000008152fd5b809250848092503d8311614c90575b614c7f8183613fad565b8101031261062f578390515f614b89565b503d614c75565b85513d5f823e3d90fd5b6040517f23b872dd00000000000000000000000000000000000000000000000000000000602082015273ffffffffffffffffffffffffffffffffffffffff92831660248201529290911660448301526064820192909252614d0991612b688260848101612b3c565b565b919060409260405191614d1d83613f3d565b600183525f5b602080821015614d4f57865160209291614d3c82613f3d565b5f82525f81830152828701015201614d23565b5050935090614d9391819473ffffffffffffffffffffffffffffffffffffffff60405192614d7c84613f3d565b1682526020820152614d8d82614600565b52614600565b50565b90614d099173ffffffffffffffffffffffffffffffffffffffff604051927f095ea7b30000000000000000000000000000000000000000000000000000000060208501521660248301525f604483015260448252612b6882613f91565b91909181158015614e64575b156118db576040517f095ea7b300000000000000000000000000000000000000000000000000000000602082015273ffffffffffffffffffffffffffffffffffffffff90931660248401526044830191909152614d099190612b688260648101612b3c565b506040517fdd62ed3e00000000000000000000000000000000000000000000000000000000815230600482015273ffffffffffffffffffffffffffffffffffffffff841660248201526020818060448101038173ffffffffffffffffffffffffffffffffffffffff86165afa908115611991575f91614ee5575b5015614dff565b90506020813d602011614f0f575b81614f0060209383613fad565b8101031261062f57515f614ede565b3d9150614ef3565b9092919267ffffffffffffffff604091168252602091604083820152614f49855160a0604084015260e08301906147b4565b91614f8384870151937fffffffffffffffffffffffffffffffffffffffffffffffffffffffffffffffc094858583030160608601526147b4565b604087015194848483030160808501528080875193848152019601925f905b838210614fe657505050505060c060808673ffffffffffffffffffffffffffffffffffffffff60606145fd989901511660a0850152015192828503019101526147b4565b8451805173ffffffffffffffffffffffffffffffffffffffff168952830151888401529687019693820193600190910190614fa2565b73ffffffffffffffffffffffffffffffffffffffff807f0000000000000000000000000000000000000000000000000000000000000000169260409384517f20487ded000000000000000000000000000000000000000000000000000000008152602093848280615091878a60048401614f17565b0381865afa9182156152b9575f9261528a575b50600154169086517f70a082310000000000000000000000000000000000000000000000000000000081523060048201528581602481865afa908115615280575f91615253575b5081116152235786517f095ea7b300000000000000000000000000000000000000000000000000000000815273ffffffffffffffffffffffffffffffffffffffff841660048201526024810191909152908490829060449082905f905af18015615219576151db575b50908291615191945f87518097819582947f96f4e9f900000000000000000000000000000000000000000000000000000000845260048401614f17565b03925af19283156151d257505f926151a857505090565b90809250813d83116151cb575b6151bf8183613fad565b8101031261062f575190565b503d6151b5565b513d5f823e3d90fd5b91908383813d8311615212575b6151f28183613fad565b8101031261062f57615191946152088594614399565b5094509091615154565b503d6151e8565b86513d5f823e3d90fd5b6024908751907f1116d9ef0000000000000000000000000000000000000000000000000000000082526004820152fd5b90508581813d8311615279575b61526a8183613fad565b8101031261062f57515f6150eb565b503d615260565b88513d5f823e3d90fd5b9091508481813d83116152b2575b6152a28183613fad565b8101031261062f5751905f6150a4565b503d615298565b87513d5f823e3d90fd5b519069ffffffffffffffffffff8216820361062f57565b81156152e4570490565b7f4e487b71000000000000000000000000000000000000000000000000000000005f52601260045260245ffd5b60ff16604d811161454c57600a0a90565b73ffffffffffffffffffffffffffffffffffffffff916040928351907f5b6cca8000000000000000000000000000000000000000000000000000000000825280600494169081858401526020928381602481857f0000000000000000000000000000000000000000000000000000000000000000165afa9081156152b9575f91615647575b5016801561561f579060a0859493928751958680927ffeaf968c0000000000000000000000000000000000000000000000000000000082525afa938415615219575f946155d1575b505f8413156155a9576402540be4009384810294818604149015171561557d57908085928751938480927f313ce5670000000000000000000000000000000000000000000000000000000082525afa9586156151d257505f95615545575b5050670de0b6b3a7640000908181029181830414901517156155195760ff91615475916152da565b921660128110156154cc576012039060ff82116154a057509061549a6145fd92615311565b906152da565b6011907f4e487b71000000000000000000000000000000000000000000000000000000005f525260245ffd5b6012811115615514577fffffffffffffffffffffffffffffffffffffffffffffffffffffffffffffffee019060ff82116154a057509061550e6145fd92615311565b90614539565b505090565b6011837f4e487b71000000000000000000000000000000000000000000000000000000005f525260245ffd5b9080929550813d8311615576575b61555d8183613fad565b8101031261062f5761556e90614302565b925f8061544d565b503d615553565b6011857f4e487b71000000000000000000000000000000000000000000000000000000005f525260245ffd5b8486517fa3019c86000000000000000000000000000000000000000000000000000000008152fd5b90935060a0813d60a011615617575b816155ed60a09383613fad565b8101031261062f576155fe816152c3565b5061560f60808383015192016152c3565b50925f6153ef565b3d91506155e0565b8486517f6c8b8de7000000000000000000000000000000000000000000000000000000008152fd5b90508381813d8311615675575b61565e8183613fad565b8101031261062f5761566f90614579565b5f6153a7565b503d615654565b6040516157049173ffffffffffffffffffffffffffffffffffffffff166156a282613f3d565b5f806020958685527f5361666545524332303a206c6f772d6c6576656c2063616c6c206661696c656487860152868151910182855af13d156157b2573d916156e983613fee565b926156f76040519485613fad565b83523d5f8785013e6157b6565b80518061571057505050565b8183918101031261062f57816157269101614399565b1561572e5750565b608490604051907f08c379a00000000000000000000000000000000000000000000000000000000082526004820152602a60248201527f5361666545524332303a204552433230206f7065726174696f6e20646964206e60448201527f6f742073756363656564000000000000000000000000000000000000000000006064820152fd5b6060915b9192901561583157508151156157ca575090565b3b156157d35790565b60646040517f08c379a000000000000000000000000000000000000000000000000000000000815260206004820152601d60248201527f416464726573733a2063616c6c20746f206e6f6e2d636f6e74726163740000006044820152fd5b8251909150156158445750805190602001fd5b615882906040519182917f08c379a00000000000000000000000000000000000000000000000000000000083526020600484015260248301906147b4565b0390fdfea2646970667358221220afba83e9285b2bd99e28f6c81605a604ada5b3828292b920f5160deeb22362bc64736f6c63430008180033",
    "linkReferences": {}
  },
  "methodIdentifiers": {
    "ADDITIONAL_FEED_PRECISION()": "a0da12a5",
    "GAS_LIMIT_BUY()": "10488413",
    "GAS_LIMIT_MINT()": "a700a39c",
    "GAS_LIMIT_SELL()": "ab895eb8",
    "GAS_LIMIT_TRANSFER()": "ddf36e23",
    "PRECISION()": "aaf5eb68",
    "ccipReceive((bytes32,uint64,bytes,bytes,(address,uint256)[]))": "85572ffb",
    "depositLink(uint256)": "f9eafa70",
    "getRouter()": "b0f479a1",
    "i_beanHeadsContract()": "2c406d44",
    "i_router()": "581bdd16",
    "onERC721Received(address,address,uint256,bytes)": "150b7a02",
    "owner()": "8da5cb5b",
    "remoteBridgeAddresses(address)": "b95ff206",
    "renounceOwnership()": "715018a6",
    "s_destChain()": "41b8b269",
    "s_linkToken()": "7725135b",
    "s_remoteBridge()": "57c9cafb",
    "s_usdcToken()": "4fdb1ace",
    "sendBatchBuyTokenRequest(uint64,uint256[],uint256[],address)": "1179680f",
    "sendBatchCancelTokenSaleRequest(uint64,(address,uint256,uint256,uint64)[],bytes[])": "38c72353",
    "sendBatchSellTokenRequest(uint64,(address,uint256,uint256,uint256,uint64)[],bytes[],uint256[],bytes[])": "aa7ab1ab",
    "sendBuyTokenRequest(uint64,uint256,address,uint256)": "232df00d",
    "sendCancelTokenSaleRequest(uint64,(address,uint256,uint256,uint64),bytes)": "b1a778ab",
    "sendMintTokenRequest(uint64,address,((uint8,uint8),(uint8,uint8),(uint8,uint8,uint8),(uint8,uint8,uint8,uint8,uint8),(uint8,uint8,uint8),(bool,uint8,bool,uint8,bool)),uint256,address)": "7b0ef209",
    "sendSellTokenRequest(uint64,(address,uint256,uint256,uint256,uint64),bytes,uint256,bytes)": "ef74cd76",
    "sendTransferTokenRequest(uint64,uint256,address)": "62cd6c90",
    "setRemoteBridge(address,bool)": "5caffcd6",
    "supportsInterface(bytes4)": "01ffc9a7",
    "transferOwnership(address)": "f2fde38b",
    "withdrawLink(uint256)": "7a8042bd"
  },
  "id": 121
}