{
  "abi": [
    {
      "type": "constructor",
      "inputs": [
        {
          "name": "router",
          "type": "address",
          "internalType": "address"
        },
        {
          "name": "initialOwner",
          "type": "address",
          "internalType": "address"
        },
        {
          "name": "linkToken",
          "type": "address",
          "internalType": "address"
        },
        {
          "name": "usdcToken",
          "type": "address",
          "internalType": "address"
        },
        {
          "name": "beanHeads",
          "type": "address",
          "internalType": "address"
        }
      ],
      "stateMutability": "nonpayable"
    },
    {
      "type": "function",
      "name": "ADDITIONAL_FEED_PRECISION",
      "inputs": [],
      "outputs": [
        {
          "name": "",
          "type": "uint256",
          "internalType": "uint256"
        }
      ],
      "stateMutability": "view"
    },
    {
      "type": "function",
      "name": "GAS_LIMIT_BUY",
      "inputs": [],
      "outputs": [
        {
          "name": "",
          "type": "uint256",
          "internalType": "uint256"
        }
      ],
      "stateMutability": "view"
    },
    {
      "type": "function",
      "name": "GAS_LIMIT_MINT",
      "inputs": [],
      "outputs": [
        {
          "name": "",
          "type": "uint256",
          "internalType": "uint256"
        }
      ],
      "stateMutability": "view"
    },
    {
      "type": "function",
      "name": "GAS_LIMIT_SELL",
      "inputs": [],
      "outputs": [
        {
          "name": "",
          "type": "uint256",
          "internalType": "uint256"
        }
      ],
      "stateMutability": "view"
    },
    {
      "type": "function",
      "name": "GAS_LIMIT_TRANSFER",
      "inputs": [],
      "outputs": [
        {
          "name": "",
          "type": "uint256",
          "internalType": "uint256"
        }
      ],
      "stateMutability": "view"
    },
    {
      "type": "function",
      "name": "PRECISION",
      "inputs": [],
      "outputs": [
        {
          "name": "",
          "type": "uint256",
          "internalType": "uint256"
        }
      ],
      "stateMutability": "view"
    },
    {
      "type": "function",
      "name": "ccipReceive",
      "inputs": [
        {
          "name": "message",
          "type": "tuple",
          "internalType": "struct Client.Any2EVMMessage",
          "components": [
            {
              "name": "messageId",
              "type": "bytes32",
              "internalType": "bytes32"
            },
            {
              "name": "sourceChainSelector",
              "type": "uint64",
              "internalType": "uint64"
            },
            {
              "name": "sender",
              "type": "bytes",
              "internalType": "bytes"
            },
            {
              "name": "data",
              "type": "bytes",
              "internalType": "bytes"
            },
            {
              "name": "destTokenAmounts",
              "type": "tuple[]",
              "internalType": "struct Client.EVMTokenAmount[]",
              "components": [
                {
                  "name": "token",
                  "type": "address",
                  "internalType": "address"
                },
                {
                  "name": "amount",
                  "type": "uint256",
                  "internalType": "uint256"
                }
              ]
            }
          ]
        }
      ],
      "outputs": [],
      "stateMutability": "nonpayable"
    },
    {
      "type": "function",
      "name": "depositLink",
      "inputs": [
        {
          "name": "amount",
          "type": "uint256",
          "internalType": "uint256"
        }
      ],
      "outputs": [],
      "stateMutability": "nonpayable"
    },
    {
      "type": "function",
      "name": "getRouter",
      "inputs": [],
      "outputs": [
        {
          "name": "",
          "type": "address",
          "internalType": "address"
        }
      ],
      "stateMutability": "view"
    },
    {
      "type": "function",
      "name": "i_beanHeadsContract",
      "inputs": [],
      "outputs": [
        {
          "name": "",
          "type": "address",
          "internalType": "address"
        }
      ],
      "stateMutability": "view"
    },
    {
      "type": "function",
      "name": "i_router",
      "inputs": [],
      "outputs": [
        {
          "name": "",
          "type": "address",
          "internalType": "contract IRouterClient"
        }
      ],
      "stateMutability": "view"
    },
    {
      "type": "function",
      "name": "onERC721Received",
      "inputs": [
        {
          "name": "",
          "type": "address",
          "internalType": "address"
        },
        {
          "name": "",
          "type": "address",
          "internalType": "address"
        },
        {
          "name": "",
          "type": "uint256",
          "internalType": "uint256"
        },
        {
          "name": "",
          "type": "bytes",
          "internalType": "bytes"
        }
      ],
      "outputs": [
        {
          "name": "",
          "type": "bytes4",
          "internalType": "bytes4"
        }
      ],
      "stateMutability": "pure"
    },
    {
      "type": "function",
      "name": "owner",
      "inputs": [],
      "outputs": [
        {
          "name": "",
          "type": "address",
          "internalType": "address"
        }
      ],
      "stateMutability": "view"
    },
    {
      "type": "function",
      "name": "remoteBridgeAddresses",
      "inputs": [
        {
          "name": "remoteBridge",
          "type": "address",
          "internalType": "address"
        }
      ],
      "outputs": [
        {
          "name": "isRegistered",
          "type": "bool",
          "internalType": "bool"
        }
      ],
      "stateMutability": "view"
    },
    {
      "type": "function",
      "name": "renounceOwnership",
      "inputs": [],
      "outputs": [],
      "stateMutability": "nonpayable"
    },
    {
      "type": "function",
      "name": "s_destChain",
      "inputs": [],
      "outputs": [
        {
          "name": "",
          "type": "uint64",
          "internalType": "uint64"
        }
      ],
      "stateMutability": "view"
    },
    {
      "type": "function",
      "name": "s_linkToken",
      "inputs": [],
      "outputs": [
        {
          "name": "",
          "type": "address",
          "internalType": "contract IERC20"
        }
      ],
      "stateMutability": "view"
    },
    {
      "type": "function",
      "name": "s_remoteBridge",
      "inputs": [],
      "outputs": [
        {
          "name": "",
          "type": "address",
          "internalType": "address"
        }
      ],
      "stateMutability": "view"
    },
    {
      "type": "function",
      "name": "s_usdcToken",
      "inputs": [],
      "outputs": [
        {
          "name": "",
          "type": "address",
          "internalType": "contract IERC20"
        }
      ],
      "stateMutability": "view"
    },
    {
      "type": "function",
      "name": "sendBatchBuyTokenRequest",
      "inputs": [
        {
          "name": "_destinationChainSelector",
          "type": "uint64",
          "internalType": "uint64"
        },
        {
          "name": "_tokenIds",
          "type": "uint256[]",
          "internalType": "uint256[]"
        },
        {
          "name": "_prices",
          "type": "uint256[]",
          "internalType": "uint256[]"
        },
        {
          "name": "_paymentToken",
          "type": "address",
          "internalType": "address"
        }
      ],
      "outputs": [
        {
          "name": "messageId",
          "type": "bytes32",
          "internalType": "bytes32"
        }
      ],
      "stateMutability": "nonpayable"
    },
    {
      "type": "function",
      "name": "sendBatchCancelTokenSaleRequest",
      "inputs": [
        {
          "name": "_destinationChainSelector",
          "type": "uint64",
          "internalType": "uint64"
        },
        {
          "name": "_cancelRequests",
          "type": "tuple[]",
          "internalType": "struct PermitTypes.Cancel[]",
          "components": [
            {
              "name": "seller",
              "type": "address",
              "internalType": "address"
            },
            {
              "name": "tokenId",
              "type": "uint256",
              "internalType": "uint256"
            },
            {
              "name": "listingNonce",
              "type": "uint256",
              "internalType": "uint256"
            },
            {
              "name": "deadline",
              "type": "uint64",
              "internalType": "uint64"
            }
          ]
        },
        {
          "name": "_cancelSigs",
          "type": "bytes[]",
          "internalType": "bytes[]"
        }
      ],
      "outputs": [
        {
          "name": "messageId",
          "type": "bytes32",
          "internalType": "bytes32"
        }
      ],
      "stateMutability": "nonpayable"
    },
    {
      "type": "function",
      "name": "sendBatchSellTokenRequest",
      "inputs": [
        {
          "name": "_destinationChainSelector",
          "type": "uint64",
          "internalType": "uint64"
        },
        {
          "name": "_sellRequests",
          "type": "tuple[]",
          "internalType": "struct PermitTypes.Sell[]",
          "components": [
            {
              "name": "owner",
              "type": "address",
              "internalType": "address"
            },
            {
              "name": "tokenId",
              "type": "uint256",
              "internalType": "uint256"
            },
            {
              "name": "price",
              "type": "uint256",
              "internalType": "uint256"
            },
            {
              "name": "nonce",
              "type": "uint256",
              "internalType": "uint256"
            },
            {
              "name": "deadline",
              "type": "uint64",
              "internalType": "uint64"
            }
          ]
        },
        {
          "name": "_sellSigs",
          "type": "bytes[]",
          "internalType": "bytes[]"
        },
        {
          "name": "_permitDeadlines",
          "type": "uint256[]",
          "internalType": "uint256[]"
        },
        {
          "name": "_permitSigs",
          "type": "bytes[]",
          "internalType": "bytes[]"
        }
      ],
      "outputs": [
        {
          "name": "messageId",
          "type": "bytes32",
          "internalType": "bytes32"
        }
      ],
      "stateMutability": "nonpayable"
    },
    {
      "type": "function",
      "name": "sendBuyTokenRequest",
      "inputs": [
        {
          "name": "_destinationChainSelector",
          "type": "uint64",
          "internalType": "uint64"
        },
        {
          "name": "_tokenId",
          "type": "uint256",
          "internalType": "uint256"
        },
        {
          "name": "_paymentToken",
          "type": "address",
          "internalType": "address"
        },
        {
          "name": "_price",
          "type": "uint256",
          "internalType": "uint256"
        }
      ],
      "outputs": [
        {
          "name": "messageId",
          "type": "bytes32",
          "internalType": "bytes32"
        }
      ],
      "stateMutability": "nonpayable"
    },
    {
      "type": "function",
      "name": "sendCancelTokenSaleRequest",
      "inputs": [
        {
          "name": "_destinationChainSelector",
          "type": "uint64",
          "internalType": "uint64"
        },
        {
          "name": "c",
          "type": "tuple",
          "internalType": "struct PermitTypes.Cancel",
          "components": [
            {
              "name": "seller",
              "type": "address",
              "internalType": "address"
            },
            {
              "name": "tokenId",
              "type": "uint256",
              "internalType": "uint256"
            },
            {
              "name": "listingNonce",
              "type": "uint256",
              "internalType": "uint256"
            },
            {
              "name": "deadline",
              "type": "uint64",
              "internalType": "uint64"
            }
          ]
        },
        {
          "name": "cancelSig",
          "type": "bytes",
          "internalType": "bytes"
        }
      ],
      "outputs": [
        {
          "name": "messageId",
          "type": "bytes32",
          "internalType": "bytes32"
        }
      ],
      "stateMutability": "nonpayable"
    },
    {
      "type": "function",
      "name": "sendMintTokenRequest",
      "inputs": [
        {
          "name": "_destinationChainSelector",
          "type": "uint64",
          "internalType": "uint64"
        },
        {
          "name": "_receiver",
          "type": "address",
          "internalType": "address"
        },
        {
          "name": "_params",
          "type": "tuple",
          "internalType": "struct Genesis.SVGParams",
          "components": [
            {
              "name": "hairParams",
              "type": "tuple",
              "internalType": "struct Genesis.HairParams",
              "components": [
                {
                  "name": "hairStyle",
                  "type": "uint8",
                  "internalType": "uint8"
                },
                {
                  "name": "hairColor",
                  "type": "uint8",
                  "internalType": "uint8"
                }
              ]
            },
            {
              "name": "bodyParams",
              "type": "tuple",
              "internalType": "struct Genesis.BodyParams",
              "components": [
                {
                  "name": "bodyType",
                  "type": "uint8",
                  "internalType": "uint8"
                },
                {
                  "name": "skinColor",
                  "type": "uint8",
                  "internalType": "uint8"
                }
              ]
            },
            {
              "name": "clothingParams",
              "type": "tuple",
              "internalType": "struct Genesis.ClothingParams",
              "components": [
                {
                  "name": "clothes",
                  "type": "uint8",
                  "internalType": "uint8"
                },
                {
                  "name": "clothingColor",
                  "type": "uint8",
                  "internalType": "uint8"
                },
                {
                  "name": "clothesGraphic",
                  "type": "uint8",
                  "internalType": "uint8"
                }
              ]
            },
            {
              "name": "facialFeaturesParams",
              "type": "tuple",
              "internalType": "struct Genesis.FacialFeaturesParams",
              "components": [
                {
                  "name": "eyebrowShape",
                  "type": "uint8",
                  "internalType": "uint8"
                },
                {
                  "name": "eyeShape",
                  "type": "uint8",
                  "internalType": "uint8"
                },
                {
                  "name": "facialHairType",
                  "type": "uint8",
                  "internalType": "uint8"
                },
                {
                  "name": "mouthStyle",
                  "type": "uint8",
                  "internalType": "uint8"
                },
                {
                  "name": "lipColor",
                  "type": "uint8",
                  "internalType": "uint8"
                }
              ]
            },
            {
              "name": "accessoryParams",
              "type": "tuple",
              "internalType": "struct Genesis.AccessoryParams",
              "components": [
                {
                  "name": "accessoryId",
                  "type": "uint8",
                  "internalType": "uint8"
                },
                {
                  "name": "hatStyle",
                  "type": "uint8",
                  "internalType": "uint8"
                },
                {
                  "name": "hatColor",
                  "type": "uint8",
                  "internalType": "uint8"
                }
              ]
            },
            {
              "name": "otherParams",
              "type": "tuple",
              "internalType": "struct Genesis.OtherParams",
              "components": [
                {
                  "name": "faceMask",
                  "type": "bool",
                  "internalType": "bool"
                },
                {
                  "name": "faceMaskColor",
                  "type": "uint8",
                  "internalType": "uint8"
                },
                {
                  "name": "shapes",
                  "type": "bool",
                  "internalType": "bool"
                },
                {
                  "name": "shapeColor",
                  "type": "uint8",
                  "internalType": "uint8"
                },
                {
                  "name": "lashes",
                  "type": "bool",
                  "internalType": "bool"
                }
              ]
            }
          ]
        },
        {
          "name": "_amount",
          "type": "uint256",
          "internalType": "uint256"
        },
        {
          "name": "_paymentToken",
          "type": "address",
          "internalType": "address"
        }
      ],
      "outputs": [
        {
          "name": "messageId",
          "type": "bytes32",
          "internalType": "bytes32"
        }
      ],
      "stateMutability": "payable"
    },
    {
      "type": "function",
      "name": "sendSellTokenRequest",
      "inputs": [
        {
          "name": "_destinationChainSelector",
          "type": "uint64",
          "internalType": "uint64"
        },
        {
          "name": "s",
          "type": "tuple",
          "internalType": "struct PermitTypes.Sell",
          "components": [
            {
              "name": "owner",
              "type": "address",
              "internalType": "address"
            },
            {
              "name": "tokenId",
              "type": "uint256",
              "internalType": "uint256"
            },
            {
              "name": "price",
              "type": "uint256",
              "internalType": "uint256"
            },
            {
              "name": "nonce",
              "type": "uint256",
              "internalType": "uint256"
            },
            {
              "name": "deadline",
              "type": "uint64",
              "internalType": "uint64"
            }
          ]
        },
        {
          "name": "sellSig",
          "type": "bytes",
          "internalType": "bytes"
        },
        {
          "name": "permitDeadline",
          "type": "uint256",
          "internalType": "uint256"
        },
        {
          "name": "permitSig",
          "type": "bytes",
          "internalType": "bytes"
        }
      ],
      "outputs": [
        {
          "name": "messageId",
          "type": "bytes32",
          "internalType": "bytes32"
        }
      ],
      "stateMutability": "nonpayable"
    },
    {
      "type": "function",
      "name": "sendTransferTokenRequest",
      "inputs": [
        {
          "name": "_destinationChainSelector",
          "type": "uint64",
          "internalType": "uint64"
        },
        {
          "name": "_tokenId",
          "type": "uint256",
          "internalType": "uint256"
        },
        {
          "name": "_receiver",
          "type": "address",
          "internalType": "address"
        }
      ],
      "outputs": [
        {
          "name": "messageId",
          "type": "bytes32",
          "internalType": "bytes32"
        }
      ],
      "stateMutability": "nonpayable"
    },
    {
      "type": "function",
      "name": "setRemoteBridge",
      "inputs": [
        {
          "name": "_newRemoteBridge",
          "type": "address",
          "internalType": "address"
        },
        {
          "name": "allowed",
          "type": "bool",
          "internalType": "bool"
        }
      ],
      "outputs": [],
      "stateMutability": "nonpayable"
    },
    {
      "type": "function",
      "name": "supportsInterface",
      "inputs": [
        {
          "name": "interfaceId",
          "type": "bytes4",
          "internalType": "bytes4"
        }
      ],
      "outputs": [
        {
          "name": "",
          "type": "bool",
          "internalType": "bool"
        }
      ],
      "stateMutability": "view"
    },
    {
      "type": "function",
      "name": "transferOwnership",
      "inputs": [
        {
          "name": "newOwner",
          "type": "address",
          "internalType": "address"
        }
      ],
      "outputs": [],
      "stateMutability": "nonpayable"
    },
    {
      "type": "function",
      "name": "withdrawLink",
      "inputs": [
        {
          "name": "amount",
          "type": "uint256",
          "internalType": "uint256"
        }
      ],
      "outputs": [],
      "stateMutability": "nonpayable"
    },
    {
      "type": "event",
      "name": "BatchTokenBoughtCrossChain",
      "inputs": [
        {
          "name": "buyer",
          "type": "address",
          "indexed": true,
          "internalType": "address"
        },
        {
          "name": "paymentToken",
          "type": "address",
          "indexed": true,
          "internalType": "address"
        }
      ],
      "anonymous": false
    },
    {
      "type": "event",
      "name": "BatchTokenSaleCancelledCrossChain",
      "inputs": [
        {
          "name": "cancelRequests",
          "type": "tuple[]",
          "indexed": false,
          "internalType": "struct PermitTypes.Cancel[]",
          "components": [
            {
              "name": "seller",
              "type": "address",
              "internalType": "address"
            },
            {
              "name": "tokenId",
              "type": "uint256",
              "internalType": "uint256"
            },
            {
              "name": "listingNonce",
              "type": "uint256",
              "internalType": "uint256"
            },
            {
              "name": "deadline",
              "type": "uint64",
              "internalType": "uint64"
            }
          ]
        }
      ],
      "anonymous": false
    },
    {
      "type": "event",
      "name": "BatchTokensListedCrossChain",
      "inputs": [
        {
          "name": "sellRequests",
          "type": "tuple[]",
          "indexed": false,
          "internalType": "struct PermitTypes.Sell[]",
          "components": [
            {
              "name": "owner",
              "type": "address",
              "internalType": "address"
            },
            {
              "name": "tokenId",
              "type": "uint256",
              "internalType": "uint256"
            },
            {
              "name": "price",
              "type": "uint256",
              "internalType": "uint256"
            },
            {
              "name": "nonce",
              "type": "uint256",
              "internalType": "uint256"
            },
            {
              "name": "deadline",
              "type": "uint64",
              "internalType": "uint64"
            }
          ]
        }
      ],
      "anonymous": false
    },
    {
      "type": "event",
      "name": "CancelBatchSellTokenRequest",
      "inputs": [
        {
          "name": "cancelRequests",
          "type": "tuple[]",
          "indexed": false,
          "internalType": "struct PermitTypes.Cancel[]",
          "components": [
            {
              "name": "seller",
              "type": "address",
              "internalType": "address"
            },
            {
              "name": "tokenId",
              "type": "uint256",
              "internalType": "uint256"
            },
            {
              "name": "listingNonce",
              "type": "uint256",
              "internalType": "uint256"
            },
            {
              "name": "deadline",
              "type": "uint64",
              "internalType": "uint64"
            }
          ]
        }
      ],
      "anonymous": false
    },
    {
      "type": "event",
      "name": "CancelSellTokenRequest",
      "inputs": [
        {
          "name": "messageId",
          "type": "bytes32",
          "indexed": true,
          "internalType": "bytes32"
        },
        {
          "name": "destinationChainSelector",
          "type": "uint64",
          "indexed": true,
          "internalType": "uint64"
        },
        {
          "name": "receiver",
          "type": "address",
          "indexed": true,
          "internalType": "address"
        },
        {
          "name": "tokenId",
          "type": "uint256",
          "indexed": false,
          "internalType": "uint256"
        }
      ],
      "anonymous": false
    },
    {
      "type": "event",
      "name": "OwnershipTransferred",
      "inputs": [
        {
          "name": "previousOwner",
          "type": "address",
          "indexed": true,
          "internalType": "address"
        },
        {
          "name": "newOwner",
          "type": "address",
          "indexed": true,
          "internalType": "address"
        }
      ],
      "anonymous": false
    },
    {
      "type": "event",
      "name": "RemoteBridgeUpdated",
      "inputs": [
        {
          "name": "newRemoteBridge",
          "type": "address",
          "indexed": false,
          "internalType": "address"
        }
      ],
      "anonymous": false
    },
    {
      "type": "event",
      "name": "SentBatchBuyTokensRequest",
      "inputs": [
        {
          "name": "messageId",
          "type": "bytes32",
          "indexed": true,
          "internalType": "bytes32"
        },
        {
          "name": "destinationChainSelector",
          "type": "uint64",
          "indexed": true,
          "internalType": "uint64"
        },
        {
          "name": "receiver",
          "type": "address",
          "indexed": true,
          "internalType": "address"
        }
      ],
      "anonymous": false
    },
    {
      "type": "event",
      "name": "SentBatchSellTokensRequest",
      "inputs": [
        {
          "name": "sellRequests",
          "type": "tuple[]",
          "indexed": false,
          "internalType": "struct PermitTypes.Sell[]",
          "components": [
            {
              "name": "owner",
              "type": "address",
              "internalType": "address"
            },
            {
              "name": "tokenId",
              "type": "uint256",
              "internalType": "uint256"
            },
            {
              "name": "price",
              "type": "uint256",
              "internalType": "uint256"
            },
            {
              "name": "nonce",
              "type": "uint256",
              "internalType": "uint256"
            },
            {
              "name": "deadline",
              "type": "uint64",
              "internalType": "uint64"
            }
          ]
        }
      ],
      "anonymous": false
    },
    {
      "type": "event",
      "name": "SentBuyTokenRequest",
      "inputs": [
        {
          "name": "messageId",
          "type": "bytes32",
          "indexed": true,
          "internalType": "bytes32"
        },
        {
          "name": "destinationChainSelector",
          "type": "uint64",
          "indexed": true,
          "internalType": "uint64"
        },
        {
          "name": "receiver",
          "type": "address",
          "indexed": true,
          "internalType": "address"
        },
        {
          "name": "tokenId",
          "type": "uint256",
          "indexed": false,
          "internalType": "uint256"
        },
        {
          "name": "price",
          "type": "uint256",
          "indexed": false,
          "internalType": "uint256"
        }
      ],
      "anonymous": false
    },
    {
      "type": "event",
      "name": "SentMintTokenRequest",
      "inputs": [
        {
          "name": "messageId",
          "type": "bytes32",
          "indexed": true,
          "internalType": "bytes32"
        },
        {
          "name": "destinationChainSelector",
          "type": "uint64",
          "indexed": true,
          "internalType": "uint64"
        },
        {
          "name": "receiver",
          "type": "address",
          "indexed": true,
          "internalType": "address"
        },
        {
          "name": "amount",
          "type": "uint256",
          "indexed": false,
          "internalType": "uint256"
        }
      ],
      "anonymous": false
    },
    {
      "type": "event",
      "name": "SentSellTokenRequest",
      "inputs": [
        {
          "name": "messageId",
          "type": "bytes32",
          "indexed": true,
          "internalType": "bytes32"
        },
        {
          "name": "destinationChainSelector",
          "type": "uint64",
          "indexed": true,
          "internalType": "uint64"
        },
        {
          "name": "receiver",
          "type": "address",
          "indexed": true,
          "internalType": "address"
        },
        {
          "name": "tokenId",
          "type": "uint256",
          "indexed": false,
          "internalType": "uint256"
        },
        {
          "name": "price",
          "type": "uint256",
          "indexed": false,
          "internalType": "uint256"
        }
      ],
      "anonymous": false
    },
    {
      "type": "event",
      "name": "SentTransferTokenRequest",
      "inputs": [
        {
          "name": "messageId",
          "type": "bytes32",
          "indexed": true,
          "internalType": "bytes32"
        },
        {
          "name": "destinationChainSelector",
          "type": "uint64",
          "indexed": true,
          "internalType": "uint64"
        },
        {
          "name": "receiver",
          "type": "address",
          "indexed": true,
          "internalType": "address"
        },
        {
          "name": "tokenId",
          "type": "uint256",
          "indexed": false,
          "internalType": "uint256"
        }
      ],
      "anonymous": false
    },
    {
      "type": "event",
      "name": "TokenBoughtCrossChain",
      "inputs": [
        {
          "name": "buyer",
          "type": "address",
          "indexed": true,
          "internalType": "address"
        },
        {
          "name": "tokenId",
          "type": "uint256",
          "indexed": false,
          "internalType": "uint256"
        }
      ],
      "anonymous": false
    },
    {
      "type": "event",
      "name": "TokenListedCrossChain",
      "inputs": [
        {
          "name": "seller",
          "type": "address",
          "indexed": true,
          "internalType": "address"
        },
        {
          "name": "tokenId",
          "type": "uint256",
          "indexed": false,
          "internalType": "uint256"
        },
        {
          "name": "price",
          "type": "uint256",
          "indexed": false,
          "internalType": "uint256"
        }
      ],
      "anonymous": false
    },
    {
      "type": "event",
      "name": "TokenMintedCrossChain",
      "inputs": [
        {
          "name": "receiver",
          "type": "address",
          "indexed": true,
          "internalType": "address"
        },
        {
          "name": "params",
          "type": "tuple",
          "indexed": false,
          "internalType": "struct Genesis.SVGParams",
          "components": [
            {
              "name": "hairParams",
              "type": "tuple",
              "internalType": "struct Genesis.HairParams",
              "components": [
                {
                  "name": "hairStyle",
                  "type": "uint8",
                  "internalType": "uint8"
                },
                {
                  "name": "hairColor",
                  "type": "uint8",
                  "internalType": "uint8"
                }
              ]
            },
            {
              "name": "bodyParams",
              "type": "tuple",
              "internalType": "struct Genesis.BodyParams",
              "components": [
                {
                  "name": "bodyType",
                  "type": "uint8",
                  "internalType": "uint8"
                },
                {
                  "name": "skinColor",
                  "type": "uint8",
                  "internalType": "uint8"
                }
              ]
            },
            {
              "name": "clothingParams",
              "type": "tuple",
              "internalType": "struct Genesis.ClothingParams",
              "components": [
                {
                  "name": "clothes",
                  "type": "uint8",
                  "internalType": "uint8"
                },
                {
                  "name": "clothingColor",
                  "type": "uint8",
                  "internalType": "uint8"
                },
                {
                  "name": "clothesGraphic",
                  "type": "uint8",
                  "internalType": "uint8"
                }
              ]
            },
            {
              "name": "facialFeaturesParams",
              "type": "tuple",
              "internalType": "struct Genesis.FacialFeaturesParams",
              "components": [
                {
                  "name": "eyebrowShape",
                  "type": "uint8",
                  "internalType": "uint8"
                },
                {
                  "name": "eyeShape",
                  "type": "uint8",
                  "internalType": "uint8"
                },
                {
                  "name": "facialHairType",
                  "type": "uint8",
                  "internalType": "uint8"
                },
                {
                  "name": "mouthStyle",
                  "type": "uint8",
                  "internalType": "uint8"
                },
                {
                  "name": "lipColor",
                  "type": "uint8",
                  "internalType": "uint8"
                }
              ]
            },
            {
              "name": "accessoryParams",
              "type": "tuple",
              "internalType": "struct Genesis.AccessoryParams",
              "components": [
                {
                  "name": "accessoryId",
                  "type": "uint8",
                  "internalType": "uint8"
                },
                {
                  "name": "hatStyle",
                  "type": "uint8",
                  "internalType": "uint8"
                },
                {
                  "name": "hatColor",
                  "type": "uint8",
                  "internalType": "uint8"
                }
              ]
            },
            {
              "name": "otherParams",
              "type": "tuple",
              "internalType": "struct Genesis.OtherParams",
              "components": [
                {
                  "name": "faceMask",
                  "type": "bool",
                  "internalType": "bool"
                },
                {
                  "name": "faceMaskColor",
                  "type": "uint8",
                  "internalType": "uint8"
                },
                {
                  "name": "shapes",
                  "type": "bool",
                  "internalType": "bool"
                },
                {
                  "name": "shapeColor",
                  "type": "uint8",
                  "internalType": "uint8"
                },
                {
                  "name": "lashes",
                  "type": "bool",
                  "internalType": "bool"
                }
              ]
            }
          ]
        },
        {
          "name": "tokenId",
          "type": "uint256",
          "indexed": false,
          "internalType": "uint256"
        }
      ],
      "anonymous": false
    },
    {
      "type": "event",
      "name": "TokenMirroredOnDestinationChain",
      "inputs": [
        {
          "name": "receiver",
          "type": "address",
          "indexed": true,
          "internalType": "address"
        },
        {
          "name": "tokenId",
          "type": "uint256",
          "indexed": false,
          "internalType": "uint256"
        },
        {
          "name": "params",
          "type": "tuple",
          "indexed": false,
          "internalType": "struct Genesis.SVGParams",
          "components": [
            {
              "name": "hairParams",
              "type": "tuple",
              "internalType": "struct Genesis.HairParams",
              "components": [
                {
                  "name": "hairStyle",
                  "type": "uint8",
                  "internalType": "uint8"
                },
                {
                  "name": "hairColor",
                  "type": "uint8",
                  "internalType": "uint8"
                }
              ]
            },
            {
              "name": "bodyParams",
              "type": "tuple",
              "internalType": "struct Genesis.BodyParams",
              "components": [
                {
                  "name": "bodyType",
                  "type": "uint8",
                  "internalType": "uint8"
                },
                {
                  "name": "skinColor",
                  "type": "uint8",
                  "internalType": "uint8"
                }
              ]
            },
            {
              "name": "clothingParams",
              "type": "tuple",
              "internalType": "struct Genesis.ClothingParams",
              "components": [
                {
                  "name": "clothes",
                  "type": "uint8",
                  "internalType": "uint8"
                },
                {
                  "name": "clothingColor",
                  "type": "uint8",
                  "internalType": "uint8"
                },
                {
                  "name": "clothesGraphic",
                  "type": "uint8",
                  "internalType": "uint8"
                }
              ]
            },
            {
              "name": "facialFeaturesParams",
              "type": "tuple",
              "internalType": "struct Genesis.FacialFeaturesParams",
              "components": [
                {
                  "name": "eyebrowShape",
                  "type": "uint8",
                  "internalType": "uint8"
                },
                {
                  "name": "eyeShape",
                  "type": "uint8",
                  "internalType": "uint8"
                },
                {
                  "name": "facialHairType",
                  "type": "uint8",
                  "internalType": "uint8"
                },
                {
                  "name": "mouthStyle",
                  "type": "uint8",
                  "internalType": "uint8"
                },
                {
                  "name": "lipColor",
                  "type": "uint8",
                  "internalType": "uint8"
                }
              ]
            },
            {
              "name": "accessoryParams",
              "type": "tuple",
              "internalType": "struct Genesis.AccessoryParams",
              "components": [
                {
                  "name": "accessoryId",
                  "type": "uint8",
                  "internalType": "uint8"
                },
                {
                  "name": "hatStyle",
                  "type": "uint8",
                  "internalType": "uint8"
                },
                {
                  "name": "hatColor",
                  "type": "uint8",
                  "internalType": "uint8"
                }
              ]
            },
            {
              "name": "otherParams",
              "type": "tuple",
              "internalType": "struct Genesis.OtherParams",
              "components": [
                {
                  "name": "faceMask",
                  "type": "bool",
                  "internalType": "bool"
                },
                {
                  "name": "faceMaskColor",
                  "type": "uint8",
                  "internalType": "uint8"
                },
                {
                  "name": "shapes",
                  "type": "bool",
                  "internalType": "bool"
                },
                {
                  "name": "shapeColor",
                  "type": "uint8",
                  "internalType": "uint8"
                },
                {
                  "name": "lashes",
                  "type": "bool",
                  "internalType": "bool"
                }
              ]
            }
          ]
        },
        {
          "name": "originChainId",
          "type": "uint256",
          "indexed": false,
          "internalType": "uint256"
        }
      ],
      "anonymous": false
    },
    {
      "type": "event",
      "name": "TokenReturnedToSourceChain",
      "inputs": [
        {
          "name": "tokenId",
          "type": "uint256",
          "indexed": false,
          "internalType": "uint256"
        }
      ],
      "anonymous": false
    },
    {
      "type": "event",
      "name": "TokenSaleCancelled",
      "inputs": [
        {
          "name": "owner",
          "type": "address",
          "indexed": true,
          "internalType": "address"
        },
        {
          "name": "tokenId",
          "type": "uint256",
          "indexed": false,
          "internalType": "uint256"
        }
      ],
      "anonymous": false
    },
    {
      "type": "event",
      "name": "TokenTransferredCrossChain",
      "inputs": [
        {
          "name": "receiver",
          "type": "address",
          "indexed": true,
          "internalType": "address"
        },
        {
          "name": "tokenId",
          "type": "uint256",
          "indexed": false,
          "internalType": "uint256"
        }
      ],
      "anonymous": false
    },
    {
      "type": "error",
      "name": "IBeanHeadsBridge__InsufficientAllowance",
      "inputs": []
    },
    {
      "type": "error",
      "name": "IBeanHeadsBridge__InsufficientLinkBalance",
      "inputs": [
        {
          "name": "amount",
          "type": "uint256",
          "internalType": "uint256"
        }
      ]
    },
    {
      "type": "error",
      "name": "IBeanHeadsBridge__InsufficientPayment",
      "inputs": []
    },
    {
      "type": "error",
      "name": "IBeanHeadsBridge__InvalidAmount",
      "inputs": []
    },
    {
      "type": "error",
      "name": "IBeanHeadsBridge__InvalidLength",
      "inputs": []
    },
    {
      "type": "error",
      "name": "IBeanHeadsBridge__InvalidNonce",
      "inputs": []
    },
    {
      "type": "error",
      "name": "IBeanHeadsBridge__InvalidOraclePrice",
      "inputs": []
    },
    {
      "type": "error",
      "name": "IBeanHeadsBridge__InvalidPaymentToken",
      "inputs": [
        {
          "name": "received",
          "type": "address",
          "internalType": "address"
        },
        {
          "name": "expected",
          "type": "address",
          "internalType": "address"
        }
      ]
    },
    {
      "type": "error",
      "name": "IBeanHeadsBridge__InvalidRemoteAddress",
      "inputs": []
    },
    {
      "type": "error",
      "name": "IBeanHeadsBridge__InvalidToken",
      "inputs": []
    },
    {
      "type": "error",
      "name": "IBeanHeadsBridge__InvalidTokenReceived",
      "inputs": []
    },
    {
      "type": "error",
      "name": "IBeanHeadsBridge__MismatchedArrayLengths",
      "inputs": []
    },
    {
      "type": "error",
      "name": "IBeanHeadsBridge__PriceExceedsMax",
      "inputs": []
    },
    {
      "type": "error",
      "name": "IBeanHeadsBridge__TokenIsNotForSale",
      "inputs": []
    },
    {
      "type": "error",
      "name": "IBeanHeadsBridge__TokenNotAllowed",
      "inputs": [
        {
          "name": "token",
          "type": "address",
          "internalType": "address"
        }
      ]
    },
    {
      "type": "error",
      "name": "IBeanHeadsBridge__TokenNotDeposited",
      "inputs": [
        {
          "name": "tokenId",
          "type": "uint256",
          "internalType": "uint256"
        }
      ]
    },
    {
      "type": "error",
      "name": "IBeanHeadsBridge__UnauthorizedSender",
      "inputs": [
        {
          "name": "sender",
          "type": "address",
          "internalType": "address"
        }
      ]
    },
    {
      "type": "error",
      "name": "InvalidRouter",
      "inputs": [
        {
          "name": "router",
          "type": "address",
          "internalType": "address"
        }
      ]
    },
    {
      "type": "error",
      "name": "OwnableInvalidOwner",
      "inputs": [
        {
          "name": "owner",
          "type": "address",
          "internalType": "address"
        }
      ]
    },
    {
      "type": "error",
      "name": "OwnableUnauthorizedAccount",
      "inputs": [
        {
          "name": "account",
          "type": "address",
          "internalType": "address"
        }
      ]
    },
    {
      "type": "error",
      "name": "ReentrancyGuardReentrantCall",
      "inputs": []
    }
  ],
  "bytecode": {
    "object": "0x60e0346200024657601f62005b6c38819003918201601f19168301916001600160401b038311848410176200024a5780849260a09460405283398101031262000246576200004d816200025e565b906200005c602082016200025e565b916200006b604083016200025e565b9062000088608062000080606086016200025e565b94016200025e565b9260018060a01b03918281169586156200022e57839160c052169283156200021657600480546001600160a01b031980821687179092556040519791958593929184167f8be0079c531659141344cd1fd0a4f28419497f9722a3daafe3b4186f6b6457e05f80a36001600555608052168360015416176001551690600254161760025560a0526158f8908162000274823960805181818161168e015281816116f70152818161177d01528181611fac015281816123d5015281816129dc0152818161332b015281816138af01528181613c0a0152615070015260a05181818161114d01528181611200015281816113d0015281816114ec015281816117f20152818161189401528181611a0e01528181611a7e01528181611ac401528181611b5c01528181611c4801528181611cd801528181611dd401528181611e9f01528181611ff30152818161208401528181612196015281816122a4015281816124650152818161269101528181612d8b015281816136e301526153b3015260c05181818161098a0152610e8a0152f35b604051631e4fbdf760e01b81525f6004820152602490fd5b6040516335fdcccd60e21b81525f6004820152602490fd5b5f80fd5b634e487b7160e01b5f52604160045260245ffd5b51906001600160a01b0382168203620002465756fe6080806040526004361015610012575f80fd5b5f905f3560e01c90816301ffc9a714613cbb5750806310488413146106695780631179680f146139b2578063150b7a0214613925578063232df00d146137075780632c406d441461369957806338c723531461343757806341b8b269146133f05780634fdb1ace1461339f57806357c9cafb1461334f578063581bdd16146132e15780635caffcd6146131e957806362cd6c9014612d05578063715018a614612c675780637725135b14612c155780637a8042bd14612a8d5780637b0ef209146125a557806385572ffb14610e055780638da5cb5b14610db3578063a0da12a514610d75578063a700a39c14610d39578063aa7ab1ab14610a2b578063aaf5eb68146109ea578063ab895eb8146109ae578063b0f479a11461093f578063b1a778ab146106d6578063b95ff2061461066e578063ddf36e2314610669578063ef74cd7614610377578063f2fde38b146102945763f9eafa7014610173575f80fd5b346102915760207ffffffffffffffffffffffffffffffffffffffffffffffffffffffffffffffffc360112610291576004356101ad6142ed565b8015610267576001546040517f23b872dd000000000000000000000000000000000000000000000000000000008152336004820152306024820152604481019290925260209082906064908290869073ffffffffffffffffffffffffffffffffffffffff165af1801561025c57610222575080f35b6020813d602011610254575b8161023b60209383613fe9565b810103126102505761024c906143d5565b5080f35b5080fd5b3d915061022e565b6040513d84823e3d90fd5b60046040517fd8287905000000000000000000000000000000000000000000000000000000008152fd5b80fd5b50346102915760207ffffffffffffffffffffffffffffffffffffffffffffffffffffffffffffffffc360112610291576102cc613e0f565b6102d46142ed565b73ffffffffffffffffffffffffffffffffffffffff80911690811561034657600454827fffffffffffffffffffffffff0000000000000000000000000000000000000000821617600455167f8be0079c531659141344cd1fd0a4f28419497f9722a3daafe3b4186f6b6457e05f80a380f35b602483604051907f1e4fbdf70000000000000000000000000000000000000000000000000000000082526004820152fd5b503461029157610120807ffffffffffffffffffffffffffffffffffffffffffffffffffffffffffffffffc360112610250576103b1613db2565b60a07fffffffffffffffffffffffffffffffffffffffffffffffffffffffffffffffdc3601126106655767ffffffffffffffff60c435818111610661576103fc903690600401613e99565b936101043583811161065d57610416903690600401613e99565b91909373ffffffffffffffffffffffffffffffffffffffff9687895416895260ff604060209a60038c52205416156106335760643594851561026757604051906024358a811680910361062f578b8301526044359788604084015260608881850152608435608085015260a4359486861680960361062f576105976040988f958f9361051e61058b977f5761d3c5b5fbf459631cf1b4ff7e51d2013d8de7edc5ff126526262bf3478a089e6104e561052a958d9561060d9f60a0880152610100988960c08901528701916141e9565b9160e43560e08601527fffffffffffffffffffffffffffffffffffffffffffffffffffffffffffffffe0968786850301908601526141e9565b03828101895288613fe9565b89519261053684613f95565b5f84528460808c5161054781613f5d565b828152828a820152828e8201525f8382015201525f5416968a51978789015286885261057288613f79565b8a519586916001898401528c80840152868301906147f0565b03908101855284613fe9565b8c60015416928851946105a986613f95565b620927c086528951957f97a657c90000000000000000000000000000000000000000000000000000000082880152516024870152602486526105ea86613fb1565b8951966105f688613f5d565b875286015287850152830152608082015287615058565b96879461061861414e565b9084519788528a88015216951693a4604051908152f35b5f80fd5b60046040517f4836199a000000000000000000000000000000000000000000000000000000008152fd5b8680fd5b8480fd5b8280fd5b613d77565b50346102915760207ffffffffffffffffffffffffffffffffffffffffffffffffffffffffffffffffc3601126102915760ff604060209273ffffffffffffffffffffffffffffffffffffffff6106c2613e0f565b168152600384522054166040519015158152f35b50346102915760c07ffffffffffffffffffffffffffffffffffffffffffffffffffffffffffffffffc3601126102915761070e613db2565b60807fffffffffffffffffffffffffffffffffffffffffffffffffffffffffffffffdc3601126102505767ffffffffffffffff9060a43582811161093b5761075a903690600401613e99565b73ffffffffffffffffffffffffffffffffffffffff9081865416865260ff60406020976003895220541615610633576040519060243583811680910361062f578783015260443593846040840152606092606435848201526084359188831680930361062f577fd6040e24e094f8dd2461f146e1a24805ab644cde60f103bf02c04c8b5d07e1ed948261080561058b938d9761091d97608085015260a08085015260c08401916141e9565b03906108377fffffffffffffffffffffffffffffffffffffffffffffffffffffffffffffffe092838101865285613fe9565b6108a26040519261084784613f95565b5f845282608060405161085981613f5d565b828152828b8201528260408201525f838201520152895f541695604051968988015288875261088787613f79565b60405195869160038b840152604080840152858301906147f0565b876001541691604051936108b585613f95565b620927c08552604051947f97a657c90000000000000000000000000000000000000000000000000000000089870152516024860152602485526108f785613fb1565b6040519561090487613f5d565b8652878601526040850152830152608082015286615058565b95869361092861414e565b60405196875216951693a4604051908152f35b8380fd5b503461029157807ffffffffffffffffffffffffffffffffffffffffffffffffffffffffffffffffc36011261029157602060405173ffffffffffffffffffffffffffffffffffffffff7f0000000000000000000000000000000000000000000000000000000000000000168152f35b503461029157807ffffffffffffffffffffffffffffffffffffffffffffffffffffffffffffffffc360112610291576020604051620927c08152f35b503461029157807ffffffffffffffffffffffffffffffffffffffffffffffffffffffffffffffffc360112610291576020604051670de0b6b3a76400008152f35b50346102915760a07ffffffffffffffffffffffffffffffffffffffffffffffffffffffffffffffffc36011261029157610a63613db2565b9060243567ffffffffffffffff928382116106655736602383011215610665578160040135928484116102915760248301926024369160a087020101116102915760443585811161025057610abc903690600401613dde565b9160643587811161025057610ad5903690600401613dde565b909260843598891161066557610af16003993690600401613dde565b60ff604073ffffffffffffffffffffffffffffffffffffffff9687815416815260209d8e522054161561063357868a14801590610d2f575b8015610d25575b610cfb5760405160808c820152958693610b4e60a086018d8d6140c2565b7fffffffffffffffffffffffffffffffffffffffffffffffffffffffffffffffe0998a878303016040880152610b8392614227565b606095898683030187870152610b98926141ac565b9087848303016080850152610bac92614227565b038481018452610bbc9084613fe9565b60405191610bc983613f95565b5f835281604051610bd981613f5d565b818152818b8201528160408201528181015f905260800152805f541694604051958a870152898652610c0a86613f79565b60405180958b8201600790526040820160409052848201610c2a916147f0565b039081018552610c3a9085613fe9565b600154169160405193610c4c85613f95565b620927c08552604051948a86017f97a657c900000000000000000000000000000000000000000000000000000000905251602486015260248552610c8f85613fb1565b60405195610c9c87613f5d565b86528986015260408501528301526080820152610cb891615058565b9160405191829185835285830190610ccf926140c2565b037fa372371a2ece9b022744cfcc0877b9fd6002ceb224dbe1e13f5f2662ad560e2191a1604051908152f35b60046040517fed9f42b0000000000000000000000000000000000000000000000000000000008152fd5b50808a1415610b30565b50838a1415610b29565b503461029157807ffffffffffffffffffffffffffffffffffffffffffffffffffffffffffffffffc360112610291576020604051622dc6c08152f35b503461029157807ffffffffffffffffffffffffffffffffffffffffffffffffffffffffffffffffc3601126102915760206040516402540be4008152f35b503461029157807ffffffffffffffffffffffffffffffffffffffffffffffffffffffffffffffffc36011261029157602073ffffffffffffffffffffffffffffffffffffffff60045416604051908152f35b50346102915760207ffffffffffffffffffffffffffffffffffffffffffffffffffffffffffffffffc3601126102915760043567ffffffffffffffff81116102505760a07ffffffffffffffffffffffffffffffffffffffffffffffffffffffffffffffffc82360301126102505773ffffffffffffffffffffffffffffffffffffffff7f00000000000000000000000000000000000000000000000000000000000000001633036125755760405190610ebd82613f5d565b80600401358252610ed060248201613dc9565b6020830152604481013567ffffffffffffffff811161093b57610ef99060043691840101614064565b6040830152606481013567ffffffffffffffff811161093b57610f229060043691840101614064565b606083015260848101359067ffffffffffffffff821161093b5736602383830101121561093b5760048282010135610f59816140aa565b92610f676040519485613fe9565b81845260208401923660248460061b84840101011161065d5780820160240193915b60248460061b82840101018510612539578787876080820152604081015160208180518101031261066557610fd5602073ffffffffffffffffffffffffffffffffffffffff92016145b5565b1673ffffffffffffffffffffffffffffffffffffffff8354168103612508575060608101518051810160408282031261093b5760208201519160098310156106615760408101519167ffffffffffffffff83116115905761103d9260208092019201016145f7565b91811561233c575b6001821461210e575b60028214611f2d575b60038214611d78575b60048214611bfa575b600582146119d8575b600682146115b6575b506007811461129c575b600814611090575080f35b80518101906040816020840193031261066557602081015167ffffffffffffffff811161093b5781019180603f8401121561093b576020830151926110d4846140aa565b936110e26040519586613fe9565b8085526040602086019160071b8301019183831161065d57604001905b8282106112825750505060408201519167ffffffffffffffff83116106615761112b920160200161495a565b8151815103610cfb57829073ffffffffffffffffffffffffffffffffffffffff7f0000000000000000000000000000000000000000000000000000000000000000163b1561025057816111e691604051809381927f8742be81000000000000000000000000000000000000000000000000000000008352604060048401526111b66044840189614adc565b907ffffffffffffffffffffffffffffffffffffffffffffffffffffffffffffffffc848303016024850152614a62565b03818373ffffffffffffffffffffffffffffffffffffffff7f0000000000000000000000000000000000000000000000000000000000000000165af1801561025c5761126e575b50506112687fe3ddbf949cb7a018a68cffca747f34ef37679c4bb300c4293efe5aa4018310ff91604051918291602083526020830190614adc565b0390a180f35b61127790613f49565b61025057818361122d565b60206080916112918685614833565b8152019101906110ff565b815182019060808383031261093b5760208301519167ffffffffffffffff83116106615760208101603f84860101121561066157602083850101516112e0816140aa565b936112ee6040519586613fe9565b818552602085019060208401604060a08502838a0101011161158c5790604082880101915b604060a08502828a01010183106115945750505050604084015167ffffffffffffffff81116115905761134e9060208084019187010161495a565b90606085015167ffffffffffffffff811161065d57611375906020808401918801016148c6565b90608086015167ffffffffffffffff811161158c5760208061139b93019188010161495a565b9184518151811490811591611580575b8115611574575b50610cfb57869273ffffffffffffffffffffffffffffffffffffffff7f0000000000000000000000000000000000000000000000000000000000000000163b1561093b5783916114d2611472926114a260405196879586957f8734aa12000000000000000000000000000000000000000000000000000000008752608060048801526114428d60848901906149da565b907ffffffffffffffffffffffffffffffffffffffffffffffffffffffffffffffffc888303016024890152614a62565b907ffffffffffffffffffffffffffffffffffffffffffffffffffffffffffffffffc868303016044870152614927565b907ffffffffffffffffffffffffffffffffffffffffffffffffffffffffffffffffc848303016064850152614a62565b03818373ffffffffffffffffffffffffffffffffffffffff7f0000000000000000000000000000000000000000000000000000000000000000165af1801561025c57611560575b50507fe8b32231159ca2aeb6bd2ea21844874f9dbbf5304d06aabe82cad6cf3ca3b87b6115566008936040519182916020835260208301906149da565b0390a19050611085565b61156990613f49565b61093b578385611519565b905083511415886113b2565b835181141591506113ab565b8780fd5b8580fd5b60a08060206040946115a8828a01886147a1565b815201940193925050611313565b8251830160a084820312610661576115d0602085016145b5565b90604085015167ffffffffffffffff811161065d576115f7906020808401918801016148c6565b90606086015167ffffffffffffffff811161158c5760208061161d9301918801016148c6565b611629608087016145b5565b5060a0860151908251905103610cfb57602061166c608073ffffffffffffffffffffffffffffffffffffffff6116618289015161463c565b51511696015161463c565b51015103610267576116b473ffffffffffffffffffffffffffffffffffffffff7f00000000000000000000000000000000000000000000000000000000000000001684614dd2565b6040517fdd62ed3e00000000000000000000000000000000000000000000000000000000815230600482015273ffffffffffffffffffffffffffffffffffffffff7f0000000000000000000000000000000000000000000000000000000000000000166024820152602081604481875afa9081156119cd575f9161199b575b506119175785906117db6040517f095ea7b300000000000000000000000000000000000000000000000000000000602082015273ffffffffffffffffffffffffffffffffffffffff7f00000000000000000000000000000000000000000000000000000000000000001660248201527fffffffffffffffffffffffffffffffffffffffffffffffffffffffffffffffff6044820152604481526117d581613fcd565b856156b8565b73ffffffffffffffffffffffffffffffffffffffff7f0000000000000000000000000000000000000000000000000000000000000000163b15610250578161187491604051809381927f3dda355800000000000000000000000000000000000000000000000000000000835273ffffffffffffffffffffffffffffffffffffffff88166004840152606060248401526064830190614927565b87604483015203818373ffffffffffffffffffffffffffffffffffffffff7f0000000000000000000000000000000000000000000000000000000000000000165af1801561025c57611903575b505073ffffffffffffffffffffffffffffffffffffffff167f98d64dcf31d860b89de519aee807342854eca9a1a02df1042f850509fdd493ad8580a38361107b565b61190c90613f49565b6106615784866118c1565b60846040517f08c379a000000000000000000000000000000000000000000000000000000000815260206004820152603660248201527f5361666545524332303a20617070726f76652066726f6d206e6f6e2d7a65726f60448201527f20746f206e6f6e2d7a65726f20616c6c6f77616e6365000000000000000000006064820152fd5b90506020813d6020116119c5575b816119b660209383613fe9565b8101031261062f575187611733565b3d91506119a9565b6040513d5f823e3d90fd5b60408380518101031261093b576119f1602084016145b5565b60408401519073ffffffffffffffffffffffffffffffffffffffff7f0000000000000000000000000000000000000000000000000000000000000000163b1561159057856040517fdd2e0ac000000000000000000000000000000000000000000000000000000000815283600482015281816024818373ffffffffffffffffffffffffffffffffffffffff7f0000000000000000000000000000000000000000000000000000000000000000165af1801561025c57611be6575b505073ffffffffffffffffffffffffffffffffffffffff7f0000000000000000000000000000000000000000000000000000000000000000163b15611590576040517f42842e0e00000000000000000000000000000000000000000000000000000000815230600482015273ffffffffffffffffffffffffffffffffffffffff821660248201526044810183905286908181806064810103818373ffffffffffffffffffffffffffffffffffffffff7f0000000000000000000000000000000000000000000000000000000000000000165af1801561025c57611bd2575b5050602073ffffffffffffffffffffffffffffffffffffffff7fa0269577557e44b1e484388711aaee9dcfdebb716a88654f37c4c8388bc08739926040519485521692a2611072565b611bdb90613f49565b611590578587611b89565b611bef90613f49565b611590578587611aab565b825183016102e08482031261066157611c15602085016145b5565b611c2a602060408701519301606087016143e2565b6102e08601519073ffffffffffffffffffffffffffffffffffffffff7f0000000000000000000000000000000000000000000000000000000000000000163b1561158c57876040517fa462cd49000000000000000000000000000000000000000000000000000000008152818180611cbe87878b73ffffffffffffffffffffffffffffffffffffffff8c1660048601614889565b03818373ffffffffffffffffffffffffffffffffffffffff7f0000000000000000000000000000000000000000000000000000000000000000165af1801561025c57611d64575b50507f7f3ef432bb1e77a701484dc68486dd0b262c06596baea7f6804d6894c388eaad926102c092611d5673ffffffffffffffffffffffffffffffffffffffff936040519788526020880190614676565b6102a08601521692a2611069565b611d6d90613f49565b61158c578789611d05565b8251830160a0848203126106615784611d976020830160208701614833565b9160a086015167ffffffffffffffff811161066557602080611dbd9301918801016145f7565b73ffffffffffffffffffffffffffffffffffffffff7f0000000000000000000000000000000000000000000000000000000000000000163b156102505781611e8591604051809381927f7dd98451000000000000000000000000000000000000000000000000000000008352611e74600484018967ffffffffffffffff6060809273ffffffffffffffffffffffffffffffffffffffff81511685526020810151602086015260408101516040860152015116910152565b60a0608484015260a48301906147f0565b03818373ffffffffffffffffffffffffffffffffffffffff7f0000000000000000000000000000000000000000000000000000000000000000165af1801561025c57611f19575b50507ffd29d40736f7e30e737c49f0da6edb357095e0117291cd63e251ef8b2a5cd57360208073ffffffffffffffffffffffffffffffffffffffff845116930151604051908152a2611060565b611f2290613f49565b610661578486611ecc565b60808380518101031261093b57611f46602084016145b5565b604084015190611f58606086016145b5565b50856020611f69608086015161463c565b510151611fdc73ffffffffffffffffffffffffffffffffffffffff611f91608088015161463c565b5151169173ffffffffffffffffffffffffffffffffffffffff7f000000000000000000000000000000000000000000000000000000000000000016611fd68185614dd2565b83614e2f565b73ffffffffffffffffffffffffffffffffffffffff7f0000000000000000000000000000000000000000000000000000000000000000163b1561025057604051907f692bf4a800000000000000000000000000000000000000000000000000000000825273ffffffffffffffffffffffffffffffffffffffff84166004830152846024830152604482015281816064818373ffffffffffffffffffffffffffffffffffffffff7f0000000000000000000000000000000000000000000000000000000000000000165af1801561025c576120fa575b5050602073ffffffffffffffffffffffffffffffffffffffff7f4b425220000394679f443a7312a5351c5b75afe298ef4ffad4f7d6f6b33e295a926040519485521692a2611057565b61210390613f49565b6115905785876120b1565b825183018484602083019261010091829103126102505761213283602088016147a1565b9260c087015167ffffffffffffffff811161093b57816020612156928a01016145f7565b60e088015191838901519067ffffffffffffffff821161159057602061217e928b01016145f7565b9273ffffffffffffffffffffffffffffffffffffffff7f0000000000000000000000000000000000000000000000000000000000000000163b156106615761228a85936122559560405196879586957f24e79fc2000000000000000000000000000000000000000000000000000000008752612245600488018d67ffffffffffffffff6080809273ffffffffffffffffffffffffffffffffffffffff8151168552602081015160208601526040810151604086015260608101516060860152015116910152565b60a48701526101048601906147f0565b9160c48501527ffffffffffffffffffffffffffffffffffffffffffffffffffffffffffffffffc8483030160e48501526147f0565b03818373ffffffffffffffffffffffffffffffffffffffff7f0000000000000000000000000000000000000000000000000000000000000000165af1801561025c57612328575b50507f95b55f38d05a2c5664b9788437177cc4cd38ad59294ccd15d9527664355380ec604073ffffffffffffffffffffffffffffffffffffffff8351169281602082015191015182519182526020820152a261104e565b61233190613f49565b6106615784866122d1565b825183016102c08482031261066157612366602061235b8187016145b5565b9201604086016143e2565b73ffffffffffffffffffffffffffffffffffffffff6102c086015192169173ffffffffffffffffffffffffffffffffffffffff6123a6608086015161463c565b5151166123ff60206123bb608088015161463c565b51015173ffffffffffffffffffffffffffffffffffffffff7f000000000000000000000000000000000000000000000000000000000000000016611fd68185614dd2565b604051907f2c33b9d90000000000000000000000000000000000000000000000000000000082528460048301526124396024830185614676565b826102a48301526102c48201526020816102e4818b73ffffffffffffffffffffffffffffffffffffffff7f0000000000000000000000000000000000000000000000000000000000000000165af180156124fd576124d2575b507f1d2662fa144aac97b5af0577237e997d47a91ebcc35ddbbd495282ed122af39a916102a0916124c66040518093614676565b610280820152a2611045565b602090813d83116124f6575b6124e88183613fe9565b8101031261062f5787612492565b503d6124de565b6040513d8a823e3d90fd5b602490604051907f3319937b0000000000000000000000000000000000000000000000000000000082526004820152fd5b60408536031261158c5760406020602494825161255581613f79565b61255e89613e78565b815282890135838201528152019501949250610f89565b60246040517fd7f73334000000000000000000000000000000000000000000000000000000008152336004820152fd5b506103007ffffffffffffffffffffffffffffffffffffffffffffffffffffffffffffffffc360112610291576125d9613db2565b6125e1613e32565b9161028091827fffffffffffffffffffffffffffffffffffffffffffffffffffffffffffffffbc360112610250576102c435906102e43573ffffffffffffffffffffffffffffffffffffffff908181169586820361062f578286541686526020976003895260ff9687604082205416156106335761265d614171565b8615610267576040517fa7f93ebd0000000000000000000000000000000000000000000000000000000081528a81600481897f0000000000000000000000000000000000000000000000000000000000000000165afa918215612a8157908892612a4e575b506126d6916126d091614575565b8461535e565b926126e1848a614b5a565b6126ed8430338c614cdd565b84604051921697888b84015260443581811680910361062f5760408401526064359381851680950361062f576060948585015260843582811680910361062f57608085015260a43582811680910361062f5760a085015260c43582811680910361062f5760c085015260e43582811680910361062f5760e08501526101043582811680910361062f576101008501526101243582811680910361062f576101208501526101443582811680910361062f576101408501526101643582811680910361062f576101608501526101843582811680910361062f576101808501526101a43582811680910361062f576101a08501526101c43582811680910361062f576101c08501526101e43582811680910361062f576101e08501526102043582811680910361062f576102008501526102243580151580910361062f576102208501526102443582811680910361062f576102408501526102643580151580910361062f576102608501526102843591821680920361062f578301526102a43580151580910361062f576102a08301526102c0878184015282526102e082019367ffffffffffffffff998386108b871117612a21577fd0b8c5ed1d955fe287fda914e47fa0bc1188c054366fdc1cb9c665c10c9d9cf9965f612a08966128dc8f99612a02978791604052614d47565b908060806040516128ec81613f5d565b828152828d820152826040820152858382015201526129658a612939868654169a6040519b838d0152828c526129218c613f79565b604051968793840152604080840152848301906147f0565b037fffffffffffffffffffffffffffffffffffffffffffffffffffffffffffffffe08101855284613fe9565b8360015416916040519361297885613f95565b622dc6c08552604051947f97a657c9000000000000000000000000000000000000000000000000000000008d870152516024860152602485526129ba85613fb1565b604051996129c78b613f5d565b8a528b8a0152604089015287015260808601527f00000000000000000000000000000000000000000000000000000000000000001690614e2f565b84615058565b9586936040519586521693a46001600555604051908152f35b7f4e487b71000000000000000000000000000000000000000000000000000000005f52604160045260245ffd5b8092508b8092503d8311612a7a575b612a678183613fe9565b8101031261062f575186906126d66126c2565b503d612a5d565b604051903d90823e3d90fd5b5034610291576020807ffffffffffffffffffffffffffffffffffffffffffffffffffffffffffffffffc3601126102505760043590612aca6142ed565b81156102675773ffffffffffffffffffffffffffffffffffffffff60015416916040517f70a082310000000000000000000000000000000000000000000000000000000081523060048201528281602481875afa908115612c0a578591612bdd575b50808211612bac57506040517fa9059cbb00000000000000000000000000000000000000000000000000000000928101929092523360248301526044820152612ba991612ba482606481015b037fffffffffffffffffffffffffffffffffffffffffffffffffffffffffffffffe08101845283613fe9565b6156b8565b80f35b602490604051907f1116d9ef0000000000000000000000000000000000000000000000000000000082526004820152fd5b90508281813d8311612c03575b612bf48183613fe9565b8101031261062f57515f612b2c565b503d612bea565b6040513d87823e3d90fd5b503461029157807ffffffffffffffffffffffffffffffffffffffffffffffffffffffffffffffffc36011261029157602073ffffffffffffffffffffffffffffffffffffffff60015416604051908152f35b503461029157807ffffffffffffffffffffffffffffffffffffffffffffffffffffffffffffffffc36011261029157612c9e6142ed565b5f73ffffffffffffffffffffffffffffffffffffffff6004547fffffffffffffffffffffffff00000000000000000000000000000000000000008116600455167f8be0079c531659141344cd1fd0a4f28419497f9722a3daafe3b4186f6b6457e08280a380f35b503461062f576060807ffffffffffffffffffffffffffffffffffffffffffffffffffffffffffffffffc36011261062f57612d3e613db2565b91602492833590612d4d613e55565b9273ffffffffffffffffffffffffffffffffffffffff90815f54165f526020956003875260ff60405f205416156106335782861695861561063357837f000000000000000000000000000000000000000000000000000000000000000016604051937f7e4d03d80000000000000000000000000000000000000000000000000000000085528760048601526102809485818d81865afa9586156119cd575f966131af575b5050813b1561062f576040517f42842e0e000000000000000000000000000000000000000000000000000000008152336004820152306024820152604481018990525f8160648183875af180156119cd5761319e575b50604051917f5b16d9680000000000000000000000000000000000000000000000000000000083528860048401528a838d81845afa92831561025c57829361316f575b504683036130cd57803b15610250578180918d8b60405194859384927f80f2036300000000000000000000000000000000000000000000000000000000845260048401525af1801561025c57908b92916130b5575b5050612ef9612f25926004968a6040519687958601614889565b037fffffffffffffffffffffffffffffffffffffffffffffffffffffffffffffffe08101835282613fe9565b925b60405190612f3482613f95565b5f8252826080604051612f4681613f5d565b828152828c8201528260408201525f838201520152805f541694604051958a870152898652612f7486613f79565b60405194600981101561308957937f95519b111edaffd68641c56e5ffce32883ef4bfbb37da2156501c7eff4b309f996938b9c93612ffe88612fd267ffffffffffffffff9f9a966130759a8c840152604080840152868301906147f0565b037fffffffffffffffffffffffffffffffffffffffffffffffffffffffffffffffe08101865285613fe9565b60015416926040519461301086613f95565b6207a1208652604051957f97a657c9000000000000000000000000000000000000000000000000000000008a8801525181870152855261304f85613fb1565b6040519561305c87613f5d565b8652878601526040850152830152608082015284615058565b9586936040519586521693a4604051908152f35b8b7f4e487b71000000000000000000000000000000000000000000000000000000005f5260216004525ffd5b8192506130c190613f49565b61029157808a91612edf565b9150919350803b15610250578180918b604051809481937f7b47ec1a0000000000000000000000000000000000000000000000000000000083528c60048401525af1801561025c5761315b575b50506040805173ffffffffffffffffffffffffffffffffffffffff909316888401908152602081018790526005939161315591839101612ef9565b92612f27565b6131658291613f49565b610291578061311a565b9092508a81813d8311613197575b6131878183613fe9565b8101031261062f5751915f612e8a565b503d61317d565b6131a89150613f49565b5f80612e47565b80919296503d82116131e2575b6131c68184613fe9565b8201908282031261062f576131da916143e2565b935f80612df1565b503d6131bc565b3461062f5760407ffffffffffffffffffffffffffffffffffffffffffffffffffffffffffffffffc36011261062f57613220613e0f565b6024359081151580920361062f5773ffffffffffffffffffffffffffffffffffffffff9061324c6142ed565b1690811561063357816020917fa54ce142349af8e389fe00f37d69e79664a287b29c8e325917962e92e4fe5fcd937fffffffffffffffffffffffff00000000000000000000000000000000000000005f5416175f55815f526003835260405f209060ff7fffffffffffffffffffffffffffffffffffffffffffffffffffffffffffffff008354169116179055604051908152a1005b3461062f575f7ffffffffffffffffffffffffffffffffffffffffffffffffffffffffffffffffc36011261062f57602060405173ffffffffffffffffffffffffffffffffffffffff7f0000000000000000000000000000000000000000000000000000000000000000168152f35b3461062f575f7ffffffffffffffffffffffffffffffffffffffffffffffffffffffffffffffffc36011261062f57602073ffffffffffffffffffffffffffffffffffffffff5f5416604051908152f35b3461062f575f7ffffffffffffffffffffffffffffffffffffffffffffffffffffffffffffffffc36011261062f57602073ffffffffffffffffffffffffffffffffffffffff60025416604051908152f35b3461062f575f7ffffffffffffffffffffffffffffffffffffffffffffffffffffffffffffffffc36011261062f57602067ffffffffffffffff5f5460a01c16604051908152f35b3461062f576060807ffffffffffffffffffffffffffffffffffffffffffffffffffffffffffffffffc36011261062f5761346f613db2565b9067ffffffffffffffff9060243582811161062f573660238201121561062f5780600401359280841161062f576024820191602436918660071b01011161062f5760443590811161062f576134c8903690600401613dde565b73ffffffffffffffffffffffffffffffffffffffff95919591825f541691825f526020976003895260ff60405f2054161561063357818803610cfb577fc40f92ba5e837dc6a178798dc7c78f3936420be612221197dbaf149ed3a59f7996613678956135ff60409361358f8d6135836008988f8e613551918b519b8c968701528a860191613ec7565b907fffffffffffffffffffffffffffffffffffffffffffffffffffffffffffffffe09586858403016040860152614227565b03828101875286613fe9565b8c6135f3604051966135a088613f95565b5f88528660806040516135b281613f5d565b82815282868201528260408201525f8382015201526040519a838c0152828b526135db8b613f79565b604051988993840152604080840152868301906147f0565b03908101865285613fe9565b60015416916040519361361185613f95565b620927c08552604051947f97a657c9000000000000000000000000000000000000000000000000000000008d8701525160248601526024855261365385613fb1565b6040519661366088613f5d565b87528b87015260408601528401526080830152615058565b9261368e60405192839287845287840191613ec7565b0390a1604051908152f35b3461062f575f7ffffffffffffffffffffffffffffffffffffffffffffffffffffffffffffffffc36011261062f57602060405173ffffffffffffffffffffffffffffffffffffffff7f0000000000000000000000000000000000000000000000000000000000000000168152f35b3461062f5760807ffffffffffffffffffffffffffffffffffffffffffffffffffffffffffffffffc36011261062f5761373e613db2565b602435613749613e55565b916064359173ffffffffffffffffffffffffffffffffffffffff805f54165f526020946003865260ff60405f20541615610633576138d5856138db9361378d614171565b8084169061379b8383614b5a565b6137a783303385614cdd565b896129396040519633838901528960408901526137de8660609281848c01528760808c015260808b526137d98b613f5d565b614d47565b8160806040516137ed81613f5d565b82815282878201528260408201525f838201520152613839855f5416996040519a868c0152858b5261381e8b613f79565b604051948591600288840152604080840152858301906147f0565b8460015416926040519461384c86613f95565b6207a1208652604051957f97a657c900000000000000000000000000000000000000000000000000000000828801525160248701526024865261388e86613fb1565b6040519a61389b8c613f5d565b8b528a0152604089015287015260808601527f00000000000000000000000000000000000000000000000000000000000000001690614e2f565b83615058565b9260405191825284820152827f80e9f53f7f7f7b19c2b2adb19df0805d08493490b6d67b4ff8d2d9920fdbf1d3604067ffffffffffffffff33951693a46001600555604051908152f35b3461062f5760807ffffffffffffffffffffffffffffffffffffffffffffffffffffffffffffffffc36011261062f5761395c613e0f565b50613965613e32565b5060643567ffffffffffffffff811161062f57613986903690600401613e99565b505060206040517f150b7a02000000000000000000000000000000000000000000000000000000008152f35b3461062f5760807ffffffffffffffffffffffffffffffffffffffffffffffffffffffffffffffffc36011261062f576139e9613db2565b60249067ffffffffffffffff90823582811161062f57613a0d903690600401613dde565b939060443584811161062f57613a27903690600401613dde565b6064939193359273ffffffffffffffffffffffffffffffffffffffff918285169485810361062f57835f54165f5260209960038b5260ff60405f2054161561063357613a71614171565b828103610cfb578015610267575f955f905b848210613c735750508590613a988289614b5a565b613aa48230338b614cdd565b6040519485918d33908401526040830160a0905260c0830190613ac6926141ac565b987fffffffffffffffffffffffffffffffffffffffffffffffffffffffffffffffe0996060958b8483030187850152613afe926141ac565b8860808301528260a0830152038881018552613b1a9085613fe9565b613b2391614d47565b9080604051613b3181613f5d565b818152818c8201528160408201528181015f905260800152835f541696604051978b8901528a8852613b6288613f79565b60405180948c8201600690526040820160409052838201613b82916147f0565b039081018452613b929084613fe9565b83600154169160405193613ba585613f95565b6207a1208552604051948c86017f97a657c900000000000000000000000000000000000000000000000000000000905251602486015260248552613be885613fb1565b60405198613bf58a613f5d565b89528b890152604088015286015260808501527f000000000000000000000000000000000000000000000000000000000000000016613c3392614e2f565b613c3d9082615058565b9060405192339116827fc3cfbc41fdf2854a8b8598251acff98cb7e98fba5428a216647848b5f8d1c0af5f80a460016005558152f35b90968760051b8a01358101809111613c8f579660010190613a83565b507f4e487b71000000000000000000000000000000000000000000000000000000005f5260116004525ffd5b3461062f5760207ffffffffffffffffffffffffffffffffffffffffffffffffffffffffffffffffc36011261062f57600435907fffffffff00000000000000000000000000000000000000000000000000000000821680920361062f57817f85572ffb0000000000000000000000000000000000000000000000000000000060209314908115613d4d575b5015158152f35b7f01ffc9a70000000000000000000000000000000000000000000000000000000091501483613d46565b3461062f575f7ffffffffffffffffffffffffffffffffffffffffffffffffffffffffffffffffc36011261062f5760206040516207a1208152f35b6004359067ffffffffffffffff8216820361062f57565b359067ffffffffffffffff8216820361062f57565b9181601f8401121561062f5782359167ffffffffffffffff831161062f576020808501948460051b01011161062f57565b6004359073ffffffffffffffffffffffffffffffffffffffff8216820361062f57565b6024359073ffffffffffffffffffffffffffffffffffffffff8216820361062f57565b6044359073ffffffffffffffffffffffffffffffffffffffff8216820361062f57565b359073ffffffffffffffffffffffffffffffffffffffff8216820361062f57565b9181601f8401121561062f5782359167ffffffffffffffff831161062f576020838186019501011161062f57565b9190808252602080920192915f905b828210613ee4575050505090565b9091929360019073ffffffffffffffffffffffffffffffffffffffff613f0987613e78565b168152828601358382015260408087013590820152606067ffffffffffffffff613f34828901613dc9565b16908201526080908101950193920190613ed6565b67ffffffffffffffff8111612a2157604052565b60a0810190811067ffffffffffffffff821117612a2157604052565b6040810190811067ffffffffffffffff821117612a2157604052565b6020810190811067ffffffffffffffff821117612a2157604052565b6060810190811067ffffffffffffffff821117612a2157604052565b6080810190811067ffffffffffffffff821117612a2157604052565b90601f7fffffffffffffffffffffffffffffffffffffffffffffffffffffffffffffffe0910116810190811067ffffffffffffffff821117612a2157604052565b67ffffffffffffffff8111612a2157601f017fffffffffffffffffffffffffffffffffffffffffffffffffffffffffffffffe01660200190565b81601f8201121561062f5780359061407b8261402a565b926140896040519485613fe9565b8284526020838301011161062f57815f926020809301838601378301015290565b67ffffffffffffffff8111612a215760051b60200190565b9190808252602080920192915f905b8282106140df575050505090565b9091929360019073ffffffffffffffffffffffffffffffffffffffff61410487613e78565b16815282860135838201526040808701359082015260608087013590820152608067ffffffffffffffff614139828901613dc9565b169082015260a09081019501939201906140d1565b60243573ffffffffffffffffffffffffffffffffffffffff8116810361062f5790565b600260055414614182576002600555565b60046040517f3ee5aeb5000000000000000000000000000000000000000000000000000000008152fd5b90918281527f07ffffffffffffffffffffffffffffffffffffffffffffffffffffffffffffff831161062f5760209260051b809284830137010190565b601f82602094937fffffffffffffffffffffffffffffffffffffffffffffffffffffffffffffffe093818652868601375f8582860101520116010190565b908281815260208091019360208360051b82010194845f925b858410614251575050505050505090565b909192939495967fffffffffffffffffffffffffffffffffffffffffffffffffffffffffffffffe082820301845287357fffffffffffffffffffffffffffffffffffffffffffffffffffffffffffffffe18436030181121561062f57830186810191903567ffffffffffffffff811161062f57803603831361062f576142dc889283926001956141e9565b990194019401929594939190614240565b73ffffffffffffffffffffffffffffffffffffffff60045416330361430e57565b60246040517f118cdaa7000000000000000000000000000000000000000000000000000000008152336004820152fd5b519060ff8216820361062f57565b919082604091031261062f5760405161436481613f79565b602061437d8183956143758161433e565b85520161433e565b910152565b919082606091031261062f576040516060810181811067ffffffffffffffff821117612a2157604052604061437d8183956143bc8161433e565b85526143ca6020820161433e565b60208601520161433e565b5190811515820361062f57565b91909180830390610280821261062f5760409182519060c0820182811067ffffffffffffffff821117612a21578452819561441d818561434c565b835261442b8186860161434c565b602084015261443d8160808601614382565b8584015260a07fffffffffffffffffffffffffffffffffffffffffffffffffffffffffffffff2083011261062f5760a0916145027ffffffffffffffffffffffffffffffffffffffffffffffffffffffffffffffe2092875161449e81613f5d565b6144aa60e0890161433e565b81526144b9610100890161433e565b60208201526144cb610120890161433e565b898201526144dc610140890161433e565b60608201526144ee610160890161433e565b608082015260608701526101808701614382565b6080850152011261062f5761456c61026060a09385519561452287613f5d565b61452f6101e083016143d5565b875261453e610200830161433e565b602088015261455061022083016143d5565b90870152614561610240820161433e565b6060870152016143d5565b60808401520152565b8181029291811591840414171561458857565b7f4e487b71000000000000000000000000000000000000000000000000000000005f52601160045260245ffd5b519073ffffffffffffffffffffffffffffffffffffffff8216820361062f57565b5f5b8381106145e75750505f910152565b81810151838201526020016145d8565b81601f8201121561062f57805161460d8161402a565b9261461b6040519485613fe9565b8184526020828401011161062f5761463991602080850191016145d6565b90565b8051156146495760200190565b7f4e487b71000000000000000000000000000000000000000000000000000000005f52603260045260245ffd5b60808060a06102609361469986825160ff60208092828151168552015116910152565b602081810151805160ff90811660408a01529101511660608701526146e060408201518488019060ff60408092828151168552826020820151166020860152015116910152565b606081015160ff9381858093511660e08a0152826020820151166101008a0152826040820151166101208a0152826060820151166101408a01520151166101608701526147508482015161018088019060ff60408092828151168552826020820151166020860152015116910152565b015190815115156101e0860152806020830151166102008601526040820151151561022086015260608201511661024085015201511515910152565b519067ffffffffffffffff8216820361062f57565b91908260a091031261062f576040516147b981613f5d565b608061437d8183956147ca816145b5565b85526020810151602086015260408101516040860152606081015160608601520161478c565b907fffffffffffffffffffffffffffffffffffffffffffffffffffffffffffffffe0601f60209361482c815180928187528780880191016145d6565b0116010190565b919082608091031261062f576040516080810181811067ffffffffffffffff821117612a2157604052606061437d81839561486d816145b5565b855260208101516020860152604081015160408601520161478c565b909493926148c2906102c09373ffffffffffffffffffffffffffffffffffffffff6102e085019816845260208401526040830190614676565b0152565b9080601f8301121561062f578151906020916148e1816140aa565b936148ef6040519586613fe9565b81855260208086019260051b82010192831161062f57602001905b828210614918575050505090565b8151815290830190830161490a565b9081518082526020808093019301915f5b828110614946575050505090565b835185529381019392810192600101614938565b81601f8201121561062f57805191602091614974846140aa565b936149826040519586613fe9565b808552838086019160051b8301019280841161062f57848301915b8483106149ad5750505050505090565b825167ffffffffffffffff811161062f5786916149cf848480948901016145f7565b81520192019161499d565b9081518082526020808093019301915f5b8281106149f9575050505090565b909192938260a082614a56600194895167ffffffffffffffff6080809273ffffffffffffffffffffffffffffffffffffffff8151168552602081015160208601526040810151604086015260608101516060860152015116910152565b019501939291016149eb565b90808251908181526020809101926020808460051b8301019501935f915b848310614a905750505050505090565b9091929394958480614acc837fffffffffffffffffffffffffffffffffffffffffffffffffffffffffffffffe086600196030187528a516147f0565b9801930193019194939290614a80565b9081518082526020808093019301915f5b828110614afb575050505090565b9091929382608082614b4e600194895167ffffffffffffffff6060809273ffffffffffffffffffffffffffffffffffffffff81511685526020810151602086015260408101516040860152015116910152565b01950193929101614aed565b604080517fdd62ed3e00000000000000000000000000000000000000000000000000000000815233600482015230602482015290929160209173ffffffffffffffffffffffffffffffffffffffff909116908281604481855afa908115614cd3579084915f91614ca2575b5010614c7957816024918551928380927f70a082310000000000000000000000000000000000000000000000000000000082523360048301525afa918215614c6f575f92614c41575b505010614c185750565b600490517f68724d74000000000000000000000000000000000000000000000000000000008152fd5b90809250813d8311614c68575b614c588183613fe9565b8101031261062f57515f80614c0e565b503d614c4e565b84513d5f823e3d90fd5b600484517f2c283f55000000000000000000000000000000000000000000000000000000008152fd5b809250848092503d8311614ccc575b614cbb8183613fe9565b8101031261062f578390515f614bc5565b503d614cb1565b85513d5f823e3d90fd5b6040517f23b872dd00000000000000000000000000000000000000000000000000000000602082015273ffffffffffffffffffffffffffffffffffffffff92831660248201529290911660448301526064820192909252614d4591612ba48260848101612b78565b565b919060409260405191614d5983613f79565b600183525f5b602080821015614d8b57865160209291614d7882613f79565b5f82525f81830152828701015201614d5f565b5050935090614dcf91819473ffffffffffffffffffffffffffffffffffffffff60405192614db884613f79565b1682526020820152614dc98261463c565b5261463c565b50565b90614d459173ffffffffffffffffffffffffffffffffffffffff604051927f095ea7b30000000000000000000000000000000000000000000000000000000060208501521660248301525f604483015260448252612ba482613fcd565b91909181158015614ea0575b15611917576040517f095ea7b300000000000000000000000000000000000000000000000000000000602082015273ffffffffffffffffffffffffffffffffffffffff90931660248401526044830191909152614d459190612ba48260648101612b78565b506040517fdd62ed3e00000000000000000000000000000000000000000000000000000000815230600482015273ffffffffffffffffffffffffffffffffffffffff841660248201526020818060448101038173ffffffffffffffffffffffffffffffffffffffff86165afa9081156119cd575f91614f21575b5015614e3b565b90506020813d602011614f4b575b81614f3c60209383613fe9565b8101031261062f57515f614f1a565b3d9150614f2f565b9092919267ffffffffffffffff604091168252602091604083820152614f85855160a0604084015260e08301906147f0565b91614fbf84870151937fffffffffffffffffffffffffffffffffffffffffffffffffffffffffffffffc094858583030160608601526147f0565b604087015194848483030160808501528080875193848152019601925f905b83821061502257505050505060c060808673ffffffffffffffffffffffffffffffffffffffff6060614639989901511660a0850152015192828503019101526147f0565b8451805173ffffffffffffffffffffffffffffffffffffffff168952830151888401529687019693820193600190910190614fde565b73ffffffffffffffffffffffffffffffffffffffff807f0000000000000000000000000000000000000000000000000000000000000000169260409384517f20487ded0000000000000000000000000000000000000000000000000000000081526020938482806150cd878a60048401614f53565b0381865afa9182156152f5575f926152c6575b50600154169086517f70a082310000000000000000000000000000000000000000000000000000000081523060048201528581602481865afa9081156152bc575f9161528f575b50811161525f5786517f095ea7b300000000000000000000000000000000000000000000000000000000815273ffffffffffffffffffffffffffffffffffffffff841660048201526024810191909152908490829060449082905f905af1801561525557615217575b509082916151cd945f87518097819582947f96f4e9f900000000000000000000000000000000000000000000000000000000845260048401614f53565b03925af192831561520e57505f926151e457505090565b90809250813d8311615207575b6151fb8183613fe9565b8101031261062f575190565b503d6151f1565b513d5f823e3d90fd5b91908383813d831161524e575b61522e8183613fe9565b8101031261062f576151cd9461524485946143d5565b5094509091615190565b503d615224565b86513d5f823e3d90fd5b6024908751907f1116d9ef0000000000000000000000000000000000000000000000000000000082526004820152fd5b90508581813d83116152b5575b6152a68183613fe9565b8101031261062f57515f615127565b503d61529c565b88513d5f823e3d90fd5b9091508481813d83116152ee575b6152de8183613fe9565b8101031261062f5751905f6150e0565b503d6152d4565b87513d5f823e3d90fd5b519069ffffffffffffffffffff8216820361062f57565b8115615320570490565b7f4e487b71000000000000000000000000000000000000000000000000000000005f52601260045260245ffd5b60ff16604d811161458857600a0a90565b73ffffffffffffffffffffffffffffffffffffffff916040928351907f5b6cca8000000000000000000000000000000000000000000000000000000000825280600494169081858401526020928381602481857f0000000000000000000000000000000000000000000000000000000000000000165afa9081156152f5575f91615683575b5016801561565b579060a0859493928751958680927ffeaf968c0000000000000000000000000000000000000000000000000000000082525afa938415615255575f9461560d575b505f8413156155e5576402540be400938481029481860414901517156155b957908085928751938480927f313ce5670000000000000000000000000000000000000000000000000000000082525afa95861561520e57505f95615581575b5050670de0b6b3a7640000908181029181830414901517156155555760ff916154b191615316565b92166012811015615508576012039060ff82116154dc5750906154d66146399261534d565b90615316565b6011907f4e487b71000000000000000000000000000000000000000000000000000000005f525260245ffd5b6012811115615550577fffffffffffffffffffffffffffffffffffffffffffffffffffffffffffffffee019060ff82116154dc57509061554a6146399261534d565b90614575565b505090565b6011837f4e487b71000000000000000000000000000000000000000000000000000000005f525260245ffd5b9080929550813d83116155b2575b6155998183613fe9565b8101031261062f576155aa9061433e565b925f80615489565b503d61558f565b6011857f4e487b71000000000000000000000000000000000000000000000000000000005f525260245ffd5b8486517fa3019c86000000000000000000000000000000000000000000000000000000008152fd5b90935060a0813d60a011615653575b8161562960a09383613fe9565b8101031261062f5761563a816152ff565b5061564b60808383015192016152ff565b50925f61542b565b3d915061561c565b8486517f6c8b8de7000000000000000000000000000000000000000000000000000000008152fd5b90508381813d83116156b1575b61569a8183613fe9565b8101031261062f576156ab906145b5565b5f6153e3565b503d615690565b6040516157409173ffffffffffffffffffffffffffffffffffffffff166156de82613f79565b5f806020958685527f5361666545524332303a206c6f772d6c6576656c2063616c6c206661696c656487860152868151910182855af13d156157ee573d916157258361402a565b926157336040519485613fe9565b83523d5f8785013e6157f2565b80518061574c57505050565b8183918101031261062f578161576291016143d5565b1561576a5750565b608490604051907f08c379a00000000000000000000000000000000000000000000000000000000082526004820152602a60248201527f5361666545524332303a204552433230206f7065726174696f6e20646964206e60448201527f6f742073756363656564000000000000000000000000000000000000000000006064820152fd5b6060915b9192901561586d5750815115615806575090565b3b1561580f5790565b60646040517f08c379a000000000000000000000000000000000000000000000000000000000815260206004820152601d60248201527f416464726573733a2063616c6c20746f206e6f6e2d636f6e74726163740000006044820152fd5b8251909150156158805750805190602001fd5b6158be906040519182917f08c379a00000000000000000000000000000000000000000000000000000000083526020600484015260248301906147f0565b0390fdfea2646970667358221220d5baf9dcd8d6039a45eb3cbaa32c2121ee826e8db534363bbbf2f9830ef0c6c864736f6c63430008180033",
    "linkReferences": {}
  },
  "methodIdentifiers": {
    "ADDITIONAL_FEED_PRECISION()": "a0da12a5",
    "GAS_LIMIT_BUY()": "10488413",
    "GAS_LIMIT_MINT()": "a700a39c",
    "GAS_LIMIT_SELL()": "ab895eb8",
    "GAS_LIMIT_TRANSFER()": "ddf36e23",
    "PRECISION()": "aaf5eb68",
    "ccipReceive((bytes32,uint64,bytes,bytes,(address,uint256)[]))": "85572ffb",
    "depositLink(uint256)": "f9eafa70",
    "getRouter()": "b0f479a1",
    "i_beanHeadsContract()": "2c406d44",
    "i_router()": "581bdd16",
    "onERC721Received(address,address,uint256,bytes)": "150b7a02",
    "owner()": "8da5cb5b",
    "remoteBridgeAddresses(address)": "b95ff206",
    "renounceOwnership()": "715018a6",
    "s_destChain()": "41b8b269",
    "s_linkToken()": "7725135b",
    "s_remoteBridge()": "57c9cafb",
    "s_usdcToken()": "4fdb1ace",
    "sendBatchBuyTokenRequest(uint64,uint256[],uint256[],address)": "1179680f",
    "sendBatchCancelTokenSaleRequest(uint64,(address,uint256,uint256,uint64)[],bytes[])": "38c72353",
    "sendBatchSellTokenRequest(uint64,(address,uint256,uint256,uint256,uint64)[],bytes[],uint256[],bytes[])": "aa7ab1ab",
    "sendBuyTokenRequest(uint64,uint256,address,uint256)": "232df00d",
    "sendCancelTokenSaleRequest(uint64,(address,uint256,uint256,uint64),bytes)": "b1a778ab",
    "sendMintTokenRequest(uint64,address,((uint8,uint8),(uint8,uint8),(uint8,uint8,uint8),(uint8,uint8,uint8,uint8,uint8),(uint8,uint8,uint8),(bool,uint8,bool,uint8,bool)),uint256,address)": "7b0ef209",
    "sendSellTokenRequest(uint64,(address,uint256,uint256,uint256,uint64),bytes,uint256,bytes)": "ef74cd76",
    "sendTransferTokenRequest(uint64,uint256,address)": "62cd6c90",
    "setRemoteBridge(address,bool)": "5caffcd6",
    "supportsInterface(bytes4)": "01ffc9a7",
    "transferOwnership(address)": "f2fde38b",
    "withdrawLink(uint256)": "7a8042bd"
  },
  "id": 113
}