{
  "abi": [
    {
      "type": "function",
      "name": "DOMAIN_SEPARATOR",
      "inputs": [],
      "outputs": [
        {
          "name": "",
          "type": "bytes32",
          "internalType": "bytes32"
        }
      ],
      "stateMutability": "view"
    },
    {
      "type": "function",
      "name": "approve",
      "inputs": [
        {
          "name": "to",
          "type": "address",
          "internalType": "address"
        },
        {
          "name": "tokenId",
          "type": "uint256",
          "internalType": "uint256"
        }
      ],
      "outputs": [],
      "stateMutability": "payable"
    },
    {
      "type": "function",
      "name": "balanceOf",
      "inputs": [
        {
          "name": "owner",
          "type": "address",
          "internalType": "address"
        }
      ],
      "outputs": [
        {
          "name": "",
          "type": "uint256",
          "internalType": "uint256"
        }
      ],
      "stateMutability": "view"
    },
    {
      "type": "function",
      "name": "batchCancelTokenSalesWithPermit",
      "inputs": [
        {
          "name": "cancelRequests",
          "type": "tuple[]",
          "internalType": "struct PermitTypes.Cancel[]",
          "components": [
            {
              "name": "seller",
              "type": "address",
              "internalType": "address"
            },
            {
              "name": "tokenId",
              "type": "uint256",
              "internalType": "uint256"
            },
            {
              "name": "listingNonce",
              "type": "uint256",
              "internalType": "uint256"
            },
            {
              "name": "deadline",
              "type": "uint64",
              "internalType": "uint64"
            }
          ]
        },
        {
          "name": "cancelSigs",
          "type": "bytes[]",
          "internalType": "bytes[]"
        }
      ],
      "outputs": [],
      "stateMutability": "nonpayable"
    },
    {
      "type": "function",
      "name": "batchSellTokensWithPermit",
      "inputs": [
        {
          "name": "sellRequests",
          "type": "tuple[]",
          "internalType": "struct PermitTypes.Sell[]",
          "components": [
            {
              "name": "owner",
              "type": "address",
              "internalType": "address"
            },
            {
              "name": "tokenId",
              "type": "uint256",
              "internalType": "uint256"
            },
            {
              "name": "price",
              "type": "uint256",
              "internalType": "uint256"
            },
            {
              "name": "nonce",
              "type": "uint256",
              "internalType": "uint256"
            },
            {
              "name": "deadline",
              "type": "uint64",
              "internalType": "uint64"
            }
          ]
        },
        {
          "name": "sellSigs",
          "type": "bytes[]",
          "internalType": "bytes[]"
        },
        {
          "name": "permitDeadlines",
          "type": "uint256[]",
          "internalType": "uint256[]"
        },
        {
          "name": "permitSigs",
          "type": "bytes[]",
          "internalType": "bytes[]"
        }
      ],
      "outputs": [],
      "stateMutability": "nonpayable"
    },
    {
      "type": "function",
      "name": "buyTokenWithPermit",
      "inputs": [
        {
          "name": "b",
          "type": "tuple",
          "internalType": "struct PermitTypes.Buy",
          "components": [
            {
              "name": "buyer",
              "type": "address",
              "internalType": "address"
            },
            {
              "name": "paymentToken",
              "type": "address",
              "internalType": "address"
            },
            {
              "name": "recipient",
              "type": "address",
              "internalType": "address"
            },
            {
              "name": "tokenId",
              "type": "uint256",
              "internalType": "uint256"
            },
            {
              "name": "maxPriceUsd",
              "type": "uint256",
              "internalType": "uint256"
            },
            {
              "name": "listingNonce",
              "type": "uint256",
              "internalType": "uint256"
            },
            {
              "name": "deadline",
              "type": "uint64",
              "internalType": "uint64"
            }
          ]
        },
        {
          "name": "buySig",
          "type": "bytes",
          "internalType": "bytes"
        },
        {
          "name": "permitValue",
          "type": "uint256",
          "internalType": "uint256"
        },
        {
          "name": "permitDeadline",
          "type": "uint256",
          "internalType": "uint256"
        },
        {
          "name": "v",
          "type": "uint8",
          "internalType": "uint8"
        },
        {
          "name": "r",
          "type": "bytes32",
          "internalType": "bytes32"
        },
        {
          "name": "s",
          "type": "bytes32",
          "internalType": "bytes32"
        }
      ],
      "outputs": [],
      "stateMutability": "nonpayable"
    },
    {
      "type": "function",
      "name": "cancelTokenSaleWithPermit",
      "inputs": [
        {
          "name": "c",
          "type": "tuple",
          "internalType": "struct PermitTypes.Cancel",
          "components": [
            {
              "name": "seller",
              "type": "address",
              "internalType": "address"
            },
            {
              "name": "tokenId",
              "type": "uint256",
              "internalType": "uint256"
            },
            {
              "name": "listingNonce",
              "type": "uint256",
              "internalType": "uint256"
            },
            {
              "name": "deadline",
              "type": "uint64",
              "internalType": "uint64"
            }
          ]
        },
        {
          "name": "cancelSig",
          "type": "bytes",
          "internalType": "bytes"
        }
      ],
      "outputs": [],
      "stateMutability": "nonpayable"
    },
    {
      "type": "function",
      "name": "eip712Domain",
      "inputs": [],
      "outputs": [
        {
          "name": "fields",
          "type": "bytes1",
          "internalType": "bytes1"
        },
        {
          "name": "name",
          "type": "string",
          "internalType": "string"
        },
        {
          "name": "version",
          "type": "string",
          "internalType": "string"
        },
        {
          "name": "chainId",
          "type": "uint256",
          "internalType": "uint256"
        },
        {
          "name": "verifyingContract",
          "type": "address",
          "internalType": "address"
        },
        {
          "name": "salt",
          "type": "bytes32",
          "internalType": "bytes32"
        },
        {
          "name": "extensions",
          "type": "uint256[]",
          "internalType": "uint256[]"
        }
      ],
      "stateMutability": "view"
    },
    {
      "type": "function",
      "name": "getApproved",
      "inputs": [
        {
          "name": "tokenId",
          "type": "uint256",
          "internalType": "uint256"
        }
      ],
      "outputs": [
        {
          "name": "",
          "type": "address",
          "internalType": "address"
        }
      ],
      "stateMutability": "view"
    },
    {
      "type": "function",
      "name": "isApprovedForAll",
      "inputs": [
        {
          "name": "owner",
          "type": "address",
          "internalType": "address"
        },
        {
          "name": "operator",
          "type": "address",
          "internalType": "address"
        }
      ],
      "outputs": [
        {
          "name": "",
          "type": "bool",
          "internalType": "bool"
        }
      ],
      "stateMutability": "view"
    },
    {
      "type": "function",
      "name": "name",
      "inputs": [],
      "outputs": [
        {
          "name": "",
          "type": "string",
          "internalType": "string"
        }
      ],
      "stateMutability": "view"
    },
    {
      "type": "function",
      "name": "nonces",
      "inputs": [
        {
          "name": "tokenId",
          "type": "uint256",
          "internalType": "uint256"
        }
      ],
      "outputs": [
        {
          "name": "",
          "type": "uint256",
          "internalType": "uint256"
        }
      ],
      "stateMutability": "view"
    },
    {
      "type": "function",
      "name": "onERC721Received",
      "inputs": [
        {
          "name": "",
          "type": "address",
          "internalType": "address"
        },
        {
          "name": "",
          "type": "address",
          "internalType": "address"
        },
        {
          "name": "",
          "type": "uint256",
          "internalType": "uint256"
        },
        {
          "name": "",
          "type": "bytes",
          "internalType": "bytes"
        }
      ],
      "outputs": [
        {
          "name": "",
          "type": "bytes4",
          "internalType": "bytes4"
        }
      ],
      "stateMutability": "pure"
    },
    {
      "type": "function",
      "name": "ownerOf",
      "inputs": [
        {
          "name": "tokenId",
          "type": "uint256",
          "internalType": "uint256"
        }
      ],
      "outputs": [
        {
          "name": "",
          "type": "address",
          "internalType": "address"
        }
      ],
      "stateMutability": "view"
    },
    {
      "type": "function",
      "name": "permit",
      "inputs": [
        {
          "name": "spender",
          "type": "address",
          "internalType": "address"
        },
        {
          "name": "tokenId",
          "type": "uint256",
          "internalType": "uint256"
        },
        {
          "name": "deadline",
          "type": "uint256",
          "internalType": "uint256"
        },
        {
          "name": "sig",
          "type": "bytes",
          "internalType": "bytes"
        }
      ],
      "outputs": [],
      "stateMutability": "nonpayable"
    },
    {
      "type": "function",
      "name": "safeTransferFrom",
      "inputs": [
        {
          "name": "from",
          "type": "address",
          "internalType": "address"
        },
        {
          "name": "to",
          "type": "address",
          "internalType": "address"
        },
        {
          "name": "tokenId",
          "type": "uint256",
          "internalType": "uint256"
        }
      ],
      "outputs": [],
      "stateMutability": "payable"
    },
    {
      "type": "function",
      "name": "safeTransferFrom",
      "inputs": [
        {
          "name": "from",
          "type": "address",
          "internalType": "address"
        },
        {
          "name": "to",
          "type": "address",
          "internalType": "address"
        },
        {
          "name": "tokenId",
          "type": "uint256",
          "internalType": "uint256"
        },
        {
          "name": "_data",
          "type": "bytes",
          "internalType": "bytes"
        }
      ],
      "outputs": [],
      "stateMutability": "payable"
    },
    {
      "type": "function",
      "name": "sellTokenWithPermit",
      "inputs": [
        {
          "name": "s",
          "type": "tuple",
          "internalType": "struct PermitTypes.Sell",
          "components": [
            {
              "name": "owner",
              "type": "address",
              "internalType": "address"
            },
            {
              "name": "tokenId",
              "type": "uint256",
              "internalType": "uint256"
            },
            {
              "name": "price",
              "type": "uint256",
              "internalType": "uint256"
            },
            {
              "name": "nonce",
              "type": "uint256",
              "internalType": "uint256"
            },
            {
              "name": "deadline",
              "type": "uint64",
              "internalType": "uint64"
            }
          ]
        },
        {
          "name": "sellSig",
          "type": "bytes",
          "internalType": "bytes"
        },
        {
          "name": "permitDeadline",
          "type": "uint256",
          "internalType": "uint256"
        },
        {
          "name": "permitSig",
          "type": "bytes",
          "internalType": "bytes"
        }
      ],
      "outputs": [],
      "stateMutability": "nonpayable"
    },
    {
      "type": "function",
      "name": "setApprovalForAll",
      "inputs": [
        {
          "name": "operator",
          "type": "address",
          "internalType": "address"
        },
        {
          "name": "approved",
          "type": "bool",
          "internalType": "bool"
        }
      ],
      "outputs": [],
      "stateMutability": "nonpayable"
    },
    {
      "type": "function",
      "name": "supportsInterface",
      "inputs": [
        {
          "name": "interfaceId",
          "type": "bytes4",
          "internalType": "bytes4"
        }
      ],
      "outputs": [
        {
          "name": "",
          "type": "bool",
          "internalType": "bool"
        }
      ],
      "stateMutability": "view"
    },
    {
      "type": "function",
      "name": "symbol",
      "inputs": [],
      "outputs": [
        {
          "name": "",
          "type": "string",
          "internalType": "string"
        }
      ],
      "stateMutability": "view"
    },
    {
      "type": "function",
      "name": "totalSupply",
      "inputs": [],
      "outputs": [
        {
          "name": "",
          "type": "uint256",
          "internalType": "uint256"
        }
      ],
      "stateMutability": "view"
    },
    {
      "type": "function",
      "name": "transferFrom",
      "inputs": [
        {
          "name": "from",
          "type": "address",
          "internalType": "address"
        },
        {
          "name": "to",
          "type": "address",
          "internalType": "address"
        },
        {
          "name": "tokenId",
          "type": "uint256",
          "internalType": "uint256"
        }
      ],
      "outputs": [],
      "stateMutability": "payable"
    },
    {
      "type": "event",
      "name": "Approval",
      "inputs": [
        {
          "name": "owner",
          "type": "address",
          "indexed": true,
          "internalType": "address"
        },
        {
          "name": "approved",
          "type": "address",
          "indexed": true,
          "internalType": "address"
        },
        {
          "name": "tokenId",
          "type": "uint256",
          "indexed": true,
          "internalType": "uint256"
        }
      ],
      "anonymous": false
    },
    {
      "type": "event",
      "name": "ApprovalForAll",
      "inputs": [
        {
          "name": "owner",
          "type": "address",
          "indexed": true,
          "internalType": "address"
        },
        {
          "name": "operator",
          "type": "address",
          "indexed": true,
          "internalType": "address"
        },
        {
          "name": "approved",
          "type": "bool",
          "indexed": false,
          "internalType": "bool"
        }
      ],
      "anonymous": false
    },
    {
      "type": "event",
      "name": "ConsecutiveTransfer",
      "inputs": [
        {
          "name": "fromTokenId",
          "type": "uint256",
          "indexed": true,
          "internalType": "uint256"
        },
        {
          "name": "toTokenId",
          "type": "uint256",
          "indexed": false,
          "internalType": "uint256"
        },
        {
          "name": "from",
          "type": "address",
          "indexed": true,
          "internalType": "address"
        },
        {
          "name": "to",
          "type": "address",
          "indexed": true,
          "internalType": "address"
        }
      ],
      "anonymous": false
    },
    {
      "type": "event",
      "name": "RoyaltyPaidCrossChain",
      "inputs": [
        {
          "name": "receiver",
          "type": "address",
          "indexed": true,
          "internalType": "address"
        },
        {
          "name": "tokenId",
          "type": "uint256",
          "indexed": true,
          "internalType": "uint256"
        },
        {
          "name": "salePrice",
          "type": "uint256",
          "indexed": false,
          "internalType": "uint256"
        },
        {
          "name": "royaltyAmount",
          "type": "uint256",
          "indexed": false,
          "internalType": "uint256"
        }
      ],
      "anonymous": false
    },
    {
      "type": "event",
      "name": "TokenListedCrossChain",
      "inputs": [
        {
          "name": "owner",
          "type": "address",
          "indexed": true,
          "internalType": "address"
        },
        {
          "name": "tokenId",
          "type": "uint256",
          "indexed": true,
          "internalType": "uint256"
        },
        {
          "name": "price",
          "type": "uint256",
          "indexed": false,
          "internalType": "uint256"
        }
      ],
      "anonymous": false
    },
    {
      "type": "event",
      "name": "TokenSaleCancelledCrossChain",
      "inputs": [
        {
          "name": "owner",
          "type": "address",
          "indexed": true,
          "internalType": "address"
        },
        {
          "name": "tokenId",
          "type": "uint256",
          "indexed": true,
          "internalType": "uint256"
        }
      ],
      "anonymous": false
    },
    {
      "type": "event",
      "name": "TokenSoldCrossChain",
      "inputs": [
        {
          "name": "buyer",
          "type": "address",
          "indexed": true,
          "internalType": "address"
        },
        {
          "name": "seller",
          "type": "address",
          "indexed": true,
          "internalType": "address"
        },
        {
          "name": "tokenId",
          "type": "uint256",
          "indexed": true,
          "internalType": "uint256"
        },
        {
          "name": "salePrice",
          "type": "uint256",
          "indexed": false,
          "internalType": "uint256"
        }
      ],
      "anonymous": false
    },
    {
      "type": "event",
      "name": "Transfer",
      "inputs": [
        {
          "name": "from",
          "type": "address",
          "indexed": true,
          "internalType": "address"
        },
        {
          "name": "to",
          "type": "address",
          "indexed": true,
          "internalType": "address"
        },
        {
          "name": "tokenId",
          "type": "uint256",
          "indexed": true,
          "internalType": "uint256"
        }
      ],
      "anonymous": false
    },
    {
      "type": "error",
      "name": "ApprovalCallerNotOwnerNorApproved",
      "inputs": []
    },
    {
      "type": "error",
      "name": "ApprovalQueryForNonexistentToken",
      "inputs": []
    },
    {
      "type": "error",
      "name": "BalanceQueryForZeroAddress",
      "inputs": []
    },
    {
      "type": "error",
      "name": "IBeanHeadsBase__InsufficientAllowance",
      "inputs": []
    },
    {
      "type": "error",
      "name": "IBeanHeadsBase__InsufficientPayment",
      "inputs": []
    },
    {
      "type": "error",
      "name": "IBeanHeadsBase__InvalidOraclePrice",
      "inputs": []
    },
    {
      "type": "error",
      "name": "IBeanHeadsBase__NotOwner",
      "inputs": []
    },
    {
      "type": "error",
      "name": "IBeanHeadsBase__PriceMustBeGreaterThanZero",
      "inputs": []
    },
    {
      "type": "error",
      "name": "IBeanHeadsBase__TokenDoesNotExist",
      "inputs": []
    },
    {
      "type": "error",
      "name": "IBeanHeadsBase__TokenIsAlreadyListed",
      "inputs": []
    },
    {
      "type": "error",
      "name": "IBeanHeadsBase__TokenIsLocked",
      "inputs": []
    },
    {
      "type": "error",
      "name": "IBeanHeadsBase__TokenIsNotForSale",
      "inputs": []
    },
    {
      "type": "error",
      "name": "IBeanHeadsBase__TokenNotAllowed",
      "inputs": [
        {
          "name": "token",
          "type": "address",
          "internalType": "address"
        }
      ]
    },
    {
      "type": "error",
      "name": "IBeanHeadsMarketplaceSig__InsufficientAllowance",
      "inputs": []
    },
    {
      "type": "error",
      "name": "IBeanHeadsMarketplaceSig__InsufficientPayment",
      "inputs": []
    },
    {
      "type": "error",
      "name": "IBeanHeadsMarketplaceSig__InvalidAmount",
      "inputs": []
    },
    {
      "type": "error",
      "name": "IBeanHeadsMarketplaceSig__InvalidOraclePrice",
      "inputs": []
    },
    {
      "type": "error",
      "name": "IBeanHeadsMarketplaceSig__MismatchedArrayLengths",
      "inputs": []
    },
    {
      "type": "error",
      "name": "IBeanHeadsMarketplaceSig__NotOwner",
      "inputs": []
    },
    {
      "type": "error",
      "name": "IBeanHeadsMarketplaceSig__NotOwnerOrApproved",
      "inputs": []
    },
    {
      "type": "error",
      "name": "IBeanHeadsMarketplaceSig__PriceExceedsMax",
      "inputs": []
    },
    {
      "type": "error",
      "name": "IBeanHeadsMarketplaceSig__PriceMustBeGreaterThanZero",
      "inputs": []
    },
    {
      "type": "error",
      "name": "IBeanHeadsMarketplaceSig__TokenDoesNotExist",
      "inputs": []
    },
    {
      "type": "error",
      "name": "IBeanHeadsMarketplaceSig__TokenNotAllowed",
      "inputs": [
        {
          "name": "token",
          "type": "address",
          "internalType": "address"
        }
      ]
    },
    {
      "type": "error",
      "name": "IBeanHeadsMarketplaceSig__TokenNotForSale",
      "inputs": []
    },
    {
      "type": "error",
      "name": "IPermit__ERC2612ExpiredSignature",
      "inputs": [
        {
          "name": "deadline",
          "type": "uint256",
          "internalType": "uint256"
        }
      ]
    },
    {
      "type": "error",
      "name": "IPermit__ERC2612InvalidSigner",
      "inputs": [
        {
          "name": "signer",
          "type": "address",
          "internalType": "address"
        },
        {
          "name": "owner",
          "type": "address",
          "internalType": "address"
        }
      ]
    },
    {
      "type": "error",
      "name": "IPermit__InvalidNonce",
      "inputs": [
        {
          "name": "expected",
          "type": "uint256",
          "internalType": "uint256"
        },
        {
          "name": "actual",
          "type": "uint256",
          "internalType": "uint256"
        }
      ]
    },
    {
      "type": "error",
      "name": "InvalidTokenId",
      "inputs": []
    },
    {
      "type": "error",
      "name": "MintERC2309QuantityExceedsLimit",
      "inputs": []
    },
    {
      "type": "error",
      "name": "MintToZeroAddress",
      "inputs": []
    },
    {
      "type": "error",
      "name": "MintZeroQuantity",
      "inputs": []
    },
    {
      "type": "error",
      "name": "OwnerQueryForNonexistentToken",
      "inputs": []
    },
    {
      "type": "error",
      "name": "OwnershipNotInitializedForExtraData",
      "inputs": []
    },
    {
      "type": "error",
      "name": "TokenAlreadyExists",
      "inputs": []
    },
    {
      "type": "error",
      "name": "TransferCallerNotOwnerNorApproved",
      "inputs": []
    },
    {
      "type": "error",
      "name": "TransferFromIncorrectOwner",
      "inputs": []
    },
    {
      "type": "error",
      "name": "TransferToNonERC721ReceiverImplementer",
      "inputs": []
    },
    {
      "type": "error",
      "name": "TransferToZeroAddress",
      "inputs": []
    },
    {
      "type": "error",
      "name": "URIQueryForNonexistentToken",
      "inputs": []
    }
  ],
  "bytecode": {
    "object": "0x608034620000a9576040906001600160401b0390808301828111828210176200009557835260098152684265616e486561647360b81b6020909101527f63d0f177cf2b06af4da57652d5ad703397898e5caf034bcfc7cbe3b16ade04b45f55815190818301908111828210176200009557600191602091845282815201603160f81b815220600155516147969081620000ae8239f35b634e487b7160e01b5f52604160045260245ffd5b5f80fdfe60806040526004361015610011575f80fd5b5f3560e01c806301ffc9a71461018457806306fdde031461017f578063081812fc1461017a578063095ea7b314610175578063141a468c14610170578063150b7a021461016b57806318160ddd1461016657806323b872dd1461016157806324e79fc21461015c5780633644e5151461015757806342842e0e146101525780636352211e1461014d57806370a0823114610148578063745a41bc146101435780637dd984511461013e57806384b0196e146101395780638734aa12146101345780638742be811461012f57806395d89b411461012a578063a033d9ed14610125578063a22cb46514610120578063b88d4fde1461011b5763e985e9c514610116575f80fd5b611ce7565b611c77565b611b69565b61180d565b6116e5565b611655565b611591565b611420565b6111eb565b610f3d565b610cc0565b610c66565b610c44565b610c04565b6108d1565b6108bd565b6107f5565b610764565b6106cf565b610531565b610460565b6102c8565b6101b7565b7fffffffff000000000000000000000000000000000000000000000000000000008116036101b357565b5f80fd5b346101b35760207ffffffffffffffffffffffffffffffffffffffffffffffffffffffffffffffffc3601126101b3577fffffffff0000000000000000000000000000000000000000000000000000000060043561021381610189565b165f527f791cad950d3b9b323a06def8cb8b7bf2c934c7f4cea39385f023ba145f9b93be602052602060ff60405f2054166040519015158152f35b5f9103126101b357565b91908251928382525f5b8481106102a05750507fffffffffffffffffffffffffffffffffffffffffffffffffffffffffffffffe0601f845f6020809697860101520116010190565b602081830181015184830182015201610262565b9060206102c5928181520190610258565b90565b346101b3575f7ffffffffffffffffffffffffffffffffffffffffffffffffffffffffffffffffc3601126101b3576040515f7f8785b62d5a7098417c833f00e99883e36791da2bbef1ddc66d7797ca0681c2d25460018160011c9160018116918215610456575b6020916020851084146104295784875260208701939081156103ec5750600114610374575b6103708661036481880382610e51565b604051918291826102b4565b0390f35b7f8785b62d5a7098417c833f00e99883e36791da2bbef1ddc66d7797ca0681c2d25f90815294509192917f4eff6dd2ce7e3eed3d8c57a965022ef5c4089064f80bafbcccb1920be91b46a15b8386106103db5750505091019050610364826103705f610354565b8054858701529482019481016103c0565b7fffffffffffffffffffffffffffffffffffffffffffffffffffffffffffffff0016845250505090151560051b019050610364826103705f610354565b7f4e487b71000000000000000000000000000000000000000000000000000000005f52602260045260245ffd5b92607f169261032f565b346101b35760207ffffffffffffffffffffffffffffffffffffffffffffffffffffffffffffffffc3601126101b35760043561049b81612920565b156104eb575f527f8785b62d5a7098417c833f00e99883e36791da2bbef1ddc66d7797ca0681c2d6602052602073ffffffffffffffffffffffffffffffffffffffff60405f205416604051908152f35b7fcf4700e4000000000000000000000000000000000000000000000000000000005f5260045ffd5b73ffffffffffffffffffffffffffffffffffffffff8116036101b357565b60407ffffffffffffffffffffffffffffffffffffffffffffffffffffffffffffffffc3601126101b35760043561056781610513565b6024359073ffffffffffffffffffffffffffffffffffffffff8061058a84612d01565b1691823303610631575b610609816105c9865f527f8785b62d5a7098417c833f00e99883e36791da2bbef1ddc66d7797ca0681c2d660205260405f2090565b9073ffffffffffffffffffffffffffffffffffffffff167fffffffffffffffffffffffff0000000000000000000000000000000000000000825416179055565b16907f8c5be1e5ebec7d5bd14f71427d1e84f3dd0314c0f7b2291e5b200ac8c7c3b9255f80a4005b60ff6106a13361067e8673ffffffffffffffffffffffffffffffffffffffff165f527f8785b62d5a7098417c833f00e99883e36791da2bbef1ddc66d7797ca0681c2d760205260405f2090565b9073ffffffffffffffffffffffffffffffffffffffff165f5260205260405f2090565b5416610594577fcfb3b942000000000000000000000000000000000000000000000000000000005f5260045ffd5b346101b35760207ffffffffffffffffffffffffffffffffffffffffffffffffffffffffffffffffc3601126101b3576004355f527f791cad950d3b9b323a06def8cb8b7bf2c934c7f4cea39385f023ba145f9b93bf602052602060405f2054604051908152f35b9181601f840112156101b35782359167ffffffffffffffff83116101b357602083818601950101116101b357565b346101b35760807ffffffffffffffffffffffffffffffffffffffffffffffffffffffffffffffffc3601126101b35761079e600435610513565b6107a9602435610513565b60643567ffffffffffffffff81116101b3576107c9903690600401610736565b505060206040517f150b7a02000000000000000000000000000000000000000000000000000000008152f35b346101b3575f7ffffffffffffffffffffffffffffffffffffffffffffffffffffffffffffffffc3601126101b35760207f8785b62d5a7098417c833f00e99883e36791da2bbef1ddc66d7797ca0681c2d0547f8785b62d5a7098417c833f00e99883e36791da2bbef1ddc66d7797ca0681c2d1549003604051908152f35b7ffffffffffffffffffffffffffffffffffffffffffffffffffffffffffffffffc60609101126101b3576004356108a981610513565b906024356108b681610513565b9060443590565b6108cf6108c936610873565b91611d88565b005b346101b3577ffffffffffffffffffffffffffffffffffffffffffffffffffffffffffffffffc360161010081126101b35760a0136101b35767ffffffffffffffff60a4358181116101b35761092a903690600401610736565b9160e4359081116101b357610943903690600401610736565b906024359361095185612920565b15610bdc5761096e6109616120c6565b67ffffffffffffffff1690565b4211610bd757604435938415610bd2576109af865f527f791cad950d3b9b323a06def8cb8b7bf2c934c7f4cea39385f023ba145f9b93bf60205260405f2090565b54906064358203610bcd576001926109c69161302d565b016109f8855f527f791cad950d3b9b323a06def8cb8b7bf2c934c7f4cea39385f023ba145f9b93bf60205260405f2090565b55303b156101b357610a3f915f9160405193849283927f745a41bc00000000000000000000000000000000000000000000000000000000845260c435893060048701612109565b038183305af18015610bb557610bba575b50610a59612181565b303b156101b3576040517f42842e0e00000000000000000000000000000000000000000000000000000000815273ffffffffffffffffffffffffffffffffffffffff9091166004820152306024820152604481018390525f818060648101038183305af18015610bb557610b9c575b50610b44610ad4612181565b610afb610adf610e92565b73ffffffffffffffffffffffffffffffffffffffff9092168252565b826020820152610b0e6040820160019052565b610b3f845f527f791cad950d3b9b323a06def8cb8b7bf2c934c7f4cea39385f023ba145f9b93ad60205260405f2090565b6121af565b7f95b55f38d05a2c5664b9788437177cc4cd38ad59294ccd15d9527664355380ec610b9773ffffffffffffffffffffffffffffffffffffffff610b85612181565b60405194855216929081906020820190565b0390a3005b80610ba9610baf92610dc8565b8061024e565b5f610ac8565b612176565b80610ba9610bc792610dc8565b5f610a50565b612a53565b612af3565b6129db565b7fd80afb82000000000000000000000000000000000000000000000000000000005f5260045ffd5b346101b3575f7ffffffffffffffffffffffffffffffffffffffffffffffffffffffffffffffffc3601126101b3576020610c3c613219565b604051908152f35b6108cf610c5036610873565b9060405192610c5e84610de1565b5f8452612899565b346101b35760207ffffffffffffffffffffffffffffffffffffffffffffffffffffffffffffffffc3601126101b357602073ffffffffffffffffffffffffffffffffffffffff610cb7600435612d01565b16604051908152f35b346101b35760207ffffffffffffffffffffffffffffffffffffffffffffffffffffffffffffffffc3601126101b357600435610cfb81610513565b73ffffffffffffffffffffffffffffffffffffffff811615610d735767ffffffffffffffff610d6960209273ffffffffffffffffffffffffffffffffffffffff165f527f8785b62d5a7098417c833f00e99883e36791da2bbef1ddc66d7797ca0681c2d560205260405f2090565b5416604051908152f35b7f8f4eb604000000000000000000000000000000000000000000000000000000005f5260045ffd5b7f4e487b71000000000000000000000000000000000000000000000000000000005f52604160045260245ffd5b67ffffffffffffffff8111610ddc57604052565b610d9b565b6020810190811067ffffffffffffffff821117610ddc57604052565b6040810190811067ffffffffffffffff821117610ddc57604052565b60c0810190811067ffffffffffffffff821117610ddc57604052565b60e0810190811067ffffffffffffffff821117610ddc57604052565b90601f7fffffffffffffffffffffffffffffffffffffffffffffffffffffffffffffffe0910116810190811067ffffffffffffffff821117610ddc57604052565b604051906060820182811067ffffffffffffffff821117610ddc57604052565b67ffffffffffffffff8111610ddc57601f017fffffffffffffffffffffffffffffffffffffffffffffffffffffffffffffffe01660200190565b929192610ef882610eb2565b91610f066040519384610e51565b8294818452818301116101b3578281602093845f960137010152565b9080601f830112156101b3578160206102c593359101610eec565b346101b35760807ffffffffffffffffffffffffffffffffffffffffffffffffffffffffffffffffc3601126101b357600435610f7881610513565b6024356044359160643567ffffffffffffffff81116101b357610f9f903690600401610f22565b834210156111b55761107e6110f46108cf956001936110b286610fe0610fc7610fc78b612d01565b73ffffffffffffffffffffffffffffffffffffffff1690565b936110aa8a611016815f527f791cad950d3b9b323a06def8cb8b7bf2c934c7f4cea39385f023ba145f9b93bf60205260405f2090565b549889936040519485936020850197889094939260809273ffffffffffffffffffffffffffffffffffffffff60a08401977f49ecf333e5b8c95c40fdafc95c1ad136e8914a8fb55e9dc8bb01eaa83a2df9ad8552166020840152604083015260608201520152565b037fffffffffffffffffffffffffffffffffffffffffffffffffffffffffffffffe08101835282610e51565b519020613d28565b6110bc8282613d69565b50509273ffffffffffffffffffffffffffffffffffffffff93848116801515958661113e575b505050831561112c575b505050613273565b01611126835f527f791cad950d3b9b323a06def8cb8b7bf2c934c7f4cea39385f023ba145f9b93bf60205260405f2090565b55612c83565b6111369350613da3565b5f80806110ec565b9091928096501614908115611158575b50925f80806110e2565b6111af91506111a89061067e8673ffffffffffffffffffffffffffffffffffffffff165f527f8785b62d5a7098417c833f00e99883e36791da2bbef1ddc66d7797ca0681c2d760205260405f2090565b5460ff1690565b5f61114e565b6040517f0a7b15ac00000000000000000000000000000000000000000000000000000000815260048101859052602490fd5b0390fd5b346101b3577ffffffffffffffffffffffffffffffffffffffffffffffffffffffffffffffffc360160a081126101b3576080136101b35760843567ffffffffffffffff81116101b357611242903690600401610736565b906024359161125083612920565b15610bdc576112606109616120af565b4211610bd757611297835f527f791cad950d3b9b323a06def8cb8b7bf2c934c7f4cea39385f023ba145f9b93ad60205260405f2090565b91600283016112ae6112aa825460ff1690565b1590565b61141b57835473ffffffffffffffffffffffffffffffffffffffff166112d5610fc7612181565b73ffffffffffffffffffffffffffffffffffffffff8092160361141657611323865f527f791cad950d3b9b323a06def8cb8b7bf2c934c7f4cea39385f023ba145f9b93bf60205260405f2090565b5492604435809403610bcd576114139561138a88946113476001986113b7956132d8565b611362611352612181565b8761135b612255565b91306133f9565b7fffffffffffffffffffffffffffffffffffffffffffffffffffffffffffffff008154169055565b5f868201557fffffffffffffffffffffffff00000000000000000000000000000000000000008154169055565b6113bf612181565b167f03a22e74c0a02b76999e54133f3bad8438003aec05906408c2f6ccce8b43af2d5f80a301915f527f791cad950d3b9b323a06def8cb8b7bf2c934c7f4cea39385f023ba145f9b93bf60205260405f2090565b55005b612a2b565b612a03565b346101b3575f7ffffffffffffffffffffffffffffffffffffffffffffffffffffffffffffffffc3601126101b35760405161145a81610de1565b5f8152604051602061146b82610dfd565b600982527f4265616e4865616473000000000000000000000000000000000000000000000081830152604051906114a182610dfd565b611518600192600181527f31000000000000000000000000000000000000000000000000000000000000008382015261150a604051957f0f00000000000000000000000000000000000000000000000000000000000000875260e08588015260e0870190610258565b908582036040870152610258565b4660608501523060808501525f60a085015283810360c08501528180865192838152019501915f5b82811061154d5785870386f35b8351875295810195928101928401611540565b9181601f840112156101b35782359167ffffffffffffffff83116101b3576020808501948460051b0101116101b357565b346101b35760807ffffffffffffffffffffffffffffffffffffffffffffffffffffffffffffffffc3601126101b35760043567ffffffffffffffff8082116101b357366023830112156101b3578160040135918183116101b35736602460a08502830101116101b3576024358281116101b357611612903690600401611560565b906044358481116101b35761162b903690600401611560565b9290916064359586116101b3576108cf9661164c6024973690600401611560565b97909601612267565b346101b35760407ffffffffffffffffffffffffffffffffffffffffffffffffffffffffffffffffc3601126101b35760043567ffffffffffffffff8082116101b357366023830112156101b3578160040135918183116101b3573660248460071b830101116101b3576024359182116101b3576108cf926116dc6024933690600401611560565b939092016126e5565b346101b3575f7ffffffffffffffffffffffffffffffffffffffffffffffffffffffffffffffffc3601126101b3576040515f7f8785b62d5a7098417c833f00e99883e36791da2bbef1ddc66d7797ca0681c2d35460018160011c91600181169182156117f8575b6020916020851084146104295784875260208701939081156103ec5750600114611780576103708661036481880382610e51565b7f8785b62d5a7098417c833f00e99883e36791da2bbef1ddc66d7797ca0681c2d35f90815294509192917feab2a30426a14f07ecdc76635cd0729eb655bee4c9d04a8fb1b5d85c28c9dae35b8386106117e75750505091019050610364826103705f610354565b8054858701529482019481016117cc565b92607f169261174c565b60ff8116036101b357565b346101b3577ffffffffffffffffffffffffffffffffffffffffffffffffffffffffffffffffc36016101a081126101b35760e0136101b35760e43567ffffffffffffffff81116101b357611865903690600401610736565b90610144359061187482611802565b61187c6136c3565b6064359261188984612920565b15610bdc576118996109616120dd565b4211610bd7576118a891613751565b6118d9825f527f791cad950d3b9b323a06def8cb8b7bf2c934c7f4cea39385f023ba145f9b93ad60205260405f2090565b60028101916118ec6112aa845460ff1690565b61141b576119446112aa6111a861190161218d565b73ffffffffffffffffffffffffffffffffffffffff165f527f791cad950d3b9b323a06def8cb8b7bf2c934c7f4cea39385f023ba145f9b93b260205260405f2090565b611b5a57611979845f527f791cad950d3b9b323a06def8cb8b7bf2c934c7f4cea39385f023ba145f9b93bf60205260405f2090565b549060a435809203610bcd57611b30935f611b0192611ad886896001809901936119bf6119a6865461385d565b8092610184359061016435906101243561010435613928565b6119ec816119ce610fc761218d565b855473ffffffffffffffffffffffffffffffffffffffff1690613a27565b611a286119f761218d565b6105c9845f527f791cad950d3b9b323a06def8cb8b7bf2c934c7f4cea39385f023ba145f9b93b360205260405f2090565b611a3c611a33612199565b8361135b612255565b611a44612199565b907f750c36c1151184a24e0af140e77692bedec79858e113552e61d123f784cc9be46020611a86865473ffffffffffffffffffffffffffffffffffffffff1690565b92015160405190815273ffffffffffffffffffffffffffffffffffffffff9283169390921691602090a47fffffffffffffffffffffffff00000000000000000000000000000000000000008154169055565b557fffffffffffffffffffffffffffffffffffffffffffffffffffffffffffffff008154169055565b01915f527f791cad950d3b9b323a06def8cb8b7bf2c934c7f4cea39385f023ba145f9b93bf60205260405f2090565b556108cf60017f862460a2be1e75f44234ae220583844903aaee6923993409e3eaa0efbd0da84155565b612b43565b801515036101b357565b346101b35760407ffffffffffffffffffffffffffffffffffffffffffffffffffffffffffffffffc3601126101b357600435611ba481610513565b73ffffffffffffffffffffffffffffffffffffffff60243591611bc683611b5f565b611c4583611c158361067e3373ffffffffffffffffffffffffffffffffffffffff165f527f8785b62d5a7098417c833f00e99883e36791da2bbef1ddc66d7797ca0681c2d760205260405f2090565b9060ff7fffffffffffffffffffffffffffffffffffffffffffffffffffffffffffffff0083541691151516179055565b604051921515835216907f17307eab39ab6107e8899845ad3d59bd9653f200f220920489ca2b5937696c3160203392a3005b60807ffffffffffffffffffffffffffffffffffffffffffffffffffffffffffffffffc3601126101b357600435611cad81610513565b602435611cb981610513565b6064359167ffffffffffffffff83116101b357611cdd6108cf933690600401610f22565b9160443591612899565b346101b35760407ffffffffffffffffffffffffffffffffffffffffffffffffffffffffffffffffc3601126101b357602060ff611d7c600435611d2981610513565b61067e60243591611d3983610513565b73ffffffffffffffffffffffffffffffffffffffff165f527f8785b62d5a7098417c833f00e99883e36791da2bbef1ddc66d7797ca0681c2d760205260405f2090565b54166040519015158152f35b919091611d9482612d01565b9273ffffffffffffffffffffffffffffffffffffffff8092169384838216036120aa575f8481527f8785b62d5a7098417c833f00e99883e36791da2bbef1ddc66d7797ca0681c2d6602052604090208054611e0b73ffffffffffffffffffffffffffffffffffffffff881633908114908314171590565b61204f575b611e1b868589612ee0565b612046575b50611e688573ffffffffffffffffffffffffffffffffffffffff165f527f8785b62d5a7098417c833f00e99883e36791da2bbef1ddc66d7797ca0681c2d560205260405f2090565b80547fffffffffffffffffffffffffffffffffffffffffffffffffffffffffffffffff019055611ed58273ffffffffffffffffffffffffffffffffffffffff165f527f8785b62d5a7098417c833f00e99883e36791da2bbef1ddc66d7797ca0681c2d560205260405f2090565b8054600101905573ffffffffffffffffffffffffffffffffffffffff82164260a01b177c020000000000000000000000000000000000000000000000000000000017611f48855f527f8785b62d5a7098417c833f00e99883e36791da2bbef1ddc66d7797ca0681c2d460205260405f2090565b557c0200000000000000000000000000000000000000000000000000000000811615611fa3575b501680927fddf252ad1be2c89b69c2b068fc378daa952ba7f163c4a11628f55a4df523b3ef5f80a415611f9e57565b612acb565b60018401611fd8815f527f8785b62d5a7098417c833f00e99883e36791da2bbef1ddc66d7797ca0681c2d460205260405f2090565b5415611fe5575b50611f6f565b7f8785b62d5a7098417c833f00e99883e36791da2bbef1ddc66d7797ca0681c2d0548114611fdf5761203e905f527f8785b62d5a7098417c833f00e99883e36791da2bbef1ddc66d7797ca0681c2d460205260405f2090565b555f80611fdf565b5f90555f611e20565b6120a06112aa6111a83361067e8b73ffffffffffffffffffffffffffffffffffffffff165f527f8785b62d5a7098417c833f00e99883e36791da2bbef1ddc66d7797ca0681c2d760205260405f2090565b15611e1057612aa3565b612a7b565b60643567ffffffffffffffff811681036101b35790565b60843567ffffffffffffffff811681036101b35790565b60c43567ffffffffffffffff811681036101b35790565b3567ffffffffffffffff811681036101b35790565b939460a0957fffffffffffffffffffffffffffffffffffffffffffffffffffffffffffffffe094601f9473ffffffffffffffffffffffffffffffffffffffff84951688526020880152604087015260806060870152816080870152868601375f8582860101520116010190565b6040513d5f823e3d90fd5b6004356102c581610513565b6024356102c581610513565b6044356102c581610513565b356102c581610513565b600260406122539361221373ffffffffffffffffffffffffffffffffffffffff825116859073ffffffffffffffffffffffffffffffffffffffff167fffffffffffffffffffffffff0000000000000000000000000000000000000000825416179055565b602081015160018501550151151591019060ff7fffffffffffffffffffffffffffffffffffffffffffffffffffffffffffffff0083541691151516179055565b565b6040519061226282610de1565b5f8252565b9796909591946122756136c3565b838714801590612619575b801561260f575b61260a575f5b87811061246457505050505050505f5b8181106122d1575050905061225360017f862460a2be1e75f44234ae220583844903aaee6923993409e3eaa0efbd0da84155565b6122dc818386612650565b90602080830135906122f06112aa83612920565b612459576122fd846121a5565b90303b156101b357604080517f23b872dd00000000000000000000000000000000000000000000000000000000815273ffffffffffffffffffffffffffffffffffffffff90931660048401523060248401526044830184905291945f868060648101038183305af1918215610bb55773ffffffffffffffffffffffffffffffffffffffff61242b61243c936001997f95b55f38d05a2c5664b9788437177cc4cd38ad59294ccd15d9527664355380ec96612446575b506124266123bf826121a5565b8883013580966123ec6123d0610e92565b73ffffffffffffffffffffffffffffffffffffffff9094168452565b820152600189820152610b3f8a5f527f791cad950d3b9b323a06def8cb8b7bf2c934c7f4cea39385f023ba145f9b93ad60205260405f2090565b6121a5565b169351918291829190602083019252565b0390a35b0161229d565b80610ba961245392610dc8565b5f6123b2565b505060019150612440565b61246f81898c612650565b9060208201356124a6815f527f791cad950d3b9b323a06def8cb8b7bf2c934c7f4cea39385f023ba145f9b93ad60205260405f2090565b6124b26112aa83612920565b6125f5576002015460ff16612600576124d0610961608085016120f4565b42116126005760409283810135156125f557612513825f527f791cad950d3b9b323a06def8cb8b7bf2c934c7f4cea39385f023ba145f9b93bf60205260405f2090565b546060820135036125f5576125339061252d848a8d612665565b91613125565b612564815f527f791cad950d3b9b323a06def8cb8b7bf2c934c7f4cea39385f023ba145f9b93bf60205260405f2090565b8054600101905561257682858a6126c5565b35612582838789612665565b929094303b156101b3575f936125c5915196879485947f745a41bc0000000000000000000000000000000000000000000000000000000086523060048701612109565b038183305af1918215610bb5576001926125e2575b505b0161228d565b80610ba96125ef92610dc8565b5f6125da565b5050600191506125dc565b50600191506125dc565b612b1b565b5081871415612287565b5080871415612280565b7f4e487b71000000000000000000000000000000000000000000000000000000005f52603260045260245ffd5b91908110156126605760a0020190565b612623565b91908110156126605760051b810135907fffffffffffffffffffffffffffffffffffffffffffffffffffffffffffffffe1813603018212156101b357019081359167ffffffffffffffff83116101b35760200182360381136101b3579190565b91908110156126605760051b0190565b91908110156126605760071b0190565b929081810361260a575f5b8181106126fe575050505050565b8061270c60019284886126d5565b602081013590612743825f527f791cad950d3b9b323a06def8cb8b7bf2c934c7f4cea39385f023ba145f9b93ad60205260405f2090565b61274f6112aa84612920565b6128915760028101916127666112aa845460ff1690565b61288857612779610961606083016120f4565b421161288857876127b1855f527f791cad950d3b9b323a06def8cb8b7bf2c934c7f4cea39385f023ba145f9b93bf60205260405f2090565b5491604081013580930361287d578a6127de855473ffffffffffffffffffffffffffffffffffffffff1690565b91886127ec610fc7836121a5565b73ffffffffffffffffffffffffffffffffffffffff8095160361286f5761286797612829612822612835938c986113bf97612665565b9085613364565b611362611352846121a5565b6124268a965f888201557fffffffffffffffffffffffff00000000000000000000000000000000000000008154169055565b555b016126f0565b505050505050505050612869565b505050505050612869565b50505050612869565b505050612869565b9291906128a7828286611d88565b803b6128b4575b50505050565b6128bd93613afd565b156128cb575f8080806128ae565b7fd1a57ed6000000000000000000000000000000000000000000000000000000005f5260045ffd5b7f4e487b71000000000000000000000000000000000000000000000000000000005f52601160045260245ffd5b905f917f8785b62d5a7098417c833f00e99883e36791da2bbef1ddc66d7797ca0681c2d054811061294e5750565b9091505b805f527f8785b62d5a7098417c833f00e99883e36791da2bbef1ddc66d7797ca0681c2d460205260405f2054806129b6575080156129b1577fffffffffffffffffffffffffffffffffffffffffffffffffffffffffffffffff01612952565b6128f3565b7c01000000000000000000000000000000000000000000000000000000009150161590565b7f0a7b15ac000000000000000000000000000000000000000000000000000000005f5260045ffd5b7fca8c4a08000000000000000000000000000000000000000000000000000000005f5260045ffd5b7fb740f1fe000000000000000000000000000000000000000000000000000000005f5260045ffd5b7f5beab066000000000000000000000000000000000000000000000000000000005f5260045ffd5b7fa1148100000000000000000000000000000000000000000000000000000000005f5260045ffd5b7f59c896be000000000000000000000000000000000000000000000000000000005f5260045ffd5b7fea553b34000000000000000000000000000000000000000000000000000000005f5260045ffd5b7f0fd7627b000000000000000000000000000000000000000000000000000000005f5260045ffd5b7fd1d912a0000000000000000000000000000000000000000000000000000000005f5260045ffd5b7f10d59a6f000000000000000000000000000000000000000000000000000000005f5260045ffd5b7fdf2d9b42000000000000000000000000000000000000000000000000000000005f5260045ffd5b7f0fb51c13000000000000000000000000000000000000000000000000000000005f5260045ffd5b7fe770f489000000000000000000000000000000000000000000000000000000005f5260045ffd5b7f7b8273f6000000000000000000000000000000000000000000000000000000005f5260045ffd5b7f59ca34d4000000000000000000000000000000000000000000000000000000005f5260045ffd5b7fbf79ab09000000000000000000000000000000000000000000000000000000005f5260045ffd5b7fef07d5e4000000000000000000000000000000000000000000000000000000005f5260045ffd5b73ffffffffffffffffffffffffffffffffffffffff80612ca284612d01565b1691612cd9816105c9865f527f8785b62d5a7098417c833f00e99883e36791da2bbef1ddc66d7797ca0681c2d660205260405f2090565b16907f8c5be1e5ebec7d5bd14f71427d1e84f3dd0314c0f7b2291e5b200ac8c7c3b9255f80a4565b612d32815f527f8785b62d5a7098417c833f00e99883e36791da2bbef1ddc66d7797ca0681c2d460205260405f2090565b54908115612d6257507c01000000000000000000000000000000000000000000000000000000008116612b6b5790565b90507f8785b62d5a7098417c833f00e99883e36791da2bbef1ddc66d7797ca0681c2d054811015612b6b577fffffffffffffffffffffffffffffffffffffffffffffffffffffffffffffffff905b01612de2815f527f8785b62d5a7098417c833f00e99883e36791da2bbef1ddc66d7797ca0681c2d460205260405f2090565b54908115612e3857507c01000000000000000000000000000000000000000000000000000000008116156102c5577fdf2d9b42000000000000000000000000000000000000000000000000000000005f5260045ffd5b7fffffffffffffffffffffffffffffffffffffffffffffffffffffffffffffffff9150612db0565b919082018092116129b157565b8054821015612660575f5260205f2001905f90565b9081549168010000000000000000831015610ddc5782612eaa91600161225395018155612e6d565b9091907fffffffffffffffffffffffffffffffffffffffffffffffffffffffffffffffff83549160031b92831b921b1916179055565b9190915f5b60018110612fb5575073ffffffffffffffffffffffffffffffffffffffff90818116612f89575b508216612f17575050565b5f5b60018110612f2657505050565b600190612f83612f738573ffffffffffffffffffffffffffffffffffffffff165f527f791cad950d3b9b323a06def8cb8b7bf2c934c7f4cea39385f023ba145f9b93b160205260405f2090565b612f7d8386612e60565b90612e82565b01612f19565b5f5b60018110612f995750612f0c565b80612faf612fa960019387612e60565b84613bec565b01612f8b565b612fbf8184612e60565b73ffffffffffffffffffffffffffffffffffffffff831615159081612ff1575b50612fec57600101612ee5565b612b93565b61302791506111a8905f527f791cad950d3b9b323a06def8cb8b7bf2c934c7f4cea39385f023ba145f9b93c060205260405f2090565b5f612fdf565b9060043561303a81610513565b6130c16130456120c6565b60405167ffffffffffffffff60208201927f2f422e04bd053cdb31061a639ced22e7ae0feabf80b43dc05ea9e4ed2e621a58845273ffffffffffffffffffffffffffffffffffffffff80961660408401526024356060840152604435608084015260643560a08401521660c082015260c081526110aa81610e35565b906130d66130d0368587610eec565b83613d69565b5050906130e4610fc7612181565b9116149283156130fe575b505050156130f957565b612bbb565b61311d93506131179061310f612181565b933691610eec565b91613da3565b5f80806130ef565b919082359061313382610513565b6131c4613142608086016120f4565b60405167ffffffffffffffff60208201927f2f422e04bd053cdb31061a639ced22e7ae0feabf80b43dc05ea9e4ed2e621a58845273ffffffffffffffffffffffffffffffffffffffff80971660408401526020890135606084015260408901356080840152606089013560a08401521660c082015260c081526110aa81610e35565b916131d96131d3368685610eec565b84613d69565b5050906131e8610fc7876121a5565b9116149384156131fe575b50505050156130f957565b61321094509061310f613117926121a5565b5f8080806131f3565b5f546001546040519060208201927f8b73c3c69bb8fe3d512ecc4cf759cc79239f7b179b0ffacaa9a75d522b39400f8452604083015260608201524660808201523060a082015260a0815261326d81610e19565b51902090565b1561327a57565b60646040517f08c379a000000000000000000000000000000000000000000000000000000000815260206004820152601f60248201527f4552433732315065726d69743a20496e76616c6964207369676e6174757265006044820152fd5b906004356132e581610513565b6130c16132f06120af565b60405167ffffffffffffffff60208201927ff0782c572dbd9f38a882c8b82f5fa1bd7fc0195873a66ca5bfcbb0c617adbd9b845273ffffffffffffffffffffffffffffffffffffffff8096166040840152602435606084015260443560808401521660a082015260a081526110aa81610e19565b919082359061337282610513565b6131c4613381606086016120f4565b60405167ffffffffffffffff60208201927ff0782c572dbd9f38a882c8b82f5fa1bd7fc0195873a66ca5bfcbb0c617adbd9b845273ffffffffffffffffffffffffffffffffffffffff809716604084015260208901356060840152604089013560808401521660a082015260a081526110aa81610e19565b9192909261340681612d01565b73ffffffffffffffffffffffffffffffffffffffff908185169182818316036120aa57839161345f835f527f8785b62d5a7098417c833f00e99883e36791da2bbef1ddc66d7797ca0681c2d660205260405f2090815490565b61346a858b88612ee0565b6136ba575b506134b78473ffffffffffffffffffffffffffffffffffffffff165f527f8785b62d5a7098417c833f00e99883e36791da2bbef1ddc66d7797ca0681c2d560205260405f2090565b80547fffffffffffffffffffffffffffffffffffffffffffffffffffffffffffffffff0190556135248873ffffffffffffffffffffffffffffffffffffffff165f527f8785b62d5a7098417c833f00e99883e36791da2bbef1ddc66d7797ca0681c2d560205260405f2090565b8054600101905573ffffffffffffffffffffffffffffffffffffffff88164260a01b177c020000000000000000000000000000000000000000000000000000000017613597845f527f8785b62d5a7098417c833f00e99883e36791da2bbef1ddc66d7797ca0681c2d460205260405f2090565b557c0200000000000000000000000000000000000000000000000000000000811615613617575b50861680927fddf252ad1be2c89b69c2b068fc378daa952ba7f163c4a11628f55a4df523b3ef5f80a415611f9e57833b6135f85750505050565b613605936112aa93613afd565b613612575f8080806128ae565b6128cb565b6001830161364c815f527f8785b62d5a7098417c833f00e99883e36791da2bbef1ddc66d7797ca0681c2d460205260405f2090565b5415613659575b506135be565b7f8785b62d5a7098417c833f00e99883e36791da2bbef1ddc66d7797ca0681c2d0548114613653576136b2905f527f8785b62d5a7098417c833f00e99883e36791da2bbef1ddc66d7797ca0681c2d460205260405f2090565b555f80613653565b5f90555f61346f565b7f862460a2be1e75f44234ae220583844903aaee6923993409e3eaa0efbd0da84160028154146136f35760029055565b60646040517f08c379a000000000000000000000000000000000000000000000000000000000815260206004820152601d60248201527f5265656e7472616e63794c69623a207265656e7472616e742063616c6c0000006044820152fd5b9061381a60043561376181610513565b60243561376d81610513565b6110aa6044359161377d83610513565b61107e6137886120dd565b604080517f5d14d2851cdedb9567bfa64bf22cff06acc9916f48793dbd0d91cfb15694aa1a6020820190815273ffffffffffffffffffffffffffffffffffffffff98891692820192909252938716606085015295909416608083015260643560a083015260843560c083015260a43560e083015267ffffffffffffffff93909316610100820152918290610120820190565b61382e613828368486610eec565b82613d69565b505073ffffffffffffffffffffffffffffffffffffffff6130e4610fc7612181565b919082039182116129b157565b6040519060c0820182811067ffffffffffffffff821117610ddc576040525f825260208201905f8252604083015f815260608401925f845260808501915f835260a08601945f86526084358511613914576138f6613906926138da8761390f988b526138d0816138cb61218d565b613f98565b8752606435614179565b845273ffffffffffffffffffffffffffffffffffffffff169052565b6138fe61218d565b905190613f98565b80925251613850565b905290565b612be3565b908160209103126101b3575190565b9091949373ffffffffffffffffffffffffffffffffffffffff60243561394d81610513565b1693604051957f70a08231000000000000000000000000000000000000000000000000000000008752306004880152602087602481895afa968715610bb5575f976139f5575b5060200151958681106139ab575b5050505050505050565b86039586116129b1576139e8966139d89487946139c9610fc761218d565b886139d2612181565b91614248565b30906139e2612181565b906142fc565b5f808080808080806139a1565b6020919750613a1990823d8411613a20575b613a118183610e51565b810190613919565b9690613993565b503d613a07565b9060a06122539360808101805180613a44575b505001519161436b565b60408301613a6b73ffffffffffffffffffffffffffffffffffffffff92838351168961436b565b51167f84f6410a16d4c30032a999c71f4e52a8e2a50831c876f14e11161dbe3e7f8423613aaf84519351604051918291868360209093929193604081019481520152565b0390a35f80613a3a565b908160209103126101b357516102c581610189565b3d15613af8573d90613adf82610eb2565b91613aed6040519384610e51565b82523d5f602084013e565b606090565b92602091613b6c935f73ffffffffffffffffffffffffffffffffffffffff604051809781968295847f150b7a02000000000000000000000000000000000000000000000000000000009c8d86523360048701521660248501526044840152608060648401526084830190610258565b0393165af15f9181613bbb575b50613b9557613b86613ace565b80511561361257805190602001fd5b7fffffffff00000000000000000000000000000000000000000000000000000000161490565b613bde91925060203d602011613be5575b613bd68183610e51565b810190613ab9565b905f613b79565b503d613bcc565b613c339073ffffffffffffffffffffffffffffffffffffffff165f527f791cad950d3b9b323a06def8cb8b7bf2c934c7f4cea39385f023ba145f9b93b160205260405f2090565b80545f5b818110613c445750505050565b83613c4f8285612e6d565b919054600392831b1c14613c665750600101613c37565b919293507fffffffffffffffffffffffffffffffffffffffffffffffffffffffffffffffff928381019081116129b157613cb392613ca7612eaa9287612e6d565b9054911b1c9185612e6d565b81548015613cfb570190613cf8613cca8383612e6d565b7fffffffffffffffffffffffffffffffffffffffffffffffffffffffffffffffff82549160031b1b19169055565b55565b7f4e487b71000000000000000000000000000000000000000000000000000000005f52603160045260245ffd5b604290613d33613219565b90604051917f19010000000000000000000000000000000000000000000000000000000000008352600283015260228201522090565b8151919060418303613d9957613d929250602082015190606060408401519301515f1a906143de565b9192909190565b50505f9160029190565b9091813b15613e5f575f918291604051613dfa8161107e60208201947f1626ba7e00000000000000000000000000000000000000000000000000000000998a87526024840152604060448401526064830190610258565b51915afa90613e07613ace565b82613e53575b82613e1757505090565b7fffffffff0000000000000000000000000000000000000000000000000000000091925080602080613e4e93518301019101613ab9565b161490565b80516020149250613e0d565b5050505f90565b519069ffffffffffffffffffff821682036101b357565b908160a09103126101b357613e9181613e66565b916020820151916040810151916102c5608060608401519301613e66565b906402540be400918281029281840414901517156129b157565b90670de0b6b3a7640000918281029281840414901517156129b157565b818102929181159184041417156129b157565b908160209103126101b357516102c581611802565b8115613f18570490565b7f4e487b71000000000000000000000000000000000000000000000000000000005f52601260045260245ffd5b60ff7fffffffffffffffffffffffffffffffffffffffffffffffffffffffffffffffee9116019060ff82116129b157565b60ff166012039060ff82116129b157565b60ff16604d81116129b157600a0a90565b60049060a0614007610fc7610fc7613fed8573ffffffffffffffffffffffffffffffffffffffff165f527f791cad950d3b9b323a06def8cb8b7bf2c934c7f4cea39385f023ba145f9b93b460205260405f2090565b5473ffffffffffffffffffffffffffffffffffffffff1690565b604051938480927ffeaf968c0000000000000000000000000000000000000000000000000000000082525afa918215610bb5575f92614143575b505f82131561413e57602061406a73ffffffffffffffffffffffffffffffffffffffff93613eaf565b916004604051809581937f313ce567000000000000000000000000000000000000000000000000000000008352165afa918215610bb5575f92614107575b506140b66140bb9293613ec9565b613f0e565b9060ff811660128110156140e55750906140df6140da6102c593613f76565b613f87565b90613f0e565b6012101561410357906140fd6140da6102c593613f45565b90613ee6565b5090565b6140bb92506141306140b69160203d602011614137575b6141288183610e51565b810190613ef9565b92506140a8565b503d61411e565b612c0b565b61416691925060a03d60a011614172575b61415e8183610e51565b810190613e7d565b5050509050905f614041565b503d614154565b7f791cad950d3b9b323a06def8cb8b7bf2c934c7f4cea39385f023ba145f9b93b954604080517f2a55205a00000000000000000000000000000000000000000000000000000000815260048101939093526024830193909352909291908390604490829073ffffffffffffffffffffffffffffffffffffffff165afa918215610bb5575f905f9361420957509190565b9250506040823d604011614240575b8161422560409383610e51565b810103126101b357602082519261423b84610513565b015190565b3d9150614218565b9294979693909795919573ffffffffffffffffffffffffffffffffffffffff809416803b156101b3575f9560e49460ff88948b966040519b8c9a8b997fd505accf000000000000000000000000000000000000000000000000000000008b521660048a01523060248a01526044890152606488015216608486015260a485015260c48401525af190816142e9575b506142e4576122539261446d565b505050565b80610ba96142f692610dc8565b5f6142d6565b6040517f23b872dd00000000000000000000000000000000000000000000000000000000602082015273ffffffffffffffffffffffffffffffffffffffff928316602482015292909116604483015260648083019390935291815261225391614366608483610e51565b614583565b9173ffffffffffffffffffffffffffffffffffffffff604051927fa9059cbb000000000000000000000000000000000000000000000000000000006020850152166024830152604482015260448152608081019181831067ffffffffffffffff841117610ddc5761225392604052614583565b91907f7fffffffffffffffffffffffffffffff5d576e7357a4501ddfe92f46681b20a08411614462579160209360809260ff5f9560405194855216868401526040830152606082015282805260015afa15610bb5575f5173ffffffffffffffffffffffffffffffffffffffff81161561445857905f905f90565b505f906001905f90565b5050505f9160039190565b6040517fdd62ed3e00000000000000000000000000000000000000000000000000000000815273ffffffffffffffffffffffffffffffffffffffff83811660048301523060248301526020939216908381604481855afa8015610bb55785915f91614566575b5010614561576040517f70a0823100000000000000000000000000000000000000000000000000000000815273ffffffffffffffffffffffffffffffffffffffff9290921660048301528290829060249082905afa918215610bb5575f92614544575b50501061453f57565b612c5b565b61455a9250803d10613a2057613a118183610e51565b5f80614536565b612c33565b61457d9150853d8711613a2057613a118183610e51565b5f6144d3565b6040516145ed9173ffffffffffffffffffffffffffffffffffffffff166145a982610dfd565b5f806020958685527f5361666545524332303a206c6f772d6c6576656c2063616c6c206661696c656487860152868151910182855af16145e7613ace565b9161469c565b8051806145f957505050565b818391810103126101b35781015161461081611b5f565b156146185750565b608490604051907f08c379a00000000000000000000000000000000000000000000000000000000082526004820152602a60248201527f5361666545524332303a204552433230206f7065726174696f6e20646964206e60448201527f6f742073756363656564000000000000000000000000000000000000000000006064820152fd5b9192901561471757508151156146b0575090565b3b156146b95790565b60646040517f08c379a000000000000000000000000000000000000000000000000000000000815260206004820152601d60248201527f416464726573733a2063616c6c20746f206e6f6e2d636f6e74726163740000006044820152fd5b82519091501561472a5750805190602001fd5b6111e7906040519182917f08c379a0000000000000000000000000000000000000000000000000000000008352600483016102b456fea2646970667358221220a015fd3c203d31a2c09667ce5a6225ce108e6ed71443010c0fdd6e38ccf59deb64736f6c63430008180033",
    "linkReferences": {}
  },
  "methodIdentifiers": {
    "DOMAIN_SEPARATOR()": "3644e515",
    "approve(address,uint256)": "095ea7b3",
    "balanceOf(address)": "70a08231",
    "batchCancelTokenSalesWithPermit((address,uint256,uint256,uint64)[],bytes[])": "8742be81",
    "batchSellTokensWithPermit((address,uint256,uint256,uint256,uint64)[],bytes[],uint256[],bytes[])": "8734aa12",
    "buyTokenWithPermit((address,address,address,uint256,uint256,uint256,uint64),bytes,uint256,uint256,uint8,bytes32,bytes32)": "a033d9ed",
    "cancelTokenSaleWithPermit((address,uint256,uint256,uint64),bytes)": "7dd98451",
    "eip712Domain()": "84b0196e",
    "getApproved(uint256)": "081812fc",
    "isApprovedForAll(address,address)": "e985e9c5",
    "name()": "06fdde03",
    "nonces(uint256)": "141a468c",
    "onERC721Received(address,address,uint256,bytes)": "150b7a02",
    "ownerOf(uint256)": "6352211e",
    "permit(address,uint256,uint256,bytes)": "745a41bc",
    "safeTransferFrom(address,address,uint256)": "42842e0e",
    "safeTransferFrom(address,address,uint256,bytes)": "b88d4fde",
    "sellTokenWithPermit((address,uint256,uint256,uint256,uint64),bytes,uint256,bytes)": "24e79fc2",
    "setApprovalForAll(address,bool)": "a22cb465",
    "supportsInterface(bytes4)": "01ffc9a7",
    "symbol()": "95d89b41",
    "totalSupply()": "18160ddd",
    "transferFrom(address,address,uint256)": "23b872dd"
  },
  "id": 121
}