{"abi":[{"type":"function","name":"approve","inputs":[{"name":"to","type":"address","internalType":"address"},{"name":"tokenId","type":"uint256","internalType":"uint256"}],"outputs":[],"stateMutability":"payable"},{"type":"function","name":"balanceOf","inputs":[{"name":"owner","type":"address","internalType":"address"}],"outputs":[{"name":"","type":"uint256","internalType":"uint256"}],"stateMutability":"view"},{"type":"function","name":"burnToken","inputs":[{"name":"_tokenId","type":"uint256","internalType":"uint256"}],"outputs":[],"stateMutability":"nonpayable"},{"type":"function","name":"getApproved","inputs":[{"name":"tokenId","type":"uint256","internalType":"uint256"}],"outputs":[{"name":"","type":"address","internalType":"address"}],"stateMutability":"view"},{"type":"function","name":"getNextTokenId","inputs":[],"outputs":[{"name":"","type":"uint256","internalType":"uint256"}],"stateMutability":"view"},{"type":"function","name":"getOwnerOf","inputs":[{"name":"_tokenId","type":"uint256","internalType":"uint256"}],"outputs":[{"name":"","type":"address","internalType":"address"}],"stateMutability":"view"},{"type":"function","name":"getTotalSupply","inputs":[],"outputs":[{"name":"","type":"uint256","internalType":"uint256"}],"stateMutability":"view"},{"type":"function","name":"isApprovedForAll","inputs":[{"name":"owner","type":"address","internalType":"address"},{"name":"operator","type":"address","internalType":"address"}],"outputs":[{"name":"","type":"bool","internalType":"bool"}],"stateMutability":"view"},{"type":"function","name":"lockToken","inputs":[{"name":"_tokenId","type":"uint256","internalType":"uint256"}],"outputs":[],"stateMutability":"nonpayable"},{"type":"function","name":"mintBridgeToken","inputs":[{"name":"_to","type":"address","internalType":"address"},{"name":"_tokenId","type":"uint256","internalType":"uint256"},{"name":"_params","type":"tuple","internalType":"struct Genesis.SVGParams","components":[{"name":"hairParams","type":"tuple","internalType":"struct Genesis.HairParams","components":[{"name":"hairStyle","type":"uint8","internalType":"uint8"},{"name":"hairColor","type":"uint8","internalType":"uint8"}]},{"name":"bodyParams","type":"tuple","internalType":"struct Genesis.BodyParams","components":[{"name":"bodyType","type":"uint8","internalType":"uint8"},{"name":"skinColor","type":"uint8","internalType":"uint8"}]},{"name":"clothingParams","type":"tuple","internalType":"struct Genesis.ClothingParams","components":[{"name":"clothes","type":"uint8","internalType":"uint8"},{"name":"clothingColor","type":"uint8","internalType":"uint8"},{"name":"clothesGraphic","type":"uint8","internalType":"uint8"}]},{"name":"facialFeaturesParams","type":"tuple","internalType":"struct Genesis.FacialFeaturesParams","components":[{"name":"eyebrowShape","type":"uint8","internalType":"uint8"},{"name":"eyeShape","type":"uint8","internalType":"uint8"},{"name":"facialHairType","type":"uint8","internalType":"uint8"},{"name":"mouthStyle","type":"uint8","internalType":"uint8"},{"name":"lipColor","type":"uint8","internalType":"uint8"}]},{"name":"accessoryParams","type":"tuple","internalType":"struct Genesis.AccessoryParams","components":[{"name":"accessoryId","type":"uint8","internalType":"uint8"},{"name":"hatStyle","type":"uint8","internalType":"uint8"},{"name":"hatColor","type":"uint8","internalType":"uint8"}]},{"name":"otherParams","type":"tuple","internalType":"struct Genesis.OtherParams","components":[{"name":"faceMask","type":"bool","internalType":"bool"},{"name":"faceMaskColor","type":"uint8","internalType":"uint8"},{"name":"shapes","type":"bool","internalType":"bool"},{"name":"shapeColor","type":"uint8","internalType":"uint8"},{"name":"lashes","type":"bool","internalType":"bool"}]}]},{"name":"_originChainId","type":"uint256","internalType":"uint256"}],"outputs":[],"stateMutability":"nonpayable"},{"type":"function","name":"mintGenesis","inputs":[{"name":"_to","type":"address","internalType":"address"},{"name":"_params","type":"tuple","internalType":"struct Genesis.SVGParams","components":[{"name":"hairParams","type":"tuple","internalType":"struct Genesis.HairParams","components":[{"name":"hairStyle","type":"uint8","internalType":"uint8"},{"name":"hairColor","type":"uint8","internalType":"uint8"}]},{"name":"bodyParams","type":"tuple","internalType":"struct Genesis.BodyParams","components":[{"name":"bodyType","type":"uint8","internalType":"uint8"},{"name":"skinColor","type":"uint8","internalType":"uint8"}]},{"name":"clothingParams","type":"tuple","internalType":"struct Genesis.ClothingParams","components":[{"name":"clothes","type":"uint8","internalType":"uint8"},{"name":"clothingColor","type":"uint8","internalType":"uint8"},{"name":"clothesGraphic","type":"uint8","internalType":"uint8"}]},{"name":"facialFeaturesParams","type":"tuple","internalType":"struct Genesis.FacialFeaturesParams","components":[{"name":"eyebrowShape","type":"uint8","internalType":"uint8"},{"name":"eyeShape","type":"uint8","internalType":"uint8"},{"name":"facialHairType","type":"uint8","internalType":"uint8"},{"name":"mouthStyle","type":"uint8","internalType":"uint8"},{"name":"lipColor","type":"uint8","internalType":"uint8"}]},{"name":"accessoryParams","type":"tuple","internalType":"struct Genesis.AccessoryParams","components":[{"name":"accessoryId","type":"uint8","internalType":"uint8"},{"name":"hatStyle","type":"uint8","internalType":"uint8"},{"name":"hatColor","type":"uint8","internalType":"uint8"}]},{"name":"otherParams","type":"tuple","internalType":"struct Genesis.OtherParams","components":[{"name":"faceMask","type":"bool","internalType":"bool"},{"name":"faceMaskColor","type":"uint8","internalType":"uint8"},{"name":"shapes","type":"bool","internalType":"bool"},{"name":"shapeColor","type":"uint8","internalType":"uint8"},{"name":"lashes","type":"bool","internalType":"bool"}]}]},{"name":"_amount","type":"uint256","internalType":"uint256"},{"name":"_paymentToken","type":"address","internalType":"address"}],"outputs":[{"name":"_tokenId","type":"uint256","internalType":"uint256"}],"stateMutability":"nonpayable"},{"type":"function","name":"name","inputs":[],"outputs":[{"name":"","type":"string","internalType":"string"}],"stateMutability":"view"},{"type":"function","name":"ownerOf","inputs":[{"name":"tokenId","type":"uint256","internalType":"uint256"}],"outputs":[{"name":"","type":"address","internalType":"address"}],"stateMutability":"view"},{"type":"function","name":"safeTransferFrom","inputs":[{"name":"from","type":"address","internalType":"address"},{"name":"to","type":"address","internalType":"address"},{"name":"tokenId","type":"uint256","internalType":"uint256"}],"outputs":[],"stateMutability":"payable"},{"type":"function","name":"safeTransferFrom","inputs":[{"name":"from","type":"address","internalType":"address"},{"name":"to","type":"address","internalType":"address"},{"name":"tokenId","type":"uint256","internalType":"uint256"},{"name":"data","type":"bytes","internalType":"bytes"}],"outputs":[],"stateMutability":"payable"},{"type":"function","name":"setApprovalForAll","inputs":[{"name":"operator","type":"address","internalType":"address"},{"name":"approved","type":"bool","internalType":"bool"}],"outputs":[],"stateMutability":"nonpayable"},{"type":"function","name":"symbol","inputs":[],"outputs":[{"name":"","type":"string","internalType":"string"}],"stateMutability":"view"},{"type":"function","name":"totalSupply","inputs":[],"outputs":[{"name":"","type":"uint256","internalType":"uint256"}],"stateMutability":"view"},{"type":"function","name":"transferFrom","inputs":[{"name":"from","type":"address","internalType":"address"},{"name":"to","type":"address","internalType":"address"},{"name":"tokenId","type":"uint256","internalType":"uint256"}],"outputs":[],"stateMutability":"payable"},{"type":"function","name":"unlockToken","inputs":[{"name":"_tokenId","type":"uint256","internalType":"uint256"}],"outputs":[],"stateMutability":"nonpayable"},{"type":"event","name":"Approval","inputs":[{"name":"owner","type":"address","indexed":true,"internalType":"address"},{"name":"approved","type":"address","indexed":true,"internalType":"address"},{"name":"tokenId","type":"uint256","indexed":true,"internalType":"uint256"}],"anonymous":false},{"type":"event","name":"ApprovalForAll","inputs":[{"name":"owner","type":"address","indexed":true,"internalType":"address"},{"name":"operator","type":"address","indexed":true,"internalType":"address"},{"name":"approved","type":"bool","indexed":false,"internalType":"bool"}],"anonymous":false},{"type":"event","name":"ConsecutiveTransfer","inputs":[{"name":"fromTokenId","type":"uint256","indexed":true,"internalType":"uint256"},{"name":"toTokenId","type":"uint256","indexed":false,"internalType":"uint256"},{"name":"from","type":"address","indexed":true,"internalType":"address"},{"name":"to","type":"address","indexed":true,"internalType":"address"}],"anonymous":false},{"type":"event","name":"MintedGenesis","inputs":[{"name":"owner","type":"address","indexed":true,"internalType":"address"},{"name":"tokenId","type":"uint256","indexed":true,"internalType":"uint256"}],"anonymous":false},{"type":"event","name":"ReturnedToSource","inputs":[{"name":"owner","type":"address","indexed":true,"internalType":"address"},{"name":"tokenId","type":"uint256","indexed":true,"internalType":"uint256"}],"anonymous":false},{"type":"event","name":"TokenBurned","inputs":[{"name":"owner","type":"address","indexed":true,"internalType":"address"},{"name":"tokenId","type":"uint256","indexed":true,"internalType":"uint256"}],"anonymous":false},{"type":"event","name":"Transfer","inputs":[{"name":"from","type":"address","indexed":true,"internalType":"address"},{"name":"to","type":"address","indexed":true,"internalType":"address"},{"name":"tokenId","type":"uint256","indexed":true,"internalType":"uint256"}],"anonymous":false},{"type":"error","name":"ApprovalCallerNotOwnerNorApproved","inputs":[]},{"type":"error","name":"ApprovalQueryForNonexistentToken","inputs":[]},{"type":"error","name":"BalanceQueryForZeroAddress","inputs":[]},{"type":"error","name":"IBeanHeadsBase__InsufficientAllowance","inputs":[]},{"type":"error","name":"IBeanHeadsBase__InsufficientPayment","inputs":[]},{"type":"error","name":"IBeanHeadsBase__InvalidOraclePrice","inputs":[]},{"type":"error","name":"IBeanHeadsBase__NotOwner","inputs":[]},{"type":"error","name":"IBeanHeadsBase__PriceMustBeGreaterThanZero","inputs":[]},{"type":"error","name":"IBeanHeadsBase__TokenDoesNotExist","inputs":[]},{"type":"error","name":"IBeanHeadsBase__TokenIsAlreadyListed","inputs":[]},{"type":"error","name":"IBeanHeadsBase__TokenIsLocked","inputs":[]},{"type":"error","name":"IBeanHeadsBase__TokenIsNotForSale","inputs":[]},{"type":"error","name":"IBeanHeadsBase__TokenNotAllowed","inputs":[{"name":"token","type":"address","internalType":"address"}]},{"type":"error","name":"IBeanHeadsMint__AlreadyLocked","inputs":[]},{"type":"error","name":"IBeanHeadsMint__CannotBurnOriginToken","inputs":[]},{"type":"error","name":"IBeanHeadsMint__InsufficientAllowance","inputs":[]},{"type":"error","name":"IBeanHeadsMint__InsufficientContractBalance","inputs":[]},{"type":"error","name":"IBeanHeadsMint__InsufficientPayment","inputs":[]},{"type":"error","name":"IBeanHeadsMint__InvalidAmount","inputs":[]},{"type":"error","name":"IBeanHeadsMint__InvalidOraclePrice","inputs":[]},{"type":"error","name":"IBeanHeadsMint__MultiHopNotAllowed","inputs":[]},{"type":"error","name":"IBeanHeadsMint__NotLocked","inputs":[]},{"type":"error","name":"IBeanHeadsMint__NotOwner","inputs":[]},{"type":"error","name":"IBeanHeadsMint__NotOwnerOrApproved","inputs":[]},{"type":"error","name":"IBeanHeadsMint__TokenAlreadyExists","inputs":[]},{"type":"error","name":"IBeanHeadsMint__TokenDoesNotExist","inputs":[]},{"type":"error","name":"IBeanHeadsMint__TokenNotAllowed","inputs":[{"name":"token","type":"address","internalType":"address"}]},{"type":"error","name":"IBeanHeadsMint__UnauthorizedBridge","inputs":[]},{"type":"error","name":"InvalidTokenId","inputs":[]},{"type":"error","name":"MintERC2309QuantityExceedsLimit","inputs":[]},{"type":"error","name":"MintToZeroAddress","inputs":[]},{"type":"error","name":"MintZeroQuantity","inputs":[]},{"type":"error","name":"OwnerQueryForNonexistentToken","inputs":[]},{"type":"error","name":"OwnershipNotInitializedForExtraData","inputs":[]},{"type":"error","name":"TokenAlreadyExists","inputs":[]},{"type":"error","name":"TransferCallerNotOwnerNorApproved","inputs":[]},{"type":"error","name":"TransferFromIncorrectOwner","inputs":[]},{"type":"error","name":"TransferToNonERC721ReceiverImplementer","inputs":[]},{"type":"error","name":"TransferToZeroAddress","inputs":[]},{"type":"error","name":"URIQueryForNonexistentToken","inputs":[]}],"bytecode":{"object":"0x608080604052346100165761437c908161001b8239f35b5f80fdfe60806040526004361015610011575f80fd5b5f3560e01c806306fdde031461014f578063081812fc1461014a578063095ea7b31461014557806318160ddd1461014057806323b872dd1461013b5780632c33b9d91461013657806342842e0e146101315780636352211e1461012c57806370a08231146101275780637b47ec1a1461012257806380f203631461011d578063836387101461011857806395d89b4114610113578063a22cb4651461010e578063a462cd4914610109578063b88d4fde14610104578063c4e41b22146100ff578063caa0f92a146100ff578063dd2e0ac0146100fa5763e985e9c5146100f5575f80fd5b611789565b61166d565b611613565b611572565b61138c565b611282565b61115b565b6110fb565b610fdd565b610cd9565b610c02565b610ba8565b610ac1565b610719565b6106d5565b6105f7565b610424565b610360565b6101c4565b91908251928382525f5b84811061019c5750507fffffffffffffffffffffffffffffffffffffffffffffffffffffffffffffffe0601f845f6020809697860101520116010190565b60208183018101518483018201520161015e565b9060206101c1928181520190610154565b90565b3461035c575f7ffffffffffffffffffffffffffffffffffffffffffffffffffffffffffffffffc36011261035c576040515f7f8785b62d5a7098417c833f00e99883e36791da2bbef1ddc66d7797ca0681c2d25460018160011c9160018116918215610352575b6020916020851084146103255784875260208701939081156102e85750600114610270575b61026c86610260818803826114d7565b604051918291826101b0565b0390f35b7f8785b62d5a7098417c833f00e99883e36791da2bbef1ddc66d7797ca0681c2d25f90815294509192917f4eff6dd2ce7e3eed3d8c57a965022ef5c4089064f80bafbcccb1920be91b46a15b8386106102d757505050910190506102608261026c5f610250565b8054858701529482019481016102bc565b7fffffffffffffffffffffffffffffffffffffffffffffffffffffffffffffff0016845250505090151560051b0190506102608261026c5f610250565b7f4e487b71000000000000000000000000000000000000000000000000000000005f52602260045260245ffd5b92607f169261022b565b5f80fd5b3461035c5760207ffffffffffffffffffffffffffffffffffffffffffffffffffffffffffffffffc36011261035c57602061039c600435611822565b73ffffffffffffffffffffffffffffffffffffffff60405191168152f35b6004359073ffffffffffffffffffffffffffffffffffffffff8216820361035c57565b6102c4359073ffffffffffffffffffffffffffffffffffffffff8216820361035c57565b6024359073ffffffffffffffffffffffffffffffffffffffff8216820361035c57565b60407ffffffffffffffffffffffffffffffffffffffffffffffffffffffffffffffffc36011261035c576104566103ba565b6024359073ffffffffffffffffffffffffffffffffffffffff80610479846129a9565b1633036105cf578061048a846129a9565b1691823303610531575b610509816104c9865f527f8785b62d5a7098417c833f00e99883e36791da2bbef1ddc66d7797ca0681c2d660205260405f2090565b9073ffffffffffffffffffffffffffffffffffffffff167fffffffffffffffffffffffff0000000000000000000000000000000000000000825416179055565b16907f8c5be1e5ebec7d5bd14f71427d1e84f3dd0314c0f7b2291e5b200ac8c7c3b9255f80a4005b60ff6105a13361057e8673ffffffffffffffffffffffffffffffffffffffff165f527f8785b62d5a7098417c833f00e99883e36791da2bbef1ddc66d7797ca0681c2d760205260405f2090565b9073ffffffffffffffffffffffffffffffffffffffff165f5260205260405f2090565b5416610494577fcfb3b942000000000000000000000000000000000000000000000000000000005f5260045ffd5b7f0e25afc9000000000000000000000000000000000000000000000000000000005f5260045ffd5b3461035c575f7ffffffffffffffffffffffffffffffffffffffffffffffffffffffffffffffffc36011261035c5760207f8785b62d5a7098417c833f00e99883e36791da2bbef1ddc66d7797ca0681c2d0547f8785b62d5a7098417c833f00e99883e36791da2bbef1ddc66d7797ca0681c2d1549003604051908152f35b7ffffffffffffffffffffffffffffffffffffffffffffffffffffffffffffffffc606091011261035c5773ffffffffffffffffffffffffffffffffffffffff90600435828116810361035c5791602435908116810361035c579060443590565b6106e76106e136610675565b9161189c565b005b7fffffffffffffffffffffffffffffffffffffffffffffffffffffffffffffffdc61028091011261035c57602490565b3461035c576102e07ffffffffffffffffffffffffffffffffffffffffffffffffffffffffffffffffc36011261035c576107516103ba565b61075a366106e9565b906102a4356107676103dd565b908015610abc576107c66107c26107bb8473ffffffffffffffffffffffffffffffffffffffff165f527f791cad950d3b9b323a06def8cb8b7bf2c934c7f4cea39385f023ba145f9b93b260205260405f2090565b5460ff1690565b1590565b610ab75773ffffffffffffffffffffffffffffffffffffffff93848316610817610811847f791cad950d3b9b323a06def8cb8b7bf2c934c7f4cea39385f023ba145f9b93bb54611bf0565b85613000565b906108656107c26107bb3373ffffffffffffffffffffffffffffffffffffffff165f527f791cad950d3b9b323a06def8cb8b7bf2c934c7f4cea39385f023ba145f9b93c260205260405f2090565b15610a3057908161087982610882946132a6565b309033906133a2565b7f8785b62d5a7098417c833f00e99883e36791da2bbef1ddc66d7797ca0681c2d054926108af8386613487565b5f5b8381106108f1576040518061026c87808a8c167f54627187ccac9ad3566355b77d021df78dd877a086fef2e404a7fdaca4e5a6115f80a382526020820190565b806108fe60019287611c46565b61093885610933835f527f791cad950d3b9b323a06def8cb8b7bf2c934c7f4cea39385f023ba145f9b93ae60205260405f2090565b6121e2565b610988610943611518565b5f81525f60208201525f6040820152610983835f527f791cad950d3b9b323a06def8cb8b7bf2c934c7f4cea39385f023ba145f9b93ad60205260405f2090565b61228f565b6109bd846104c9835f527f791cad950d3b9b323a06def8cb8b7bf2c934c7f4cea39385f023ba145f9b93b360205260405f2090565b6109f76109f1825f527f791cad950d3b9b323a06def8cb8b7bf2c934c7f4cea39385f023ba145f9b93af60205260405f2090565b60019055565b610a2946915f527f791cad950d3b9b323a06def8cb8b7bf2c934c7f4cea39385f023ba145f9b93c160205260405f2090565b55016108b1565b6040517f70a0823100000000000000000000000000000000000000000000000000000000815230600482015290602090829060249082905afa908115610ab2575f91610a83575b50101561088257612749565b610aa5915060203d602011610aab575b610a9d81836114d7565b810190611c08565b5f610a77565b503d610a93565b611c17565b612721565b6126f9565b610aca36610675565b73ffffffffffffffffffffffffffffffffffffffff9291928083163314159081610b50575b81610b3b575b50610b13576106e79260405192610b0b8461147e565b5f845261254f565b7ff1ce7c7d000000000000000000000000000000000000000000000000000000005f5260045ffd5b339150610b4783611822565b1614155f610af5565b905060ff610b9f3361057e8673ffffffffffffffffffffffffffffffffffffffff165f527f8785b62d5a7098417c833f00e99883e36791da2bbef1ddc66d7797ca0681c2d760205260405f2090565b54161590610aef565b3461035c5760207ffffffffffffffffffffffffffffffffffffffffffffffffffffffffffffffffc36011261035c57602073ffffffffffffffffffffffffffffffffffffffff610bf96004356129a9565b16604051908152f35b3461035c5760207ffffffffffffffffffffffffffffffffffffffffffffffffffffffffffffffffc36011261035c57610c396103ba565b73ffffffffffffffffffffffffffffffffffffffff811615610cb15767ffffffffffffffff610ca760209273ffffffffffffffffffffffffffffffffffffffff165f527f8785b62d5a7098417c833f00e99883e36791da2bbef1ddc66d7797ca0681c2d560205260405f2090565b5416604051908152f35b7f8f4eb604000000000000000000000000000000000000000000000000000000005f5260045ffd5b3461035c5760207ffffffffffffffffffffffffffffffffffffffffffffffffffffffffffffffffc36011261035c57600435610d1481612643565b15610fb55760ff610d623373ffffffffffffffffffffffffffffffffffffffff165f527f791cad950d3b9b323a06def8cb8b7bf2c934c7f4cea39385f023ba145f9b93c260205260405f2090565b541615610f8d57610d94610d7b610d7b610d7b846129a9565b73ffffffffffffffffffffffffffffffffffffffff1690565b3303610f8857610dcb815f527f791cad950d3b9b323a06def8cb8b7bf2c934c7f4cea39385f023ba145f9b93c160205260405f2090565b544614610f8357610ddb81613696565b610e32610e0f825f527f791cad950d3b9b323a06def8cb8b7bf2c934c7f4cea39385f023ba145f9b93ae60205260405f2090565b60055f918281558260018201558260028201558260038201558260048201550155565b610e77610e66825f527f791cad950d3b9b323a06def8cb8b7bf2c934c7f4cea39385f023ba145f9b93ad60205260405f2090565b60025f918281558260018201550155565b610ed3610eab825f527f791cad950d3b9b323a06def8cb8b7bf2c934c7f4cea39385f023ba145f9b93b360205260405f2090565b7fffffffffffffffffffffffff00000000000000000000000000000000000000008154169055565b5f8181527f791cad950d3b9b323a06def8cb8b7bf2c934c7f4cea39385f023ba145f9b93c16020526040812055610f5c610f34825f527f791cad950d3b9b323a06def8cb8b7bf2c934c7f4cea39385f023ba145f9b93c060205260405f2090565b7fffffffffffffffffffffffffffffffffffffffffffffffffffffffffffffff008154169055565b337f1af5163f80e79b5e554f61e1d052084d3a3fe1166e42a265798c4e2ddce8ffa25f80a3005b612771565b6105cf565b7fd8b7de09000000000000000000000000000000000000000000000000000000005f5260045ffd5b7f687e1724000000000000000000000000000000000000000000000000000000005f5260045ffd5b3461035c5760207ffffffffffffffffffffffffffffffffffffffffffffffffffffffffffffffffc36011261035c5760043560ff6110583373ffffffffffffffffffffffffffffffffffffffff165f527f791cad950d3b9b323a06def8cb8b7bf2c934c7f4cea39385f023ba145f9b93c260205260405f2090565b541615610f8d5761106881612643565b15610fb557805f527f791cad950d3b9b323a06def8cb8b7bf2c934c7f4cea39385f023ba145f9b93c060205260ff60405f2054166110d3575f5260405f2060017fffffffffffffffffffffffffffffffffffffffffffffffffffffffffffffff008254161790555f80f35b7f24cc4ee6000000000000000000000000000000000000000000000000000000005f5260045ffd5b3461035c5760207ffffffffffffffffffffffffffffffffffffffffffffffffffffffffffffffffc36011261035c5760043561113681612643565b15610fb55773ffffffffffffffffffffffffffffffffffffffff610bf96020926129a9565b3461035c575f7ffffffffffffffffffffffffffffffffffffffffffffffffffffffffffffffffc36011261035c576040515f7f8785b62d5a7098417c833f00e99883e36791da2bbef1ddc66d7797ca0681c2d35460018160011c916001811691821561126e575b6020916020851084146103255784875260208701939081156102e857506001146111f65761026c86610260818803826114d7565b7f8785b62d5a7098417c833f00e99883e36791da2bbef1ddc66d7797ca0681c2d35f90815294509192917feab2a30426a14f07ecdc76635cd0729eb655bee4c9d04a8fb1b5d85c28c9dae35b83861061125d57505050910190506102608261026c5f610250565b805485870152948201948101611242565b92607f16926111c2565b8015150361035c57565b3461035c5760407ffffffffffffffffffffffffffffffffffffffffffffffffffffffffffffffffc36011261035c576112b96103ba565b73ffffffffffffffffffffffffffffffffffffffff602435916112db83611278565b61135a8361132a8361057e3373ffffffffffffffffffffffffffffffffffffffff165f527f8785b62d5a7098417c833f00e99883e36791da2bbef1ddc66d7797ca0681c2d760205260405f2090565b9060ff7fffffffffffffffffffffffffffffffffffffffffffffffffffffffffffffff0083541691151516179055565b604051921515835216907f17307eab39ab6107e8899845ad3d59bd9653f200f220920489ca2b5937696c3160203392a3005b3461035c576102e07ffffffffffffffffffffffffffffffffffffffffffffffffffffffffffffffffc36011261035c576113c46103ba565b6102807fffffffffffffffffffffffffffffffffffffffffffffffffffffffffffffffbc36011261035c5760ff6114383373ffffffffffffffffffffffffffffffffffffffff165f527f791cad950d3b9b323a06def8cb8b7bf2c934c7f4cea39385f023ba145f9b93c260205260405f2090565b541615610f8d576106e7906102c4359060243590612345565b7f4e487b71000000000000000000000000000000000000000000000000000000005f52604160045260245ffd5b6020810190811067ffffffffffffffff82111761149a57604052565b611451565b60a0810190811067ffffffffffffffff82111761149a57604052565b6040810190811067ffffffffffffffff82111761149a57604052565b90601f7fffffffffffffffffffffffffffffffffffffffffffffffffffffffffffffffe0910116810190811067ffffffffffffffff82111761149a57604052565b604051906060820182811067ffffffffffffffff82111761149a57604052565b67ffffffffffffffff811161149a57601f017fffffffffffffffffffffffffffffffffffffffffffffffffffffffffffffffe01660200190565b60807ffffffffffffffffffffffffffffffffffffffffffffffffffffffffffffffffc36011261035c576115a46103ba565b6115ac610401565b6064359167ffffffffffffffff831161035c573660238401121561035c578260040135916115d983611538565b926115e760405194856114d7565b808452366024828701011161035c576020815f9260246106e7980183880137850101526044359161254f565b3461035c575f7ffffffffffffffffffffffffffffffffffffffffffffffffffffffffffffffffc36011261035c5760207f8785b62d5a7098417c833f00e99883e36791da2bbef1ddc66d7797ca0681c2d054604051908152f35b3461035c5760207ffffffffffffffffffffffffffffffffffffffffffffffffffffffffffffffffc36011261035c5760043560ff6116e83373ffffffffffffffffffffffffffffffffffffffff165f527f791cad950d3b9b323a06def8cb8b7bf2c934c7f4cea39385f023ba145f9b93c260205260405f2090565b541615610f8d576116f881612643565b15610fb557805f527f791cad950d3b9b323a06def8cb8b7bf2c934c7f4cea39385f023ba145f9b93c060205260ff60405f20541615611761575f5260405f207fffffffffffffffffffffffffffffffffffffffffffffffffffffffffffffff0081541690555f80f35b7fe64eb0c4000000000000000000000000000000000000000000000000000000005f5260045ffd5b3461035c5760407ffffffffffffffffffffffffffffffffffffffffffffffffffffffffffffffffc36011261035c57602060ff6118166117c76103ba565b61057e6117d2610401565b9173ffffffffffffffffffffffffffffffffffffffff165f527f8785b62d5a7098417c833f00e99883e36791da2bbef1ddc66d7797ca0681c2d760205260405f2090565b54166040519015158152f35b61182b81612643565b15611874575f527f8785b62d5a7098417c833f00e99883e36791da2bbef1ddc66d7797ca0681c2d660205273ffffffffffffffffffffffffffffffffffffffff60405f20541690565b7fcf4700e4000000000000000000000000000000000000000000000000000000005f5260045ffd5b9190916118a8826129a9565b9273ffffffffffffffffffffffffffffffffffffffff809216938483821603611bbe575f8481527f8785b62d5a7098417c833f00e99883e36791da2bbef1ddc66d7797ca0681c2d660205260409020805461191f73ffffffffffffffffffffffffffffffffffffffff881633908114908314171590565b611b63575b61192f868589612ba8565b611b5a575b5061197c8573ffffffffffffffffffffffffffffffffffffffff165f527f8785b62d5a7098417c833f00e99883e36791da2bbef1ddc66d7797ca0681c2d560205260405f2090565b80547fffffffffffffffffffffffffffffffffffffffffffffffffffffffffffffffff0190556119e98273ffffffffffffffffffffffffffffffffffffffff165f527f8785b62d5a7098417c833f00e99883e36791da2bbef1ddc66d7797ca0681c2d560205260405f2090565b8054600101905573ffffffffffffffffffffffffffffffffffffffff82164260a01b177c020000000000000000000000000000000000000000000000000000000017611a5c855f527f8785b62d5a7098417c833f00e99883e36791da2bbef1ddc66d7797ca0681c2d460205260405f2090565b557c0200000000000000000000000000000000000000000000000000000000811615611ab7575b501680927fddf252ad1be2c89b69c2b068fc378daa952ba7f163c4a11628f55a4df523b3ef5f80a415611ab257565b6127e9565b60018401611aec815f527f8785b62d5a7098417c833f00e99883e36791da2bbef1ddc66d7797ca0681c2d460205260405f2090565b5415611af9575b50611a83565b7f8785b62d5a7098417c833f00e99883e36791da2bbef1ddc66d7797ca0681c2d0548114611af357611b52905f527f8785b62d5a7098417c833f00e99883e36791da2bbef1ddc66d7797ca0681c2d460205260405f2090565b555f80611af3565b5f90555f611934565b611bb46107c26107bb3361057e8b73ffffffffffffffffffffffffffffffffffffffff165f527f8785b62d5a7098417c833f00e99883e36791da2bbef1ddc66d7797ca0681c2d760205260405f2090565b15611924576127c1565b612799565b7f4e487b71000000000000000000000000000000000000000000000000000000005f52601160045260245ffd5b81810292918115918404141715611c0357565b611bc3565b9081602091031261035c575190565b6040513d5f823e3d90fd5b9060018201809211611c0357565b90680100000000000000018201809211611c0357565b91908201809211611c0357565b60ff81160361035c57565b611cdf90611c9f608435611c7181611c53565b829060ff167fffffffffffffffffffffffffffffffffffffffffffffffffffffffffffffff00825416179055565b60a43590611cac82611c53565b907fffffffffffffffffffffffffffffffffffffffffffffffffffffffffffff00ff61ff0083549260081b169116179055565b565b6020611cdf92611d238135611cf581611c53565b849060ff167fffffffffffffffffffffffffffffffffffffffffffffffffffffffffffffff00825416179055565b013590611cac82611c53565b9055565b611d4260c435611c7181611c53565b611d8460e435611d5181611c53565b82547fffffffffffffffffffffffffffffffffffffffffffffffffffffffffffff00ff1660089190911b61ff0016178255565b611d2f60ff61010435611d9681611c53565b83547fffffffffffffffffffffffffffffffffffffffffffffffffffffffffff00ffff16911660101b62ff0000161790565b611dd86101c435611c7181611c53565b611de86101e435611d5181611c53565b611d2f60ff61020435611d9681611c53565b9060ff6040611d2f92611e3f8135611e1181611c53565b869060ff167fffffffffffffffffffffffffffffffffffffffffffffffffffffffffffffff00825416179055565b611e836020820135611e5081611c53565b86547fffffffffffffffffffffffffffffffffffffffffffffffffffffffffffff00ff1660089190911b61ff0016178655565b0135611d9681611c53565b611ecf61022435611e9e81611278565b829060ff7fffffffffffffffffffffffffffffffffffffffffffffffffffffffffffffff0083541691151516179055565b611edf61024435611d5181611c53565b611f2261026435611eef81611278565b82547fffffffffffffffffffffffffffffffffffffffffffffffffffffffffff00ffff1690151560101b62ff0000161790565b8155611f6961028435611f3481611c53565b82547fffffffffffffffffffffffffffffffffffffffffffffffffffffffff00ffffff1660189190911b63ff00000016178255565b611d2f6102a435611f7981611278565b82547fffffffffffffffffffffffffffffffffffffffffffffffffffffff00ffffffff1690151560201b64ff00000000161790565b906080611d2f91611ff48135611fc381611278565b859060ff7fffffffffffffffffffffffffffffffffffffffffffffffffffffffffffffff0083541691151516179055565b612038602082013561200581611c53565b85547fffffffffffffffffffffffffffffffffffffffffffffffffffffffffffff00ff1660089190911b61ff0016178555565b61207c604082013561204981611278565b85547fffffffffffffffffffffffffffffffffffffffffffffffffffffffffff00ffff1690151560101b62ff0000161790565b84556120c4606082013561208f81611c53565b85547fffffffffffffffffffffffffffffffffffffffffffffffffffffffff00ffffff1660189190911b63ff00000016178555565b0135611f7981611278565b6005611cdf916120e4604435611c7181611c53565b6120f3606435611d5181611c53565b6120ff60018201611c5e565b61210b60028201611d33565b6003810161211f61012435611c7181611c53565b61212f61014435611d5181611c53565b6121786101643561213f81611c53565b82805490917fffffffffffffffffffffffffffffffffffffffffffffffffffffffffff00ffff90911660109190911b62ff000016179055565b61218861018435611f3481611c53565b6121ce60ff6101a43561219a81611c53565b83547fffffffffffffffffffffffffffffffffffffffffffffffffffffff00ffffffff16911660201b64ff00000000161790565b90556121dc60048201611dc8565b01611e8e565b60056101e0611cdf936121f58185611ce1565b6122056040820160018601611ce1565b6122156080820160028601611dfa565b6003840161222a60e0830135611c7181611c53565b61223c610100830135611d5181611c53565b61224e61012083013561213f81611c53565b612260610140830135611f3481611c53565b61227460ff61016084013561219a81611c53565b9055612287610180820160048601611dfa565b019101611fae565b60026040611cdf936122f373ffffffffffffffffffffffffffffffffffffffff825116859073ffffffffffffffffffffffffffffffffffffffff167fffffffffffffffffffffffff0000000000000000000000000000000000000000825416179055565b602081015160018501550151151591019060ff7fffffffffffffffffffffffffffffffffffffffffffffffffffffffffffffff0083541691151516179055565b604051906123408261147e565b5f8252565b91909161235183612643565b61246957612386835f527f791cad950d3b9b323a06def8cb8b7bf2c934c7f4cea39385f023ba145f9b93c160205260405f2090565b5491821592818415918261245e575b50506124595773ffffffffffffffffffffffffffffffffffffffff92612421575b506123c18382613c69565b6123fa6123f5845f527f791cad950d3b9b323a06def8cb8b7bf2c934c7f4cea39385f023ba145f9b93ae60205260405f2090565b6120cf565b167f54627187ccac9ad3566355b77d021df78dd877a086fef2e404a7fdaca4e5a6115f80a3565b612452845f527f791cad950d3b9b323a06def8cb8b7bf2c934c7f4cea39385f023ba145f9b93c160205260405f2090565b555f6123b6565b612811565b14159050815f612395565b90506124a26107c26107bb845f527f791cad950d3b9b323a06def8cb8b7bf2c934c7f4cea39385f023ba145f9b93c060205260405f2090565b61254a576124da610f34835f527f791cad950d3b9b323a06def8cb8b7bf2c934c7f4cea39385f023ba145f9b93c060205260405f2090565b6124e9610d7b610d7b846129a9565b9073ffffffffffffffffffffffffffffffffffffffff91828116612530575b50167f482469ed6d6f56569ed4bc4a5adc86cc115c7e09c1f5574b36d53373cdac21965f80a3565b61254490848361253e612333565b92613997565b5f612508565b611761565b92919073ffffffffffffffffffffffffffffffffffffffff80851633141590816125eb575b816125d6575b50610b135761258a82828661189c565b803b612597575b50505050565b6125a093614228565b156125ae575f808080612591565b7fd1a57ed6000000000000000000000000000000000000000000000000000000005f5260045ffd5b3391506125e284611822565b1614155f61257a565b905060ff61263a3361057e8873ffffffffffffffffffffffffffffffffffffffff165f527f8785b62d5a7098417c833f00e99883e36791da2bbef1ddc66d7797ca0681c2d760205260405f2090565b54161590612574565b905f917f8785b62d5a7098417c833f00e99883e36791da2bbef1ddc66d7797ca0681c2d05481106126715750565b9091505b805f527f8785b62d5a7098417c833f00e99883e36791da2bbef1ddc66d7797ca0681c2d460205260405f2054806126d457508015611c03577fffffffffffffffffffffffffffffffffffffffffffffffffffffffffffffffff01612675565b7c01000000000000000000000000000000000000000000000000000000009150161590565b7f28b4d3d1000000000000000000000000000000000000000000000000000000005f5260045ffd5b7f3e48f451000000000000000000000000000000000000000000000000000000005f5260045ffd5b7f9bd8c57b000000000000000000000000000000000000000000000000000000005f5260045ffd5b7f65803194000000000000000000000000000000000000000000000000000000005f5260045ffd5b7fa1148100000000000000000000000000000000000000000000000000000000005f5260045ffd5b7f59c896be000000000000000000000000000000000000000000000000000000005f5260045ffd5b7fea553b34000000000000000000000000000000000000000000000000000000005f5260045ffd5b7f96ed3a18000000000000000000000000000000000000000000000000000000005f5260045ffd5b7fdf2d9b42000000000000000000000000000000000000000000000000000000005f5260045ffd5b7f0fb51c13000000000000000000000000000000000000000000000000000000005f5260045ffd5b7fd5a6b05d000000000000000000000000000000000000000000000000000000005f5260045ffd5b7f59ca34d4000000000000000000000000000000000000000000000000000000005f5260045ffd5b7fbf79ab09000000000000000000000000000000000000000000000000000000005f5260045ffd5b7fef07d5e4000000000000000000000000000000000000000000000000000000005f5260045ffd5b7fb562e8dd000000000000000000000000000000000000000000000000000000005f5260045ffd5b7f2e076300000000000000000000000000000000000000000000000000000000005f5260045ffd5b5f805260045ffd5b7fc991cbb1000000000000000000000000000000000000000000000000000000005f5260045ffd5b6129da815f527f8785b62d5a7098417c833f00e99883e36791da2bbef1ddc66d7797ca0681c2d460205260405f2090565b54908115612a0a57507c010000000000000000000000000000000000000000000000000000000081166128395790565b90507f8785b62d5a7098417c833f00e99883e36791da2bbef1ddc66d7797ca0681c2d054811015612839577fffffffffffffffffffffffffffffffffffffffffffffffffffffffffffffffff905b01612a8a815f527f8785b62d5a7098417c833f00e99883e36791da2bbef1ddc66d7797ca0681c2d460205260405f2090565b54908115612ae057507c01000000000000000000000000000000000000000000000000000000008116156101c1577fdf2d9b42000000000000000000000000000000000000000000000000000000005f5260045ffd5b7fffffffffffffffffffffffffffffffffffffffffffffffffffffffffffffffff9150612a58565b8054821015612b1d575f5260205f2001905f90565b7f4e487b71000000000000000000000000000000000000000000000000000000005f52603260045260245ffd5b908154916801000000000000000083101561149a5782612b72916001611cdf95018155612b08565b9091907fffffffffffffffffffffffffffffffffffffffffffffffffffffffffffffffff83549160031b92831b921b1916179055565b9190915f5b60018110612c7d575073ffffffffffffffffffffffffffffffffffffffff90818116612c51575b508216612bdf575050565b5f5b60018110612bee57505050565b600190612c4b612c3b8573ffffffffffffffffffffffffffffffffffffffff165f527f791cad950d3b9b323a06def8cb8b7bf2c934c7f4cea39385f023ba145f9b93b160205260405f2090565b612c458386611c46565b90612b4a565b01612be1565b5f5b60018110612c615750612bd4565b80612c77612c7160019387611c46565b84613eb0565b01612c53565b612c878184611c46565b73ffffffffffffffffffffffffffffffffffffffff831615159081612cb9575b50612cb457600101612bad565b612861565b612cef91506107bb905f527f791cad950d3b9b323a06def8cb8b7bf2c934c7f4cea39385f023ba145f9b93c060205260405f2090565b5f612ca7565b9190915f5b828110612d96575073ffffffffffffffffffffffffffffffffffffffff8116612d2257505050565b5f5b828110612d315750505050565b612d788273ffffffffffffffffffffffffffffffffffffffff165f527f791cad950d3b9b323a06def8cb8b7bf2c934c7f4cea39385f023ba145f9b93b160205260405f2090565b9080850191828611611c0357600192612d9091612b4a565b01612d24565b8084018411611c0357600101612cfa565b5f5b60018110612df6575073ffffffffffffffffffffffffffffffffffffffff8116612dd1575050565b5f5b60018110612de057505050565b80612df0612c7160019386611c46565b01612dd3565b612e008184611c46565b73ffffffffffffffffffffffffffffffffffffffff831615159081612e2d575b50612cb457600101612da9565b612e6391506107bb905f527f791cad950d3b9b323a06def8cb8b7bf2c934c7f4cea39385f023ba145f9b93c060205260405f2090565b5f612e20565b5f5b60018110612f07575073ffffffffffffffffffffffffffffffffffffffff8116612e93575050565b5f5b60018110612ea257505050565b612ee98273ffffffffffffffffffffffffffffffffffffffff165f527f791cad950d3b9b323a06def8cb8b7bf2c934c7f4cea39385f023ba145f9b93b160205260405f2090565b9080840191828511611c0357600192612f0191612b4a565b01612e95565b8083018311611c0357600101612e6b565b519069ffffffffffffffffffff8216820361035c57565b908160a091031261035c57612f4381612f18565b916020820151916040810151916101c1608060608401519301612f18565b9081602091031261035c57516101c181611c53565b60ff16604d8111611c0357600a0a90565b8115612f91570490565b7f4e487b71000000000000000000000000000000000000000000000000000000005f52601260045260245ffd5b60ff166012039060ff8211611c0357565b60ff7fffffffffffffffffffffffffffffffffffffffffffffffffffffffffffffffee9116019060ff8211611c0357565b9073ffffffffffffffffffffffffffffffffffffffff8061307b6130618573ffffffffffffffffffffffffffffffffffffffff165f527f791cad950d3b9b323a06def8cb8b7bf2c934c7f4cea39385f023ba145f9b93b460205260405f2090565b5473ffffffffffffffffffffffffffffffffffffffff1690565b16156132a1576130d1610d7b610d7b6130618673ffffffffffffffffffffffffffffffffffffffff165f527f791cad950d3b9b323a06def8cb8b7bf2c934c7f4cea39385f023ba145f9b93b460205260405f2090565b92604051907ffeaf968c00000000000000000000000000000000000000000000000000000000825260a082600481885afa918215610ab2575f925f935f925f92613266575b505f85139283159361325d575b508215613243575b505061323e5760405193847f313ce567000000000000000000000000000000000000000000000000000000009687825281600460209889935afa938415610ab25761318e6004936131888997613193955f91613221575b50612f76565b90611bf0565b612f87565b9560405194859384928352165afa918215610ab2575f926131f4575b505060ff8116601281106131dd576012106131c8575090565b906131886131d86101c193612fcf565b612f76565b50906131ee6131d86101c193612fbe565b90612f87565b6132139250803d1061321a575b61320b81836114d7565b810190612f61565b5f806131af565b503d613201565b6132389150893d8b1161321a5761320b81836114d7565b5f613182565b6128b1565b69ffffffffffffffffffff90811691161090505f8061312b565b1592505f613123565b9250505061328d91925060a03d60a01161329a575b61328581836114d7565b810190612f2f565b929493909291505f613116565b503d61327b565b612889565b6040517fdd62ed3e00000000000000000000000000000000000000000000000000000000815233600482015230602482015260209173ffffffffffffffffffffffffffffffffffffffff16908281604481855afa8015610ab25784915f91613385575b5010613380576040517f70a08231000000000000000000000000000000000000000000000000000000008152336004820152908290829060249082905afa918215610ab2575f92613363575b50501061335e57565b612901565b6133799250803d10610aab57610a9d81836114d7565b5f80613355565b6128d9565b61339c9150843d8611610aab57610a9d81836114d7565b5f613309565b5f61345a949381926040519560208701957f23b872dd00000000000000000000000000000000000000000000000000000000875273ffffffffffffffffffffffffffffffffffffffff938480921660248a015216604488015260648701526064865261340d8661149f565b16926040519461341c866114bb565b602086527f5361666545524332303a206c6f772d6c6576656c2063616c6c206661696c65646020870152519082855af1613454614123565b9161427e565b805180613465575050565b816020918101031261035c576020611cdf91015161348281611278565b613fec565b6040516134938161147e565b5f81527f8785b62d5a7098417c833f00e99883e36791da2bbef1ddc66d7797ca0681c2d0918254908415613691576134cc858383612cf5565b60019173ffffffffffffffffffffffffffffffffffffffff82164260a01b87851460e11b1717613523825f527f8785b62d5a7098417c833f00e99883e36791da2bbef1ddc66d7797ca0681c2d460205260405f2090565b5561356b8273ffffffffffffffffffffffffffffffffffffffff165f527f8785b62d5a7098417c833f00e99883e36791da2bbef1ddc66d7797ca0681c2d560205260405f2090565b680100000000000000018702815401905573ffffffffffffffffffffffffffffffffffffffff8216801561368c5786820191908480805b61363d575b505050506135d3907f8785b62d5a7098417c833f00e99883e36791da2bbef1ddc66d7797ca0681c2d055565b803b6135e1575b5050505050565b83549485039180805b613609575b50505050505403613604575f808080806135da565b612979565b15613630575b5f6136216107c2868487019686614152565b61362b57816135ea565b6125ae565b85831061360f57806135ef565b15613674575b505f8583835f7fddf252ad1be2c89b69c2b068fc378daa952ba7f163c4a11628f55a4df523b3ef8180a490816135a2565b909101908282146136855784613643565b84816135a7565b612951565b612929565b61369f816129a9565b73ffffffffffffffffffffffffffffffffffffffff81166136ea835f527f8785b62d5a7098417c833f00e99883e36791da2bbef1ddc66d7797ca0681c2d660205260405f2090815490565b929061371273ffffffffffffffffffffffffffffffffffffffff841633908114908614171590565b61393c575b5f936137238685612da7565b613933575b506137708273ffffffffffffffffffffffffffffffffffffffff165f527f8785b62d5a7098417c833f00e99883e36791da2bbef1ddc66d7797ca0681c2d560205260405f2090565b80546fffffffffffffffffffffffffffffffff01905573ffffffffffffffffffffffffffffffffffffffff82164260a01b177c0300000000000000000000000000000000000000000000000000000000176137f2855f527f8785b62d5a7098417c833f00e99883e36791da2bbef1ddc66d7797ca0681c2d460205260405f2090565b557c0200000000000000000000000000000000000000000000000000000000811615613890575b507fddf252ad1be2c89b69c2b068fc378daa952ba7f163c4a11628f55a4df523b3ef8280a4611cdf61386c7f8785b62d5a7098417c833f00e99883e36791da2bbef1ddc66d7797ca0681c2d15460010190565b7f8785b62d5a7098417c833f00e99883e36791da2bbef1ddc66d7797ca0681c2d155565b600184016138c5815f527f8785b62d5a7098417c833f00e99883e36791da2bbef1ddc66d7797ca0681c2d460205260405f2090565b54156138d2575b50613819565b7f8785b62d5a7098417c833f00e99883e36791da2bbef1ddc66d7797ca0681c2d05481146138cc5761392b905f527f8785b62d5a7098417c833f00e99883e36791da2bbef1ddc66d7797ca0681c2d460205260405f2090565b555f806138cc565b8390555f613728565b61398d6107c26107bb3361057e8773ffffffffffffffffffffffffffffffffffffffff165f527f8785b62d5a7098417c833f00e99883e36791da2bbef1ddc66d7797ca0681c2d760205260405f2090565b15613717576127c1565b919290926139a4816129a9565b73ffffffffffffffffffffffffffffffffffffffff90818516918281831603611bbe5783916139fd835f527f8785b62d5a7098417c833f00e99883e36791da2bbef1ddc66d7797ca0681c2d660205260405f2090815490565b613a08858b88612ba8565b613c53575b50613a558473ffffffffffffffffffffffffffffffffffffffff165f527f8785b62d5a7098417c833f00e99883e36791da2bbef1ddc66d7797ca0681c2d560205260405f2090565b80547fffffffffffffffffffffffffffffffffffffffffffffffffffffffffffffffff019055613ac28873ffffffffffffffffffffffffffffffffffffffff165f527f8785b62d5a7098417c833f00e99883e36791da2bbef1ddc66d7797ca0681c2d560205260405f2090565b8054600101905573ffffffffffffffffffffffffffffffffffffffff88164260a01b177c020000000000000000000000000000000000000000000000000000000017613b35845f527f8785b62d5a7098417c833f00e99883e36791da2bbef1ddc66d7797ca0681c2d460205260405f2090565b557c0200000000000000000000000000000000000000000000000000000000811615613bb0575b50861680927fddf252ad1be2c89b69c2b068fc378daa952ba7f163c4a11628f55a4df523b3ef5f80a415611ab257833b613b965750505050565b613ba3936107c293614228565b61362b575f808080612591565b60018301613be5815f527f8785b62d5a7098417c833f00e99883e36791da2bbef1ddc66d7797ca0681c2d460205260405f2090565b5415613bf2575b50613b5c565b7f8785b62d5a7098417c833f00e99883e36791da2bbef1ddc66d7797ca0681c2d0548114613bec57613c4b905f527f8785b62d5a7098417c833f00e99883e36791da2bbef1ddc66d7797ca0681c2d460205260405f2090565b555f80613bec565b5f90555f613a0d565b91908203918211611c0357565b73ffffffffffffffffffffffffffffffffffffffff811691821561368c577f8785b62d5a7098417c833f00e99883e36791da2bbef1ddc66d7797ca0681c2d0805493848310613eab57613d8c848493611cdf97613cc986613dc299612e69565b613cd38187613c5c565b80613de6575b50505073ffffffffffffffffffffffffffffffffffffffff81164260a01b177c020000000000000000000000000000000000000000000000000000000017613d48855f527f8785b62d5a7098417c833f00e99883e36791da2bbef1ddc66d7797ca0681c2d460205260405f2090565b5573ffffffffffffffffffffffffffffffffffffffff165f527f8785b62d5a7098417c833f00e99883e36791da2bbef1ddc66d7797ca0681c2d560205260405f2090565b613d968154611c30565b90555f7fddf252ad1be2c89b69c2b068fc378daa952ba7f163c4a11628f55a4df523b3ef8180a4611c22565b7f8785b62d5a7098417c833f00e99883e36791da2bbef1ddc66d7797ca0681c2d055565b613e9a92613dc29260018303613ea257613e657c02000000000000000000000000000000000000000000000000000000005b7c010000000000000000000000000000000000000000000000000000000017915f527f8785b62d5a7098417c833f00e99883e36791da2bbef1ddc66d7797ca0681c2d460205260405f2090565b55613e9461386c837f8785b62d5a7098417c833f00e99883e36791da2bbef1ddc66d7797ca0681c2d154611c46565b54611c46565b5f8080613cd9565b613e655f613e18565b612981565b613ef79073ffffffffffffffffffffffffffffffffffffffff165f527f791cad950d3b9b323a06def8cb8b7bf2c934c7f4cea39385f023ba145f9b93b160205260405f2090565b80545f5b818110613f085750505050565b83613f138285612b08565b919054600392831b1c14613f2a5750600101613efb565b919293507fffffffffffffffffffffffffffffffffffffffffffffffffffffffffffffffff92838101908111611c0357613f7792613f6b612b729287612b08565b9054911b1c9185612b08565b81548015613fbf570190613fbc613f8e8383612b08565b7fffffffffffffffffffffffffffffffffffffffffffffffffffffffffffffffff82549160031b1b19169055565b55565b7f4e487b71000000000000000000000000000000000000000000000000000000005f52603160045260245ffd5b15613ff357565b60846040517f08c379a000000000000000000000000000000000000000000000000000000000815260206004820152602a60248201527f5361666545524332303a204552433230206f7065726174696f6e20646964206e60448201527f6f742073756363656564000000000000000000000000000000000000000000006064820152fd5b9081602091031261035c57517fffffffff000000000000000000000000000000000000000000000000000000008116810361035c5790565b6101c1939273ffffffffffffffffffffffffffffffffffffffff6080931682525f602083015260408201528160608201520190610154565b90926101c1949360809373ffffffffffffffffffffffffffffffffffffffff809216845216602083015260408201528160608201520190610154565b3d1561414d573d9061413482611538565b9161414260405193846114d7565b82523d5f602084013e565b606090565b6141a860209173ffffffffffffffffffffffffffffffffffffffff93945f6040519586809581947f150b7a02000000000000000000000000000000000000000000000000000000009a8b845233600485016140af565b0393165af15f91816141f7575b506141d1576141c2614123565b8051156125ae57805190602001fd5b7fffffffff00000000000000000000000000000000000000000000000000000000161490565b61421a91925060203d602011614221575b61421281836114d7565b810190614077565b905f6141b5565b503d614208565b926020916141a8935f73ffffffffffffffffffffffffffffffffffffffff6040518097819682957f150b7a02000000000000000000000000000000000000000000000000000000009b8c855233600486016140e7565b919290156142f95750815115614292575090565b3b1561429b5790565b60646040517f08c379a000000000000000000000000000000000000000000000000000000000815260206004820152601d60248201527f416464726573733a2063616c6c20746f206e6f6e2d636f6e74726163740000006044820152fd5b82519091501561430c5750805190602001fd5b614342906040519182917f08c379a0000000000000000000000000000000000000000000000000000000008352600483016101b0565b0390fdfea264697066735822122028f58cf9e4ada76a942db6457020ed5d89e4bbdadf44a7282ec56eaeda2465fa64736f6c63430008180033","linkReferences":{}},"methodIdentifiers":{"approve(address,uint256)":"095ea7b3","balanceOf(address)":"70a08231","burnToken(uint256)":"7b47ec1a","getApproved(uint256)":"081812fc","getNextTokenId()":"caa0f92a","getOwnerOf(uint256)":"83638710","getTotalSupply()":"c4e41b22","isApprovedForAll(address,address)":"e985e9c5","lockToken(uint256)":"80f20363","mintBridgeToken(address,uint256,((uint8,uint8),(uint8,uint8),(uint8,uint8,uint8),(uint8,uint8,uint8,uint8,uint8),(uint8,uint8,uint8),(bool,uint8,bool,uint8,bool)),uint256)":"a462cd49","mintGenesis(address,((uint8,uint8),(uint8,uint8),(uint8,uint8,uint8),(uint8,uint8,uint8,uint8,uint8),(uint8,uint8,uint8),(bool,uint8,bool,uint8,bool)),uint256,address)":"2c33b9d9","name()":"06fdde03","ownerOf(uint256)":"6352211e","safeTransferFrom(address,address,uint256)":"42842e0e","safeTransferFrom(address,address,uint256,bytes)":"b88d4fde","setApprovalForAll(address,bool)":"a22cb465","symbol()":"95d89b41","totalSupply()":"18160ddd","transferFrom(address,address,uint256)":"23b872dd","unlockToken(uint256)":"dd2e0ac0"},"id":128}