{
  "abi": [
    {
      "type": "constructor",
      "inputs": [
        {
          "name": "_owner",
          "type": "address",
          "internalType": "address"
        },
        {
          "name": "_beanHeads",
          "type": "address",
          "internalType": "address"
        },
        {
          "name": "_gasLimit",
          "type": "uint32",
          "internalType": "uint32"
        },
        {
          "name": "_requestConfirmations",
          "type": "uint16",
          "internalType": "uint16"
        },
        {
          "name": "_breedCoolDown",
          "type": "uint256",
          "internalType": "uint256"
        },
        {
          "name": "_maxBreedRequests",
          "type": "uint256",
          "internalType": "uint256"
        },
        {
          "name": "_vrfCoordinator",
          "type": "address",
          "internalType": "address"
        },
        {
          "name": "_subscriptionId",
          "type": "uint256",
          "internalType": "uint256"
        },
        {
          "name": "_keyHash",
          "type": "bytes32",
          "internalType": "bytes32"
        }
      ],
      "stateMutability": "nonpayable"
    },
    {
      "type": "fallback",
      "stateMutability": "payable"
    },
    {
      "type": "receive",
      "stateMutability": "payable"
    },
    {
      "type": "function",
      "name": "acceptOwnership",
      "inputs": [],
      "outputs": [],
      "stateMutability": "nonpayable"
    },
    {
      "type": "function",
      "name": "claimRefund",
      "inputs": [
        {
          "name": "token",
          "type": "address",
          "internalType": "address"
        }
      ],
      "outputs": [],
      "stateMutability": "nonpayable"
    },
    {
      "type": "function",
      "name": "depositBeanHeads",
      "inputs": [
        {
          "name": "tokenId",
          "type": "uint256",
          "internalType": "uint256"
        }
      ],
      "outputs": [],
      "stateMutability": "nonpayable"
    },
    {
      "type": "function",
      "name": "getBreedRequest",
      "inputs": [
        {
          "name": "requestId",
          "type": "uint256",
          "internalType": "uint256"
        }
      ],
      "outputs": [
        {
          "name": "request",
          "type": "tuple",
          "internalType": "struct IBeanHeadsBreeder.BreedRequest",
          "components": [
            {
              "name": "owner",
              "type": "address",
              "internalType": "address"
            },
            {
              "name": "parent1Id",
              "type": "uint256",
              "internalType": "uint256"
            },
            {
              "name": "parent2Id",
              "type": "uint256",
              "internalType": "uint256"
            },
            {
              "name": "mode",
              "type": "uint8",
              "internalType": "enum IBeanHeadsBreeder.BreedingMode"
            },
            {
              "name": "paymentToken",
              "type": "address",
              "internalType": "address"
            },
            {
              "name": "paymentAmount",
              "type": "uint256",
              "internalType": "uint256"
            },
            {
              "name": "requestedAtBlock",
              "type": "uint48",
              "internalType": "uint48"
            },
            {
              "name": "status",
              "type": "uint8",
              "internalType": "enum IBeanHeadsBreeder.RequestStatus"
            }
          ]
        }
      ],
      "stateMutability": "view"
    },
    {
      "type": "function",
      "name": "getEscrowedTokenOwner",
      "inputs": [
        {
          "name": "tokenId",
          "type": "uint256",
          "internalType": "uint256"
        }
      ],
      "outputs": [
        {
          "name": "owner",
          "type": "address",
          "internalType": "address"
        }
      ],
      "stateMutability": "view"
    },
    {
      "type": "function",
      "name": "getParentBreedingCount",
      "inputs": [
        {
          "name": "tokenId",
          "type": "uint256",
          "internalType": "uint256"
        }
      ],
      "outputs": [
        {
          "name": "count",
          "type": "uint256",
          "internalType": "uint256"
        }
      ],
      "stateMutability": "view"
    },
    {
      "type": "function",
      "name": "getRarityPoints",
      "inputs": [
        {
          "name": "tokenId",
          "type": "uint256",
          "internalType": "uint256"
        }
      ],
      "outputs": [
        {
          "name": "",
          "type": "uint256",
          "internalType": "uint256"
        }
      ],
      "stateMutability": "view"
    },
    {
      "type": "function",
      "name": "onERC721Received",
      "inputs": [
        {
          "name": "",
          "type": "address",
          "internalType": "address"
        },
        {
          "name": "",
          "type": "address",
          "internalType": "address"
        },
        {
          "name": "",
          "type": "uint256",
          "internalType": "uint256"
        },
        {
          "name": "",
          "type": "bytes",
          "internalType": "bytes"
        }
      ],
      "outputs": [
        {
          "name": "",
          "type": "bytes4",
          "internalType": "bytes4"
        }
      ],
      "stateMutability": "pure"
    },
    {
      "type": "function",
      "name": "owner",
      "inputs": [],
      "outputs": [
        {
          "name": "",
          "type": "address",
          "internalType": "address"
        }
      ],
      "stateMutability": "view"
    },
    {
      "type": "function",
      "name": "rawFulfillRandomWords",
      "inputs": [
        {
          "name": "requestId",
          "type": "uint256",
          "internalType": "uint256"
        },
        {
          "name": "randomWords",
          "type": "uint256[]",
          "internalType": "uint256[]"
        }
      ],
      "outputs": [],
      "stateMutability": "nonpayable"
    },
    {
      "type": "function",
      "name": "requestBreed",
      "inputs": [
        {
          "name": "parent1Id",
          "type": "uint256",
          "internalType": "uint256"
        },
        {
          "name": "parent2Id",
          "type": "uint256",
          "internalType": "uint256"
        },
        {
          "name": "mode",
          "type": "uint8",
          "internalType": "enum IBeanHeadsBreeder.BreedingMode"
        },
        {
          "name": "paymentToken",
          "type": "address",
          "internalType": "address"
        }
      ],
      "outputs": [
        {
          "name": "requestId",
          "type": "uint256",
          "internalType": "uint256"
        }
      ],
      "stateMutability": "nonpayable"
    },
    {
      "type": "function",
      "name": "s_breedRequests",
      "inputs": [
        {
          "name": "requestId",
          "type": "uint256",
          "internalType": "uint256"
        }
      ],
      "outputs": [
        {
          "name": "owner",
          "type": "address",
          "internalType": "address"
        },
        {
          "name": "parent1Id",
          "type": "uint256",
          "internalType": "uint256"
        },
        {
          "name": "parent2Id",
          "type": "uint256",
          "internalType": "uint256"
        },
        {
          "name": "mode",
          "type": "uint8",
          "internalType": "enum IBeanHeadsBreeder.BreedingMode"
        },
        {
          "name": "paymentToken",
          "type": "address",
          "internalType": "address"
        },
        {
          "name": "paymentAmount",
          "type": "uint256",
          "internalType": "uint256"
        },
        {
          "name": "requestedAtBlock",
          "type": "uint48",
          "internalType": "uint48"
        },
        {
          "name": "status",
          "type": "uint8",
          "internalType": "enum IBeanHeadsBreeder.RequestStatus"
        }
      ],
      "stateMutability": "view"
    },
    {
      "type": "function",
      "name": "s_escrowedTokens",
      "inputs": [
        {
          "name": "tokenId",
          "type": "uint256",
          "internalType": "uint256"
        }
      ],
      "outputs": [
        {
          "name": "owner",
          "type": "address",
          "internalType": "address"
        }
      ],
      "stateMutability": "view"
    },
    {
      "type": "function",
      "name": "s_lastBreedingBlock",
      "inputs": [
        {
          "name": "owner",
          "type": "address",
          "internalType": "address"
        }
      ],
      "outputs": [
        {
          "name": "lastBreedingBlock",
          "type": "uint256",
          "internalType": "uint256"
        }
      ],
      "stateMutability": "view"
    },
    {
      "type": "function",
      "name": "s_mutatedRarityPoints",
      "inputs": [
        {
          "name": "tokenId",
          "type": "uint256",
          "internalType": "uint256"
        }
      ],
      "outputs": [
        {
          "name": "rarityPoints",
          "type": "uint256",
          "internalType": "uint256"
        }
      ],
      "stateMutability": "view"
    },
    {
      "type": "function",
      "name": "s_parentBreedingCount",
      "inputs": [
        {
          "name": "tokenId",
          "type": "uint256",
          "internalType": "uint256"
        }
      ],
      "outputs": [
        {
          "name": "count",
          "type": "uint256",
          "internalType": "uint256"
        }
      ],
      "stateMutability": "view"
    },
    {
      "type": "function",
      "name": "s_refundable",
      "inputs": [
        {
          "name": "user",
          "type": "address",
          "internalType": "address"
        },
        {
          "name": "token",
          "type": "address",
          "internalType": "address"
        }
      ],
      "outputs": [
        {
          "name": "amount",
          "type": "uint256",
          "internalType": "uint256"
        }
      ],
      "stateMutability": "view"
    },
    {
      "type": "function",
      "name": "s_totalRefundable",
      "inputs": [
        {
          "name": "token",
          "type": "address",
          "internalType": "address"
        }
      ],
      "outputs": [
        {
          "name": "amount",
          "type": "uint256",
          "internalType": "uint256"
        }
      ],
      "stateMutability": "view"
    },
    {
      "type": "function",
      "name": "s_vrfCoordinator",
      "inputs": [],
      "outputs": [
        {
          "name": "",
          "type": "address",
          "internalType": "contract IVRFCoordinatorV2Plus"
        }
      ],
      "stateMutability": "view"
    },
    {
      "type": "function",
      "name": "setCoolDown",
      "inputs": [
        {
          "name": "coolDown",
          "type": "uint256",
          "internalType": "uint256"
        }
      ],
      "outputs": [],
      "stateMutability": "nonpayable"
    },
    {
      "type": "function",
      "name": "setCoordinator",
      "inputs": [
        {
          "name": "_vrfCoordinator",
          "type": "address",
          "internalType": "address"
        }
      ],
      "outputs": [],
      "stateMutability": "nonpayable"
    },
    {
      "type": "function",
      "name": "settleRequestExternal",
      "inputs": [
        {
          "name": "requestId",
          "type": "uint256",
          "internalType": "uint256"
        },
        {
          "name": "randomWord",
          "type": "uint256",
          "internalType": "uint256"
        }
      ],
      "outputs": [
        {
          "name": "",
          "type": "bool",
          "internalType": "bool"
        }
      ],
      "stateMutability": "nonpayable"
    },
    {
      "type": "function",
      "name": "timeoutRefund",
      "inputs": [
        {
          "name": "requestId",
          "type": "uint256",
          "internalType": "uint256"
        }
      ],
      "outputs": [],
      "stateMutability": "nonpayable"
    },
    {
      "type": "function",
      "name": "transferOwnership",
      "inputs": [
        {
          "name": "to",
          "type": "address",
          "internalType": "address"
        }
      ],
      "outputs": [],
      "stateMutability": "nonpayable"
    },
    {
      "type": "function",
      "name": "withdrawBeanHeads",
      "inputs": [
        {
          "name": "tokenId",
          "type": "uint256",
          "internalType": "uint256"
        }
      ],
      "outputs": [],
      "stateMutability": "nonpayable"
    },
    {
      "type": "function",
      "name": "withdrawFunds",
      "inputs": [
        {
          "name": "token",
          "type": "address",
          "internalType": "address"
        }
      ],
      "outputs": [],
      "stateMutability": "nonpayable"
    },
    {
      "type": "event",
      "name": "AscensionCompleted",
      "inputs": [
        {
          "name": "owner",
          "type": "address",
          "indexed": true,
          "internalType": "address"
        },
        {
          "name": "requestId",
          "type": "uint256",
          "indexed": true,
          "internalType": "uint256"
        },
        {
          "name": "burnedTokenId",
          "type": "uint256",
          "indexed": false,
          "internalType": "uint256"
        },
        {
          "name": "newTokenId",
          "type": "uint256",
          "indexed": false,
          "internalType": "uint256"
        },
        {
          "name": "childGeneration",
          "type": "uint256",
          "indexed": false,
          "internalType": "uint256"
        },
        {
          "name": "rarityPoints",
          "type": "uint256",
          "indexed": false,
          "internalType": "uint256"
        }
      ],
      "anonymous": false
    },
    {
      "type": "event",
      "name": "BeanHeadsDeposited",
      "inputs": [
        {
          "name": "owner",
          "type": "address",
          "indexed": true,
          "internalType": "address"
        },
        {
          "name": "parent1Id",
          "type": "uint256",
          "indexed": false,
          "internalType": "uint256"
        }
      ],
      "anonymous": false
    },
    {
      "type": "event",
      "name": "BeanHeadsWithdrawn",
      "inputs": [
        {
          "name": "owner",
          "type": "address",
          "indexed": true,
          "internalType": "address"
        },
        {
          "name": "tokenId",
          "type": "uint256",
          "indexed": false,
          "internalType": "uint256"
        }
      ],
      "anonymous": false
    },
    {
      "type": "event",
      "name": "BreedRequestFulfilled",
      "inputs": [
        {
          "name": "owner",
          "type": "address",
          "indexed": true,
          "internalType": "address"
        },
        {
          "name": "requestId",
          "type": "uint256",
          "indexed": false,
          "internalType": "uint256"
        },
        {
          "name": "mode",
          "type": "uint8",
          "indexed": false,
          "internalType": "enum IBeanHeadsBreeder.BreedingMode"
        },
        {
          "name": "newTokenId",
          "type": "uint256",
          "indexed": false,
          "internalType": "uint256"
        }
      ],
      "anonymous": false
    },
    {
      "type": "event",
      "name": "BreedRequestRefunded",
      "inputs": [
        {
          "name": "owner",
          "type": "address",
          "indexed": true,
          "internalType": "address"
        },
        {
          "name": "paymentToken",
          "type": "address",
          "indexed": true,
          "internalType": "address"
        },
        {
          "name": "paymentAmount",
          "type": "uint256",
          "indexed": false,
          "internalType": "uint256"
        }
      ],
      "anonymous": false
    },
    {
      "type": "event",
      "name": "CoordinatorSet",
      "inputs": [
        {
          "name": "vrfCoordinator",
          "type": "address",
          "indexed": false,
          "internalType": "address"
        }
      ],
      "anonymous": false
    },
    {
      "type": "event",
      "name": "FundsWithdrawn",
      "inputs": [
        {
          "name": "token",
          "type": "address",
          "indexed": true,
          "internalType": "address"
        },
        {
          "name": "amount",
          "type": "uint256",
          "indexed": false,
          "internalType": "uint256"
        }
      ],
      "anonymous": false
    },
    {
      "type": "event",
      "name": "FusionCompleted",
      "inputs": [
        {
          "name": "owner",
          "type": "address",
          "indexed": true,
          "internalType": "address"
        },
        {
          "name": "requestId",
          "type": "uint256",
          "indexed": true,
          "internalType": "uint256"
        },
        {
          "name": "burnedParent1Id",
          "type": "uint256",
          "indexed": false,
          "internalType": "uint256"
        },
        {
          "name": "burnedParent2Id",
          "type": "uint256",
          "indexed": false,
          "internalType": "uint256"
        },
        {
          "name": "newTokenId",
          "type": "uint256",
          "indexed": false,
          "internalType": "uint256"
        },
        {
          "name": "childGeneration",
          "type": "uint256",
          "indexed": false,
          "internalType": "uint256"
        },
        {
          "name": "rarityPoints",
          "type": "uint256",
          "indexed": false,
          "internalType": "uint256"
        }
      ],
      "anonymous": false
    },
    {
      "type": "event",
      "name": "MutationCompleted",
      "inputs": [
        {
          "name": "owner",
          "type": "address",
          "indexed": true,
          "internalType": "address"
        },
        {
          "name": "requestId",
          "type": "uint256",
          "indexed": true,
          "internalType": "uint256"
        },
        {
          "name": "burnedTokenId",
          "type": "uint256",
          "indexed": false,
          "internalType": "uint256"
        },
        {
          "name": "survivingTokenId",
          "type": "uint256",
          "indexed": false,
          "internalType": "uint256"
        },
        {
          "name": "newTokenId",
          "type": "uint256",
          "indexed": false,
          "internalType": "uint256"
        },
        {
          "name": "childGeneration",
          "type": "uint256",
          "indexed": false,
          "internalType": "uint256"
        },
        {
          "name": "rarityPoints",
          "type": "uint256",
          "indexed": false,
          "internalType": "uint256"
        }
      ],
      "anonymous": false
    },
    {
      "type": "event",
      "name": "NewBreedCompleted",
      "inputs": [
        {
          "name": "owner",
          "type": "address",
          "indexed": true,
          "internalType": "address"
        },
        {
          "name": "requestId",
          "type": "uint256",
          "indexed": true,
          "internalType": "uint256"
        },
        {
          "name": "parent1Id",
          "type": "uint256",
          "indexed": false,
          "internalType": "uint256"
        },
        {
          "name": "parent2Id",
          "type": "uint256",
          "indexed": false,
          "internalType": "uint256"
        },
        {
          "name": "newTokenId",
          "type": "uint256",
          "indexed": false,
          "internalType": "uint256"
        },
        {
          "name": "childGeneration",
          "type": "uint256",
          "indexed": false,
          "internalType": "uint256"
        },
        {
          "name": "rarityPoints",
          "type": "uint256",
          "indexed": false,
          "internalType": "uint256"
        }
      ],
      "anonymous": false
    },
    {
      "type": "event",
      "name": "OwnershipTransferRequested",
      "inputs": [
        {
          "name": "from",
          "type": "address",
          "indexed": true,
          "internalType": "address"
        },
        {
          "name": "to",
          "type": "address",
          "indexed": true,
          "internalType": "address"
        }
      ],
      "anonymous": false
    },
    {
      "type": "event",
      "name": "OwnershipTransferred",
      "inputs": [
        {
          "name": "from",
          "type": "address",
          "indexed": true,
          "internalType": "address"
        },
        {
          "name": "to",
          "type": "address",
          "indexed": true,
          "internalType": "address"
        }
      ],
      "anonymous": false
    },
    {
      "type": "event",
      "name": "RequestBreed",
      "inputs": [
        {
          "name": "owner",
          "type": "address",
          "indexed": true,
          "internalType": "address"
        },
        {
          "name": "parent1Id",
          "type": "uint256",
          "indexed": false,
          "internalType": "uint256"
        },
        {
          "name": "parent2Id",
          "type": "uint256",
          "indexed": false,
          "internalType": "uint256"
        },
        {
          "name": "requestId",
          "type": "uint256",
          "indexed": false,
          "internalType": "uint256"
        },
        {
          "name": "mode",
          "type": "uint8",
          "indexed": false,
          "internalType": "enum IBeanHeadsBreeder.BreedingMode"
        }
      ],
      "anonymous": false
    },
    {
      "type": "event",
      "name": "RequestExpired",
      "inputs": [
        {
          "name": "requestId",
          "type": "uint256",
          "indexed": true,
          "internalType": "uint256"
        },
        {
          "name": "user",
          "type": "address",
          "indexed": true,
          "internalType": "address"
        },
        {
          "name": "token",
          "type": "address",
          "indexed": false,
          "internalType": "address"
        },
        {
          "name": "amount",
          "type": "uint256",
          "indexed": false,
          "internalType": "uint256"
        }
      ],
      "anonymous": false
    },
    {
      "type": "event",
      "name": "RequestFailed",
      "inputs": [
        {
          "name": "requestId",
          "type": "uint256",
          "indexed": true,
          "internalType": "uint256"
        },
        {
          "name": "user",
          "type": "address",
          "indexed": true,
          "internalType": "address"
        },
        {
          "name": "token",
          "type": "address",
          "indexed": false,
          "internalType": "address"
        },
        {
          "name": "amount",
          "type": "uint256",
          "indexed": false,
          "internalType": "uint256"
        }
      ],
      "anonymous": false
    },
    {
      "type": "event",
      "name": "RequestRefunded",
      "inputs": [
        {
          "name": "user",
          "type": "address",
          "indexed": true,
          "internalType": "address"
        },
        {
          "name": "token",
          "type": "address",
          "indexed": true,
          "internalType": "address"
        },
        {
          "name": "amount",
          "type": "uint256",
          "indexed": false,
          "internalType": "uint256"
        }
      ],
      "anonymous": false
    },
    {
      "type": "error",
      "name": "IBeanHeadsBreeder__BadStatus",
      "inputs": []
    },
    {
      "type": "error",
      "name": "IBeanHeadsBreeder__BreedLimitReached",
      "inputs": []
    },
    {
      "type": "error",
      "name": "IBeanHeadsBreeder__CannotBreedSameBeanHead",
      "inputs": []
    },
    {
      "type": "error",
      "name": "IBeanHeadsBreeder__CoolDownNotPassed",
      "inputs": []
    },
    {
      "type": "error",
      "name": "IBeanHeadsBreeder__InsufficientAllowance",
      "inputs": []
    },
    {
      "type": "error",
      "name": "IBeanHeadsBreeder__InsufficientBalance",
      "inputs": []
    },
    {
      "type": "error",
      "name": "IBeanHeadsBreeder__InsufficientPayment",
      "inputs": []
    },
    {
      "type": "error",
      "name": "IBeanHeadsBreeder__InvalidOraclePrice",
      "inputs": []
    },
    {
      "type": "error",
      "name": "IBeanHeadsBreeder__InvalidRequestId",
      "inputs": []
    },
    {
      "type": "error",
      "name": "IBeanHeadsBreeder__InvalidToken",
      "inputs": []
    },
    {
      "type": "error",
      "name": "IBeanHeadsBreeder__InvalidTokenId",
      "inputs": []
    },
    {
      "type": "error",
      "name": "IBeanHeadsBreeder__NoRefundableAmount",
      "inputs": []
    },
    {
      "type": "error",
      "name": "IBeanHeadsBreeder__NotOwner",
      "inputs": []
    },
    {
      "type": "error",
      "name": "IBeanHeadsBreeder__NotRequestor",
      "inputs": []
    },
    {
      "type": "error",
      "name": "IBeanHeadsBreeder__NotVRFCoordinator",
      "inputs": []
    },
    {
      "type": "error",
      "name": "IBeanHeadsBreeder__RequestAlreadyFulfilled",
      "inputs": []
    },
    {
      "type": "error",
      "name": "IBeanHeadsBreeder__StalePrice",
      "inputs": []
    },
    {
      "type": "error",
      "name": "IBeanHeadsBreeder__StaleRound",
      "inputs": []
    },
    {
      "type": "error",
      "name": "IBeanHeadsBreeder__StatusNotPending",
      "inputs": []
    },
    {
      "type": "error",
      "name": "IBeanHeadsBreeder__TokensNotEscrowedBySender",
      "inputs": []
    },
    {
      "type": "error",
      "name": "IBeanHeadsBreeder__TransferFailed",
      "inputs": []
    },
    {
      "type": "error",
      "name": "OnlyCoordinatorCanFulfill",
      "inputs": [
        {
          "name": "have",
          "type": "address",
          "internalType": "address"
        },
        {
          "name": "want",
          "type": "address",
          "internalType": "address"
        }
      ]
    },
    {
      "type": "error",
      "name": "OnlyOwnerOrCoordinator",
      "inputs": [
        {
          "name": "have",
          "type": "address",
          "internalType": "address"
        },
        {
          "name": "owner",
          "type": "address",
          "internalType": "address"
        },
        {
          "name": "coordinator",
          "type": "address",
          "internalType": "address"
        }
      ]
    },
    {
      "type": "error",
      "name": "ZeroAddress",
      "inputs": []
    }
  ],
  "bytecode": {
    "object": "0x610140346200030b576200543c601f38829003908101601f19168301906001600160401b038211848310176200030f5780849360409384528439610120928391810103126200030b57620000538362000323565b620000616020850162000323565b828501519163ffffffff831683036200030b5760608601519261ffff841684036200030b5760808701519060a088015190620000a060c08a0162000323565b9460e08a015192610100809b0151943315620002c7575f80546001600160a01b03199081163317909155986001600160a01b03988916948515620002b657898b60025416951660805260e0528c5260035589521760025560a05260c0521690338214801562000235575b505050519061510392836200033984396080518381816105c6015281816106c40152818161090301528181610d23015281816110eb0152818161240d0152818161248c0152818161254401528181612630015281816126c80152818161272c015281816127c001528181612ad701528181612b8601528181612c0601528181612c8501528181612d5e01528181612df601528181612e7701528181612ee601528181613155015281816131d40152818161328c0152818161335f015281816133ce01528181613419015281816134880152818161368b01528181613738015281816138040152818161387301528181614783015261487e015260a051836115c3015260c0518361159d015260e05183611623015251826115f40152518181816111850152611dd90152f35b620002725781906001541617600155337fed8889f560326eb138920d842192f0eb3dd22b4f139c87a2c57538e05bae12785f80a35f80806200010a565b825162461bcd60e51b815260206004820152601760248201527f43616e6e6f74207472616e7366657220746f2073656c660000000000000000006044820152606490fd5b8b5163d92e233d60e01b8152600490fd5b895162461bcd60e51b815260206004820152601860248201527f43616e6e6f7420736574206f776e657220746f207a65726f00000000000000006044820152606490fd5b5f80fd5b634e487b7160e01b5f52604160045260245ffd5b51906001600160a01b03821682036200030b5756fe608080604052600436101561001a575b50361561001857005b005b5f905f915f3560e01c918263150b7a0214613f10575081631fe543e314613e255781632bc6b14514613dc25781632e098b2014613d5f5781632e24be5d14613d015781634565dc3e14613c9c57816347c6b15a146121da57816358b515c814610ea557816368742da6146120b557816379ba509714611fae5781637c172ef314610e0b5781637c56687a14611f6d57816382b1208214611e675781638702cc76146110775781638da5cb5b146110265781638ea9811714610eed57816394e9992914610ea55781639eccacf614610e53578163a76c280314610e0b578163bb87eaa314610c90578163bffa55d514610b92578163c420cfd014610b1a578163c490078c146108b6578163dcdfd05e1461031f57508063dd7a37a6146102575763f2fde38b0361000f57346102545760207ffffffffffffffffffffffffffffffffffffffffffffffffffffffffffffffffc3601126102545761017a613fae565b610182614414565b73ffffffffffffffffffffffffffffffffffffffff809116903382146101f657817fffffffffffffffffffffffff000000000000000000000000000000000000000060015416176001558254167fed8889f560326eb138920d842192f0eb3dd22b4f139c87a2c57538e05bae12788380a380f35b60646040517f08c379a000000000000000000000000000000000000000000000000000000000815260206004820152601760248201527f43616e6e6f74207472616e7366657220746f2073656c660000000000000000006044820152fd5b80fd5b50346102545760207ffffffffffffffffffffffffffffffffffffffffffffffffffffffffffffffffc36011261025457604061010091600435815260046020522061031d73ffffffffffffffffffffffffffffffffffffffff808354169260018101549160028201546003830154906005600485015494015494604051978852602088015260408701526102f16060870160ff8316613ff4565b60081c16608085015260a084015265ffffffffffff811660c084015260ff60e084019160301c16614001565bf35b9050346108b2576020807ffffffffffffffffffffffffffffffffffffffffffffffffffffffffffffffffc3601126108ae57600435808452600482526040842073ffffffffffffffffffffffffffffffffffffffff908181541690811561088457600501549060ff8260301c1660068110156108575760010361082d573303610803576003546103b69165ffffffffffff16614290565b4311156107d957838285526004845260408520916005830166050000000000007fffffffffffffffffffffffffffffffffffffffffffffffffff00ffffffffffff8254161790556004830191825480610783575b50600184018054885260058752604088208054848754168582161461069d575b50505060028401805480151580610684575b610593575b505080604061044f86614136565b8881018051845260088a528284205461057b575b500180518015159081610567575b50610547575b5061051a57509282817f7751bd7ae8a434d89bb184d43ddbc1aa7ddd6d156852e3888051accdf3513e82604097948760036105179b99600499541695015460081c169054906104ed8a51928392836020909392919373ffffffffffffffffffffffffffffffffffffffff60408201951681520152565b0390a38352522060055f918281558260018201558260028201558260038201558260048201550155565b80f35b807f4e487b7100000000000000000000000000000000000000000000000000000000602492526021600452fd5b905051815260088652806040812061055f8154614c97565b90555f610477565b83525060088852604082205415155f610471565b51835281832061058b8154614c97565b90555f610463565b825260058752604082207fffffffffffffffffffffffff00000000000000000000000000000000000000008154169055827f00000000000000000000000000000000000000000000000000000000000000001683865416915491813b15610680576040517f42842e0e00000000000000000000000000000000000000000000000000000000815230600482015273ffffffffffffffffffffffffffffffffffffffff919091166024820152604481019290925282908290606490829084905af1801561067557908291156104415761066a906140ab565b61025457805f610441565b6040513d84823e3d90fd5b8380fd5b508083526005885283604084205416848754161461043c565b7fffffffffffffffffffffffff0000000000000000000000000000000000000000169055827f00000000000000000000000000000000000000000000000000000000000000001683865416915491813b1561077f576040517f42842e0e00000000000000000000000000000000000000000000000000000000815230600482015273ffffffffffffffffffffffffffffffffffffffff919091166024820152604481019290925288908290606490829084905af1801561077457610763575b808061042a565b61076d91506140ab565b855f61075c565b6040513d8a823e3d90fd5b8980fd5b828554168852600987526040882090600386019184835460081c168a5288526107b160408a20918254614290565b9055828454915460081c168852600a87526107d160408920918254614290565b90555f61040a565b60046040517f3d4e82d9000000000000000000000000000000000000000000000000000000008152fd5b60046040517fe2743ccc000000000000000000000000000000000000000000000000000000008152fd5b60046040517ffd4faa94000000000000000000000000000000000000000000000000000000008152fd5b6024887f4e487b710000000000000000000000000000000000000000000000000000000081526021600452fd5b60046040517f227d721c000000000000000000000000000000000000000000000000000000008152fd5b8280fd5b5080fd5b8234610254576020807ffffffffffffffffffffffffffffffffffffffffffffffffffffffffffffffffc3601126108b2576004359073ffffffffffffffffffffffffffffffffffffffff807f000000000000000000000000000000000000000000000000000000000000000016906040517f4f558e790000000000000000000000000000000000000000000000000000000081528460048201528381602481865afa908115610ab8578691610aed575b5015610ac357604051907f836387100000000000000000000000000000000000000000000000000000000082528460048301528382602481865afa918215610ab8578692610a89575b5033911603610884578084913b156108b2576040517f42842e0e000000000000000000000000000000000000000000000000000000008152336004820152306024820152604481018590529082908290606490829084905af1801561067557610a75575b5090827fee22009d0b6e203a1c7f5484115c17db41da0fd98cc0c98abd5299731679b04a92526005815260408420337fffffffffffffffffffffffff00000000000000000000000000000000000000008254161790556040519283523392a280f35b610a7e906140ab565b6108ae578284610a13565b610aaa919250843d8611610ab1575b610aa281836140dc565b810190614264565b90866109af565b503d610a98565b6040513d88823e3d90fd5b60046040517fcc3e8aa7000000000000000000000000000000000000000000000000000000008152fd5b610b0d9150843d8611610b13575b610b0581836140dc565b8101906141c3565b86610966565b503d610afb565b9050346108b25760407ffffffffffffffffffffffffffffffffffffffffffffffffffffffffffffffffc3601126108b257604090602092610b59613fae565b83610b62613fd1565b9273ffffffffffffffffffffffffffffffffffffffff809316815260098752209116825283522054604051908152f35b9050346108b2576020807ffffffffffffffffffffffffffffffffffffffffffffffffffffffffffffffffc3601126108ae57610bcc613fae565b913384526009825273ffffffffffffffffffffffffffffffffffffffff6040852093169283825282526040812054918215610c66578460407fa1239b92212ed7335b4054327185e0a4559610d62da1b92ef124ef51013059e5933383526009845281832087825284522055838552600a815260408520610c4d84825461411d565b9055610c5a833386614492565b6040519283523392a380f35b60046040517ff774e5a9000000000000000000000000000000000000000000000000000000008152fd5b82346102545760207ffffffffffffffffffffffffffffffffffffffffffffffffffffffffffffffffc36011261025457600435808252600560205273ffffffffffffffffffffffffffffffffffffffff806040842054163303610de15782908282526005602052604082207fffffffffffffffffffffffff000000000000000000000000000000000000000081541690557f000000000000000000000000000000000000000000000000000000000000000016803b156108b2576040517f42842e0e000000000000000000000000000000000000000000000000000000008152306004820152336024820152604481018490529082908290606490829084905af1801561067557610dcd575b50506040519081527f3becb35d36294fb30aed06b9fa47efe4eafb95989d00ae497d9f4b3be6534b2360203392a280f35b610dd6906140ab565b6108b2578183610d9c565b60046040517f551258f4000000000000000000000000000000000000000000000000000000008152fd5b82346102545760207ffffffffffffffffffffffffffffffffffffffffffffffffffffffffffffffffc3601126102545760406020916004358152600683522054604051908152f35b823461025457807ffffffffffffffffffffffffffffffffffffffffffffffffffffffffffffffffc36011261025457602073ffffffffffffffffffffffffffffffffffffffff60025416604051908152f35b82346102545760207ffffffffffffffffffffffffffffffffffffffffffffffffffffffffffffffffc3601126102545760406020916004358152600883522054604051908152f35b82346102545760207ffffffffffffffffffffffffffffffffffffffffffffffffffffffffffffffffc36011261025457610f25613fae565b73ffffffffffffffffffffffffffffffffffffffff90818354168033141580611018575b610fd75750168015610fad576020817fd1a6a14209a385a964d036e404cb5cfb71f4000cdb03c9366292430787261be6927fffffffffffffffffffffffff00000000000000000000000000000000000000006002541617600255604051908152a180f35b60046040517fd92e233d000000000000000000000000000000000000000000000000000000008152fd5b6064908360025416604051917f061db9c100000000000000000000000000000000000000000000000000000000835233600484015260248301526044820152fd5b508260025416331415610f49565b823461025457807ffffffffffffffffffffffffffffffffffffffffffffffffffffffffffffffffc3601126102545773ffffffffffffffffffffffffffffffffffffffff6020915416604051908152f35b9050346108b25760807ffffffffffffffffffffffffffffffffffffffffffffffffffffffffffffffffc3601126108b257600460443510156108b2576064359173ffffffffffffffffffffffffffffffffffffffff831683036108b25773ffffffffffffffffffffffffffffffffffffffff7f0000000000000000000000000000000000000000000000000000000000000000166040517ff9eaee0d00000000000000000000000000000000000000000000000000000000815273ffffffffffffffffffffffffffffffffffffffff85166004820152602081602481855afa908115611989578391611e48575b5015611c2557604435600303611dc8576004358252600860205260408220547f00000000000000000000000000000000000000000000000000000000000000001115611d9e575b338252600760205260408220548015159081611d89575b506107d957604435600303611ccd57602435611ca357600435825260056020523373ffffffffffffffffffffffffffffffffffffffff60408420541603610de1575b604051907fa7f93ebd000000000000000000000000000000000000000000000000000000008252602082600481845afa918215611989578392611c6e575b506020602491604051928380927f5b6cca8000000000000000000000000000000000000000000000000000000000825273ffffffffffffffffffffffffffffffffffffffff8a1660048301525afa908115611989579073ffffffffffffffffffffffffffffffffffffffff918491611c4f575b5016908115611c255760a0600492604051938480927ffeaf968c0000000000000000000000000000000000000000000000000000000082525afa8015611989578384938592611bd5575b5084841315611bab5769ffffffffffffffffffff809116911610611b81576402540be400918083810204831481151715611a8d57604051927f313ce56700000000000000000000000000000000000000000000000000000000845260208460048173ffffffffffffffffffffffffffffffffffffffff8b165afa938415611b76578594611b38575b50670de0b6b3a7640000918383810204831484151715611b0b579160ff93916113b293029102614523565b91166012811015611aba5760120360ff8111611a8d57906113d56113db9261455a565b90614523565b6040517fdd62ed3e00000000000000000000000000000000000000000000000000000000815233600482015230602482015260208160448173ffffffffffffffffffffffffffffffffffffffff89165afa908115611989578391611a5b575b50604051907f70a0823100000000000000000000000000000000000000000000000000000000825233600483015260208260248173ffffffffffffffffffffffffffffffffffffffff8a165afa918215611a50579083918593611a15575b50106119eb5781116119c1576040517f23b872dd0000000000000000000000000000000000000000000000000000000060208201523360248201523060448201526064808201839052815261150e906114f26084826140dc565b73ffffffffffffffffffffffffffffffffffffffff8616614b2c565b73ffffffffffffffffffffffffffffffffffffffff600254166040519081602081011067ffffffffffffffff60208401111761199457602090818301604052848352604051927f92fd1338000000000000000000000000000000000000000000000000000000008385015251151560248401526024835261158e83614073565b6040519061159b8261400e565b7f000000000000000000000000000000000000000000000000000000000000000082528282017f000000000000000000000000000000000000000000000000000000000000000081528660408401936116bc61ffff97887f00000000000000000000000000000000000000000000000000000000000000001687526060830163ffffffff90817f00000000000000000000000000000000000000000000000000000000000000001681528160808601916001835260a087019485526040519c8d9b8c9a8b997f9b1c385e000000000000000000000000000000000000000000000000000000008b528f60048c01525160248b01525160448a01525116606488015251166084860152511660a48401525160c060c484015260e48301906141db565b03925af1938415611989578394611952575b505073ffffffffffffffffffffffffffffffffffffffff604051946116f2866140bf565b338652600435602087015260243560408701526117146044356060880161412a565b16608085015260a084015265ffffffffffff431660c084015260e08301926001845282825260046020526040822073ffffffffffffffffffffffffffffffffffffffff8251167fffffffffffffffffffffffff0000000000000000000000000000000000000000825416178155602082015160018201556040820151600282015560038101606083015160048110156119255765ffffffffffff928260059260c094547fffffffffffffffffffffff00000000000000000000000000000000000000000060ff74ffffffffffffffffffffffffffffffffffffffff0060808b015160081b16931691161717905560a08501516004820155019201511693815490519460068610156118f8577fffffffffffffffffffffffffffffffffffffffffffffffffff0000000000000066ff00000000000060209760301b1692161717905533815260078352436040822055600435815260088352604081206118798154614237565b90556003604435036118d9575b506040516004358152602435838201528160408201526118ab60608201604435613ff4565b7fece922f945e7448de18bb9ed229389aafd0f5a7c3ab43ef4c052701251ad34cf60803392a2604051908152f35b604090602435815260088452206118f08154614237565b90555f611886565b6024847f4e487b710000000000000000000000000000000000000000000000000000000081526021600452fd5b6024857f4e487b710000000000000000000000000000000000000000000000000000000081526021600452fd5b909193506020823d602011611981575b8161196f602093836140dc565b81010312610254575051915f806116ce565b3d9150611962565b6040513d85823e3d90fd5b6024857f4e487b710000000000000000000000000000000000000000000000000000000081526041600452fd5b60046040517fcc3d7335000000000000000000000000000000000000000000000000000000008152fd5b60046040517ff94b3651000000000000000000000000000000000000000000000000000000008152fd5b915091506020813d602011611a48575b81611a32602093836140dc565b81010312611a4457829051915f611498565b8480fd5b3d9150611a25565b6040513d86823e3d90fd5b90506020813d602011611a85575b81611a76602093836140dc565b8101031261068057515f61143a565b3d9150611a69565b6024847f4e487b710000000000000000000000000000000000000000000000000000000081526011600452fd5b6012811115611b05577fffffffffffffffffffffffffffffffffffffffffffffffffffffffffffffffee0160ff8111611a8d5790611afa611b009261455a565b90614510565b6113db565b506113db565b6024867f4e487b710000000000000000000000000000000000000000000000000000000081526011600452fd5b9093506020813d602011611b6e575b81611b54602093836140dc565b81010312611a44575160ff81168103611a4457925f611387565b3d9150611b47565b6040513d87823e3d90fd5b60046040517ffe046945000000000000000000000000000000000000000000000000000000008152fd5b60046040517f90ef88cf000000000000000000000000000000000000000000000000000000008152fd5b9350505060a0823d60a011611c1d575b81611bf260a093836140dc565b810103126108ae57611c03826144f9565b91611c156080602083015192016144f9565b90925f6112ff565b3d9150611be5565b60046040517f989bddc7000000000000000000000000000000000000000000000000000000008152fd5b611c68915060203d602011610ab157610aa281836140dc565b5f6112b5565b9091506020813d602011611c9b575b81611c8a602093836140dc565b810103126106805751906020611242565b3d9150611c7d565b60046040517fcffc9a0b000000000000000000000000000000000000000000000000000000008152fd5b60243560043514611d5f57600435825260056020523373ffffffffffffffffffffffffffffffffffffffff60408420541614801590611d36575b156112045760046040517f551258f4000000000000000000000000000000000000000000000000000000008152fd5b5060243582523373ffffffffffffffffffffffffffffffffffffffff6040842054161415611d07565b60046040517fe9c2bc80000000000000000000000000000000000000000000000000000000008152fd5b611d9491504361411d565b600354115f6111c2565b60046040517f0c7209df000000000000000000000000000000000000000000000000000000008152fd5b6004358252600860205260408220547f000000000000000000000000000000000000000000000000000000000000000080911090811591611e34575b50156111ab5760046040517f0c7209df000000000000000000000000000000000000000000000000000000008152fd5b90506024358352604083205410155f611e04565b611e61915060203d602011610b1357610b0581836140dc565b5f611164565b82346102545760207ffffffffffffffffffffffffffffffffffffffffffffffffffffffffffffffffc36011261025457604081611ee39260e08351611eab816140bf565b82815282602082015282858201528260608201528260808201528260a08201528260c082015201526004358152600460205220614136565b73ffffffffffffffffffffffffffffffffffffffff8082511615611ca35761031d60e061010093604051938082511685526020820151602086015260408201516040860152611f3a60608301516060870190613ff4565b608082015116608085015260a081015160a085015265ffffffffffff60c08201511660c0850152015160e0830190614001565b82346102545760207ffffffffffffffffffffffffffffffffffffffffffffffffffffffffffffffffc36011261025457611fa5614414565b60043560035580f35b823461025457807ffffffffffffffffffffffffffffffffffffffffffffffffffffffffffffffffc3601126102545760015473ffffffffffffffffffffffffffffffffffffffff80821633036120575782547fffffffffffffffffffffffff00000000000000000000000000000000000000008082163390811786559316600155167f8be0079c531659141344cd1fd0a4f28419497f9722a3daafe3b4186f6b6457e08380a380f35b60646040517f08c379a000000000000000000000000000000000000000000000000000000000815260206004820152601660248201527f4d7573742062652070726f706f736564206f776e6572000000000000000000006044820152fd5b9050346108b257602090817ffffffffffffffffffffffffffffffffffffffffffffffffffffffffffffffffc3601126108ae5773ffffffffffffffffffffffffffffffffffffffff612105613fae565b61210d614414565b16916040517f70a082310000000000000000000000000000000000000000000000000000000081523060048201528181602481875afa928315611b765785936121a8575b5050828452600a8152604084205491828111156119c1577feaff4b37086828766ad3268786972c0cd24259d4c87a80f9d3963a3c3d999b0d926121939161411d565b61219e813386614492565b604051908152a280f35b909180935082813d83116121d3575b6121c181836140dc565b81010312610254575051905f80612151565b503d6121b7565b8234613c275760407ffffffffffffffffffffffffffffffffffffffffffffffffffffffffffffffffc360112613c2757303303610884576004355f52600460205260405f2060ff600582015460301c166006811015613bce57600203613c72576040516122468161400e565b60405161225281614057565b5f81525f6020820152815260405161226981614057565b5f81525f6020820152602082015261227f6149a4565b604082015261228c6149c2565b60608201526122996149a4565b608082015260a06122a86149c2565b91015260ff600a60243506169260ff60056024350616604051946122cb86614057565b8086528160208701526040516122e081614057565b8181528260208201526040516122f581614073565b828152836020820152826040820152604051916123118361408f565b8383528360208401528360408401528360608401528460808401526040519361233985614073565b8085526020850152846040850152600160243516156040519561235b8761408f565b81875280602088015281604088015260608701526080860152604051986123818a61400e565b8952602089015260408801526060870152608086015260a085015260ff6003830154166004811015613bce5780612a7657509091926123bf83614136565b6020810151604051907f56e3df97000000000000000000000000000000000000000000000000000000008252600482015260208160248173ffffffffffffffffffffffffffffffffffffffff7f0000000000000000000000000000000000000000000000000000000000000000165afa908115610ab8578691612a44575b506040820151604051907f56e3df97000000000000000000000000000000000000000000000000000000008252600482015260208160248173ffffffffffffffffffffffffffffffffffffffff7f0000000000000000000000000000000000000000000000000000000000000000165afa90811561295b578791612a12575b5080821115612a0b5781935b6001850185116129de57602061252a9173ffffffffffffffffffffffffffffffffffffffff8651169060405193849283927fbf51418200000000000000000000000000000000000000000000000000000000845260018b0191600485016149ec565b03818b73ffffffffffffffffffffffffffffffffffffffff7f0000000000000000000000000000000000000000000000000000000000000000165af19586156107745788966129a7575b5050602083015190604084015192606085015193600485101561297a57906125a29493929160243593614cc2565b908386526006602052816040872055602081015186526005602052604086207fffffffffffffffffffffffff00000000000000000000000000000000000000009081815416905560408201518752604087209081541690558573ffffffffffffffffffffffffffffffffffffffff82511660208301519073ffffffffffffffffffffffffffffffffffffffff7f0000000000000000000000000000000000000000000000000000000000000000163b156108ae576040517f42842e0e00000000000000000000000000000000000000000000000000000000815230600482015273ffffffffffffffffffffffffffffffffffffffff909116602482015260448101919091528181806064810103818373ffffffffffffffffffffffffffffffffffffffff7f0000000000000000000000000000000000000000000000000000000000000000165af1801561067557612966575b505073ffffffffffffffffffffffffffffffffffffffff81511686604083015173ffffffffffffffffffffffffffffffffffffffff7f0000000000000000000000000000000000000000000000000000000000000000163b156108b2576040517f42842e0e00000000000000000000000000000000000000000000000000000000815230600482015273ffffffffffffffffffffffffffffffffffffffff9093166024840152604483015281806064810103818373ffffffffffffffffffffffffffffffffffffffff7f0000000000000000000000000000000000000000000000000000000000000000165af1801561295b57612943575b5083604095937faf02e36fab6d22c5c3c6541916656dafdcf98690c4320d16c76d1a6351efc31c937f1407240319d14655cb34d8aa0cf82b7a7cac52c7cc4a745893ccd7e67b9dce9361293899978561289673ffffffffffffffffffffffffffffffffffffffff6060985116948c6020840151930151928d5194859460016004359a0192869192608093969594919660a084019784526020840152604083015260608201520152565b0390a35b66030000000000007fffffffffffffffffffffffffffffffffffffffffffffffffff00ffffffffffff60058601541617600585015560ff600373ffffffffffffffffffffffffffffffffffffffff865416950154169061290587519260043584526020840190613ff4565b86820152a2600435815260046020522060055f918281558260018201558260028201558260038201558260048201550155565b602060405160018152f35b61294d87916140ab565b61295757866127ed565b8580fd5b6040513d89823e3d90fd5b61296f906140ab565b6129575785876126f5565b60248a7f4e487b710000000000000000000000000000000000000000000000000000000081526021600452fd5b909195506020823d6020116129d6575b816129c4602093836140dc565b81010312610254575051938780612574565b3d91506129b7565b6024887f4e487b710000000000000000000000000000000000000000000000000000000081526011600452fd5b80936124c8565b90506020813d602011612a3c575b81612a2d602093836140dc565b81010312611a445751876124bc565b3d9150612a20565b90506020813d602011612a6e575b81612a5f602093836140dc565b8101031261068057518661243d565b3d9150612a52565b600181036130ee5750612a8882614136565b602081015191604051927f56e3df97000000000000000000000000000000000000000000000000000000008452600484015260208360248173ffffffffffffffffffffffffffffffffffffffff7f0000000000000000000000000000000000000000000000000000000000000000165afa928315611b765785936130ba575b5060018301831161308d576020612b6c94959673ffffffffffffffffffffffffffffffffffffffff8451169060405196879283927fbf5141820000000000000000000000000000000000000000000000000000000084526001890191600485016149ec565b03818973ffffffffffffffffffffffffffffffffffffffff7f0000000000000000000000000000000000000000000000000000000000000000165af1938415610ab8578694613059575b50602082015190604051917f56e3df97000000000000000000000000000000000000000000000000000000008352600483015260208260248173ffffffffffffffffffffffffffffffffffffffff7f0000000000000000000000000000000000000000000000000000000000000000165afa91821561295b578792613025575b506040830151604051907f56e3df97000000000000000000000000000000000000000000000000000000008252600482015260208160248173ffffffffffffffffffffffffffffffffffffffff7f0000000000000000000000000000000000000000000000000000000000000000165afa918215610774578892612ff0575b5050602083015190604084015192606085015193600485101561297a5790612ce39493929160243593614cc2565b908386526006602052816040872055604081015186526005602052604086207fffffffffffffffffffffffff000000000000000000000000000000000000000081541690558573ffffffffffffffffffffffffffffffffffffffff82511660408301519073ffffffffffffffffffffffffffffffffffffffff7f0000000000000000000000000000000000000000000000000000000000000000163b156108ae576040517f42842e0e00000000000000000000000000000000000000000000000000000000815230600482015273ffffffffffffffffffffffffffffffffffffffff909116602482015260448101919091528181806064810103818373ffffffffffffffffffffffffffffffffffffffff7f0000000000000000000000000000000000000000000000000000000000000000165af1801561067557612fdc575b5050602081015186526005602052604086207fffffffffffffffffffffffff00000000000000000000000000000000000000008154169055602081015173ffffffffffffffffffffffffffffffffffffffff7f0000000000000000000000000000000000000000000000000000000000000000163b15612fd857604051907f42966c68000000000000000000000000000000000000000000000000000000008252600482015286816024818373ffffffffffffffffffffffffffffffffffffffff7f0000000000000000000000000000000000000000000000000000000000000000165af1801561295b57612fc4575b5083604095937faf02e36fab6d22c5c3c6541916656dafdcf98690c4320d16c76d1a6351efc31c937fa1e6a96d067dfd84f9461d6b48debedc5a5015a7ffbcda5bdc9c03d3d93a1395612938999785612fbc73ffffffffffffffffffffffffffffffffffffffff6060985116948c6020840151930151928d5194859460016004359a0192869192608093969594919660a084019784526020840152604083015260608201520152565b0390a361289a565b612fce87916140ab565b6129575786612f13565b8680fd5b612fe5906140ab565b612957578587612e23565b9091506020823d60201161301d575b8161300c602093836140dc565b810103126102545750518780612cb5565b3d9150612fff565b9091506020813d602011613051575b81613041602093836140dc565b810103126108b257519087612c36565b3d9150613034565b9093506020813d602011613085575b81613075602093836140dc565b8101031261068057519286612bb6565b3d9150613068565b6024857f4e487b710000000000000000000000000000000000000000000000000000000081526011600452fd5b9092506020813d6020116130e6575b816130d6602093836140dc565b810103126108ae57519186612b07565b3d91506130c9565b6002819592939495145f14613628575061310783614136565b6020810151604051907f56e3df97000000000000000000000000000000000000000000000000000000008252600482015260208160248173ffffffffffffffffffffffffffffffffffffffff7f0000000000000000000000000000000000000000000000000000000000000000165afa908115610ab85786916135f6575b506040820151604051907f56e3df97000000000000000000000000000000000000000000000000000000008252600482015260208160248173ffffffffffffffffffffffffffffffffffffffff7f0000000000000000000000000000000000000000000000000000000000000000165afa90811561295b5787916135c4575b50808211156135bd5781935b6001850185116129de5760206132729173ffffffffffffffffffffffffffffffffffffffff8651169060405193849283927fbf51418200000000000000000000000000000000000000000000000000000000845260018b0191600485016149ec565b03818b73ffffffffffffffffffffffffffffffffffffffff7f0000000000000000000000000000000000000000000000000000000000000000165af1958615610774578896613586575b5050602083015190604084015192606085015193600485101561297a57906132ea9493929160243593614cc2565b908386526006602052816040872055602081015186526005602052604086207fffffffffffffffffffffffff000000000000000000000000000000000000000090818154169055604082015187526040872090815416905585602082015173ffffffffffffffffffffffffffffffffffffffff7f0000000000000000000000000000000000000000000000000000000000000000163b156108b257604051907f42966c68000000000000000000000000000000000000000000000000000000008252600482015281816024818373ffffffffffffffffffffffffffffffffffffffff7f0000000000000000000000000000000000000000000000000000000000000000165af1801561067557613572575b5050604081015173ffffffffffffffffffffffffffffffffffffffff7f0000000000000000000000000000000000000000000000000000000000000000163b15612fd857604051907f42966c68000000000000000000000000000000000000000000000000000000008252600482015286816024818373ffffffffffffffffffffffffffffffffffffffff7f0000000000000000000000000000000000000000000000000000000000000000165af1801561295b5761355e575b5083604095937faf02e36fab6d22c5c3c6541916656dafdcf98690c4320d16c76d1a6351efc31c937f1c89258102cdd62631944bf583c2bcf39cf04e964d8002f7459395d88eaf620a612938999785612fbc73ffffffffffffffffffffffffffffffffffffffff6060985116948c6020840151930151928d5194859460016004359a0192869192608093969594919660a084019784526020840152604083015260608201520152565b61356887916140ab565b61295757866134b5565b61357b906140ab565b6129575785876133fb565b909195506020823d6020116135b5575b816135a3602093836140dc565b810103126102545750519387806132bc565b3d9150613596565b8093613210565b90506020813d6020116135ee575b816135df602093836140dc565b81010312611a44575187613204565b3d91506135d2565b90506020813d602011613620575b81613611602093836140dc565b81010312610680575186613185565b3d9150613604565b91939291600303611ca35761363c82614136565b602081015190604051917f56e3df97000000000000000000000000000000000000000000000000000000008352600483015260208260248173ffffffffffffffffffffffffffffffffffffffff7f0000000000000000000000000000000000000000000000000000000000000000165afa918215613c33575f92613c3e575b50600182018211613a8a57602061371e9373ffffffffffffffffffffffffffffffffffffffff8351169060405195869283927fbf5141820000000000000000000000000000000000000000000000000000000084526001880191600485016149ec565b03815f73ffffffffffffffffffffffffffffffffffffffff7f0000000000000000000000000000000000000000000000000000000000000000165af1928315613c33575f93613bfb575b5060208101516060820151906004821015613bce575f915f918115613b57575b60018214613ae4575b60028214613a0e575b5060031461397b575b508387526006602052806040882055602082015187526005602052604087207fffffffffffffffffffffffff00000000000000000000000000000000000000008154169055602082015173ffffffffffffffffffffffffffffffffffffffff7f0000000000000000000000000000000000000000000000000000000000000000163b1561397757604051907f42966c68000000000000000000000000000000000000000000000000000000008252600482015287816024818373ffffffffffffffffffffffffffffffffffffffff7f0000000000000000000000000000000000000000000000000000000000000000165af18015610774579760409796959493929161293899613938575b505091816060936001602073ffffffffffffffffffffffffffffffffffffffff7faf02e36fab6d22c5c3c6541916656dafdcf98690c4320d16c76d1a6351efc31c98965116930151938a519485528560208601520189840152848301527fa9c3dd317d526fd62b630e3e369b3f25888c853e130b5a182fa769d9539ede6c608060043593a361289a565b6060949297509061396b7faf02e36fab6d22c5c3c6541916656dafdcf98690c4320d16c76d1a6351efc31c9694926140ab565b969193819395506138ae565b8780fd5b905060288302838104602814841517156139e15761399f9060286024350690614290565b906032820182116139b45750603201876137a3565b807f4e487b7100000000000000000000000000000000000000000000000000000000602492526011600452fd5b6024827f4e487b710000000000000000000000000000000000000000000000000000000081526011600452fd5b90925084601e810204601e14851517156139e157816139e15788613ab757600185151715613a8a576032613a7591604051602081019182525f604082015260408152613a5981614073565b51902006613a7060326024350691601e8802614290565b614290565b606481018111613a8a5760640191600361379a565b7f4e487b71000000000000000000000000000000000000000000000000000000005f52601160045260245ffd5b6024897f4e487b710000000000000000000000000000000000000000000000000000000081526011600452fd5b9250905083601e810204601e14841517156129de57879081613ab757600185151715613a8a57613b44602860405160208101908682525f604082015260408152613b2d81614073565b51902006613a7060286024350691601e8902614290565b601481018111613a8a5760140192613791565b925097505f9784600a810204600a1485151715613a8a575f85613bc6575b613bb390613a70601e60405160208101908882525f604082015260408152613b9c81614073565b51902006613a70601e6024350693600a8b02614290565b600a81018111613a8a57600a0192613788565b506014613b75565b7f4e487b71000000000000000000000000000000000000000000000000000000005f52602160045260245ffd5b9092506020813d602011613c2b575b81613c17602093836140dc565b81010312613c2757519186613768565b5f80fd5b3d9150613c0a565b6040513d5f823e3d90fd5b9091506020813d602011613c6a575b81613c5a602093836140dc565b81010312613c27575190866136bb565b3d9150613c4d565b60046040517feb5fc8bb000000000000000000000000000000000000000000000000000000008152fd5b34613c275760207ffffffffffffffffffffffffffffffffffffffffffffffffffffffffffffffffc360112613c27576004355f52600560205273ffffffffffffffffffffffffffffffffffffffff60405f2054168015611ca357602090604051908152f35b34613c275760207ffffffffffffffffffffffffffffffffffffffffffffffffffffffffffffffffc360112613c27576004355f526005602052602073ffffffffffffffffffffffffffffffffffffffff60405f205416604051908152f35b34613c275760207ffffffffffffffffffffffffffffffffffffffffffffffffffffffffffffffffc360112613c275773ffffffffffffffffffffffffffffffffffffffff613dab613fae565b165f52600a602052602060405f2054604051908152f35b34613c275760207ffffffffffffffffffffffffffffffffffffffffffffffffffffffffffffffffc360112613c275773ffffffffffffffffffffffffffffffffffffffff613e0e613fae565b165f526007602052602060405f2054604051908152f35b34613c275760407ffffffffffffffffffffffffffffffffffffffffffffffffffffffffffffffffc360112613c275760243567ffffffffffffffff808211613c275736602383011215613c27578160040135908111613c27573660248260051b84010111613c275773ffffffffffffffffffffffffffffffffffffffff60025416803303613ebd57506024610018920160043561429d565b6040517f1cf993f400000000000000000000000000000000000000000000000000000000815233600482015273ffffffffffffffffffffffffffffffffffffffff919091166024820152604490fd5b0390fd5b34613c275760807ffffffffffffffffffffffffffffffffffffffffffffffffffffffffffffffffc360112613c2757613f47613fae565b50613f50613fd1565b5060643567ffffffffffffffff808211613c275736602383011215613c27578160040135908111613c275736910160240111613c2757807f150b7a020000000000000000000000000000000000000000000000000000000060209252f35b6004359073ffffffffffffffffffffffffffffffffffffffff82168203613c2757565b6024359073ffffffffffffffffffffffffffffffffffffffff82168203613c2757565b906004821015613bce5752565b906006821015613bce5752565b60c0810190811067ffffffffffffffff82111761402a57604052565b7f4e487b71000000000000000000000000000000000000000000000000000000005f52604160045260245ffd5b6040810190811067ffffffffffffffff82111761402a57604052565b6060810190811067ffffffffffffffff82111761402a57604052565b60a0810190811067ffffffffffffffff82111761402a57604052565b67ffffffffffffffff811161402a57604052565b610100810190811067ffffffffffffffff82111761402a57604052565b90601f7fffffffffffffffffffffffffffffffffffffffffffffffffffffffffffffffe0910116810190811067ffffffffffffffff82111761402a57604052565b91908203918211613a8a57565b6004821015613bce5752565b90604051614143816140bf565b60ff6005829473ffffffffffffffffffffffffffffffffffffffff8082541685526001820154602086015260028201546040860152600382015461418c8582166060880161412a565b60081c166080850152600481015460a0850152015465ffffffffffff811660c084015260301c16906006821015613bce5760e00152565b90816020910312613c2757518015158103613c275790565b91908251928382525f5b8481106142235750507fffffffffffffffffffffffffffffffffffffffffffffffffffffffffffffffe0601f845f6020809697860101520116010190565b6020818301810151848301820152016141e5565b7fffffffffffffffffffffffffffffffffffffffffffffffffffffffffffffffff8114613a8a5760010190565b90816020910312613c27575173ffffffffffffffffffffffffffffffffffffffff81168103613c275790565b91908201809211613a8a57565b9173ffffffffffffffffffffffffffffffffffffffff806002541633036143ea57835f52600460205260405f20908154161580156143cc575b6143c65760050166020000000000007fffffffffffffffffffffffffffffffffffffffffffffffffff00ffffffffffff8254161790551561439957604051907f47c6b15a0000000000000000000000000000000000000000000000000000000082528260048301523560248201526020816044815f305af15f9181614378575b5061436757506143659061456b565b565b1561436f5750565b6143659061456b565b61439291925060203d602011610b1357610b0581836140dc565b905f614356565b7f4e487b71000000000000000000000000000000000000000000000000000000005f52603260045260245ffd5b50505050565b5060ff600582015460301c166006811015613bce57600114156142d6565b60046040517f6959678d000000000000000000000000000000000000000000000000000000008152fd5b73ffffffffffffffffffffffffffffffffffffffff5f5416330361443457565b60646040517f08c379a000000000000000000000000000000000000000000000000000000000815260206004820152601660248201527f4f6e6c792063616c6c61626c65206279206f776e6572000000000000000000006044820152fd5b6040517fa9059cbb00000000000000000000000000000000000000000000000000000000602082015273ffffffffffffffffffffffffffffffffffffffff929092166024830152604480830193909352918152614365916144f46064836140dc565b614b2c565b519069ffffffffffffffffffff82168203613c2757565b81810292918115918404141715613a8a57565b811561452d570490565b7f4e487b71000000000000000000000000000000000000000000000000000000005f52601260045260245ffd5b60ff16604d8111613a8a57600a0a90565b905f91805f5260046020818152604092835f206005810166040000000000007fffffffffffffffffffffffffffffffffffffffffffffffffff00ffffffffffff8254161790558381019687548061493d575b50600182019081545f5260058552865f209182549273ffffffffffffffffffffffffffffffffffffffff938486541685821614614857575b5050506002830180548015158061483f575b614751575b5050808761461985614136565b878101805184526008895282842054614739575b500180518015159081614726575b50614707575b506146db57507f3e876cc49a9bcfbcd89b6a8c86b585d1da640bd06f0d6cb71ec3ed0bea9c0f846143659798826003869486541695015460081c169054906146b08951928392836020909392919373ffffffffffffffffffffffffffffffffffffffff60408201951681520152565b0390a35f52525f2060055f918281558260018201558260028201558260038201558260048201550155565b806021877f4e487b71000000000000000000000000000000000000000000000000000000006024945252fd5b9050518152600885528087812061471e8154614c97565b90555f614641565b835250600887528882205415155f61463b565b5183528183206147498154614c97565b90555f61462d565b8252600586528782207fffffffffffffffffffffffff00000000000000000000000000000000000000008154169055827f00000000000000000000000000000000000000000000000000000000000000001683855416915491813b156106805789517f42842e0e00000000000000000000000000000000000000000000000000000000815230818b0190815273ffffffffffffffffffffffffffffffffffffffff909216602083015260408201939093528391839182908490829060600103925af18015614835579082911561460c5761482a906140ab565b61025457805f61460c565b88513d84823e3d90fd5b50808352600587528389842054168486541614614607565b7fffffffffffffffffffffffff0000000000000000000000000000000000000000169055827f00000000000000000000000000000000000000000000000000000000000000001690838554169054823b15613c275789517f42842e0e00000000000000000000000000000000000000000000000000000000815230818b0190815273ffffffffffffffffffffffffffffffffffffffff90931660208401526040830191909152915f9183919082908490829060600103925af1801561493357614922575b80806145f5565b61492c91506140ab565b5f8061491b565b88513d5f823e3d90fd5b73ffffffffffffffffffffffffffffffffffffffff808454165f5260098652875f2091600385019282845460081c165f52875261497e895f20918254614290565b90558954915460081c165f52600a855261499c875f20918254614290565b90555f6145bd565b604051906149b182614073565b5f6040838281528260208201520152565b604051906149cf8261408f565b5f6080838281528260208201528260408201528260608201520152565b60808060a06102a09497969573ffffffffffffffffffffffffffffffffffffffff6102c0860199168552614a3360208601825160ff60208092828151168552015116910152565b602081810151805160ff9081166060890152910151166080860152614a7a60408201518387019060ff60408092828151168552826020820151166020860152015116910152565b606081015160ff93818580935116610100890152826020820151166101208901528260408201511661014089015282606082015116610160890152015116610180860152614aeb848201516101a087019060ff60408092828151168552826020820151166020860152015116910152565b015190815115156102008501528060208301511661022085015260408201511515610240850152606082015116610260840152015115156102808201520152565b73ffffffffffffffffffffffffffffffffffffffff16604051614b4e81614057565b5f806020948584527f5361666545524332303a206c6f772d6c6576656c2063616c6c206661696c656486850152858151910182865af13d15614c8a573d9067ffffffffffffffff821161402a57614be19360405192614bd4877fffffffffffffffffffffffffffffffffffffffffffffffffffffffffffffffe0601f84011601856140dc565b83523d5f8785013e615001565b80519081614bee57505050565b8280614bfe9383010191016141c3565b15614c065750565b608490604051907f08c379a00000000000000000000000000000000000000000000000000000000082526004820152602a60248201527f5361666545524332303a204552433230206f7065726174696f6e20646964206e60448201527f6f742073756363656564000000000000000000000000000000000000000000006064820152fd5b91614be192606091615001565b8015613a8a577fffffffffffffffffffffffffffffffffffffffffffffffffffffffffffffffff0190565b9490939192935f9560049586841015614fd5578315614f5a575b60018414614ebc575b60028414614d91575b505050600314614cff575b50505090565b90919250602882029180830460281490151715614d6557906028614d24920690614290565b9060328201809211614d3957505f8080614cf9565b6011907f4e487b71000000000000000000000000000000000000000000000000000000005f525260245ffd5b6011837f4e487b71000000000000000000000000000000000000000000000000000000005f525260245ffd5b9091929650601e8502858104601e1486151715614e6457601482029082820460141483151715614e9057614dcf91614dc891614290565b9186614510565b90600a820291808304600a1490151715614e6457614e239392614df7613a7093603293614290565b936040519060208201928352604082015260408152614e1581614073565b519020066032850692614290565b60648101809111614e38579360035f80614cee565b6011847f4e487b71000000000000000000000000000000000000000000000000000000005f525260245ffd5b6011877f4e487b71000000000000000000000000000000000000000000000000000000005f525260245ffd5b6011887f4e487b71000000000000000000000000000000000000000000000000000000005f525260245ffd5b9650601e8502858104601e1486151715614e6457601488029088820460141489151715614e905790614eed91614290565b614ef78887614510565b90600a820291808304600a1490151715614e9057614f4991614f1891614290565b613a706028604051602081019086825287604082015260408152614f3b81614073565b519020066028880692614290565b60148101809111614e645796614ce5565b9650614f668786614290565b600a810290808204600a1490151715614e6457614fbc905f898803614fcd575b613a7090613a70601e604051602081019088825289604082015260408152614fad81614073565b5190200691601e8a0694614290565b600a8101809111614e645796614cdc565b506014614f86565b6021877f4e487b71000000000000000000000000000000000000000000000000000000005f525260245ffd5b9192901561507c5750815115615015575090565b3b1561501e5790565b60646040517f08c379a000000000000000000000000000000000000000000000000000000000815260206004820152601d60248201527f416464726573733a2063616c6c20746f206e6f6e2d636f6e74726163740000006044820152fd5b82519091501561508f5750805190602001fd5b613f0c906040519182917f08c379a00000000000000000000000000000000000000000000000000000000083526020600484015260248301906141db56fea264697066735822122034d1f52a75437a44931df647d2004267294efb22f05a088f255e1eb89789359764736f6c63430008180033",
    "linkReferences": {}
  },
  "methodIdentifiers": {
    "acceptOwnership()": "79ba5097",
    "claimRefund(address)": "bffa55d5",
    "depositBeanHeads(uint256)": "c490078c",
    "getBreedRequest(uint256)": "82b12082",
    "getEscrowedTokenOwner(uint256)": "4565dc3e",
    "getParentBreedingCount(uint256)": "94e99929",
    "getRarityPoints(uint256)": "a76c2803",
    "onERC721Received(address,address,uint256,bytes)": "150b7a02",
    "owner()": "8da5cb5b",
    "rawFulfillRandomWords(uint256,uint256[])": "1fe543e3",
    "requestBreed(uint256,uint256,uint8,address)": "8702cc76",
    "s_breedRequests(uint256)": "dd7a37a6",
    "s_escrowedTokens(uint256)": "2e24be5d",
    "s_lastBreedingBlock(address)": "2bc6b145",
    "s_mutatedRarityPoints(uint256)": "7c172ef3",
    "s_parentBreedingCount(uint256)": "58b515c8",
    "s_refundable(address,address)": "c420cfd0",
    "s_totalRefundable(address)": "2e098b20",
    "s_vrfCoordinator()": "9eccacf6",
    "setCoolDown(uint256)": "7c56687a",
    "setCoordinator(address)": "8ea98117",
    "settleRequestExternal(uint256,uint256)": "47c6b15a",
    "timeoutRefund(uint256)": "dcdfd05e",
    "transferOwnership(address)": "f2fde38b",
    "withdrawBeanHeads(uint256)": "bb87eaa3",
    "withdrawFunds(address)": "68742da6"
  },
  "id": 138
}