{
  "abi": [
    {
      "type": "constructor",
      "inputs": [
        {
          "name": "router",
          "type": "address",
          "internalType": "address"
        },
        {
          "name": "initialOwner",
          "type": "address",
          "internalType": "address"
        },
        {
          "name": "linkToken",
          "type": "address",
          "internalType": "address"
        },
        {
          "name": "beanHeads",
          "type": "address",
          "internalType": "address"
        }
      ],
      "stateMutability": "nonpayable"
    },
    {
      "type": "function",
      "name": "ADDITIONAL_FEED_PRECISION",
      "inputs": [],
      "outputs": [
        {
          "name": "",
          "type": "uint256",
          "internalType": "uint256"
        }
      ],
      "stateMutability": "view"
    },
    {
      "type": "function",
      "name": "GAS_LIMIT_BUY",
      "inputs": [],
      "outputs": [
        {
          "name": "",
          "type": "uint256",
          "internalType": "uint256"
        }
      ],
      "stateMutability": "view"
    },
    {
      "type": "function",
      "name": "GAS_LIMIT_MINT",
      "inputs": [],
      "outputs": [
        {
          "name": "",
          "type": "uint256",
          "internalType": "uint256"
        }
      ],
      "stateMutability": "view"
    },
    {
      "type": "function",
      "name": "GAS_LIMIT_SELL",
      "inputs": [],
      "outputs": [
        {
          "name": "",
          "type": "uint256",
          "internalType": "uint256"
        }
      ],
      "stateMutability": "view"
    },
    {
      "type": "function",
      "name": "GAS_LIMIT_TRANSFER",
      "inputs": [],
      "outputs": [
        {
          "name": "",
          "type": "uint256",
          "internalType": "uint256"
        }
      ],
      "stateMutability": "view"
    },
    {
      "type": "function",
      "name": "PRECISION",
      "inputs": [],
      "outputs": [
        {
          "name": "",
          "type": "uint256",
          "internalType": "uint256"
        }
      ],
      "stateMutability": "view"
    },
    {
      "type": "function",
      "name": "ccipReceive",
      "inputs": [
        {
          "name": "message",
          "type": "tuple",
          "internalType": "struct Client.Any2EVMMessage",
          "components": [
            {
              "name": "messageId",
              "type": "bytes32",
              "internalType": "bytes32"
            },
            {
              "name": "sourceChainSelector",
              "type": "uint64",
              "internalType": "uint64"
            },
            {
              "name": "sender",
              "type": "bytes",
              "internalType": "bytes"
            },
            {
              "name": "data",
              "type": "bytes",
              "internalType": "bytes"
            },
            {
              "name": "destTokenAmounts",
              "type": "tuple[]",
              "internalType": "struct Client.EVMTokenAmount[]",
              "components": [
                {
                  "name": "token",
                  "type": "address",
                  "internalType": "address"
                },
                {
                  "name": "amount",
                  "type": "uint256",
                  "internalType": "uint256"
                }
              ]
            }
          ]
        }
      ],
      "outputs": [],
      "stateMutability": "nonpayable"
    },
    {
      "type": "function",
      "name": "depositLink",
      "inputs": [
        {
          "name": "amount",
          "type": "uint256",
          "internalType": "uint256"
        }
      ],
      "outputs": [],
      "stateMutability": "nonpayable"
    },
    {
      "type": "function",
      "name": "getRouter",
      "inputs": [],
      "outputs": [
        {
          "name": "",
          "type": "address",
          "internalType": "address"
        }
      ],
      "stateMutability": "view"
    },
    {
      "type": "function",
      "name": "i_beanHeadsContract",
      "inputs": [],
      "outputs": [
        {
          "name": "",
          "type": "address",
          "internalType": "address"
        }
      ],
      "stateMutability": "view"
    },
    {
      "type": "function",
      "name": "i_router",
      "inputs": [],
      "outputs": [
        {
          "name": "",
          "type": "address",
          "internalType": "contract IRouterClient"
        }
      ],
      "stateMutability": "view"
    },
    {
      "type": "function",
      "name": "onERC721Received",
      "inputs": [
        {
          "name": "",
          "type": "address",
          "internalType": "address"
        },
        {
          "name": "",
          "type": "address",
          "internalType": "address"
        },
        {
          "name": "",
          "type": "uint256",
          "internalType": "uint256"
        },
        {
          "name": "",
          "type": "bytes",
          "internalType": "bytes"
        }
      ],
      "outputs": [
        {
          "name": "",
          "type": "bytes4",
          "internalType": "bytes4"
        }
      ],
      "stateMutability": "pure"
    },
    {
      "type": "function",
      "name": "owner",
      "inputs": [],
      "outputs": [
        {
          "name": "",
          "type": "address",
          "internalType": "address"
        }
      ],
      "stateMutability": "view"
    },
    {
      "type": "function",
      "name": "remoteBridgeAddresses",
      "inputs": [
        {
          "name": "chainId",
          "type": "uint64",
          "internalType": "uint64"
        },
        {
          "name": "remoteBridge",
          "type": "address",
          "internalType": "address"
        }
      ],
      "outputs": [
        {
          "name": "isRegistered",
          "type": "bool",
          "internalType": "bool"
        }
      ],
      "stateMutability": "view"
    },
    {
      "type": "function",
      "name": "renounceOwnership",
      "inputs": [],
      "outputs": [],
      "stateMutability": "nonpayable"
    },
    {
      "type": "function",
      "name": "s_destChain",
      "inputs": [],
      "outputs": [
        {
          "name": "",
          "type": "uint64",
          "internalType": "uint64"
        }
      ],
      "stateMutability": "view"
    },
    {
      "type": "function",
      "name": "s_linkToken",
      "inputs": [],
      "outputs": [
        {
          "name": "",
          "type": "address",
          "internalType": "contract IERC20"
        }
      ],
      "stateMutability": "view"
    },
    {
      "type": "function",
      "name": "s_remoteBridge",
      "inputs": [],
      "outputs": [
        {
          "name": "",
          "type": "address",
          "internalType": "address"
        }
      ],
      "stateMutability": "view"
    },
    {
      "type": "function",
      "name": "sendBatchBuyTokenRequest",
      "inputs": [
        {
          "name": "_destinationChainSelector",
          "type": "uint64",
          "internalType": "uint64"
        },
        {
          "name": "_tokenIds",
          "type": "uint256[]",
          "internalType": "uint256[]"
        },
        {
          "name": "_prices",
          "type": "uint256[]",
          "internalType": "uint256[]"
        },
        {
          "name": "_paymentToken",
          "type": "address",
          "internalType": "address"
        }
      ],
      "outputs": [
        {
          "name": "messageId",
          "type": "bytes32",
          "internalType": "bytes32"
        }
      ],
      "stateMutability": "nonpayable"
    },
    {
      "type": "function",
      "name": "sendBatchCancelTokenSaleRequest",
      "inputs": [
        {
          "name": "_destinationChainSelector",
          "type": "uint64",
          "internalType": "uint64"
        },
        {
          "name": "_cancelRequests",
          "type": "tuple[]",
          "internalType": "struct PermitTypes.Cancel[]",
          "components": [
            {
              "name": "seller",
              "type": "address",
              "internalType": "address"
            },
            {
              "name": "tokenId",
              "type": "uint256",
              "internalType": "uint256"
            },
            {
              "name": "listingNonce",
              "type": "uint256",
              "internalType": "uint256"
            },
            {
              "name": "deadline",
              "type": "uint64",
              "internalType": "uint64"
            }
          ]
        },
        {
          "name": "_cancelSigs",
          "type": "bytes[]",
          "internalType": "bytes[]"
        }
      ],
      "outputs": [
        {
          "name": "messageId",
          "type": "bytes32",
          "internalType": "bytes32"
        }
      ],
      "stateMutability": "nonpayable"
    },
    {
      "type": "function",
      "name": "sendBatchSellTokenRequest",
      "inputs": [
        {
          "name": "_destinationChainSelector",
          "type": "uint64",
          "internalType": "uint64"
        },
        {
          "name": "_sellRequests",
          "type": "tuple[]",
          "internalType": "struct PermitTypes.Sell[]",
          "components": [
            {
              "name": "owner",
              "type": "address",
              "internalType": "address"
            },
            {
              "name": "tokenId",
              "type": "uint256",
              "internalType": "uint256"
            },
            {
              "name": "price",
              "type": "uint256",
              "internalType": "uint256"
            },
            {
              "name": "nonce",
              "type": "uint256",
              "internalType": "uint256"
            },
            {
              "name": "deadline",
              "type": "uint64",
              "internalType": "uint64"
            }
          ]
        },
        {
          "name": "_sellSigs",
          "type": "bytes[]",
          "internalType": "bytes[]"
        },
        {
          "name": "_permitDeadlines",
          "type": "uint256[]",
          "internalType": "uint256[]"
        },
        {
          "name": "_permitSigs",
          "type": "bytes[]",
          "internalType": "bytes[]"
        }
      ],
      "outputs": [
        {
          "name": "messageId",
          "type": "bytes32",
          "internalType": "bytes32"
        }
      ],
      "stateMutability": "nonpayable"
    },
    {
      "type": "function",
      "name": "sendBuyTokenRequest",
      "inputs": [
        {
          "name": "_destinationChainSelector",
          "type": "uint64",
          "internalType": "uint64"
        },
        {
          "name": "_tokenId",
          "type": "uint256",
          "internalType": "uint256"
        },
        {
          "name": "_paymentToken",
          "type": "address",
          "internalType": "address"
        },
        {
          "name": "_price",
          "type": "uint256",
          "internalType": "uint256"
        }
      ],
      "outputs": [
        {
          "name": "messageId",
          "type": "bytes32",
          "internalType": "bytes32"
        }
      ],
      "stateMutability": "nonpayable"
    },
    {
      "type": "function",
      "name": "sendCancelTokenSaleRequest",
      "inputs": [
        {
          "name": "_destinationChainSelector",
          "type": "uint64",
          "internalType": "uint64"
        },
        {
          "name": "c",
          "type": "tuple",
          "internalType": "struct PermitTypes.Cancel",
          "components": [
            {
              "name": "seller",
              "type": "address",
              "internalType": "address"
            },
            {
              "name": "tokenId",
              "type": "uint256",
              "internalType": "uint256"
            },
            {
              "name": "listingNonce",
              "type": "uint256",
              "internalType": "uint256"
            },
            {
              "name": "deadline",
              "type": "uint64",
              "internalType": "uint64"
            }
          ]
        },
        {
          "name": "cancelSig",
          "type": "bytes",
          "internalType": "bytes"
        }
      ],
      "outputs": [
        {
          "name": "messageId",
          "type": "bytes32",
          "internalType": "bytes32"
        }
      ],
      "stateMutability": "nonpayable"
    },
    {
      "type": "function",
      "name": "sendMintTokenRequest",
      "inputs": [
        {
          "name": "_destinationChainSelector",
          "type": "uint64",
          "internalType": "uint64"
        },
        {
          "name": "_receiver",
          "type": "address",
          "internalType": "address"
        },
        {
          "name": "_params",
          "type": "tuple",
          "internalType": "struct Genesis.SVGParams",
          "components": [
            {
              "name": "hairParams",
              "type": "tuple",
              "internalType": "struct Genesis.HairParams",
              "components": [
                {
                  "name": "hairStyle",
                  "type": "uint8",
                  "internalType": "uint8"
                },
                {
                  "name": "hairColor",
                  "type": "uint8",
                  "internalType": "uint8"
                }
              ]
            },
            {
              "name": "bodyParams",
              "type": "tuple",
              "internalType": "struct Genesis.BodyParams",
              "components": [
                {
                  "name": "bodyType",
                  "type": "uint8",
                  "internalType": "uint8"
                },
                {
                  "name": "skinColor",
                  "type": "uint8",
                  "internalType": "uint8"
                }
              ]
            },
            {
              "name": "clothingParams",
              "type": "tuple",
              "internalType": "struct Genesis.ClothingParams",
              "components": [
                {
                  "name": "clothes",
                  "type": "uint8",
                  "internalType": "uint8"
                },
                {
                  "name": "clothingColor",
                  "type": "uint8",
                  "internalType": "uint8"
                },
                {
                  "name": "clothesGraphic",
                  "type": "uint8",
                  "internalType": "uint8"
                }
              ]
            },
            {
              "name": "facialFeaturesParams",
              "type": "tuple",
              "internalType": "struct Genesis.FacialFeaturesParams",
              "components": [
                {
                  "name": "eyebrowShape",
                  "type": "uint8",
                  "internalType": "uint8"
                },
                {
                  "name": "eyeShape",
                  "type": "uint8",
                  "internalType": "uint8"
                },
                {
                  "name": "facialHairType",
                  "type": "uint8",
                  "internalType": "uint8"
                },
                {
                  "name": "mouthStyle",
                  "type": "uint8",
                  "internalType": "uint8"
                },
                {
                  "name": "lipColor",
                  "type": "uint8",
                  "internalType": "uint8"
                }
              ]
            },
            {
              "name": "accessoryParams",
              "type": "tuple",
              "internalType": "struct Genesis.AccessoryParams",
              "components": [
                {
                  "name": "accessoryId",
                  "type": "uint8",
                  "internalType": "uint8"
                },
                {
                  "name": "hatStyle",
                  "type": "uint8",
                  "internalType": "uint8"
                },
                {
                  "name": "hatColor",
                  "type": "uint8",
                  "internalType": "uint8"
                }
              ]
            },
            {
              "name": "otherParams",
              "type": "tuple",
              "internalType": "struct Genesis.OtherParams",
              "components": [
                {
                  "name": "faceMask",
                  "type": "bool",
                  "internalType": "bool"
                },
                {
                  "name": "faceMaskColor",
                  "type": "uint8",
                  "internalType": "uint8"
                },
                {
                  "name": "shapes",
                  "type": "bool",
                  "internalType": "bool"
                },
                {
                  "name": "shapeColor",
                  "type": "uint8",
                  "internalType": "uint8"
                },
                {
                  "name": "lashes",
                  "type": "bool",
                  "internalType": "bool"
                }
              ]
            }
          ]
        },
        {
          "name": "_amount",
          "type": "uint256",
          "internalType": "uint256"
        },
        {
          "name": "_paymentToken",
          "type": "address",
          "internalType": "address"
        }
      ],
      "outputs": [
        {
          "name": "messageId",
          "type": "bytes32",
          "internalType": "bytes32"
        }
      ],
      "stateMutability": "payable"
    },
    {
      "type": "function",
      "name": "sendSellTokenRequest",
      "inputs": [
        {
          "name": "_destinationChainSelector",
          "type": "uint64",
          "internalType": "uint64"
        },
        {
          "name": "s",
          "type": "tuple",
          "internalType": "struct PermitTypes.Sell",
          "components": [
            {
              "name": "owner",
              "type": "address",
              "internalType": "address"
            },
            {
              "name": "tokenId",
              "type": "uint256",
              "internalType": "uint256"
            },
            {
              "name": "price",
              "type": "uint256",
              "internalType": "uint256"
            },
            {
              "name": "nonce",
              "type": "uint256",
              "internalType": "uint256"
            },
            {
              "name": "deadline",
              "type": "uint64",
              "internalType": "uint64"
            }
          ]
        },
        {
          "name": "sellSig",
          "type": "bytes",
          "internalType": "bytes"
        },
        {
          "name": "permitDeadline",
          "type": "uint256",
          "internalType": "uint256"
        },
        {
          "name": "permitSig",
          "type": "bytes",
          "internalType": "bytes"
        }
      ],
      "outputs": [
        {
          "name": "messageId",
          "type": "bytes32",
          "internalType": "bytes32"
        }
      ],
      "stateMutability": "nonpayable"
    },
    {
      "type": "function",
      "name": "sendTransferTokenRequest",
      "inputs": [
        {
          "name": "_destinationChainSelector",
          "type": "uint64",
          "internalType": "uint64"
        },
        {
          "name": "_tokenId",
          "type": "uint256",
          "internalType": "uint256"
        },
        {
          "name": "_receiver",
          "type": "address",
          "internalType": "address"
        }
      ],
      "outputs": [
        {
          "name": "messageId",
          "type": "bytes32",
          "internalType": "bytes32"
        }
      ],
      "stateMutability": "nonpayable"
    },
    {
      "type": "function",
      "name": "setRemoteBridge",
      "inputs": [
        {
          "name": "chainId",
          "type": "uint64",
          "internalType": "uint64"
        },
        {
          "name": "_newRemoteBridge",
          "type": "address",
          "internalType": "address"
        },
        {
          "name": "allowed",
          "type": "bool",
          "internalType": "bool"
        }
      ],
      "outputs": [],
      "stateMutability": "nonpayable"
    },
    {
      "type": "function",
      "name": "supportsInterface",
      "inputs": [
        {
          "name": "interfaceId",
          "type": "bytes4",
          "internalType": "bytes4"
        }
      ],
      "outputs": [
        {
          "name": "",
          "type": "bool",
          "internalType": "bool"
        }
      ],
      "stateMutability": "view"
    },
    {
      "type": "function",
      "name": "transferOwnership",
      "inputs": [
        {
          "name": "newOwner",
          "type": "address",
          "internalType": "address"
        }
      ],
      "outputs": [],
      "stateMutability": "nonpayable"
    },
    {
      "type": "function",
      "name": "withdrawLink",
      "inputs": [
        {
          "name": "amount",
          "type": "uint256",
          "internalType": "uint256"
        }
      ],
      "outputs": [],
      "stateMutability": "nonpayable"
    },
    {
      "type": "event",
      "name": "BatchTokenBoughtCrossChain",
      "inputs": [
        {
          "name": "buyer",
          "type": "address",
          "indexed": true,
          "internalType": "address"
        },
        {
          "name": "paymentToken",
          "type": "address",
          "indexed": true,
          "internalType": "address"
        }
      ],
      "anonymous": false
    },
    {
      "type": "event",
      "name": "BatchTokenSaleCancelledCrossChain",
      "inputs": [
        {
          "name": "cancelRequests",
          "type": "tuple[]",
          "indexed": false,
          "internalType": "struct PermitTypes.Cancel[]",
          "components": [
            {
              "name": "seller",
              "type": "address",
              "internalType": "address"
            },
            {
              "name": "tokenId",
              "type": "uint256",
              "internalType": "uint256"
            },
            {
              "name": "listingNonce",
              "type": "uint256",
              "internalType": "uint256"
            },
            {
              "name": "deadline",
              "type": "uint64",
              "internalType": "uint64"
            }
          ]
        }
      ],
      "anonymous": false
    },
    {
      "type": "event",
      "name": "BatchTokensListedCrossChain",
      "inputs": [
        {
          "name": "sellRequests",
          "type": "tuple[]",
          "indexed": false,
          "internalType": "struct PermitTypes.Sell[]",
          "components": [
            {
              "name": "owner",
              "type": "address",
              "internalType": "address"
            },
            {
              "name": "tokenId",
              "type": "uint256",
              "internalType": "uint256"
            },
            {
              "name": "price",
              "type": "uint256",
              "internalType": "uint256"
            },
            {
              "name": "nonce",
              "type": "uint256",
              "internalType": "uint256"
            },
            {
              "name": "deadline",
              "type": "uint64",
              "internalType": "uint64"
            }
          ]
        }
      ],
      "anonymous": false
    },
    {
      "type": "event",
      "name": "CancelBatchSellTokenRequest",
      "inputs": [
        {
          "name": "cancelRequests",
          "type": "tuple[]",
          "indexed": false,
          "internalType": "struct PermitTypes.Cancel[]",
          "components": [
            {
              "name": "seller",
              "type": "address",
              "internalType": "address"
            },
            {
              "name": "tokenId",
              "type": "uint256",
              "internalType": "uint256"
            },
            {
              "name": "listingNonce",
              "type": "uint256",
              "internalType": "uint256"
            },
            {
              "name": "deadline",
              "type": "uint64",
              "internalType": "uint64"
            }
          ]
        }
      ],
      "anonymous": false
    },
    {
      "type": "event",
      "name": "CancelSellTokenRequest",
      "inputs": [
        {
          "name": "messageId",
          "type": "bytes32",
          "indexed": true,
          "internalType": "bytes32"
        },
        {
          "name": "destinationChainSelector",
          "type": "uint64",
          "indexed": true,
          "internalType": "uint64"
        },
        {
          "name": "receiver",
          "type": "address",
          "indexed": true,
          "internalType": "address"
        },
        {
          "name": "tokenId",
          "type": "uint256",
          "indexed": false,
          "internalType": "uint256"
        }
      ],
      "anonymous": false
    },
    {
      "type": "event",
      "name": "OwnershipTransferred",
      "inputs": [
        {
          "name": "previousOwner",
          "type": "address",
          "indexed": true,
          "internalType": "address"
        },
        {
          "name": "newOwner",
          "type": "address",
          "indexed": true,
          "internalType": "address"
        }
      ],
      "anonymous": false
    },
    {
      "type": "event",
      "name": "RemoteBridgeUpdated",
      "inputs": [
        {
          "name": "newRemoteBridge",
          "type": "address",
          "indexed": false,
          "internalType": "address"
        }
      ],
      "anonymous": false
    },
    {
      "type": "event",
      "name": "SentBatchBuyTokensRequest",
      "inputs": [
        {
          "name": "messageId",
          "type": "bytes32",
          "indexed": true,
          "internalType": "bytes32"
        },
        {
          "name": "destinationChainSelector",
          "type": "uint64",
          "indexed": true,
          "internalType": "uint64"
        },
        {
          "name": "receiver",
          "type": "address",
          "indexed": true,
          "internalType": "address"
        }
      ],
      "anonymous": false
    },
    {
      "type": "event",
      "name": "SentBatchSellTokensRequest",
      "inputs": [
        {
          "name": "sellRequests",
          "type": "tuple[]",
          "indexed": false,
          "internalType": "struct PermitTypes.Sell[]",
          "components": [
            {
              "name": "owner",
              "type": "address",
              "internalType": "address"
            },
            {
              "name": "tokenId",
              "type": "uint256",
              "internalType": "uint256"
            },
            {
              "name": "price",
              "type": "uint256",
              "internalType": "uint256"
            },
            {
              "name": "nonce",
              "type": "uint256",
              "internalType": "uint256"
            },
            {
              "name": "deadline",
              "type": "uint64",
              "internalType": "uint64"
            }
          ]
        }
      ],
      "anonymous": false
    },
    {
      "type": "event",
      "name": "SentBuyTokenRequest",
      "inputs": [
        {
          "name": "messageId",
          "type": "bytes32",
          "indexed": true,
          "internalType": "bytes32"
        },
        {
          "name": "destinationChainSelector",
          "type": "uint64",
          "indexed": true,
          "internalType": "uint64"
        },
        {
          "name": "receiver",
          "type": "address",
          "indexed": true,
          "internalType": "address"
        },
        {
          "name": "tokenId",
          "type": "uint256",
          "indexed": false,
          "internalType": "uint256"
        },
        {
          "name": "price",
          "type": "uint256",
          "indexed": false,
          "internalType": "uint256"
        }
      ],
      "anonymous": false
    },
    {
      "type": "event",
      "name": "SentMintTokenRequest",
      "inputs": [
        {
          "name": "messageId",
          "type": "bytes32",
          "indexed": true,
          "internalType": "bytes32"
        },
        {
          "name": "destinationChainSelector",
          "type": "uint64",
          "indexed": true,
          "internalType": "uint64"
        },
        {
          "name": "receiver",
          "type": "address",
          "indexed": true,
          "internalType": "address"
        },
        {
          "name": "amount",
          "type": "uint256",
          "indexed": false,
          "internalType": "uint256"
        }
      ],
      "anonymous": false
    },
    {
      "type": "event",
      "name": "SentSellTokenRequest",
      "inputs": [
        {
          "name": "messageId",
          "type": "bytes32",
          "indexed": true,
          "internalType": "bytes32"
        },
        {
          "name": "destinationChainSelector",
          "type": "uint64",
          "indexed": true,
          "internalType": "uint64"
        },
        {
          "name": "receiver",
          "type": "address",
          "indexed": true,
          "internalType": "address"
        },
        {
          "name": "tokenId",
          "type": "uint256",
          "indexed": false,
          "internalType": "uint256"
        },
        {
          "name": "price",
          "type": "uint256",
          "indexed": false,
          "internalType": "uint256"
        }
      ],
      "anonymous": false
    },
    {
      "type": "event",
      "name": "SentTransferTokenRequest",
      "inputs": [
        {
          "name": "messageId",
          "type": "bytes32",
          "indexed": true,
          "internalType": "bytes32"
        },
        {
          "name": "destinationChainSelector",
          "type": "uint64",
          "indexed": true,
          "internalType": "uint64"
        },
        {
          "name": "receiver",
          "type": "address",
          "indexed": true,
          "internalType": "address"
        },
        {
          "name": "tokenId",
          "type": "uint256",
          "indexed": false,
          "internalType": "uint256"
        }
      ],
      "anonymous": false
    },
    {
      "type": "event",
      "name": "TokenBoughtCrossChain",
      "inputs": [
        {
          "name": "buyer",
          "type": "address",
          "indexed": true,
          "internalType": "address"
        },
        {
          "name": "tokenId",
          "type": "uint256",
          "indexed": false,
          "internalType": "uint256"
        }
      ],
      "anonymous": false
    },
    {
      "type": "event",
      "name": "TokenListedCrossChain",
      "inputs": [
        {
          "name": "seller",
          "type": "address",
          "indexed": true,
          "internalType": "address"
        },
        {
          "name": "tokenId",
          "type": "uint256",
          "indexed": false,
          "internalType": "uint256"
        },
        {
          "name": "price",
          "type": "uint256",
          "indexed": false,
          "internalType": "uint256"
        }
      ],
      "anonymous": false
    },
    {
      "type": "event",
      "name": "TokenMintedCrossChain",
      "inputs": [
        {
          "name": "receiver",
          "type": "address",
          "indexed": true,
          "internalType": "address"
        },
        {
          "name": "params",
          "type": "tuple",
          "indexed": false,
          "internalType": "struct Genesis.SVGParams",
          "components": [
            {
              "name": "hairParams",
              "type": "tuple",
              "internalType": "struct Genesis.HairParams",
              "components": [
                {
                  "name": "hairStyle",
                  "type": "uint8",
                  "internalType": "uint8"
                },
                {
                  "name": "hairColor",
                  "type": "uint8",
                  "internalType": "uint8"
                }
              ]
            },
            {
              "name": "bodyParams",
              "type": "tuple",
              "internalType": "struct Genesis.BodyParams",
              "components": [
                {
                  "name": "bodyType",
                  "type": "uint8",
                  "internalType": "uint8"
                },
                {
                  "name": "skinColor",
                  "type": "uint8",
                  "internalType": "uint8"
                }
              ]
            },
            {
              "name": "clothingParams",
              "type": "tuple",
              "internalType": "struct Genesis.ClothingParams",
              "components": [
                {
                  "name": "clothes",
                  "type": "uint8",
                  "internalType": "uint8"
                },
                {
                  "name": "clothingColor",
                  "type": "uint8",
                  "internalType": "uint8"
                },
                {
                  "name": "clothesGraphic",
                  "type": "uint8",
                  "internalType": "uint8"
                }
              ]
            },
            {
              "name": "facialFeaturesParams",
              "type": "tuple",
              "internalType": "struct Genesis.FacialFeaturesParams",
              "components": [
                {
                  "name": "eyebrowShape",
                  "type": "uint8",
                  "internalType": "uint8"
                },
                {
                  "name": "eyeShape",
                  "type": "uint8",
                  "internalType": "uint8"
                },
                {
                  "name": "facialHairType",
                  "type": "uint8",
                  "internalType": "uint8"
                },
                {
                  "name": "mouthStyle",
                  "type": "uint8",
                  "internalType": "uint8"
                },
                {
                  "name": "lipColor",
                  "type": "uint8",
                  "internalType": "uint8"
                }
              ]
            },
            {
              "name": "accessoryParams",
              "type": "tuple",
              "internalType": "struct Genesis.AccessoryParams",
              "components": [
                {
                  "name": "accessoryId",
                  "type": "uint8",
                  "internalType": "uint8"
                },
                {
                  "name": "hatStyle",
                  "type": "uint8",
                  "internalType": "uint8"
                },
                {
                  "name": "hatColor",
                  "type": "uint8",
                  "internalType": "uint8"
                }
              ]
            },
            {
              "name": "otherParams",
              "type": "tuple",
              "internalType": "struct Genesis.OtherParams",
              "components": [
                {
                  "name": "faceMask",
                  "type": "bool",
                  "internalType": "bool"
                },
                {
                  "name": "faceMaskColor",
                  "type": "uint8",
                  "internalType": "uint8"
                },
                {
                  "name": "shapes",
                  "type": "bool",
                  "internalType": "bool"
                },
                {
                  "name": "shapeColor",
                  "type": "uint8",
                  "internalType": "uint8"
                },
                {
                  "name": "lashes",
                  "type": "bool",
                  "internalType": "bool"
                }
              ]
            }
          ]
        },
        {
          "name": "amount",
          "type": "uint256",
          "indexed": false,
          "internalType": "uint256"
        }
      ],
      "anonymous": false
    },
    {
      "type": "event",
      "name": "TokenMirroredOnDestinationChain",
      "inputs": [
        {
          "name": "receiver",
          "type": "address",
          "indexed": true,
          "internalType": "address"
        },
        {
          "name": "tokenId",
          "type": "uint256",
          "indexed": false,
          "internalType": "uint256"
        },
        {
          "name": "params",
          "type": "tuple",
          "indexed": false,
          "internalType": "struct Genesis.SVGParams",
          "components": [
            {
              "name": "hairParams",
              "type": "tuple",
              "internalType": "struct Genesis.HairParams",
              "components": [
                {
                  "name": "hairStyle",
                  "type": "uint8",
                  "internalType": "uint8"
                },
                {
                  "name": "hairColor",
                  "type": "uint8",
                  "internalType": "uint8"
                }
              ]
            },
            {
              "name": "bodyParams",
              "type": "tuple",
              "internalType": "struct Genesis.BodyParams",
              "components": [
                {
                  "name": "bodyType",
                  "type": "uint8",
                  "internalType": "uint8"
                },
                {
                  "name": "skinColor",
                  "type": "uint8",
                  "internalType": "uint8"
                }
              ]
            },
            {
              "name": "clothingParams",
              "type": "tuple",
              "internalType": "struct Genesis.ClothingParams",
              "components": [
                {
                  "name": "clothes",
                  "type": "uint8",
                  "internalType": "uint8"
                },
                {
                  "name": "clothingColor",
                  "type": "uint8",
                  "internalType": "uint8"
                },
                {
                  "name": "clothesGraphic",
                  "type": "uint8",
                  "internalType": "uint8"
                }
              ]
            },
            {
              "name": "facialFeaturesParams",
              "type": "tuple",
              "internalType": "struct Genesis.FacialFeaturesParams",
              "components": [
                {
                  "name": "eyebrowShape",
                  "type": "uint8",
                  "internalType": "uint8"
                },
                {
                  "name": "eyeShape",
                  "type": "uint8",
                  "internalType": "uint8"
                },
                {
                  "name": "facialHairType",
                  "type": "uint8",
                  "internalType": "uint8"
                },
                {
                  "name": "mouthStyle",
                  "type": "uint8",
                  "internalType": "uint8"
                },
                {
                  "name": "lipColor",
                  "type": "uint8",
                  "internalType": "uint8"
                }
              ]
            },
            {
              "name": "accessoryParams",
              "type": "tuple",
              "internalType": "struct Genesis.AccessoryParams",
              "components": [
                {
                  "name": "accessoryId",
                  "type": "uint8",
                  "internalType": "uint8"
                },
                {
                  "name": "hatStyle",
                  "type": "uint8",
                  "internalType": "uint8"
                },
                {
                  "name": "hatColor",
                  "type": "uint8",
                  "internalType": "uint8"
                }
              ]
            },
            {
              "name": "otherParams",
              "type": "tuple",
              "internalType": "struct Genesis.OtherParams",
              "components": [
                {
                  "name": "faceMask",
                  "type": "bool",
                  "internalType": "bool"
                },
                {
                  "name": "faceMaskColor",
                  "type": "uint8",
                  "internalType": "uint8"
                },
                {
                  "name": "shapes",
                  "type": "bool",
                  "internalType": "bool"
                },
                {
                  "name": "shapeColor",
                  "type": "uint8",
                  "internalType": "uint8"
                },
                {
                  "name": "lashes",
                  "type": "bool",
                  "internalType": "bool"
                }
              ]
            }
          ]
        },
        {
          "name": "originChainId",
          "type": "uint256",
          "indexed": false,
          "internalType": "uint256"
        }
      ],
      "anonymous": false
    },
    {
      "type": "event",
      "name": "TokenReturnedToSourceChain",
      "inputs": [
        {
          "name": "tokenId",
          "type": "uint256",
          "indexed": false,
          "internalType": "uint256"
        }
      ],
      "anonymous": false
    },
    {
      "type": "event",
      "name": "TokenSaleCancelled",
      "inputs": [
        {
          "name": "owner",
          "type": "address",
          "indexed": true,
          "internalType": "address"
        },
        {
          "name": "tokenId",
          "type": "uint256",
          "indexed": false,
          "internalType": "uint256"
        }
      ],
      "anonymous": false
    },
    {
      "type": "event",
      "name": "TokenTransferredCrossChain",
      "inputs": [
        {
          "name": "receiver",
          "type": "address",
          "indexed": true,
          "internalType": "address"
        },
        {
          "name": "tokenId",
          "type": "uint256",
          "indexed": false,
          "internalType": "uint256"
        }
      ],
      "anonymous": false
    },
    {
      "type": "error",
      "name": "IBeanHeadsBridge__InsufficientAllowance",
      "inputs": []
    },
    {
      "type": "error",
      "name": "IBeanHeadsBridge__InsufficientLinkBalance",
      "inputs": [
        {
          "name": "amount",
          "type": "uint256",
          "internalType": "uint256"
        }
      ]
    },
    {
      "type": "error",
      "name": "IBeanHeadsBridge__InsufficientPayment",
      "inputs": []
    },
    {
      "type": "error",
      "name": "IBeanHeadsBridge__InvalidAmount",
      "inputs": []
    },
    {
      "type": "error",
      "name": "IBeanHeadsBridge__InvalidLength",
      "inputs": []
    },
    {
      "type": "error",
      "name": "IBeanHeadsBridge__InvalidNonce",
      "inputs": []
    },
    {
      "type": "error",
      "name": "IBeanHeadsBridge__InvalidOraclePrice",
      "inputs": []
    },
    {
      "type": "error",
      "name": "IBeanHeadsBridge__InvalidPaymentToken",
      "inputs": [
        {
          "name": "received",
          "type": "address",
          "internalType": "address"
        },
        {
          "name": "expected",
          "type": "address",
          "internalType": "address"
        }
      ]
    },
    {
      "type": "error",
      "name": "IBeanHeadsBridge__InvalidRemoteAddress",
      "inputs": []
    },
    {
      "type": "error",
      "name": "IBeanHeadsBridge__InvalidToken",
      "inputs": []
    },
    {
      "type": "error",
      "name": "IBeanHeadsBridge__InvalidTokenReceived",
      "inputs": []
    },
    {
      "type": "error",
      "name": "IBeanHeadsBridge__MismatchedArrayLengths",
      "inputs": []
    },
    {
      "type": "error",
      "name": "IBeanHeadsBridge__PriceExceedsMax",
      "inputs": []
    },
    {
      "type": "error",
      "name": "IBeanHeadsBridge__TokenIsNotForSale",
      "inputs": []
    },
    {
      "type": "error",
      "name": "IBeanHeadsBridge__TokenNotAllowed",
      "inputs": [
        {
          "name": "token",
          "type": "address",
          "internalType": "address"
        }
      ]
    },
    {
      "type": "error",
      "name": "IBeanHeadsBridge__TokenNotDeposited",
      "inputs": [
        {
          "name": "tokenId",
          "type": "uint256",
          "internalType": "uint256"
        }
      ]
    },
    {
      "type": "error",
      "name": "IBeanHeadsBridge__UnauthorizedSender",
      "inputs": [
        {
          "name": "sender",
          "type": "address",
          "internalType": "address"
        }
      ]
    },
    {
      "type": "error",
      "name": "InvalidRouter",
      "inputs": [
        {
          "name": "router",
          "type": "address",
          "internalType": "address"
        }
      ]
    },
    {
      "type": "error",
      "name": "OwnableInvalidOwner",
      "inputs": [
        {
          "name": "owner",
          "type": "address",
          "internalType": "address"
        }
      ]
    },
    {
      "type": "error",
      "name": "OwnableUnauthorizedAccount",
      "inputs": [
        {
          "name": "account",
          "type": "address",
          "internalType": "address"
        }
      ]
    },
    {
      "type": "error",
      "name": "ReentrancyGuardReentrantCall",
      "inputs": []
    }
  ],
  "bytecode": {
    "object": "0x60e0346200022c57601f62005b8a38819003918201601f19168301916001600160401b0383118484101762000230578084926080946040528339810103126200022c576200004d8162000244565b6200005b6020830162000244565b91620000786060620000706040840162000244565b920162000244565b6001600160a01b03808416949193909185156200021457829160c05216918215620001fc57600380546001600160a01b031980821686179092556040519691949084167f8be0079c531659141344cd1fd0a4f28419497f9722a3daafe3b4186f6b6457e05f80a360016004556080521690600154161760015560a05261593090816200025a823960805181818161160e01528181611677015281816116fd01528181611f2c015281816123550152818161296c0152818161325a015281816137cd01528181613c4201526150a8015260a0518181816110d501528181611188015281816113580152818161147401528181611772015281816118140152818161198e015281816119fe01528181611a4401528181611adc01528181611bc801528181611c5801528181611d5401528181611e1f01528181611f73015281816120040152818161211601528181612224015281816123e50152818161262c01528181612dba015281816135ce01526153eb015260c0518181816109350152610e120152f35b604051631e4fbdf760e01b81525f6004820152602490fd5b6040516335fdcccd60e21b81525f6004820152602490fd5b5f80fd5b634e487b7160e01b5f52604160045260245ffd5b51906001600160a01b03821682036200022c5756fe6080806040526004361015610012575f80fd5b5f905f3560e01c90816301ffc9a714613cf357508063104884131461066d5780631179680f146139da57806311d82d55146138a4578063150b7a0214613817578063232df00d146135f25780632c406d441461358457806338c723531461331557806341b8b269146132ce57806357c9cafb1461327e578063581bdd161461321057806362cd6c9014612d1b578063708e114714612c95578063715018a614612bf75780637725135b14612ba55780637a8042bd14612a1d5780637b0ef2091461252557806385572ffb14610d8d5780638da5cb5b14610d3b578063a0da12a514610cfd578063a700a39c1461066d578063aa7ab1ab146109d6578063aaf5eb6814610995578063ab895eb814610959578063b0f479a1146108ea578063b1a778ab14610672578063ddf36e231461066d578063ef74cd761461036c578063f2fde38b146102895763f9eafa7014610168575f80fd5b346102865760207ffffffffffffffffffffffffffffffffffffffffffffffffffffffffffffffffc360112610286576004356101a2614221565b801561025c576001546040517f23b872dd000000000000000000000000000000000000000000000000000000008152336004820152306024820152604481019290925260209082906064908290869073ffffffffffffffffffffffffffffffffffffffff165af1801561025157610217575080f35b6020813d602011610249575b8161023060209383614021565b81010312610245576102419061440d565b5080f35b5080fd5b3d9150610223565b6040513d84823e3d90fd5b60046040517fd8287905000000000000000000000000000000000000000000000000000000008152fd5b80fd5b50346102865760207ffffffffffffffffffffffffffffffffffffffffffffffffffffffffffffffffc360112610286576102c1613e6a565b6102c9614221565b73ffffffffffffffffffffffffffffffffffffffff80911690811561033b57600354827fffffffffffffffffffffffff0000000000000000000000000000000000000000821617600355167f8be0079c531659141344cd1fd0a4f28419497f9722a3daafe3b4186f6b6457e05f80a380f35b602483604051907f1e4fbdf70000000000000000000000000000000000000000000000000000000082526004820152fd5b503461028657610120807ffffffffffffffffffffffffffffffffffffffffffffffffffffffffffffffffc360112610245576103a6613dea565b60a07fffffffffffffffffffffffffffffffffffffffffffffffffffffffffffffffdc3601126106695767ffffffffffffffff60c435818111610665576103f1903690600401613ed1565b93610104358381116106615761040b903690600401613ed1565b919093875496818860a01c168952604060209960028b522073ffffffffffffffffffffffffffffffffffffffff8099165f52895260ff60405f205416156106375760643594851561025c57604051906024358a8116809103610633578b8301526044359788604084015260608881850152608435608085015260a435948686168096036106335761059b6040988f958f9361052261058f977f5761d3c5b5fbf459631cf1b4ff7e51d2013d8de7edc5ff126526262bf3478a089e6104e961052e958d956106119f60a0880152610100988960c0890152870191614272565b9160e43560e08601527fffffffffffffffffffffffffffffffffffffffffffffffffffffffffffffffe096878685030190860152614272565b03828101895288614021565b89519261053a84613fcd565b5f84528460808c5161054b81613f95565b828152828a820152828e8201525f8382015201525f5416968a51978789015286885261057688613fb1565b8a519586916001898401528c8084015286830190614828565b03908101855284614021565b8c60015416928851946105ad86613fcd565b620927c086528951957f97a657c90000000000000000000000000000000000000000000000000000000082880152516024870152602486526105ee86613fe9565b8951966105fa88613f95565b875286015287850152830152608082015287615090565b96879461061c614186565b9084519788528a88015216951693a4604051908152f35b5f80fd5b60046040517f4836199a000000000000000000000000000000000000000000000000000000008152fd5b8680fd5b8480fd5b8280fd5b613daf565b50346102865760c07ffffffffffffffffffffffffffffffffffffffffffffffffffffffffffffffffc360112610286576106aa613dea565b60807fffffffffffffffffffffffffffffffffffffffffffffffffffffffffffffffdc3601126102455767ffffffffffffffff9060a4358281116108e6576106f6903690600401613ed1565b845490848260a01c1686526040602096600288522073ffffffffffffffffffffffffffffffffffffffff8093165f52865260ff60405f2054161561063757604051906024358381168091036106335787830152604435938460408401526060926064358482015260843591888316809303610633577fd6040e24e094f8dd2461f146e1a24805ab644cde60f103bf02c04c8b5d07e1ed94826107b061058f938d976108c897608085015260a08085015260c0840191614272565b03906107e27fffffffffffffffffffffffffffffffffffffffffffffffffffffffffffffffe092838101865285614021565b61084d604051926107f284613fcd565b5f845282608060405161080481613f95565b828152828b8201528260408201525f838201520152895f541695604051968988015288875261083287613fb1565b60405195869160038b84015260408084015285830190614828565b8760015416916040519361086085613fcd565b620927c08552604051947f97a657c90000000000000000000000000000000000000000000000000000000089870152516024860152602485526108a285613fe9565b604051956108af87613f95565b8652878601526040850152830152608082015286615090565b9586936108d3614186565b60405196875216951693a4604051908152f35b8380fd5b503461028657807ffffffffffffffffffffffffffffffffffffffffffffffffffffffffffffffffc36011261028657602060405173ffffffffffffffffffffffffffffffffffffffff7f0000000000000000000000000000000000000000000000000000000000000000168152f35b503461028657807ffffffffffffffffffffffffffffffffffffffffffffffffffffffffffffffffc360112610286576020604051620927c08152f35b503461028657807ffffffffffffffffffffffffffffffffffffffffffffffffffffffffffffffffc360112610286576020604051670de0b6b3a76400008152f35b50346102865760a07ffffffffffffffffffffffffffffffffffffffffffffffffffffffffffffffffc36011261028657610a0e613dea565b60243567ffffffffffffffff918282116108e657366023830112156108e6578160040135928084116106655760248301926024369160a0870201011161066557604435818111610cf957610a66903690600401613e16565b91606435818111610cf557610a7f903690600401613e16565b9092608435838111610cf157610a99903690600401613e16565b8a54948560a01c168b52604060209b60028d522073ffffffffffffffffffffffffffffffffffffffff8096165f528b5260ff60405f2054161561063757868a14801590610ce7575b8015610cdd575b610cb35760405160808c820152958693610b0660a086018d8d6140fa565b7fffffffffffffffffffffffffffffffffffffffffffffffffffffffffffffffe0998a878303016040880152610b3b926142b0565b606095898683030187870152610b50926141e4565b9087848303016080850152610b64926142b0565b038481018452610b749084614021565b60405191610b8183613fcd565b5f835281604051610b9181613f95565b818152818b8201528160408201528181015f905260800152805f541694604051958a870152898652610bc286613fb1565b60405180958b8201600790526040820160409052848201610be291614828565b039081018552610bf29085614021565b600154169160405193610c0485613fcd565b620927c08552604051948a86017f97a657c900000000000000000000000000000000000000000000000000000000905251602486015260248552610c4785613fe9565b60405195610c5487613f95565b86528986015260408501528301526080820152610c7091615090565b9160405191829185835285830190610c87926140fa565b037fa372371a2ece9b022744cfcc0877b9fd6002ceb224dbe1e13f5f2662ad560e2191a1604051908152f35b60046040517fed9f42b0000000000000000000000000000000000000000000000000000000008152fd5b50808a1415610ae8565b50838a1415610ae1565b8980fd5b8780fd5b8580fd5b503461028657807ffffffffffffffffffffffffffffffffffffffffffffffffffffffffffffffffc3601126102865760206040516402540be4008152f35b503461028657807ffffffffffffffffffffffffffffffffffffffffffffffffffffffffffffffffc36011261028657602073ffffffffffffffffffffffffffffffffffffffff60035416604051908152f35b50346102865760207ffffffffffffffffffffffffffffffffffffffffffffffffffffffffffffffffc3601126102865760043567ffffffffffffffff81116102455760a07ffffffffffffffffffffffffffffffffffffffffffffffffffffffffffffffffc82360301126102455773ffffffffffffffffffffffffffffffffffffffff7f00000000000000000000000000000000000000000000000000000000000000001633036124f55760405190610e4582613f95565b80600401358252610e5860248201613e01565b6020830152604481013567ffffffffffffffff81116108e657610e81906004369184010161409c565b6040830152606481013567ffffffffffffffff81116108e657610eaa906004369184010161409c565b606083015260848101359067ffffffffffffffff82116108e6573660238383010112156108e65760048282010135610ee1816140e2565b92610eef6040519485614021565b81845260208401923660248460061b8484010101116106615780820160240193915b60248460061b828401010185106124b9578787876080820152604081015160208180518101031261066957610f5d602073ffffffffffffffffffffffffffffffffffffffff92016145ed565b1673ffffffffffffffffffffffffffffffffffffffff835416810361248857506060810151805181016040828203126108e65760208201519160098310156106655760408101519167ffffffffffffffff8311610cf957610fc592602080920192010161462f565b9181156122bc575b6001821461208e575b60028214611ead575b60038214611cf8575b60048214611b7a575b60058214611958575b60068214611536575b5060078114611224575b600814611018575080f35b80518101906040816020840193031261066957602081015167ffffffffffffffff81116108e65781019180603f840112156108e65760208301519261105c846140e2565b9361106a6040519586614021565b8085526040602086019160071b8301019183831161066157604001905b82821061120a5750505060408201519167ffffffffffffffff8311610665576110b39201602001614992565b8151815103610cb357829073ffffffffffffffffffffffffffffffffffffffff7f0000000000000000000000000000000000000000000000000000000000000000163b15610245578161116e91604051809381927f8742be810000000000000000000000000000000000000000000000000000000083526040600484015261113e6044840189614b14565b907ffffffffffffffffffffffffffffffffffffffffffffffffffffffffffffffffc848303016024850152614a9a565b03818373ffffffffffffffffffffffffffffffffffffffff7f0000000000000000000000000000000000000000000000000000000000000000165af18015610251576111f6575b50506111f07fe3ddbf949cb7a018a68cffca747f34ef37679c4bb300c4293efe5aa4018310ff91604051918291602083526020830190614b14565b0390a180f35b6111ff90613f81565b6102455781836111b5565b6020608091611219868561486b565b815201910190611087565b81518201906080838303126108e65760208301519167ffffffffffffffff83116106655760208101603f8486010112156106655760208385010151611268816140e2565b936112766040519586614021565b818552602085019060208401604060a08502838a01010111610cf55790604082880101915b604060a08502828a01010183106115145750505050604084015167ffffffffffffffff8111610cf9576112d690602080840191870101614992565b90606085015167ffffffffffffffff8111610661576112fd906020808401918801016148fe565b90608086015167ffffffffffffffff8111610cf557602080611323930191880101614992565b9184518151811490811591611508575b81156114fc575b50610cb357869273ffffffffffffffffffffffffffffffffffffffff7f0000000000000000000000000000000000000000000000000000000000000000163b156108e657839161145a6113fa9261142a60405196879586957f8734aa12000000000000000000000000000000000000000000000000000000008752608060048801526113ca8d6084890190614a12565b907ffffffffffffffffffffffffffffffffffffffffffffffffffffffffffffffffc888303016024890152614a9a565b907ffffffffffffffffffffffffffffffffffffffffffffffffffffffffffffffffc86830301604487015261495f565b907ffffffffffffffffffffffffffffffffffffffffffffffffffffffffffffffffc848303016064850152614a9a565b03818373ffffffffffffffffffffffffffffffffffffffff7f0000000000000000000000000000000000000000000000000000000000000000165af18015610251576114e8575b50507fe8b32231159ca2aeb6bd2ea21844874f9dbbf5304d06aabe82cad6cf3ca3b87b6114de600893604051918291602083526020830190614a12565b0390a1905061100d565b6114f190613f81565b6108e65783856114a1565b9050835114158861133a565b83518114159150611333565b60a0806020604094611528828a01886147d9565b81520194019392505061129b565b8251830160a08482031261066557611550602085016145ed565b90604085015167ffffffffffffffff811161066157611577906020808401918801016148fe565b90606086015167ffffffffffffffff8111610cf55760208061159d9301918801016148fe565b6115a9608087016145ed565b5060a0860151908251905103610cb35760206115ec608073ffffffffffffffffffffffffffffffffffffffff6115e182890151614674565b515116960151614674565b5101510361025c5761163473ffffffffffffffffffffffffffffffffffffffff7f00000000000000000000000000000000000000000000000000000000000000001684614e0a565b6040517fdd62ed3e00000000000000000000000000000000000000000000000000000000815230600482015273ffffffffffffffffffffffffffffffffffffffff7f0000000000000000000000000000000000000000000000000000000000000000166024820152602081604481875afa90811561194d575f9161191b575b5061189757859061175b6040517f095ea7b300000000000000000000000000000000000000000000000000000000602082015273ffffffffffffffffffffffffffffffffffffffff7f00000000000000000000000000000000000000000000000000000000000000001660248201527fffffffffffffffffffffffffffffffffffffffffffffffffffffffffffffffff60448201526044815261175581614005565b856156f0565b73ffffffffffffffffffffffffffffffffffffffff7f0000000000000000000000000000000000000000000000000000000000000000163b1561024557816117f491604051809381927f3dda355800000000000000000000000000000000000000000000000000000000835273ffffffffffffffffffffffffffffffffffffffff8816600484015260606024840152606483019061495f565b87604483015203818373ffffffffffffffffffffffffffffffffffffffff7f0000000000000000000000000000000000000000000000000000000000000000165af1801561025157611883575b505073ffffffffffffffffffffffffffffffffffffffff167f98d64dcf31d860b89de519aee807342854eca9a1a02df1042f850509fdd493ad8580a383611003565b61188c90613f81565b610665578486611841565b60846040517f08c379a000000000000000000000000000000000000000000000000000000000815260206004820152603660248201527f5361666545524332303a20617070726f76652066726f6d206e6f6e2d7a65726f60448201527f20746f206e6f6e2d7a65726f20616c6c6f77616e6365000000000000000000006064820152fd5b90506020813d602011611945575b8161193660209383614021565b810103126106335751876116b3565b3d9150611929565b6040513d5f823e3d90fd5b6040838051810103126108e657611971602084016145ed565b60408401519073ffffffffffffffffffffffffffffffffffffffff7f0000000000000000000000000000000000000000000000000000000000000000163b15610cf957856040517fdd2e0ac000000000000000000000000000000000000000000000000000000000815283600482015281816024818373ffffffffffffffffffffffffffffffffffffffff7f0000000000000000000000000000000000000000000000000000000000000000165af1801561025157611b66575b505073ffffffffffffffffffffffffffffffffffffffff7f0000000000000000000000000000000000000000000000000000000000000000163b15610cf9576040517f42842e0e00000000000000000000000000000000000000000000000000000000815230600482015273ffffffffffffffffffffffffffffffffffffffff821660248201526044810183905286908181806064810103818373ffffffffffffffffffffffffffffffffffffffff7f0000000000000000000000000000000000000000000000000000000000000000165af1801561025157611b52575b5050602073ffffffffffffffffffffffffffffffffffffffff7fa0269577557e44b1e484388711aaee9dcfdebb716a88654f37c4c8388bc08739926040519485521692a2610ffa565b611b5b90613f81565b610cf9578587611b09565b611b6f90613f81565b610cf9578587611a2b565b825183016102e08482031261066557611b95602085016145ed565b611baa6020604087015193016060870161441a565b6102e08601519073ffffffffffffffffffffffffffffffffffffffff7f0000000000000000000000000000000000000000000000000000000000000000163b15610cf557876040517fa462cd49000000000000000000000000000000000000000000000000000000008152818180611c3e87878b73ffffffffffffffffffffffffffffffffffffffff8c16600486016148c1565b03818373ffffffffffffffffffffffffffffffffffffffff7f0000000000000000000000000000000000000000000000000000000000000000165af1801561025157611ce4575b50507f7f3ef432bb1e77a701484dc68486dd0b262c06596baea7f6804d6894c388eaad926102c092611cd673ffffffffffffffffffffffffffffffffffffffff9360405197885260208801906146ae565b6102a08601521692a2610ff1565b611ced90613f81565b610cf5578789611c85565b8251830160a0848203126106655784611d17602083016020870161486b565b9160a086015167ffffffffffffffff811161066957602080611d3d93019188010161462f565b73ffffffffffffffffffffffffffffffffffffffff7f0000000000000000000000000000000000000000000000000000000000000000163b156102455781611e0591604051809381927f7dd98451000000000000000000000000000000000000000000000000000000008352611df4600484018967ffffffffffffffff6060809273ffffffffffffffffffffffffffffffffffffffff81511685526020810151602086015260408101516040860152015116910152565b60a0608484015260a4830190614828565b03818373ffffffffffffffffffffffffffffffffffffffff7f0000000000000000000000000000000000000000000000000000000000000000165af1801561025157611e99575b50507ffd29d40736f7e30e737c49f0da6edb357095e0117291cd63e251ef8b2a5cd57360208073ffffffffffffffffffffffffffffffffffffffff845116930151604051908152a2610fe8565b611ea290613f81565b610665578486611e4c565b6080838051810103126108e657611ec6602084016145ed565b604084015190611ed8606086016145ed565b50856020611ee96080860151614674565b510151611f5c73ffffffffffffffffffffffffffffffffffffffff611f116080880151614674565b5151169173ffffffffffffffffffffffffffffffffffffffff7f000000000000000000000000000000000000000000000000000000000000000016611f568185614e0a565b83614e67565b73ffffffffffffffffffffffffffffffffffffffff7f0000000000000000000000000000000000000000000000000000000000000000163b1561024557604051907f692bf4a800000000000000000000000000000000000000000000000000000000825273ffffffffffffffffffffffffffffffffffffffff84166004830152846024830152604482015281816064818373ffffffffffffffffffffffffffffffffffffffff7f0000000000000000000000000000000000000000000000000000000000000000165af180156102515761207a575b5050602073ffffffffffffffffffffffffffffffffffffffff7f4b425220000394679f443a7312a5351c5b75afe298ef4ffad4f7d6f6b33e295a926040519485521692a2610fdf565b61208390613f81565b610cf9578587612031565b82518301848460208301926101009182910312610245576120b283602088016147d9565b9260c087015167ffffffffffffffff81116108e6578160206120d6928a010161462f565b60e088015191838901519067ffffffffffffffff8211610cf95760206120fe928b010161462f565b9273ffffffffffffffffffffffffffffffffffffffff7f0000000000000000000000000000000000000000000000000000000000000000163b156106655761220a85936121d59560405196879586957f24e79fc20000000000000000000000000000000000000000000000000000000087526121c5600488018d67ffffffffffffffff6080809273ffffffffffffffffffffffffffffffffffffffff8151168552602081015160208601526040810151604086015260608101516060860152015116910152565b60a4870152610104860190614828565b9160c48501527ffffffffffffffffffffffffffffffffffffffffffffffffffffffffffffffffc8483030160e4850152614828565b03818373ffffffffffffffffffffffffffffffffffffffff7f0000000000000000000000000000000000000000000000000000000000000000165af18015610251576122a8575b50507f95b55f38d05a2c5664b9788437177cc4cd38ad59294ccd15d9527664355380ec604073ffffffffffffffffffffffffffffffffffffffff8351169281602082015191015182519182526020820152a2610fd6565b6122b190613f81565b610665578486612251565b825183016102c084820312610665576122e660206122db8187016145ed565b92016040860161441a565b73ffffffffffffffffffffffffffffffffffffffff6102c086015192169173ffffffffffffffffffffffffffffffffffffffff6123266080860151614674565b51511661237f602061233b6080880151614674565b51015173ffffffffffffffffffffffffffffffffffffffff7f000000000000000000000000000000000000000000000000000000000000000016611f568185614e0a565b604051907f2c33b9d90000000000000000000000000000000000000000000000000000000082528460048301526123b960248301856146ae565b826102a48301526102c48201526020816102e4818b73ffffffffffffffffffffffffffffffffffffffff7f0000000000000000000000000000000000000000000000000000000000000000165af1801561247d57612452575b507f1d2662fa144aac97b5af0577237e997d47a91ebcc35ddbbd495282ed122af39a916102a09161244660405180936146ae565b610280820152a2610fcd565b602090813d8311612476575b6124688183614021565b810103126106335787612412565b503d61245e565b6040513d8a823e3d90fd5b602490604051907f3319937b0000000000000000000000000000000000000000000000000000000082526004820152fd5b604085360312610cf5576040602060249482516124d581613fb1565b6124de89613eb0565b815282890135838201528152019501949250610f11565b60246040517fd7f73334000000000000000000000000000000000000000000000000000000008152336004820152fd5b506103007ffffffffffffffffffffffffffffffffffffffffffffffffffffffffffffffffc36011261028657612559613dea565b612561613e47565b9161028091827fffffffffffffffffffffffffffffffffffffffffffffffffffffffffffffffbc360112610245576102c435906102e4359373ffffffffffffffffffffffffffffffffffffffff90818616908187036106335785549767ffffffffffffffff97888a60a01c16885260209960028b528560408a2091165f528a5260ff978860405f20541615610637576125f86141a9565b871561025c576040517fa7f93ebd0000000000000000000000000000000000000000000000000000000081528b816004818a7f0000000000000000000000000000000000000000000000000000000000000000165afa918215612a11579089926129de575b506126719161266b916145ad565b82615396565b61267b8186614b92565b61268781303388614d15565b85604051931698898c85015260443581811680910361063357604085015260643594818616809603610633576060958686015260843582811680910361063357608086015260a4358281168091036106335760a086015260c4358281168091036106335760c086015260e4358281168091036106335760e0860152610104358281168091036106335761010086015261012435828116809103610633576101208601526101443582811680910361063357610140860152610164358281168091036106335761016086015261018435828116809103610633576101808601526101a435828116809103610633576101a08601526101c435828116809103610633576101c08601526101e435828116809103610633576101e0860152610204358281168091036106335761020086015261022435801515809103610633576102208601526102443582811680910361063357610240860152610264358015158091036106335761026086015261028435918216809203610633578401526102a435801515809103610633576102a08401526102c0888185015283526102e08301948386108b8711176129b1577fd0b8c5ed1d955fe287fda914e47fa0bc1188c054366fdc1cb9c665c10c9d9cf9965f6129989661286c8f99612992978791604052614d7f565b9080608060405161287c81613f95565b828152828d820152826040820152858382015201526128f58a6128c9868654169a6040519b838d0152828c526128b18c613fb1565b60405196879384015260408084015284830190614828565b037fffffffffffffffffffffffffffffffffffffffffffffffffffffffffffffffe08101855284614021565b8360015416916040519361290885613fcd565b6207a1208552604051947f97a657c9000000000000000000000000000000000000000000000000000000008d8701525160248601526024855261294a85613fe9565b604051996129578b613f95565b8a528b8a0152604089015287015260808601527f00000000000000000000000000000000000000000000000000000000000000001690614e67565b84615090565b9586936040519586521693a46001600455604051908152f35b7f4e487b71000000000000000000000000000000000000000000000000000000005f52604160045260245ffd5b8092508c8092503d8311612a0a575b6129f78183614021565b810103126106335751879061267161265d565b503d6129ed565b604051903d90823e3d90fd5b5034610286576020807ffffffffffffffffffffffffffffffffffffffffffffffffffffffffffffffffc3601126102455760043590612a5a614221565b811561025c5773ffffffffffffffffffffffffffffffffffffffff60015416916040517f70a082310000000000000000000000000000000000000000000000000000000081523060048201528281602481875afa908115612b9a578591612b6d575b50808211612b3c57506040517fa9059cbb00000000000000000000000000000000000000000000000000000000928101929092523360248301526044820152612b3991612b3482606481015b037fffffffffffffffffffffffffffffffffffffffffffffffffffffffffffffffe08101845283614021565b6156f0565b80f35b602490604051907f1116d9ef0000000000000000000000000000000000000000000000000000000082526004820152fd5b90508281813d8311612b93575b612b848183614021565b8101031261063357515f612abc565b503d612b7a565b6040513d87823e3d90fd5b503461028657807ffffffffffffffffffffffffffffffffffffffffffffffffffffffffffffffffc36011261028657602073ffffffffffffffffffffffffffffffffffffffff60015416604051908152f35b503461028657807ffffffffffffffffffffffffffffffffffffffffffffffffffffffffffffffffc36011261028657612c2e614221565b5f73ffffffffffffffffffffffffffffffffffffffff6003547fffffffffffffffffffffffff00000000000000000000000000000000000000008116600355167f8be0079c531659141344cd1fd0a4f28419497f9722a3daafe3b4186f6b6457e08280a380f35b50346102865760407ffffffffffffffffffffffffffffffffffffffffffffffffffffffffffffffffc3601126102865773ffffffffffffffffffffffffffffffffffffffff6040612ce4613dea565b9267ffffffffffffffff612cf6613e47565b9416815260026020522091165f52602052602060ff60405f2054166040519015158152f35b503461063357606090817ffffffffffffffffffffffffffffffffffffffffffffffffffffffffffffffffc36011261063357612d55613dea565b602490813590612d63613e8d565b925f549067ffffffffffffffff95868360a01c165f526020976002895260405f2073ffffffffffffffffffffffffffffffffffffffff8095165f52895260ff60405f205416156106375783871696871561063757847f000000000000000000000000000000000000000000000000000000000000000016604051937f7e4d03d80000000000000000000000000000000000000000000000000000000085528860048601526102809485818881865afa95861561194d575f966131d6575b5050813b15610633576040517f42842e0e000000000000000000000000000000000000000000000000000000008152336004820152306024820152604481018a90525f8160648183875af1801561194d576131c5575b50604051917f5b16d9680000000000000000000000000000000000000000000000000000000083528960048401528c838881845afa928315610251578293613196575b504683036130f457803b1561024557818091888c60405194859384927f80f2036300000000000000000000000000000000000000000000000000000000845260048401525af1801561025157908d92916130dc575b5050612f28612f54926004968b60405196879586016148c1565b037fffffffffffffffffffffffffffffffffffffffffffffffffffffffffffffffe08101835282614021565b935b60405190612f6382613fcd565b5f82528260808c8260405191612f7883613f95565b8183528201528260408201525f838201520152805f541695604051968c8801528b8752612fa487613fb1565b6040519460098110156130b057928592613025848f99967f95519b111edaffd68641c56e5ffce32883ef4bfbb37da2156501c7eff4b309f99b9895612ff9918c61309c9c015260408084015286830190614828565b037fffffffffffffffffffffffffffffffffffffffffffffffffffffffffffffffe08101865285614021565b60015416926040519461303786613fcd565b6207a1208652604051957f97a657c9000000000000000000000000000000000000000000000000000000008a8801525181870152855261307685613fe9565b6040519561308387613f95565b8652878601526040850152830152608082015284615090565b9586936040519586521693a4604051908152f35b867f4e487b71000000000000000000000000000000000000000000000000000000005f5260216004525ffd5b8192506130e890613f81565b61028657808c91612f0e565b9150919350803b156102455781809186604051809481937f7b47ec1a0000000000000000000000000000000000000000000000000000000083528d60048401525af1801561025157613182575b50506040805173ffffffffffffffffffffffffffffffffffffffff909316838b01908152602081018890526005939161317c91839101612f28565b93612f56565b61318c8291613f81565b6102865780613141565b9092508c81813d83116131be575b6131ae8183614021565b810103126106335751915f612eb9565b503d6131a4565b6131cf9150613f81565b5f80612e76565b80919296503d8211613209575b6131ed8184614021565b82019082820312610633576132019161441a565b935f80612e20565b503d6131e3565b34610633575f7ffffffffffffffffffffffffffffffffffffffffffffffffffffffffffffffffc36011261063357602060405173ffffffffffffffffffffffffffffffffffffffff7f0000000000000000000000000000000000000000000000000000000000000000168152f35b34610633575f7ffffffffffffffffffffffffffffffffffffffffffffffffffffffffffffffffc36011261063357602073ffffffffffffffffffffffffffffffffffffffff5f5416604051908152f35b34610633575f7ffffffffffffffffffffffffffffffffffffffffffffffffffffffffffffffffc36011261063357602067ffffffffffffffff5f5460a01c16604051908152f35b34610633576060807ffffffffffffffffffffffffffffffffffffffffffffffffffffffffffffffffc3601126106335761334d613dea565b9067ffffffffffffffff90602435828111610633573660238201121561063357806004013592808411610633576024820191602436918660071b01011161063357604435818111610633576133a6903690600401613e16565b955f54928360a01c165f526020966002885260405f209273ffffffffffffffffffffffffffffffffffffffff80951693845f52895260ff60405f2054161561063757818803610cb3577fc40f92ba5e837dc6a178798dc7c78f3936420be612221197dbaf149ed3a59f7996613563956134ea60409361347a8d61346e6008988f8e61343c918b519b8c968701528a860191613eff565b907fffffffffffffffffffffffffffffffffffffffffffffffffffffffffffffffe095868584030160408601526142b0565b03828101875286614021565b8c6134de6040519661348b88613fcd565b5f885286608060405161349d81613f95565b82815282868201528260408201525f8382015201526040519a838c0152828b526134c68b613fb1565b60405198899384015260408084015286830190614828565b03908101865285614021565b6001541691604051936134fc85613fcd565b620927c08552604051947f97a657c9000000000000000000000000000000000000000000000000000000008d8701525160248601526024855261353e85613fe9565b6040519661354b88613f95565b87528b87015260408601528401526080830152615090565b9261357960405192839287845287840191613eff565b0390a1604051908152f35b34610633575f7ffffffffffffffffffffffffffffffffffffffffffffffffffffffffffffffffc36011261063357602060405173ffffffffffffffffffffffffffffffffffffffff7f0000000000000000000000000000000000000000000000000000000000000000168152f35b346106335760807ffffffffffffffffffffffffffffffffffffffffffffffffffffffffffffffffc36011261063357613629613dea565b602435613634613e8d565b91606435915f549267ffffffffffffffff93848160a01c165f526020956002875260405f2073ffffffffffffffffffffffffffffffffffffffff8093165f52875260ff60405f20541615610637576137f96040916137f3857f80e9f53f7f7f7b19c2b2adb19df0805d08493490b6d67b4ff8d2d9920fdbf1d3956136b66141a9565b808416906136c48383614b92565b6136d083303385614d15565b8c6128c988519633838901528c8a8901526137058660609281848c01528760808c015260808b526137008b613f95565b614d7f565b8160808c5161371381613f95565b8281528287820152828e8201525f83820152015261375b855f5416998c519a868c0152858b526137428b613fb1565b8c519485916002888401528e8084015285830190614828565b8460015416928b519461376d86613fcd565b6207a12086528c51957f97a657c90000000000000000000000000000000000000000000000000000000082880152516024870152602486526137ae86613fe9565b8c519a6137ba8c613f95565b8b528a01528a89015287015260808601527f00000000000000000000000000000000000000000000000000000000000000001690614e67565b86615090565b95869382519586528886015233951693a46001600455604051908152f35b346106335760807ffffffffffffffffffffffffffffffffffffffffffffffffffffffffffffffffc3601126106335761384e613e6a565b50613857613e47565b5060643567ffffffffffffffff811161063357613878903690600401613ed1565b505060206040517f150b7a02000000000000000000000000000000000000000000000000000000008152f35b346106335760607ffffffffffffffffffffffffffffffffffffffffffffffffffffffffffffffffc360112610633576138db613dea565b6138e3613e47565b90604435918215158093036106335773ffffffffffffffffffffffffffffffffffffffff90613910614221565b168015610637577fa54ce142349af8e389fe00f37d69e79664a287b29c8e325917962e92e4fe5fcd9267ffffffffffffffff6020935f54847fffffffff000000000000000000000000000000000000000000000000000000007bffffffffffffffff00000000000000000000000000000000000000008460a01b16921617175f55165f526002835260405f20825f52835260405f209060ff7fffffffffffffffffffffffffffffffffffffffffffffffffffffffffffffff008354169116179055604051908152a1005b346106335760807ffffffffffffffffffffffffffffffffffffffffffffffffffffffffffffffffc36011261063357613a11613dea565b60249067ffffffffffffffff90823582811161063357613a35903690600401613e16565b939060443584811161063357613a4f903690600401613e16565b6064939193359273ffffffffffffffffffffffffffffffffffffffff9182851694858103610633575f5499898b60a01c165f5260209a60028c528560405f2091165f528b5260ff60405f2054161561063757613aa96141a9565b828103610cb357801561025c575f955f905b848210613cab5750508590613ad08289614b92565b613adc8230338b614d15565b6040519485918d33908401526040830160a0905260c0830190613afe926141e4565b987fffffffffffffffffffffffffffffffffffffffffffffffffffffffffffffffe0996060958b8483030187850152613b36926141e4565b8860808301528260a0830152038881018552613b529085614021565b613b5b91614d7f565b9080604051613b6981613f95565b818152818c8201528160408201528181015f905260800152835f541696604051978b8901528a8852613b9a88613fb1565b60405180948c8201600690526040820160409052838201613bba91614828565b039081018452613bca9084614021565b83600154169160405193613bdd85613fcd565b6207a1208552604051948c86017f97a657c900000000000000000000000000000000000000000000000000000000905251602486015260248552613c2085613fe9565b60405198613c2d8a613f95565b89528b890152604088015286015260808501527f000000000000000000000000000000000000000000000000000000000000000016613c6b92614e67565b613c759082615090565b9060405192339116827fc3cfbc41fdf2854a8b8598251acff98cb7e98fba5428a216647848b5f8d1c0af5f80a460016004558152f35b90968760051b8a01358101809111613cc7579660010190613abb565b507f4e487b71000000000000000000000000000000000000000000000000000000005f5260116004525ffd5b346106335760207ffffffffffffffffffffffffffffffffffffffffffffffffffffffffffffffffc36011261063357600435907fffffffff00000000000000000000000000000000000000000000000000000000821680920361063357817f85572ffb0000000000000000000000000000000000000000000000000000000060209314908115613d85575b5015158152f35b7f01ffc9a70000000000000000000000000000000000000000000000000000000091501483613d7e565b34610633575f7ffffffffffffffffffffffffffffffffffffffffffffffffffffffffffffffffc3601126106335760206040516207a1208152f35b6004359067ffffffffffffffff8216820361063357565b359067ffffffffffffffff8216820361063357565b9181601f840112156106335782359167ffffffffffffffff8311610633576020808501948460051b01011161063357565b6024359073ffffffffffffffffffffffffffffffffffffffff8216820361063357565b6004359073ffffffffffffffffffffffffffffffffffffffff8216820361063357565b6044359073ffffffffffffffffffffffffffffffffffffffff8216820361063357565b359073ffffffffffffffffffffffffffffffffffffffff8216820361063357565b9181601f840112156106335782359167ffffffffffffffff8311610633576020838186019501011161063357565b9190808252602080920192915f905b828210613f1c575050505090565b9091929360019073ffffffffffffffffffffffffffffffffffffffff613f4187613eb0565b168152828601358382015260408087013590820152606067ffffffffffffffff613f6c828901613e01565b16908201526080908101950193920190613f0e565b67ffffffffffffffff81116129b157604052565b60a0810190811067ffffffffffffffff8211176129b157604052565b6040810190811067ffffffffffffffff8211176129b157604052565b6020810190811067ffffffffffffffff8211176129b157604052565b6060810190811067ffffffffffffffff8211176129b157604052565b6080810190811067ffffffffffffffff8211176129b157604052565b90601f7fffffffffffffffffffffffffffffffffffffffffffffffffffffffffffffffe0910116810190811067ffffffffffffffff8211176129b157604052565b67ffffffffffffffff81116129b157601f017fffffffffffffffffffffffffffffffffffffffffffffffffffffffffffffffe01660200190565b81601f82011215610633578035906140b382614062565b926140c16040519485614021565b8284526020838301011161063357815f926020809301838601378301015290565b67ffffffffffffffff81116129b15760051b60200190565b9190808252602080920192915f905b828210614117575050505090565b9091929360019073ffffffffffffffffffffffffffffffffffffffff61413c87613eb0565b16815282860135838201526040808701359082015260608087013590820152608067ffffffffffffffff614171828901613e01565b169082015260a0908101950193920190614109565b60243573ffffffffffffffffffffffffffffffffffffffff811681036106335790565b6002600454146141ba576002600455565b60046040517f3ee5aeb5000000000000000000000000000000000000000000000000000000008152fd5b90918281527f07ffffffffffffffffffffffffffffffffffffffffffffffffffffffffffffff83116106335760209260051b809284830137010190565b73ffffffffffffffffffffffffffffffffffffffff60035416330361424257565b60246040517f118cdaa7000000000000000000000000000000000000000000000000000000008152336004820152fd5b601f82602094937fffffffffffffffffffffffffffffffffffffffffffffffffffffffffffffffe093818652868601375f8582860101520116010190565b908281815260208091019360208360051b82010194845f925b8584106142da575050505050505090565b909192939495967fffffffffffffffffffffffffffffffffffffffffffffffffffffffffffffffe082820301845287357fffffffffffffffffffffffffffffffffffffffffffffffffffffffffffffffe18436030181121561063357830186810191903567ffffffffffffffff81116106335780360383136106335761436588928392600195614272565b9901940194019295949391906142c9565b519060ff8216820361063357565b91908260409103126106335760405161439c81613fb1565b60206143b58183956143ad81614376565b855201614376565b910152565b9190826060910312610633576040516060810181811067ffffffffffffffff8211176129b15760405260406143b58183956143f481614376565b855261440260208201614376565b602086015201614376565b5190811515820361063357565b9190918083039061028082126106335760409182519060c0820182811067ffffffffffffffff8211176129b157845281956144558185614384565b835261446381868601614384565b602084015261447581608086016143ba565b8584015260a07fffffffffffffffffffffffffffffffffffffffffffffffffffffffffffffff208301126106335760a09161453a7ffffffffffffffffffffffffffffffffffffffffffffffffffffffffffffffe209287516144d681613f95565b6144e260e08901614376565b81526144f16101008901614376565b60208201526145036101208901614376565b898201526145146101408901614376565b60608201526145266101608901614376565b6080820152606087015261018087016143ba565b60808501520112610633576145a461026060a09385519561455a87613f95565b6145676101e0830161440d565b87526145766102008301614376565b6020880152614588610220830161440d565b908701526145996102408201614376565b60608701520161440d565b60808401520152565b818102929181159184041417156145c057565b7f4e487b71000000000000000000000000000000000000000000000000000000005f52601160045260245ffd5b519073ffffffffffffffffffffffffffffffffffffffff8216820361063357565b5f5b83811061461f5750505f910152565b8181015183820152602001614610565b81601f8201121561063357805161464581614062565b926146536040519485614021565b8184526020828401011161063357614671916020808501910161460e565b90565b8051156146815760200190565b7f4e487b71000000000000000000000000000000000000000000000000000000005f52603260045260245ffd5b60808060a0610260936146d186825160ff60208092828151168552015116910152565b602081810151805160ff90811660408a015291015116606087015261471860408201518488019060ff60408092828151168552826020820151166020860152015116910152565b606081015160ff9381858093511660e08a0152826020820151166101008a0152826040820151166101208a0152826060820151166101408a01520151166101608701526147888482015161018088019060ff60408092828151168552826020820151166020860152015116910152565b015190815115156101e0860152806020830151166102008601526040820151151561022086015260608201511661024085015201511515910152565b519067ffffffffffffffff8216820361063357565b91908260a0910312610633576040516147f181613f95565b60806143b5818395614802816145ed565b8552602081015160208601526040810151604086015260608101516060860152016147c4565b907fffffffffffffffffffffffffffffffffffffffffffffffffffffffffffffffe0601f6020936148648151809281875287808801910161460e565b0116010190565b9190826080910312610633576040516080810181811067ffffffffffffffff8211176129b15760405260606143b58183956148a5816145ed565b85526020810151602086015260408101516040860152016147c4565b909493926148fa906102c09373ffffffffffffffffffffffffffffffffffffffff6102e0850198168452602084015260408301906146ae565b0152565b9080601f8301121561063357815190602091614919816140e2565b936149276040519586614021565b81855260208086019260051b82010192831161063357602001905b828210614950575050505090565b81518152908301908301614942565b9081518082526020808093019301915f5b82811061497e575050505090565b835185529381019392810192600101614970565b81601f82011215610633578051916020916149ac846140e2565b936149ba6040519586614021565b808552838086019160051b8301019280841161063357848301915b8483106149e55750505050505090565b825167ffffffffffffffff8111610633578691614a078484809489010161462f565b8152019201916149d5565b9081518082526020808093019301915f5b828110614a31575050505090565b909192938260a082614a8e600194895167ffffffffffffffff6080809273ffffffffffffffffffffffffffffffffffffffff8151168552602081015160208601526040810151604086015260608101516060860152015116910152565b01950193929101614a23565b90808251908181526020809101926020808460051b8301019501935f915b848310614ac85750505050505090565b9091929394958480614b04837fffffffffffffffffffffffffffffffffffffffffffffffffffffffffffffffe086600196030187528a51614828565b9801930193019194939290614ab8565b9081518082526020808093019301915f5b828110614b33575050505090565b9091929382608082614b86600194895167ffffffffffffffff6060809273ffffffffffffffffffffffffffffffffffffffff81511685526020810151602086015260408101516040860152015116910152565b01950193929101614b25565b604080517fdd62ed3e00000000000000000000000000000000000000000000000000000000815233600482015230602482015290929160209173ffffffffffffffffffffffffffffffffffffffff909116908281604481855afa908115614d0b579084915f91614cda575b5010614cb157816024918551928380927f70a082310000000000000000000000000000000000000000000000000000000082523360048301525afa918215614ca7575f92614c79575b505010614c505750565b600490517f68724d74000000000000000000000000000000000000000000000000000000008152fd5b90809250813d8311614ca0575b614c908183614021565b8101031261063357515f80614c46565b503d614c86565b84513d5f823e3d90fd5b600484517f2c283f55000000000000000000000000000000000000000000000000000000008152fd5b809250848092503d8311614d04575b614cf38183614021565b81010312610633578390515f614bfd565b503d614ce9565b85513d5f823e3d90fd5b6040517f23b872dd00000000000000000000000000000000000000000000000000000000602082015273ffffffffffffffffffffffffffffffffffffffff92831660248201529290911660448301526064820192909252614d7d91612b348260848101612b08565b565b919060409260405191614d9183613fb1565b600183525f5b602080821015614dc357865160209291614db082613fb1565b5f82525f81830152828701015201614d97565b5050935090614e0791819473ffffffffffffffffffffffffffffffffffffffff60405192614df084613fb1565b1682526020820152614e0182614674565b52614674565b50565b90614d7d9173ffffffffffffffffffffffffffffffffffffffff604051927f095ea7b30000000000000000000000000000000000000000000000000000000060208501521660248301525f604483015260448252612b3482614005565b91909181158015614ed8575b15611897576040517f095ea7b300000000000000000000000000000000000000000000000000000000602082015273ffffffffffffffffffffffffffffffffffffffff90931660248401526044830191909152614d7d9190612b348260648101612b08565b506040517fdd62ed3e00000000000000000000000000000000000000000000000000000000815230600482015273ffffffffffffffffffffffffffffffffffffffff841660248201526020818060448101038173ffffffffffffffffffffffffffffffffffffffff86165afa90811561194d575f91614f59575b5015614e73565b90506020813d602011614f83575b81614f7460209383614021565b8101031261063357515f614f52565b3d9150614f67565b9092919267ffffffffffffffff604091168252602091604083820152614fbd855160a0604084015260e0830190614828565b91614ff784870151937fffffffffffffffffffffffffffffffffffffffffffffffffffffffffffffffc09485858303016060860152614828565b604087015194848483030160808501528080875193848152019601925f905b83821061505a57505050505060c060808673ffffffffffffffffffffffffffffffffffffffff6060614671989901511660a085015201519282850301910152614828565b8451805173ffffffffffffffffffffffffffffffffffffffff168952830151888401529687019693820193600190910190615016565b73ffffffffffffffffffffffffffffffffffffffff807f0000000000000000000000000000000000000000000000000000000000000000169260409384517f20487ded000000000000000000000000000000000000000000000000000000008152602093848280615105878a60048401614f8b565b0381865afa91821561532d575f926152fe575b50600154169086517f70a082310000000000000000000000000000000000000000000000000000000081523060048201528581602481865afa9081156152f4575f916152c7575b5081116152975786517f095ea7b300000000000000000000000000000000000000000000000000000000815273ffffffffffffffffffffffffffffffffffffffff841660048201526024810191909152908490829060449082905f905af1801561528d5761524f575b50908291615205945f87518097819582947f96f4e9f900000000000000000000000000000000000000000000000000000000845260048401614f8b565b03925af192831561524657505f9261521c57505090565b90809250813d831161523f575b6152338183614021565b81010312610633575190565b503d615229565b513d5f823e3d90fd5b91908383813d8311615286575b6152668183614021565b81010312610633576152059461527c859461440d565b50945090916151c8565b503d61525c565b86513d5f823e3d90fd5b6024908751907f1116d9ef0000000000000000000000000000000000000000000000000000000082526004820152fd5b90508581813d83116152ed575b6152de8183614021565b8101031261063357515f61515f565b503d6152d4565b88513d5f823e3d90fd5b9091508481813d8311615326575b6153168183614021565b810103126106335751905f615118565b503d61530c565b87513d5f823e3d90fd5b519069ffffffffffffffffffff8216820361063357565b8115615358570490565b7f4e487b71000000000000000000000000000000000000000000000000000000005f52601260045260245ffd5b60ff16604d81116145c057600a0a90565b73ffffffffffffffffffffffffffffffffffffffff916040928351907f5b6cca8000000000000000000000000000000000000000000000000000000000825280600494169081858401526020928381602481857f0000000000000000000000000000000000000000000000000000000000000000165afa90811561532d575f916156bb575b50168015615693579060a0859493928751958680927ffeaf968c0000000000000000000000000000000000000000000000000000000082525afa93841561528d575f94615645575b505f84131561561d576402540be400938481029481860414901517156155f157908085928751938480927f313ce5670000000000000000000000000000000000000000000000000000000082525afa95861561524657505f956155b9575b5050670de0b6b3a76400009081810291818304149015171561558d5760ff916154e99161534e565b92166012811015615540576012039060ff821161551457509061550e61467192615385565b9061534e565b6011907f4e487b71000000000000000000000000000000000000000000000000000000005f525260245ffd5b6012811115615588577fffffffffffffffffffffffffffffffffffffffffffffffffffffffffffffffee019060ff821161551457509061558261467192615385565b906145ad565b505090565b6011837f4e487b71000000000000000000000000000000000000000000000000000000005f525260245ffd5b9080929550813d83116155ea575b6155d18183614021565b81010312610633576155e290614376565b925f806154c1565b503d6155c7565b6011857f4e487b71000000000000000000000000000000000000000000000000000000005f525260245ffd5b8486517fa3019c86000000000000000000000000000000000000000000000000000000008152fd5b90935060a0813d60a01161568b575b8161566160a09383614021565b810103126106335761567281615337565b506156836080838301519201615337565b50925f615463565b3d9150615654565b8486517f6c8b8de7000000000000000000000000000000000000000000000000000000008152fd5b90508381813d83116156e9575b6156d28183614021565b81010312610633576156e3906145ed565b5f61541b565b503d6156c8565b6040516157789173ffffffffffffffffffffffffffffffffffffffff1661571682613fb1565b5f806020958685527f5361666545524332303a206c6f772d6c6576656c2063616c6c206661696c656487860152868151910182855af13d15615826573d9161575d83614062565b9261576b6040519485614021565b83523d5f8785013e61582a565b80518061578457505050565b81839181010312610633578161579a910161440d565b156157a25750565b608490604051907f08c379a00000000000000000000000000000000000000000000000000000000082526004820152602a60248201527f5361666545524332303a204552433230206f7065726174696f6e20646964206e60448201527f6f742073756363656564000000000000000000000000000000000000000000006064820152fd5b6060915b919290156158a5575081511561583e575090565b3b156158475790565b60646040517f08c379a000000000000000000000000000000000000000000000000000000000815260206004820152601d60248201527f416464726573733a2063616c6c20746f206e6f6e2d636f6e74726163740000006044820152fd5b8251909150156158b85750805190602001fd5b6158f6906040519182917f08c379a0000000000000000000000000000000000000000000000000000000008352602060048401526024830190614828565b0390fdfea2646970667358221220036682d075974ad9b9b2da469d81b8e54a0e8d6371b6b5bc0608b86f1677a70664736f6c63430008180033",
    "linkReferences": {}
  },
  "methodIdentifiers": {
    "ADDITIONAL_FEED_PRECISION()": "a0da12a5",
    "GAS_LIMIT_BUY()": "10488413",
    "GAS_LIMIT_MINT()": "a700a39c",
    "GAS_LIMIT_SELL()": "ab895eb8",
    "GAS_LIMIT_TRANSFER()": "ddf36e23",
    "PRECISION()": "aaf5eb68",
    "ccipReceive((bytes32,uint64,bytes,bytes,(address,uint256)[]))": "85572ffb",
    "depositLink(uint256)": "f9eafa70",
    "getRouter()": "b0f479a1",
    "i_beanHeadsContract()": "2c406d44",
    "i_router()": "581bdd16",
    "onERC721Received(address,address,uint256,bytes)": "150b7a02",
    "owner()": "8da5cb5b",
    "remoteBridgeAddresses(uint64,address)": "708e1147",
    "renounceOwnership()": "715018a6",
    "s_destChain()": "41b8b269",
    "s_linkToken()": "7725135b",
    "s_remoteBridge()": "57c9cafb",
    "sendBatchBuyTokenRequest(uint64,uint256[],uint256[],address)": "1179680f",
    "sendBatchCancelTokenSaleRequest(uint64,(address,uint256,uint256,uint64)[],bytes[])": "38c72353",
    "sendBatchSellTokenRequest(uint64,(address,uint256,uint256,uint256,uint64)[],bytes[],uint256[],bytes[])": "aa7ab1ab",
    "sendBuyTokenRequest(uint64,uint256,address,uint256)": "232df00d",
    "sendCancelTokenSaleRequest(uint64,(address,uint256,uint256,uint64),bytes)": "b1a778ab",
    "sendMintTokenRequest(uint64,address,((uint8,uint8),(uint8,uint8),(uint8,uint8,uint8),(uint8,uint8,uint8,uint8,uint8),(uint8,uint8,uint8),(bool,uint8,bool,uint8,bool)),uint256,address)": "7b0ef209",
    "sendSellTokenRequest(uint64,(address,uint256,uint256,uint256,uint64),bytes,uint256,bytes)": "ef74cd76",
    "sendTransferTokenRequest(uint64,uint256,address)": "62cd6c90",
    "setRemoteBridge(uint64,address,bool)": "11d82d55",
    "supportsInterface(bytes4)": "01ffc9a7",
    "transferOwnership(address)": "f2fde38b",
    "withdrawLink(uint256)": "7a8042bd"
  },
  "id": 121
}