{
  "abi": [
    {
      "type": "function",
      "name": "approve",
      "inputs": [
        {
          "name": "to",
          "type": "address",
          "internalType": "address"
        },
        {
          "name": "tokenId",
          "type": "uint256",
          "internalType": "uint256"
        }
      ],
      "outputs": [],
      "stateMutability": "payable"
    },
    {
      "type": "function",
      "name": "balanceOf",
      "inputs": [
        {
          "name": "owner",
          "type": "address",
          "internalType": "address"
        }
      ],
      "outputs": [
        {
          "name": "",
          "type": "uint256",
          "internalType": "uint256"
        }
      ],
      "stateMutability": "view"
    },
    {
      "type": "function",
      "name": "burn",
      "inputs": [
        {
          "name": "tokenId",
          "type": "uint256",
          "internalType": "uint256"
        }
      ],
      "outputs": [],
      "stateMutability": "nonpayable"
    },
    {
      "type": "function",
      "name": "getApproved",
      "inputs": [
        {
          "name": "tokenId",
          "type": "uint256",
          "internalType": "uint256"
        }
      ],
      "outputs": [
        {
          "name": "",
          "type": "address",
          "internalType": "address"
        }
      ],
      "stateMutability": "view"
    },
    {
      "type": "function",
      "name": "getAuthorizedBreeders",
      "inputs": [
        {
          "name": "_breeder",
          "type": "address",
          "internalType": "address"
        }
      ],
      "outputs": [
        {
          "name": "",
          "type": "bool",
          "internalType": "bool"
        }
      ],
      "stateMutability": "view"
    },
    {
      "type": "function",
      "name": "getGeneration",
      "inputs": [
        {
          "name": "_tokenId",
          "type": "uint256",
          "internalType": "uint256"
        }
      ],
      "outputs": [
        {
          "name": "",
          "type": "uint256",
          "internalType": "uint256"
        }
      ],
      "stateMutability": "view"
    },
    {
      "type": "function",
      "name": "getMintPrice",
      "inputs": [],
      "outputs": [
        {
          "name": "",
          "type": "uint256",
          "internalType": "uint256"
        }
      ],
      "stateMutability": "view"
    },
    {
      "type": "function",
      "name": "getOwnerTokens",
      "inputs": [
        {
          "name": "_owner",
          "type": "address",
          "internalType": "address"
        }
      ],
      "outputs": [
        {
          "name": "",
          "type": "uint256[]",
          "internalType": "uint256[]"
        }
      ],
      "stateMutability": "view"
    },
    {
      "type": "function",
      "name": "getPriceFeed",
      "inputs": [
        {
          "name": "_token",
          "type": "address",
          "internalType": "address"
        }
      ],
      "outputs": [
        {
          "name": "",
          "type": "address",
          "internalType": "address"
        }
      ],
      "stateMutability": "view"
    },
    {
      "type": "function",
      "name": "isApprovedForAll",
      "inputs": [
        {
          "name": "owner",
          "type": "address",
          "internalType": "address"
        },
        {
          "name": "operator",
          "type": "address",
          "internalType": "address"
        }
      ],
      "outputs": [
        {
          "name": "",
          "type": "bool",
          "internalType": "bool"
        }
      ],
      "stateMutability": "view"
    },
    {
      "type": "function",
      "name": "mintFromBreeders",
      "inputs": [
        {
          "name": "_to",
          "type": "address",
          "internalType": "address"
        },
        {
          "name": "_params",
          "type": "tuple",
          "internalType": "struct Genesis.SVGParams",
          "components": [
            {
              "name": "hairParams",
              "type": "tuple",
              "internalType": "struct Genesis.HairParams",
              "components": [
                {
                  "name": "hairStyle",
                  "type": "uint8",
                  "internalType": "uint8"
                },
                {
                  "name": "hairColor",
                  "type": "uint8",
                  "internalType": "uint8"
                }
              ]
            },
            {
              "name": "bodyParams",
              "type": "tuple",
              "internalType": "struct Genesis.BodyParams",
              "components": [
                {
                  "name": "bodyType",
                  "type": "uint8",
                  "internalType": "uint8"
                },
                {
                  "name": "skinColor",
                  "type": "uint8",
                  "internalType": "uint8"
                }
              ]
            },
            {
              "name": "clothingParams",
              "type": "tuple",
              "internalType": "struct Genesis.ClothingParams",
              "components": [
                {
                  "name": "clothes",
                  "type": "uint8",
                  "internalType": "uint8"
                },
                {
                  "name": "clothingColor",
                  "type": "uint8",
                  "internalType": "uint8"
                },
                {
                  "name": "clothesGraphic",
                  "type": "uint8",
                  "internalType": "uint8"
                }
              ]
            },
            {
              "name": "facialFeaturesParams",
              "type": "tuple",
              "internalType": "struct Genesis.FacialFeaturesParams",
              "components": [
                {
                  "name": "eyebrowShape",
                  "type": "uint8",
                  "internalType": "uint8"
                },
                {
                  "name": "eyeShape",
                  "type": "uint8",
                  "internalType": "uint8"
                },
                {
                  "name": "facialHairType",
                  "type": "uint8",
                  "internalType": "uint8"
                },
                {
                  "name": "mouthStyle",
                  "type": "uint8",
                  "internalType": "uint8"
                },
                {
                  "name": "lipColor",
                  "type": "uint8",
                  "internalType": "uint8"
                }
              ]
            },
            {
              "name": "accessoryParams",
              "type": "tuple",
              "internalType": "struct Genesis.AccessoryParams",
              "components": [
                {
                  "name": "accessoryId",
                  "type": "uint8",
                  "internalType": "uint8"
                },
                {
                  "name": "hatStyle",
                  "type": "uint8",
                  "internalType": "uint8"
                },
                {
                  "name": "hatColor",
                  "type": "uint8",
                  "internalType": "uint8"
                }
              ]
            },
            {
              "name": "otherParams",
              "type": "tuple",
              "internalType": "struct Genesis.OtherParams",
              "components": [
                {
                  "name": "faceMask",
                  "type": "bool",
                  "internalType": "bool"
                },
                {
                  "name": "faceMaskColor",
                  "type": "uint8",
                  "internalType": "uint8"
                },
                {
                  "name": "shapes",
                  "type": "bool",
                  "internalType": "bool"
                },
                {
                  "name": "shapeColor",
                  "type": "uint8",
                  "internalType": "uint8"
                },
                {
                  "name": "lashes",
                  "type": "bool",
                  "internalType": "bool"
                }
              ]
            }
          ]
        },
        {
          "name": "_generation",
          "type": "uint256",
          "internalType": "uint256"
        }
      ],
      "outputs": [
        {
          "name": "_tokenId",
          "type": "uint256",
          "internalType": "uint256"
        }
      ],
      "stateMutability": "nonpayable"
    },
    {
      "type": "function",
      "name": "name",
      "inputs": [],
      "outputs": [
        {
          "name": "",
          "type": "string",
          "internalType": "string"
        }
      ],
      "stateMutability": "view"
    },
    {
      "type": "function",
      "name": "ownerOf",
      "inputs": [
        {
          "name": "tokenId",
          "type": "uint256",
          "internalType": "uint256"
        }
      ],
      "outputs": [
        {
          "name": "",
          "type": "address",
          "internalType": "address"
        }
      ],
      "stateMutability": "view"
    },
    {
      "type": "function",
      "name": "safeTransferFrom",
      "inputs": [
        {
          "name": "from",
          "type": "address",
          "internalType": "address"
        },
        {
          "name": "to",
          "type": "address",
          "internalType": "address"
        },
        {
          "name": "tokenId",
          "type": "uint256",
          "internalType": "uint256"
        }
      ],
      "outputs": [],
      "stateMutability": "payable"
    },
    {
      "type": "function",
      "name": "safeTransferFrom",
      "inputs": [
        {
          "name": "from",
          "type": "address",
          "internalType": "address"
        },
        {
          "name": "to",
          "type": "address",
          "internalType": "address"
        },
        {
          "name": "tokenId",
          "type": "uint256",
          "internalType": "uint256"
        },
        {
          "name": "_data",
          "type": "bytes",
          "internalType": "bytes"
        }
      ],
      "outputs": [],
      "stateMutability": "payable"
    },
    {
      "type": "function",
      "name": "setApprovalForAll",
      "inputs": [
        {
          "name": "operator",
          "type": "address",
          "internalType": "address"
        },
        {
          "name": "approved",
          "type": "bool",
          "internalType": "bool"
        }
      ],
      "outputs": [],
      "stateMutability": "nonpayable"
    },
    {
      "type": "function",
      "name": "symbol",
      "inputs": [],
      "outputs": [
        {
          "name": "",
          "type": "string",
          "internalType": "string"
        }
      ],
      "stateMutability": "view"
    },
    {
      "type": "function",
      "name": "totalSupply",
      "inputs": [],
      "outputs": [
        {
          "name": "",
          "type": "uint256",
          "internalType": "uint256"
        }
      ],
      "stateMutability": "view"
    },
    {
      "type": "function",
      "name": "transferFrom",
      "inputs": [
        {
          "name": "from",
          "type": "address",
          "internalType": "address"
        },
        {
          "name": "to",
          "type": "address",
          "internalType": "address"
        },
        {
          "name": "tokenId",
          "type": "uint256",
          "internalType": "uint256"
        }
      ],
      "outputs": [],
      "stateMutability": "payable"
    },
    {
      "type": "event",
      "name": "Approval",
      "inputs": [
        {
          "name": "owner",
          "type": "address",
          "indexed": true,
          "internalType": "address"
        },
        {
          "name": "approved",
          "type": "address",
          "indexed": true,
          "internalType": "address"
        },
        {
          "name": "tokenId",
          "type": "uint256",
          "indexed": true,
          "internalType": "uint256"
        }
      ],
      "anonymous": false
    },
    {
      "type": "event",
      "name": "ApprovalForAll",
      "inputs": [
        {
          "name": "owner",
          "type": "address",
          "indexed": true,
          "internalType": "address"
        },
        {
          "name": "operator",
          "type": "address",
          "indexed": true,
          "internalType": "address"
        },
        {
          "name": "approved",
          "type": "bool",
          "indexed": false,
          "internalType": "bool"
        }
      ],
      "anonymous": false
    },
    {
      "type": "event",
      "name": "ConsecutiveTransfer",
      "inputs": [
        {
          "name": "fromTokenId",
          "type": "uint256",
          "indexed": true,
          "internalType": "uint256"
        },
        {
          "name": "toTokenId",
          "type": "uint256",
          "indexed": false,
          "internalType": "uint256"
        },
        {
          "name": "from",
          "type": "address",
          "indexed": true,
          "internalType": "address"
        },
        {
          "name": "to",
          "type": "address",
          "indexed": true,
          "internalType": "address"
        }
      ],
      "anonymous": false
    },
    {
      "type": "event",
      "name": "MintedNewBreed",
      "inputs": [
        {
          "name": "to",
          "type": "address",
          "indexed": true,
          "internalType": "address"
        },
        {
          "name": "tokenId",
          "type": "uint256",
          "indexed": true,
          "internalType": "uint256"
        }
      ],
      "anonymous": false
    },
    {
      "type": "event",
      "name": "Transfer",
      "inputs": [
        {
          "name": "from",
          "type": "address",
          "indexed": true,
          "internalType": "address"
        },
        {
          "name": "to",
          "type": "address",
          "indexed": true,
          "internalType": "address"
        },
        {
          "name": "tokenId",
          "type": "uint256",
          "indexed": true,
          "internalType": "uint256"
        }
      ],
      "anonymous": false
    },
    {
      "type": "error",
      "name": "ApprovalCallerNotOwnerNorApproved",
      "inputs": []
    },
    {
      "type": "error",
      "name": "ApprovalQueryForNonexistentToken",
      "inputs": []
    },
    {
      "type": "error",
      "name": "BalanceQueryForZeroAddress",
      "inputs": []
    },
    {
      "type": "error",
      "name": "IBeanHeadsBase__InsufficientAllowance",
      "inputs": []
    },
    {
      "type": "error",
      "name": "IBeanHeadsBase__InsufficientPayment",
      "inputs": []
    },
    {
      "type": "error",
      "name": "IBeanHeadsBase__InvalidOraclePrice",
      "inputs": []
    },
    {
      "type": "error",
      "name": "IBeanHeadsBase__NotOwner",
      "inputs": []
    },
    {
      "type": "error",
      "name": "IBeanHeadsBase__PriceMustBeGreaterThanZero",
      "inputs": []
    },
    {
      "type": "error",
      "name": "IBeanHeadsBase__TokenDoesNotExist",
      "inputs": []
    },
    {
      "type": "error",
      "name": "IBeanHeadsBase__TokenIsAlreadyListed",
      "inputs": []
    },
    {
      "type": "error",
      "name": "IBeanHeadsBase__TokenIsLocked",
      "inputs": []
    },
    {
      "type": "error",
      "name": "IBeanHeadsBase__TokenIsNotForSale",
      "inputs": []
    },
    {
      "type": "error",
      "name": "IBeanHeadsBase__TokenNotAllowed",
      "inputs": [
        {
          "name": "token",
          "type": "address",
          "internalType": "address"
        }
      ]
    },
    {
      "type": "error",
      "name": "IBeanHeadsBreeding__TokenDoesNotExist",
      "inputs": []
    },
    {
      "type": "error",
      "name": "IBeanHeadsBreeding__UnauthorizedBreeders",
      "inputs": []
    },
    {
      "type": "error",
      "name": "InvalidTokenId",
      "inputs": []
    },
    {
      "type": "error",
      "name": "MintERC2309QuantityExceedsLimit",
      "inputs": []
    },
    {
      "type": "error",
      "name": "MintToZeroAddress",
      "inputs": []
    },
    {
      "type": "error",
      "name": "MintZeroQuantity",
      "inputs": []
    },
    {
      "type": "error",
      "name": "OwnerQueryForNonexistentToken",
      "inputs": []
    },
    {
      "type": "error",
      "name": "OwnershipNotInitializedForExtraData",
      "inputs": []
    },
    {
      "type": "error",
      "name": "TokenAlreadyExists",
      "inputs": []
    },
    {
      "type": "error",
      "name": "TransferCallerNotOwnerNorApproved",
      "inputs": []
    },
    {
      "type": "error",
      "name": "TransferFromIncorrectOwner",
      "inputs": []
    },
    {
      "type": "error",
      "name": "TransferToNonERC721ReceiverImplementer",
      "inputs": []
    },
    {
      "type": "error",
      "name": "TransferToZeroAddress",
      "inputs": []
    },
    {
      "type": "error",
      "name": "URIQueryForNonexistentToken",
      "inputs": []
    }
  ],
  "bytecode": {
    "object": "0x6080806040523461001657612b83908161001b8239f35b5f80fdfe60806040526004361015610011575f80fd5b5f3560e01c806306fdde0314610144578063081812fc1461013f578063095ea7b31461013a57806318160ddd146101355780631c80d1d11461013057806323b872dd1461012b57806342842e0e1461012657806342966c681461012157806356e3df971461011c5780635b6cca80146101175780636352211e1461011257806370a082311461010d57806395d89b4114610108578063a22cb46514610103578063a7f93ebd146100fe578063b88d4fde146100f9578063bf514182146100f4578063d63d4af0146100ef5763e985e9c5146100ea575f80fd5b61166a565b61156b565b61119f565b6110fe565b610fbb565b610eb1565b610d8a565b610cb3565b610c59565b610bd6565b610b39565b610783565b610761565b61074d565b610660565b6105e2565b61044e565b610355565b6101b9565b91908251928382525f5b8481106101915750507fffffffffffffffffffffffffffffffffffffffffffffffffffffffffffffffe0601f845f6020809697860101520116010190565b602081830181015184830182015201610153565b9060206101b6928181520190610149565b90565b34610351575f7ffffffffffffffffffffffffffffffffffffffffffffffffffffffffffffffffc360112610351576040515f7f8785b62d5a7098417c833f00e99883e36791da2bbef1ddc66d7797ca0681c2d25460018160011c9160018116918215610347575b60209160208510841461031a5784875260208701939081156102dd5750600114610265575b6102618661025581880382611063565b604051918291826101a5565b0390f35b7f8785b62d5a7098417c833f00e99883e36791da2bbef1ddc66d7797ca0681c2d25f90815294509192917f4eff6dd2ce7e3eed3d8c57a965022ef5c4089064f80bafbcccb1920be91b46a15b8386106102cc5750505091019050610255826102615f610245565b8054858701529482019481016102b1565b7fffffffffffffffffffffffffffffffffffffffffffffffffffffffffffffff0016845250505090151560051b019050610255826102615f610245565b7f4e487b71000000000000000000000000000000000000000000000000000000005f52602260045260245ffd5b92607f1692610220565b5f80fd5b346103515760207ffffffffffffffffffffffffffffffffffffffffffffffffffffffffffffffffc3601126103515760043561039081611f56565b156103e0575f527f8785b62d5a7098417c833f00e99883e36791da2bbef1ddc66d7797ca0681c2d6602052602073ffffffffffffffffffffffffffffffffffffffff60405f205416604051908152f35b7fcf4700e4000000000000000000000000000000000000000000000000000000005f5260045ffd5b6004359073ffffffffffffffffffffffffffffffffffffffff8216820361035157565b6024359073ffffffffffffffffffffffffffffffffffffffff8216820361035157565b60407ffffffffffffffffffffffffffffffffffffffffffffffffffffffffffffffffc36011261035157610480610408565b6024359073ffffffffffffffffffffffffffffffffffffffff806104a384612109565b1691823303610544575b835f527f8785b62d5a7098417c833f00e99883e36791da2bbef1ddc66d7797ca0681c2d660205261051c8160405f209073ffffffffffffffffffffffffffffffffffffffff167fffffffffffffffffffffffff0000000000000000000000000000000000000000825416179055565b16907f8c5be1e5ebec7d5bd14f71427d1e84f3dd0314c0f7b2291e5b200ac8c7c3b9255f80a4005b60ff6105b4336105918673ffffffffffffffffffffffffffffffffffffffff165f527f8785b62d5a7098417c833f00e99883e36791da2bbef1ddc66d7797ca0681c2d760205260405f2090565b9073ffffffffffffffffffffffffffffffffffffffff165f5260205260405f2090565b54166104ad577fcfb3b942000000000000000000000000000000000000000000000000000000005f5260045ffd5b34610351575f7ffffffffffffffffffffffffffffffffffffffffffffffffffffffffffffffffc3601126103515760207f8785b62d5a7098417c833f00e99883e36791da2bbef1ddc66d7797ca0681c2d0547f8785b62d5a7098417c833f00e99883e36791da2bbef1ddc66d7797ca0681c2d1549003604051908152f35b346103515760207ffffffffffffffffffffffffffffffffffffffffffffffffffffffffffffffffc36011261035157602060ff6106e161069e610408565b73ffffffffffffffffffffffffffffffffffffffff165f527f791cad950d3b9b323a06def8cb8b7bf2c934c7f4cea39385f023ba145f9b93b060205260405f2090565b54166040519015158152f35b7ffffffffffffffffffffffffffffffffffffffffffffffffffffffffffffffffc60609101126103515773ffffffffffffffffffffffffffffffffffffffff90600435828116810361035157916024359081168103610351579060443590565b61075f610759366106ed565b916116f7565b005b61075f61076d366106ed565b906040519261077b84611042565b5f8452611a1e565b346103515760207ffffffffffffffffffffffffffffffffffffffffffffffffffffffffffffffffc3601126103515760043560ff6107fe3373ffffffffffffffffffffffffffffffffffffffff165f527f791cad950d3b9b323a06def8cb8b7bf2c934c7f4cea39385f023ba145f9b93b060205260405f2090565b541615610b115761080e81612109565b73ffffffffffffffffffffffffffffffffffffffff8116610859835f527f8785b62d5a7098417c833f00e99883e36791da2bbef1ddc66d7797ca0681c2d660205260405f2090815490565b929061088573ffffffffffffffffffffffffffffffffffffffff841633908114908614171590565b1590565b610aaf575b5f936108968685612315565b610aa6575b506108e38273ffffffffffffffffffffffffffffffffffffffff165f527f8785b62d5a7098417c833f00e99883e36791da2bbef1ddc66d7797ca0681c2d560205260405f2090565b80546fffffffffffffffffffffffffffffffff01905573ffffffffffffffffffffffffffffffffffffffff82164260a01b177c030000000000000000000000000000000000000000000000000000000017610965855f527f8785b62d5a7098417c833f00e99883e36791da2bbef1ddc66d7797ca0681c2d460205260405f2090565b557c0200000000000000000000000000000000000000000000000000000000811615610a03575b507fddf252ad1be2c89b69c2b068fc378daa952ba7f163c4a11628f55a4df523b3ef8280a461075f6109df7f8785b62d5a7098417c833f00e99883e36791da2bbef1ddc66d7797ca0681c2d15460010190565b7f8785b62d5a7098417c833f00e99883e36791da2bbef1ddc66d7797ca0681c2d155565b60018401610a38815f527f8785b62d5a7098417c833f00e99883e36791da2bbef1ddc66d7797ca0681c2d460205260405f2090565b5415610a45575b5061098c565b7f8785b62d5a7098417c833f00e99883e36791da2bbef1ddc66d7797ca0681c2d0548114610a3f57610a9e905f527f8785b62d5a7098417c833f00e99883e36791da2bbef1ddc66d7797ca0681c2d460205260405f2090565b555f80610a3f565b8390555f61089b565b610b07610881610b00336105918773ffffffffffffffffffffffffffffffffffffffff165f527f8785b62d5a7098417c833f00e99883e36791da2bbef1ddc66d7797ca0681c2d760205260405f2090565b5460ff1690565b1561088a57612011565b7fb091fb55000000000000000000000000000000000000000000000000000000005f5260045ffd5b346103515760207ffffffffffffffffffffffffffffffffffffffffffffffffffffffffffffffffc36011261035157600435610b7481611f56565b15610bae575f527f791cad950d3b9b323a06def8cb8b7bf2c934c7f4cea39385f023ba145f9b93af602052602060405f2054604051908152f35b7fed6d4319000000000000000000000000000000000000000000000000000000005f5260045ffd5b346103515760207ffffffffffffffffffffffffffffffffffffffffffffffffffffffffffffffffc36011261035157602073ffffffffffffffffffffffffffffffffffffffff80610c25610408565b165f527f791cad950d3b9b323a06def8cb8b7bf2c934c7f4cea39385f023ba145f9b93b4825260405f205416604051908152f35b346103515760207ffffffffffffffffffffffffffffffffffffffffffffffffffffffffffffffffc36011261035157602073ffffffffffffffffffffffffffffffffffffffff610caa600435612109565b16604051908152f35b346103515760207ffffffffffffffffffffffffffffffffffffffffffffffffffffffffffffffffc36011261035157610cea610408565b73ffffffffffffffffffffffffffffffffffffffff811615610d625767ffffffffffffffff610d5860209273ffffffffffffffffffffffffffffffffffffffff165f527f8785b62d5a7098417c833f00e99883e36791da2bbef1ddc66d7797ca0681c2d560205260405f2090565b5416604051908152f35b7f8f4eb604000000000000000000000000000000000000000000000000000000005f5260045ffd5b34610351575f7ffffffffffffffffffffffffffffffffffffffffffffffffffffffffffffffffc360112610351576040515f7f8785b62d5a7098417c833f00e99883e36791da2bbef1ddc66d7797ca0681c2d35460018160011c9160018116918215610e9d575b60209160208510841461031a5784875260208701939081156102dd5750600114610e25576102618661025581880382611063565b7f8785b62d5a7098417c833f00e99883e36791da2bbef1ddc66d7797ca0681c2d35f90815294509192917feab2a30426a14f07ecdc76635cd0729eb655bee4c9d04a8fb1b5d85c28c9dae35b838610610e8c5750505091019050610255826102615f610245565b805485870152948201948101610e71565b92607f1692610df1565b8015150361035157565b346103515760407ffffffffffffffffffffffffffffffffffffffffffffffffffffffffffffffffc36011261035157610ee8610408565b73ffffffffffffffffffffffffffffffffffffffff60243591610f0a83610ea7565b610f8983610f59836105913373ffffffffffffffffffffffffffffffffffffffff165f527f8785b62d5a7098417c833f00e99883e36791da2bbef1ddc66d7797ca0681c2d760205260405f2090565b9060ff7fffffffffffffffffffffffffffffffffffffffffffffffffffffffffffffff0083541691151516179055565b604051921515835216907f17307eab39ab6107e8899845ad3d59bd9653f200f220920489ca2b5937696c3160203392a3005b34610351575f7ffffffffffffffffffffffffffffffffffffffffffffffffffffffffffffffffc3601126103515760207f791cad950d3b9b323a06def8cb8b7bf2c934c7f4cea39385f023ba145f9b93bb54604051908152f35b7f4e487b71000000000000000000000000000000000000000000000000000000005f52604160045260245ffd5b6020810190811067ffffffffffffffff82111761105e57604052565b611015565b90601f7fffffffffffffffffffffffffffffffffffffffffffffffffffffffffffffffe0910116810190811067ffffffffffffffff82111761105e57604052565b604051906060820182811067ffffffffffffffff82111761105e57604052565b67ffffffffffffffff811161105e57601f017fffffffffffffffffffffffffffffffffffffffffffffffffffffffffffffffe01660200190565b60807ffffffffffffffffffffffffffffffffffffffffffffffffffffffffffffffffc36011261035157611130610408565b61113861042b565b6064359167ffffffffffffffff8311610351573660238401121561035157826004013591611165836110c4565b926111736040519485611063565b8084523660248287010111610351576020815f92602461075f9801838801378501015260443591611a1e565b34610351576102c07ffffffffffffffffffffffffffffffffffffffffffffffffffffffffffffffffc360112610351576111d7610408565b6102807fffffffffffffffffffffffffffffffffffffffffffffffffffffffffffffffdc3601126103515760ff61124b3373ffffffffffffffffffffffffffffffffffffffff165f527f791cad950d3b9b323a06def8cb8b7bf2c934c7f4cea39385f023ba145f9b93b060205260405f2090565b541615610b115773ffffffffffffffffffffffffffffffffffffffff906102617f8785b62d5a7098417c833f00e99883e36791da2bbef1ddc66d7797ca0681c2d054805f527f791cad950d3b9b323a06def8cb8b7bf2c934c7f4cea39385f023ba145f9b93ae602052611432600560405f206112c681611acd565b6112d260018201611b48565b6112de60028201611bc5565b6003810161131b6112ed611a78565b829060ff167fffffffffffffffffffffffffffffffffffffffffffffffffffffffffffffff00825416179055565b611359611326611a89565b82547fffffffffffffffffffffffffffffffffffffffffffffffffffffffffffff00ff1660089190911b61ff0016178255565b61139d611364611a9a565b82805490917fffffffffffffffffffffffffffffffffffffffffffffffffffffffffff00ffff90911660109190911b62ff000016179055565b6113dd6113a8611aab565b82547fffffffffffffffffffffffffffffffffffffffffffffffffffffffff00ffffff1660189190911b63ff00000016178255565b61141e60ff6113ea611abc565b83547fffffffffffffffffffffffffffffffffffffffffffffffffffffff00ffffffff16911660201b64ff00000000161790565b905561142c60048201611c7e565b01611d3a565b6102a435611467825f527f791cad950d3b9b323a06def8cb8b7bf2c934c7f4cea39385f023ba145f9b93af60205260405f2090565b556114b86114736110a4565b5f81525f60208201525f60408201526114b3835f527f791cad950d3b9b323a06def8cb8b7bf2c934c7f4cea39385f023ba145f9b93ad60205260405f2090565b611e85565b6114c1836127da565b61153661150b8473ffffffffffffffffffffffffffffffffffffffff165f527f791cad950d3b9b323a06def8cb8b7bf2c934c7f4cea39385f023ba145f9b93b060205260405f2090565b60017fffffffffffffffffffffffffffffffffffffffffffffffffffffffffffffff00825416179055565b80604051948594167f55d67e1c7e7985d8bc19f95ec4bb3c5c32ba5077e013e0c02aa0e37ddc81ccd35f80a382526020820190565b34610351576020807ffffffffffffffffffffffffffffffffffffffffffffffffffffffffffffffffc360112610351576115e96115a6610408565b73ffffffffffffffffffffffffffffffffffffffff165f527f791cad950d3b9b323a06def8cb8b7bf2c934c7f4cea39385f023ba145f9b93b160205260405f2090565b604051908183825491828152019081925f52845f20905f5b8682821061165657868661161782880383611063565b60405192839281840190828552518091526040840192915f5b82811061163f57505050500390f35b835185528695509381019392810192600101611630565b835485529093019260019283019201611601565b346103515760407ffffffffffffffffffffffffffffffffffffffffffffffffffffffffffffffffc36011261035157602060ff6106e16116a8610408565b6105916116b361042b565b9173ffffffffffffffffffffffffffffffffffffffff165f527f8785b62d5a7098417c833f00e99883e36791da2bbef1ddc66d7797ca0681c2d760205260405f2090565b91909161170382612109565b9273ffffffffffffffffffffffffffffffffffffffff809216938483821603611a19575f8481527f8785b62d5a7098417c833f00e99883e36791da2bbef1ddc66d7797ca0681c2d660205260409020805461177a73ffffffffffffffffffffffffffffffffffffffff881633908114908314171590565b6119be575b61178a8685896123e2565b6119b5575b506117d78573ffffffffffffffffffffffffffffffffffffffff165f527f8785b62d5a7098417c833f00e99883e36791da2bbef1ddc66d7797ca0681c2d560205260405f2090565b80547fffffffffffffffffffffffffffffffffffffffffffffffffffffffffffffffff0190556118448273ffffffffffffffffffffffffffffffffffffffff165f527f8785b62d5a7098417c833f00e99883e36791da2bbef1ddc66d7797ca0681c2d560205260405f2090565b8054600101905573ffffffffffffffffffffffffffffffffffffffff82164260a01b177c0200000000000000000000000000000000000000000000000000000000176118b7855f527f8785b62d5a7098417c833f00e99883e36791da2bbef1ddc66d7797ca0681c2d460205260405f2090565b557c0200000000000000000000000000000000000000000000000000000000811615611912575b501680927fddf252ad1be2c89b69c2b068fc378daa952ba7f163c4a11628f55a4df523b3ef5f80a41561190d57565b612061565b60018401611947815f527f8785b62d5a7098417c833f00e99883e36791da2bbef1ddc66d7797ca0681c2d460205260405f2090565b5415611954575b506118de565b7f8785b62d5a7098417c833f00e99883e36791da2bbef1ddc66d7797ca0681c2d054811461194e576119ad905f527f8785b62d5a7098417c833f00e99883e36791da2bbef1ddc66d7797ca0681c2d460205260405f2090565b555f8061194e565b5f90555f61178f565b611a0f610881610b00336105918b73ffffffffffffffffffffffffffffffffffffffff165f527f8785b62d5a7098417c833f00e99883e36791da2bbef1ddc66d7797ca0681c2d760205260405f2090565b1561177f57612011565b612039565b929190611a2c8282866116f7565b803b611a39575b50505050565b611a4293612784565b15611a50575f808080611a33565b7fd1a57ed6000000000000000000000000000000000000000000000000000000005f5260045ffd5b6101043560ff811681036103515790565b6101243560ff811681036103515790565b6101443560ff811681036103515790565b6101643560ff811681036103515790565b6101843560ff811681036103515790565b60243560ff811681036103515781547fffffffffffffffffffffffffffffffffffffffffffffffffffffffffffffff001660ff90911617815560443560ff811681036103515781547fffffffffffffffffffffffffffffffffffffffffffffffffffffffffffff00ff1660089190911b61ff0016179055565b565b60643560ff811681036103515781547fffffffffffffffffffffffffffffffffffffffffffffffffffffffffffffff001660ff90911617815560843560ff811681036103515781547fffffffffffffffffffffffffffffffffffffffffffffffffffffffffffff00ff1660089190911b61ff0016179055565b9055565b60a43560ff811681036103515781547fffffffffffffffffffffffffffffffffffffffffffffffffffffffffffffff001660ff90911617815560c43560ff811681036103515781547fffffffffffffffffffffffffffffffffffffffffffffffffffffffffffff00ff1660089190911b61ff001617815560e43560ff81168091036103515781547fffffffffffffffffffffffffffffffffffffffffffffffffffffffffff00ffff1660109190911b62ff000016179055565b6101a43560ff811681036103515781547fffffffffffffffffffffffffffffffffffffffffffffffffffffffffffffff001660ff9091161781556101c43560ff811681036103515781547fffffffffffffffffffffffffffffffffffffffffffffffffffffffffffff00ff1660089190911b61ff00161781556101e43560ff81168091036103515781547fffffffffffffffffffffffffffffffffffffffffffffffffffffffffff00ffff1660109190911b62ff000016179055565b611d7b61020435611d4a81610ea7565b829060ff7fffffffffffffffffffffffffffffffffffffffffffffffffffffffffffffff0083541691151516179055565b6102243560ff811681036103515781547fffffffffffffffffffffffffffffffffffffffffffffffffffffffffffff00ff1660089190911b61ff0016178155611dfd61024435611dca81610ea7565b82547fffffffffffffffffffffffffffffffffffffffffffffffffffffffffff00ffff1690151560101b62ff0000161790565b81556102643560ff811681036103515781547fffffffffffffffffffffffffffffffffffffffffffffffffffffffff00ffffff1660189190911b63ff00000016178155611bc161028435611e5081610ea7565b82547fffffffffffffffffffffffffffffffffffffffffffffffffffffff00ffffffff1690151560201b64ff00000000161790565b60026040611b4693611ee973ffffffffffffffffffffffffffffffffffffffff825116859073ffffffffffffffffffffffffffffffffffffffff167fffffffffffffffffffffffff0000000000000000000000000000000000000000825416179055565b602081015160018501550151151591019060ff7fffffffffffffffffffffffffffffffffffffffffffffffffffffffffffffff0083541691151516179055565b7f4e487b71000000000000000000000000000000000000000000000000000000005f52601160045260245ffd5b905f917f8785b62d5a7098417c833f00e99883e36791da2bbef1ddc66d7797ca0681c2d0548110611f845750565b9091505b805f527f8785b62d5a7098417c833f00e99883e36791da2bbef1ddc66d7797ca0681c2d460205260405f205480611fec57508015611fe7577fffffffffffffffffffffffffffffffffffffffffffffffffffffffffffffffff01611f88565b611f29565b7c01000000000000000000000000000000000000000000000000000000009150161590565b7f59c896be000000000000000000000000000000000000000000000000000000005f5260045ffd5b7fa1148100000000000000000000000000000000000000000000000000000000005f5260045ffd5b7fea553b34000000000000000000000000000000000000000000000000000000005f5260045ffd5b7fdf2d9b42000000000000000000000000000000000000000000000000000000005f5260045ffd5b7f0fb51c13000000000000000000000000000000000000000000000000000000005f5260045ffd5b7f2e076300000000000000000000000000000000000000000000000000000000005f5260045ffd5b5f805260045ffd5b61213a815f527f8785b62d5a7098417c833f00e99883e36791da2bbef1ddc66d7797ca0681c2d460205260405f2090565b5490811561216a57507c010000000000000000000000000000000000000000000000000000000081166120895790565b90507f8785b62d5a7098417c833f00e99883e36791da2bbef1ddc66d7797ca0681c2d054811015612089577fffffffffffffffffffffffffffffffffffffffffffffffffffffffffffffffff905b016121ea815f527f8785b62d5a7098417c833f00e99883e36791da2bbef1ddc66d7797ca0681c2d460205260405f2090565b5490811561224057507c01000000000000000000000000000000000000000000000000000000008116156101b6577fdf2d9b42000000000000000000000000000000000000000000000000000000005f5260045ffd5b7fffffffffffffffffffffffffffffffffffffffffffffffffffffffffffffffff91506121b8565b91908201809211611fe757565b805482101561228a575f5260205f2001905f90565b7f4e487b71000000000000000000000000000000000000000000000000000000005f52603260045260245ffd5b908154916801000000000000000083101561105e57826122df916001611b4695018155612275565b9091907fffffffffffffffffffffffffffffffffffffffffffffffffffffffffffffffff83549160031b92831b921b1916179055565b5f5b6001811061236a575073ffffffffffffffffffffffffffffffffffffffff811661233f575050565b5f5b6001811061234e57505050565b8061236461235e60019386612268565b84612a11565b01612341565b6123748184612268565b73ffffffffffffffffffffffffffffffffffffffff8316151590816123a6575b506123a157600101612317565b6120b1565b6123dc9150610b00905f527f791cad950d3b9b323a06def8cb8b7bf2c934c7f4cea39385f023ba145f9b93c060205260405f2090565b5f612394565b9190915f5b600181106124b1575073ffffffffffffffffffffffffffffffffffffffff9081811661248b575b508216612419575050565b5f5b6001811061242857505050565b6001906124856124758573ffffffffffffffffffffffffffffffffffffffff165f527f791cad950d3b9b323a06def8cb8b7bf2c934c7f4cea39385f023ba145f9b93b160205260405f2090565b61247f8386612268565b906122b7565b0161241b565b5f5b6001811061249b575061240e565b806124ab61235e60019387612268565b0161248d565b6124bb8184612268565b73ffffffffffffffffffffffffffffffffffffffff8316151590816124e8575b506123a1576001016123e7565b61251e9150610b00905f527f791cad950d3b9b323a06def8cb8b7bf2c934c7f4cea39385f023ba145f9b93c060205260405f2090565b5f6124db565b5f5b600181106125c2575073ffffffffffffffffffffffffffffffffffffffff811661254e575050565b5f5b6001811061255d57505050565b6125a48273ffffffffffffffffffffffffffffffffffffffff165f527f791cad950d3b9b323a06def8cb8b7bf2c934c7f4cea39385f023ba145f9b93b160205260405f2090565b9080840191828511611fe7576001926125bc916122b7565b01612550565b8083018311611fe757600101612526565b9081602091031261035157517fffffffff00000000000000000000000000000000000000000000000000000000811681036103515790565b6101b6939273ffffffffffffffffffffffffffffffffffffffff6080931682525f602083015260408201528160608201520190610149565b90926101b6949360809373ffffffffffffffffffffffffffffffffffffffff809216845216602083015260408201528160608201520190610149565b3d156126a9573d90612690826110c4565b9161269e6040519384611063565b82523d5f602084013e565b606090565b61270460209173ffffffffffffffffffffffffffffffffffffffff93945f6040519586809581947f150b7a02000000000000000000000000000000000000000000000000000000009a8b8452336004850161260b565b0393165af15f9181612753575b5061272d5761271e61267f565b805115611a5057805190602001fd5b7fffffffff00000000000000000000000000000000000000000000000000000000161490565b61277691925060203d60201161277d575b61276e8183611063565b8101906125d3565b905f612711565b503d612764565b92602091612704935f73ffffffffffffffffffffffffffffffffffffffff6040518097819682957f150b7a02000000000000000000000000000000000000000000000000000000009b8c85523360048601612643565b6040516127e681611042565b5f81527f8785b62d5a7098417c833f00e99883e36791da2bbef1ddc66d7797ca0681c2d09081546128178185612524565b73ffffffffffffffffffffffffffffffffffffffff84164260a01b177c020000000000000000000000000000000000000000000000000000000017612883825f527f8785b62d5a7098417c833f00e99883e36791da2bbef1ddc66d7797ca0681c2d460205260405f2090565b556128cb8473ffffffffffffffffffffffffffffffffffffffff165f527f8785b62d5a7098417c833f00e99883e36791da2bbef1ddc66d7797ca0681c2d560205260405f2090565b68010000000000000001815401905573ffffffffffffffffffffffffffffffffffffffff8416908115612a0c5760019182820191908380805b6129bd575b50505050612935907f8785b62d5a7098417c833f00e99883e36791da2bbef1ddc66d7797ca0681c2d055565b833b6129415750505050565b8254937fffffffffffffffffffffffffffffffffffffffffffffffffffffffffffffffff85019180805b612989575b50505050505403612984575f808080611a33565b612101565b156129b0575b5f6129a16108818684870196866126ae565b6129ab578161296b565b611a50565b85831061298f5780612970565b156129f4575b505f8483835f7fddf252ad1be2c89b69c2b068fc378daa952ba7f163c4a11628f55a4df523b3ef8180a49081612904565b90910190828214612a0557836129c3565b8381612909565b6120d9565b612a589073ffffffffffffffffffffffffffffffffffffffff165f527f791cad950d3b9b323a06def8cb8b7bf2c934c7f4cea39385f023ba145f9b93b160205260405f2090565b80545f5b818110612a695750505050565b83612a748285612275565b919054600392831b1c14612a8b5750600101612a5c565b919293507fffffffffffffffffffffffffffffffffffffffffffffffffffffffffffffffff92838101908111611fe757612ad892612acc6122df9287612275565b9054911b1c9185612275565b81548015612b20570190612b1d612aef8383612275565b7fffffffffffffffffffffffffffffffffffffffffffffffffffffffffffffffff82549160031b1b19169055565b55565b7f4e487b71000000000000000000000000000000000000000000000000000000005f52603160045260245ffdfea2646970667358221220324b17296f57be7ba2f223cca81d69dfbd40f67784ab33877313776cf50daf2c64736f6c63430008180033",
    "linkReferences": {}
  },
  "methodIdentifiers": {
    "approve(address,uint256)": "095ea7b3",
    "balanceOf(address)": "70a08231",
    "burn(uint256)": "42966c68",
    "getApproved(uint256)": "081812fc",
    "getAuthorizedBreeders(address)": "1c80d1d1",
    "getGeneration(uint256)": "56e3df97",
    "getMintPrice()": "a7f93ebd",
    "getOwnerTokens(address)": "d63d4af0",
    "getPriceFeed(address)": "5b6cca80",
    "isApprovedForAll(address,address)": "e985e9c5",
    "mintFromBreeders(address,((uint8,uint8),(uint8,uint8),(uint8,uint8,uint8),(uint8,uint8,uint8,uint8,uint8),(uint8,uint8,uint8),(bool,uint8,bool,uint8,bool)),uint256)": "bf514182",
    "name()": "06fdde03",
    "ownerOf(uint256)": "6352211e",
    "safeTransferFrom(address,address,uint256)": "42842e0e",
    "safeTransferFrom(address,address,uint256,bytes)": "b88d4fde",
    "setApprovalForAll(address,bool)": "a22cb465",
    "symbol()": "95d89b41",
    "totalSupply()": "18160ddd",
    "transferFrom(address,address,uint256)": "23b872dd"
  },
  "id": 119
}