{
  "abi": [
    {
      "type": "constructor",
      "inputs": [
        {
          "name": "router",
          "type": "address",
          "internalType": "address"
        },
        {
          "name": "remote",
          "type": "address",
          "internalType": "address"
        },
        {
          "name": "initialOwner",
          "type": "address",
          "internalType": "address"
        },
        {
          "name": "linkToken",
          "type": "address",
          "internalType": "address"
        },
        {
          "name": "beanHeads",
          "type": "address",
          "internalType": "address"
        }
      ],
      "stateMutability": "nonpayable"
    },
    {
      "type": "function",
      "name": "ADDITIONAL_FEED_PRECISION",
      "inputs": [],
      "outputs": [
        {
          "name": "",
          "type": "uint256",
          "internalType": "uint256"
        }
      ],
      "stateMutability": "view"
    },
    {
      "type": "function",
      "name": "GAS_LIMIT_BUY",
      "inputs": [],
      "outputs": [
        {
          "name": "",
          "type": "uint256",
          "internalType": "uint256"
        }
      ],
      "stateMutability": "view"
    },
    {
      "type": "function",
      "name": "GAS_LIMIT_MINT",
      "inputs": [],
      "outputs": [
        {
          "name": "",
          "type": "uint256",
          "internalType": "uint256"
        }
      ],
      "stateMutability": "view"
    },
    {
      "type": "function",
      "name": "GAS_LIMIT_SELL",
      "inputs": [],
      "outputs": [
        {
          "name": "",
          "type": "uint256",
          "internalType": "uint256"
        }
      ],
      "stateMutability": "view"
    },
    {
      "type": "function",
      "name": "GAS_LIMIT_TRANSFER",
      "inputs": [],
      "outputs": [
        {
          "name": "",
          "type": "uint256",
          "internalType": "uint256"
        }
      ],
      "stateMutability": "view"
    },
    {
      "type": "function",
      "name": "PRECISION",
      "inputs": [],
      "outputs": [
        {
          "name": "",
          "type": "uint256",
          "internalType": "uint256"
        }
      ],
      "stateMutability": "view"
    },
    {
      "type": "function",
      "name": "ccipReceive",
      "inputs": [
        {
          "name": "message",
          "type": "tuple",
          "internalType": "struct Client.Any2EVMMessage",
          "components": [
            {
              "name": "messageId",
              "type": "bytes32",
              "internalType": "bytes32"
            },
            {
              "name": "sourceChainSelector",
              "type": "uint64",
              "internalType": "uint64"
            },
            {
              "name": "sender",
              "type": "bytes",
              "internalType": "bytes"
            },
            {
              "name": "data",
              "type": "bytes",
              "internalType": "bytes"
            },
            {
              "name": "destTokenAmounts",
              "type": "tuple[]",
              "internalType": "struct Client.EVMTokenAmount[]",
              "components": [
                {
                  "name": "token",
                  "type": "address",
                  "internalType": "address"
                },
                {
                  "name": "amount",
                  "type": "uint256",
                  "internalType": "uint256"
                }
              ]
            }
          ]
        }
      ],
      "outputs": [],
      "stateMutability": "nonpayable"
    },
    {
      "type": "function",
      "name": "depositLink",
      "inputs": [
        {
          "name": "amount",
          "type": "uint256",
          "internalType": "uint256"
        }
      ],
      "outputs": [],
      "stateMutability": "nonpayable"
    },
    {
      "type": "function",
      "name": "getRouter",
      "inputs": [],
      "outputs": [
        {
          "name": "",
          "type": "address",
          "internalType": "address"
        }
      ],
      "stateMutability": "view"
    },
    {
      "type": "function",
      "name": "i_beanHeadsContract",
      "inputs": [],
      "outputs": [
        {
          "name": "",
          "type": "address",
          "internalType": "address"
        }
      ],
      "stateMutability": "view"
    },
    {
      "type": "function",
      "name": "i_router",
      "inputs": [],
      "outputs": [
        {
          "name": "",
          "type": "address",
          "internalType": "contract IRouterClient"
        }
      ],
      "stateMutability": "view"
    },
    {
      "type": "function",
      "name": "onERC721Received",
      "inputs": [
        {
          "name": "",
          "type": "address",
          "internalType": "address"
        },
        {
          "name": "",
          "type": "address",
          "internalType": "address"
        },
        {
          "name": "",
          "type": "uint256",
          "internalType": "uint256"
        },
        {
          "name": "",
          "type": "bytes",
          "internalType": "bytes"
        }
      ],
      "outputs": [
        {
          "name": "",
          "type": "bytes4",
          "internalType": "bytes4"
        }
      ],
      "stateMutability": "pure"
    },
    {
      "type": "function",
      "name": "owner",
      "inputs": [],
      "outputs": [
        {
          "name": "",
          "type": "address",
          "internalType": "address"
        }
      ],
      "stateMutability": "view"
    },
    {
      "type": "function",
      "name": "remoteBridgeAddresses",
      "inputs": [
        {
          "name": "remoteBridge",
          "type": "address",
          "internalType": "address"
        }
      ],
      "outputs": [
        {
          "name": "isRegistered",
          "type": "bool",
          "internalType": "bool"
        }
      ],
      "stateMutability": "view"
    },
    {
      "type": "function",
      "name": "renounceOwnership",
      "inputs": [],
      "outputs": [],
      "stateMutability": "nonpayable"
    },
    {
      "type": "function",
      "name": "s_linkToken",
      "inputs": [],
      "outputs": [
        {
          "name": "",
          "type": "address",
          "internalType": "contract IERC20"
        }
      ],
      "stateMutability": "view"
    },
    {
      "type": "function",
      "name": "s_remoteBridge",
      "inputs": [],
      "outputs": [
        {
          "name": "",
          "type": "address",
          "internalType": "address"
        }
      ],
      "stateMutability": "view"
    },
    {
      "type": "function",
      "name": "sendBatchBuyTokenRequest",
      "inputs": [
        {
          "name": "_destinationChainSelector",
          "type": "uint64",
          "internalType": "uint64"
        },
        {
          "name": "_tokenIds",
          "type": "uint256[]",
          "internalType": "uint256[]"
        },
        {
          "name": "_prices",
          "type": "uint256[]",
          "internalType": "uint256[]"
        },
        {
          "name": "_paymentToken",
          "type": "address",
          "internalType": "address"
        }
      ],
      "outputs": [
        {
          "name": "messageId",
          "type": "bytes32",
          "internalType": "bytes32"
        }
      ],
      "stateMutability": "nonpayable"
    },
    {
      "type": "function",
      "name": "sendBatchCancelTokenSaleRequest",
      "inputs": [
        {
          "name": "_destinationChainSelector",
          "type": "uint64",
          "internalType": "uint64"
        },
        {
          "name": "_cancelRequests",
          "type": "tuple[]",
          "internalType": "struct PermitTypes.Cancel[]",
          "components": [
            {
              "name": "seller",
              "type": "address",
              "internalType": "address"
            },
            {
              "name": "tokenId",
              "type": "uint256",
              "internalType": "uint256"
            },
            {
              "name": "listingNonce",
              "type": "uint256",
              "internalType": "uint256"
            },
            {
              "name": "deadline",
              "type": "uint64",
              "internalType": "uint64"
            }
          ]
        },
        {
          "name": "_cancelSigs",
          "type": "bytes[]",
          "internalType": "bytes[]"
        }
      ],
      "outputs": [
        {
          "name": "messageId",
          "type": "bytes32",
          "internalType": "bytes32"
        }
      ],
      "stateMutability": "nonpayable"
    },
    {
      "type": "function",
      "name": "sendBatchSellTokenRequest",
      "inputs": [
        {
          "name": "_destinationChainSelector",
          "type": "uint64",
          "internalType": "uint64"
        },
        {
          "name": "_sellRequests",
          "type": "tuple[]",
          "internalType": "struct PermitTypes.Sell[]",
          "components": [
            {
              "name": "owner",
              "type": "address",
              "internalType": "address"
            },
            {
              "name": "tokenId",
              "type": "uint256",
              "internalType": "uint256"
            },
            {
              "name": "price",
              "type": "uint256",
              "internalType": "uint256"
            },
            {
              "name": "nonce",
              "type": "uint256",
              "internalType": "uint256"
            },
            {
              "name": "deadline",
              "type": "uint64",
              "internalType": "uint64"
            }
          ]
        },
        {
          "name": "_sellSigs",
          "type": "bytes[]",
          "internalType": "bytes[]"
        },
        {
          "name": "_permitDeadlines",
          "type": "uint256[]",
          "internalType": "uint256[]"
        },
        {
          "name": "_permitSigs",
          "type": "bytes[]",
          "internalType": "bytes[]"
        }
      ],
      "outputs": [
        {
          "name": "messageId",
          "type": "bytes32",
          "internalType": "bytes32"
        }
      ],
      "stateMutability": "nonpayable"
    },
    {
      "type": "function",
      "name": "sendBuyTokenRequest",
      "inputs": [
        {
          "name": "_destinationChainSelector",
          "type": "uint64",
          "internalType": "uint64"
        },
        {
          "name": "_tokenId",
          "type": "uint256",
          "internalType": "uint256"
        },
        {
          "name": "_paymentToken",
          "type": "address",
          "internalType": "address"
        },
        {
          "name": "_price",
          "type": "uint256",
          "internalType": "uint256"
        }
      ],
      "outputs": [
        {
          "name": "messageId",
          "type": "bytes32",
          "internalType": "bytes32"
        }
      ],
      "stateMutability": "nonpayable"
    },
    {
      "type": "function",
      "name": "sendCancelTokenSaleRequest",
      "inputs": [
        {
          "name": "_destinationChainSelector",
          "type": "uint64",
          "internalType": "uint64"
        },
        {
          "name": "c",
          "type": "tuple",
          "internalType": "struct PermitTypes.Cancel",
          "components": [
            {
              "name": "seller",
              "type": "address",
              "internalType": "address"
            },
            {
              "name": "tokenId",
              "type": "uint256",
              "internalType": "uint256"
            },
            {
              "name": "listingNonce",
              "type": "uint256",
              "internalType": "uint256"
            },
            {
              "name": "deadline",
              "type": "uint64",
              "internalType": "uint64"
            }
          ]
        },
        {
          "name": "cancelSig",
          "type": "bytes",
          "internalType": "bytes"
        }
      ],
      "outputs": [
        {
          "name": "messageId",
          "type": "bytes32",
          "internalType": "bytes32"
        }
      ],
      "stateMutability": "nonpayable"
    },
    {
      "type": "function",
      "name": "sendMintTokenRequest",
      "inputs": [
        {
          "name": "_destinationChainSelector",
          "type": "uint64",
          "internalType": "uint64"
        },
        {
          "name": "_receiver",
          "type": "address",
          "internalType": "address"
        },
        {
          "name": "_params",
          "type": "tuple",
          "internalType": "struct Genesis.SVGParams",
          "components": [
            {
              "name": "hairParams",
              "type": "tuple",
              "internalType": "struct Genesis.HairParams",
              "components": [
                {
                  "name": "hairStyle",
                  "type": "uint8",
                  "internalType": "uint8"
                },
                {
                  "name": "hairColor",
                  "type": "uint8",
                  "internalType": "uint8"
                }
              ]
            },
            {
              "name": "bodyParams",
              "type": "tuple",
              "internalType": "struct Genesis.BodyParams",
              "components": [
                {
                  "name": "bodyType",
                  "type": "uint8",
                  "internalType": "uint8"
                },
                {
                  "name": "skinColor",
                  "type": "uint8",
                  "internalType": "uint8"
                }
              ]
            },
            {
              "name": "clothingParams",
              "type": "tuple",
              "internalType": "struct Genesis.ClothingParams",
              "components": [
                {
                  "name": "clothes",
                  "type": "uint8",
                  "internalType": "uint8"
                },
                {
                  "name": "clothingColor",
                  "type": "uint8",
                  "internalType": "uint8"
                },
                {
                  "name": "clothesGraphic",
                  "type": "uint8",
                  "internalType": "uint8"
                }
              ]
            },
            {
              "name": "facialFeaturesParams",
              "type": "tuple",
              "internalType": "struct Genesis.FacialFeaturesParams",
              "components": [
                {
                  "name": "eyebrowShape",
                  "type": "uint8",
                  "internalType": "uint8"
                },
                {
                  "name": "eyeShape",
                  "type": "uint8",
                  "internalType": "uint8"
                },
                {
                  "name": "facialHairType",
                  "type": "uint8",
                  "internalType": "uint8"
                },
                {
                  "name": "mouthStyle",
                  "type": "uint8",
                  "internalType": "uint8"
                },
                {
                  "name": "lipColor",
                  "type": "uint8",
                  "internalType": "uint8"
                }
              ]
            },
            {
              "name": "accessoryParams",
              "type": "tuple",
              "internalType": "struct Genesis.AccessoryParams",
              "components": [
                {
                  "name": "accessoryId",
                  "type": "uint8",
                  "internalType": "uint8"
                },
                {
                  "name": "hatStyle",
                  "type": "uint8",
                  "internalType": "uint8"
                },
                {
                  "name": "hatColor",
                  "type": "uint8",
                  "internalType": "uint8"
                }
              ]
            },
            {
              "name": "otherParams",
              "type": "tuple",
              "internalType": "struct Genesis.OtherParams",
              "components": [
                {
                  "name": "faceMask",
                  "type": "bool",
                  "internalType": "bool"
                },
                {
                  "name": "faceMaskColor",
                  "type": "uint8",
                  "internalType": "uint8"
                },
                {
                  "name": "shapes",
                  "type": "bool",
                  "internalType": "bool"
                },
                {
                  "name": "shapeColor",
                  "type": "uint8",
                  "internalType": "uint8"
                },
                {
                  "name": "lashes",
                  "type": "bool",
                  "internalType": "bool"
                }
              ]
            }
          ]
        },
        {
          "name": "_amount",
          "type": "uint256",
          "internalType": "uint256"
        },
        {
          "name": "_paymentToken",
          "type": "address",
          "internalType": "address"
        }
      ],
      "outputs": [
        {
          "name": "messageId",
          "type": "bytes32",
          "internalType": "bytes32"
        }
      ],
      "stateMutability": "payable"
    },
    {
      "type": "function",
      "name": "sendSellTokenRequest",
      "inputs": [
        {
          "name": "_destinationChainSelector",
          "type": "uint64",
          "internalType": "uint64"
        },
        {
          "name": "s",
          "type": "tuple",
          "internalType": "struct PermitTypes.Sell",
          "components": [
            {
              "name": "owner",
              "type": "address",
              "internalType": "address"
            },
            {
              "name": "tokenId",
              "type": "uint256",
              "internalType": "uint256"
            },
            {
              "name": "price",
              "type": "uint256",
              "internalType": "uint256"
            },
            {
              "name": "nonce",
              "type": "uint256",
              "internalType": "uint256"
            },
            {
              "name": "deadline",
              "type": "uint64",
              "internalType": "uint64"
            }
          ]
        },
        {
          "name": "sellSig",
          "type": "bytes",
          "internalType": "bytes"
        },
        {
          "name": "permitDeadline",
          "type": "uint256",
          "internalType": "uint256"
        },
        {
          "name": "permitSig",
          "type": "bytes",
          "internalType": "bytes"
        }
      ],
      "outputs": [
        {
          "name": "messageId",
          "type": "bytes32",
          "internalType": "bytes32"
        }
      ],
      "stateMutability": "nonpayable"
    },
    {
      "type": "function",
      "name": "sendTransferTokenRequest",
      "inputs": [
        {
          "name": "_destinationChainSelector",
          "type": "uint64",
          "internalType": "uint64"
        },
        {
          "name": "_tokenId",
          "type": "uint256",
          "internalType": "uint256"
        },
        {
          "name": "_receiver",
          "type": "address",
          "internalType": "address"
        }
      ],
      "outputs": [
        {
          "name": "messageId",
          "type": "bytes32",
          "internalType": "bytes32"
        }
      ],
      "stateMutability": "nonpayable"
    },
    {
      "type": "function",
      "name": "setRemoteBridge",
      "inputs": [
        {
          "name": "_newRemoteBridge",
          "type": "address",
          "internalType": "address"
        }
      ],
      "outputs": [],
      "stateMutability": "nonpayable"
    },
    {
      "type": "function",
      "name": "supportsInterface",
      "inputs": [
        {
          "name": "interfaceId",
          "type": "bytes4",
          "internalType": "bytes4"
        }
      ],
      "outputs": [
        {
          "name": "",
          "type": "bool",
          "internalType": "bool"
        }
      ],
      "stateMutability": "view"
    },
    {
      "type": "function",
      "name": "transferOwnership",
      "inputs": [
        {
          "name": "newOwner",
          "type": "address",
          "internalType": "address"
        }
      ],
      "outputs": [],
      "stateMutability": "nonpayable"
    },
    {
      "type": "function",
      "name": "withdrawLink",
      "inputs": [
        {
          "name": "amount",
          "type": "uint256",
          "internalType": "uint256"
        }
      ],
      "outputs": [],
      "stateMutability": "nonpayable"
    },
    {
      "type": "event",
      "name": "BatchTokenBoughtCrossChain",
      "inputs": [
        {
          "name": "buyer",
          "type": "address",
          "indexed": true,
          "internalType": "address"
        },
        {
          "name": "paymentToken",
          "type": "address",
          "indexed": true,
          "internalType": "address"
        }
      ],
      "anonymous": false
    },
    {
      "type": "event",
      "name": "BatchTokenSaleCancelledCrossChain",
      "inputs": [
        {
          "name": "cancelRequests",
          "type": "tuple[]",
          "indexed": false,
          "internalType": "struct PermitTypes.Cancel[]",
          "components": [
            {
              "name": "seller",
              "type": "address",
              "internalType": "address"
            },
            {
              "name": "tokenId",
              "type": "uint256",
              "internalType": "uint256"
            },
            {
              "name": "listingNonce",
              "type": "uint256",
              "internalType": "uint256"
            },
            {
              "name": "deadline",
              "type": "uint64",
              "internalType": "uint64"
            }
          ]
        }
      ],
      "anonymous": false
    },
    {
      "type": "event",
      "name": "BatchTokensListedCrossChain",
      "inputs": [
        {
          "name": "sellRequests",
          "type": "tuple[]",
          "indexed": false,
          "internalType": "struct PermitTypes.Sell[]",
          "components": [
            {
              "name": "owner",
              "type": "address",
              "internalType": "address"
            },
            {
              "name": "tokenId",
              "type": "uint256",
              "internalType": "uint256"
            },
            {
              "name": "price",
              "type": "uint256",
              "internalType": "uint256"
            },
            {
              "name": "nonce",
              "type": "uint256",
              "internalType": "uint256"
            },
            {
              "name": "deadline",
              "type": "uint64",
              "internalType": "uint64"
            }
          ]
        }
      ],
      "anonymous": false
    },
    {
      "type": "event",
      "name": "CancelBatchSellTokenRequest",
      "inputs": [
        {
          "name": "cancelRequests",
          "type": "tuple[]",
          "indexed": false,
          "internalType": "struct PermitTypes.Cancel[]",
          "components": [
            {
              "name": "seller",
              "type": "address",
              "internalType": "address"
            },
            {
              "name": "tokenId",
              "type": "uint256",
              "internalType": "uint256"
            },
            {
              "name": "listingNonce",
              "type": "uint256",
              "internalType": "uint256"
            },
            {
              "name": "deadline",
              "type": "uint64",
              "internalType": "uint64"
            }
          ]
        }
      ],
      "anonymous": false
    },
    {
      "type": "event",
      "name": "CancelSellTokenRequest",
      "inputs": [
        {
          "name": "messageId",
          "type": "bytes32",
          "indexed": true,
          "internalType": "bytes32"
        },
        {
          "name": "destinationChainSelector",
          "type": "uint64",
          "indexed": true,
          "internalType": "uint64"
        },
        {
          "name": "receiver",
          "type": "address",
          "indexed": true,
          "internalType": "address"
        },
        {
          "name": "tokenId",
          "type": "uint256",
          "indexed": false,
          "internalType": "uint256"
        }
      ],
      "anonymous": false
    },
    {
      "type": "event",
      "name": "OwnershipTransferred",
      "inputs": [
        {
          "name": "previousOwner",
          "type": "address",
          "indexed": true,
          "internalType": "address"
        },
        {
          "name": "newOwner",
          "type": "address",
          "indexed": true,
          "internalType": "address"
        }
      ],
      "anonymous": false
    },
    {
      "type": "event",
      "name": "RemoteBridgeUpdated",
      "inputs": [
        {
          "name": "newRemoteBridge",
          "type": "address",
          "indexed": false,
          "internalType": "address"
        }
      ],
      "anonymous": false
    },
    {
      "type": "event",
      "name": "SentBatchBuyTokensRequest",
      "inputs": [
        {
          "name": "messageId",
          "type": "bytes32",
          "indexed": true,
          "internalType": "bytes32"
        },
        {
          "name": "destinationChainSelector",
          "type": "uint64",
          "indexed": true,
          "internalType": "uint64"
        },
        {
          "name": "receiver",
          "type": "address",
          "indexed": true,
          "internalType": "address"
        }
      ],
      "anonymous": false
    },
    {
      "type": "event",
      "name": "SentBatchSellTokensRequest",
      "inputs": [
        {
          "name": "sellRequests",
          "type": "tuple[]",
          "indexed": false,
          "internalType": "struct PermitTypes.Sell[]",
          "components": [
            {
              "name": "owner",
              "type": "address",
              "internalType": "address"
            },
            {
              "name": "tokenId",
              "type": "uint256",
              "internalType": "uint256"
            },
            {
              "name": "price",
              "type": "uint256",
              "internalType": "uint256"
            },
            {
              "name": "nonce",
              "type": "uint256",
              "internalType": "uint256"
            },
            {
              "name": "deadline",
              "type": "uint64",
              "internalType": "uint64"
            }
          ]
        }
      ],
      "anonymous": false
    },
    {
      "type": "event",
      "name": "SentBuyTokenRequest",
      "inputs": [
        {
          "name": "messageId",
          "type": "bytes32",
          "indexed": true,
          "internalType": "bytes32"
        },
        {
          "name": "destinationChainSelector",
          "type": "uint64",
          "indexed": true,
          "internalType": "uint64"
        },
        {
          "name": "receiver",
          "type": "address",
          "indexed": true,
          "internalType": "address"
        },
        {
          "name": "tokenId",
          "type": "uint256",
          "indexed": false,
          "internalType": "uint256"
        },
        {
          "name": "price",
          "type": "uint256",
          "indexed": false,
          "internalType": "uint256"
        }
      ],
      "anonymous": false
    },
    {
      "type": "event",
      "name": "SentMintTokenRequest",
      "inputs": [
        {
          "name": "messageId",
          "type": "bytes32",
          "indexed": true,
          "internalType": "bytes32"
        },
        {
          "name": "destinationChainSelector",
          "type": "uint64",
          "indexed": true,
          "internalType": "uint64"
        },
        {
          "name": "receiver",
          "type": "address",
          "indexed": true,
          "internalType": "address"
        },
        {
          "name": "amount",
          "type": "uint256",
          "indexed": false,
          "internalType": "uint256"
        }
      ],
      "anonymous": false
    },
    {
      "type": "event",
      "name": "SentSellTokenRequest",
      "inputs": [
        {
          "name": "messageId",
          "type": "bytes32",
          "indexed": true,
          "internalType": "bytes32"
        },
        {
          "name": "destinationChainSelector",
          "type": "uint64",
          "indexed": true,
          "internalType": "uint64"
        },
        {
          "name": "receiver",
          "type": "address",
          "indexed": true,
          "internalType": "address"
        },
        {
          "name": "tokenId",
          "type": "uint256",
          "indexed": false,
          "internalType": "uint256"
        },
        {
          "name": "price",
          "type": "uint256",
          "indexed": false,
          "internalType": "uint256"
        }
      ],
      "anonymous": false
    },
    {
      "type": "event",
      "name": "SentTransferTokenRequest",
      "inputs": [
        {
          "name": "messageId",
          "type": "bytes32",
          "indexed": true,
          "internalType": "bytes32"
        },
        {
          "name": "destinationChainSelector",
          "type": "uint64",
          "indexed": true,
          "internalType": "uint64"
        },
        {
          "name": "receiver",
          "type": "address",
          "indexed": true,
          "internalType": "address"
        },
        {
          "name": "tokenId",
          "type": "uint256",
          "indexed": false,
          "internalType": "uint256"
        }
      ],
      "anonymous": false
    },
    {
      "type": "event",
      "name": "TokenBoughtCrossChain",
      "inputs": [
        {
          "name": "buyer",
          "type": "address",
          "indexed": true,
          "internalType": "address"
        },
        {
          "name": "tokenId",
          "type": "uint256",
          "indexed": false,
          "internalType": "uint256"
        }
      ],
      "anonymous": false
    },
    {
      "type": "event",
      "name": "TokenListedCrossChain",
      "inputs": [
        {
          "name": "seller",
          "type": "address",
          "indexed": true,
          "internalType": "address"
        },
        {
          "name": "tokenId",
          "type": "uint256",
          "indexed": false,
          "internalType": "uint256"
        },
        {
          "name": "price",
          "type": "uint256",
          "indexed": false,
          "internalType": "uint256"
        }
      ],
      "anonymous": false
    },
    {
      "type": "event",
      "name": "TokenMintedCrossChain",
      "inputs": [
        {
          "name": "receiver",
          "type": "address",
          "indexed": true,
          "internalType": "address"
        },
        {
          "name": "params",
          "type": "tuple",
          "indexed": false,
          "internalType": "struct Genesis.SVGParams",
          "components": [
            {
              "name": "hairParams",
              "type": "tuple",
              "internalType": "struct Genesis.HairParams",
              "components": [
                {
                  "name": "hairStyle",
                  "type": "uint8",
                  "internalType": "uint8"
                },
                {
                  "name": "hairColor",
                  "type": "uint8",
                  "internalType": "uint8"
                }
              ]
            },
            {
              "name": "bodyParams",
              "type": "tuple",
              "internalType": "struct Genesis.BodyParams",
              "components": [
                {
                  "name": "bodyType",
                  "type": "uint8",
                  "internalType": "uint8"
                },
                {
                  "name": "skinColor",
                  "type": "uint8",
                  "internalType": "uint8"
                }
              ]
            },
            {
              "name": "clothingParams",
              "type": "tuple",
              "internalType": "struct Genesis.ClothingParams",
              "components": [
                {
                  "name": "clothes",
                  "type": "uint8",
                  "internalType": "uint8"
                },
                {
                  "name": "clothingColor",
                  "type": "uint8",
                  "internalType": "uint8"
                },
                {
                  "name": "clothesGraphic",
                  "type": "uint8",
                  "internalType": "uint8"
                }
              ]
            },
            {
              "name": "facialFeaturesParams",
              "type": "tuple",
              "internalType": "struct Genesis.FacialFeaturesParams",
              "components": [
                {
                  "name": "eyebrowShape",
                  "type": "uint8",
                  "internalType": "uint8"
                },
                {
                  "name": "eyeShape",
                  "type": "uint8",
                  "internalType": "uint8"
                },
                {
                  "name": "facialHairType",
                  "type": "uint8",
                  "internalType": "uint8"
                },
                {
                  "name": "mouthStyle",
                  "type": "uint8",
                  "internalType": "uint8"
                },
                {
                  "name": "lipColor",
                  "type": "uint8",
                  "internalType": "uint8"
                }
              ]
            },
            {
              "name": "accessoryParams",
              "type": "tuple",
              "internalType": "struct Genesis.AccessoryParams",
              "components": [
                {
                  "name": "accessoryId",
                  "type": "uint8",
                  "internalType": "uint8"
                },
                {
                  "name": "hatStyle",
                  "type": "uint8",
                  "internalType": "uint8"
                },
                {
                  "name": "hatColor",
                  "type": "uint8",
                  "internalType": "uint8"
                }
              ]
            },
            {
              "name": "otherParams",
              "type": "tuple",
              "internalType": "struct Genesis.OtherParams",
              "components": [
                {
                  "name": "faceMask",
                  "type": "bool",
                  "internalType": "bool"
                },
                {
                  "name": "faceMaskColor",
                  "type": "uint8",
                  "internalType": "uint8"
                },
                {
                  "name": "shapes",
                  "type": "bool",
                  "internalType": "bool"
                },
                {
                  "name": "shapeColor",
                  "type": "uint8",
                  "internalType": "uint8"
                },
                {
                  "name": "lashes",
                  "type": "bool",
                  "internalType": "bool"
                }
              ]
            }
          ]
        },
        {
          "name": "amount",
          "type": "uint256",
          "indexed": false,
          "internalType": "uint256"
        }
      ],
      "anonymous": false
    },
    {
      "type": "event",
      "name": "TokenMirroredOnDestinationChain",
      "inputs": [
        {
          "name": "receiver",
          "type": "address",
          "indexed": true,
          "internalType": "address"
        },
        {
          "name": "tokenId",
          "type": "uint256",
          "indexed": false,
          "internalType": "uint256"
        },
        {
          "name": "params",
          "type": "tuple",
          "indexed": false,
          "internalType": "struct Genesis.SVGParams",
          "components": [
            {
              "name": "hairParams",
              "type": "tuple",
              "internalType": "struct Genesis.HairParams",
              "components": [
                {
                  "name": "hairStyle",
                  "type": "uint8",
                  "internalType": "uint8"
                },
                {
                  "name": "hairColor",
                  "type": "uint8",
                  "internalType": "uint8"
                }
              ]
            },
            {
              "name": "bodyParams",
              "type": "tuple",
              "internalType": "struct Genesis.BodyParams",
              "components": [
                {
                  "name": "bodyType",
                  "type": "uint8",
                  "internalType": "uint8"
                },
                {
                  "name": "skinColor",
                  "type": "uint8",
                  "internalType": "uint8"
                }
              ]
            },
            {
              "name": "clothingParams",
              "type": "tuple",
              "internalType": "struct Genesis.ClothingParams",
              "components": [
                {
                  "name": "clothes",
                  "type": "uint8",
                  "internalType": "uint8"
                },
                {
                  "name": "clothingColor",
                  "type": "uint8",
                  "internalType": "uint8"
                },
                {
                  "name": "clothesGraphic",
                  "type": "uint8",
                  "internalType": "uint8"
                }
              ]
            },
            {
              "name": "facialFeaturesParams",
              "type": "tuple",
              "internalType": "struct Genesis.FacialFeaturesParams",
              "components": [
                {
                  "name": "eyebrowShape",
                  "type": "uint8",
                  "internalType": "uint8"
                },
                {
                  "name": "eyeShape",
                  "type": "uint8",
                  "internalType": "uint8"
                },
                {
                  "name": "facialHairType",
                  "type": "uint8",
                  "internalType": "uint8"
                },
                {
                  "name": "mouthStyle",
                  "type": "uint8",
                  "internalType": "uint8"
                },
                {
                  "name": "lipColor",
                  "type": "uint8",
                  "internalType": "uint8"
                }
              ]
            },
            {
              "name": "accessoryParams",
              "type": "tuple",
              "internalType": "struct Genesis.AccessoryParams",
              "components": [
                {
                  "name": "accessoryId",
                  "type": "uint8",
                  "internalType": "uint8"
                },
                {
                  "name": "hatStyle",
                  "type": "uint8",
                  "internalType": "uint8"
                },
                {
                  "name": "hatColor",
                  "type": "uint8",
                  "internalType": "uint8"
                }
              ]
            },
            {
              "name": "otherParams",
              "type": "tuple",
              "internalType": "struct Genesis.OtherParams",
              "components": [
                {
                  "name": "faceMask",
                  "type": "bool",
                  "internalType": "bool"
                },
                {
                  "name": "faceMaskColor",
                  "type": "uint8",
                  "internalType": "uint8"
                },
                {
                  "name": "shapes",
                  "type": "bool",
                  "internalType": "bool"
                },
                {
                  "name": "shapeColor",
                  "type": "uint8",
                  "internalType": "uint8"
                },
                {
                  "name": "lashes",
                  "type": "bool",
                  "internalType": "bool"
                }
              ]
            }
          ]
        },
        {
          "name": "originChainId",
          "type": "uint256",
          "indexed": false,
          "internalType": "uint256"
        }
      ],
      "anonymous": false
    },
    {
      "type": "event",
      "name": "TokenReturnedToSourceChain",
      "inputs": [
        {
          "name": "tokenId",
          "type": "uint256",
          "indexed": false,
          "internalType": "uint256"
        }
      ],
      "anonymous": false
    },
    {
      "type": "event",
      "name": "TokenSaleCancelled",
      "inputs": [
        {
          "name": "owner",
          "type": "address",
          "indexed": true,
          "internalType": "address"
        },
        {
          "name": "tokenId",
          "type": "uint256",
          "indexed": false,
          "internalType": "uint256"
        }
      ],
      "anonymous": false
    },
    {
      "type": "event",
      "name": "TokenTransferredCrossChain",
      "inputs": [
        {
          "name": "receiver",
          "type": "address",
          "indexed": true,
          "internalType": "address"
        },
        {
          "name": "tokenId",
          "type": "uint256",
          "indexed": false,
          "internalType": "uint256"
        }
      ],
      "anonymous": false
    },
    {
      "type": "error",
      "name": "IBeanHeadsBridge__InsufficientAllowance",
      "inputs": []
    },
    {
      "type": "error",
      "name": "IBeanHeadsBridge__InsufficientLinkBalance",
      "inputs": [
        {
          "name": "amount",
          "type": "uint256",
          "internalType": "uint256"
        }
      ]
    },
    {
      "type": "error",
      "name": "IBeanHeadsBridge__InsufficientPayment",
      "inputs": []
    },
    {
      "type": "error",
      "name": "IBeanHeadsBridge__InvalidAmount",
      "inputs": []
    },
    {
      "type": "error",
      "name": "IBeanHeadsBridge__InvalidLength",
      "inputs": []
    },
    {
      "type": "error",
      "name": "IBeanHeadsBridge__InvalidNonce",
      "inputs": []
    },
    {
      "type": "error",
      "name": "IBeanHeadsBridge__InvalidOraclePrice",
      "inputs": []
    },
    {
      "type": "error",
      "name": "IBeanHeadsBridge__InvalidPaymentToken",
      "inputs": [
        {
          "name": "received",
          "type": "address",
          "internalType": "address"
        },
        {
          "name": "expected",
          "type": "address",
          "internalType": "address"
        }
      ]
    },
    {
      "type": "error",
      "name": "IBeanHeadsBridge__InvalidRemoteAddress",
      "inputs": []
    },
    {
      "type": "error",
      "name": "IBeanHeadsBridge__InvalidToken",
      "inputs": []
    },
    {
      "type": "error",
      "name": "IBeanHeadsBridge__InvalidTokenReceived",
      "inputs": []
    },
    {
      "type": "error",
      "name": "IBeanHeadsBridge__MismatchedArrayLengths",
      "inputs": []
    },
    {
      "type": "error",
      "name": "IBeanHeadsBridge__PriceExceedsMax",
      "inputs": []
    },
    {
      "type": "error",
      "name": "IBeanHeadsBridge__TokenIsNotForSale",
      "inputs": []
    },
    {
      "type": "error",
      "name": "IBeanHeadsBridge__TokenNotAllowed",
      "inputs": [
        {
          "name": "token",
          "type": "address",
          "internalType": "address"
        }
      ]
    },
    {
      "type": "error",
      "name": "IBeanHeadsBridge__TokenNotDeposited",
      "inputs": [
        {
          "name": "tokenId",
          "type": "uint256",
          "internalType": "uint256"
        }
      ]
    },
    {
      "type": "error",
      "name": "IBeanHeadsBridge__UnauthorizedSender",
      "inputs": [
        {
          "name": "sender",
          "type": "address",
          "internalType": "address"
        }
      ]
    },
    {
      "type": "error",
      "name": "InvalidRouter",
      "inputs": [
        {
          "name": "router",
          "type": "address",
          "internalType": "address"
        }
      ]
    },
    {
      "type": "error",
      "name": "OwnableInvalidOwner",
      "inputs": [
        {
          "name": "owner",
          "type": "address",
          "internalType": "address"
        }
      ]
    },
    {
      "type": "error",
      "name": "OwnableUnauthorizedAccount",
      "inputs": [
        {
          "name": "account",
          "type": "address",
          "internalType": "address"
        }
      ]
    },
    {
      "type": "error",
      "name": "ReentrancyGuardReentrantCall",
      "inputs": []
    }
  ],
  "bytecode": {
    "object": "0x60e0346200024357601f62005a6b38819003918201601f19168301916001600160401b03831184841017620002475780849260a09460405283398101031262000243576200004d816200025b565b906200005c602082016200025b565b6200006a604083016200025b565b926200008760806200007f606086016200025b565b94016200025b565b9260018060a01b03918281169586156200022b57839160c052169283156200021357600380546001600160a01b031980821687179092556040519791958593929184167f8be0079c531659141344cd1fd0a4f28419497f9722a3daafe3b4186f6b6457e05f80a3600160045560805216835f5416175f551690600154161760015560a0526157fa908162000271823960805181818161163c015281816116a50152818161172b01528181611f5a015281816123830152818161298a015281816131e1015281816136cd01528181613b0c0152614f72015260a0518181816110fb015281816111ae0152818161137e0152818161149a015281816117a001528181611842015281816119bc01528181611a2c01528181611a7201528181611b0a01528181611bf601528181611c8601528181611d8201528181611e4d01528181611fa1015281816120320152818161214401528181612252015281816124130152818161263f01528181612d390152818161350101526152b5015260c0518181816109740152610e380152f35b604051631e4fbdf760e01b81525f6004820152602490fd5b6040516335fdcccd60e21b81525f6004820152602490fd5b5f80fd5b634e487b7160e01b5f52604160045260245ffd5b51906001600160a01b0382168203620002435756fe6080806040526004361015610012575f80fd5b5f905f3560e01c90816301ffc9a714613bbd5750806310488413146106535780631179680f146138b4578063150b7a021461382757806316ce814914613743578063232df00d146135255780632c406d44146134b757806338c723531461325557806357c9cafb14613205578063581bdd161461319757806362cd6c9014612cb3578063715018a614612c155780637725135b14612bc35780637a8042bd14612a3b5780637b0ef2091461255357806385572ffb14610db35780638da5cb5b14610d61578063a0da12a514610d23578063a700a39c14610653578063aa7ab1ab14610a15578063aaf5eb68146109d4578063ab895eb814610998578063b0f479a114610929578063b1a778ab146106c0578063b95ff20614610658578063ddf36e2314610653578063ef74cd7614610361578063f2fde38b1461027e5763f9eafa701461015d575f80fd5b3461027b5760207ffffffffffffffffffffffffffffffffffffffffffffffffffffffffffffffffc36011261027b576004356101976140eb565b8015610251576001546040517f23b872dd000000000000000000000000000000000000000000000000000000008152336004820152306024820152604481019290925260209082906064908290869073ffffffffffffffffffffffffffffffffffffffff165af180156102465761020c575080f35b6020813d60201161023e575b8161022560209383613eeb565b8101031261023a57610236906142d7565b5080f35b5080fd5b3d9150610218565b6040513d84823e3d90fd5b60046040517fd8287905000000000000000000000000000000000000000000000000000000008152fd5b80fd5b503461027b5760207ffffffffffffffffffffffffffffffffffffffffffffffffffffffffffffffffc36011261027b576102b6613d11565b6102be6140eb565b73ffffffffffffffffffffffffffffffffffffffff80911690811561033057600354827fffffffffffffffffffffffff0000000000000000000000000000000000000000821617600355167f8be0079c531659141344cd1fd0a4f28419497f9722a3daafe3b4186f6b6457e05f80a380f35b602483604051907f1e4fbdf70000000000000000000000000000000000000000000000000000000082526004820152fd5b503461027b57610120807ffffffffffffffffffffffffffffffffffffffffffffffffffffffffffffffffc36011261023a5761039b613cb4565b60a07fffffffffffffffffffffffffffffffffffffffffffffffffffffffffffffffdc36011261064f5767ffffffffffffffff60c43581811161064b576103e6903690600401613d9b565b936101043583811161064757610400903690600401613d9b565b91909373ffffffffffffffffffffffffffffffffffffffff9687895416895260ff604060209a60028c522054161561061d5760643594851561025157604051906024358a8116809103610619578b8301526044359788604084015260608881850152608435608085015260a43594868616809603610619576105816040988f958f93610508610575977f5761d3c5b5fbf459631cf1b4ff7e51d2013d8de7edc5ff126526262bf3478a089e6104cf610514958d956105f79f60a0880152610100988960c089015287019161413c565b9160e43560e08601527fffffffffffffffffffffffffffffffffffffffffffffffffffffffffffffffe09687868503019086015261413c565b03828101895288613eeb565b89519261052084613e97565b5f84528460808c5161053181613e5f565b828152828a820152828e8201525f8382015201525f5416968a51978789015286885261055c88613e7b565b8a519586916001898401528c80840152868301906146f2565b03908101855284613eeb565b8c600154169288519461059386613e97565b620927c086528951957f97a657c90000000000000000000000000000000000000000000000000000000082880152516024870152602486526105d486613eb3565b8951966105e088613e5f565b875286015287850152830152608082015287614f5a565b968794610602614050565b9084519788528a88015216951693a4604051908152f35b5f80fd5b60046040517f4836199a000000000000000000000000000000000000000000000000000000008152fd5b8680fd5b8480fd5b8280fd5b613c79565b503461027b5760207ffffffffffffffffffffffffffffffffffffffffffffffffffffffffffffffffc36011261027b5760ff604060209273ffffffffffffffffffffffffffffffffffffffff6106ac613d11565b168152600284522054166040519015158152f35b503461027b5760c07ffffffffffffffffffffffffffffffffffffffffffffffffffffffffffffffffc36011261027b576106f8613cb4565b60807fffffffffffffffffffffffffffffffffffffffffffffffffffffffffffffffdc36011261023a5767ffffffffffffffff9060a43582811161092557610744903690600401613d9b565b73ffffffffffffffffffffffffffffffffffffffff9081865416865260ff6040602097600289522054161561061d57604051906024358381168091036106195787830152604435938460408401526060926064358482015260843591888316809303610619577fd6040e24e094f8dd2461f146e1a24805ab644cde60f103bf02c04c8b5d07e1ed94826107ef610575938d9761090797608085015260a08085015260c084019161413c565b03906108217fffffffffffffffffffffffffffffffffffffffffffffffffffffffffffffffe092838101865285613eeb565b61088c6040519261083184613e97565b5f845282608060405161084381613e5f565b828152828b8201528260408201525f838201520152895f541695604051968988015288875261087187613e7b565b60405195869160038b840152604080840152858301906146f2565b8760015416916040519361089f85613e97565b620927c08552604051947f97a657c90000000000000000000000000000000000000000000000000000000089870152516024860152602485526108e185613eb3565b604051956108ee87613e5f565b8652878601526040850152830152608082015286614f5a565b958693610912614050565b60405196875216951693a4604051908152f35b8380fd5b503461027b57807ffffffffffffffffffffffffffffffffffffffffffffffffffffffffffffffffc36011261027b57602060405173ffffffffffffffffffffffffffffffffffffffff7f0000000000000000000000000000000000000000000000000000000000000000168152f35b503461027b57807ffffffffffffffffffffffffffffffffffffffffffffffffffffffffffffffffc36011261027b576020604051620927c08152f35b503461027b57807ffffffffffffffffffffffffffffffffffffffffffffffffffffffffffffffffc36011261027b576020604051670de0b6b3a76400008152f35b503461027b5760a07ffffffffffffffffffffffffffffffffffffffffffffffffffffffffffffffffc36011261027b57610a4d613cb4565b9060243567ffffffffffffffff9283821161064f573660238301121561064f5781600401359284841161027b5760248301926024369160a0870201011161027b5760443585811161023a57610aa6903690600401613ce0565b9160643587811161023a57610abf903690600401613ce0565b909260843598891161064f57610adb6002993690600401613ce0565b60ff604073ffffffffffffffffffffffffffffffffffffffff9687815416815260209d8e522054161561061d57868a14801590610d19575b8015610d0f575b610ce55760405160808c820152958693610b3860a086018d8d613fc4565b7fffffffffffffffffffffffffffffffffffffffffffffffffffffffffffffffe0998a878303016040880152610b6d9261417a565b606095898683030187870152610b82926140ae565b9087848303016080850152610b969261417a565b038481018452610ba69084613eeb565b60405191610bb383613e97565b5f835281604051610bc381613e5f565b818152818b8201528160408201528181015f905260800152805f541694604051958a870152898652610bf486613e7b565b60405180958b8201600790526040820160409052848201610c14916146f2565b039081018552610c249085613eeb565b600154169160405193610c3685613e97565b620927c08552604051948a86017f97a657c900000000000000000000000000000000000000000000000000000000905251602486015260248552610c7985613eb3565b60405195610c8687613e5f565b86528986015260408501528301526080820152610ca291614f5a565b9160405191829185835285830190610cb992613fc4565b037fa372371a2ece9b022744cfcc0877b9fd6002ceb224dbe1e13f5f2662ad560e2191a1604051908152f35b60046040517fed9f42b0000000000000000000000000000000000000000000000000000000008152fd5b50808a1415610b1a565b50838a1415610b13565b503461027b57807ffffffffffffffffffffffffffffffffffffffffffffffffffffffffffffffffc36011261027b5760206040516402540be4008152f35b503461027b57807ffffffffffffffffffffffffffffffffffffffffffffffffffffffffffffffffc36011261027b57602073ffffffffffffffffffffffffffffffffffffffff60035416604051908152f35b503461027b5760207ffffffffffffffffffffffffffffffffffffffffffffffffffffffffffffffffc36011261027b5760043567ffffffffffffffff811161023a5760a07ffffffffffffffffffffffffffffffffffffffffffffffffffffffffffffffffc823603011261023a5773ffffffffffffffffffffffffffffffffffffffff7f00000000000000000000000000000000000000000000000000000000000000001633036125235760405190610e6b82613e5f565b80600401358252610e7e60248201613ccb565b6020830152604481013567ffffffffffffffff811161092557610ea79060043691840101613f66565b6040830152606481013567ffffffffffffffff811161092557610ed09060043691840101613f66565b606083015260848101359067ffffffffffffffff8211610925573660238383010112156109255760048282010135610f0781613fac565b92610f156040519485613eeb565b81845260208401923660248460061b8484010101116106475780820160240193915b60248460061b828401010185106124e7578787876080820152604081015160208180518101031261064f57610f83602073ffffffffffffffffffffffffffffffffffffffff92016144b7565b1673ffffffffffffffffffffffffffffffffffffffff83541681036124b6575060608101518051810160408282031261092557602082015191600983101561064b5760408101519167ffffffffffffffff831161153e57610feb9260208092019201016144f9565b9181156122ea575b600182146120bc575b60028214611edb575b60038214611d26575b60048214611ba8575b60058214611986575b60068214611564575b506007811461124a575b60081461103e575080f35b80518101906040816020840193031261064f57602081015167ffffffffffffffff81116109255781019180603f840112156109255760208301519261108284613fac565b936110906040519586613eeb565b8085526040602086019160071b8301019183831161064757604001905b8282106112305750505060408201519167ffffffffffffffff831161064b576110d9920160200161485c565b8151815103610ce557829073ffffffffffffffffffffffffffffffffffffffff7f0000000000000000000000000000000000000000000000000000000000000000163b1561023a578161119491604051809381927f8742be810000000000000000000000000000000000000000000000000000000083526040600484015261116460448401896149de565b907ffffffffffffffffffffffffffffffffffffffffffffffffffffffffffffffffc848303016024850152614964565b03818373ffffffffffffffffffffffffffffffffffffffff7f0000000000000000000000000000000000000000000000000000000000000000165af180156102465761121c575b50506112167fe3ddbf949cb7a018a68cffca747f34ef37679c4bb300c4293efe5aa4018310ff916040519182916020835260208301906149de565b0390a180f35b61122590613e4b565b61023a5781836111db565b602060809161123f8685614735565b8152019101906110ad565b81518201906080838303126109255760208301519167ffffffffffffffff831161064b5760208101603f84860101121561064b576020838501015161128e81613fac565b9361129c6040519586613eeb565b818552602085019060208401604060a08502838a0101011161153a5790604082880101915b604060a08502828a01010183106115425750505050604084015167ffffffffffffffff811161153e576112fc9060208084019187010161485c565b90606085015167ffffffffffffffff811161064757611323906020808401918801016147c8565b90608086015167ffffffffffffffff811161153a5760208061134993019188010161485c565b918451815181149081159161152e575b8115611522575b50610ce557869273ffffffffffffffffffffffffffffffffffffffff7f0000000000000000000000000000000000000000000000000000000000000000163b156109255783916114806114209261145060405196879586957f8734aa12000000000000000000000000000000000000000000000000000000008752608060048801526113f08d60848901906148dc565b907ffffffffffffffffffffffffffffffffffffffffffffffffffffffffffffffffc888303016024890152614964565b907ffffffffffffffffffffffffffffffffffffffffffffffffffffffffffffffffc868303016044870152614829565b907ffffffffffffffffffffffffffffffffffffffffffffffffffffffffffffffffc848303016064850152614964565b03818373ffffffffffffffffffffffffffffffffffffffff7f0000000000000000000000000000000000000000000000000000000000000000165af180156102465761150e575b50507fe8b32231159ca2aeb6bd2ea21844874f9dbbf5304d06aabe82cad6cf3ca3b87b6115046008936040519182916020835260208301906148dc565b0390a19050611033565b61151790613e4b565b6109255783856114c7565b90508351141588611360565b83518114159150611359565b8780fd5b8580fd5b60a0806020604094611556828a01886146a3565b8152019401939250506112c1565b8251830160a08482031261064b5761157e602085016144b7565b90604085015167ffffffffffffffff8111610647576115a5906020808401918801016147c8565b90606086015167ffffffffffffffff811161153a576020806115cb9301918801016147c8565b6115d7608087016144b7565b5060a0860151908251905103610ce557602061161a608073ffffffffffffffffffffffffffffffffffffffff61160f8289015161453e565b51511696015161453e565b510151036102515761166273ffffffffffffffffffffffffffffffffffffffff7f00000000000000000000000000000000000000000000000000000000000000001684614cd4565b6040517fdd62ed3e00000000000000000000000000000000000000000000000000000000815230600482015273ffffffffffffffffffffffffffffffffffffffff7f0000000000000000000000000000000000000000000000000000000000000000166024820152602081604481875afa90811561197b575f91611949575b506118c55785906117896040517f095ea7b300000000000000000000000000000000000000000000000000000000602082015273ffffffffffffffffffffffffffffffffffffffff7f00000000000000000000000000000000000000000000000000000000000000001660248201527fffffffffffffffffffffffffffffffffffffffffffffffffffffffffffffffff60448201526044815261178381613ecf565b856155ba565b73ffffffffffffffffffffffffffffffffffffffff7f0000000000000000000000000000000000000000000000000000000000000000163b1561023a578161182291604051809381927f3dda355800000000000000000000000000000000000000000000000000000000835273ffffffffffffffffffffffffffffffffffffffff88166004840152606060248401526064830190614829565b87604483015203818373ffffffffffffffffffffffffffffffffffffffff7f0000000000000000000000000000000000000000000000000000000000000000165af18015610246576118b1575b505073ffffffffffffffffffffffffffffffffffffffff167f98d64dcf31d860b89de519aee807342854eca9a1a02df1042f850509fdd493ad8580a383611029565b6118ba90613e4b565b61064b57848661186f565b60846040517f08c379a000000000000000000000000000000000000000000000000000000000815260206004820152603660248201527f5361666545524332303a20617070726f76652066726f6d206e6f6e2d7a65726f60448201527f20746f206e6f6e2d7a65726f20616c6c6f77616e6365000000000000000000006064820152fd5b90506020813d602011611973575b8161196460209383613eeb565b810103126106195751876116e1565b3d9150611957565b6040513d5f823e3d90fd5b6040838051810103126109255761199f602084016144b7565b60408401519073ffffffffffffffffffffffffffffffffffffffff7f0000000000000000000000000000000000000000000000000000000000000000163b1561153e57856040517fdd2e0ac000000000000000000000000000000000000000000000000000000000815283600482015281816024818373ffffffffffffffffffffffffffffffffffffffff7f0000000000000000000000000000000000000000000000000000000000000000165af1801561024657611b94575b505073ffffffffffffffffffffffffffffffffffffffff7f0000000000000000000000000000000000000000000000000000000000000000163b1561153e576040517f42842e0e00000000000000000000000000000000000000000000000000000000815230600482015273ffffffffffffffffffffffffffffffffffffffff821660248201526044810183905286908181806064810103818373ffffffffffffffffffffffffffffffffffffffff7f0000000000000000000000000000000000000000000000000000000000000000165af1801561024657611b80575b5050602073ffffffffffffffffffffffffffffffffffffffff7fa0269577557e44b1e484388711aaee9dcfdebb716a88654f37c4c8388bc08739926040519485521692a2611020565b611b8990613e4b565b61153e578587611b37565b611b9d90613e4b565b61153e578587611a59565b825183016102e08482031261064b57611bc3602085016144b7565b611bd8602060408701519301606087016142e4565b6102e08601519073ffffffffffffffffffffffffffffffffffffffff7f0000000000000000000000000000000000000000000000000000000000000000163b1561153a57876040517fa462cd49000000000000000000000000000000000000000000000000000000008152818180611c6c87878b73ffffffffffffffffffffffffffffffffffffffff8c166004860161478b565b03818373ffffffffffffffffffffffffffffffffffffffff7f0000000000000000000000000000000000000000000000000000000000000000165af1801561024657611d12575b50507f7f3ef432bb1e77a701484dc68486dd0b262c06596baea7f6804d6894c388eaad926102c092611d0473ffffffffffffffffffffffffffffffffffffffff936040519788526020880190614578565b6102a08601521692a2611017565b611d1b90613e4b565b61153a578789611cb3565b8251830160a08482031261064b5784611d456020830160208701614735565b9160a086015167ffffffffffffffff811161064f57602080611d6b9301918801016144f9565b73ffffffffffffffffffffffffffffffffffffffff7f0000000000000000000000000000000000000000000000000000000000000000163b1561023a5781611e3391604051809381927f7dd98451000000000000000000000000000000000000000000000000000000008352611e22600484018967ffffffffffffffff6060809273ffffffffffffffffffffffffffffffffffffffff81511685526020810151602086015260408101516040860152015116910152565b60a0608484015260a48301906146f2565b03818373ffffffffffffffffffffffffffffffffffffffff7f0000000000000000000000000000000000000000000000000000000000000000165af1801561024657611ec7575b50507ffd29d40736f7e30e737c49f0da6edb357095e0117291cd63e251ef8b2a5cd57360208073ffffffffffffffffffffffffffffffffffffffff845116930151604051908152a261100e565b611ed090613e4b565b61064b578486611e7a565b60808380518101031261092557611ef4602084016144b7565b604084015190611f06606086016144b7565b50856020611f17608086015161453e565b510151611f8a73ffffffffffffffffffffffffffffffffffffffff611f3f608088015161453e565b5151169173ffffffffffffffffffffffffffffffffffffffff7f000000000000000000000000000000000000000000000000000000000000000016611f848185614cd4565b83614d31565b73ffffffffffffffffffffffffffffffffffffffff7f0000000000000000000000000000000000000000000000000000000000000000163b1561023a57604051907f692bf4a800000000000000000000000000000000000000000000000000000000825273ffffffffffffffffffffffffffffffffffffffff84166004830152846024830152604482015281816064818373ffffffffffffffffffffffffffffffffffffffff7f0000000000000000000000000000000000000000000000000000000000000000165af18015610246576120a8575b5050602073ffffffffffffffffffffffffffffffffffffffff7f4b425220000394679f443a7312a5351c5b75afe298ef4ffad4f7d6f6b33e295a926040519485521692a2611005565b6120b190613e4b565b61153e57858761205f565b8251830184846020830192610100918291031261023a576120e083602088016146a3565b9260c087015167ffffffffffffffff811161092557816020612104928a01016144f9565b60e088015191838901519067ffffffffffffffff821161153e57602061212c928b01016144f9565b9273ffffffffffffffffffffffffffffffffffffffff7f0000000000000000000000000000000000000000000000000000000000000000163b1561064b5761223885936122039560405196879586957f24e79fc20000000000000000000000000000000000000000000000000000000087526121f3600488018d67ffffffffffffffff6080809273ffffffffffffffffffffffffffffffffffffffff8151168552602081015160208601526040810151604086015260608101516060860152015116910152565b60a48701526101048601906146f2565b9160c48501527ffffffffffffffffffffffffffffffffffffffffffffffffffffffffffffffffc8483030160e48501526146f2565b03818373ffffffffffffffffffffffffffffffffffffffff7f0000000000000000000000000000000000000000000000000000000000000000165af18015610246576122d6575b50507f95b55f38d05a2c5664b9788437177cc4cd38ad59294ccd15d9527664355380ec604073ffffffffffffffffffffffffffffffffffffffff8351169281602082015191015182519182526020820152a2610ffc565b6122df90613e4b565b61064b57848661227f565b825183016102c08482031261064b5761231460206123098187016144b7565b9201604086016142e4565b73ffffffffffffffffffffffffffffffffffffffff6102c086015192169173ffffffffffffffffffffffffffffffffffffffff612354608086015161453e565b5151166123ad6020612369608088015161453e565b51015173ffffffffffffffffffffffffffffffffffffffff7f000000000000000000000000000000000000000000000000000000000000000016611f848185614cd4565b604051907f2c33b9d90000000000000000000000000000000000000000000000000000000082528460048301526123e76024830185614578565b826102a48301526102c48201526020816102e4818b73ffffffffffffffffffffffffffffffffffffffff7f0000000000000000000000000000000000000000000000000000000000000000165af180156124ab57612480575b507f1d2662fa144aac97b5af0577237e997d47a91ebcc35ddbbd495282ed122af39a916102a0916124746040518093614578565b610280820152a2610ff3565b602090813d83116124a4575b6124968183613eeb565b810103126106195787612440565b503d61248c565b6040513d8a823e3d90fd5b602490604051907f3319937b0000000000000000000000000000000000000000000000000000000082526004820152fd5b60408536031261153a5760406020602494825161250381613e7b565b61250c89613d7a565b815282890135838201528152019501949250610f37565b60246040517fd7f73334000000000000000000000000000000000000000000000000000000008152336004820152fd5b506103007ffffffffffffffffffffffffffffffffffffffffffffffffffffffffffffffffc36011261027b57612587613cb4565b61258f613d34565b9161028091827fffffffffffffffffffffffffffffffffffffffffffffffffffffffffffffffbc36011261023a576102c435906102e43573ffffffffffffffffffffffffffffffffffffffff9081811695868203610619578286541686526020976002895260ff96876040822054161561061d5761260b614073565b8615610251576040517fa7f93ebd0000000000000000000000000000000000000000000000000000000081528a81600481897f0000000000000000000000000000000000000000000000000000000000000000165afa918215612a2f579088926129fc575b506126849161267e91614477565b84615260565b9261268f848a614a5c565b61269b8430338c614bdf565b84604051921697888b84015260443581811680910361061957604084015260643593818516809503610619576060948585015260843582811680910361061957608085015260a4358281168091036106195760a085015260c4358281168091036106195760c085015260e4358281168091036106195760e0850152610104358281168091036106195761010085015261012435828116809103610619576101208501526101443582811680910361061957610140850152610164358281168091036106195761016085015261018435828116809103610619576101808501526101a435828116809103610619576101a08501526101c435828116809103610619576101c08501526101e435828116809103610619576101e0850152610204358281168091036106195761020085015261022435801515809103610619576102208501526102443582811680910361061957610240850152610264358015158091036106195761026085015261028435918216809203610619578301526102a435801515809103610619576102a08301526102c0878184015282526102e082019367ffffffffffffffff998386108b8711176129cf577fd0b8c5ed1d955fe287fda914e47fa0bc1188c054366fdc1cb9c665c10c9d9cf9965f6129b69661288a8f996129b0978791604052614c49565b9080608060405161289a81613e5f565b828152828d820152826040820152858382015201526129138a6128e7868654169a6040519b838d0152828c526128cf8c613e7b565b604051968793840152604080840152848301906146f2565b037fffffffffffffffffffffffffffffffffffffffffffffffffffffffffffffffe08101855284613eeb565b8360015416916040519361292685613e97565b6207a1208552604051947f97a657c9000000000000000000000000000000000000000000000000000000008d8701525160248601526024855261296885613eb3565b604051996129758b613e5f565b8a528b8a0152604089015287015260808601527f00000000000000000000000000000000000000000000000000000000000000001690614d31565b84614f5a565b9586936040519586521693a46001600455604051908152f35b7f4e487b71000000000000000000000000000000000000000000000000000000005f52604160045260245ffd5b8092508b8092503d8311612a28575b612a158183613eeb565b8101031261061957518690612684612670565b503d612a0b565b604051903d90823e3d90fd5b503461027b576020807ffffffffffffffffffffffffffffffffffffffffffffffffffffffffffffffffc36011261023a5760043590612a786140eb565b81156102515773ffffffffffffffffffffffffffffffffffffffff60015416916040517f70a082310000000000000000000000000000000000000000000000000000000081523060048201528281602481875afa908115612bb8578591612b8b575b50808211612b5a57506040517fa9059cbb00000000000000000000000000000000000000000000000000000000928101929092523360248301526044820152612b5791612b5282606481015b037fffffffffffffffffffffffffffffffffffffffffffffffffffffffffffffffe08101845283613eeb565b6155ba565b80f35b602490604051907f1116d9ef0000000000000000000000000000000000000000000000000000000082526004820152fd5b90508281813d8311612bb1575b612ba28183613eeb565b8101031261061957515f612ada565b503d612b98565b6040513d87823e3d90fd5b503461027b57807ffffffffffffffffffffffffffffffffffffffffffffffffffffffffffffffffc36011261027b57602073ffffffffffffffffffffffffffffffffffffffff60015416604051908152f35b503461027b57807ffffffffffffffffffffffffffffffffffffffffffffffffffffffffffffffffc36011261027b57612c4c6140eb565b5f73ffffffffffffffffffffffffffffffffffffffff6003547fffffffffffffffffffffffff00000000000000000000000000000000000000008116600355167f8be0079c531659141344cd1fd0a4f28419497f9722a3daafe3b4186f6b6457e08280a380f35b5034610619576060807ffffffffffffffffffffffffffffffffffffffffffffffffffffffffffffffffc36011261061957612cec613cb4565b91602492833590612cfb613d57565b9273ffffffffffffffffffffffffffffffffffffffff90815f54165f526020956002875260ff60405f2054161561061d5782861695861561061d57837f000000000000000000000000000000000000000000000000000000000000000016604051937f7e4d03d80000000000000000000000000000000000000000000000000000000085528760048601526102809485818d81865afa95861561197b575f9661315d575b5050813b15610619576040517f42842e0e000000000000000000000000000000000000000000000000000000008152336004820152306024820152604481018990525f8160648183875af1801561197b5761314c575b50604051917f5b16d9680000000000000000000000000000000000000000000000000000000083528860048401528a838d81845afa92831561024657829361311d575b5046830361307b57803b1561023a578180918d8b60405194859384927f80f2036300000000000000000000000000000000000000000000000000000000845260048401525af1801561024657908b9291613063575b5050612ea7612ed3926004968a604051968795860161478b565b037fffffffffffffffffffffffffffffffffffffffffffffffffffffffffffffffe08101835282613eeb565b925b60405190612ee282613e97565b5f8252826080604051612ef481613e5f565b828152828c8201528260408201525f838201520152805f541694604051958a870152898652612f2286613e7b565b60405194600981101561303757937f95519b111edaffd68641c56e5ffce32883ef4bfbb37da2156501c7eff4b309f996938b9c93612fac88612f8067ffffffffffffffff9f9a966130239a8c840152604080840152868301906146f2565b037fffffffffffffffffffffffffffffffffffffffffffffffffffffffffffffffe08101865285613eeb565b600154169260405194612fbe86613e97565b6207a1208652604051957f97a657c9000000000000000000000000000000000000000000000000000000008a88015251818701528552612ffd85613eb3565b6040519561300a87613e5f565b8652878601526040850152830152608082015284614f5a565b9586936040519586521693a4604051908152f35b8b7f4e487b71000000000000000000000000000000000000000000000000000000005f5260216004525ffd5b81925061306f90613e4b565b61027b57808a91612e8d565b9150919350803b1561023a578180918b604051809481937f7b47ec1a0000000000000000000000000000000000000000000000000000000083528c60048401525af1801561024657613109575b50506040805173ffffffffffffffffffffffffffffffffffffffff909316888401908152602081018790526005939161310391839101612ea7565b92612ed5565b6131138291613e4b565b61027b57806130c8565b9092508a81813d8311613145575b6131358183613eeb565b810103126106195751915f612e38565b503d61312b565b6131569150613e4b565b5f80612df5565b80919296503d8211613190575b6131748184613eeb565b8201908282031261061957613188916142e4565b935f80612d9f565b503d61316a565b34610619575f7ffffffffffffffffffffffffffffffffffffffffffffffffffffffffffffffffc36011261061957602060405173ffffffffffffffffffffffffffffffffffffffff7f0000000000000000000000000000000000000000000000000000000000000000168152f35b34610619575f7ffffffffffffffffffffffffffffffffffffffffffffffffffffffffffffffffc36011261061957602073ffffffffffffffffffffffffffffffffffffffff5f5416604051908152f35b34610619576060807ffffffffffffffffffffffffffffffffffffffffffffffffffffffffffffffffc3601126106195761328d613cb4565b9067ffffffffffffffff90602435828111610619573660238201121561061957806004013592808411610619576024820191602436918660071b01011161061957604435908111610619576132e6903690600401613ce0565b73ffffffffffffffffffffffffffffffffffffffff95919591825f541691825f526020976002895260ff60405f2054161561061d57818803610ce5577fc40f92ba5e837dc6a178798dc7c78f3936420be612221197dbaf149ed3a59f79966134969561341d6040936133ad8d6133a16008988f8e61336f918b519b8c968701528a860191613dc9565b907fffffffffffffffffffffffffffffffffffffffffffffffffffffffffffffffe0958685840301604086015261417a565b03828101875286613eeb565b8c613411604051966133be88613e97565b5f88528660806040516133d081613e5f565b82815282868201528260408201525f8382015201526040519a838c0152828b526133f98b613e7b565b604051988993840152604080840152868301906146f2565b03908101865285613eeb565b60015416916040519361342f85613e97565b620927c08552604051947f97a657c9000000000000000000000000000000000000000000000000000000008d8701525160248601526024855261347185613eb3565b6040519661347e88613e5f565b87528b87015260408601528401526080830152614f5a565b926134ac60405192839287845287840191613dc9565b0390a1604051908152f35b34610619575f7ffffffffffffffffffffffffffffffffffffffffffffffffffffffffffffffffc36011261061957602060405173ffffffffffffffffffffffffffffffffffffffff7f0000000000000000000000000000000000000000000000000000000000000000168152f35b346106195760807ffffffffffffffffffffffffffffffffffffffffffffffffffffffffffffffffc3601126106195761355c613cb4565b602435613567613d57565b916064359173ffffffffffffffffffffffffffffffffffffffff805f54165f526020946002865260ff60405f2054161561061d576136f3856136f9936135ab614073565b808416906135b98383614a5c565b6135c583303385614bdf565b896128e76040519633838901528960408901526135fc8660609281848c01528760808c015260808b526135f78b613e5f565b614c49565b81608060405161360b81613e5f565b82815282878201528260408201525f838201520152613657855f5416996040519a868c0152858b5261363c8b613e7b565b604051948591600288840152604080840152858301906146f2565b8460015416926040519461366a86613e97565b6207a1208652604051957f97a657c90000000000000000000000000000000000000000000000000000000082880152516024870152602486526136ac86613eb3565b6040519a6136b98c613e5f565b8b528a0152604089015287015260808601527f00000000000000000000000000000000000000000000000000000000000000001690614d31565b83614f5a565b9260405191825284820152827f80e9f53f7f7f7b19c2b2adb19df0805d08493490b6d67b4ff8d2d9920fdbf1d3604067ffffffffffffffff33951693a46001600455604051908152f35b346106195760207ffffffffffffffffffffffffffffffffffffffffffffffffffffffffffffffffc3601126106195773ffffffffffffffffffffffffffffffffffffffff61378f613d11565b6137976140eb565b16801561061d576020817fa54ce142349af8e389fe00f37d69e79664a287b29c8e325917962e92e4fe5fcd927fffffffffffffffffffffffff00000000000000000000000000000000000000005f5416175f55805f526002825260405f2060017fffffffffffffffffffffffffffffffffffffffffffffffffffffffffffffff00825416179055604051908152a1005b346106195760807ffffffffffffffffffffffffffffffffffffffffffffffffffffffffffffffffc3601126106195761385e613d11565b50613867613d34565b5060643567ffffffffffffffff811161061957613888903690600401613d9b565b505060206040517f150b7a02000000000000000000000000000000000000000000000000000000008152f35b346106195760807ffffffffffffffffffffffffffffffffffffffffffffffffffffffffffffffffc360112610619576138eb613cb4565b60249067ffffffffffffffff9082358281116106195761390f903690600401613ce0565b939060443584811161061957613929903690600401613ce0565b6064939193359273ffffffffffffffffffffffffffffffffffffffff918285169485810361061957835f54165f5260209960028b5260ff60405f2054161561061d57613973614073565b828103610ce5578015610251575f955f905b848210613b75575050859061399a8289614a5c565b6139a68230338b614bdf565b6040519485918d33908401526040830160a0905260c08301906139c8926140ae565b987fffffffffffffffffffffffffffffffffffffffffffffffffffffffffffffffe0996060958b8483030187850152613a00926140ae565b8860808301528260a0830152038881018552613a1c9085613eeb565b613a2591614c49565b9080604051613a3381613e5f565b818152818c8201528160408201528181015f905260800152835f541696604051978b8901528a8852613a6488613e7b565b60405180948c8201600690526040820160409052838201613a84916146f2565b039081018452613a949084613eeb565b83600154169160405193613aa785613e97565b6207a1208552604051948c86017f97a657c900000000000000000000000000000000000000000000000000000000905251602486015260248552613aea85613eb3565b60405198613af78a613e5f565b89528b890152604088015286015260808501527f000000000000000000000000000000000000000000000000000000000000000016613b3592614d31565b613b3f9082614f5a565b9060405192339116827fc3cfbc41fdf2854a8b8598251acff98cb7e98fba5428a216647848b5f8d1c0af5f80a460016004558152f35b90968760051b8a01358101809111613b91579660010190613985565b507f4e487b71000000000000000000000000000000000000000000000000000000005f5260116004525ffd5b346106195760207ffffffffffffffffffffffffffffffffffffffffffffffffffffffffffffffffc36011261061957600435907fffffffff00000000000000000000000000000000000000000000000000000000821680920361061957817f85572ffb0000000000000000000000000000000000000000000000000000000060209314908115613c4f575b5015158152f35b7f01ffc9a70000000000000000000000000000000000000000000000000000000091501483613c48565b34610619575f7ffffffffffffffffffffffffffffffffffffffffffffffffffffffffffffffffc3601126106195760206040516207a1208152f35b6004359067ffffffffffffffff8216820361061957565b359067ffffffffffffffff8216820361061957565b9181601f840112156106195782359167ffffffffffffffff8311610619576020808501948460051b01011161061957565b6004359073ffffffffffffffffffffffffffffffffffffffff8216820361061957565b6024359073ffffffffffffffffffffffffffffffffffffffff8216820361061957565b6044359073ffffffffffffffffffffffffffffffffffffffff8216820361061957565b359073ffffffffffffffffffffffffffffffffffffffff8216820361061957565b9181601f840112156106195782359167ffffffffffffffff8311610619576020838186019501011161061957565b9190808252602080920192915f905b828210613de6575050505090565b9091929360019073ffffffffffffffffffffffffffffffffffffffff613e0b87613d7a565b168152828601358382015260408087013590820152606067ffffffffffffffff613e36828901613ccb565b16908201526080908101950193920190613dd8565b67ffffffffffffffff81116129cf57604052565b60a0810190811067ffffffffffffffff8211176129cf57604052565b6040810190811067ffffffffffffffff8211176129cf57604052565b6020810190811067ffffffffffffffff8211176129cf57604052565b6060810190811067ffffffffffffffff8211176129cf57604052565b6080810190811067ffffffffffffffff8211176129cf57604052565b90601f7fffffffffffffffffffffffffffffffffffffffffffffffffffffffffffffffe0910116810190811067ffffffffffffffff8211176129cf57604052565b67ffffffffffffffff81116129cf57601f017fffffffffffffffffffffffffffffffffffffffffffffffffffffffffffffffe01660200190565b81601f8201121561061957803590613f7d82613f2c565b92613f8b6040519485613eeb565b8284526020838301011161061957815f926020809301838601378301015290565b67ffffffffffffffff81116129cf5760051b60200190565b9190808252602080920192915f905b828210613fe1575050505090565b9091929360019073ffffffffffffffffffffffffffffffffffffffff61400687613d7a565b16815282860135838201526040808701359082015260608087013590820152608067ffffffffffffffff61403b828901613ccb565b169082015260a0908101950193920190613fd3565b60243573ffffffffffffffffffffffffffffffffffffffff811681036106195790565b600260045414614084576002600455565b60046040517f3ee5aeb5000000000000000000000000000000000000000000000000000000008152fd5b90918281527f07ffffffffffffffffffffffffffffffffffffffffffffffffffffffffffffff83116106195760209260051b809284830137010190565b73ffffffffffffffffffffffffffffffffffffffff60035416330361410c57565b60246040517f118cdaa7000000000000000000000000000000000000000000000000000000008152336004820152fd5b601f82602094937fffffffffffffffffffffffffffffffffffffffffffffffffffffffffffffffe093818652868601375f8582860101520116010190565b908281815260208091019360208360051b82010194845f925b8584106141a4575050505050505090565b909192939495967fffffffffffffffffffffffffffffffffffffffffffffffffffffffffffffffe082820301845287357fffffffffffffffffffffffffffffffffffffffffffffffffffffffffffffffe18436030181121561061957830186810191903567ffffffffffffffff81116106195780360383136106195761422f8892839260019561413c565b990194019401929594939190614193565b519060ff8216820361061957565b91908260409103126106195760405161426681613e7b565b602061427f81839561427781614240565b855201614240565b910152565b9190826060910312610619576040516060810181811067ffffffffffffffff8211176129cf57604052604061427f8183956142be81614240565b85526142cc60208201614240565b602086015201614240565b5190811515820361061957565b9190918083039061028082126106195760409182519060c0820182811067ffffffffffffffff8211176129cf578452819561431f818561424e565b835261432d8186860161424e565b602084015261433f8160808601614284565b8584015260a07fffffffffffffffffffffffffffffffffffffffffffffffffffffffffffffff208301126106195760a0916144047ffffffffffffffffffffffffffffffffffffffffffffffffffffffffffffffe209287516143a081613e5f565b6143ac60e08901614240565b81526143bb6101008901614240565b60208201526143cd6101208901614240565b898201526143de6101408901614240565b60608201526143f06101608901614240565b608082015260608701526101808701614284565b608085015201126106195761446e61026060a09385519561442487613e5f565b6144316101e083016142d7565b87526144406102008301614240565b602088015261445261022083016142d7565b908701526144636102408201614240565b6060870152016142d7565b60808401520152565b8181029291811591840414171561448a57565b7f4e487b71000000000000000000000000000000000000000000000000000000005f52601160045260245ffd5b519073ffffffffffffffffffffffffffffffffffffffff8216820361061957565b5f5b8381106144e95750505f910152565b81810151838201526020016144da565b81601f8201121561061957805161450f81613f2c565b9261451d6040519485613eeb565b818452602082840101116106195761453b91602080850191016144d8565b90565b80511561454b5760200190565b7f4e487b71000000000000000000000000000000000000000000000000000000005f52603260045260245ffd5b60808060a06102609361459b86825160ff60208092828151168552015116910152565b602081810151805160ff90811660408a01529101511660608701526145e260408201518488019060ff60408092828151168552826020820151166020860152015116910152565b606081015160ff9381858093511660e08a0152826020820151166101008a0152826040820151166101208a0152826060820151166101408a01520151166101608701526146528482015161018088019060ff60408092828151168552826020820151166020860152015116910152565b015190815115156101e0860152806020830151166102008601526040820151151561022086015260608201511661024085015201511515910152565b519067ffffffffffffffff8216820361061957565b91908260a0910312610619576040516146bb81613e5f565b608061427f8183956146cc816144b7565b85526020810151602086015260408101516040860152606081015160608601520161468e565b907fffffffffffffffffffffffffffffffffffffffffffffffffffffffffffffffe0601f60209361472e815180928187528780880191016144d8565b0116010190565b9190826080910312610619576040516080810181811067ffffffffffffffff8211176129cf57604052606061427f81839561476f816144b7565b855260208101516020860152604081015160408601520161468e565b909493926147c4906102c09373ffffffffffffffffffffffffffffffffffffffff6102e085019816845260208401526040830190614578565b0152565b9080601f83011215610619578151906020916147e381613fac565b936147f16040519586613eeb565b81855260208086019260051b82010192831161061957602001905b82821061481a575050505090565b8151815290830190830161480c565b9081518082526020808093019301915f5b828110614848575050505090565b83518552938101939281019260010161483a565b81601f820112156106195780519160209161487684613fac565b936148846040519586613eeb565b808552838086019160051b8301019280841161061957848301915b8483106148af5750505050505090565b825167ffffffffffffffff81116106195786916148d1848480948901016144f9565b81520192019161489f565b9081518082526020808093019301915f5b8281106148fb575050505090565b909192938260a082614958600194895167ffffffffffffffff6080809273ffffffffffffffffffffffffffffffffffffffff8151168552602081015160208601526040810151604086015260608101516060860152015116910152565b019501939291016148ed565b90808251908181526020809101926020808460051b8301019501935f915b8483106149925750505050505090565b90919293949584806149ce837fffffffffffffffffffffffffffffffffffffffffffffffffffffffffffffffe086600196030187528a516146f2565b9801930193019194939290614982565b9081518082526020808093019301915f5b8281106149fd575050505090565b9091929382608082614a50600194895167ffffffffffffffff6060809273ffffffffffffffffffffffffffffffffffffffff81511685526020810151602086015260408101516040860152015116910152565b019501939291016149ef565b604080517fdd62ed3e00000000000000000000000000000000000000000000000000000000815233600482015230602482015290929160209173ffffffffffffffffffffffffffffffffffffffff909116908281604481855afa908115614bd5579084915f91614ba4575b5010614b7b57816024918551928380927f70a082310000000000000000000000000000000000000000000000000000000082523360048301525afa918215614b71575f92614b43575b505010614b1a5750565b600490517f68724d74000000000000000000000000000000000000000000000000000000008152fd5b90809250813d8311614b6a575b614b5a8183613eeb565b8101031261061957515f80614b10565b503d614b50565b84513d5f823e3d90fd5b600484517f2c283f55000000000000000000000000000000000000000000000000000000008152fd5b809250848092503d8311614bce575b614bbd8183613eeb565b81010312610619578390515f614ac7565b503d614bb3565b85513d5f823e3d90fd5b6040517f23b872dd00000000000000000000000000000000000000000000000000000000602082015273ffffffffffffffffffffffffffffffffffffffff92831660248201529290911660448301526064820192909252614c4791612b528260848101612b26565b565b919060409260405191614c5b83613e7b565b600183525f5b602080821015614c8d57865160209291614c7a82613e7b565b5f82525f81830152828701015201614c61565b5050935090614cd191819473ffffffffffffffffffffffffffffffffffffffff60405192614cba84613e7b565b1682526020820152614ccb8261453e565b5261453e565b50565b90614c479173ffffffffffffffffffffffffffffffffffffffff604051927f095ea7b30000000000000000000000000000000000000000000000000000000060208501521660248301525f604483015260448252612b5282613ecf565b91909181158015614da2575b156118c5576040517f095ea7b300000000000000000000000000000000000000000000000000000000602082015273ffffffffffffffffffffffffffffffffffffffff90931660248401526044830191909152614c479190612b528260648101612b26565b506040517fdd62ed3e00000000000000000000000000000000000000000000000000000000815230600482015273ffffffffffffffffffffffffffffffffffffffff841660248201526020818060448101038173ffffffffffffffffffffffffffffffffffffffff86165afa90811561197b575f91614e23575b5015614d3d565b90506020813d602011614e4d575b81614e3e60209383613eeb565b8101031261061957515f614e1c565b3d9150614e31565b9092919267ffffffffffffffff604091168252602091604083820152614e87855160a0604084015260e08301906146f2565b91614ec184870151937fffffffffffffffffffffffffffffffffffffffffffffffffffffffffffffffc094858583030160608601526146f2565b604087015194848483030160808501528080875193848152019601925f905b838210614f2457505050505060c060808673ffffffffffffffffffffffffffffffffffffffff606061453b989901511660a0850152015192828503019101526146f2565b8451805173ffffffffffffffffffffffffffffffffffffffff168952830151888401529687019693820193600190910190614ee0565b73ffffffffffffffffffffffffffffffffffffffff807f0000000000000000000000000000000000000000000000000000000000000000169260409384517f20487ded000000000000000000000000000000000000000000000000000000008152602093848280614fcf878a60048401614e55565b0381865afa9182156151f7575f926151c8575b50600154169086517f70a082310000000000000000000000000000000000000000000000000000000081523060048201528581602481865afa9081156151be575f91615191575b5081116151615786517f095ea7b300000000000000000000000000000000000000000000000000000000815273ffffffffffffffffffffffffffffffffffffffff841660048201526024810191909152908490829060449082905f905af1801561515757615119575b509082916150cf945f87518097819582947f96f4e9f900000000000000000000000000000000000000000000000000000000845260048401614e55565b03925af192831561511057505f926150e657505090565b90809250813d8311615109575b6150fd8183613eeb565b81010312610619575190565b503d6150f3565b513d5f823e3d90fd5b91908383813d8311615150575b6151308183613eeb565b81010312610619576150cf9461514685946142d7565b5094509091615092565b503d615126565b86513d5f823e3d90fd5b6024908751907f1116d9ef0000000000000000000000000000000000000000000000000000000082526004820152fd5b90508581813d83116151b7575b6151a88183613eeb565b8101031261061957515f615029565b503d61519e565b88513d5f823e3d90fd5b9091508481813d83116151f0575b6151e08183613eeb565b810103126106195751905f614fe2565b503d6151d6565b87513d5f823e3d90fd5b519069ffffffffffffffffffff8216820361061957565b8115615222570490565b7f4e487b71000000000000000000000000000000000000000000000000000000005f52601260045260245ffd5b60ff16604d811161448a57600a0a90565b73ffffffffffffffffffffffffffffffffffffffff916040928351907f5b6cca8000000000000000000000000000000000000000000000000000000000825280600494169081858401526020928381602481857f0000000000000000000000000000000000000000000000000000000000000000165afa9081156151f7575f91615585575b5016801561555d579060a0859493928751958680927ffeaf968c0000000000000000000000000000000000000000000000000000000082525afa938415615157575f9461550f575b505f8413156154e7576402540be400938481029481860414901517156154bb57908085928751938480927f313ce5670000000000000000000000000000000000000000000000000000000082525afa95861561511057505f95615483575b5050670de0b6b3a7640000908181029181830414901517156154575760ff916153b391615218565b9216601281101561540a576012039060ff82116153de5750906153d861453b9261524f565b90615218565b6011907f4e487b71000000000000000000000000000000000000000000000000000000005f525260245ffd5b6012811115615452577fffffffffffffffffffffffffffffffffffffffffffffffffffffffffffffffee019060ff82116153de57509061544c61453b9261524f565b90614477565b505090565b6011837f4e487b71000000000000000000000000000000000000000000000000000000005f525260245ffd5b9080929550813d83116154b4575b61549b8183613eeb565b81010312610619576154ac90614240565b925f8061538b565b503d615491565b6011857f4e487b71000000000000000000000000000000000000000000000000000000005f525260245ffd5b8486517fa3019c86000000000000000000000000000000000000000000000000000000008152fd5b90935060a0813d60a011615555575b8161552b60a09383613eeb565b810103126106195761553c81615201565b5061554d6080838301519201615201565b50925f61532d565b3d915061551e565b8486517f6c8b8de7000000000000000000000000000000000000000000000000000000008152fd5b90508381813d83116155b3575b61559c8183613eeb565b81010312610619576155ad906144b7565b5f6152e5565b503d615592565b6040516156429173ffffffffffffffffffffffffffffffffffffffff166155e082613e7b565b5f806020958685527f5361666545524332303a206c6f772d6c6576656c2063616c6c206661696c656487860152868151910182855af13d156156f0573d9161562783613f2c565b926156356040519485613eeb565b83523d5f8785013e6156f4565b80518061564e57505050565b81839181010312610619578161566491016142d7565b1561566c5750565b608490604051907f08c379a00000000000000000000000000000000000000000000000000000000082526004820152602a60248201527f5361666545524332303a204552433230206f7065726174696f6e20646964206e60448201527f6f742073756363656564000000000000000000000000000000000000000000006064820152fd5b6060915b9192901561576f5750815115615708575090565b3b156157115790565b60646040517f08c379a000000000000000000000000000000000000000000000000000000000815260206004820152601d60248201527f416464726573733a2063616c6c20746f206e6f6e2d636f6e74726163740000006044820152fd5b8251909150156157825750805190602001fd5b6157c0906040519182917f08c379a00000000000000000000000000000000000000000000000000000000083526020600484015260248301906146f2565b0390fdfea26469706673582212204d30a8e3be00f44e9eb86598383d290166d0ee51b9bd4c0afc504fc416d4714064736f6c63430008180033",
    "linkReferences": {}
  },
  "methodIdentifiers": {
    "ADDITIONAL_FEED_PRECISION()": "a0da12a5",
    "GAS_LIMIT_BUY()": "10488413",
    "GAS_LIMIT_MINT()": "a700a39c",
    "GAS_LIMIT_SELL()": "ab895eb8",
    "GAS_LIMIT_TRANSFER()": "ddf36e23",
    "PRECISION()": "aaf5eb68",
    "ccipReceive((bytes32,uint64,bytes,bytes,(address,uint256)[]))": "85572ffb",
    "depositLink(uint256)": "f9eafa70",
    "getRouter()": "b0f479a1",
    "i_beanHeadsContract()": "2c406d44",
    "i_router()": "581bdd16",
    "onERC721Received(address,address,uint256,bytes)": "150b7a02",
    "owner()": "8da5cb5b",
    "remoteBridgeAddresses(address)": "b95ff206",
    "renounceOwnership()": "715018a6",
    "s_linkToken()": "7725135b",
    "s_remoteBridge()": "57c9cafb",
    "sendBatchBuyTokenRequest(uint64,uint256[],uint256[],address)": "1179680f",
    "sendBatchCancelTokenSaleRequest(uint64,(address,uint256,uint256,uint64)[],bytes[])": "38c72353",
    "sendBatchSellTokenRequest(uint64,(address,uint256,uint256,uint256,uint64)[],bytes[],uint256[],bytes[])": "aa7ab1ab",
    "sendBuyTokenRequest(uint64,uint256,address,uint256)": "232df00d",
    "sendCancelTokenSaleRequest(uint64,(address,uint256,uint256,uint64),bytes)": "b1a778ab",
    "sendMintTokenRequest(uint64,address,((uint8,uint8),(uint8,uint8),(uint8,uint8,uint8),(uint8,uint8,uint8,uint8,uint8),(uint8,uint8,uint8),(bool,uint8,bool,uint8,bool)),uint256,address)": "7b0ef209",
    "sendSellTokenRequest(uint64,(address,uint256,uint256,uint256,uint64),bytes,uint256,bytes)": "ef74cd76",
    "sendTransferTokenRequest(uint64,uint256,address)": "62cd6c90",
    "setRemoteBridge(address)": "16ce8149",
    "supportsInterface(bytes4)": "01ffc9a7",
    "transferOwnership(address)": "f2fde38b",
    "withdrawLink(uint256)": "7a8042bd"
  },
  "id": 120
}