{
  "abi": [
    {
      "type": "constructor",
      "inputs": [
        {
          "name": "router",
          "type": "address",
          "internalType": "address"
        },
        {
          "name": "initialOwner",
          "type": "address",
          "internalType": "address"
        },
        {
          "name": "linkToken",
          "type": "address",
          "internalType": "address"
        },
        {
          "name": "usdcToken",
          "type": "address",
          "internalType": "address"
        },
        {
          "name": "beanHeads",
          "type": "address",
          "internalType": "address"
        }
      ],
      "stateMutability": "nonpayable"
    },
    {
      "type": "function",
      "name": "ADDITIONAL_FEED_PRECISION",
      "inputs": [],
      "outputs": [
        {
          "name": "",
          "type": "uint256",
          "internalType": "uint256"
        }
      ],
      "stateMutability": "view"
    },
    {
      "type": "function",
      "name": "GAS_LIMIT_BUY",
      "inputs": [],
      "outputs": [
        {
          "name": "",
          "type": "uint256",
          "internalType": "uint256"
        }
      ],
      "stateMutability": "view"
    },
    {
      "type": "function",
      "name": "GAS_LIMIT_MINT",
      "inputs": [],
      "outputs": [
        {
          "name": "",
          "type": "uint256",
          "internalType": "uint256"
        }
      ],
      "stateMutability": "view"
    },
    {
      "type": "function",
      "name": "GAS_LIMIT_SELL",
      "inputs": [],
      "outputs": [
        {
          "name": "",
          "type": "uint256",
          "internalType": "uint256"
        }
      ],
      "stateMutability": "view"
    },
    {
      "type": "function",
      "name": "GAS_LIMIT_TRANSFER",
      "inputs": [],
      "outputs": [
        {
          "name": "",
          "type": "uint256",
          "internalType": "uint256"
        }
      ],
      "stateMutability": "view"
    },
    {
      "type": "function",
      "name": "PRECISION",
      "inputs": [],
      "outputs": [
        {
          "name": "",
          "type": "uint256",
          "internalType": "uint256"
        }
      ],
      "stateMutability": "view"
    },
    {
      "type": "function",
      "name": "ccipReceive",
      "inputs": [
        {
          "name": "message",
          "type": "tuple",
          "internalType": "struct Client.Any2EVMMessage",
          "components": [
            {
              "name": "messageId",
              "type": "bytes32",
              "internalType": "bytes32"
            },
            {
              "name": "sourceChainSelector",
              "type": "uint64",
              "internalType": "uint64"
            },
            {
              "name": "sender",
              "type": "bytes",
              "internalType": "bytes"
            },
            {
              "name": "data",
              "type": "bytes",
              "internalType": "bytes"
            },
            {
              "name": "destTokenAmounts",
              "type": "tuple[]",
              "internalType": "struct Client.EVMTokenAmount[]",
              "components": [
                {
                  "name": "token",
                  "type": "address",
                  "internalType": "address"
                },
                {
                  "name": "amount",
                  "type": "uint256",
                  "internalType": "uint256"
                }
              ]
            }
          ]
        }
      ],
      "outputs": [],
      "stateMutability": "nonpayable"
    },
    {
      "type": "function",
      "name": "depositLink",
      "inputs": [
        {
          "name": "amount",
          "type": "uint256",
          "internalType": "uint256"
        }
      ],
      "outputs": [],
      "stateMutability": "nonpayable"
    },
    {
      "type": "function",
      "name": "getRouter",
      "inputs": [],
      "outputs": [
        {
          "name": "",
          "type": "address",
          "internalType": "address"
        }
      ],
      "stateMutability": "view"
    },
    {
      "type": "function",
      "name": "i_beanHeadsContract",
      "inputs": [],
      "outputs": [
        {
          "name": "",
          "type": "address",
          "internalType": "address"
        }
      ],
      "stateMutability": "view"
    },
    {
      "type": "function",
      "name": "i_router",
      "inputs": [],
      "outputs": [
        {
          "name": "",
          "type": "address",
          "internalType": "contract IRouterClient"
        }
      ],
      "stateMutability": "view"
    },
    {
      "type": "function",
      "name": "onERC721Received",
      "inputs": [
        {
          "name": "",
          "type": "address",
          "internalType": "address"
        },
        {
          "name": "",
          "type": "address",
          "internalType": "address"
        },
        {
          "name": "",
          "type": "uint256",
          "internalType": "uint256"
        },
        {
          "name": "",
          "type": "bytes",
          "internalType": "bytes"
        }
      ],
      "outputs": [
        {
          "name": "",
          "type": "bytes4",
          "internalType": "bytes4"
        }
      ],
      "stateMutability": "pure"
    },
    {
      "type": "function",
      "name": "owner",
      "inputs": [],
      "outputs": [
        {
          "name": "",
          "type": "address",
          "internalType": "address"
        }
      ],
      "stateMutability": "view"
    },
    {
      "type": "function",
      "name": "renounceOwnership",
      "inputs": [],
      "outputs": [],
      "stateMutability": "nonpayable"
    },
    {
      "type": "function",
      "name": "s_chainToRemoteBridge",
      "inputs": [
        {
          "name": "chainSelector",
          "type": "uint64",
          "internalType": "uint64"
        }
      ],
      "outputs": [
        {
          "name": "remoteBridge",
          "type": "address",
          "internalType": "address"
        }
      ],
      "stateMutability": "view"
    },
    {
      "type": "function",
      "name": "s_destChain",
      "inputs": [],
      "outputs": [
        {
          "name": "",
          "type": "uint64",
          "internalType": "uint64"
        }
      ],
      "stateMutability": "view"
    },
    {
      "type": "function",
      "name": "s_linkToken",
      "inputs": [],
      "outputs": [
        {
          "name": "",
          "type": "address",
          "internalType": "contract IERC20"
        }
      ],
      "stateMutability": "view"
    },
    {
      "type": "function",
      "name": "s_remoteBridgeAddresses",
      "inputs": [
        {
          "name": "remoteBridge",
          "type": "address",
          "internalType": "address"
        }
      ],
      "outputs": [
        {
          "name": "isRegistered",
          "type": "bool",
          "internalType": "bool"
        }
      ],
      "stateMutability": "view"
    },
    {
      "type": "function",
      "name": "s_usdcToken",
      "inputs": [],
      "outputs": [
        {
          "name": "",
          "type": "address",
          "internalType": "contract IERC20"
        }
      ],
      "stateMutability": "view"
    },
    {
      "type": "function",
      "name": "sendBatchBuyTokenRequest",
      "inputs": [
        {
          "name": "_destinationChainSelector",
          "type": "uint64",
          "internalType": "uint64"
        },
        {
          "name": "_tokenIds",
          "type": "uint256[]",
          "internalType": "uint256[]"
        },
        {
          "name": "_prices",
          "type": "uint256[]",
          "internalType": "uint256[]"
        },
        {
          "name": "_paymentToken",
          "type": "address",
          "internalType": "address"
        }
      ],
      "outputs": [
        {
          "name": "messageId",
          "type": "bytes32",
          "internalType": "bytes32"
        }
      ],
      "stateMutability": "nonpayable"
    },
    {
      "type": "function",
      "name": "sendBatchCancelTokenSaleRequest",
      "inputs": [
        {
          "name": "_destinationChainSelector",
          "type": "uint64",
          "internalType": "uint64"
        },
        {
          "name": "_cancelRequests",
          "type": "tuple[]",
          "internalType": "struct PermitTypes.Cancel[]",
          "components": [
            {
              "name": "seller",
              "type": "address",
              "internalType": "address"
            },
            {
              "name": "tokenId",
              "type": "uint256",
              "internalType": "uint256"
            },
            {
              "name": "listingNonce",
              "type": "uint256",
              "internalType": "uint256"
            },
            {
              "name": "deadline",
              "type": "uint64",
              "internalType": "uint64"
            }
          ]
        },
        {
          "name": "_cancelSigs",
          "type": "bytes[]",
          "internalType": "bytes[]"
        }
      ],
      "outputs": [
        {
          "name": "messageId",
          "type": "bytes32",
          "internalType": "bytes32"
        }
      ],
      "stateMutability": "nonpayable"
    },
    {
      "type": "function",
      "name": "sendBatchSellTokenRequest",
      "inputs": [
        {
          "name": "_destinationChainSelector",
          "type": "uint64",
          "internalType": "uint64"
        },
        {
          "name": "_sellRequests",
          "type": "tuple[]",
          "internalType": "struct PermitTypes.Sell[]",
          "components": [
            {
              "name": "owner",
              "type": "address",
              "internalType": "address"
            },
            {
              "name": "tokenId",
              "type": "uint256",
              "internalType": "uint256"
            },
            {
              "name": "price",
              "type": "uint256",
              "internalType": "uint256"
            },
            {
              "name": "nonce",
              "type": "uint256",
              "internalType": "uint256"
            },
            {
              "name": "deadline",
              "type": "uint64",
              "internalType": "uint64"
            }
          ]
        },
        {
          "name": "_sellSigs",
          "type": "bytes[]",
          "internalType": "bytes[]"
        },
        {
          "name": "_permitDeadlines",
          "type": "uint256[]",
          "internalType": "uint256[]"
        },
        {
          "name": "_permitSigs",
          "type": "bytes[]",
          "internalType": "bytes[]"
        }
      ],
      "outputs": [
        {
          "name": "messageId",
          "type": "bytes32",
          "internalType": "bytes32"
        }
      ],
      "stateMutability": "nonpayable"
    },
    {
      "type": "function",
      "name": "sendBuyTokenRequest",
      "inputs": [
        {
          "name": "_destinationChainSelector",
          "type": "uint64",
          "internalType": "uint64"
        },
        {
          "name": "_tokenId",
          "type": "uint256",
          "internalType": "uint256"
        },
        {
          "name": "_paymentToken",
          "type": "address",
          "internalType": "address"
        },
        {
          "name": "_price",
          "type": "uint256",
          "internalType": "uint256"
        }
      ],
      "outputs": [
        {
          "name": "messageId",
          "type": "bytes32",
          "internalType": "bytes32"
        }
      ],
      "stateMutability": "nonpayable"
    },
    {
      "type": "function",
      "name": "sendCancelTokenSaleRequest",
      "inputs": [
        {
          "name": "_destinationChainSelector",
          "type": "uint64",
          "internalType": "uint64"
        },
        {
          "name": "c",
          "type": "tuple",
          "internalType": "struct PermitTypes.Cancel",
          "components": [
            {
              "name": "seller",
              "type": "address",
              "internalType": "address"
            },
            {
              "name": "tokenId",
              "type": "uint256",
              "internalType": "uint256"
            },
            {
              "name": "listingNonce",
              "type": "uint256",
              "internalType": "uint256"
            },
            {
              "name": "deadline",
              "type": "uint64",
              "internalType": "uint64"
            }
          ]
        },
        {
          "name": "cancelSig",
          "type": "bytes",
          "internalType": "bytes"
        }
      ],
      "outputs": [
        {
          "name": "messageId",
          "type": "bytes32",
          "internalType": "bytes32"
        }
      ],
      "stateMutability": "nonpayable"
    },
    {
      "type": "function",
      "name": "sendMintTokenRequest",
      "inputs": [
        {
          "name": "_destinationChainSelector",
          "type": "uint64",
          "internalType": "uint64"
        },
        {
          "name": "_receiver",
          "type": "address",
          "internalType": "address"
        },
        {
          "name": "_params",
          "type": "tuple",
          "internalType": "struct Genesis.SVGParams",
          "components": [
            {
              "name": "hairParams",
              "type": "tuple",
              "internalType": "struct Genesis.HairParams",
              "components": [
                {
                  "name": "hairStyle",
                  "type": "uint8",
                  "internalType": "uint8"
                },
                {
                  "name": "hairColor",
                  "type": "uint8",
                  "internalType": "uint8"
                }
              ]
            },
            {
              "name": "bodyParams",
              "type": "tuple",
              "internalType": "struct Genesis.BodyParams",
              "components": [
                {
                  "name": "bodyType",
                  "type": "uint8",
                  "internalType": "uint8"
                },
                {
                  "name": "skinColor",
                  "type": "uint8",
                  "internalType": "uint8"
                }
              ]
            },
            {
              "name": "clothingParams",
              "type": "tuple",
              "internalType": "struct Genesis.ClothingParams",
              "components": [
                {
                  "name": "clothes",
                  "type": "uint8",
                  "internalType": "uint8"
                },
                {
                  "name": "clothingColor",
                  "type": "uint8",
                  "internalType": "uint8"
                },
                {
                  "name": "clothesGraphic",
                  "type": "uint8",
                  "internalType": "uint8"
                }
              ]
            },
            {
              "name": "facialFeaturesParams",
              "type": "tuple",
              "internalType": "struct Genesis.FacialFeaturesParams",
              "components": [
                {
                  "name": "eyebrowShape",
                  "type": "uint8",
                  "internalType": "uint8"
                },
                {
                  "name": "eyeShape",
                  "type": "uint8",
                  "internalType": "uint8"
                },
                {
                  "name": "facialHairType",
                  "type": "uint8",
                  "internalType": "uint8"
                },
                {
                  "name": "mouthStyle",
                  "type": "uint8",
                  "internalType": "uint8"
                },
                {
                  "name": "lipColor",
                  "type": "uint8",
                  "internalType": "uint8"
                }
              ]
            },
            {
              "name": "accessoryParams",
              "type": "tuple",
              "internalType": "struct Genesis.AccessoryParams",
              "components": [
                {
                  "name": "accessoryId",
                  "type": "uint8",
                  "internalType": "uint8"
                },
                {
                  "name": "hatStyle",
                  "type": "uint8",
                  "internalType": "uint8"
                },
                {
                  "name": "hatColor",
                  "type": "uint8",
                  "internalType": "uint8"
                }
              ]
            },
            {
              "name": "otherParams",
              "type": "tuple",
              "internalType": "struct Genesis.OtherParams",
              "components": [
                {
                  "name": "faceMask",
                  "type": "bool",
                  "internalType": "bool"
                },
                {
                  "name": "faceMaskColor",
                  "type": "uint8",
                  "internalType": "uint8"
                },
                {
                  "name": "shapes",
                  "type": "bool",
                  "internalType": "bool"
                },
                {
                  "name": "shapeColor",
                  "type": "uint8",
                  "internalType": "uint8"
                },
                {
                  "name": "lashes",
                  "type": "bool",
                  "internalType": "bool"
                }
              ]
            }
          ]
        },
        {
          "name": "_amount",
          "type": "uint256",
          "internalType": "uint256"
        },
        {
          "name": "_paymentToken",
          "type": "address",
          "internalType": "address"
        }
      ],
      "outputs": [
        {
          "name": "messageId",
          "type": "bytes32",
          "internalType": "bytes32"
        }
      ],
      "stateMutability": "payable"
    },
    {
      "type": "function",
      "name": "sendSellTokenRequest",
      "inputs": [
        {
          "name": "_destinationChainSelector",
          "type": "uint64",
          "internalType": "uint64"
        },
        {
          "name": "s",
          "type": "tuple",
          "internalType": "struct PermitTypes.Sell",
          "components": [
            {
              "name": "owner",
              "type": "address",
              "internalType": "address"
            },
            {
              "name": "tokenId",
              "type": "uint256",
              "internalType": "uint256"
            },
            {
              "name": "price",
              "type": "uint256",
              "internalType": "uint256"
            },
            {
              "name": "nonce",
              "type": "uint256",
              "internalType": "uint256"
            },
            {
              "name": "deadline",
              "type": "uint64",
              "internalType": "uint64"
            }
          ]
        },
        {
          "name": "sellSig",
          "type": "bytes",
          "internalType": "bytes"
        },
        {
          "name": "permitDeadline",
          "type": "uint256",
          "internalType": "uint256"
        },
        {
          "name": "permitSig",
          "type": "bytes",
          "internalType": "bytes"
        }
      ],
      "outputs": [
        {
          "name": "messageId",
          "type": "bytes32",
          "internalType": "bytes32"
        }
      ],
      "stateMutability": "nonpayable"
    },
    {
      "type": "function",
      "name": "sendTransferTokenRequest",
      "inputs": [
        {
          "name": "_destinationChainSelector",
          "type": "uint64",
          "internalType": "uint64"
        },
        {
          "name": "_tokenId",
          "type": "uint256",
          "internalType": "uint256"
        },
        {
          "name": "_receiver",
          "type": "address",
          "internalType": "address"
        }
      ],
      "outputs": [
        {
          "name": "messageId",
          "type": "bytes32",
          "internalType": "bytes32"
        }
      ],
      "stateMutability": "nonpayable"
    },
    {
      "type": "function",
      "name": "setRemoteBridge",
      "inputs": [
        {
          "name": "_chainSelector",
          "type": "uint64",
          "internalType": "uint64"
        },
        {
          "name": "_newRemoteBridge",
          "type": "address",
          "internalType": "address"
        },
        {
          "name": "allowed",
          "type": "bool",
          "internalType": "bool"
        }
      ],
      "outputs": [],
      "stateMutability": "nonpayable"
    },
    {
      "type": "function",
      "name": "supportsInterface",
      "inputs": [
        {
          "name": "interfaceId",
          "type": "bytes4",
          "internalType": "bytes4"
        }
      ],
      "outputs": [
        {
          "name": "",
          "type": "bool",
          "internalType": "bool"
        }
      ],
      "stateMutability": "view"
    },
    {
      "type": "function",
      "name": "transferOwnership",
      "inputs": [
        {
          "name": "newOwner",
          "type": "address",
          "internalType": "address"
        }
      ],
      "outputs": [],
      "stateMutability": "nonpayable"
    },
    {
      "type": "function",
      "name": "withdrawLink",
      "inputs": [
        {
          "name": "amount",
          "type": "uint256",
          "internalType": "uint256"
        }
      ],
      "outputs": [],
      "stateMutability": "nonpayable"
    },
    {
      "type": "event",
      "name": "BatchTokenBoughtCrossChain",
      "inputs": [
        {
          "name": "buyer",
          "type": "address",
          "indexed": true,
          "internalType": "address"
        },
        {
          "name": "paymentToken",
          "type": "address",
          "indexed": true,
          "internalType": "address"
        }
      ],
      "anonymous": false
    },
    {
      "type": "event",
      "name": "BatchTokenSaleCancelledCrossChain",
      "inputs": [
        {
          "name": "cancelRequests",
          "type": "tuple[]",
          "indexed": false,
          "internalType": "struct PermitTypes.Cancel[]",
          "components": [
            {
              "name": "seller",
              "type": "address",
              "internalType": "address"
            },
            {
              "name": "tokenId",
              "type": "uint256",
              "internalType": "uint256"
            },
            {
              "name": "listingNonce",
              "type": "uint256",
              "internalType": "uint256"
            },
            {
              "name": "deadline",
              "type": "uint64",
              "internalType": "uint64"
            }
          ]
        }
      ],
      "anonymous": false
    },
    {
      "type": "event",
      "name": "BatchTokensListedCrossChain",
      "inputs": [
        {
          "name": "sellRequests",
          "type": "tuple[]",
          "indexed": false,
          "internalType": "struct PermitTypes.Sell[]",
          "components": [
            {
              "name": "owner",
              "type": "address",
              "internalType": "address"
            },
            {
              "name": "tokenId",
              "type": "uint256",
              "internalType": "uint256"
            },
            {
              "name": "price",
              "type": "uint256",
              "internalType": "uint256"
            },
            {
              "name": "nonce",
              "type": "uint256",
              "internalType": "uint256"
            },
            {
              "name": "deadline",
              "type": "uint64",
              "internalType": "uint64"
            }
          ]
        }
      ],
      "anonymous": false
    },
    {
      "type": "event",
      "name": "CancelBatchSellTokenRequest",
      "inputs": [
        {
          "name": "cancelRequests",
          "type": "tuple[]",
          "indexed": false,
          "internalType": "struct PermitTypes.Cancel[]",
          "components": [
            {
              "name": "seller",
              "type": "address",
              "internalType": "address"
            },
            {
              "name": "tokenId",
              "type": "uint256",
              "internalType": "uint256"
            },
            {
              "name": "listingNonce",
              "type": "uint256",
              "internalType": "uint256"
            },
            {
              "name": "deadline",
              "type": "uint64",
              "internalType": "uint64"
            }
          ]
        }
      ],
      "anonymous": false
    },
    {
      "type": "event",
      "name": "CancelSellTokenRequest",
      "inputs": [
        {
          "name": "messageId",
          "type": "bytes32",
          "indexed": true,
          "internalType": "bytes32"
        },
        {
          "name": "destinationChainSelector",
          "type": "uint64",
          "indexed": true,
          "internalType": "uint64"
        },
        {
          "name": "receiver",
          "type": "address",
          "indexed": true,
          "internalType": "address"
        },
        {
          "name": "tokenId",
          "type": "uint256",
          "indexed": false,
          "internalType": "uint256"
        }
      ],
      "anonymous": false
    },
    {
      "type": "event",
      "name": "OwnershipTransferred",
      "inputs": [
        {
          "name": "previousOwner",
          "type": "address",
          "indexed": true,
          "internalType": "address"
        },
        {
          "name": "newOwner",
          "type": "address",
          "indexed": true,
          "internalType": "address"
        }
      ],
      "anonymous": false
    },
    {
      "type": "event",
      "name": "RemoteBridgeUpdated",
      "inputs": [
        {
          "name": "newRemoteBridge",
          "type": "address",
          "indexed": false,
          "internalType": "address"
        }
      ],
      "anonymous": false
    },
    {
      "type": "event",
      "name": "SentBatchBuyTokensRequest",
      "inputs": [
        {
          "name": "messageId",
          "type": "bytes32",
          "indexed": true,
          "internalType": "bytes32"
        },
        {
          "name": "destinationChainSelector",
          "type": "uint64",
          "indexed": true,
          "internalType": "uint64"
        },
        {
          "name": "receiver",
          "type": "address",
          "indexed": true,
          "internalType": "address"
        }
      ],
      "anonymous": false
    },
    {
      "type": "event",
      "name": "SentBatchSellTokensRequest",
      "inputs": [
        {
          "name": "sellRequests",
          "type": "tuple[]",
          "indexed": false,
          "internalType": "struct PermitTypes.Sell[]",
          "components": [
            {
              "name": "owner",
              "type": "address",
              "internalType": "address"
            },
            {
              "name": "tokenId",
              "type": "uint256",
              "internalType": "uint256"
            },
            {
              "name": "price",
              "type": "uint256",
              "internalType": "uint256"
            },
            {
              "name": "nonce",
              "type": "uint256",
              "internalType": "uint256"
            },
            {
              "name": "deadline",
              "type": "uint64",
              "internalType": "uint64"
            }
          ]
        }
      ],
      "anonymous": false
    },
    {
      "type": "event",
      "name": "SentBuyTokenRequest",
      "inputs": [
        {
          "name": "messageId",
          "type": "bytes32",
          "indexed": true,
          "internalType": "bytes32"
        },
        {
          "name": "destinationChainSelector",
          "type": "uint64",
          "indexed": true,
          "internalType": "uint64"
        },
        {
          "name": "receiver",
          "type": "address",
          "indexed": true,
          "internalType": "address"
        },
        {
          "name": "tokenId",
          "type": "uint256",
          "indexed": false,
          "internalType": "uint256"
        },
        {
          "name": "price",
          "type": "uint256",
          "indexed": false,
          "internalType": "uint256"
        }
      ],
      "anonymous": false
    },
    {
      "type": "event",
      "name": "SentMintTokenRequest",
      "inputs": [
        {
          "name": "messageId",
          "type": "bytes32",
          "indexed": true,
          "internalType": "bytes32"
        },
        {
          "name": "destinationChainSelector",
          "type": "uint64",
          "indexed": true,
          "internalType": "uint64"
        },
        {
          "name": "receiver",
          "type": "address",
          "indexed": true,
          "internalType": "address"
        },
        {
          "name": "amount",
          "type": "uint256",
          "indexed": false,
          "internalType": "uint256"
        }
      ],
      "anonymous": false
    },
    {
      "type": "event",
      "name": "SentSellTokenRequest",
      "inputs": [
        {
          "name": "messageId",
          "type": "bytes32",
          "indexed": true,
          "internalType": "bytes32"
        },
        {
          "name": "destinationChainSelector",
          "type": "uint64",
          "indexed": true,
          "internalType": "uint64"
        },
        {
          "name": "receiver",
          "type": "address",
          "indexed": true,
          "internalType": "address"
        },
        {
          "name": "tokenId",
          "type": "uint256",
          "indexed": false,
          "internalType": "uint256"
        },
        {
          "name": "price",
          "type": "uint256",
          "indexed": false,
          "internalType": "uint256"
        }
      ],
      "anonymous": false
    },
    {
      "type": "event",
      "name": "SentTransferTokenRequest",
      "inputs": [
        {
          "name": "messageId",
          "type": "bytes32",
          "indexed": true,
          "internalType": "bytes32"
        },
        {
          "name": "destinationChainSelector",
          "type": "uint64",
          "indexed": true,
          "internalType": "uint64"
        },
        {
          "name": "receiver",
          "type": "address",
          "indexed": true,
          "internalType": "address"
        },
        {
          "name": "tokenId",
          "type": "uint256",
          "indexed": false,
          "internalType": "uint256"
        }
      ],
      "anonymous": false
    },
    {
      "type": "event",
      "name": "TokenBoughtCrossChain",
      "inputs": [
        {
          "name": "buyer",
          "type": "address",
          "indexed": true,
          "internalType": "address"
        },
        {
          "name": "tokenId",
          "type": "uint256",
          "indexed": false,
          "internalType": "uint256"
        }
      ],
      "anonymous": false
    },
    {
      "type": "event",
      "name": "TokenListedCrossChain",
      "inputs": [
        {
          "name": "seller",
          "type": "address",
          "indexed": true,
          "internalType": "address"
        },
        {
          "name": "tokenId",
          "type": "uint256",
          "indexed": false,
          "internalType": "uint256"
        },
        {
          "name": "price",
          "type": "uint256",
          "indexed": false,
          "internalType": "uint256"
        }
      ],
      "anonymous": false
    },
    {
      "type": "event",
      "name": "TokenMintedCrossChain",
      "inputs": [
        {
          "name": "receiver",
          "type": "address",
          "indexed": true,
          "internalType": "address"
        },
        {
          "name": "params",
          "type": "tuple",
          "indexed": false,
          "internalType": "struct Genesis.SVGParams",
          "components": [
            {
              "name": "hairParams",
              "type": "tuple",
              "internalType": "struct Genesis.HairParams",
              "components": [
                {
                  "name": "hairStyle",
                  "type": "uint8",
                  "internalType": "uint8"
                },
                {
                  "name": "hairColor",
                  "type": "uint8",
                  "internalType": "uint8"
                }
              ]
            },
            {
              "name": "bodyParams",
              "type": "tuple",
              "internalType": "struct Genesis.BodyParams",
              "components": [
                {
                  "name": "bodyType",
                  "type": "uint8",
                  "internalType": "uint8"
                },
                {
                  "name": "skinColor",
                  "type": "uint8",
                  "internalType": "uint8"
                }
              ]
            },
            {
              "name": "clothingParams",
              "type": "tuple",
              "internalType": "struct Genesis.ClothingParams",
              "components": [
                {
                  "name": "clothes",
                  "type": "uint8",
                  "internalType": "uint8"
                },
                {
                  "name": "clothingColor",
                  "type": "uint8",
                  "internalType": "uint8"
                },
                {
                  "name": "clothesGraphic",
                  "type": "uint8",
                  "internalType": "uint8"
                }
              ]
            },
            {
              "name": "facialFeaturesParams",
              "type": "tuple",
              "internalType": "struct Genesis.FacialFeaturesParams",
              "components": [
                {
                  "name": "eyebrowShape",
                  "type": "uint8",
                  "internalType": "uint8"
                },
                {
                  "name": "eyeShape",
                  "type": "uint8",
                  "internalType": "uint8"
                },
                {
                  "name": "facialHairType",
                  "type": "uint8",
                  "internalType": "uint8"
                },
                {
                  "name": "mouthStyle",
                  "type": "uint8",
                  "internalType": "uint8"
                },
                {
                  "name": "lipColor",
                  "type": "uint8",
                  "internalType": "uint8"
                }
              ]
            },
            {
              "name": "accessoryParams",
              "type": "tuple",
              "internalType": "struct Genesis.AccessoryParams",
              "components": [
                {
                  "name": "accessoryId",
                  "type": "uint8",
                  "internalType": "uint8"
                },
                {
                  "name": "hatStyle",
                  "type": "uint8",
                  "internalType": "uint8"
                },
                {
                  "name": "hatColor",
                  "type": "uint8",
                  "internalType": "uint8"
                }
              ]
            },
            {
              "name": "otherParams",
              "type": "tuple",
              "internalType": "struct Genesis.OtherParams",
              "components": [
                {
                  "name": "faceMask",
                  "type": "bool",
                  "internalType": "bool"
                },
                {
                  "name": "faceMaskColor",
                  "type": "uint8",
                  "internalType": "uint8"
                },
                {
                  "name": "shapes",
                  "type": "bool",
                  "internalType": "bool"
                },
                {
                  "name": "shapeColor",
                  "type": "uint8",
                  "internalType": "uint8"
                },
                {
                  "name": "lashes",
                  "type": "bool",
                  "internalType": "bool"
                }
              ]
            }
          ]
        },
        {
          "name": "tokenId",
          "type": "uint256",
          "indexed": false,
          "internalType": "uint256"
        },
        {
          "name": "paymentToken",
          "type": "address",
          "indexed": false,
          "internalType": "address"
        },
        {
          "name": "amount",
          "type": "uint256",
          "indexed": false,
          "internalType": "uint256"
        }
      ],
      "anonymous": false
    },
    {
      "type": "event",
      "name": "TokenMirroredOnDestinationChain",
      "inputs": [
        {
          "name": "receiver",
          "type": "address",
          "indexed": true,
          "internalType": "address"
        },
        {
          "name": "tokenId",
          "type": "uint256",
          "indexed": false,
          "internalType": "uint256"
        },
        {
          "name": "params",
          "type": "tuple",
          "indexed": false,
          "internalType": "struct Genesis.SVGParams",
          "components": [
            {
              "name": "hairParams",
              "type": "tuple",
              "internalType": "struct Genesis.HairParams",
              "components": [
                {
                  "name": "hairStyle",
                  "type": "uint8",
                  "internalType": "uint8"
                },
                {
                  "name": "hairColor",
                  "type": "uint8",
                  "internalType": "uint8"
                }
              ]
            },
            {
              "name": "bodyParams",
              "type": "tuple",
              "internalType": "struct Genesis.BodyParams",
              "components": [
                {
                  "name": "bodyType",
                  "type": "uint8",
                  "internalType": "uint8"
                },
                {
                  "name": "skinColor",
                  "type": "uint8",
                  "internalType": "uint8"
                }
              ]
            },
            {
              "name": "clothingParams",
              "type": "tuple",
              "internalType": "struct Genesis.ClothingParams",
              "components": [
                {
                  "name": "clothes",
                  "type": "uint8",
                  "internalType": "uint8"
                },
                {
                  "name": "clothingColor",
                  "type": "uint8",
                  "internalType": "uint8"
                },
                {
                  "name": "clothesGraphic",
                  "type": "uint8",
                  "internalType": "uint8"
                }
              ]
            },
            {
              "name": "facialFeaturesParams",
              "type": "tuple",
              "internalType": "struct Genesis.FacialFeaturesParams",
              "components": [
                {
                  "name": "eyebrowShape",
                  "type": "uint8",
                  "internalType": "uint8"
                },
                {
                  "name": "eyeShape",
                  "type": "uint8",
                  "internalType": "uint8"
                },
                {
                  "name": "facialHairType",
                  "type": "uint8",
                  "internalType": "uint8"
                },
                {
                  "name": "mouthStyle",
                  "type": "uint8",
                  "internalType": "uint8"
                },
                {
                  "name": "lipColor",
                  "type": "uint8",
                  "internalType": "uint8"
                }
              ]
            },
            {
              "name": "accessoryParams",
              "type": "tuple",
              "internalType": "struct Genesis.AccessoryParams",
              "components": [
                {
                  "name": "accessoryId",
                  "type": "uint8",
                  "internalType": "uint8"
                },
                {
                  "name": "hatStyle",
                  "type": "uint8",
                  "internalType": "uint8"
                },
                {
                  "name": "hatColor",
                  "type": "uint8",
                  "internalType": "uint8"
                }
              ]
            },
            {
              "name": "otherParams",
              "type": "tuple",
              "internalType": "struct Genesis.OtherParams",
              "components": [
                {
                  "name": "faceMask",
                  "type": "bool",
                  "internalType": "bool"
                },
                {
                  "name": "faceMaskColor",
                  "type": "uint8",
                  "internalType": "uint8"
                },
                {
                  "name": "shapes",
                  "type": "bool",
                  "internalType": "bool"
                },
                {
                  "name": "shapeColor",
                  "type": "uint8",
                  "internalType": "uint8"
                },
                {
                  "name": "lashes",
                  "type": "bool",
                  "internalType": "bool"
                }
              ]
            }
          ]
        },
        {
          "name": "originChainId",
          "type": "uint256",
          "indexed": false,
          "internalType": "uint256"
        }
      ],
      "anonymous": false
    },
    {
      "type": "event",
      "name": "TokenReturnedToSourceChain",
      "inputs": [
        {
          "name": "tokenId",
          "type": "uint256",
          "indexed": false,
          "internalType": "uint256"
        }
      ],
      "anonymous": false
    },
    {
      "type": "event",
      "name": "TokenSaleCancelled",
      "inputs": [
        {
          "name": "owner",
          "type": "address",
          "indexed": true,
          "internalType": "address"
        },
        {
          "name": "tokenId",
          "type": "uint256",
          "indexed": false,
          "internalType": "uint256"
        }
      ],
      "anonymous": false
    },
    {
      "type": "event",
      "name": "TokenTransferredCrossChain",
      "inputs": [
        {
          "name": "receiver",
          "type": "address",
          "indexed": true,
          "internalType": "address"
        },
        {
          "name": "tokenId",
          "type": "uint256",
          "indexed": false,
          "internalType": "uint256"
        }
      ],
      "anonymous": false
    },
    {
      "type": "error",
      "name": "IBeanHeadsBridge__InsufficientAllowance",
      "inputs": []
    },
    {
      "type": "error",
      "name": "IBeanHeadsBridge__InsufficientLinkBalance",
      "inputs": [
        {
          "name": "amount",
          "type": "uint256",
          "internalType": "uint256"
        }
      ]
    },
    {
      "type": "error",
      "name": "IBeanHeadsBridge__InsufficientPayment",
      "inputs": []
    },
    {
      "type": "error",
      "name": "IBeanHeadsBridge__InvalidAmount",
      "inputs": []
    },
    {
      "type": "error",
      "name": "IBeanHeadsBridge__InvalidLength",
      "inputs": []
    },
    {
      "type": "error",
      "name": "IBeanHeadsBridge__InvalidNonce",
      "inputs": []
    },
    {
      "type": "error",
      "name": "IBeanHeadsBridge__InvalidOraclePrice",
      "inputs": []
    },
    {
      "type": "error",
      "name": "IBeanHeadsBridge__InvalidPaymentToken",
      "inputs": [
        {
          "name": "received",
          "type": "address",
          "internalType": "address"
        },
        {
          "name": "expected",
          "type": "address",
          "internalType": "address"
        }
      ]
    },
    {
      "type": "error",
      "name": "IBeanHeadsBridge__InvalidRemoteAddress",
      "inputs": []
    },
    {
      "type": "error",
      "name": "IBeanHeadsBridge__InvalidToken",
      "inputs": []
    },
    {
      "type": "error",
      "name": "IBeanHeadsBridge__InvalidTokenReceived",
      "inputs": []
    },
    {
      "type": "error",
      "name": "IBeanHeadsBridge__MismatchedArrayLengths",
      "inputs": []
    },
    {
      "type": "error",
      "name": "IBeanHeadsBridge__PriceExceedsMax",
      "inputs": []
    },
    {
      "type": "error",
      "name": "IBeanHeadsBridge__TokenIsNotForSale",
      "inputs": []
    },
    {
      "type": "error",
      "name": "IBeanHeadsBridge__TokenNotAllowed",
      "inputs": [
        {
          "name": "token",
          "type": "address",
          "internalType": "address"
        }
      ]
    },
    {
      "type": "error",
      "name": "IBeanHeadsBridge__TokenNotDeposited",
      "inputs": [
        {
          "name": "tokenId",
          "type": "uint256",
          "internalType": "uint256"
        }
      ]
    },
    {
      "type": "error",
      "name": "IBeanHeadsBridge__UnauthorizedSender",
      "inputs": [
        {
          "name": "sender",
          "type": "address",
          "internalType": "address"
        }
      ]
    },
    {
      "type": "error",
      "name": "InvalidRouter",
      "inputs": [
        {
          "name": "router",
          "type": "address",
          "internalType": "address"
        }
      ]
    },
    {
      "type": "error",
      "name": "OwnableInvalidOwner",
      "inputs": [
        {
          "name": "owner",
          "type": "address",
          "internalType": "address"
        }
      ]
    },
    {
      "type": "error",
      "name": "OwnableUnauthorizedAccount",
      "inputs": [
        {
          "name": "account",
          "type": "address",
          "internalType": "address"
        }
      ]
    },
    {
      "type": "error",
      "name": "ReentrancyGuardReentrantCall",
      "inputs": []
    }
  ],
  "bytecode": {
    "object": "0x60e0346200027757601f62005f9638819003918201601f191683019291906001600160401b038411838510176200027b578160a09284926040968752833981010312620002775762000051816200028f565b9162000060602083016200028f565b6200006d8284016200028f565b926200008a608062000082606084016200028f565b92016200028f565b9360018060a01b0392838716968715620002605760c05283169384156200024a57600480546001600160a01b0319808216881790925582519891969086167f8be0079c531659141344cd1fd0a4f28419497f9722a3daafe3b4186f6b6457e05f80a360016005556080525f549168010000000000000000600160e01b03911b169068010000000000000000600160e01b031916175f551690600154161760015560a052615cf19081620002a5823960805181818161176301528181612bd4015281816136c301528181613bc20152818161403e015281816156e20152615a81015260a0518181816111cc0152818161127f0152818161145701528181611573015281816116fa01528181611724015281816117aa0152818161184c0152818161190501528181611975015281816119bb01528181611a5301528181611b5701528181611bd101528181611cba01528181611d8501528181611eaf01528181611f2a01528181612028015281816121390152818161226e0152818161230f01528181612618015281816126b901528181612c3b01528181612c7b015281816132550152818161399e0152615a3b015260c0518181816109bc0152610ee70152f35b51631e4fbdf760e01b81525f6004820152602490fd5b85516335fdcccd60e21b81525f6004820152602490fd5b5f80fd5b634e487b7160e01b5f52604160045260245ffd5b51906001600160a01b0382168203620002775756fe6080806040526004361015610012575f80fd5b5f905f3560e01c90816301ffc9a71461414d57508063100ebffc146140e057806310488413146106ea5780631179680f14613dcd57806311d82d5514613cb9578063150b7a0214613c2c578063232df00d146139c25780632c406d441461395457806338c723531461377c57806341b8b269146137385780634fdb1ace146136e7578063581bdd161461367957806362cd6c90146131bb578063715018a61461311d5780637725135b146130c95780637a8042bd14612fab5780637b0ef209146124f757806385572ffb14610e625780638da5cb5b14610e10578063a0da12a514610dd2578063a700a39c14610d96578063aa7ab1ab14610a5d578063aaf5eb6814610a1c578063ab895eb8146109e0578063b0f479a114610971578063b1a778ab146106ef578063ddf36e23146106ea578063ef74cd76146103e1578063f2fde38b146102fe578063f565b926146102965763f9eafa7014610173575f80fd5b346102935760207ffffffffffffffffffffffffffffffffffffffffffffffffffffffffffffffffc360112610293576004356101ad61467b565b8015610269578154604080517f23b872dd000000000000000000000000000000000000000000000000000000008152336004820152306024820152604481019390935260209183916064918391879173ffffffffffffffffffffffffffffffffffffffff911c165af1801561025e57610224575080f35b6020813d602011610256575b8161023d6020938361447b565b810103126102525761024e90614867565b5080f35b5080fd5b3d9150610230565b6040513d84823e3d90fd5b60046040517fd8287905000000000000000000000000000000000000000000000000000000008152fd5b80fd5b50346102935760207ffffffffffffffffffffffffffffffffffffffffffffffffffffffffffffffffc3601126102935760ff604060209273ffffffffffffffffffffffffffffffffffffffff6102ea6142c4565b168152600384522054166040519015158152f35b50346102935760207ffffffffffffffffffffffffffffffffffffffffffffffffffffffffffffffffc360112610293576103366142c4565b61033e61467b565b73ffffffffffffffffffffffffffffffffffffffff8091169081156103b057600454827fffffffffffffffffffffffff0000000000000000000000000000000000000000821617600455167f8be0079c531659141344cd1fd0a4f28419497f9722a3daafe3b4186f6b6457e05f80a380f35b602483604051907f1e4fbdf70000000000000000000000000000000000000000000000000000000082526004820152fd5b503461029357610120807ffffffffffffffffffffffffffffffffffffffffffffffffffffffffffffffffc3601126102525761041b614209565b9060a07fffffffffffffffffffffffffffffffffffffffffffffffffffffffffffffffdc3601126106e65767ffffffffffffffff9260c4358481116102525761046890369060040161432b565b919092610104358681116106e65761048490369060040161432b565b90958781169485855260209860028a5260ff604073ffffffffffffffffffffffffffffffffffffffff97888282205416815260038d52205416156106b85760643597881561026957604051926024358881168091036106e2578c8501526044359a8b60408601526060968b88870152608435608087015260a4359485168095036106e25761052c8694610565946105719760a08801526101009b8c60c08901528701916146cc565b9160e43560e08601527fffffffffffffffffffffffffffffffffffffffffffffffffffffffffffffffe0998a86850301908601526146cc565b0385810183528261447b565b6040519161057e83614427565b5f8352836080604051610590816143ef565b828152828d8201528260408201525f838201520152865f5260028a528560405f2054169182156106b857610617604095610699956106237f5761d3c5b5fbf459631cf1b4ff7e51d2013d8de7edc5ff126526262bf3478a08998f958a5198878a01528689526105fe8961440b565b8a519586916001898401528c8084015286830190614c55565b0390810185528461447b565b895f54891c169288519461063686614427565b620927c086528951957f97a657c900000000000000000000000000000000000000000000000000000000828801525160248701526024865261067786614443565b895197610683896143ef565b88528701528786015284015260808301526156ca565b9586936106a46145e0565b1695825191825288820152a4604051908152f35b60046040517f4836199a000000000000000000000000000000000000000000000000000000008152fd5b5f80fd5b8280fd5b614235565b50346102935760c07ffffffffffffffffffffffffffffffffffffffffffffffffffffffffffffffffc36011261029357610727614209565b9060807fffffffffffffffffffffffffffffffffffffffffffffffffffffffffffffffdc3601126102935767ffffffffffffffff60a4358181116106e65761077390369060040161432b565b92828516918282526020956002875260ff604073ffffffffffffffffffffffffffffffffffffffff94858282205416815260038a52205416156106b857604051956024358481168091036106e2578888015260443595866040890152606093606435858a01526084359182168092036106e257889261080192608085015260a08085015260c08401916146cc565b03956108337fffffffffffffffffffffffffffffffffffffffffffffffffffffffffffffffe09788810183528261447b565b6040519161084083614427565b5f8352836080604051610852816143ef565b828152828c8201528260408201525f838201520152855f52600289528460405f2054169182156106b8576106177fd6040e24e094f8dd2461f146e1a24805ab644cde60f103bf02c04c8b5d07e1ed95610955956108db8d9c8d9560405198878a01528689526108c08961440b565b60405195869160038984015260408084015286830190614c55565b885f5460401c16926040516108ef81614427565b620927c081527f97a657c900000000000000000000000000000000000000000000000000000000604051968701525160248601526024855261093085614443565b6040519661093d886143ef565b87528c870152604086015284015260808301526156ca565b9485926109606145e0565b1694604051908152a4604051908152f35b503461029357807ffffffffffffffffffffffffffffffffffffffffffffffffffffffffffffffffc36011261029357602060405173ffffffffffffffffffffffffffffffffffffffff7f0000000000000000000000000000000000000000000000000000000000000000168152f35b503461029357807ffffffffffffffffffffffffffffffffffffffffffffffffffffffffffffffffc360112610293576020604051620927c08152f35b503461029357807ffffffffffffffffffffffffffffffffffffffffffffffffffffffffffffffffc360112610293576020604051670de0b6b3a76400008152f35b50346102935760a07ffffffffffffffffffffffffffffffffffffffffffffffffffffffffffffffffc36011261029357610a95614209565b9067ffffffffffffffff906024358281116102525736602382011215610252578060040135928084116106e65760248201916024369160a087020101116106e657604435818111610d9257610aee903690600401614270565b9095606435838111610d8e57610b08903690600401614270565b92909360843598818a11610d8a57610b2660409a3690600401614270565b92851692838a5260ff60209c8d9b60028d52600373ffffffffffffffffffffffffffffffffffffffff9d8e8484205416835252205416156106b857848b14801590610d80575b8015610d76575b610d4c5760405160808d820152978893610b9160a086018e8d614554565b7fffffffffffffffffffffffffffffffffffffffffffffffffffffffffffffffe09788878303016040880152610bc69261470a565b60609887868303018a870152610bdb9261463e565b9085848303016080850152610bef9261470a565b038281018652610bff908661447b565b60405190610c0c82614427565b5f825284604051610c1c816143ef565b818152818c8201528160408201528181015f9052608001525f52600289528660405f2054169384156106b8577fa372371a2ece9b022744cfcc0877b9fd6002ceb224dbe1e13f5f2662ad560e2197610cb06007948c610ca4610d2b9a6040519a838c0152828b52610c8c8b61440b565b60405198899384015260408084015286830190614c55565b0390810186528561447b565b5f5460401c169160405193610cc485614427565b620927c08552604051947f97a657c9000000000000000000000000000000000000000000000000000000008d87015251602486015260248552610d0685614443565b60405196610d13886143ef565b87528b870152604086015284015260808301526156ca565b92610d4160405192839287845287840191614554565b0390a1604051908152f35b60046040517fed9f42b0000000000000000000000000000000000000000000000000000000008152fd5b50808b1415610b73565b50868b1415610b6c565b8780fd5b8580fd5b8380fd5b503461029357807ffffffffffffffffffffffffffffffffffffffffffffffffffffffffffffffffc360112610293576020604051622dc6c08152f35b503461029357807ffffffffffffffffffffffffffffffffffffffffffffffffffffffffffffffffc3601126102935760206040516402540be4008152f35b503461029357807ffffffffffffffffffffffffffffffffffffffffffffffffffffffffffffffffc36011261029357602073ffffffffffffffffffffffffffffffffffffffff60045416604051908152f35b50346102935760207ffffffffffffffffffffffffffffffffffffffffffffffffffffffffffffffffc3601126102935760043567ffffffffffffffff81116102525760a07ffffffffffffffffffffffffffffffffffffffffffffffffffffffffffffffffc82360301126102525773ffffffffffffffffffffffffffffffffffffffff7f00000000000000000000000000000000000000000000000000000000000000001633036124c75760405190610f1a826143ef565b80600401358252610f2d60248201614220565b6020830152604481013567ffffffffffffffff8111610d9257610f5690600436918401016144f6565b6040830152606481013567ffffffffffffffff8111610d9257610f7f90600436918401016144f6565b606083015260848101359067ffffffffffffffff8211610d9257366023838301011215610d925760048282010135610fb68161453c565b92610fc4604051948561447b565b81845260208401923660248460061b84840101011161131f5780820160240193915b60248460061b8284010101851061248b57878787608082015267ffffffffffffffff6020820151166040820151602081805181010312610d9257611041602073ffffffffffffffffffffffffffffffffffffffff9201614a1a565b16908352600260205273ffffffffffffffffffffffffffffffffffffffff6040842054168114801590612474575b6124435750606081015180518101604082820312610d925760208201519160098310156113015760408101519167ffffffffffffffff8311610d8e576110bc926020809201920101614a5c565b9181156121d1575b60018214611f9d575b60028214611e13575b60038214611c5e575b60048214611af1575b600582146118cf575b60068214611635575b5060078114611323575b60081461110f575080f35b8051810190604081602084019303126106e657602081015167ffffffffffffffff8111610d925781019180603f84011215610d92576020830151926111538461453c565b93611161604051958661447b565b8085526040602086019160071b8301019183831161131f57604001905b8282106113055750505060408201519167ffffffffffffffff8311611301576111aa9201602001614dbf565b8151815103610d4c57829073ffffffffffffffffffffffffffffffffffffffff7f0000000000000000000000000000000000000000000000000000000000000000163b15610252578161126591604051809381927f8742be81000000000000000000000000000000000000000000000000000000008352604060048401526112356044840189614f41565b907ffffffffffffffffffffffffffffffffffffffffffffffffffffffffffffffffc848303016024850152614ec7565b03818373ffffffffffffffffffffffffffffffffffffffff7f0000000000000000000000000000000000000000000000000000000000000000165af1801561025e576112ed575b50506112e77fe3ddbf949cb7a018a68cffca747f34ef37679c4bb300c4293efe5aa4018310ff91604051918291602083526020830190614f41565b0390a180f35b6112f6906143db565b6102525781836112ac565b8480fd5b60206080916113148685614c98565b81520191019061117e565b8680fd5b8151820190608083830312610d925760208301519167ffffffffffffffff83116113015760208101603f84860101121561130157602083850101516113678161453c565b93611375604051958661447b565b818552602085019060208401604060a08502838a01010111610d8a5790604082880101915b604060a08502828a01010183106116135750505050604084015167ffffffffffffffff8111610d8e576113d590602080840191870101614dbf565b90606085015167ffffffffffffffff811161131f576113fc90602080840191880101614d2b565b90608086015167ffffffffffffffff8111610d8a57602080611422930191880101614dbf565b9184518151811490811591611607575b81156115fb575b50610d4c57869273ffffffffffffffffffffffffffffffffffffffff7f0000000000000000000000000000000000000000000000000000000000000000163b15610d925783916115596114f99261152960405196879586957f8734aa12000000000000000000000000000000000000000000000000000000008752608060048801526114c98d6084890190614e3f565b907ffffffffffffffffffffffffffffffffffffffffffffffffffffffffffffffffc888303016024890152614ec7565b907ffffffffffffffffffffffffffffffffffffffffffffffffffffffffffffffffc868303016044870152614d8c565b907ffffffffffffffffffffffffffffffffffffffffffffffffffffffffffffffffc848303016064850152614ec7565b03818373ffffffffffffffffffffffffffffffffffffffff7f0000000000000000000000000000000000000000000000000000000000000000165af1801561025e576115e7575b50507fe8b32231159ca2aeb6bd2ea21844874f9dbbf5304d06aabe82cad6cf3ca3b87b6115dd600893604051918291602083526020830190614e3f565b0390a19050611104565b6115f0906143db565b610d925783856115a0565b90508351141588611439565b83518114159150611432565b60a0806020604094611627828a0188614c06565b81520194019392505061139a565b8251830160a0848203126113015761164f60208501614a1a565b90604085015167ffffffffffffffff811161131f5761167690602080840191880101614d2b565b90606086015167ffffffffffffffff8111610d8a5760208061169c930191880101614d2b565b6116a860808701614a1a565b5060a0860151908251905103610d4c5760206116eb608073ffffffffffffffffffffffffffffffffffffffff6116e082890151614aa1565b515116960151614aa1565b5101510361026957859061171f7f00000000000000000000000000000000000000000000000000000000000000008561523c565b6117497f000000000000000000000000000000000000000000000000000000000000000085615299565b61179373ffffffffffffffffffffffffffffffffffffffff7f00000000000000000000000000000000000000000000000000000000000000001661178d818761523c565b85615299565b73ffffffffffffffffffffffffffffffffffffffff7f0000000000000000000000000000000000000000000000000000000000000000163b15610252578161182c91604051809381927f3dda355800000000000000000000000000000000000000000000000000000000835273ffffffffffffffffffffffffffffffffffffffff88166004840152606060248401526064830190614d8c565b87604483015203818373ffffffffffffffffffffffffffffffffffffffff7f0000000000000000000000000000000000000000000000000000000000000000165af1801561025e576118bb575b505073ffffffffffffffffffffffffffffffffffffffff167f98d64dcf31d860b89de519aee807342854eca9a1a02df1042f850509fdd493ad8580a3836110fa565b6118c4906143db565b611301578486611879565b604083805181010312610d92576118e860208401614a1a565b60408401519073ffffffffffffffffffffffffffffffffffffffff7f0000000000000000000000000000000000000000000000000000000000000000163b15610d8e57856040517fdd2e0ac000000000000000000000000000000000000000000000000000000000815283600482015281816024818373ffffffffffffffffffffffffffffffffffffffff7f0000000000000000000000000000000000000000000000000000000000000000165af1801561025e57611add575b505073ffffffffffffffffffffffffffffffffffffffff7f0000000000000000000000000000000000000000000000000000000000000000163b15610d8e576040517f42842e0e00000000000000000000000000000000000000000000000000000000815230600482015273ffffffffffffffffffffffffffffffffffffffff821660248201526044810183905286908181806064810103818373ffffffffffffffffffffffffffffffffffffffff7f0000000000000000000000000000000000000000000000000000000000000000165af1801561025e57611ac9575b5050602073ffffffffffffffffffffffffffffffffffffffff7fa0269577557e44b1e484388711aaee9dcfdebb716a88654f37c4c8388bc08739926040519485521692a26110f1565b611ad2906143db565b610d8e578587611a80565b611ae6906143db565b610d8e5785876119a2565b825183016102e0908185820312610d8e57611b0e60208601614a1a565b9073ffffffffffffffffffffffffffffffffffffffff611b3960206040890151930160608901614874565b9387015192169273ffffffffffffffffffffffffffffffffffffffff7f0000000000000000000000000000000000000000000000000000000000000000163b15610d8a57876040517fa462cd49000000000000000000000000000000000000000000000000000000008152818180611bb78887898c60048601614cee565b03818373ffffffffffffffffffffffffffffffffffffffff7f0000000000000000000000000000000000000000000000000000000000000000165af1801561025e57611c46575b5050907f7f3ef432bb1e77a701484dc68486dd0b262c06596baea7f6804d6894c388eaad92611c3a6102c0936040519384526020840190614adb565b6102a0820152a26110e8565b611c52909392936143db565b610d8a57908789611bfe565b8251830160a0848203126113015784611c7d6020830160208701614c98565b9160a086015167ffffffffffffffff81116106e657602080611ca3930191880101614a5c565b73ffffffffffffffffffffffffffffffffffffffff7f0000000000000000000000000000000000000000000000000000000000000000163b156102525781611d6b91604051809381927f7dd98451000000000000000000000000000000000000000000000000000000008352611d5a600484018967ffffffffffffffff6060809273ffffffffffffffffffffffffffffffffffffffff81511685526020810151602086015260408101516040860152015116910152565b60a0608484015260a4830190614c55565b03818373ffffffffffffffffffffffffffffffffffffffff7f0000000000000000000000000000000000000000000000000000000000000000165af1801561025e57611dff575b50507ffd29d40736f7e30e737c49f0da6edb357095e0117291cd63e251ef8b2a5cd57360208073ffffffffffffffffffffffffffffffffffffffff845116930151604051908152a26110df565b611e08906143db565b611301578486611db2565b608083805181010312610d9257611e2c60208401614a1a565b73ffffffffffffffffffffffffffffffffffffffff604085015191611e5360608701614a1a565b501690856020611e666080860151614aa1565b510151611e9873ffffffffffffffffffffffffffffffffffffffff611e8e6080880151614aa1565b5151169182615a30565b73ffffffffffffffffffffffffffffffffffffffff7f0000000000000000000000000000000000000000000000000000000000000000163b1561025257604051907f692bf4a8000000000000000000000000000000000000000000000000000000008252846004830152836024830152604482015281816064818373ffffffffffffffffffffffffffffffffffffffff7f0000000000000000000000000000000000000000000000000000000000000000165af1801561025e57611f89575b505060207f4b425220000394679f443a7312a5351c5b75afe298ef4ffad4f7d6f6b33e295a91604051908152a26110d6565b611f92906143db565b610d8e578587611f57565b82518301610100848203126113015784611fbd6020830160208701614c06565b9160c086015167ffffffffffffffff81116106e657611fe490602080840191890101614a5c565b60e08701519161010088015167ffffffffffffffff8111611301576020806120109301918a0101614a5c565b9173ffffffffffffffffffffffffffffffffffffffff7f0000000000000000000000000000000000000000000000000000000000000000163b15610d9257839161211f6120ea9260405195869485947f24e79fc20000000000000000000000000000000000000000000000000000000086526120d7600487018c67ffffffffffffffff6080809273ffffffffffffffffffffffffffffffffffffffff8151168552602081015160208601526040810151604086015260608101516060860152015116910152565b61010060a4870152610104860190614c55565b9160c48501527ffffffffffffffffffffffffffffffffffffffffffffffffffffffffffffffffc8483030160e4850152614c55565b03818373ffffffffffffffffffffffffffffffffffffffff7f0000000000000000000000000000000000000000000000000000000000000000165af1801561025e576121bd575b50507f95b55f38d05a2c5664b9788437177cc4cd38ad59294ccd15d9527664355380ec604073ffffffffffffffffffffffffffffffffffffffff8351169281602082015191015182519182526020820152a26110cd565b6121c6906143db565b611301578486612166565b825183016102e084820312611301576121fb60206121f0818701614a1a565b920160408601614874565b906102c0850151906102e0860151916001608086015151036123e55773ffffffffffffffffffffffffffffffffffffffff6122396080870151614aa1565b51511690602061224c6080880151614aa1565b5101519384148015906123dd575b610269576122688483615a30565b612293847f000000000000000000000000000000000000000000000000000000000000000084615972565b6040517fce0a052000000000000000000000000000000000000000000000000000000000815273ffffffffffffffffffffffffffffffffffffffff841660048201526122e26024820187614adb565b816102a4820152826102c48201526020816102e4818d73ffffffffffffffffffffffffffffffffffffffff7f0000000000000000000000000000000000000000000000000000000000000000165af180156123d2576123a1575b50917f0549e9d7f50b926aceb439878f555ff5bf5fa52e67dae01dd5e68f46831e1fd39373ffffffffffffffffffffffffffffffffffffffff926102e0946123876040518099614adb565b6102808801526102a08701526102c08601521692a26110c4565b60209081949293943d83116123cb575b6123bb818361447b565b810103126106e25791908961233c565b503d6123b1565b6040513d8c823e3d90fd5b50831561225a565b60646040517f08c379a000000000000000000000000000000000000000000000000000000000815260206004820152601c60248201527f496e76616c696420746f6b656e20616d6f756e7473206c656e677468000000006044820152fd5b602490604051907f3319937b0000000000000000000000000000000000000000000000000000000082526004820152fd5b50808352600360205260ff6040842054161561106f565b604085360312610d8a576040602060249482516124a78161440b565b6124b08961430a565b815282890135838201528152019501949250610fe6565b60246040517fd7f73334000000000000000000000000000000000000000000000000000000008152336004820152fd5b506103007ffffffffffffffffffffffffffffffffffffffffffffffffffffffffffffffffc3601126102935761252b614209565b906125346142a1565b906102807fffffffffffffffffffffffffffffffffffffffffffffffffffffffffffffffbc3601126102935773ffffffffffffffffffffffffffffffffffffffff6102e435166102e435036106e25767ffffffffffffffff83168152600260205273ffffffffffffffffffffffffffffffffffffffff6040822054168152600360205260ff604082205416156106b8576125cc614603565b6102c43515610269576040517fa7f93ebd00000000000000000000000000000000000000000000000000000000815260208160048173ffffffffffffffffffffffffffffffffffffffff7f0000000000000000000000000000000000000000000000000000000000000000165afa801561025e578290612f77575b61265691506102c43590614a07565b604051907f5b6cca8000000000000000000000000000000000000000000000000000000000825273ffffffffffffffffffffffffffffffffffffffff6102e43516600483015260208260248173ffffffffffffffffffffffffffffffffffffffff7f0000000000000000000000000000000000000000000000000000000000000000165afa918215612f06578392612f3b575b5073ffffffffffffffffffffffffffffffffffffffff821615612f115760a073ffffffffffffffffffffffffffffffffffffffff926004604051809581937ffeaf968c000000000000000000000000000000000000000000000000000000008352165afa918215612f06578392612eb7575b5082821315612e8d576402540be400918083810204831481151715612e6057604051927f313ce56700000000000000000000000000000000000000000000000000000000845260208460048173ffffffffffffffffffffffffffffffffffffffff6102e435165afa938415612e55578594612e19575b50670de0b6b3a7640000918383810204831484151715612dec579160ff93916127fc930291026159e8565b9116916012831015612d77575060ff8260120311612d4a5761282361282992601203615a1f565b906159e8565b915b61284e8373ffffffffffffffffffffffffffffffffffffffff6102e43516614fbf565b61287383303373ffffffffffffffffffffffffffffffffffffffff6102e43516615142565b60405173ffffffffffffffffffffffffffffffffffffffff8316602082015260443560ff811681036106e25760ff16604082015260643560ff81168091036106e257606082015260843560ff81168091036106e257608082015260a43560ff81168091036106e25760a082015260c43560ff81168091036106e25760c082015260e43560ff81168091036106e25760e08201526101043560ff81168091036106e2576101008201526101243560ff81168091036106e2576101208201526101443560ff81168091036106e2576101408201526101643560ff81168091036106e2576101608201526101843560ff81168091036106e2576101808201526101a43560ff81168091036106e2576101a08201526101c43560ff81168091036106e2576101c08201526101e43560ff81168091036106e2576101e08201526102043560ff81168091036106e257610200820152610224358015158091036106e2576102208201526102443560ff81168091036106e257610240820152610264358015158091036106e2576102608201526102843560ff81168091036106e2576102808201526102a43580151581036106e25715156102a08201526102c4356102c08201526102e084818301528152610300810181811067ffffffffffffffff821117612d1d57604052612a66846102e4356151b1565b60606080604051612a76816143ef565b8281528260208201528260408201525f83820152015267ffffffffffffffff83165f52600260205273ffffffffffffffffffffffffffffffffffffffff60405f2054169081156106b857602095612b00612cb992612b2c612cbf96604051968b8801528a8752612ae58761440b565b6040519384915f8d8401526040808401526060830190614c55565b037fffffffffffffffffffffffffffffffffffffffffffffffffffffffffffffffe0810184528361447b565b73ffffffffffffffffffffffffffffffffffffffff5f5460401c169060405192612b5584614427565b622dc6c08452604051937f97a657c9000000000000000000000000000000000000000000000000000000008c86015251602485015260248452612b9784614443565b60405196612ba4886143ef565b87528a870152604086015260608501526080840152612c368173ffffffffffffffffffffffffffffffffffffffff7f000000000000000000000000000000000000000000000000000000000000000016612c178173ffffffffffffffffffffffffffffffffffffffff6102e4351661523c565b73ffffffffffffffffffffffffffffffffffffffff6102e4351661541d565b612c797f000000000000000000000000000000000000000000000000000000000000000073ffffffffffffffffffffffffffffffffffffffff6102e4351661523c565b7f000000000000000000000000000000000000000000000000000000000000000073ffffffffffffffffffffffffffffffffffffffff6102e4351661541d565b826156ca565b91827fd0b8c5ed1d955fe287fda914e47fa0bc1188c054366fdc1cb9c665c10c9d9cf98567ffffffffffffffff73ffffffffffffffffffffffffffffffffffffffff604051956102c435875216951693a46001600555604051908152f35b7f4e487b71000000000000000000000000000000000000000000000000000000005f52604160045260245ffd5b7f4e487b71000000000000000000000000000000000000000000000000000000005f52601160045260245ffd5b506012821115612de55760ff7fffffffffffffffffffffffffffffffffffffffffffffffffffffffffffffffee830111612d4a57612dd97fffffffffffffffffffffffffffffffffffffffffffffffffffffffffffffffee612ddf9301615a1f565b90614a07565b9161282b565b9050612ddf565b6024867f4e487b710000000000000000000000000000000000000000000000000000000081526011600452fd5b9093506020813d602011612e4d575b81612e356020938361447b565b8101031261130157612e46906147d0565b925f6127d1565b3d9150612e28565b6040513d87823e3d90fd5b6024847f4e487b710000000000000000000000000000000000000000000000000000000081526011600452fd5b60046040517fa3019c86000000000000000000000000000000000000000000000000000000008152fd5b90915060a0813d60a011612efe575b81612ed360a0938361447b565b810103126106e657612ee4816159d1565b50612ef66080602083015192016159d1565b50905f61275b565b3d9150612ec6565b6040513d85823e3d90fd5b60046040517f6c8b8de7000000000000000000000000000000000000000000000000000000008152fd5b9091506020813d602011612f6f575b81612f576020938361447b565b810103126106e657612f6890614a1a565b905f6126e9565b3d9150612f4a565b506020813d602011612fa3575b81612f916020938361447b565b810103126106e2576126569051612647565b3d9150612f84565b50346102935760207ffffffffffffffffffffffffffffffffffffffffffffffffffffffffffffffffc3601126102935760043590612fe761467b565b81156102695773ffffffffffffffffffffffffffffffffffffffff815460401c1691604051927f70a08231000000000000000000000000000000000000000000000000000000008452306004850152602084602481845afa938415612f06578394613095575b508382116130645790613061913390615972565b80f35b602484604051907f1116d9ef0000000000000000000000000000000000000000000000000000000082526004820152fd5b9093506020813d6020116130c1575b816130b16020938361447b565b810103126106e25751925f61304d565b3d91506130a4565b503461029357807ffffffffffffffffffffffffffffffffffffffffffffffffffffffffffffffffc3601126102935773ffffffffffffffffffffffffffffffffffffffff6020915460401c16604051908152f35b503461029357807ffffffffffffffffffffffffffffffffffffffffffffffffffffffffffffffffc3601126102935761315461467b565b5f73ffffffffffffffffffffffffffffffffffffffff6004547fffffffffffffffffffffffff00000000000000000000000000000000000000008116600455167f8be0079c531659141344cd1fd0a4f28419497f9722a3daafe3b4186f6b6457e08280a380f35b50346106e2576060807ffffffffffffffffffffffffffffffffffffffffffffffffffffffffffffffffc3601126106e2576131f4614209565b9160249283356132026142e7565b9267ffffffffffffffff831692835f526020956002875273ffffffffffffffffffffffffffffffffffffffff8060405f2054165f526003885260ff60405f205416156106b8578087169687156106b857817f000000000000000000000000000000000000000000000000000000000000000016604051957f7e4d03d8000000000000000000000000000000000000000000000000000000008752876004880152868c61028098899181865afa978815613634575f9861363f575b5050813b156106e2576040517f42842e0e00000000000000000000000000000000000000000000000000000000815233600482015230602482015260448101899052915f8360648183855af1928315613634578d93613621575b508b60405180947f5b16d9680000000000000000000000000000000000000000000000000000000082528b600483015281845afa92831561025e5782936135f2575b5046830361355057803b15610252578180918e8b60405194859384927f80f2036300000000000000000000000000000000000000000000000000000000845260048401525af1801561025e57908c9291613538575b50506133c76133f3926004988a6040519687958601614cee565b037fffffffffffffffffffffffffffffffffffffffffffffffffffffffffffffffe0810183528261447b565b935b6040519161340283614427565b5f8352836080604051613414816143ef565b828152828d8201528260408201525f838201520152875f5260028a528060405f2054169586156106b857604051968b8801528a87526134528761440b565b60405192600981101561350c5793838c9d936134a9828f977f95519b111edaffd68641c56e5ffce32883ef4bfbb37da2156501c7eff4b309f99c9a966134fa9c9a8a612b0093015260408084015287830190614c55565b5f5460401c16936040516134bc81614427565b6207a12081527f97a657c900000000000000000000000000000000000000000000000000000000604051978801525181870152855261093085614443565b948592604051908152a4604051908152f35b8c7f4e487b71000000000000000000000000000000000000000000000000000000005f5260216004525ffd5b819250613544906143db565b61029357808b916133ad565b9150919550803b15610252578180918c604051809481937f7b47ec1a0000000000000000000000000000000000000000000000000000000083528c60048401525af1801561025e576135de575b50506040805173ffffffffffffffffffffffffffffffffffffffff90951689860190815260208101879052600595916135d8918391016133c7565b936133f5565b6135e882916143db565b610293578061359d565b9092508b81813d831161361a575b61360a818361447b565b810103126106e25751915f613358565b503d613600565b61362c9192506143db565b5f905f613316565b6040513d5f823e3d90fd5b80919298503d8211613672575b613656818461447b565b820190828203126106e25761366a91614874565b955f806132bc565b503d61364c565b346106e2575f7ffffffffffffffffffffffffffffffffffffffffffffffffffffffffffffffffc3601126106e257602060405173ffffffffffffffffffffffffffffffffffffffff7f0000000000000000000000000000000000000000000000000000000000000000168152f35b346106e2575f7ffffffffffffffffffffffffffffffffffffffffffffffffffffffffffffffffc3601126106e257602073ffffffffffffffffffffffffffffffffffffffff60015416604051908152f35b346106e2575f7ffffffffffffffffffffffffffffffffffffffffffffffffffffffffffffffffc3601126106e257602067ffffffffffffffff5f5416604051908152f35b346106e2576060807ffffffffffffffffffffffffffffffffffffffffffffffffffffffffffffffffc3601126106e2576137b4614209565b67ffffffffffffffff91906024358381116106e257366023820112156106e2578060040135928484116106e2576024820191602436918660071b0101116106e2576044358581116106e25761380d903690600401614270565b919095841693845f526020966002885273ffffffffffffffffffffffffffffffffffffffff958660405f2054165f526003895260ff60405f205416156106b857848803610d4c576138b26138a69560405196879160408d8401526138748884018d8c614359565b907fffffffffffffffffffffffffffffffffffffffffffffffffffffffffffffffe0968785840301604086015261470a565b0383810187528661447b565b604051906138bf82614427565b5f82528460806040516138d1816143ef565b828152828d8201528260408201525f8382015201525f52600289528660405f2054169384156106b8577fc40f92ba5e837dc6a178798dc7c78f3936420be612221197dbaf149ed3a59f7997610cb06008948c610ca461393e9a6040519a838c0152828b52610c8c8b61440b565b92610d4160405192839287845287840191614359565b346106e2575f7ffffffffffffffffffffffffffffffffffffffffffffffffffffffffffffffffc3601126106e257602060405173ffffffffffffffffffffffffffffffffffffffff7f0000000000000000000000000000000000000000000000000000000000000000168152f35b346106e25760807ffffffffffffffffffffffffffffffffffffffffffffffffffffffffffffffffc3601126106e2576139f9614209565b602435613a046142e7565b906064359167ffffffffffffffff841690815f526020946002865273ffffffffffffffffffffffffffffffffffffffff908160405f2054165f526003875260ff60405f205416156106b857613a57614603565b81831692613a658785614fbf565b613a7187303387615142565b604051903389830152866040830152613aa488606092818486015287608086015260808552613a9f856143ef565b6151b1565b94816080604051613ab4816143ef565b828152828d8201528260408201525f838201520152865f5260028a528460405f2054169485156106b8578a613b1e8b94613bed99613b4a613be8986040519b868d0152858c52613b038c61440b565b60405194859160028884015260408084015285830190614c55565b037fffffffffffffffffffffffffffffffffffffffffffffffffffffffffffffffe0810185528461447b565b845f5460401c169260405194613b5f86614427565b6207a1208652604051957f97a657c9000000000000000000000000000000000000000000000000000000008288015251602487015260248652613ba186614443565b6040519b613bae8d6143ef565b8c528b015260408a015288015260808701527f0000000000000000000000000000000000000000000000000000000000000000169061541d565b6156ca565b9260405192835284830152827f80e9f53f7f7f7b19c2b2adb19df0805d08493490b6d67b4ff8d2d9920fdbf1d360403394a46001600555604051908152f35b346106e25760807ffffffffffffffffffffffffffffffffffffffffffffffffffffffffffffffffc3601126106e257613c636142c4565b50613c6c6142a1565b5060643567ffffffffffffffff81116106e257613c8d90369060040161432b565b505060206040517f150b7a02000000000000000000000000000000000000000000000000000000008152f35b346106e25760607ffffffffffffffffffffffffffffffffffffffffffffffffffffffffffffffffc3601126106e257613cf0614209565b613cf86142a1565b90604435918215158093036106e25773ffffffffffffffffffffffffffffffffffffffff90613d2561467b565b1680156106b8577fa54ce142349af8e389fe00f37d69e79664a287b29c8e325917962e92e4fe5fcd9267ffffffffffffffff602093165f526002835260405f20827fffffffffffffffffffffffff0000000000000000000000000000000000000000825416179055815f526003835260405f209060ff7fffffffffffffffffffffffffffffffffffffffffffffffffffffffffffffff008354169116179055604051908152a1005b346106e25760807ffffffffffffffffffffffffffffffffffffffffffffffffffffffffffffffffc3601126106e257613e04614209565b60249067ffffffffffffffff9082358281116106e257613e28903690600401614270565b9390916044358481116106e257613e43903690600401614270565b9390926064359573ffffffffffffffffffffffffffffffffffffffff808816918289036106e257851697885f5260209960028b528260405f2054165f5260038b5260ff60405f205416156106b857613e99614603565b888103610d4c578015610269575f945f905b8a82106140985750508490613ec08286614fbf565b613ecc82303388615142565b6040519687918d33908401526040830160a0905260c0830190613eee9261463e565b987fffffffffffffffffffffffffffffffffffffffffffffffffffffffffffffffe09960609b8b848303018d850152613f269261463e565b8560808301528260a0830152038881018752613f42908761447b565b613f4b916151b1565b9587604051613f59816143ef565b818152818c8201528160408201528181015f905260800152885f5260028a528160405f2054169485156106b857614064988b98613fc78a9461061794613be89a6040519d8e0152868d52613fac8d61440b565b60405195869160068984015260408084015286830190614c55565b845f5460401c1692604051613fdb81614427565b6207a12081527f97a657c900000000000000000000000000000000000000000000000000000000604051968701525160248601526024855261401c85614443565b6040519a6140298c6143ef565b8b528d8b015260408a015288015260808701527f0000000000000000000000000000000000000000000000000000000000000000169061541d565b604051913390827fc3cfbc41fdf2854a8b8598251acff98cb7e98fba5428a216647848b5f8d1c0af5f80a460016005558152f35b90958660051b8a013581018091116140b4579560010190613eab565b507f4e487b71000000000000000000000000000000000000000000000000000000005f5260116004525ffd5b346106e25760207ffffffffffffffffffffffffffffffffffffffffffffffffffffffffffffffffc3601126106e25767ffffffffffffffff614120614209565b165f526002602052602073ffffffffffffffffffffffffffffffffffffffff60405f205416604051908152f35b346106e25760207ffffffffffffffffffffffffffffffffffffffffffffffffffffffffffffffffc3601126106e257600435907fffffffff0000000000000000000000000000000000000000000000000000000082168092036106e257817f85572ffb00000000000000000000000000000000000000000000000000000000602093149081156141df575b5015158152f35b7f01ffc9a700000000000000000000000000000000000000000000000000000000915014836141d8565b6004359067ffffffffffffffff821682036106e257565b359067ffffffffffffffff821682036106e257565b346106e2575f7ffffffffffffffffffffffffffffffffffffffffffffffffffffffffffffffffc3601126106e25760206040516207a1208152f35b9181601f840112156106e25782359167ffffffffffffffff83116106e2576020808501948460051b0101116106e257565b6024359073ffffffffffffffffffffffffffffffffffffffff821682036106e257565b6004359073ffffffffffffffffffffffffffffffffffffffff821682036106e257565b6044359073ffffffffffffffffffffffffffffffffffffffff821682036106e257565b359073ffffffffffffffffffffffffffffffffffffffff821682036106e257565b9181601f840112156106e25782359167ffffffffffffffff83116106e257602083818601950101116106e257565b9190808252602080920192915f905b828210614376575050505090565b9091929360019073ffffffffffffffffffffffffffffffffffffffff61439b8761430a565b168152828601358382015260408087013590820152606067ffffffffffffffff6143c6828901614220565b16908201526080908101950193920190614368565b67ffffffffffffffff8111612d1d57604052565b60a0810190811067ffffffffffffffff821117612d1d57604052565b6040810190811067ffffffffffffffff821117612d1d57604052565b6020810190811067ffffffffffffffff821117612d1d57604052565b6060810190811067ffffffffffffffff821117612d1d57604052565b6080810190811067ffffffffffffffff821117612d1d57604052565b90601f7fffffffffffffffffffffffffffffffffffffffffffffffffffffffffffffffe0910116810190811067ffffffffffffffff821117612d1d57604052565b67ffffffffffffffff8111612d1d57601f017fffffffffffffffffffffffffffffffffffffffffffffffffffffffffffffffe01660200190565b81601f820112156106e25780359061450d826144bc565b9261451b604051948561447b565b828452602083830101116106e257815f926020809301838601378301015290565b67ffffffffffffffff8111612d1d5760051b60200190565b9190808252602080920192915f905b828210614571575050505090565b9091929360019073ffffffffffffffffffffffffffffffffffffffff6145968761430a565b16815282860135838201526040808701359082015260608087013590820152608067ffffffffffffffff6145cb828901614220565b169082015260a0908101950193920190614563565b60243573ffffffffffffffffffffffffffffffffffffffff811681036106e25790565b600260055414614614576002600555565b60046040517f3ee5aeb5000000000000000000000000000000000000000000000000000000008152fd5b90918281527f07ffffffffffffffffffffffffffffffffffffffffffffffffffffffffffffff83116106e25760209260051b809284830137010190565b73ffffffffffffffffffffffffffffffffffffffff60045416330361469c57565b60246040517f118cdaa7000000000000000000000000000000000000000000000000000000008152336004820152fd5b601f82602094937fffffffffffffffffffffffffffffffffffffffffffffffffffffffffffffffe093818652868601375f8582860101520116010190565b908281815260208091019360208360051b82010194845f925b858410614734575050505050505090565b909192939495967fffffffffffffffffffffffffffffffffffffffffffffffffffffffffffffffe082820301845287357fffffffffffffffffffffffffffffffffffffffffffffffffffffffffffffffe1843603018112156106e257830186810191903567ffffffffffffffff81116106e25780360383136106e2576147bf889283926001956146cc565b990194019401929594939190614723565b519060ff821682036106e257565b91908260409103126106e2576040516147f68161440b565b602061480f818395614807816147d0565b8552016147d0565b910152565b91908260609103126106e2576040516060810181811067ffffffffffffffff821117612d1d57604052604061480f81839561484e816147d0565b855261485c602082016147d0565b6020860152016147d0565b519081151582036106e257565b9190918083039061028082126106e25760409182519060c0820182811067ffffffffffffffff821117612d1d57845281956148af81856147de565b83526148bd818686016147de565b60208401526148cf8160808601614814565b8584015260a07fffffffffffffffffffffffffffffffffffffffffffffffffffffffffffffff208301126106e25760a0916149947ffffffffffffffffffffffffffffffffffffffffffffffffffffffffffffffe20928751614930816143ef565b61493c60e089016147d0565b815261494b61010089016147d0565b602082015261495d61012089016147d0565b8982015261496e61014089016147d0565b606082015261498061016089016147d0565b608082015260608701526101808701614814565b608085015201126106e2576149fe61026060a0938551956149b4876143ef565b6149c16101e08301614867565b87526149d061020083016147d0565b60208801526149e26102208301614867565b908701526149f361024082016147d0565b606087015201614867565b60808401520152565b81810292918115918404141715612d4a57565b519073ffffffffffffffffffffffffffffffffffffffff821682036106e257565b5f5b838110614a4c5750505f910152565b8181015183820152602001614a3d565b81601f820112156106e2578051614a72816144bc565b92614a80604051948561447b565b818452602082840101116106e257614a9e9160208085019101614a3b565b90565b805115614aae5760200190565b7f4e487b71000000000000000000000000000000000000000000000000000000005f52603260045260245ffd5b60808060a061026093614afe86825160ff60208092828151168552015116910152565b602081810151805160ff90811660408a0152910151166060870152614b4560408201518488019060ff60408092828151168552826020820151166020860152015116910152565b606081015160ff9381858093511660e08a0152826020820151166101008a0152826040820151166101208a0152826060820151166101408a0152015116610160870152614bb58482015161018088019060ff60408092828151168552826020820151166020860152015116910152565b015190815115156101e0860152806020830151166102008601526040820151151561022086015260608201511661024085015201511515910152565b519067ffffffffffffffff821682036106e257565b91908260a09103126106e257604051614c1e816143ef565b608061480f818395614c2f81614a1a565b855260208101516020860152604081015160408601526060810151606086015201614bf1565b907fffffffffffffffffffffffffffffffffffffffffffffffffffffffffffffffe0601f602093614c9181518092818752878088019101614a3b565b0116010190565b91908260809103126106e2576040516080810181811067ffffffffffffffff821117612d1d57604052606061480f818395614cd281614a1a565b8552602081015160208601526040810151604086015201614bf1565b90949392614d27906102c09373ffffffffffffffffffffffffffffffffffffffff6102e085019816845260208401526040830190614adb565b0152565b9080601f830112156106e257815190602091614d468161453c565b93614d54604051958661447b565b81855260208086019260051b8201019283116106e257602001905b828210614d7d575050505090565b81518152908301908301614d6f565b9081518082526020808093019301915f5b828110614dab575050505090565b835185529381019392810192600101614d9d565b81601f820112156106e257805191602091614dd98461453c565b93614de7604051958661447b565b808552838086019160051b830101928084116106e257848301915b848310614e125750505050505090565b825167ffffffffffffffff81116106e2578691614e3484848094890101614a5c565b815201920191614e02565b9081518082526020808093019301915f5b828110614e5e575050505090565b909192938260a082614ebb600194895167ffffffffffffffff6080809273ffffffffffffffffffffffffffffffffffffffff8151168552602081015160208601526040810151604086015260608101516060860152015116910152565b01950193929101614e50565b90808251908181526020809101926020808460051b8301019501935f915b848310614ef55750505050505090565b9091929394958480614f31837fffffffffffffffffffffffffffffffffffffffffffffffffffffffffffffffe086600196030187528a51614c55565b9801930193019194939290614ee5565b9081518082526020808093019301915f5b828110614f60575050505090565b9091929382608082614fb3600194895167ffffffffffffffff6060809273ffffffffffffffffffffffffffffffffffffffff81511685526020810151602086015260408101516040860152015116910152565b01950193929101614f52565b604080517fdd62ed3e00000000000000000000000000000000000000000000000000000000815233600482015230602482015290929160209173ffffffffffffffffffffffffffffffffffffffff909116908281604481855afa908115615138579084915f91615107575b50106150de57816024918551928380927f70a082310000000000000000000000000000000000000000000000000000000082523360048301525afa9182156150d4575f926150a6575b50501061507d5750565b600490517f68724d74000000000000000000000000000000000000000000000000000000008152fd5b90809250813d83116150cd575b6150bd818361447b565b810103126106e257515f80615073565b503d6150b3565b84513d5f823e3d90fd5b600484517f2c283f55000000000000000000000000000000000000000000000000000000008152fd5b809250848092503d8311615131575b615120818361447b565b810103126106e2578390515f61502a565b503d615116565b85513d5f823e3d90fd5b6040517f23b872dd00000000000000000000000000000000000000000000000000000000602082015273ffffffffffffffffffffffffffffffffffffffff928316602482015292909116604483015260648201929092526151af916151aa8260848101612b00565b615ab1565b565b9190604092604051916151c38361440b565b600183525f5b6020808210156151f5578651602092916151e28261440b565b5f82525f818301528287010152016151c9565b505093509061523991819473ffffffffffffffffffffffffffffffffffffffff604051926152228461440b565b168252602082015261523382614aa1565b52614aa1565b50565b906151af9173ffffffffffffffffffffffffffffffffffffffff604051927f095ea7b30000000000000000000000000000000000000000000000000000000060208501521660248301525f6044830152604482526151aa8261445f565b6040517fdd62ed3e00000000000000000000000000000000000000000000000000000000815230600482015273ffffffffffffffffffffffffffffffffffffffff83811660248301529293926020929183816044818686165afa908115613634575f916153f0575b5061536c576151af93947f095ea7b300000000000000000000000000000000000000000000000000000000604051948501521660248301527fffffffffffffffffffffffffffffffffffffffffffffffffffffffffffffffff6044830152604482526151aa8261445f565b608483604051907f08c379a00000000000000000000000000000000000000000000000000000000082526004820152603660248201527f5361666545524332303a20617070726f76652066726f6d206e6f6e2d7a65726f60448201527f20746f206e6f6e2d7a65726f20616c6c6f77616e6365000000000000000000006064820152fd5b90508381813d8311615416575b615407818361447b565b810103126106e257515f615301565b503d6153fd565b91909181158015615512575b1561548e576040517f095ea7b300000000000000000000000000000000000000000000000000000000602082015273ffffffffffffffffffffffffffffffffffffffff909316602484015260448301919091526151af91906151aa8260648101612b00565b60846040517f08c379a000000000000000000000000000000000000000000000000000000000815260206004820152603660248201527f5361666545524332303a20617070726f76652066726f6d206e6f6e2d7a65726f60448201527f20746f206e6f6e2d7a65726f20616c6c6f77616e6365000000000000000000006064820152fd5b506040517fdd62ed3e00000000000000000000000000000000000000000000000000000000815230600482015273ffffffffffffffffffffffffffffffffffffffff841660248201526020818060448101038173ffffffffffffffffffffffffffffffffffffffff86165afa908115613634575f91615593575b5015615429565b90506020813d6020116155bd575b816155ae6020938361447b565b810103126106e257515f61558c565b3d91506155a1565b9092919267ffffffffffffffff6040911682526020916040838201526155f7855160a0604084015260e0830190614c55565b9161563184870151937fffffffffffffffffffffffffffffffffffffffffffffffffffffffffffffffc09485858303016060860152614c55565b604087015194848483030160808501528080875193848152019601925f905b83821061569457505050505060c060808673ffffffffffffffffffffffffffffffffffffffff6060614a9e989901511660a085015201519282850301910152614c55565b8451805173ffffffffffffffffffffffffffffffffffffffff168952830151888401529687019693820193600190910190615650565b73ffffffffffffffffffffffffffffffffffffffff807f0000000000000000000000000000000000000000000000000000000000000000169260409384517f20487ded00000000000000000000000000000000000000000000000000000000815260209384828061573f878a600484016155c5565b0381865afa918215615968575f92615939575b505f54871c169086517f70a082310000000000000000000000000000000000000000000000000000000081523060048201528581602481865afa90811561592f575f91615902575b5081116158d25786517f095ea7b300000000000000000000000000000000000000000000000000000000815273ffffffffffffffffffffffffffffffffffffffff841660048201526024810191909152908490829060449082905f905af180156158c85761588a575b50908291615840945f87518097819582947f96f4e9f9000000000000000000000000000000000000000000000000000000008452600484016155c5565b03925af192831561588157505f9261585757505090565b90809250813d831161587a575b61586e818361447b565b810103126106e2575190565b503d615864565b513d5f823e3d90fd5b91908383813d83116158c1575b6158a1818361447b565b810103126106e257615840946158b78594614867565b5094509091615803565b503d615897565b86513d5f823e3d90fd5b6024908751907f1116d9ef0000000000000000000000000000000000000000000000000000000082526004820152fd5b90508581813d8311615928575b615919818361447b565b810103126106e257515f61579a565b503d61590f565b88513d5f823e3d90fd5b9091508481813d8311615961575b615951818361447b565b810103126106e25751905f615752565b503d615947565b87513d5f823e3d90fd5b6040517fa9059cbb00000000000000000000000000000000000000000000000000000000602082015273ffffffffffffffffffffffffffffffffffffffff909216602483015260448201929092526151af916151aa8260648101612b00565b519069ffffffffffffffffffff821682036106e257565b81156159f2570490565b7f4e487b71000000000000000000000000000000000000000000000000000000005f52601260045260245ffd5b60ff16604d8111612d4a57600a0a90565b906151af91615a6a827f0000000000000000000000000000000000000000000000000000000000000000615a64818561523c565b8361541d565b73ffffffffffffffffffffffffffffffffffffffff7f00000000000000000000000000000000000000000000000000000000000000001690615aac828261523c565b61541d565b604051615b399173ffffffffffffffffffffffffffffffffffffffff16615ad78261440b565b5f806020958685527f5361666545524332303a206c6f772d6c6576656c2063616c6c206661696c656487860152868151910182855af13d15615be7573d91615b1e836144bc565b92615b2c604051948561447b565b83523d5f8785013e615beb565b805180615b4557505050565b818391810103126106e25781615b5b9101614867565b15615b635750565b608490604051907f08c379a00000000000000000000000000000000000000000000000000000000082526004820152602a60248201527f5361666545524332303a204552433230206f7065726174696f6e20646964206e60448201527f6f742073756363656564000000000000000000000000000000000000000000006064820152fd5b6060915b91929015615c665750815115615bff575090565b3b15615c085790565b60646040517f08c379a000000000000000000000000000000000000000000000000000000000815260206004820152601d60248201527f416464726573733a2063616c6c20746f206e6f6e2d636f6e74726163740000006044820152fd5b825190915015615c795750805190602001fd5b615cb7906040519182917f08c379a0000000000000000000000000000000000000000000000000000000008352602060048401526024830190614c55565b0390fdfea26469706673582212206c1444141ac3b0ea676bc00efd640225ec268afddf36c70fdf2afa914e033ad264736f6c63430008180033",
    "linkReferences": {}
  },
  "methodIdentifiers": {
    "ADDITIONAL_FEED_PRECISION()": "a0da12a5",
    "GAS_LIMIT_BUY()": "10488413",
    "GAS_LIMIT_MINT()": "a700a39c",
    "GAS_LIMIT_SELL()": "ab895eb8",
    "GAS_LIMIT_TRANSFER()": "ddf36e23",
    "PRECISION()": "aaf5eb68",
    "ccipReceive((bytes32,uint64,bytes,bytes,(address,uint256)[]))": "85572ffb",
    "depositLink(uint256)": "f9eafa70",
    "getRouter()": "b0f479a1",
    "i_beanHeadsContract()": "2c406d44",
    "i_router()": "581bdd16",
    "onERC721Received(address,address,uint256,bytes)": "150b7a02",
    "owner()": "8da5cb5b",
    "renounceOwnership()": "715018a6",
    "s_chainToRemoteBridge(uint64)": "100ebffc",
    "s_destChain()": "41b8b269",
    "s_linkToken()": "7725135b",
    "s_remoteBridgeAddresses(address)": "f565b926",
    "s_usdcToken()": "4fdb1ace",
    "sendBatchBuyTokenRequest(uint64,uint256[],uint256[],address)": "1179680f",
    "sendBatchCancelTokenSaleRequest(uint64,(address,uint256,uint256,uint64)[],bytes[])": "38c72353",
    "sendBatchSellTokenRequest(uint64,(address,uint256,uint256,uint256,uint64)[],bytes[],uint256[],bytes[])": "aa7ab1ab",
    "sendBuyTokenRequest(uint64,uint256,address,uint256)": "232df00d",
    "sendCancelTokenSaleRequest(uint64,(address,uint256,uint256,uint64),bytes)": "b1a778ab",
    "sendMintTokenRequest(uint64,address,((uint8,uint8),(uint8,uint8),(uint8,uint8,uint8),(uint8,uint8,uint8,uint8,uint8),(uint8,uint8,uint8),(bool,uint8,bool,uint8,bool)),uint256,address)": "7b0ef209",
    "sendSellTokenRequest(uint64,(address,uint256,uint256,uint256,uint64),bytes,uint256,bytes)": "ef74cd76",
    "sendTransferTokenRequest(uint64,uint256,address)": "62cd6c90",
    "setRemoteBridge(uint64,address,bool)": "11d82d55",
    "supportsInterface(bytes4)": "01ffc9a7",
    "transferOwnership(address)": "f2fde38b",
    "withdrawLink(uint256)": "7a8042bd"
  },
  "id": 113
}