{
  "abi": [
    {
      "type": "function",
      "name": "approve",
      "inputs": [
        {
          "name": "to",
          "type": "address",
          "internalType": "address"
        },
        {
          "name": "tokenId",
          "type": "uint256",
          "internalType": "uint256"
        }
      ],
      "outputs": [],
      "stateMutability": "payable"
    },
    {
      "type": "function",
      "name": "balanceOf",
      "inputs": [
        {
          "name": "owner",
          "type": "address",
          "internalType": "address"
        }
      ],
      "outputs": [
        {
          "name": "",
          "type": "uint256",
          "internalType": "uint256"
        }
      ],
      "stateMutability": "view"
    },
    {
      "type": "function",
      "name": "burnToken",
      "inputs": [
        {
          "name": "_tokenId",
          "type": "uint256",
          "internalType": "uint256"
        }
      ],
      "outputs": [],
      "stateMutability": "nonpayable"
    },
    {
      "type": "function",
      "name": "getApproved",
      "inputs": [
        {
          "name": "tokenId",
          "type": "uint256",
          "internalType": "uint256"
        }
      ],
      "outputs": [
        {
          "name": "",
          "type": "address",
          "internalType": "address"
        }
      ],
      "stateMutability": "view"
    },
    {
      "type": "function",
      "name": "getNextTokenId",
      "inputs": [],
      "outputs": [
        {
          "name": "",
          "type": "uint256",
          "internalType": "uint256"
        }
      ],
      "stateMutability": "view"
    },
    {
      "type": "function",
      "name": "getOwnerOf",
      "inputs": [
        {
          "name": "_tokenId",
          "type": "uint256",
          "internalType": "uint256"
        }
      ],
      "outputs": [
        {
          "name": "",
          "type": "address",
          "internalType": "address"
        }
      ],
      "stateMutability": "view"
    },
    {
      "type": "function",
      "name": "getTotalSupply",
      "inputs": [],
      "outputs": [
        {
          "name": "",
          "type": "uint256",
          "internalType": "uint256"
        }
      ],
      "stateMutability": "view"
    },
    {
      "type": "function",
      "name": "isApprovedForAll",
      "inputs": [
        {
          "name": "owner",
          "type": "address",
          "internalType": "address"
        },
        {
          "name": "operator",
          "type": "address",
          "internalType": "address"
        }
      ],
      "outputs": [
        {
          "name": "",
          "type": "bool",
          "internalType": "bool"
        }
      ],
      "stateMutability": "view"
    },
    {
      "type": "function",
      "name": "lockToken",
      "inputs": [
        {
          "name": "_tokenId",
          "type": "uint256",
          "internalType": "uint256"
        }
      ],
      "outputs": [],
      "stateMutability": "nonpayable"
    },
    {
      "type": "function",
      "name": "mintBridgeToken",
      "inputs": [
        {
          "name": "_to",
          "type": "address",
          "internalType": "address"
        },
        {
          "name": "_tokenId",
          "type": "uint256",
          "internalType": "uint256"
        },
        {
          "name": "_params",
          "type": "tuple",
          "internalType": "struct Genesis.SVGParams",
          "components": [
            {
              "name": "hairParams",
              "type": "tuple",
              "internalType": "struct Genesis.HairParams",
              "components": [
                {
                  "name": "hairStyle",
                  "type": "uint8",
                  "internalType": "uint8"
                },
                {
                  "name": "hairColor",
                  "type": "uint8",
                  "internalType": "uint8"
                }
              ]
            },
            {
              "name": "bodyParams",
              "type": "tuple",
              "internalType": "struct Genesis.BodyParams",
              "components": [
                {
                  "name": "bodyType",
                  "type": "uint8",
                  "internalType": "uint8"
                },
                {
                  "name": "skinColor",
                  "type": "uint8",
                  "internalType": "uint8"
                }
              ]
            },
            {
              "name": "clothingParams",
              "type": "tuple",
              "internalType": "struct Genesis.ClothingParams",
              "components": [
                {
                  "name": "clothes",
                  "type": "uint8",
                  "internalType": "uint8"
                },
                {
                  "name": "clothingColor",
                  "type": "uint8",
                  "internalType": "uint8"
                },
                {
                  "name": "clothesGraphic",
                  "type": "uint8",
                  "internalType": "uint8"
                }
              ]
            },
            {
              "name": "facialFeaturesParams",
              "type": "tuple",
              "internalType": "struct Genesis.FacialFeaturesParams",
              "components": [
                {
                  "name": "eyebrowShape",
                  "type": "uint8",
                  "internalType": "uint8"
                },
                {
                  "name": "eyeShape",
                  "type": "uint8",
                  "internalType": "uint8"
                },
                {
                  "name": "facialHairType",
                  "type": "uint8",
                  "internalType": "uint8"
                },
                {
                  "name": "mouthStyle",
                  "type": "uint8",
                  "internalType": "uint8"
                },
                {
                  "name": "lipColor",
                  "type": "uint8",
                  "internalType": "uint8"
                }
              ]
            },
            {
              "name": "accessoryParams",
              "type": "tuple",
              "internalType": "struct Genesis.AccessoryParams",
              "components": [
                {
                  "name": "accessoryId",
                  "type": "uint8",
                  "internalType": "uint8"
                },
                {
                  "name": "hatStyle",
                  "type": "uint8",
                  "internalType": "uint8"
                },
                {
                  "name": "hatColor",
                  "type": "uint8",
                  "internalType": "uint8"
                }
              ]
            },
            {
              "name": "otherParams",
              "type": "tuple",
              "internalType": "struct Genesis.OtherParams",
              "components": [
                {
                  "name": "faceMask",
                  "type": "bool",
                  "internalType": "bool"
                },
                {
                  "name": "faceMaskColor",
                  "type": "uint8",
                  "internalType": "uint8"
                },
                {
                  "name": "shapes",
                  "type": "bool",
                  "internalType": "bool"
                },
                {
                  "name": "shapeColor",
                  "type": "uint8",
                  "internalType": "uint8"
                },
                {
                  "name": "lashes",
                  "type": "bool",
                  "internalType": "bool"
                }
              ]
            }
          ]
        },
        {
          "name": "_originChainId",
          "type": "uint256",
          "internalType": "uint256"
        }
      ],
      "outputs": [],
      "stateMutability": "nonpayable"
    },
    {
      "type": "function",
      "name": "mintGenesis",
      "inputs": [
        {
          "name": "_to",
          "type": "address",
          "internalType": "address"
        },
        {
          "name": "_params",
          "type": "tuple",
          "internalType": "struct Genesis.SVGParams",
          "components": [
            {
              "name": "hairParams",
              "type": "tuple",
              "internalType": "struct Genesis.HairParams",
              "components": [
                {
                  "name": "hairStyle",
                  "type": "uint8",
                  "internalType": "uint8"
                },
                {
                  "name": "hairColor",
                  "type": "uint8",
                  "internalType": "uint8"
                }
              ]
            },
            {
              "name": "bodyParams",
              "type": "tuple",
              "internalType": "struct Genesis.BodyParams",
              "components": [
                {
                  "name": "bodyType",
                  "type": "uint8",
                  "internalType": "uint8"
                },
                {
                  "name": "skinColor",
                  "type": "uint8",
                  "internalType": "uint8"
                }
              ]
            },
            {
              "name": "clothingParams",
              "type": "tuple",
              "internalType": "struct Genesis.ClothingParams",
              "components": [
                {
                  "name": "clothes",
                  "type": "uint8",
                  "internalType": "uint8"
                },
                {
                  "name": "clothingColor",
                  "type": "uint8",
                  "internalType": "uint8"
                },
                {
                  "name": "clothesGraphic",
                  "type": "uint8",
                  "internalType": "uint8"
                }
              ]
            },
            {
              "name": "facialFeaturesParams",
              "type": "tuple",
              "internalType": "struct Genesis.FacialFeaturesParams",
              "components": [
                {
                  "name": "eyebrowShape",
                  "type": "uint8",
                  "internalType": "uint8"
                },
                {
                  "name": "eyeShape",
                  "type": "uint8",
                  "internalType": "uint8"
                },
                {
                  "name": "facialHairType",
                  "type": "uint8",
                  "internalType": "uint8"
                },
                {
                  "name": "mouthStyle",
                  "type": "uint8",
                  "internalType": "uint8"
                },
                {
                  "name": "lipColor",
                  "type": "uint8",
                  "internalType": "uint8"
                }
              ]
            },
            {
              "name": "accessoryParams",
              "type": "tuple",
              "internalType": "struct Genesis.AccessoryParams",
              "components": [
                {
                  "name": "accessoryId",
                  "type": "uint8",
                  "internalType": "uint8"
                },
                {
                  "name": "hatStyle",
                  "type": "uint8",
                  "internalType": "uint8"
                },
                {
                  "name": "hatColor",
                  "type": "uint8",
                  "internalType": "uint8"
                }
              ]
            },
            {
              "name": "otherParams",
              "type": "tuple",
              "internalType": "struct Genesis.OtherParams",
              "components": [
                {
                  "name": "faceMask",
                  "type": "bool",
                  "internalType": "bool"
                },
                {
                  "name": "faceMaskColor",
                  "type": "uint8",
                  "internalType": "uint8"
                },
                {
                  "name": "shapes",
                  "type": "bool",
                  "internalType": "bool"
                },
                {
                  "name": "shapeColor",
                  "type": "uint8",
                  "internalType": "uint8"
                },
                {
                  "name": "lashes",
                  "type": "bool",
                  "internalType": "bool"
                }
              ]
            }
          ]
        },
        {
          "name": "_amount",
          "type": "uint256",
          "internalType": "uint256"
        },
        {
          "name": "_paymentToken",
          "type": "address",
          "internalType": "address"
        }
      ],
      "outputs": [
        {
          "name": "_tokenId",
          "type": "uint256",
          "internalType": "uint256"
        }
      ],
      "stateMutability": "nonpayable"
    },
    {
      "type": "function",
      "name": "name",
      "inputs": [],
      "outputs": [
        {
          "name": "",
          "type": "string",
          "internalType": "string"
        }
      ],
      "stateMutability": "view"
    },
    {
      "type": "function",
      "name": "ownerOf",
      "inputs": [
        {
          "name": "tokenId",
          "type": "uint256",
          "internalType": "uint256"
        }
      ],
      "outputs": [
        {
          "name": "",
          "type": "address",
          "internalType": "address"
        }
      ],
      "stateMutability": "view"
    },
    {
      "type": "function",
      "name": "safeTransferFrom",
      "inputs": [
        {
          "name": "from",
          "type": "address",
          "internalType": "address"
        },
        {
          "name": "to",
          "type": "address",
          "internalType": "address"
        },
        {
          "name": "tokenId",
          "type": "uint256",
          "internalType": "uint256"
        }
      ],
      "outputs": [],
      "stateMutability": "payable"
    },
    {
      "type": "function",
      "name": "safeTransferFrom",
      "inputs": [
        {
          "name": "from",
          "type": "address",
          "internalType": "address"
        },
        {
          "name": "to",
          "type": "address",
          "internalType": "address"
        },
        {
          "name": "tokenId",
          "type": "uint256",
          "internalType": "uint256"
        },
        {
          "name": "data",
          "type": "bytes",
          "internalType": "bytes"
        }
      ],
      "outputs": [],
      "stateMutability": "payable"
    },
    {
      "type": "function",
      "name": "setApprovalForAll",
      "inputs": [
        {
          "name": "operator",
          "type": "address",
          "internalType": "address"
        },
        {
          "name": "approved",
          "type": "bool",
          "internalType": "bool"
        }
      ],
      "outputs": [],
      "stateMutability": "nonpayable"
    },
    {
      "type": "function",
      "name": "symbol",
      "inputs": [],
      "outputs": [
        {
          "name": "",
          "type": "string",
          "internalType": "string"
        }
      ],
      "stateMutability": "view"
    },
    {
      "type": "function",
      "name": "totalSupply",
      "inputs": [],
      "outputs": [
        {
          "name": "",
          "type": "uint256",
          "internalType": "uint256"
        }
      ],
      "stateMutability": "view"
    },
    {
      "type": "function",
      "name": "transferFrom",
      "inputs": [
        {
          "name": "from",
          "type": "address",
          "internalType": "address"
        },
        {
          "name": "to",
          "type": "address",
          "internalType": "address"
        },
        {
          "name": "tokenId",
          "type": "uint256",
          "internalType": "uint256"
        }
      ],
      "outputs": [],
      "stateMutability": "payable"
    },
    {
      "type": "function",
      "name": "unlockToken",
      "inputs": [
        {
          "name": "_tokenId",
          "type": "uint256",
          "internalType": "uint256"
        }
      ],
      "outputs": [],
      "stateMutability": "nonpayable"
    },
    {
      "type": "event",
      "name": "Approval",
      "inputs": [
        {
          "name": "owner",
          "type": "address",
          "indexed": true,
          "internalType": "address"
        },
        {
          "name": "approved",
          "type": "address",
          "indexed": true,
          "internalType": "address"
        },
        {
          "name": "tokenId",
          "type": "uint256",
          "indexed": true,
          "internalType": "uint256"
        }
      ],
      "anonymous": false
    },
    {
      "type": "event",
      "name": "ApprovalForAll",
      "inputs": [
        {
          "name": "owner",
          "type": "address",
          "indexed": true,
          "internalType": "address"
        },
        {
          "name": "operator",
          "type": "address",
          "indexed": true,
          "internalType": "address"
        },
        {
          "name": "approved",
          "type": "bool",
          "indexed": false,
          "internalType": "bool"
        }
      ],
      "anonymous": false
    },
    {
      "type": "event",
      "name": "ConsecutiveTransfer",
      "inputs": [
        {
          "name": "fromTokenId",
          "type": "uint256",
          "indexed": true,
          "internalType": "uint256"
        },
        {
          "name": "toTokenId",
          "type": "uint256",
          "indexed": false,
          "internalType": "uint256"
        },
        {
          "name": "from",
          "type": "address",
          "indexed": true,
          "internalType": "address"
        },
        {
          "name": "to",
          "type": "address",
          "indexed": true,
          "internalType": "address"
        }
      ],
      "anonymous": false
    },
    {
      "type": "event",
      "name": "MintedGenesis",
      "inputs": [
        {
          "name": "owner",
          "type": "address",
          "indexed": true,
          "internalType": "address"
        },
        {
          "name": "tokenId",
          "type": "uint256",
          "indexed": true,
          "internalType": "uint256"
        }
      ],
      "anonymous": false
    },
    {
      "type": "event",
      "name": "ReturnedToSource",
      "inputs": [
        {
          "name": "owner",
          "type": "address",
          "indexed": true,
          "internalType": "address"
        },
        {
          "name": "tokenId",
          "type": "uint256",
          "indexed": true,
          "internalType": "uint256"
        }
      ],
      "anonymous": false
    },
    {
      "type": "event",
      "name": "TokenBurned",
      "inputs": [
        {
          "name": "owner",
          "type": "address",
          "indexed": true,
          "internalType": "address"
        },
        {
          "name": "tokenId",
          "type": "uint256",
          "indexed": true,
          "internalType": "uint256"
        }
      ],
      "anonymous": false
    },
    {
      "type": "event",
      "name": "Transfer",
      "inputs": [
        {
          "name": "from",
          "type": "address",
          "indexed": true,
          "internalType": "address"
        },
        {
          "name": "to",
          "type": "address",
          "indexed": true,
          "internalType": "address"
        },
        {
          "name": "tokenId",
          "type": "uint256",
          "indexed": true,
          "internalType": "uint256"
        }
      ],
      "anonymous": false
    },
    {
      "type": "error",
      "name": "ApprovalCallerNotOwnerNorApproved",
      "inputs": []
    },
    {
      "type": "error",
      "name": "ApprovalQueryForNonexistentToken",
      "inputs": []
    },
    {
      "type": "error",
      "name": "BalanceQueryForZeroAddress",
      "inputs": []
    },
    {
      "type": "error",
      "name": "IBeanHeadsBase__InsufficientAllowance",
      "inputs": []
    },
    {
      "type": "error",
      "name": "IBeanHeadsBase__InsufficientPayment",
      "inputs": []
    },
    {
      "type": "error",
      "name": "IBeanHeadsBase__InvalidOraclePrice",
      "inputs": []
    },
    {
      "type": "error",
      "name": "IBeanHeadsBase__NotOwner",
      "inputs": []
    },
    {
      "type": "error",
      "name": "IBeanHeadsBase__PriceMustBeGreaterThanZero",
      "inputs": []
    },
    {
      "type": "error",
      "name": "IBeanHeadsBase__TokenDoesNotExist",
      "inputs": []
    },
    {
      "type": "error",
      "name": "IBeanHeadsBase__TokenIsAlreadyListed",
      "inputs": []
    },
    {
      "type": "error",
      "name": "IBeanHeadsBase__TokenIsLocked",
      "inputs": []
    },
    {
      "type": "error",
      "name": "IBeanHeadsBase__TokenIsNotForSale",
      "inputs": []
    },
    {
      "type": "error",
      "name": "IBeanHeadsBase__TokenNotAllowed",
      "inputs": [
        {
          "name": "token",
          "type": "address",
          "internalType": "address"
        }
      ]
    },
    {
      "type": "error",
      "name": "IBeanHeadsMint__AlreadyLocked",
      "inputs": []
    },
    {
      "type": "error",
      "name": "IBeanHeadsMint__CannotBurnOriginToken",
      "inputs": []
    },
    {
      "type": "error",
      "name": "IBeanHeadsMint__InsufficientAllowance",
      "inputs": []
    },
    {
      "type": "error",
      "name": "IBeanHeadsMint__InsufficientPayment",
      "inputs": []
    },
    {
      "type": "error",
      "name": "IBeanHeadsMint__InvalidAmount",
      "inputs": []
    },
    {
      "type": "error",
      "name": "IBeanHeadsMint__InvalidOraclePrice",
      "inputs": []
    },
    {
      "type": "error",
      "name": "IBeanHeadsMint__MultiHopNotAllowed",
      "inputs": []
    },
    {
      "type": "error",
      "name": "IBeanHeadsMint__NotLocked",
      "inputs": []
    },
    {
      "type": "error",
      "name": "IBeanHeadsMint__NotOwner",
      "inputs": []
    },
    {
      "type": "error",
      "name": "IBeanHeadsMint__NotOwnerOrApproved",
      "inputs": []
    },
    {
      "type": "error",
      "name": "IBeanHeadsMint__TokenAlreadyExists",
      "inputs": []
    },
    {
      "type": "error",
      "name": "IBeanHeadsMint__TokenDoesNotExist",
      "inputs": []
    },
    {
      "type": "error",
      "name": "IBeanHeadsMint__TokenNotAllowed",
      "inputs": [
        {
          "name": "token",
          "type": "address",
          "internalType": "address"
        }
      ]
    },
    {
      "type": "error",
      "name": "IBeanHeadsMint__UnauthorizedBridge",
      "inputs": []
    },
    {
      "type": "error",
      "name": "InvalidTokenId",
      "inputs": []
    },
    {
      "type": "error",
      "name": "MintERC2309QuantityExceedsLimit",
      "inputs": []
    },
    {
      "type": "error",
      "name": "MintToZeroAddress",
      "inputs": []
    },
    {
      "type": "error",
      "name": "MintZeroQuantity",
      "inputs": []
    },
    {
      "type": "error",
      "name": "OwnerQueryForNonexistentToken",
      "inputs": []
    },
    {
      "type": "error",
      "name": "OwnershipNotInitializedForExtraData",
      "inputs": []
    },
    {
      "type": "error",
      "name": "TokenAlreadyExists",
      "inputs": []
    },
    {
      "type": "error",
      "name": "TransferCallerNotOwnerNorApproved",
      "inputs": []
    },
    {
      "type": "error",
      "name": "TransferFromIncorrectOwner",
      "inputs": []
    },
    {
      "type": "error",
      "name": "TransferToNonERC721ReceiverImplementer",
      "inputs": []
    },
    {
      "type": "error",
      "name": "TransferToZeroAddress",
      "inputs": []
    },
    {
      "type": "error",
      "name": "URIQueryForNonexistentToken",
      "inputs": []
    }
  ],
  "bytecode": {
    "object": "0x60808060405234610016576141d8908161001b8239f35b5f80fdfe60806040526004361015610011575f80fd5b5f3560e01c806306fdde031461014f578063081812fc1461014a578063095ea7b31461014557806318160ddd1461014057806323b872dd1461013b5780632c33b9d91461013657806342842e0e146101315780636352211e1461012c57806370a08231146101275780637b47ec1a1461012257806380f203631461011d578063836387101461011857806395d89b4114610113578063a22cb4651461010e578063a462cd4914610109578063b88d4fde14610104578063c4e41b22146100ff578063caa0f92a146100ff578063dd2e0ac0146100fa5763e985e9c5146100f5575f80fd5b6116ae565b611592565b611538565b611497565b6112b1565b6111a7565b611080565b611020565b610f02565b610bfe565b610b27565b610acd565b6109e6565b610719565b6106d5565b6105f7565b610424565b610360565b6101c4565b91908251928382525f5b84811061019c5750507fffffffffffffffffffffffffffffffffffffffffffffffffffffffffffffffe0601f845f6020809697860101520116010190565b60208183018101518483018201520161015e565b9060206101c1928181520190610154565b90565b3461035c575f7ffffffffffffffffffffffffffffffffffffffffffffffffffffffffffffffffc36011261035c576040515f7f8785b62d5a7098417c833f00e99883e36791da2bbef1ddc66d7797ca0681c2d25460018160011c9160018116918215610352575b6020916020851084146103255784875260208701939081156102e85750600114610270575b61026c86610260818803826113fc565b604051918291826101b0565b0390f35b7f8785b62d5a7098417c833f00e99883e36791da2bbef1ddc66d7797ca0681c2d25f90815294509192917f4eff6dd2ce7e3eed3d8c57a965022ef5c4089064f80bafbcccb1920be91b46a15b8386106102d757505050910190506102608261026c5f610250565b8054858701529482019481016102bc565b7fffffffffffffffffffffffffffffffffffffffffffffffffffffffffffffff0016845250505090151560051b0190506102608261026c5f610250565b7f4e487b71000000000000000000000000000000000000000000000000000000005f52602260045260245ffd5b92607f169261022b565b5f80fd5b3461035c5760207ffffffffffffffffffffffffffffffffffffffffffffffffffffffffffffffffc36011261035c57602061039c600435611747565b73ffffffffffffffffffffffffffffffffffffffff60405191168152f35b6004359073ffffffffffffffffffffffffffffffffffffffff8216820361035c57565b6102c4359073ffffffffffffffffffffffffffffffffffffffff8216820361035c57565b6024359073ffffffffffffffffffffffffffffffffffffffff8216820361035c57565b60407ffffffffffffffffffffffffffffffffffffffffffffffffffffffffffffffffc36011261035c576104566103ba565b6024359073ffffffffffffffffffffffffffffffffffffffff806104798461289b565b1633036105cf578061048a8461289b565b1691823303610531575b610509816104c9865f527f8785b62d5a7098417c833f00e99883e36791da2bbef1ddc66d7797ca0681c2d660205260405f2090565b9073ffffffffffffffffffffffffffffffffffffffff167fffffffffffffffffffffffff0000000000000000000000000000000000000000825416179055565b16907f8c5be1e5ebec7d5bd14f71427d1e84f3dd0314c0f7b2291e5b200ac8c7c3b9255f80a4005b60ff6105a13361057e8673ffffffffffffffffffffffffffffffffffffffff165f527f8785b62d5a7098417c833f00e99883e36791da2bbef1ddc66d7797ca0681c2d760205260405f2090565b9073ffffffffffffffffffffffffffffffffffffffff165f5260205260405f2090565b5416610494577fcfb3b942000000000000000000000000000000000000000000000000000000005f5260045ffd5b7f0e25afc9000000000000000000000000000000000000000000000000000000005f5260045ffd5b3461035c575f7ffffffffffffffffffffffffffffffffffffffffffffffffffffffffffffffffc36011261035c5760207f8785b62d5a7098417c833f00e99883e36791da2bbef1ddc66d7797ca0681c2d0547f8785b62d5a7098417c833f00e99883e36791da2bbef1ddc66d7797ca0681c2d1549003604051908152f35b7ffffffffffffffffffffffffffffffffffffffffffffffffffffffffffffffffc606091011261035c5773ffffffffffffffffffffffffffffffffffffffff90600435828116810361035c5791602435908116810361035c579060443590565b6106e76106e136610675565b916117c1565b005b7fffffffffffffffffffffffffffffffffffffffffffffffffffffffffffffffdc61028091011261035c57602490565b3461035c576102e07ffffffffffffffffffffffffffffffffffffffffffffffffffffffffffffffffc36011261035c576107516103ba565b61075a366106e9565b906102a4356107676103dd565b9080156109e1576107c66107c26107bb8473ffffffffffffffffffffffffffffffffffffffff165f527f791cad950d3b9b323a06def8cb8b7bf2c934c7f4cea39385f023ba145f9b93b260205260405f2090565b5460ff1690565b1590565b6109dc5773ffffffffffffffffffffffffffffffffffffffff938483169261085161081b610815857f791cad950d3b9b323a06def8cb8b7bf2c934c7f4cea39385f023ba145f9b93bb54611b51565b83612efd565b61082581876130f2565b7f8785b62d5a7098417c833f00e99883e36791da2bbef1ddc66d7797ca0681c2d05495309033906131fe565b61085b83866132e3565b5f5b83811061089d576040518061026c87808a8c167f54627187ccac9ad3566355b77d021df78dd877a086fef2e404a7fdaca4e5a6115f80a382526020820190565b806108aa60019287611b88565b6108e4856108df835f527f791cad950d3b9b323a06def8cb8b7bf2c934c7f4cea39385f023ba145f9b93ae60205260405f2090565b612124565b6109346108ef61143d565b5f81525f60208201525f604082015261092f835f527f791cad950d3b9b323a06def8cb8b7bf2c934c7f4cea39385f023ba145f9b93ad60205260405f2090565b6121d1565b610969846104c9835f527f791cad950d3b9b323a06def8cb8b7bf2c934c7f4cea39385f023ba145f9b93b360205260405f2090565b6109a361099d825f527f791cad950d3b9b323a06def8cb8b7bf2c934c7f4cea39385f023ba145f9b93af60205260405f2090565b60019055565b6109d546915f527f791cad950d3b9b323a06def8cb8b7bf2c934c7f4cea39385f023ba145f9b93c160205260405f2090565b550161085d565b612663565b61263b565b6109ef36610675565b73ffffffffffffffffffffffffffffffffffffffff9291928083163314159081610a75575b81610a60575b50610a38576106e79260405192610a30846113a3565b5f8452612491565b7ff1ce7c7d000000000000000000000000000000000000000000000000000000005f5260045ffd5b339150610a6c83611747565b1614155f610a1a565b905060ff610ac43361057e8673ffffffffffffffffffffffffffffffffffffffff165f527f8785b62d5a7098417c833f00e99883e36791da2bbef1ddc66d7797ca0681c2d760205260405f2090565b54161590610a14565b3461035c5760207ffffffffffffffffffffffffffffffffffffffffffffffffffffffffffffffffc36011261035c57602073ffffffffffffffffffffffffffffffffffffffff610b1e60043561289b565b16604051908152f35b3461035c5760207ffffffffffffffffffffffffffffffffffffffffffffffffffffffffffffffffc36011261035c57610b5e6103ba565b73ffffffffffffffffffffffffffffffffffffffff811615610bd65767ffffffffffffffff610bcc60209273ffffffffffffffffffffffffffffffffffffffff165f527f8785b62d5a7098417c833f00e99883e36791da2bbef1ddc66d7797ca0681c2d560205260405f2090565b5416604051908152f35b7f8f4eb604000000000000000000000000000000000000000000000000000000005f5260045ffd5b3461035c5760207ffffffffffffffffffffffffffffffffffffffffffffffffffffffffffffffffc36011261035c57600435610c3981612585565b15610eda5760ff610c873373ffffffffffffffffffffffffffffffffffffffff165f527f791cad950d3b9b323a06def8cb8b7bf2c934c7f4cea39385f023ba145f9b93c260205260405f2090565b541615610eb257610cb9610ca0610ca0610ca08461289b565b73ffffffffffffffffffffffffffffffffffffffff1690565b3303610ead57610cf0815f527f791cad950d3b9b323a06def8cb8b7bf2c934c7f4cea39385f023ba145f9b93c160205260405f2090565b544614610ea857610d00816134f2565b610d57610d34825f527f791cad950d3b9b323a06def8cb8b7bf2c934c7f4cea39385f023ba145f9b93ae60205260405f2090565b60055f918281558260018201558260028201558260038201558260048201550155565b610d9c610d8b825f527f791cad950d3b9b323a06def8cb8b7bf2c934c7f4cea39385f023ba145f9b93ad60205260405f2090565b60025f918281558260018201550155565b610df8610dd0825f527f791cad950d3b9b323a06def8cb8b7bf2c934c7f4cea39385f023ba145f9b93b360205260405f2090565b7fffffffffffffffffffffffff00000000000000000000000000000000000000008154169055565b5f8181527f791cad950d3b9b323a06def8cb8b7bf2c934c7f4cea39385f023ba145f9b93c16020526040812055610e81610e59825f527f791cad950d3b9b323a06def8cb8b7bf2c934c7f4cea39385f023ba145f9b93c060205260405f2090565b7fffffffffffffffffffffffffffffffffffffffffffffffffffffffffffffff008154169055565b337f1af5163f80e79b5e554f61e1d052084d3a3fe1166e42a265798c4e2ddce8ffa25f80a3005b61268b565b6105cf565b7fd8b7de09000000000000000000000000000000000000000000000000000000005f5260045ffd5b7f687e1724000000000000000000000000000000000000000000000000000000005f5260045ffd5b3461035c5760207ffffffffffffffffffffffffffffffffffffffffffffffffffffffffffffffffc36011261035c5760043560ff610f7d3373ffffffffffffffffffffffffffffffffffffffff165f527f791cad950d3b9b323a06def8cb8b7bf2c934c7f4cea39385f023ba145f9b93c260205260405f2090565b541615610eb257610f8d81612585565b15610eda57805f527f791cad950d3b9b323a06def8cb8b7bf2c934c7f4cea39385f023ba145f9b93c060205260ff60405f205416610ff8575f5260405f2060017fffffffffffffffffffffffffffffffffffffffffffffffffffffffffffffff008254161790555f80f35b7f24cc4ee6000000000000000000000000000000000000000000000000000000005f5260045ffd5b3461035c5760207ffffffffffffffffffffffffffffffffffffffffffffffffffffffffffffffffc36011261035c5760043561105b81612585565b15610eda5773ffffffffffffffffffffffffffffffffffffffff610b1e60209261289b565b3461035c575f7ffffffffffffffffffffffffffffffffffffffffffffffffffffffffffffffffc36011261035c576040515f7f8785b62d5a7098417c833f00e99883e36791da2bbef1ddc66d7797ca0681c2d35460018160011c9160018116918215611193575b6020916020851084146103255784875260208701939081156102e8575060011461111b5761026c86610260818803826113fc565b7f8785b62d5a7098417c833f00e99883e36791da2bbef1ddc66d7797ca0681c2d35f90815294509192917feab2a30426a14f07ecdc76635cd0729eb655bee4c9d04a8fb1b5d85c28c9dae35b83861061118257505050910190506102608261026c5f610250565b805485870152948201948101611167565b92607f16926110e7565b8015150361035c57565b3461035c5760407ffffffffffffffffffffffffffffffffffffffffffffffffffffffffffffffffc36011261035c576111de6103ba565b73ffffffffffffffffffffffffffffffffffffffff602435916112008361119d565b61127f8361124f8361057e3373ffffffffffffffffffffffffffffffffffffffff165f527f8785b62d5a7098417c833f00e99883e36791da2bbef1ddc66d7797ca0681c2d760205260405f2090565b9060ff7fffffffffffffffffffffffffffffffffffffffffffffffffffffffffffffff0083541691151516179055565b604051921515835216907f17307eab39ab6107e8899845ad3d59bd9653f200f220920489ca2b5937696c3160203392a3005b3461035c576102e07ffffffffffffffffffffffffffffffffffffffffffffffffffffffffffffffffc36011261035c576112e96103ba565b6102807fffffffffffffffffffffffffffffffffffffffffffffffffffffffffffffffbc36011261035c5760ff61135d3373ffffffffffffffffffffffffffffffffffffffff165f527f791cad950d3b9b323a06def8cb8b7bf2c934c7f4cea39385f023ba145f9b93c260205260405f2090565b541615610eb2576106e7906102c4359060243590612287565b7f4e487b71000000000000000000000000000000000000000000000000000000005f52604160045260245ffd5b6020810190811067ffffffffffffffff8211176113bf57604052565b611376565b60a0810190811067ffffffffffffffff8211176113bf57604052565b6040810190811067ffffffffffffffff8211176113bf57604052565b90601f7fffffffffffffffffffffffffffffffffffffffffffffffffffffffffffffffe0910116810190811067ffffffffffffffff8211176113bf57604052565b604051906060820182811067ffffffffffffffff8211176113bf57604052565b67ffffffffffffffff81116113bf57601f017fffffffffffffffffffffffffffffffffffffffffffffffffffffffffffffffe01660200190565b60807ffffffffffffffffffffffffffffffffffffffffffffffffffffffffffffffffc36011261035c576114c96103ba565b6114d1610401565b6064359167ffffffffffffffff831161035c573660238401121561035c578260040135916114fe8361145d565b9261150c60405194856113fc565b808452366024828701011161035c576020815f9260246106e79801838801378501015260443591612491565b3461035c575f7ffffffffffffffffffffffffffffffffffffffffffffffffffffffffffffffffc36011261035c5760207f8785b62d5a7098417c833f00e99883e36791da2bbef1ddc66d7797ca0681c2d054604051908152f35b3461035c5760207ffffffffffffffffffffffffffffffffffffffffffffffffffffffffffffffffc36011261035c5760043560ff61160d3373ffffffffffffffffffffffffffffffffffffffff165f527f791cad950d3b9b323a06def8cb8b7bf2c934c7f4cea39385f023ba145f9b93c260205260405f2090565b541615610eb25761161d81612585565b15610eda57805f527f791cad950d3b9b323a06def8cb8b7bf2c934c7f4cea39385f023ba145f9b93c060205260ff60405f20541615611686575f5260405f207fffffffffffffffffffffffffffffffffffffffffffffffffffffffffffffff0081541690555f80f35b7fe64eb0c4000000000000000000000000000000000000000000000000000000005f5260045ffd5b3461035c5760407ffffffffffffffffffffffffffffffffffffffffffffffffffffffffffffffffc36011261035c57602060ff61173b6116ec6103ba565b61057e6116f7610401565b9173ffffffffffffffffffffffffffffffffffffffff165f527f8785b62d5a7098417c833f00e99883e36791da2bbef1ddc66d7797ca0681c2d760205260405f2090565b54166040519015158152f35b61175081612585565b15611799575f527f8785b62d5a7098417c833f00e99883e36791da2bbef1ddc66d7797ca0681c2d660205273ffffffffffffffffffffffffffffffffffffffff60405f20541690565b7fcf4700e4000000000000000000000000000000000000000000000000000000005f5260045ffd5b9190916117cd8261289b565b9273ffffffffffffffffffffffffffffffffffffffff809216938483821603611ae3575f8481527f8785b62d5a7098417c833f00e99883e36791da2bbef1ddc66d7797ca0681c2d660205260409020805461184473ffffffffffffffffffffffffffffffffffffffff881633908114908314171590565b611a88575b611854868589612a9a565b611a7f575b506118a18573ffffffffffffffffffffffffffffffffffffffff165f527f8785b62d5a7098417c833f00e99883e36791da2bbef1ddc66d7797ca0681c2d560205260405f2090565b80547fffffffffffffffffffffffffffffffffffffffffffffffffffffffffffffffff01905561190e8273ffffffffffffffffffffffffffffffffffffffff165f527f8785b62d5a7098417c833f00e99883e36791da2bbef1ddc66d7797ca0681c2d560205260405f2090565b8054600101905573ffffffffffffffffffffffffffffffffffffffff82164260a01b177c020000000000000000000000000000000000000000000000000000000017611981855f527f8785b62d5a7098417c833f00e99883e36791da2bbef1ddc66d7797ca0681c2d460205260405f2090565b557c02000000000000000000000000000000000000000000000000000000008116156119dc575b501680927fddf252ad1be2c89b69c2b068fc378daa952ba7f163c4a11628f55a4df523b3ef5f80a4156119d757565b612703565b60018401611a11815f527f8785b62d5a7098417c833f00e99883e36791da2bbef1ddc66d7797ca0681c2d460205260405f2090565b5415611a1e575b506119a8565b7f8785b62d5a7098417c833f00e99883e36791da2bbef1ddc66d7797ca0681c2d0548114611a1857611a77905f527f8785b62d5a7098417c833f00e99883e36791da2bbef1ddc66d7797ca0681c2d460205260405f2090565b555f80611a18565b5f90555f611859565b611ad96107c26107bb3361057e8b73ffffffffffffffffffffffffffffffffffffffff165f527f8785b62d5a7098417c833f00e99883e36791da2bbef1ddc66d7797ca0681c2d760205260405f2090565b15611849576126db565b6126b3565b7f4e487b71000000000000000000000000000000000000000000000000000000005f52601160045260245ffd5b906402540be40091828102928184041490151715611b2f57565b611ae8565b90670de0b6b3a764000091828102928184041490151715611b2f57565b81810292918115918404141715611b2f57565b9060018201809211611b2f57565b90680100000000000000018201809211611b2f57565b91908201809211611b2f57565b60ff81160361035c57565b611c2190611be1608435611bb381611b95565b829060ff167fffffffffffffffffffffffffffffffffffffffffffffffffffffffffffffff00825416179055565b60a43590611bee82611b95565b907fffffffffffffffffffffffffffffffffffffffffffffffffffffffffffff00ff61ff0083549260081b169116179055565b565b6020611c2192611c658135611c3781611b95565b849060ff167fffffffffffffffffffffffffffffffffffffffffffffffffffffffffffffff00825416179055565b013590611bee82611b95565b9055565b611c8460c435611bb381611b95565b611cc660e435611c9381611b95565b82547fffffffffffffffffffffffffffffffffffffffffffffffffffffffffffff00ff1660089190911b61ff0016178255565b611c7160ff61010435611cd881611b95565b83547fffffffffffffffffffffffffffffffffffffffffffffffffffffffffff00ffff16911660101b62ff0000161790565b611d1a6101c435611bb381611b95565b611d2a6101e435611c9381611b95565b611c7160ff61020435611cd881611b95565b9060ff6040611c7192611d818135611d5381611b95565b869060ff167fffffffffffffffffffffffffffffffffffffffffffffffffffffffffffffff00825416179055565b611dc56020820135611d9281611b95565b86547fffffffffffffffffffffffffffffffffffffffffffffffffffffffffffff00ff1660089190911b61ff0016178655565b0135611cd881611b95565b611e1161022435611de08161119d565b829060ff7fffffffffffffffffffffffffffffffffffffffffffffffffffffffffffffff0083541691151516179055565b611e2161024435611c9381611b95565b611e6461026435611e318161119d565b82547fffffffffffffffffffffffffffffffffffffffffffffffffffffffffff00ffff1690151560101b62ff0000161790565b8155611eab61028435611e7681611b95565b82547fffffffffffffffffffffffffffffffffffffffffffffffffffffffff00ffffff1660189190911b63ff00000016178255565b611c716102a435611ebb8161119d565b82547fffffffffffffffffffffffffffffffffffffffffffffffffffffff00ffffffff1690151560201b64ff00000000161790565b906080611c7191611f368135611f058161119d565b859060ff7fffffffffffffffffffffffffffffffffffffffffffffffffffffffffffffff0083541691151516179055565b611f7a6020820135611f4781611b95565b85547fffffffffffffffffffffffffffffffffffffffffffffffffffffffffffff00ff1660089190911b61ff0016178555565b611fbe6040820135611f8b8161119d565b85547fffffffffffffffffffffffffffffffffffffffffffffffffffffffffff00ffff1690151560101b62ff0000161790565b84556120066060820135611fd181611b95565b85547fffffffffffffffffffffffffffffffffffffffffffffffffffffffff00ffffff1660189190911b63ff00000016178555565b0135611ebb8161119d565b6005611c2191612026604435611bb381611b95565b612035606435611c9381611b95565b61204160018201611ba0565b61204d60028201611c75565b6003810161206161012435611bb381611b95565b61207161014435611c9381611b95565b6120ba6101643561208181611b95565b82805490917fffffffffffffffffffffffffffffffffffffffffffffffffffffffffff00ffff90911660109190911b62ff000016179055565b6120ca61018435611e7681611b95565b61211060ff6101a4356120dc81611b95565b83547fffffffffffffffffffffffffffffffffffffffffffffffffffffff00ffffffff16911660201b64ff00000000161790565b905561211e60048201611d0a565b01611dd0565b60056101e0611c21936121378185611c23565b6121476040820160018601611c23565b6121576080820160028601611d3c565b6003840161216c60e0830135611bb381611b95565b61217e610100830135611c9381611b95565b61219061012083013561208181611b95565b6121a2610140830135611e7681611b95565b6121b660ff6101608401356120dc81611b95565b90556121c9610180820160048601611d3c565b019101611ef0565b60026040611c219361223573ffffffffffffffffffffffffffffffffffffffff825116859073ffffffffffffffffffffffffffffffffffffffff167fffffffffffffffffffffffff0000000000000000000000000000000000000000825416179055565b602081015160018501550151151591019060ff7fffffffffffffffffffffffffffffffffffffffffffffffffffffffffffffff0083541691151516179055565b60405190612282826113a3565b5f8252565b91909161229383612585565b6123ab576122c8835f527f791cad950d3b9b323a06def8cb8b7bf2c934c7f4cea39385f023ba145f9b93c160205260405f2090565b549182159281841591826123a0575b505061239b5773ffffffffffffffffffffffffffffffffffffffff92612363575b506123038382613ac5565b61233c612337845f527f791cad950d3b9b323a06def8cb8b7bf2c934c7f4cea39385f023ba145f9b93ae60205260405f2090565b612011565b167f54627187ccac9ad3566355b77d021df78dd877a086fef2e404a7fdaca4e5a6115f80a3565b612394845f527f791cad950d3b9b323a06def8cb8b7bf2c934c7f4cea39385f023ba145f9b93c160205260405f2090565b555f6122f8565b61272b565b14159050815f6122d7565b90506123e46107c26107bb845f527f791cad950d3b9b323a06def8cb8b7bf2c934c7f4cea39385f023ba145f9b93c060205260405f2090565b61248c5761241c610e59835f527f791cad950d3b9b323a06def8cb8b7bf2c934c7f4cea39385f023ba145f9b93c060205260405f2090565b61242b610ca0610ca08461289b565b9073ffffffffffffffffffffffffffffffffffffffff91828116612472575b50167f482469ed6d6f56569ed4bc4a5adc86cc115c7e09c1f5574b36d53373cdac21965f80a3565b612486908483612480612275565b926137f3565b5f61244a565b611686565b92919073ffffffffffffffffffffffffffffffffffffffff808516331415908161252d575b81612518575b50610a38576124cc8282866117c1565b803b6124d9575b50505050565b6124e293614084565b156124f0575f8080806124d3565b7fd1a57ed6000000000000000000000000000000000000000000000000000000005f5260045ffd5b33915061252484611747565b1614155f6124bc565b905060ff61257c3361057e8873ffffffffffffffffffffffffffffffffffffffff165f527f8785b62d5a7098417c833f00e99883e36791da2bbef1ddc66d7797ca0681c2d760205260405f2090565b541615906124b6565b905f917f8785b62d5a7098417c833f00e99883e36791da2bbef1ddc66d7797ca0681c2d05481106125b35750565b9091505b805f527f8785b62d5a7098417c833f00e99883e36791da2bbef1ddc66d7797ca0681c2d460205260405f20548061261657508015611b2f577fffffffffffffffffffffffffffffffffffffffffffffffffffffffffffffffff016125b7565b7c01000000000000000000000000000000000000000000000000000000009150161590565b7f28b4d3d1000000000000000000000000000000000000000000000000000000005f5260045ffd5b7f3e48f451000000000000000000000000000000000000000000000000000000005f5260045ffd5b7f65803194000000000000000000000000000000000000000000000000000000005f5260045ffd5b7fa1148100000000000000000000000000000000000000000000000000000000005f5260045ffd5b7f59c896be000000000000000000000000000000000000000000000000000000005f5260045ffd5b7fea553b34000000000000000000000000000000000000000000000000000000005f5260045ffd5b7f96ed3a18000000000000000000000000000000000000000000000000000000005f5260045ffd5b7fdf2d9b42000000000000000000000000000000000000000000000000000000005f5260045ffd5b7f0fb51c13000000000000000000000000000000000000000000000000000000005f5260045ffd5b7f59ca34d4000000000000000000000000000000000000000000000000000000005f5260045ffd5b7fbf79ab09000000000000000000000000000000000000000000000000000000005f5260045ffd5b7fef07d5e4000000000000000000000000000000000000000000000000000000005f5260045ffd5b7fb562e8dd000000000000000000000000000000000000000000000000000000005f5260045ffd5b7f2e076300000000000000000000000000000000000000000000000000000000005f5260045ffd5b5f805260045ffd5b7fc991cbb1000000000000000000000000000000000000000000000000000000005f5260045ffd5b6128cc815f527f8785b62d5a7098417c833f00e99883e36791da2bbef1ddc66d7797ca0681c2d460205260405f2090565b549081156128fc57507c010000000000000000000000000000000000000000000000000000000081166127535790565b90507f8785b62d5a7098417c833f00e99883e36791da2bbef1ddc66d7797ca0681c2d054811015612753577fffffffffffffffffffffffffffffffffffffffffffffffffffffffffffffffff905b0161297c815f527f8785b62d5a7098417c833f00e99883e36791da2bbef1ddc66d7797ca0681c2d460205260405f2090565b549081156129d257507c01000000000000000000000000000000000000000000000000000000008116156101c1577fdf2d9b42000000000000000000000000000000000000000000000000000000005f5260045ffd5b7fffffffffffffffffffffffffffffffffffffffffffffffffffffffffffffffff915061294a565b8054821015612a0f575f5260205f2001905f90565b7f4e487b71000000000000000000000000000000000000000000000000000000005f52603260045260245ffd5b90815491680100000000000000008310156113bf5782612a64916001611c21950181556129fa565b9091907fffffffffffffffffffffffffffffffffffffffffffffffffffffffffffffffff83549160031b92831b921b1916179055565b9190915f5b60018110612b6f575073ffffffffffffffffffffffffffffffffffffffff90818116612b43575b508216612ad1575050565b5f5b60018110612ae057505050565b600190612b3d612b2d8573ffffffffffffffffffffffffffffffffffffffff165f527f791cad950d3b9b323a06def8cb8b7bf2c934c7f4cea39385f023ba145f9b93b160205260405f2090565b612b378386611b88565b90612a3c565b01612ad3565b5f5b60018110612b535750612ac6565b80612b69612b6360019387611b88565b84613d0c565b01612b45565b612b798184611b88565b73ffffffffffffffffffffffffffffffffffffffff831615159081612bab575b50612ba657600101612a9f565b61277b565b612be191506107bb905f527f791cad950d3b9b323a06def8cb8b7bf2c934c7f4cea39385f023ba145f9b93c060205260405f2090565b5f612b99565b9190915f5b828110612c88575073ffffffffffffffffffffffffffffffffffffffff8116612c1457505050565b5f5b828110612c235750505050565b612c6a8273ffffffffffffffffffffffffffffffffffffffff165f527f791cad950d3b9b323a06def8cb8b7bf2c934c7f4cea39385f023ba145f9b93b160205260405f2090565b9080850191828611611b2f57600192612c8291612a3c565b01612c16565b8084018411611b2f57600101612bec565b5f5b60018110612ce8575073ffffffffffffffffffffffffffffffffffffffff8116612cc3575050565b5f5b60018110612cd257505050565b80612ce2612b6360019386611b88565b01612cc5565b612cf28184611b88565b73ffffffffffffffffffffffffffffffffffffffff831615159081612d1f575b50612ba657600101612c9b565b612d5591506107bb905f527f791cad950d3b9b323a06def8cb8b7bf2c934c7f4cea39385f023ba145f9b93c060205260405f2090565b5f612d12565b5f5b60018110612df9575073ffffffffffffffffffffffffffffffffffffffff8116612d85575050565b5f5b60018110612d9457505050565b612ddb8273ffffffffffffffffffffffffffffffffffffffff165f527f791cad950d3b9b323a06def8cb8b7bf2c934c7f4cea39385f023ba145f9b93b160205260405f2090565b9080840191828511611b2f57600192612df391612a3c565b01612d87565b8083018311611b2f57600101612d5d565b519069ffffffffffffffffffff8216820361035c57565b908160a091031261035c57612e3581612e0a565b916020820151916040810151916101c1608060608401519301612e0a565b6040513d5f823e3d90fd5b9081602091031261035c57516101c181611b95565b8115612e7d570490565b7f4e487b71000000000000000000000000000000000000000000000000000000005f52601260045260245ffd5b60ff7fffffffffffffffffffffffffffffffffffffffffffffffffffffffffffffffee9116019060ff8211611b2f57565b60ff166012039060ff8211611b2f57565b60ff16604d8111611b2f57600a0a90565b60049060a0612f6c610ca0610ca0612f528573ffffffffffffffffffffffffffffffffffffffff165f527f791cad950d3b9b323a06def8cb8b7bf2c934c7f4cea39385f023ba145f9b93b460205260405f2090565b5473ffffffffffffffffffffffffffffffffffffffff1690565b604051938480927ffeaf968c0000000000000000000000000000000000000000000000000000000082525afa9182156130a3575f926130ad575b505f8213156130a8576020612fcf73ffffffffffffffffffffffffffffffffffffffff93611b15565b916004604051809581937f313ce567000000000000000000000000000000000000000000000000000000008352165afa9182156130a3575f9261306c575b5061301b6130209293611b34565b612e73565b9060ff8116601281101561304a57509061304461303f6101c193612edb565b612eec565b90612e73565b60121015613068579061306261303f6101c193612eaa565b90611b51565b5090565b613020925061309561301b9160203d60201161309c575b61308d81836113fc565b810190612e5e565b925061300d565b503d613083565b612e53565b6127a3565b6130d091925060a03d60a0116130dc575b6130c881836113fc565b810190612e21565b5050509050905f612fa6565b503d6130be565b9081602091031261035c575190565b6040517fdd62ed3e00000000000000000000000000000000000000000000000000000000815233600482015230602482015260209173ffffffffffffffffffffffffffffffffffffffff16908281604481855afa80156130a35784915f916131e1575b50106131dc576040517f70a08231000000000000000000000000000000000000000000000000000000008152336004820152908290829060249082905afa9182156130a3575f926131af575b5050106131aa57565b6127f3565b6131ce9250803d106131d5575b6131c681836113fc565b8101906130e3565b5f806131a1565b503d6131bc565b6127cb565b6131f89150843d86116131d5576131c681836113fc565b5f613155565b5f6132b6949381926040519560208701957f23b872dd00000000000000000000000000000000000000000000000000000000875273ffffffffffffffffffffffffffffffffffffffff938480921660248a0152166044880152606487015260648652613269866113c4565b169260405194613278866113e0565b602086527f5361666545524332303a206c6f772d6c6576656c2063616c6c206661696c65646020870152519082855af16132b0613f7f565b916140da565b8051806132c1575050565b816020918101031261035c576020611c219101516132de8161119d565b613e48565b6040516132ef816113a3565b5f81527f8785b62d5a7098417c833f00e99883e36791da2bbef1ddc66d7797ca0681c2d09182549084156134ed57613328858383612be7565b60019173ffffffffffffffffffffffffffffffffffffffff82164260a01b87851460e11b171761337f825f527f8785b62d5a7098417c833f00e99883e36791da2bbef1ddc66d7797ca0681c2d460205260405f2090565b556133c78273ffffffffffffffffffffffffffffffffffffffff165f527f8785b62d5a7098417c833f00e99883e36791da2bbef1ddc66d7797ca0681c2d560205260405f2090565b680100000000000000018702815401905573ffffffffffffffffffffffffffffffffffffffff821680156134e85786820191908480805b613499575b5050505061342f907f8785b62d5a7098417c833f00e99883e36791da2bbef1ddc66d7797ca0681c2d055565b803b61343d575b5050505050565b83549485039180805b613465575b50505050505403613460575f80808080613436565b61286b565b1561348c575b5f61347d6107c2868487019686613fae565b6134875781613446565b6124f0565b85831061346b578061344b565b156134d0575b505f8583835f7fddf252ad1be2c89b69c2b068fc378daa952ba7f163c4a11628f55a4df523b3ef8180a490816133fe565b909101908282146134e1578461349f565b8481613403565b612843565b61281b565b6134fb8161289b565b73ffffffffffffffffffffffffffffffffffffffff8116613546835f527f8785b62d5a7098417c833f00e99883e36791da2bbef1ddc66d7797ca0681c2d660205260405f2090815490565b929061356e73ffffffffffffffffffffffffffffffffffffffff841633908114908614171590565b613798575b5f9361357f8685612c99565b61378f575b506135cc8273ffffffffffffffffffffffffffffffffffffffff165f527f8785b62d5a7098417c833f00e99883e36791da2bbef1ddc66d7797ca0681c2d560205260405f2090565b80546fffffffffffffffffffffffffffffffff01905573ffffffffffffffffffffffffffffffffffffffff82164260a01b177c03000000000000000000000000000000000000000000000000000000001761364e855f527f8785b62d5a7098417c833f00e99883e36791da2bbef1ddc66d7797ca0681c2d460205260405f2090565b557c02000000000000000000000000000000000000000000000000000000008116156136ec575b507fddf252ad1be2c89b69c2b068fc378daa952ba7f163c4a11628f55a4df523b3ef8280a4611c216136c87f8785b62d5a7098417c833f00e99883e36791da2bbef1ddc66d7797ca0681c2d15460010190565b7f8785b62d5a7098417c833f00e99883e36791da2bbef1ddc66d7797ca0681c2d155565b60018401613721815f527f8785b62d5a7098417c833f00e99883e36791da2bbef1ddc66d7797ca0681c2d460205260405f2090565b541561372e575b50613675565b7f8785b62d5a7098417c833f00e99883e36791da2bbef1ddc66d7797ca0681c2d054811461372857613787905f527f8785b62d5a7098417c833f00e99883e36791da2bbef1ddc66d7797ca0681c2d460205260405f2090565b555f80613728565b8390555f613584565b6137e96107c26107bb3361057e8773ffffffffffffffffffffffffffffffffffffffff165f527f8785b62d5a7098417c833f00e99883e36791da2bbef1ddc66d7797ca0681c2d760205260405f2090565b15613573576126db565b919290926138008161289b565b73ffffffffffffffffffffffffffffffffffffffff90818516918281831603611ae3578391613859835f527f8785b62d5a7098417c833f00e99883e36791da2bbef1ddc66d7797ca0681c2d660205260405f2090815490565b613864858b88612a9a565b613aaf575b506138b18473ffffffffffffffffffffffffffffffffffffffff165f527f8785b62d5a7098417c833f00e99883e36791da2bbef1ddc66d7797ca0681c2d560205260405f2090565b80547fffffffffffffffffffffffffffffffffffffffffffffffffffffffffffffffff01905561391e8873ffffffffffffffffffffffffffffffffffffffff165f527f8785b62d5a7098417c833f00e99883e36791da2bbef1ddc66d7797ca0681c2d560205260405f2090565b8054600101905573ffffffffffffffffffffffffffffffffffffffff88164260a01b177c020000000000000000000000000000000000000000000000000000000017613991845f527f8785b62d5a7098417c833f00e99883e36791da2bbef1ddc66d7797ca0681c2d460205260405f2090565b557c0200000000000000000000000000000000000000000000000000000000811615613a0c575b50861680927fddf252ad1be2c89b69c2b068fc378daa952ba7f163c4a11628f55a4df523b3ef5f80a4156119d757833b6139f25750505050565b6139ff936107c293614084565b613487575f8080806124d3565b60018301613a41815f527f8785b62d5a7098417c833f00e99883e36791da2bbef1ddc66d7797ca0681c2d460205260405f2090565b5415613a4e575b506139b8565b7f8785b62d5a7098417c833f00e99883e36791da2bbef1ddc66d7797ca0681c2d0548114613a4857613aa7905f527f8785b62d5a7098417c833f00e99883e36791da2bbef1ddc66d7797ca0681c2d460205260405f2090565b555f80613a48565b5f90555f613869565b91908203918211611b2f57565b73ffffffffffffffffffffffffffffffffffffffff81169182156134e8577f8785b62d5a7098417c833f00e99883e36791da2bbef1ddc66d7797ca0681c2d0805493848310613d0757613be8848493611c2197613b2586613c1e99612d5b565b613b2f8187613ab8565b80613c42575b50505073ffffffffffffffffffffffffffffffffffffffff81164260a01b177c020000000000000000000000000000000000000000000000000000000017613ba4855f527f8785b62d5a7098417c833f00e99883e36791da2bbef1ddc66d7797ca0681c2d460205260405f2090565b5573ffffffffffffffffffffffffffffffffffffffff165f527f8785b62d5a7098417c833f00e99883e36791da2bbef1ddc66d7797ca0681c2d560205260405f2090565b613bf28154611b72565b90555f7fddf252ad1be2c89b69c2b068fc378daa952ba7f163c4a11628f55a4df523b3ef8180a4611b64565b7f8785b62d5a7098417c833f00e99883e36791da2bbef1ddc66d7797ca0681c2d055565b613cf692613c1e9260018303613cfe57613cc17c02000000000000000000000000000000000000000000000000000000005b7c010000000000000000000000000000000000000000000000000000000017915f527f8785b62d5a7098417c833f00e99883e36791da2bbef1ddc66d7797ca0681c2d460205260405f2090565b55613cf06136c8837f8785b62d5a7098417c833f00e99883e36791da2bbef1ddc66d7797ca0681c2d154611b88565b54611b88565b5f8080613b35565b613cc15f613c74565b612873565b613d539073ffffffffffffffffffffffffffffffffffffffff165f527f791cad950d3b9b323a06def8cb8b7bf2c934c7f4cea39385f023ba145f9b93b160205260405f2090565b80545f5b818110613d645750505050565b83613d6f82856129fa565b919054600392831b1c14613d865750600101613d57565b919293507fffffffffffffffffffffffffffffffffffffffffffffffffffffffffffffffff92838101908111611b2f57613dd392613dc7612a6492876129fa565b9054911b1c91856129fa565b81548015613e1b570190613e18613dea83836129fa565b7fffffffffffffffffffffffffffffffffffffffffffffffffffffffffffffffff82549160031b1b19169055565b55565b7f4e487b71000000000000000000000000000000000000000000000000000000005f52603160045260245ffd5b15613e4f57565b60846040517f08c379a000000000000000000000000000000000000000000000000000000000815260206004820152602a60248201527f5361666545524332303a204552433230206f7065726174696f6e20646964206e60448201527f6f742073756363656564000000000000000000000000000000000000000000006064820152fd5b9081602091031261035c57517fffffffff000000000000000000000000000000000000000000000000000000008116810361035c5790565b6101c1939273ffffffffffffffffffffffffffffffffffffffff6080931682525f602083015260408201528160608201520190610154565b90926101c1949360809373ffffffffffffffffffffffffffffffffffffffff809216845216602083015260408201528160608201520190610154565b3d15613fa9573d90613f908261145d565b91613f9e60405193846113fc565b82523d5f602084013e565b606090565b61400460209173ffffffffffffffffffffffffffffffffffffffff93945f6040519586809581947f150b7a02000000000000000000000000000000000000000000000000000000009a8b84523360048501613f0b565b0393165af15f9181614053575b5061402d5761401e613f7f565b8051156124f057805190602001fd5b7fffffffff00000000000000000000000000000000000000000000000000000000161490565b61407691925060203d60201161407d575b61406e81836113fc565b810190613ed3565b905f614011565b503d614064565b92602091614004935f73ffffffffffffffffffffffffffffffffffffffff6040518097819682957f150b7a02000000000000000000000000000000000000000000000000000000009b8c85523360048601613f43565b9192901561415557508151156140ee575090565b3b156140f75790565b60646040517f08c379a000000000000000000000000000000000000000000000000000000000815260206004820152601d60248201527f416464726573733a2063616c6c20746f206e6f6e2d636f6e74726163740000006044820152fd5b8251909150156141685750805190602001fd5b61419e906040519182917f08c379a0000000000000000000000000000000000000000000000000000000008352600483016101b0565b0390fdfea2646970667358221220fea88e09c908a8970d1c92fa1888cfe691181e54a81cd079bc5f496f8f0b2ce564736f6c63430008180033",
    "linkReferences": {}
  },
  "methodIdentifiers": {
    "approve(address,uint256)": "095ea7b3",
    "balanceOf(address)": "70a08231",
    "burnToken(uint256)": "7b47ec1a",
    "getApproved(uint256)": "081812fc",
    "getNextTokenId()": "caa0f92a",
    "getOwnerOf(uint256)": "83638710",
    "getTotalSupply()": "c4e41b22",
    "isApprovedForAll(address,address)": "e985e9c5",
    "lockToken(uint256)": "80f20363",
    "mintBridgeToken(address,uint256,((uint8,uint8),(uint8,uint8),(uint8,uint8,uint8),(uint8,uint8,uint8,uint8,uint8),(uint8,uint8,uint8),(bool,uint8,bool,uint8,bool)),uint256)": "a462cd49",
    "mintGenesis(address,((uint8,uint8),(uint8,uint8),(uint8,uint8,uint8),(uint8,uint8,uint8,uint8,uint8),(uint8,uint8,uint8),(bool,uint8,bool,uint8,bool)),uint256,address)": "2c33b9d9",
    "name()": "06fdde03",
    "ownerOf(uint256)": "6352211e",
    "safeTransferFrom(address,address,uint256)": "42842e0e",
    "safeTransferFrom(address,address,uint256,bytes)": "b88d4fde",
    "setApprovalForAll(address,bool)": "a22cb465",
    "symbol()": "95d89b41",
    "totalSupply()": "18160ddd",
    "transferFrom(address,address,uint256)": "23b872dd",
    "unlockToken(uint256)": "dd2e0ac0"
  },
  "id": 122
}