{
  "abi": [
    {
      "type": "function",
      "name": "approve",
      "inputs": [
        {
          "name": "to",
          "type": "address",
          "internalType": "address"
        },
        {
          "name": "tokenId",
          "type": "uint256",
          "internalType": "uint256"
        }
      ],
      "outputs": [],
      "stateMutability": "payable"
    },
    {
      "type": "function",
      "name": "balanceOf",
      "inputs": [
        {
          "name": "owner",
          "type": "address",
          "internalType": "address"
        }
      ],
      "outputs": [
        {
          "name": "",
          "type": "uint256",
          "internalType": "uint256"
        }
      ],
      "stateMutability": "view"
    },
    {
      "type": "function",
      "name": "burnToken",
      "inputs": [
        {
          "name": "_tokenId",
          "type": "uint256",
          "internalType": "uint256"
        }
      ],
      "outputs": [],
      "stateMutability": "nonpayable"
    },
    {
      "type": "function",
      "name": "getApproved",
      "inputs": [
        {
          "name": "tokenId",
          "type": "uint256",
          "internalType": "uint256"
        }
      ],
      "outputs": [
        {
          "name": "",
          "type": "address",
          "internalType": "address"
        }
      ],
      "stateMutability": "view"
    },
    {
      "type": "function",
      "name": "getNextTokenId",
      "inputs": [],
      "outputs": [
        {
          "name": "",
          "type": "uint256",
          "internalType": "uint256"
        }
      ],
      "stateMutability": "view"
    },
    {
      "type": "function",
      "name": "getOwnerOf",
      "inputs": [
        {
          "name": "_tokenId",
          "type": "uint256",
          "internalType": "uint256"
        }
      ],
      "outputs": [
        {
          "name": "",
          "type": "address",
          "internalType": "address"
        }
      ],
      "stateMutability": "view"
    },
    {
      "type": "function",
      "name": "getTotalSupply",
      "inputs": [],
      "outputs": [
        {
          "name": "",
          "type": "uint256",
          "internalType": "uint256"
        }
      ],
      "stateMutability": "view"
    },
    {
      "type": "function",
      "name": "isApprovedForAll",
      "inputs": [
        {
          "name": "owner",
          "type": "address",
          "internalType": "address"
        },
        {
          "name": "operator",
          "type": "address",
          "internalType": "address"
        }
      ],
      "outputs": [
        {
          "name": "",
          "type": "bool",
          "internalType": "bool"
        }
      ],
      "stateMutability": "view"
    },
    {
      "type": "function",
      "name": "lockToken",
      "inputs": [
        {
          "name": "_tokenId",
          "type": "uint256",
          "internalType": "uint256"
        }
      ],
      "outputs": [],
      "stateMutability": "nonpayable"
    },
    {
      "type": "function",
      "name": "mintBridgeGenesis",
      "inputs": [
        {
          "name": "_to",
          "type": "address",
          "internalType": "address"
        },
        {
          "name": "_params",
          "type": "tuple",
          "internalType": "struct Genesis.SVGParams",
          "components": [
            {
              "name": "hairParams",
              "type": "tuple",
              "internalType": "struct Genesis.HairParams",
              "components": [
                {
                  "name": "hairStyle",
                  "type": "uint8",
                  "internalType": "uint8"
                },
                {
                  "name": "hairColor",
                  "type": "uint8",
                  "internalType": "uint8"
                }
              ]
            },
            {
              "name": "bodyParams",
              "type": "tuple",
              "internalType": "struct Genesis.BodyParams",
              "components": [
                {
                  "name": "bodyType",
                  "type": "uint8",
                  "internalType": "uint8"
                },
                {
                  "name": "skinColor",
                  "type": "uint8",
                  "internalType": "uint8"
                }
              ]
            },
            {
              "name": "clothingParams",
              "type": "tuple",
              "internalType": "struct Genesis.ClothingParams",
              "components": [
                {
                  "name": "clothes",
                  "type": "uint8",
                  "internalType": "uint8"
                },
                {
                  "name": "clothingColor",
                  "type": "uint8",
                  "internalType": "uint8"
                },
                {
                  "name": "clothesGraphic",
                  "type": "uint8",
                  "internalType": "uint8"
                }
              ]
            },
            {
              "name": "facialFeaturesParams",
              "type": "tuple",
              "internalType": "struct Genesis.FacialFeaturesParams",
              "components": [
                {
                  "name": "eyebrowShape",
                  "type": "uint8",
                  "internalType": "uint8"
                },
                {
                  "name": "eyeShape",
                  "type": "uint8",
                  "internalType": "uint8"
                },
                {
                  "name": "facialHairType",
                  "type": "uint8",
                  "internalType": "uint8"
                },
                {
                  "name": "mouthStyle",
                  "type": "uint8",
                  "internalType": "uint8"
                },
                {
                  "name": "lipColor",
                  "type": "uint8",
                  "internalType": "uint8"
                }
              ]
            },
            {
              "name": "accessoryParams",
              "type": "tuple",
              "internalType": "struct Genesis.AccessoryParams",
              "components": [
                {
                  "name": "accessoryId",
                  "type": "uint8",
                  "internalType": "uint8"
                },
                {
                  "name": "hatStyle",
                  "type": "uint8",
                  "internalType": "uint8"
                },
                {
                  "name": "hatColor",
                  "type": "uint8",
                  "internalType": "uint8"
                }
              ]
            },
            {
              "name": "otherParams",
              "type": "tuple",
              "internalType": "struct Genesis.OtherParams",
              "components": [
                {
                  "name": "faceMask",
                  "type": "bool",
                  "internalType": "bool"
                },
                {
                  "name": "faceMaskColor",
                  "type": "uint8",
                  "internalType": "uint8"
                },
                {
                  "name": "shapes",
                  "type": "bool",
                  "internalType": "bool"
                },
                {
                  "name": "shapeColor",
                  "type": "uint8",
                  "internalType": "uint8"
                },
                {
                  "name": "lashes",
                  "type": "bool",
                  "internalType": "bool"
                }
              ]
            }
          ]
        },
        {
          "name": "_amount",
          "type": "uint256",
          "internalType": "uint256"
        },
        {
          "name": "_paymentToken",
          "type": "address",
          "internalType": "address"
        }
      ],
      "outputs": [
        {
          "name": "_tokenId",
          "type": "uint256",
          "internalType": "uint256"
        }
      ],
      "stateMutability": "nonpayable"
    },
    {
      "type": "function",
      "name": "mintBridgeToken",
      "inputs": [
        {
          "name": "_to",
          "type": "address",
          "internalType": "address"
        },
        {
          "name": "_tokenId",
          "type": "uint256",
          "internalType": "uint256"
        },
        {
          "name": "_params",
          "type": "tuple",
          "internalType": "struct Genesis.SVGParams",
          "components": [
            {
              "name": "hairParams",
              "type": "tuple",
              "internalType": "struct Genesis.HairParams",
              "components": [
                {
                  "name": "hairStyle",
                  "type": "uint8",
                  "internalType": "uint8"
                },
                {
                  "name": "hairColor",
                  "type": "uint8",
                  "internalType": "uint8"
                }
              ]
            },
            {
              "name": "bodyParams",
              "type": "tuple",
              "internalType": "struct Genesis.BodyParams",
              "components": [
                {
                  "name": "bodyType",
                  "type": "uint8",
                  "internalType": "uint8"
                },
                {
                  "name": "skinColor",
                  "type": "uint8",
                  "internalType": "uint8"
                }
              ]
            },
            {
              "name": "clothingParams",
              "type": "tuple",
              "internalType": "struct Genesis.ClothingParams",
              "components": [
                {
                  "name": "clothes",
                  "type": "uint8",
                  "internalType": "uint8"
                },
                {
                  "name": "clothingColor",
                  "type": "uint8",
                  "internalType": "uint8"
                },
                {
                  "name": "clothesGraphic",
                  "type": "uint8",
                  "internalType": "uint8"
                }
              ]
            },
            {
              "name": "facialFeaturesParams",
              "type": "tuple",
              "internalType": "struct Genesis.FacialFeaturesParams",
              "components": [
                {
                  "name": "eyebrowShape",
                  "type": "uint8",
                  "internalType": "uint8"
                },
                {
                  "name": "eyeShape",
                  "type": "uint8",
                  "internalType": "uint8"
                },
                {
                  "name": "facialHairType",
                  "type": "uint8",
                  "internalType": "uint8"
                },
                {
                  "name": "mouthStyle",
                  "type": "uint8",
                  "internalType": "uint8"
                },
                {
                  "name": "lipColor",
                  "type": "uint8",
                  "internalType": "uint8"
                }
              ]
            },
            {
              "name": "accessoryParams",
              "type": "tuple",
              "internalType": "struct Genesis.AccessoryParams",
              "components": [
                {
                  "name": "accessoryId",
                  "type": "uint8",
                  "internalType": "uint8"
                },
                {
                  "name": "hatStyle",
                  "type": "uint8",
                  "internalType": "uint8"
                },
                {
                  "name": "hatColor",
                  "type": "uint8",
                  "internalType": "uint8"
                }
              ]
            },
            {
              "name": "otherParams",
              "type": "tuple",
              "internalType": "struct Genesis.OtherParams",
              "components": [
                {
                  "name": "faceMask",
                  "type": "bool",
                  "internalType": "bool"
                },
                {
                  "name": "faceMaskColor",
                  "type": "uint8",
                  "internalType": "uint8"
                },
                {
                  "name": "shapes",
                  "type": "bool",
                  "internalType": "bool"
                },
                {
                  "name": "shapeColor",
                  "type": "uint8",
                  "internalType": "uint8"
                },
                {
                  "name": "lashes",
                  "type": "bool",
                  "internalType": "bool"
                }
              ]
            }
          ]
        },
        {
          "name": "_originChainId",
          "type": "uint256",
          "internalType": "uint256"
        }
      ],
      "outputs": [],
      "stateMutability": "nonpayable"
    },
    {
      "type": "function",
      "name": "mintGenesis",
      "inputs": [
        {
          "name": "_to",
          "type": "address",
          "internalType": "address"
        },
        {
          "name": "_params",
          "type": "tuple",
          "internalType": "struct Genesis.SVGParams",
          "components": [
            {
              "name": "hairParams",
              "type": "tuple",
              "internalType": "struct Genesis.HairParams",
              "components": [
                {
                  "name": "hairStyle",
                  "type": "uint8",
                  "internalType": "uint8"
                },
                {
                  "name": "hairColor",
                  "type": "uint8",
                  "internalType": "uint8"
                }
              ]
            },
            {
              "name": "bodyParams",
              "type": "tuple",
              "internalType": "struct Genesis.BodyParams",
              "components": [
                {
                  "name": "bodyType",
                  "type": "uint8",
                  "internalType": "uint8"
                },
                {
                  "name": "skinColor",
                  "type": "uint8",
                  "internalType": "uint8"
                }
              ]
            },
            {
              "name": "clothingParams",
              "type": "tuple",
              "internalType": "struct Genesis.ClothingParams",
              "components": [
                {
                  "name": "clothes",
                  "type": "uint8",
                  "internalType": "uint8"
                },
                {
                  "name": "clothingColor",
                  "type": "uint8",
                  "internalType": "uint8"
                },
                {
                  "name": "clothesGraphic",
                  "type": "uint8",
                  "internalType": "uint8"
                }
              ]
            },
            {
              "name": "facialFeaturesParams",
              "type": "tuple",
              "internalType": "struct Genesis.FacialFeaturesParams",
              "components": [
                {
                  "name": "eyebrowShape",
                  "type": "uint8",
                  "internalType": "uint8"
                },
                {
                  "name": "eyeShape",
                  "type": "uint8",
                  "internalType": "uint8"
                },
                {
                  "name": "facialHairType",
                  "type": "uint8",
                  "internalType": "uint8"
                },
                {
                  "name": "mouthStyle",
                  "type": "uint8",
                  "internalType": "uint8"
                },
                {
                  "name": "lipColor",
                  "type": "uint8",
                  "internalType": "uint8"
                }
              ]
            },
            {
              "name": "accessoryParams",
              "type": "tuple",
              "internalType": "struct Genesis.AccessoryParams",
              "components": [
                {
                  "name": "accessoryId",
                  "type": "uint8",
                  "internalType": "uint8"
                },
                {
                  "name": "hatStyle",
                  "type": "uint8",
                  "internalType": "uint8"
                },
                {
                  "name": "hatColor",
                  "type": "uint8",
                  "internalType": "uint8"
                }
              ]
            },
            {
              "name": "otherParams",
              "type": "tuple",
              "internalType": "struct Genesis.OtherParams",
              "components": [
                {
                  "name": "faceMask",
                  "type": "bool",
                  "internalType": "bool"
                },
                {
                  "name": "faceMaskColor",
                  "type": "uint8",
                  "internalType": "uint8"
                },
                {
                  "name": "shapes",
                  "type": "bool",
                  "internalType": "bool"
                },
                {
                  "name": "shapeColor",
                  "type": "uint8",
                  "internalType": "uint8"
                },
                {
                  "name": "lashes",
                  "type": "bool",
                  "internalType": "bool"
                }
              ]
            }
          ]
        },
        {
          "name": "_amount",
          "type": "uint256",
          "internalType": "uint256"
        },
        {
          "name": "_paymentToken",
          "type": "address",
          "internalType": "address"
        }
      ],
      "outputs": [
        {
          "name": "_tokenId",
          "type": "uint256",
          "internalType": "uint256"
        }
      ],
      "stateMutability": "nonpayable"
    },
    {
      "type": "function",
      "name": "name",
      "inputs": [],
      "outputs": [
        {
          "name": "",
          "type": "string",
          "internalType": "string"
        }
      ],
      "stateMutability": "view"
    },
    {
      "type": "function",
      "name": "ownerOf",
      "inputs": [
        {
          "name": "tokenId",
          "type": "uint256",
          "internalType": "uint256"
        }
      ],
      "outputs": [
        {
          "name": "",
          "type": "address",
          "internalType": "address"
        }
      ],
      "stateMutability": "view"
    },
    {
      "type": "function",
      "name": "safeTransferFrom",
      "inputs": [
        {
          "name": "from",
          "type": "address",
          "internalType": "address"
        },
        {
          "name": "to",
          "type": "address",
          "internalType": "address"
        },
        {
          "name": "tokenId",
          "type": "uint256",
          "internalType": "uint256"
        }
      ],
      "outputs": [],
      "stateMutability": "payable"
    },
    {
      "type": "function",
      "name": "safeTransferFrom",
      "inputs": [
        {
          "name": "from",
          "type": "address",
          "internalType": "address"
        },
        {
          "name": "to",
          "type": "address",
          "internalType": "address"
        },
        {
          "name": "tokenId",
          "type": "uint256",
          "internalType": "uint256"
        },
        {
          "name": "data",
          "type": "bytes",
          "internalType": "bytes"
        }
      ],
      "outputs": [],
      "stateMutability": "payable"
    },
    {
      "type": "function",
      "name": "setApprovalForAll",
      "inputs": [
        {
          "name": "operator",
          "type": "address",
          "internalType": "address"
        },
        {
          "name": "approved",
          "type": "bool",
          "internalType": "bool"
        }
      ],
      "outputs": [],
      "stateMutability": "nonpayable"
    },
    {
      "type": "function",
      "name": "symbol",
      "inputs": [],
      "outputs": [
        {
          "name": "",
          "type": "string",
          "internalType": "string"
        }
      ],
      "stateMutability": "view"
    },
    {
      "type": "function",
      "name": "totalSupply",
      "inputs": [],
      "outputs": [
        {
          "name": "",
          "type": "uint256",
          "internalType": "uint256"
        }
      ],
      "stateMutability": "view"
    },
    {
      "type": "function",
      "name": "transferFrom",
      "inputs": [
        {
          "name": "from",
          "type": "address",
          "internalType": "address"
        },
        {
          "name": "to",
          "type": "address",
          "internalType": "address"
        },
        {
          "name": "tokenId",
          "type": "uint256",
          "internalType": "uint256"
        }
      ],
      "outputs": [],
      "stateMutability": "payable"
    },
    {
      "type": "function",
      "name": "unlockToken",
      "inputs": [
        {
          "name": "_tokenId",
          "type": "uint256",
          "internalType": "uint256"
        }
      ],
      "outputs": [],
      "stateMutability": "nonpayable"
    },
    {
      "type": "event",
      "name": "Approval",
      "inputs": [
        {
          "name": "owner",
          "type": "address",
          "indexed": true,
          "internalType": "address"
        },
        {
          "name": "approved",
          "type": "address",
          "indexed": true,
          "internalType": "address"
        },
        {
          "name": "tokenId",
          "type": "uint256",
          "indexed": true,
          "internalType": "uint256"
        }
      ],
      "anonymous": false
    },
    {
      "type": "event",
      "name": "ApprovalForAll",
      "inputs": [
        {
          "name": "owner",
          "type": "address",
          "indexed": true,
          "internalType": "address"
        },
        {
          "name": "operator",
          "type": "address",
          "indexed": true,
          "internalType": "address"
        },
        {
          "name": "approved",
          "type": "bool",
          "indexed": false,
          "internalType": "bool"
        }
      ],
      "anonymous": false
    },
    {
      "type": "event",
      "name": "ConsecutiveTransfer",
      "inputs": [
        {
          "name": "fromTokenId",
          "type": "uint256",
          "indexed": true,
          "internalType": "uint256"
        },
        {
          "name": "toTokenId",
          "type": "uint256",
          "indexed": false,
          "internalType": "uint256"
        },
        {
          "name": "from",
          "type": "address",
          "indexed": true,
          "internalType": "address"
        },
        {
          "name": "to",
          "type": "address",
          "indexed": true,
          "internalType": "address"
        }
      ],
      "anonymous": false
    },
    {
      "type": "event",
      "name": "MintedGenesis",
      "inputs": [
        {
          "name": "owner",
          "type": "address",
          "indexed": true,
          "internalType": "address"
        },
        {
          "name": "tokenId",
          "type": "uint256",
          "indexed": true,
          "internalType": "uint256"
        }
      ],
      "anonymous": false
    },
    {
      "type": "event",
      "name": "ReturnedToSource",
      "inputs": [
        {
          "name": "owner",
          "type": "address",
          "indexed": true,
          "internalType": "address"
        },
        {
          "name": "tokenId",
          "type": "uint256",
          "indexed": true,
          "internalType": "uint256"
        }
      ],
      "anonymous": false
    },
    {
      "type": "event",
      "name": "TokenBurned",
      "inputs": [
        {
          "name": "owner",
          "type": "address",
          "indexed": true,
          "internalType": "address"
        },
        {
          "name": "tokenId",
          "type": "uint256",
          "indexed": true,
          "internalType": "uint256"
        }
      ],
      "anonymous": false
    },
    {
      "type": "event",
      "name": "Transfer",
      "inputs": [
        {
          "name": "from",
          "type": "address",
          "indexed": true,
          "internalType": "address"
        },
        {
          "name": "to",
          "type": "address",
          "indexed": true,
          "internalType": "address"
        },
        {
          "name": "tokenId",
          "type": "uint256",
          "indexed": true,
          "internalType": "uint256"
        }
      ],
      "anonymous": false
    },
    {
      "type": "error",
      "name": "ApprovalCallerNotOwnerNorApproved",
      "inputs": []
    },
    {
      "type": "error",
      "name": "ApprovalQueryForNonexistentToken",
      "inputs": []
    },
    {
      "type": "error",
      "name": "BalanceQueryForZeroAddress",
      "inputs": []
    },
    {
      "type": "error",
      "name": "IBeanHeadsBase__InsufficientAllowance",
      "inputs": []
    },
    {
      "type": "error",
      "name": "IBeanHeadsBase__InsufficientPayment",
      "inputs": []
    },
    {
      "type": "error",
      "name": "IBeanHeadsBase__InvalidOraclePrice",
      "inputs": []
    },
    {
      "type": "error",
      "name": "IBeanHeadsBase__NotOwner",
      "inputs": []
    },
    {
      "type": "error",
      "name": "IBeanHeadsBase__PriceMustBeGreaterThanZero",
      "inputs": []
    },
    {
      "type": "error",
      "name": "IBeanHeadsBase__TokenDoesNotExist",
      "inputs": []
    },
    {
      "type": "error",
      "name": "IBeanHeadsBase__TokenIsAlreadyListed",
      "inputs": []
    },
    {
      "type": "error",
      "name": "IBeanHeadsBase__TokenIsLocked",
      "inputs": []
    },
    {
      "type": "error",
      "name": "IBeanHeadsBase__TokenIsNotForSale",
      "inputs": []
    },
    {
      "type": "error",
      "name": "IBeanHeadsBase__TokenNotAllowed",
      "inputs": [
        {
          "name": "token",
          "type": "address",
          "internalType": "address"
        }
      ]
    },
    {
      "type": "error",
      "name": "IBeanHeadsMint__AlreadyLocked",
      "inputs": []
    },
    {
      "type": "error",
      "name": "IBeanHeadsMint__CannotBurnOriginToken",
      "inputs": []
    },
    {
      "type": "error",
      "name": "IBeanHeadsMint__InsufficientAllowance",
      "inputs": []
    },
    {
      "type": "error",
      "name": "IBeanHeadsMint__InsufficientPayment",
      "inputs": []
    },
    {
      "type": "error",
      "name": "IBeanHeadsMint__InvalidAmount",
      "inputs": []
    },
    {
      "type": "error",
      "name": "IBeanHeadsMint__InvalidOraclePrice",
      "inputs": []
    },
    {
      "type": "error",
      "name": "IBeanHeadsMint__MultiHopNotAllowed",
      "inputs": []
    },
    {
      "type": "error",
      "name": "IBeanHeadsMint__NotLocked",
      "inputs": []
    },
    {
      "type": "error",
      "name": "IBeanHeadsMint__NotOwner",
      "inputs": []
    },
    {
      "type": "error",
      "name": "IBeanHeadsMint__NotOwnerOrApproved",
      "inputs": []
    },
    {
      "type": "error",
      "name": "IBeanHeadsMint__TokenAlreadyExists",
      "inputs": []
    },
    {
      "type": "error",
      "name": "IBeanHeadsMint__TokenDoesNotExist",
      "inputs": []
    },
    {
      "type": "error",
      "name": "IBeanHeadsMint__TokenNotAllowed",
      "inputs": [
        {
          "name": "token",
          "type": "address",
          "internalType": "address"
        }
      ]
    },
    {
      "type": "error",
      "name": "IBeanHeadsMint__UnauthorizedBridge",
      "inputs": []
    },
    {
      "type": "error",
      "name": "InvalidTokenId",
      "inputs": []
    },
    {
      "type": "error",
      "name": "MintERC2309QuantityExceedsLimit",
      "inputs": []
    },
    {
      "type": "error",
      "name": "MintToZeroAddress",
      "inputs": []
    },
    {
      "type": "error",
      "name": "MintZeroQuantity",
      "inputs": []
    },
    {
      "type": "error",
      "name": "OwnerQueryForNonexistentToken",
      "inputs": []
    },
    {
      "type": "error",
      "name": "OwnershipNotInitializedForExtraData",
      "inputs": []
    },
    {
      "type": "error",
      "name": "TokenAlreadyExists",
      "inputs": []
    },
    {
      "type": "error",
      "name": "TransferCallerNotOwnerNorApproved",
      "inputs": []
    },
    {
      "type": "error",
      "name": "TransferFromIncorrectOwner",
      "inputs": []
    },
    {
      "type": "error",
      "name": "TransferToNonERC721ReceiverImplementer",
      "inputs": []
    },
    {
      "type": "error",
      "name": "TransferToZeroAddress",
      "inputs": []
    },
    {
      "type": "error",
      "name": "URIQueryForNonexistentToken",
      "inputs": []
    }
  ],
  "bytecode": {
    "object": "0x608080604052346100165761442e908161001b8239f35b5f80fdfe60806040526004361015610011575f80fd5b5f3560e01c806306fdde031461015f578063081812fc1461015a578063095ea7b31461015557806318160ddd1461015057806323b872dd1461014b5780632c33b9d91461014657806342842e0e146101415780636352211e1461013c57806370a08231146101375780637b47ec1a1461013257806380f203631461012d578063836387101461012857806395d89b4114610123578063a22cb4651461011e578063a462cd4914610119578063b88d4fde14610114578063c4e41b221461010f578063caa0f92a1461010f578063ce0a05201461010a578063dd2e0ac0146101055763e985e9c514610100575f80fd5b611853565b611737565b6115a2565b611548565b6114a7565b6112c1565b6111b7565b611090565b611030565b610f12565b610c0e565b610b37565b610add565b6109f6565b610766565b6106c1565b6105e3565b610410565b610370565b6101d4565b91908251928382525f5b8481106101ac5750507fffffffffffffffffffffffffffffffffffffffffffffffffffffffffffffffe0601f845f6020809697860101520116010190565b60208183018101518483018201520161016e565b9060206101d1928181520190610164565b90565b3461036c575f7ffffffffffffffffffffffffffffffffffffffffffffffffffffffffffffffffc36011261036c576040515f7f8785b62d5a7098417c833f00e99883e36791da2bbef1ddc66d7797ca0681c2d25460018160011c9160018116918215610362575b6020916020851084146103355784875260208701939081156102f85750600114610280575b61027c866102708188038261140c565b604051918291826101c0565b0390f35b7f8785b62d5a7098417c833f00e99883e36791da2bbef1ddc66d7797ca0681c2d25f90815294509192917f4eff6dd2ce7e3eed3d8c57a965022ef5c4089064f80bafbcccb1920be91b46a15b8386106102e757505050910190506102708261027c5f610260565b8054858701529482019481016102cc565b7fffffffffffffffffffffffffffffffffffffffffffffffffffffffffffffff0016845250505090151560051b0190506102708261027c5f610260565b7f4e487b71000000000000000000000000000000000000000000000000000000005f52602260045260245ffd5b92607f169261023b565b5f80fd5b3461036c5760207ffffffffffffffffffffffffffffffffffffffffffffffffffffffffffffffffc36011261036c5760206103ac6004356118ec565b73ffffffffffffffffffffffffffffffffffffffff60405191168152f35b6004359073ffffffffffffffffffffffffffffffffffffffff8216820361036c57565b6024359073ffffffffffffffffffffffffffffffffffffffff8216820361036c57565b60407ffffffffffffffffffffffffffffffffffffffffffffffffffffffffffffffffc36011261036c576104426103ca565b6024359073ffffffffffffffffffffffffffffffffffffffff8061046584612a2c565b1633036105bb578061047684612a2c565b169182330361051d575b6104f5816104b5865f527f8785b62d5a7098417c833f00e99883e36791da2bbef1ddc66d7797ca0681c2d660205260405f2090565b9073ffffffffffffffffffffffffffffffffffffffff167fffffffffffffffffffffffff0000000000000000000000000000000000000000825416179055565b16907f8c5be1e5ebec7d5bd14f71427d1e84f3dd0314c0f7b2291e5b200ac8c7c3b9255f80a4005b60ff61058d3361056a8673ffffffffffffffffffffffffffffffffffffffff165f527f8785b62d5a7098417c833f00e99883e36791da2bbef1ddc66d7797ca0681c2d760205260405f2090565b9073ffffffffffffffffffffffffffffffffffffffff165f5260205260405f2090565b5416610480577fcfb3b942000000000000000000000000000000000000000000000000000000005f5260045ffd5b7f0e25afc9000000000000000000000000000000000000000000000000000000005f5260045ffd5b3461036c575f7ffffffffffffffffffffffffffffffffffffffffffffffffffffffffffffffffc36011261036c5760207f8785b62d5a7098417c833f00e99883e36791da2bbef1ddc66d7797ca0681c2d0547f8785b62d5a7098417c833f00e99883e36791da2bbef1ddc66d7797ca0681c2d1549003604051908152f35b7ffffffffffffffffffffffffffffffffffffffffffffffffffffffffffffffffc606091011261036c5773ffffffffffffffffffffffffffffffffffffffff90600435828116810361036c5791602435908116810361036c579060443590565b6106d36106cd36610661565b91611966565b005b906102e07ffffffffffffffffffffffffffffffffffffffffffffffffffffffffffffffffc83011261036c5773ffffffffffffffffffffffffffffffffffffffff600435818116810361036c577fffffffffffffffffffffffffffffffffffffffffffffffffffffffffffffffdc6102809194011261036c576024916102a435916102c435908116810361036c5790565b3461036c57610774366106d5565b9080939293156109f1576107d66107d26107cb8473ffffffffffffffffffffffffffffffffffffffff165f527f791cad950d3b9b323a06def8cb8b7bf2c934c7f4cea39385f023ba145f9b93b260205260405f2090565b5460ff1690565b1590565b6109ec5773ffffffffffffffffffffffffffffffffffffffff938483169261086161082b610825857f791cad950d3b9b323a06def8cb8b7bf2c934c7f4cea39385f023ba145f9b93bb54611cba565b8361308e565b6108358187613348565b7f8785b62d5a7098417c833f00e99883e36791da2bbef1ddc66d7797ca0681c2d0549530903390613454565b61086b8386613539565b5f5b8381106108ad576040518061027c87808a8c167f54627187ccac9ad3566355b77d021df78dd877a086fef2e404a7fdaca4e5a6115f80a382526020820190565b806108ba60019287611cf1565b6108f4856108ef835f527f791cad950d3b9b323a06def8cb8b7bf2c934c7f4cea39385f023ba145f9b93ae60205260405f2090565b61228d565b6109446108ff61144d565b5f81525f60208201525f604082015261093f835f527f791cad950d3b9b323a06def8cb8b7bf2c934c7f4cea39385f023ba145f9b93ad60205260405f2090565b61233a565b610979846104b5835f527f791cad950d3b9b323a06def8cb8b7bf2c934c7f4cea39385f023ba145f9b93b360205260405f2090565b6109b36109ad825f527f791cad950d3b9b323a06def8cb8b7bf2c934c7f4cea39385f023ba145f9b93af60205260405f2090565b60019055565b6109e546915f527f791cad950d3b9b323a06def8cb8b7bf2c934c7f4cea39385f023ba145f9b93c160205260405f2090565b550161086d565b6127cc565b6127a4565b6109ff36610661565b73ffffffffffffffffffffffffffffffffffffffff9291928083163314159081610a85575b81610a70575b50610a48576106d39260405192610a40846113b3565b5f84526125fa565b7ff1ce7c7d000000000000000000000000000000000000000000000000000000005f5260045ffd5b339150610a7c836118ec565b1614155f610a2a565b905060ff610ad43361056a8673ffffffffffffffffffffffffffffffffffffffff165f527f8785b62d5a7098417c833f00e99883e36791da2bbef1ddc66d7797ca0681c2d760205260405f2090565b54161590610a24565b3461036c5760207ffffffffffffffffffffffffffffffffffffffffffffffffffffffffffffffffc36011261036c57602073ffffffffffffffffffffffffffffffffffffffff610b2e600435612a2c565b16604051908152f35b3461036c5760207ffffffffffffffffffffffffffffffffffffffffffffffffffffffffffffffffc36011261036c57610b6e6103ca565b73ffffffffffffffffffffffffffffffffffffffff811615610be65767ffffffffffffffff610bdc60209273ffffffffffffffffffffffffffffffffffffffff165f527f8785b62d5a7098417c833f00e99883e36791da2bbef1ddc66d7797ca0681c2d560205260405f2090565b5416604051908152f35b7f8f4eb604000000000000000000000000000000000000000000000000000000005f5260045ffd5b3461036c5760207ffffffffffffffffffffffffffffffffffffffffffffffffffffffffffffffffc36011261036c57600435610c49816126ee565b15610eea5760ff610c973373ffffffffffffffffffffffffffffffffffffffff165f527f791cad950d3b9b323a06def8cb8b7bf2c934c7f4cea39385f023ba145f9b93c260205260405f2090565b541615610ec257610cc9610cb0610cb0610cb084612a2c565b73ffffffffffffffffffffffffffffffffffffffff1690565b3303610ebd57610d00815f527f791cad950d3b9b323a06def8cb8b7bf2c934c7f4cea39385f023ba145f9b93c160205260405f2090565b544614610eb857610d1081613748565b610d67610d44825f527f791cad950d3b9b323a06def8cb8b7bf2c934c7f4cea39385f023ba145f9b93ae60205260405f2090565b60055f918281558260018201558260028201558260038201558260048201550155565b610dac610d9b825f527f791cad950d3b9b323a06def8cb8b7bf2c934c7f4cea39385f023ba145f9b93ad60205260405f2090565b60025f918281558260018201550155565b610e08610de0825f527f791cad950d3b9b323a06def8cb8b7bf2c934c7f4cea39385f023ba145f9b93b360205260405f2090565b7fffffffffffffffffffffffff00000000000000000000000000000000000000008154169055565b5f8181527f791cad950d3b9b323a06def8cb8b7bf2c934c7f4cea39385f023ba145f9b93c16020526040812055610e91610e69825f527f791cad950d3b9b323a06def8cb8b7bf2c934c7f4cea39385f023ba145f9b93c060205260405f2090565b7fffffffffffffffffffffffffffffffffffffffffffffffffffffffffffffff008154169055565b337f1af5163f80e79b5e554f61e1d052084d3a3fe1166e42a265798c4e2ddce8ffa25f80a3005b6127f4565b6105bb565b7fd8b7de09000000000000000000000000000000000000000000000000000000005f5260045ffd5b7f687e1724000000000000000000000000000000000000000000000000000000005f5260045ffd5b3461036c5760207ffffffffffffffffffffffffffffffffffffffffffffffffffffffffffffffffc36011261036c5760043560ff610f8d3373ffffffffffffffffffffffffffffffffffffffff165f527f791cad950d3b9b323a06def8cb8b7bf2c934c7f4cea39385f023ba145f9b93c260205260405f2090565b541615610ec257610f9d816126ee565b15610eea57805f527f791cad950d3b9b323a06def8cb8b7bf2c934c7f4cea39385f023ba145f9b93c060205260ff60405f205416611008575f5260405f2060017fffffffffffffffffffffffffffffffffffffffffffffffffffffffffffffff008254161790555f80f35b7f24cc4ee6000000000000000000000000000000000000000000000000000000005f5260045ffd5b3461036c5760207ffffffffffffffffffffffffffffffffffffffffffffffffffffffffffffffffc36011261036c5760043561106b816126ee565b15610eea5773ffffffffffffffffffffffffffffffffffffffff610b2e602092612a2c565b3461036c575f7ffffffffffffffffffffffffffffffffffffffffffffffffffffffffffffffffc36011261036c576040515f7f8785b62d5a7098417c833f00e99883e36791da2bbef1ddc66d7797ca0681c2d35460018160011c91600181169182156111a3575b6020916020851084146103355784875260208701939081156102f8575060011461112b5761027c866102708188038261140c565b7f8785b62d5a7098417c833f00e99883e36791da2bbef1ddc66d7797ca0681c2d35f90815294509192917feab2a30426a14f07ecdc76635cd0729eb655bee4c9d04a8fb1b5d85c28c9dae35b83861061119257505050910190506102708261027c5f610260565b805485870152948201948101611177565b92607f16926110f7565b8015150361036c57565b3461036c5760407ffffffffffffffffffffffffffffffffffffffffffffffffffffffffffffffffc36011261036c576111ee6103ca565b73ffffffffffffffffffffffffffffffffffffffff60243591611210836111ad565b61128f8361125f8361056a3373ffffffffffffffffffffffffffffffffffffffff165f527f8785b62d5a7098417c833f00e99883e36791da2bbef1ddc66d7797ca0681c2d760205260405f2090565b9060ff7fffffffffffffffffffffffffffffffffffffffffffffffffffffffffffffff0083541691151516179055565b604051921515835216907f17307eab39ab6107e8899845ad3d59bd9653f200f220920489ca2b5937696c3160203392a3005b3461036c576102e07ffffffffffffffffffffffffffffffffffffffffffffffffffffffffffffffffc36011261036c576112f96103ca565b6102807fffffffffffffffffffffffffffffffffffffffffffffffffffffffffffffffbc36011261036c5760ff61136d3373ffffffffffffffffffffffffffffffffffffffff165f527f791cad950d3b9b323a06def8cb8b7bf2c934c7f4cea39385f023ba145f9b93c260205260405f2090565b541615610ec2576106d3906102c43590602435906123f0565b7f4e487b71000000000000000000000000000000000000000000000000000000005f52604160045260245ffd5b6020810190811067ffffffffffffffff8211176113cf57604052565b611386565b60a0810190811067ffffffffffffffff8211176113cf57604052565b6040810190811067ffffffffffffffff8211176113cf57604052565b90601f7fffffffffffffffffffffffffffffffffffffffffffffffffffffffffffffffe0910116810190811067ffffffffffffffff8211176113cf57604052565b604051906060820182811067ffffffffffffffff8211176113cf57604052565b67ffffffffffffffff81116113cf57601f017fffffffffffffffffffffffffffffffffffffffffffffffffffffffffffffffe01660200190565b60807ffffffffffffffffffffffffffffffffffffffffffffffffffffffffffffffffc36011261036c576114d96103ca565b6114e16103ed565b6064359167ffffffffffffffff831161036c573660238401121561036c5782600401359161150e8361146d565b9261151c604051948561140c565b808452366024828701011161036c576020815f9260246106d398018388013785010152604435916125fa565b3461036c575f7ffffffffffffffffffffffffffffffffffffffffffffffffffffffffffffffffc36011261036c5760207f8785b62d5a7098417c833f00e99883e36791da2bbef1ddc66d7797ca0681c2d054604051908152f35b3461036c576115b0366106d5565b929160ff6115fb3373ffffffffffffffffffffffffffffffffffffffff165f527f791cad950d3b9b323a06def8cb8b7bf2c934c7f4cea39385f023ba145f9b93c260205260405f2090565b541615610ec25761162e827f8785b62d5a7098417c833f00e99883e36791da2bbef1ddc66d7797ca0681c2d05494613539565b5f5b82811061164257604051848152602090f35b808401908185116117325781611685846108ef6001955f527f791cad950d3b9b323a06def8cb8b7bf2c934c7f4cea39385f023ba145f9b93ae60205260405f2090565b6116906108ff61144d565b6116c5876104b5835f527f791cad950d3b9b323a06def8cb8b7bf2c934c7f4cea39385f023ba145f9b93b360205260405f2090565b6116f96109ad825f527f791cad950d3b9b323a06def8cb8b7bf2c934c7f4cea39385f023ba145f9b93af60205260405f2090565b61172b46915f527f791cad950d3b9b323a06def8cb8b7bf2c934c7f4cea39385f023ba145f9b93c160205260405f2090565b5501611630565b611c8d565b3461036c5760207ffffffffffffffffffffffffffffffffffffffffffffffffffffffffffffffffc36011261036c5760043560ff6117b23373ffffffffffffffffffffffffffffffffffffffff165f527f791cad950d3b9b323a06def8cb8b7bf2c934c7f4cea39385f023ba145f9b93c260205260405f2090565b541615610ec2576117c2816126ee565b15610eea57805f527f791cad950d3b9b323a06def8cb8b7bf2c934c7f4cea39385f023ba145f9b93c060205260ff60405f2054161561182b575f5260405f207fffffffffffffffffffffffffffffffffffffffffffffffffffffffffffffff0081541690555f80f35b7fe64eb0c4000000000000000000000000000000000000000000000000000000005f5260045ffd5b3461036c5760407ffffffffffffffffffffffffffffffffffffffffffffffffffffffffffffffffc36011261036c57602060ff6118e06118916103ca565b61056a61189c6103ed565b9173ffffffffffffffffffffffffffffffffffffffff165f527f8785b62d5a7098417c833f00e99883e36791da2bbef1ddc66d7797ca0681c2d760205260405f2090565b54166040519015158152f35b6118f5816126ee565b1561193e575f527f8785b62d5a7098417c833f00e99883e36791da2bbef1ddc66d7797ca0681c2d660205273ffffffffffffffffffffffffffffffffffffffff60405f20541690565b7fcf4700e4000000000000000000000000000000000000000000000000000000005f5260045ffd5b91909161197282612a2c565b9273ffffffffffffffffffffffffffffffffffffffff809216938483821603611c88575f8481527f8785b62d5a7098417c833f00e99883e36791da2bbef1ddc66d7797ca0681c2d66020526040902080546119e973ffffffffffffffffffffffffffffffffffffffff881633908114908314171590565b611c2d575b6119f9868589612c2b565b611c24575b50611a468573ffffffffffffffffffffffffffffffffffffffff165f527f8785b62d5a7098417c833f00e99883e36791da2bbef1ddc66d7797ca0681c2d560205260405f2090565b80547fffffffffffffffffffffffffffffffffffffffffffffffffffffffffffffffff019055611ab38273ffffffffffffffffffffffffffffffffffffffff165f527f8785b62d5a7098417c833f00e99883e36791da2bbef1ddc66d7797ca0681c2d560205260405f2090565b8054600101905573ffffffffffffffffffffffffffffffffffffffff82164260a01b177c020000000000000000000000000000000000000000000000000000000017611b26855f527f8785b62d5a7098417c833f00e99883e36791da2bbef1ddc66d7797ca0681c2d460205260405f2090565b557c0200000000000000000000000000000000000000000000000000000000811615611b81575b501680927fddf252ad1be2c89b69c2b068fc378daa952ba7f163c4a11628f55a4df523b3ef5f80a415611b7c57565b61286c565b60018401611bb6815f527f8785b62d5a7098417c833f00e99883e36791da2bbef1ddc66d7797ca0681c2d460205260405f2090565b5415611bc3575b50611b4d565b7f8785b62d5a7098417c833f00e99883e36791da2bbef1ddc66d7797ca0681c2d0548114611bbd57611c1c905f527f8785b62d5a7098417c833f00e99883e36791da2bbef1ddc66d7797ca0681c2d460205260405f2090565b555f80611bbd565b5f90555f6119fe565b611c7e6107d26107cb3361056a8b73ffffffffffffffffffffffffffffffffffffffff165f527f8785b62d5a7098417c833f00e99883e36791da2bbef1ddc66d7797ca0681c2d760205260405f2090565b156119ee57612844565b61281c565b7f4e487b71000000000000000000000000000000000000000000000000000000005f52601160045260245ffd5b8181029291811591840414171561173257565b906001820180921161173257565b9068010000000000000001820180921161173257565b9190820180921161173257565b60ff81160361036c57565b611d8a90611d4a608435611d1c81611cfe565b829060ff167fffffffffffffffffffffffffffffffffffffffffffffffffffffffffffffff00825416179055565b60a43590611d5782611cfe565b907fffffffffffffffffffffffffffffffffffffffffffffffffffffffffffff00ff61ff0083549260081b169116179055565b565b6020611d8a92611dce8135611da081611cfe565b849060ff167fffffffffffffffffffffffffffffffffffffffffffffffffffffffffffffff00825416179055565b013590611d5782611cfe565b9055565b611ded60c435611d1c81611cfe565b611e2f60e435611dfc81611cfe565b82547fffffffffffffffffffffffffffffffffffffffffffffffffffffffffffff00ff1660089190911b61ff0016178255565b611dda60ff61010435611e4181611cfe565b83547fffffffffffffffffffffffffffffffffffffffffffffffffffffffffff00ffff16911660101b62ff0000161790565b611e836101c435611d1c81611cfe565b611e936101e435611dfc81611cfe565b611dda60ff61020435611e4181611cfe565b9060ff6040611dda92611eea8135611ebc81611cfe565b869060ff167fffffffffffffffffffffffffffffffffffffffffffffffffffffffffffffff00825416179055565b611f2e6020820135611efb81611cfe565b86547fffffffffffffffffffffffffffffffffffffffffffffffffffffffffffff00ff1660089190911b61ff0016178655565b0135611e4181611cfe565b611f7a61022435611f49816111ad565b829060ff7fffffffffffffffffffffffffffffffffffffffffffffffffffffffffffffff0083541691151516179055565b611f8a61024435611dfc81611cfe565b611fcd61026435611f9a816111ad565b82547fffffffffffffffffffffffffffffffffffffffffffffffffffffffffff00ffff1690151560101b62ff0000161790565b815561201461028435611fdf81611cfe565b82547fffffffffffffffffffffffffffffffffffffffffffffffffffffffff00ffffff1660189190911b63ff00000016178255565b611dda6102a435612024816111ad565b82547fffffffffffffffffffffffffffffffffffffffffffffffffffffff00ffffffff1690151560201b64ff00000000161790565b906080611dda9161209f813561206e816111ad565b859060ff7fffffffffffffffffffffffffffffffffffffffffffffffffffffffffffffff0083541691151516179055565b6120e360208201356120b081611cfe565b85547fffffffffffffffffffffffffffffffffffffffffffffffffffffffffffff00ff1660089190911b61ff0016178555565b61212760408201356120f4816111ad565b85547fffffffffffffffffffffffffffffffffffffffffffffffffffffffffff00ffff1690151560101b62ff0000161790565b845561216f606082013561213a81611cfe565b85547fffffffffffffffffffffffffffffffffffffffffffffffffffffffff00ffffff1660189190911b63ff00000016178555565b0135612024816111ad565b6005611d8a9161218f604435611d1c81611cfe565b61219e606435611dfc81611cfe565b6121aa60018201611d09565b6121b660028201611dde565b600381016121ca61012435611d1c81611cfe565b6121da61014435611dfc81611cfe565b612223610164356121ea81611cfe565b82805490917fffffffffffffffffffffffffffffffffffffffffffffffffffffffffff00ffff90911660109190911b62ff000016179055565b61223361018435611fdf81611cfe565b61227960ff6101a43561224581611cfe565b83547fffffffffffffffffffffffffffffffffffffffffffffffffffffff00ffffffff16911660201b64ff00000000161790565b905561228760048201611e73565b01611f39565b60056101e0611d8a936122a08185611d8c565b6122b06040820160018601611d8c565b6122c06080820160028601611ea5565b600384016122d560e0830135611d1c81611cfe565b6122e7610100830135611dfc81611cfe565b6122f96101208301356121ea81611cfe565b61230b610140830135611fdf81611cfe565b61231f60ff61016084013561224581611cfe565b9055612332610180820160048601611ea5565b019101612059565b60026040611d8a9361239e73ffffffffffffffffffffffffffffffffffffffff825116859073ffffffffffffffffffffffffffffffffffffffff167fffffffffffffffffffffffff0000000000000000000000000000000000000000825416179055565b602081015160018501550151151591019060ff7fffffffffffffffffffffffffffffffffffffffffffffffffffffffffffffff0083541691151516179055565b604051906123eb826113b3565b5f8252565b9190916123fc836126ee565b61251457612431835f527f791cad950d3b9b323a06def8cb8b7bf2c934c7f4cea39385f023ba145f9b93c160205260405f2090565b54918215928184159182612509575b50506125045773ffffffffffffffffffffffffffffffffffffffff926124cc575b5061246c8382613d1b565b6124a56124a0845f527f791cad950d3b9b323a06def8cb8b7bf2c934c7f4cea39385f023ba145f9b93ae60205260405f2090565b61217a565b167f54627187ccac9ad3566355b77d021df78dd877a086fef2e404a7fdaca4e5a6115f80a3565b6124fd845f527f791cad950d3b9b323a06def8cb8b7bf2c934c7f4cea39385f023ba145f9b93c160205260405f2090565b555f612461565b612894565b14159050815f612440565b905061254d6107d26107cb845f527f791cad950d3b9b323a06def8cb8b7bf2c934c7f4cea39385f023ba145f9b93c060205260405f2090565b6125f557612585610e69835f527f791cad950d3b9b323a06def8cb8b7bf2c934c7f4cea39385f023ba145f9b93c060205260405f2090565b612594610cb0610cb084612a2c565b9073ffffffffffffffffffffffffffffffffffffffff918281166125db575b50167f482469ed6d6f56569ed4bc4a5adc86cc115c7e09c1f5574b36d53373cdac21965f80a3565b6125ef9084836125e96123de565b92613a49565b5f6125b3565b61182b565b92919073ffffffffffffffffffffffffffffffffffffffff8085163314159081612696575b81612681575b50610a4857612635828286611966565b803b612642575b50505050565b61264b936142da565b15612659575f80808061263c565b7fd1a57ed6000000000000000000000000000000000000000000000000000000005f5260045ffd5b33915061268d846118ec565b1614155f612625565b905060ff6126e53361056a8873ffffffffffffffffffffffffffffffffffffffff165f527f8785b62d5a7098417c833f00e99883e36791da2bbef1ddc66d7797ca0681c2d760205260405f2090565b5416159061261f565b905f917f8785b62d5a7098417c833f00e99883e36791da2bbef1ddc66d7797ca0681c2d054811061271c5750565b9091505b805f527f8785b62d5a7098417c833f00e99883e36791da2bbef1ddc66d7797ca0681c2d460205260405f20548061277f57508015611732577fffffffffffffffffffffffffffffffffffffffffffffffffffffffffffffffff01612720565b7c01000000000000000000000000000000000000000000000000000000009150161590565b7f28b4d3d1000000000000000000000000000000000000000000000000000000005f5260045ffd5b7f3e48f451000000000000000000000000000000000000000000000000000000005f5260045ffd5b7f65803194000000000000000000000000000000000000000000000000000000005f5260045ffd5b7fa1148100000000000000000000000000000000000000000000000000000000005f5260045ffd5b7f59c896be000000000000000000000000000000000000000000000000000000005f5260045ffd5b7fea553b34000000000000000000000000000000000000000000000000000000005f5260045ffd5b7f96ed3a18000000000000000000000000000000000000000000000000000000005f5260045ffd5b7fdf2d9b42000000000000000000000000000000000000000000000000000000005f5260045ffd5b7f0fb51c13000000000000000000000000000000000000000000000000000000005f5260045ffd5b7fd5a6b05d000000000000000000000000000000000000000000000000000000005f5260045ffd5b7f59ca34d4000000000000000000000000000000000000000000000000000000005f5260045ffd5b7fbf79ab09000000000000000000000000000000000000000000000000000000005f5260045ffd5b7fef07d5e4000000000000000000000000000000000000000000000000000000005f5260045ffd5b7fb562e8dd000000000000000000000000000000000000000000000000000000005f5260045ffd5b7f2e076300000000000000000000000000000000000000000000000000000000005f5260045ffd5b5f805260045ffd5b7fc991cbb1000000000000000000000000000000000000000000000000000000005f5260045ffd5b612a5d815f527f8785b62d5a7098417c833f00e99883e36791da2bbef1ddc66d7797ca0681c2d460205260405f2090565b54908115612a8d57507c010000000000000000000000000000000000000000000000000000000081166128bc5790565b90507f8785b62d5a7098417c833f00e99883e36791da2bbef1ddc66d7797ca0681c2d0548110156128bc577fffffffffffffffffffffffffffffffffffffffffffffffffffffffffffffffff905b01612b0d815f527f8785b62d5a7098417c833f00e99883e36791da2bbef1ddc66d7797ca0681c2d460205260405f2090565b54908115612b6357507c01000000000000000000000000000000000000000000000000000000008116156101d1577fdf2d9b42000000000000000000000000000000000000000000000000000000005f5260045ffd5b7fffffffffffffffffffffffffffffffffffffffffffffffffffffffffffffffff9150612adb565b8054821015612ba0575f5260205f2001905f90565b7f4e487b71000000000000000000000000000000000000000000000000000000005f52603260045260245ffd5b90815491680100000000000000008310156113cf5782612bf5916001611d8a95018155612b8b565b9091907fffffffffffffffffffffffffffffffffffffffffffffffffffffffffffffffff83549160031b92831b921b1916179055565b9190915f5b60018110612d00575073ffffffffffffffffffffffffffffffffffffffff90818116612cd4575b508216612c62575050565b5f5b60018110612c7157505050565b600190612cce612cbe8573ffffffffffffffffffffffffffffffffffffffff165f527f791cad950d3b9b323a06def8cb8b7bf2c934c7f4cea39385f023ba145f9b93b160205260405f2090565b612cc88386611cf1565b90612bcd565b01612c64565b5f5b60018110612ce45750612c57565b80612cfa612cf460019387611cf1565b84613f62565b01612cd6565b612d0a8184611cf1565b73ffffffffffffffffffffffffffffffffffffffff831615159081612d3c575b50612d3757600101612c30565b6128e4565b612d7291506107cb905f527f791cad950d3b9b323a06def8cb8b7bf2c934c7f4cea39385f023ba145f9b93c060205260405f2090565b5f612d2a565b9190915f5b828110612e19575073ffffffffffffffffffffffffffffffffffffffff8116612da557505050565b5f5b828110612db45750505050565b612dfb8273ffffffffffffffffffffffffffffffffffffffff165f527f791cad950d3b9b323a06def8cb8b7bf2c934c7f4cea39385f023ba145f9b93b160205260405f2090565b908085019182861161173257600192612e1391612bcd565b01612da7565b808401841161173257600101612d7d565b5f5b60018110612e79575073ffffffffffffffffffffffffffffffffffffffff8116612e54575050565b5f5b60018110612e6357505050565b80612e73612cf460019386611cf1565b01612e56565b612e838184611cf1565b73ffffffffffffffffffffffffffffffffffffffff831615159081612eb0575b50612d3757600101612e2c565b612ee691506107cb905f527f791cad950d3b9b323a06def8cb8b7bf2c934c7f4cea39385f023ba145f9b93c060205260405f2090565b5f612ea3565b5f5b60018110612f8a575073ffffffffffffffffffffffffffffffffffffffff8116612f16575050565b5f5b60018110612f2557505050565b612f6c8273ffffffffffffffffffffffffffffffffffffffff165f527f791cad950d3b9b323a06def8cb8b7bf2c934c7f4cea39385f023ba145f9b93b160205260405f2090565b908084019182851161173257600192612f8491612bcd565b01612f18565b808301831161173257600101612eee565b519069ffffffffffffffffffff8216820361036c57565b908160a091031261036c57612fc681612f9b565b916020820151916040810151916101d1608060608401519301612f9b565b6040513d5f823e3d90fd5b9081602091031261036c57516101d181611cfe565b60ff16604d811161173257600a0a90565b811561301f570490565b7f4e487b71000000000000000000000000000000000000000000000000000000005f52601260045260245ffd5b60ff166012039060ff821161173257565b60ff7fffffffffffffffffffffffffffffffffffffffffffffffffffffffffffffffee9116019060ff821161173257565b9073ffffffffffffffffffffffffffffffffffffffff806131096130ef8573ffffffffffffffffffffffffffffffffffffffff165f527f791cad950d3b9b323a06def8cb8b7bf2c934c7f4cea39385f023ba145f9b93b460205260405f2090565b5473ffffffffffffffffffffffffffffffffffffffff1690565b16156133345761315f610cb0610cb06130ef8673ffffffffffffffffffffffffffffffffffffffff165f527f791cad950d3b9b323a06def8cb8b7bf2c934c7f4cea39385f023ba145f9b93b460205260405f2090565b92604051907ffeaf968c00000000000000000000000000000000000000000000000000000000825260a082600481885afa9182156132af575f925f935f925f926132f9575b505f8513928315936132f0575b5082156132d6575b50506132d15760405193847f313ce567000000000000000000000000000000000000000000000000000000009687825281600460209889935afa9384156132af5761321c6004936132168997613221955f916132b4575b50613004565b90611cba565b613015565b9560405194859384928352165afa9182156132af575f92613282575b505060ff81166012811061326b57601210613256575090565b906132166132666101d19361305d565b613004565b509061327c6132666101d19361304c565b90613015565b6132a19250803d106132a8575b613299818361140c565b810190612fef565b5f8061323d565b503d61328f565b612fe4565b6132cb9150893d8b116132a857613299818361140c565b5f613210565b612934565b69ffffffffffffffffffff90811691161090505f806131b9565b1592505f6131b1565b9250505061332091925060a03d60a01161332d575b613318818361140c565b810190612fb2565b929493909291505f6131a4565b503d61330e565b61290c565b9081602091031261036c575190565b6040517fdd62ed3e00000000000000000000000000000000000000000000000000000000815233600482015230602482015260209173ffffffffffffffffffffffffffffffffffffffff16908281604481855afa80156132af5784915f91613437575b5010613432576040517f70a08231000000000000000000000000000000000000000000000000000000008152336004820152908290829060249082905afa9182156132af575f92613405575b50501061340057565b612984565b6134249250803d1061342b575b61341c818361140c565b810190613339565b5f806133f7565b503d613412565b61295c565b61344e9150843d861161342b5761341c818361140c565b5f6133ab565b5f61350c949381926040519560208701957f23b872dd00000000000000000000000000000000000000000000000000000000875273ffffffffffffffffffffffffffffffffffffffff938480921660248a01521660448801526064870152606486526134bf866113d4565b1692604051946134ce866113f0565b602086527f5361666545524332303a206c6f772d6c6576656c2063616c6c206661696c65646020870152519082855af16135066141d5565b91614330565b805180613517575050565b816020918101031261036c576020611d8a910151613534816111ad565b61409e565b604051613545816113b3565b5f81527f8785b62d5a7098417c833f00e99883e36791da2bbef1ddc66d7797ca0681c2d09182549084156137435761357e858383612d78565b60019173ffffffffffffffffffffffffffffffffffffffff82164260a01b87851460e11b17176135d5825f527f8785b62d5a7098417c833f00e99883e36791da2bbef1ddc66d7797ca0681c2d460205260405f2090565b5561361d8273ffffffffffffffffffffffffffffffffffffffff165f527f8785b62d5a7098417c833f00e99883e36791da2bbef1ddc66d7797ca0681c2d560205260405f2090565b680100000000000000018702815401905573ffffffffffffffffffffffffffffffffffffffff8216801561373e5786820191908480805b6136ef575b50505050613685907f8785b62d5a7098417c833f00e99883e36791da2bbef1ddc66d7797ca0681c2d055565b803b613693575b5050505050565b83549485039180805b6136bb575b505050505054036136b6575f8080808061368c565b6129fc565b156136e2575b5f6136d36107d2868487019686614204565b6136dd578161369c565b612659565b8583106136c157806136a1565b15613726575b505f8583835f7fddf252ad1be2c89b69c2b068fc378daa952ba7f163c4a11628f55a4df523b3ef8180a49081613654565b9091019082821461373757846136f5565b8481613659565b6129d4565b6129ac565b61375181612a2c565b73ffffffffffffffffffffffffffffffffffffffff811661379c835f527f8785b62d5a7098417c833f00e99883e36791da2bbef1ddc66d7797ca0681c2d660205260405f2090815490565b92906137c473ffffffffffffffffffffffffffffffffffffffff841633908114908614171590565b6139ee575b5f936137d58685612e2a565b6139e5575b506138228273ffffffffffffffffffffffffffffffffffffffff165f527f8785b62d5a7098417c833f00e99883e36791da2bbef1ddc66d7797ca0681c2d560205260405f2090565b80546fffffffffffffffffffffffffffffffff01905573ffffffffffffffffffffffffffffffffffffffff82164260a01b177c0300000000000000000000000000000000000000000000000000000000176138a4855f527f8785b62d5a7098417c833f00e99883e36791da2bbef1ddc66d7797ca0681c2d460205260405f2090565b557c0200000000000000000000000000000000000000000000000000000000811615613942575b507fddf252ad1be2c89b69c2b068fc378daa952ba7f163c4a11628f55a4df523b3ef8280a4611d8a61391e7f8785b62d5a7098417c833f00e99883e36791da2bbef1ddc66d7797ca0681c2d15460010190565b7f8785b62d5a7098417c833f00e99883e36791da2bbef1ddc66d7797ca0681c2d155565b60018401613977815f527f8785b62d5a7098417c833f00e99883e36791da2bbef1ddc66d7797ca0681c2d460205260405f2090565b5415613984575b506138cb565b7f8785b62d5a7098417c833f00e99883e36791da2bbef1ddc66d7797ca0681c2d054811461397e576139dd905f527f8785b62d5a7098417c833f00e99883e36791da2bbef1ddc66d7797ca0681c2d460205260405f2090565b555f8061397e565b8390555f6137da565b613a3f6107d26107cb3361056a8773ffffffffffffffffffffffffffffffffffffffff165f527f8785b62d5a7098417c833f00e99883e36791da2bbef1ddc66d7797ca0681c2d760205260405f2090565b156137c957612844565b91929092613a5681612a2c565b73ffffffffffffffffffffffffffffffffffffffff90818516918281831603611c88578391613aaf835f527f8785b62d5a7098417c833f00e99883e36791da2bbef1ddc66d7797ca0681c2d660205260405f2090815490565b613aba858b88612c2b565b613d05575b50613b078473ffffffffffffffffffffffffffffffffffffffff165f527f8785b62d5a7098417c833f00e99883e36791da2bbef1ddc66d7797ca0681c2d560205260405f2090565b80547fffffffffffffffffffffffffffffffffffffffffffffffffffffffffffffffff019055613b748873ffffffffffffffffffffffffffffffffffffffff165f527f8785b62d5a7098417c833f00e99883e36791da2bbef1ddc66d7797ca0681c2d560205260405f2090565b8054600101905573ffffffffffffffffffffffffffffffffffffffff88164260a01b177c020000000000000000000000000000000000000000000000000000000017613be7845f527f8785b62d5a7098417c833f00e99883e36791da2bbef1ddc66d7797ca0681c2d460205260405f2090565b557c0200000000000000000000000000000000000000000000000000000000811615613c62575b50861680927fddf252ad1be2c89b69c2b068fc378daa952ba7f163c4a11628f55a4df523b3ef5f80a415611b7c57833b613c485750505050565b613c55936107d2936142da565b6136dd575f80808061263c565b60018301613c97815f527f8785b62d5a7098417c833f00e99883e36791da2bbef1ddc66d7797ca0681c2d460205260405f2090565b5415613ca4575b50613c0e565b7f8785b62d5a7098417c833f00e99883e36791da2bbef1ddc66d7797ca0681c2d0548114613c9e57613cfd905f527f8785b62d5a7098417c833f00e99883e36791da2bbef1ddc66d7797ca0681c2d460205260405f2090565b555f80613c9e565b5f90555f613abf565b9190820391821161173257565b73ffffffffffffffffffffffffffffffffffffffff811691821561373e577f8785b62d5a7098417c833f00e99883e36791da2bbef1ddc66d7797ca0681c2d0805493848310613f5d57613e3e848493611d8a97613d7b86613e7499612eec565b613d858187613d0e565b80613e98575b50505073ffffffffffffffffffffffffffffffffffffffff81164260a01b177c020000000000000000000000000000000000000000000000000000000017613dfa855f527f8785b62d5a7098417c833f00e99883e36791da2bbef1ddc66d7797ca0681c2d460205260405f2090565b5573ffffffffffffffffffffffffffffffffffffffff165f527f8785b62d5a7098417c833f00e99883e36791da2bbef1ddc66d7797ca0681c2d560205260405f2090565b613e488154611cdb565b90555f7fddf252ad1be2c89b69c2b068fc378daa952ba7f163c4a11628f55a4df523b3ef8180a4611ccd565b7f8785b62d5a7098417c833f00e99883e36791da2bbef1ddc66d7797ca0681c2d055565b613f4c92613e749260018303613f5457613f177c02000000000000000000000000000000000000000000000000000000005b7c010000000000000000000000000000000000000000000000000000000017915f527f8785b62d5a7098417c833f00e99883e36791da2bbef1ddc66d7797ca0681c2d460205260405f2090565b55613f4661391e837f8785b62d5a7098417c833f00e99883e36791da2bbef1ddc66d7797ca0681c2d154611cf1565b54611cf1565b5f8080613d8b565b613f175f613eca565b612a04565b613fa99073ffffffffffffffffffffffffffffffffffffffff165f527f791cad950d3b9b323a06def8cb8b7bf2c934c7f4cea39385f023ba145f9b93b160205260405f2090565b80545f5b818110613fba5750505050565b83613fc58285612b8b565b919054600392831b1c14613fdc5750600101613fad565b919293507fffffffffffffffffffffffffffffffffffffffffffffffffffffffffffffffff92838101908111611732576140299261401d612bf59287612b8b565b9054911b1c9185612b8b565b8154801561407157019061406e6140408383612b8b565b7fffffffffffffffffffffffffffffffffffffffffffffffffffffffffffffffff82549160031b1b19169055565b55565b7f4e487b71000000000000000000000000000000000000000000000000000000005f52603160045260245ffd5b156140a557565b60846040517f08c379a000000000000000000000000000000000000000000000000000000000815260206004820152602a60248201527f5361666545524332303a204552433230206f7065726174696f6e20646964206e60448201527f6f742073756363656564000000000000000000000000000000000000000000006064820152fd5b9081602091031261036c57517fffffffff000000000000000000000000000000000000000000000000000000008116810361036c5790565b6101d1939273ffffffffffffffffffffffffffffffffffffffff6080931682525f602083015260408201528160608201520190610164565b90926101d1949360809373ffffffffffffffffffffffffffffffffffffffff809216845216602083015260408201528160608201520190610164565b3d156141ff573d906141e68261146d565b916141f4604051938461140c565b82523d5f602084013e565b606090565b61425a60209173ffffffffffffffffffffffffffffffffffffffff93945f6040519586809581947f150b7a02000000000000000000000000000000000000000000000000000000009a8b84523360048501614161565b0393165af15f91816142a9575b50614283576142746141d5565b80511561265957805190602001fd5b7fffffffff00000000000000000000000000000000000000000000000000000000161490565b6142cc91925060203d6020116142d3575b6142c4818361140c565b810190614129565b905f614267565b503d6142ba565b9260209161425a935f73ffffffffffffffffffffffffffffffffffffffff6040518097819682957f150b7a02000000000000000000000000000000000000000000000000000000009b8c85523360048601614199565b919290156143ab5750815115614344575090565b3b1561434d5790565b60646040517f08c379a000000000000000000000000000000000000000000000000000000000815260206004820152601d60248201527f416464726573733a2063616c6c20746f206e6f6e2d636f6e74726163740000006044820152fd5b8251909150156143be5750805190602001fd5b6143f4906040519182917f08c379a0000000000000000000000000000000000000000000000000000000008352600483016101c0565b0390fdfea2646970667358221220671fb2c752407402f536d4105f1a76c06f1c60456fe8e4421e7720b16ee3c0d364736f6c63430008180033",
    "linkReferences": {}
  },
  "methodIdentifiers": {
    "approve(address,uint256)": "095ea7b3",
    "balanceOf(address)": "70a08231",
    "burnToken(uint256)": "7b47ec1a",
    "getApproved(uint256)": "081812fc",
    "getNextTokenId()": "caa0f92a",
    "getOwnerOf(uint256)": "83638710",
    "getTotalSupply()": "c4e41b22",
    "isApprovedForAll(address,address)": "e985e9c5",
    "lockToken(uint256)": "80f20363",
    "mintBridgeGenesis(address,((uint8,uint8),(uint8,uint8),(uint8,uint8,uint8),(uint8,uint8,uint8,uint8,uint8),(uint8,uint8,uint8),(bool,uint8,bool,uint8,bool)),uint256,address)": "ce0a0520",
    "mintBridgeToken(address,uint256,((uint8,uint8),(uint8,uint8),(uint8,uint8,uint8),(uint8,uint8,uint8,uint8,uint8),(uint8,uint8,uint8),(bool,uint8,bool,uint8,bool)),uint256)": "a462cd49",
    "mintGenesis(address,((uint8,uint8),(uint8,uint8),(uint8,uint8,uint8),(uint8,uint8,uint8,uint8,uint8),(uint8,uint8,uint8),(bool,uint8,bool,uint8,bool)),uint256,address)": "2c33b9d9",
    "name()": "06fdde03",
    "ownerOf(uint256)": "6352211e",
    "safeTransferFrom(address,address,uint256)": "42842e0e",
    "safeTransferFrom(address,address,uint256,bytes)": "b88d4fde",
    "setApprovalForAll(address,bool)": "a22cb465",
    "symbol()": "95d89b41",
    "totalSupply()": "18160ddd",
    "transferFrom(address,address,uint256)": "23b872dd",
    "unlockToken(uint256)": "dd2e0ac0"
  },
  "id": 128
}