{"abi":[{"type":"constructor","inputs":[{"name":"_owner","type":"address","internalType":"address"},{"name":"_beanHeads","type":"address","internalType":"address"},{"name":"_vrfCoordinator","type":"address","internalType":"address"},{"name":"_subscriptionId","type":"uint256","internalType":"uint256"},{"name":"_keyHash","type":"bytes32","internalType":"bytes32"}],"stateMutability":"nonpayable"},{"type":"fallback","stateMutability":"payable"},{"type":"receive","stateMutability":"payable"},{"type":"function","name":"acceptOwnership","inputs":[],"outputs":[],"stateMutability":"nonpayable"},{"type":"function","name":"depositBeanHeads","inputs":[{"name":"tokenId","type":"uint256","internalType":"uint256"}],"outputs":[],"stateMutability":"nonpayable"},{"type":"function","name":"getBreedRequest","inputs":[{"name":"requestId","type":"uint256","internalType":"uint256"}],"outputs":[{"name":"request","type":"tuple","internalType":"struct IBeanHeadsBreeder.BreedRequest","components":[{"name":"owner","type":"address","internalType":"address"},{"name":"parent1Id","type":"uint256","internalType":"uint256"},{"name":"parent2Id","type":"uint256","internalType":"uint256"},{"name":"mode","type":"uint8","internalType":"enum IBeanHeadsBreeder.BreedingMode"}]}],"stateMutability":"view"},{"type":"function","name":"getEscrowedTokenOwner","inputs":[{"name":"tokenId","type":"uint256","internalType":"uint256"}],"outputs":[{"name":"owner","type":"address","internalType":"address"}],"stateMutability":"view"},{"type":"function","name":"getParentBreedingCount","inputs":[{"name":"tokenId","type":"uint256","internalType":"uint256"}],"outputs":[{"name":"count","type":"uint256","internalType":"uint256"}],"stateMutability":"view"},{"type":"function","name":"getRarityPoints","inputs":[{"name":"tokenId","type":"uint256","internalType":"uint256"}],"outputs":[{"name":"","type":"uint256","internalType":"uint256"}],"stateMutability":"view"},{"type":"function","name":"onERC721Received","inputs":[{"name":"","type":"address","internalType":"address"},{"name":"","type":"address","internalType":"address"},{"name":"","type":"uint256","internalType":"uint256"},{"name":"","type":"bytes","internalType":"bytes"}],"outputs":[{"name":"","type":"bytes4","internalType":"bytes4"}],"stateMutability":"pure"},{"type":"function","name":"owner","inputs":[],"outputs":[{"name":"","type":"address","internalType":"address"}],"stateMutability":"view"},{"type":"function","name":"rawFulfillRandomWords","inputs":[{"name":"requestId","type":"uint256","internalType":"uint256"},{"name":"randomWords","type":"uint256[]","internalType":"uint256[]"}],"outputs":[],"stateMutability":"nonpayable"},{"type":"function","name":"requestBreed","inputs":[{"name":"parent1Id","type":"uint256","internalType":"uint256"},{"name":"parent2Id","type":"uint256","internalType":"uint256"},{"name":"mode","type":"uint8","internalType":"enum IBeanHeadsBreeder.BreedingMode"},{"name":"paymentToken","type":"address","internalType":"address"}],"outputs":[{"name":"requestId","type":"uint256","internalType":"uint256"}],"stateMutability":"nonpayable"},{"type":"function","name":"s_breedRequests","inputs":[{"name":"requestId","type":"uint256","internalType":"uint256"}],"outputs":[{"name":"owner","type":"address","internalType":"address"},{"name":"parent1Id","type":"uint256","internalType":"uint256"},{"name":"parent2Id","type":"uint256","internalType":"uint256"},{"name":"mode","type":"uint8","internalType":"enum IBeanHeadsBreeder.BreedingMode"}],"stateMutability":"view"},{"type":"function","name":"s_escrowedTokens","inputs":[{"name":"tokenId","type":"uint256","internalType":"uint256"}],"outputs":[{"name":"owner","type":"address","internalType":"address"}],"stateMutability":"view"},{"type":"function","name":"s_lastBreedingBlock","inputs":[{"name":"owner","type":"address","internalType":"address"}],"outputs":[{"name":"lastBreedingBlock","type":"uint256","internalType":"uint256"}],"stateMutability":"view"},{"type":"function","name":"s_mutatedRarityPoints","inputs":[{"name":"tokenId","type":"uint256","internalType":"uint256"}],"outputs":[{"name":"rarityPoints","type":"uint256","internalType":"uint256"}],"stateMutability":"view"},{"type":"function","name":"s_parentBreedingCount","inputs":[{"name":"tokenId","type":"uint256","internalType":"uint256"}],"outputs":[{"name":"count","type":"uint256","internalType":"uint256"}],"stateMutability":"view"},{"type":"function","name":"s_vrfCoordinator","inputs":[],"outputs":[{"name":"","type":"address","internalType":"contract IVRFCoordinatorV2Plus"}],"stateMutability":"view"},{"type":"function","name":"setCoolDown","inputs":[{"name":"coolDown","type":"uint256","internalType":"uint256"}],"outputs":[],"stateMutability":"nonpayable"},{"type":"function","name":"setCoordinator","inputs":[{"name":"_vrfCoordinator","type":"address","internalType":"address"}],"outputs":[],"stateMutability":"nonpayable"},{"type":"function","name":"transferOwnership","inputs":[{"name":"to","type":"address","internalType":"address"}],"outputs":[],"stateMutability":"nonpayable"},{"type":"function","name":"withdrawBeanHeads","inputs":[{"name":"tokenId","type":"uint256","internalType":"uint256"}],"outputs":[],"stateMutability":"nonpayable"},{"type":"function","name":"withdrawFunds","inputs":[{"name":"token","type":"address","internalType":"address"}],"outputs":[],"stateMutability":"nonpayable"},{"type":"event","name":"AscensionCompleted","inputs":[{"name":"owner","type":"address","indexed":true,"internalType":"address"},{"name":"requestId","type":"uint256","indexed":true,"internalType":"uint256"},{"name":"burnedTokenId","type":"uint256","indexed":false,"internalType":"uint256"},{"name":"newTokenId","type":"uint256","indexed":false,"internalType":"uint256"},{"name":"childGeneration","type":"uint256","indexed":false,"internalType":"uint256"},{"name":"rarityPoints","type":"uint256","indexed":false,"internalType":"uint256"}],"anonymous":false},{"type":"event","name":"BeanHeadsDeposited","inputs":[{"name":"owner","type":"address","indexed":true,"internalType":"address"},{"name":"parent1Id","type":"uint256","indexed":false,"internalType":"uint256"}],"anonymous":false},{"type":"event","name":"BeanHeadsWithdrawn","inputs":[{"name":"owner","type":"address","indexed":true,"internalType":"address"},{"name":"tokenId","type":"uint256","indexed":false,"internalType":"uint256"}],"anonymous":false},{"type":"event","name":"BreedRequestFulfilled","inputs":[{"name":"owner","type":"address","indexed":true,"internalType":"address"},{"name":"requestId","type":"uint256","indexed":false,"internalType":"uint256"},{"name":"mode","type":"uint8","indexed":false,"internalType":"enum IBeanHeadsBreeder.BreedingMode"},{"name":"newTokenId","type":"uint256","indexed":false,"internalType":"uint256"}],"anonymous":false},{"type":"event","name":"BreedRequestRefunded","inputs":[{"name":"owner","type":"address","indexed":true,"internalType":"address"},{"name":"paymentToken","type":"address","indexed":true,"internalType":"address"},{"name":"paymentAmount","type":"uint256","indexed":false,"internalType":"uint256"}],"anonymous":false},{"type":"event","name":"CoordinatorSet","inputs":[{"name":"vrfCoordinator","type":"address","indexed":false,"internalType":"address"}],"anonymous":false},{"type":"event","name":"FundsWithdrawn","inputs":[{"name":"token","type":"address","indexed":true,"internalType":"address"},{"name":"amount","type":"uint256","indexed":false,"internalType":"uint256"}],"anonymous":false},{"type":"event","name":"FusionCompleted","inputs":[{"name":"owner","type":"address","indexed":true,"internalType":"address"},{"name":"requestId","type":"uint256","indexed":true,"internalType":"uint256"},{"name":"burnedParent1Id","type":"uint256","indexed":false,"internalType":"uint256"},{"name":"burnedParent2Id","type":"uint256","indexed":false,"internalType":"uint256"},{"name":"newTokenId","type":"uint256","indexed":false,"internalType":"uint256"},{"name":"childGeneration","type":"uint256","indexed":false,"internalType":"uint256"},{"name":"rarityPoints","type":"uint256","indexed":false,"internalType":"uint256"}],"anonymous":false},{"type":"event","name":"MutationCompleted","inputs":[{"name":"owner","type":"address","indexed":true,"internalType":"address"},{"name":"requestId","type":"uint256","indexed":true,"internalType":"uint256"},{"name":"burnedTokenId","type":"uint256","indexed":false,"internalType":"uint256"},{"name":"survivingTokenId","type":"uint256","indexed":false,"internalType":"uint256"},{"name":"newTokenId","type":"uint256","indexed":false,"internalType":"uint256"},{"name":"childGeneration","type":"uint256","indexed":false,"internalType":"uint256"},{"name":"rarityPoints","type":"uint256","indexed":false,"internalType":"uint256"}],"anonymous":false},{"type":"event","name":"NewBreedCompleted","inputs":[{"name":"owner","type":"address","indexed":true,"internalType":"address"},{"name":"requestId","type":"uint256","indexed":true,"internalType":"uint256"},{"name":"parent1Id","type":"uint256","indexed":false,"internalType":"uint256"},{"name":"parent2Id","type":"uint256","indexed":false,"internalType":"uint256"},{"name":"newTokenId","type":"uint256","indexed":false,"internalType":"uint256"},{"name":"childGeneration","type":"uint256","indexed":false,"internalType":"uint256"},{"name":"rarityPoints","type":"uint256","indexed":false,"internalType":"uint256"}],"anonymous":false},{"type":"event","name":"OwnershipTransferRequested","inputs":[{"name":"from","type":"address","indexed":true,"internalType":"address"},{"name":"to","type":"address","indexed":true,"internalType":"address"}],"anonymous":false},{"type":"event","name":"OwnershipTransferred","inputs":[{"name":"from","type":"address","indexed":true,"internalType":"address"},{"name":"to","type":"address","indexed":true,"internalType":"address"}],"anonymous":false},{"type":"event","name":"RequestBreed","inputs":[{"name":"owner","type":"address","indexed":true,"internalType":"address"},{"name":"parent1Id","type":"uint256","indexed":false,"internalType":"uint256"},{"name":"parent2Id","type":"uint256","indexed":false,"internalType":"uint256"},{"name":"requestId","type":"uint256","indexed":false,"internalType":"uint256"},{"name":"mode","type":"uint8","indexed":false,"internalType":"enum IBeanHeadsBreeder.BreedingMode"}],"anonymous":false},{"type":"error","name":"IBeanHeadsBreeder__BreedLimitReached","inputs":[]},{"type":"error","name":"IBeanHeadsBreeder__CannotBreedSameBeanHead","inputs":[]},{"type":"error","name":"IBeanHeadsBreeder__CoolDownNotPassed","inputs":[]},{"type":"error","name":"IBeanHeadsBreeder__InsufficientAllowance","inputs":[]},{"type":"error","name":"IBeanHeadsBreeder__InsufficientBalance","inputs":[]},{"type":"error","name":"IBeanHeadsBreeder__InsufficientPayment","inputs":[]},{"type":"error","name":"IBeanHeadsBreeder__InvalidOraclePrice","inputs":[]},{"type":"error","name":"IBeanHeadsBreeder__InvalidRequestId","inputs":[]},{"type":"error","name":"IBeanHeadsBreeder__InvalidToken","inputs":[]},{"type":"error","name":"IBeanHeadsBreeder__InvalidTokenId","inputs":[]},{"type":"error","name":"IBeanHeadsBreeder__NotOwner","inputs":[]},{"type":"error","name":"IBeanHeadsBreeder__RequestAlreadyFulfilled","inputs":[]},{"type":"error","name":"IBeanHeadsBreeder__TokensNotEscrowedBySender","inputs":[]},{"type":"error","name":"IBeanHeadsBreeder__TransferFailed","inputs":[]},{"type":"error","name":"OnlyCoordinatorCanFulfill","inputs":[{"name":"have","type":"address","internalType":"address"},{"name":"want","type":"address","internalType":"address"}]},{"type":"error","name":"OnlyOwnerOrCoordinator","inputs":[{"name":"have","type":"address","internalType":"address"},{"name":"owner","type":"address","internalType":"address"},{"name":"coordinator","type":"address","internalType":"address"}]},{"type":"error","name":"ZeroAddress","inputs":[]}],"bytecode":{"object":"0x60e0346200029b57601f6200423338819003918201601f191683019291906001600160401b038411838510176200029f578160a092849260409687528339810103126200029b576200005181620002b3565b906200006060208201620002b3565b916200006e848301620002b3565b916080606082015191015190331562000257575f80546001600160a01b03199081163317909155946001600160a01b039485169081156200024657858760025416916032600355166080521760025560a05260c05216903382148015620001c5575b8351613f6a9081620002c982396080518181816102f9015281816105e0015281816109c401528181611a8d01528181611b3c01528181611bd501528181611c44015281816120c801528181612148015281816122010152818161228b015281816122fa01528181612344015281816123b301528181612626015281816126d201528181612751015281816127d0015281816128730152818161290b01528181612955015281816129c401528181612bc901528181612c4801528181612cff01528181612d9c01528181612e3401528181612e9801528181612f30015261357f015260a05181610c66015260c05181610c3a0152f35b620002025781906001541617600155337fed8889f560326eb138920d842192f0eb3dd22b4f139c87a2c57538e05bae12785f80a35f8080620000d0565b825162461bcd60e51b815260206004820152601760248201527f43616e6e6f74207472616e7366657220746f2073656c660000000000000000006044820152606490fd5b875163d92e233d60e01b8152600490fd5b855162461bcd60e51b815260206004820152601860248201527f43616e6e6f7420736574206f776e657220746f207a65726f00000000000000006044820152606490fd5b5f80fd5b634e487b7160e01b5f52604160045260245ffd5b51906001600160a01b03821682036200029b5756fe608080604052600436101561001a575b50361561001857005b005b5f905f915f3560e01c918263150b7a0214613162575081631fe543e3146116a85781632bc6b145146116455781632e24be5d146115e75781634565dc3e1461158157816358b515c81461153957816368742da6146113bf57816379ba5097146112b85781637c172ef3146112705781637c56687a1461122f57816382b120821461114d5781638702cc7614610934575080638da5cb5b146108e35780638ea98117146107aa57806394e99929146107625780639eccacf614610710578063a76c2803146106c8578063bb87eaa31461054d578063c490078c146102ac578063dd7a37a6146102205763f2fde38b0361000f573461021d5760207ffffffffffffffffffffffffffffffffffffffffffffffffffffffffffffffffc36011261021d57610143613216565b61014b61343a565b73ffffffffffffffffffffffffffffffffffffffff809116903382146101bf57817fffffffffffffffffffffffff000000000000000000000000000000000000000060015416176001558254167fed8889f560326eb138920d842192f0eb3dd22b4f139c87a2c57538e05bae12788380a380f35b60646040517f08c379a000000000000000000000000000000000000000000000000000000000815260206004820152601760248201527f43616e6e6f74207472616e7366657220746f2073656c660000000000000000006044820152fd5b80fd5b503461021d5760207ffffffffffffffffffffffffffffffffffffffffffffffffffffffffffffffffc36011261021d57604060809160043581526004602052206102aa73ffffffffffffffffffffffffffffffffffffffff8254169160018101549060ff600360028301549201541691604051948552602085015260408401526060830190613239565bf35b503461021d576020807ffffffffffffffffffffffffffffffffffffffffffffffffffffffffffffffffc36011261048e576004359073ffffffffffffffffffffffffffffffffffffffff807f000000000000000000000000000000000000000000000000000000000000000016906040517f4f558e790000000000000000000000000000000000000000000000000000000081528460048201528381602481865afa9081156104eb578691610520575b50156104f657604051907f836387100000000000000000000000000000000000000000000000000000000082528460048301528382602481865afa9182156104eb5786926104bc575b5033911603610492578084913b1561048e576040517f42842e0e000000000000000000000000000000000000000000000000000000008152336004820152306024820152604481018590529082908290606490829084905af180156104835761046b575b5090827fee22009d0b6e203a1c7f5484115c17db41da0fd98cc0c98abd5299731679b04a92526005815260408420337fffffffffffffffffffffffff00000000000000000000000000000000000000008254161790556040519283523392a280f35b610474906132ff565b61047f57825f610409565b8280fd5b6040513d84823e3d90fd5b5080fd5b60046040517f227d721c000000000000000000000000000000000000000000000000000000008152fd5b6104dd919250843d86116104e4575b6104d58183613313565b81019061340e565b905f6103a5565b503d6104cb565b6040513d88823e3d90fd5b60046040517fcc3e8aa7000000000000000000000000000000000000000000000000000000008152fd5b6105409150843d8611610546575b6105388183613313565b810190613360565b5f61035c565b503d61052e565b503461021d5760207ffffffffffffffffffffffffffffffffffffffffffffffffffffffffffffffffc36011261021d57600435808252600560205273ffffffffffffffffffffffffffffffffffffffff80604084205416330361069e5782908282526005602052604082207fffffffffffffffffffffffff000000000000000000000000000000000000000081541690557f000000000000000000000000000000000000000000000000000000000000000016803b1561048e576040517f42842e0e000000000000000000000000000000000000000000000000000000008152306004820152336024820152604481018490529082908290606490829084905af180156104835761068a575b50506040519081527f3becb35d36294fb30aed06b9fa47efe4eafb95989d00ae497d9f4b3be6534b2360203392a280f35b610693906132ff565b61048e57815f610659565b60046040517f551258f4000000000000000000000000000000000000000000000000000000008152fd5b503461021d5760207ffffffffffffffffffffffffffffffffffffffffffffffffffffffffffffffffc36011261021d5760406020916004358152600683522054604051908152f35b503461021d57807ffffffffffffffffffffffffffffffffffffffffffffffffffffffffffffffffc36011261021d57602073ffffffffffffffffffffffffffffffffffffffff60025416604051908152f35b503461021d5760207ffffffffffffffffffffffffffffffffffffffffffffffffffffffffffffffffc36011261021d5760406020916004358152600883522054604051908152f35b503461021d5760207ffffffffffffffffffffffffffffffffffffffffffffffffffffffffffffffffc36011261021d576107e2613216565b73ffffffffffffffffffffffffffffffffffffffff908183541680331415806108d5575b610894575016801561086a576020817fd1a6a14209a385a964d036e404cb5cfb71f4000cdb03c9366292430787261be6927fffffffffffffffffffffffff00000000000000000000000000000000000000006002541617600255604051908152a180f35b60046040517fd92e233d000000000000000000000000000000000000000000000000000000008152fd5b6064908360025416604051917f061db9c100000000000000000000000000000000000000000000000000000000835233600484015260248301526044820152fd5b508260025416331415610806565b503461021d57807ffffffffffffffffffffffffffffffffffffffffffffffffffffffffffffffffc36011261021d5773ffffffffffffffffffffffffffffffffffffffff6020915416604051908152f35b90503461048e5760807ffffffffffffffffffffffffffffffffffffffffffffffffffffffffffffffffc36011261048e57600435602492833560443591600483101561021d576064359573ffffffffffffffffffffffffffffffffffffffff9081881680890361114957600386036110bd578461109357868452600560205282604085205416330361069e575b827f00000000000000000000000000000000000000000000000000000000000000001698604051997ff9eaee0d000000000000000000000000000000000000000000000000000000008b528260048c015260209a8b818681855afa908115610fe1578791611076575b501561104c578a600491604051928380927fa7f93ebd0000000000000000000000000000000000000000000000000000000082525afa9081156104eb57869161101d575b50610a789161352a565b6040517fdd62ed3e0000000000000000000000000000000000000000000000000000000081523360048201523060248201528a81604481865afa9081156104eb578691610fec575b50604051907f70a082310000000000000000000000000000000000000000000000000000000082523360048301528b828681875afa918215610fe1579083918893610faa575b5010610f80578111610f5657604080517f23b872dd00000000000000000000000000000000000000000000000000000000818d01523385820190815230602082015291820192909252610b8e9290610b89908390606001037fffffffffffffffffffffffffffffffffffffffffffffffffffffffffffffffe08101845283613313565b613a16565b858352600888526005604084205410801590610f44575b610f1a5733835260078852610bc1604084205460035490613378565b4310610ef05781600254166040519089820182811067ffffffffffffffff821117610ec4578a918491604052868452604051937f92fd1338000000000000000000000000000000000000000000000000000000008486015251151582850152818452610c2c846132c7565b604051610c388161328f565b7f000000000000000000000000000000000000000000000000000000000000000081528784610d18818401977f000000000000000000000000000000000000000000000000000000000000000089526040850160038152606086016207a120815261ffff60808801926001845260a089019485526040519c8d9b8c9a8b997f9b1c385e000000000000000000000000000000000000000000000000000000008b5260048b0152519089015251604488015251166064860152519063ffffffff8092166084860152511660a48401525160c060c484015260e4830190613385565b03925af1978815610eb9578498610e87575b50506003604051610d3a81613246565b33815289810188815260408201908782526060830195610d5a8a88613354565b8b885260048d52604088209351167fffffffffffffffffffffffff0000000000000000000000000000000000000000845416178355516001830155516002820155019151906004821015610e5c57509181610e2e95949360ff7fffffffffffffffffffffffffffffffffffffffffffffffffffffffffffffff006040955416911617905533815260078852438282205585815260088852818120610dfe81546133e1565b90558281526008885220610e1281546133e1565b9055604051938452858401528360408401526060830190613239565b7fece922f945e7448de18bb9ed229389aafd0f5a7c3ab43ef4c052701251ad34cf60803392a2604051908152f35b837f4e487b710000000000000000000000000000000000000000000000000000000081526021600452fd5b909197508882813d8311610eb2575b610ea08183613313565b8101031261021d575051955f80610d2a565b503d610e96565b6040513d86823e3d90fd5b838a7f4e487b710000000000000000000000000000000000000000000000000000000081526041600452fd5b60046040517f3d4e82d9000000000000000000000000000000000000000000000000000000008152fd5b60046040517f0c7209df000000000000000000000000000000000000000000000000000000008152fd5b50838352600560408420541015610ba5565b60046040517fcc3d7335000000000000000000000000000000000000000000000000000000008152fd5b60046040517ff94b3651000000000000000000000000000000000000000000000000000000008152fd5b8d809294508193503d8311610fda575b610fc48183613313565b81010312610fd657829051915f610b06565b8a80fd5b503d610fba565b6040513d89823e3d90fd5b90508a81813d8311611016575b6110038183613313565b8101031261101257515f610ac0565b8980fd5b503d610ff9565b90508a81813d8311611045575b6110348183613313565b810103126110125751610a78610a6e565b503d61102a565b60046040517f989bddc7000000000000000000000000000000000000000000000000000000008152fd5b61108d91508c8d3d10610546576105388183613313565b5f610a2a565b60046040517fcffc9a0b000000000000000000000000000000000000000000000000000000008152fd5b84871461111f57868452600560205282604085205416331480159061110c575b156109c15760046040517f551258f4000000000000000000000000000000000000000000000000000000008152fd5b50848452338360408620541614156110dd565b60046040517fe9c2bc80000000000000000000000000000000000000000000000000000000008152fd5b8780fd5b823461021d5760207ffffffffffffffffffffffffffffffffffffffffffffffffffffffffffffffffc36011261021d57806040916060835161118e81613246565b8281528260208201528285820152015260043581526004602052206040516111b581613246565b73ffffffffffffffffffffffffffffffffffffffff8083541682526001830154926020830193845260ff60036002830154926040860193845201541690611200606085019283613354565b8284511615611093576080946102aa936040519551168552516020850152516040840152516060830190613239565b823461021d5760207ffffffffffffffffffffffffffffffffffffffffffffffffffffffffffffffffc36011261021d5761126761343a565b60043560035580f35b823461021d5760207ffffffffffffffffffffffffffffffffffffffffffffffffffffffffffffffffc36011261021d5760406020916004358152600683522054604051908152f35b823461021d57807ffffffffffffffffffffffffffffffffffffffffffffffffffffffffffffffffc36011261021d5760015473ffffffffffffffffffffffffffffffffffffffff80821633036113615782547fffffffffffffffffffffffff00000000000000000000000000000000000000008082163390811786559316600155167f8be0079c531659141344cd1fd0a4f28419497f9722a3daafe3b4186f6b6457e08380a380f35b60646040517f08c379a000000000000000000000000000000000000000000000000000000000815260206004820152601660248201527f4d7573742062652070726f706f736564206f776e6572000000000000000000006044820152fd5b90503461048e576020807ffffffffffffffffffffffffffffffffffffffffffffffffffffffffffffffffc36011261047f5773ffffffffffffffffffffffffffffffffffffffff61140e613216565b61141661343a565b16916040517f70a082310000000000000000000000000000000000000000000000000000000081523060048201528281602481875afa91821561152e5785926114de575b505090817feaff4b37086828766ad3268786972c0cd24259d4c87a80f9d3963a3c3d999b0d9261148f575b604051908152a280f35b6114d96040517fa9059cbb0000000000000000000000000000000000000000000000000000000084820152336024820152826044820152604481526114d381613246565b85613a16565b611485565b9091508282813d8311611527575b6114f68183613313565b8101031261021d5750517feaff4b37086828766ad3268786972c0cd24259d4c87a80f9d3963a3c3d999b0d5f61145a565b503d6114ec565b6040513d87823e3d90fd5b823461021d5760207ffffffffffffffffffffffffffffffffffffffffffffffffffffffffffffffffc36011261021d5760406020916004358152600883522054604051908152f35b823461021d5760207ffffffffffffffffffffffffffffffffffffffffffffffffffffffffffffffffc36011261021d57604073ffffffffffffffffffffffffffffffffffffffff9160043581526005602052205416801561109357602090604051908152f35b823461021d5760207ffffffffffffffffffffffffffffffffffffffffffffffffffffffffffffffffc36011261021d5773ffffffffffffffffffffffffffffffffffffffff6040602092600435815260058452205416604051908152f35b823461021d5760207ffffffffffffffffffffffffffffffffffffffffffffffffffffffffffffffffc36011261021d57604060209173ffffffffffffffffffffffffffffffffffffffff611697613216565b168152600783522054604051908152f35b905034611fd95760407ffffffffffffffffffffffffffffffffffffffffffffffffffffffffffffffffc360112611fd95767ffffffffffffffff90602435828111611fd95736602382011215611fd9578060040135928311611fd9573660248460051b83010111611fd95773ffffffffffffffffffffffffffffffffffffffff6002541680330361310f57506004355f52600460205260405f209261179160ff60036040519661175788613246565b73ffffffffffffffffffffffffffffffffffffffff8154168852600181015460208901526002810154604089015201541660608601613354565b73ffffffffffffffffffffffffffffffffffffffff84511615611093571591826130e2576040516117c18161328f565b6040516117cd816132ab565b5f81525f602082015281526040516117e4816132ab565b5f81525f602082015260208201526117fa61388e565b60408201526118076138ac565b606082015261181461388e565b608082015260a06118236138ac565b91015260ff600a602484013506169160ff6005602483013506166040519361184a856132ab565b80855281602086015260405161185f816132ab565b818152826020820152604051611874816132c7565b82815283602082015282604082015260405191611890836132e3565b838352836020840152836040840152836060840152846080840152604051936118b8856132c7565b8085526020850152846040850152600160248701351615604051956118dc876132e3565b81875280602088015281604088015260608701526080860152604051976119028961328f565b8852602088015260408701526060860152608085015260a08401526004355f5260046020525f60036040822082815582600182015582600282015501555f93606086015160048110156130175715612b76575b60608601516004811015611f80576001146125d1575b60608601516004811015611f8057600214612073575b60608601516004811015611f8057600314611a33575b50505050606073ffffffffffffffffffffffffffffffffffffffff835116920151906004821015611a06577faf02e36fab6d22c5c3c6541916656dafdcf98690c4320d16c76d1a6351efc31c916060916119fd6040519260043584526020840190613239565b6040820152a280f35b6024847f4e487b710000000000000000000000000000000000000000000000000000000081526021600452fd5b9091929594935061204657602083015191604051927f56e3df97000000000000000000000000000000000000000000000000000000008452600484015260208360248173ffffffffffffffffffffffffffffffffffffffff7f0000000000000000000000000000000000000000000000000000000000000000165afa92831561152e578593612012575b50600183018311611fe557602084959673ffffffffffffffffffffffffffffffffffffffff611b229651169060405196879283927fbf5141820000000000000000000000000000000000000000000000000000000084526001890191600485016138d6565b03818973ffffffffffffffffffffffffffffffffffffffff7f0000000000000000000000000000000000000000000000000000000000000000165af19384156104eb578694611fad575b5060208501519160608601516004811015611f80575f935f938215611f08575b60018314611e63575b60028314611d8a575b5050600314611cf4575b5050828552600660205280604086205584602085015173ffffffffffffffffffffffffffffffffffffffff7f0000000000000000000000000000000000000000000000000000000000000000163b1561048e57604051907f42966c68000000000000000000000000000000000000000000000000000000008252600482015281816024818373ffffffffffffffffffffffffffffffffffffffff7f0000000000000000000000000000000000000000000000000000000000000000165af1801561048357611cdc575b505073ffffffffffffffffffffffffffffffffffffffff84511690600160208601519360405194855285602086015201604084015260608301527fa9c3dd317d526fd62b630e3e369b3f25888c853e130b5a182fa769d9539ede6c608060043593a35f808080611997565b611ce5906132ff565b611cf057845f611c71565b8480fd5b909150602883029083820460281484151715611d5d579060286024611d1c9301350690613378565b9060328201809211611d3057505f80611ba8565b807f4e487b7100000000000000000000000000000000000000000000000000000000602492526011600452fd5b6024837f4e487b710000000000000000000000000000000000000000000000000000000081526011600452fd5b90919450601e860290861590878304601e14821715611e365785611e365780611d30575060011715611e0957611dee6032611df393604051602081019182525f604082015260408152611ddc816132c7565b51902006603260248601350692613378565b613378565b606481018111611e09576064019260035f611b9e565b7f4e487b71000000000000000000000000000000000000000000000000000000005f52601160045260245ffd5b6024867f4e487b710000000000000000000000000000000000000000000000000000000081526011600452fd5b945090919250601e85028515868204601e14811715611e365790859493929185611edb5760011715611e0957611ec890611dee602860405160208101908682525f604082015260408152611eb6816132c7565b51902006602860248801350692613378565b601481018111611e095760140194611b95565b6024877f4e487b710000000000000000000000000000000000000000000000000000000081526011600452fd5b5093505f9385600a810204600a1486151715611e09575f86611f78575b611f6590611dee601e60405160208101908682525f604082015260408152611f4c816132c7565b51902006611dee601e60248901350693600a8c02613378565b600a81018111611e0957600a0194611b8c565b506014611f25565b6024887f4e487b710000000000000000000000000000000000000000000000000000000081526021600452fd5b9093506020813d602011611fdd575b81611fc960209383613313565b81010312611fd95751925f611b6c565b5f80fd5b3d9150611fbc565b6024857f4e487b710000000000000000000000000000000000000000000000000000000081526011600452fd5b9092506020813d60201161203e575b8161202e60209383613313565b81010312611fd95751915f611abd565b3d9150612021565b6024847f4e487b710000000000000000000000000000000000000000000000000000000081526032600452fd5b8094506125a4576020850151604051907f56e3df97000000000000000000000000000000000000000000000000000000008252600482015260208160248173ffffffffffffffffffffffffffffffffffffffff7f0000000000000000000000000000000000000000000000000000000000000000165afa908115610fe1578791612572575b50604086015190604051917f56e3df97000000000000000000000000000000000000000000000000000000008352600483015260208260248173ffffffffffffffffffffffffffffffffffffffff7f0000000000000000000000000000000000000000000000000000000000000000165afa918215612567578892612533575b508181111561252d5780915b60018301831161250057906121e79291602073ffffffffffffffffffffffffffffffffffffffff8a5116604051809681927fbf5141820000000000000000000000000000000000000000000000000000000083528b6001890191600485016138d6565b03818d73ffffffffffffffffffffffffffffffffffffffff7f0000000000000000000000000000000000000000000000000000000000000000165af19384156124f5578a946124c1575b5060208901519060408a01519260608b0151936004851015612494579061226094939291602489013593613b81565b82895260066020528060408a205588602089015173ffffffffffffffffffffffffffffffffffffffff7f0000000000000000000000000000000000000000000000000000000000000000163b1561048e57604051907f42966c68000000000000000000000000000000000000000000000000000000008252600482015281816024818373ffffffffffffffffffffffffffffffffffffffff7f0000000000000000000000000000000000000000000000000000000000000000165af1801561048357612480575b50604089015173ffffffffffffffffffffffffffffffffffffffff7f0000000000000000000000000000000000000000000000000000000000000000163b1561048e57604051907f42966c68000000000000000000000000000000000000000000000000000000008252600482015281816024818373ffffffffffffffffffffffffffffffffffffffff7f0000000000000000000000000000000000000000000000000000000000000000165af1801561048357612468575b50507f1c89258102cdd62631944bf583c2bcf39cf04e964d8002f7459395d88eaf620a8373ffffffffffffffffffffffffffffffffffffffff8a51169261245f60208c01519160408d01519260405194859460016004359a0192869192608093969594919660a084019784526020840152604083015260608201520152565b0390a393611981565b612471906132ff565b61247c57885f6123e0565b8880fd5b612489906132ff565b61247c57885f612327565b60248d7f4e487b710000000000000000000000000000000000000000000000000000000081526021600452fd5b9093506020813d6020116124ed575b816124dd60209383613313565b81010312611fd95751925f612231565b3d91506124d0565b6040513d8c823e3d90fd5b6024897f4e487b710000000000000000000000000000000000000000000000000000000081526011600452fd5b81612184565b9091506020813d60201161255f575b8161254f60209383613313565b81010312611fd95751905f612178565b3d9150612542565b6040513d8a823e3d90fd5b90506020813d60201161259c575b8161258d60209383613313565b81010312611fd957515f6120f8565b3d9150612580565b6024867f4e487b710000000000000000000000000000000000000000000000000000000081526032600452fd5b8094506125a4576020850151604051907f56e3df97000000000000000000000000000000000000000000000000000000008252600482015260208160248173ffffffffffffffffffffffffffffffffffffffff7f0000000000000000000000000000000000000000000000000000000000000000165afa908115610fe1578791612b44575b50600181018111611edb576126b890602073ffffffffffffffffffffffffffffffffffffffff885116604051809481927fbf514182000000000000000000000000000000000000000000000000000000008352896001870191600485016138d6565b03818b73ffffffffffffffffffffffffffffffffffffffff7f0000000000000000000000000000000000000000000000000000000000000000165af1918215612567578892612b10575b506020870151604051907f56e3df97000000000000000000000000000000000000000000000000000000008252600482015260208160248173ffffffffffffffffffffffffffffffffffffffff7f0000000000000000000000000000000000000000000000000000000000000000165afa908115612b05578991612ad3575b506040880151604051907f56e3df97000000000000000000000000000000000000000000000000000000008252600482015260208160248173ffffffffffffffffffffffffffffffffffffffff7f0000000000000000000000000000000000000000000000000000000000000000165afa9081156124f5578a91612aa1575b5060208901519060408a01519260608b0151936004851015612494579061282f94939291602489013593613b81565b82895260066020528060408a20558873ffffffffffffffffffffffffffffffffffffffff89511660408a01519073ffffffffffffffffffffffffffffffffffffffff7f0000000000000000000000000000000000000000000000000000000000000000163b1561047f576040517f42842e0e00000000000000000000000000000000000000000000000000000000815230600482015273ffffffffffffffffffffffffffffffffffffffff909116602482015260448101919091528181806064810103818373ffffffffffffffffffffffffffffffffffffffff7f0000000000000000000000000000000000000000000000000000000000000000165af1801561048357612a8d575b50602089015173ffffffffffffffffffffffffffffffffffffffff7f0000000000000000000000000000000000000000000000000000000000000000163b1561048e57604051907f42966c68000000000000000000000000000000000000000000000000000000008252600482015281816024818373ffffffffffffffffffffffffffffffffffffffff7f0000000000000000000000000000000000000000000000000000000000000000165af1801561048357612a79575b50507fa1e6a96d067dfd84f9461d6b48debedc5a5015a7ffbcda5bdc9c03d3d93a13958373ffffffffffffffffffffffffffffffffffffffff8a511692612a7060208c01519160408d01519260405194859460016004359a0192869192608093969594919660a084019784526020840152604083015260608201520152565b0390a39361196b565b612a82906132ff565b61247c57885f6129f1565b612a96906132ff565b61247c57885f612938565b90506020813d602011612acb575b81612abc60209383613313565b81010312611fd957515f612800565b3d9150612aaf565b90506020813d602011612afd575b81612aee60209383613313565b81010312611fd957515f612781565b3d9150612ae1565b6040513d8b823e3d90fd5b9091506020813d602011612b3c575b81612b2c60209383613313565b81010312611fd95751905f612702565b3d9150612b1f565b90506020813d602011612b6e575b81612b5f60209383613313565b81010312611fd957515f612656565b3d9150612b52565b5092505f926020850151604051907f56e3df97000000000000000000000000000000000000000000000000000000008252600482015260208160248173ffffffffffffffffffffffffffffffffffffffff7f0000000000000000000000000000000000000000000000000000000000000000165afa90811561300c575f916130b0575b506040860151604051907f56e3df97000000000000000000000000000000000000000000000000000000008252600482015260208160248173ffffffffffffffffffffffffffffffffffffffff7f0000000000000000000000000000000000000000000000000000000000000000165afa90811561300c575f9161307e575b50808211156130785781905b600182018211611e0957612ce592602073ffffffffffffffffffffffffffffffffffffffff8a5116604051809681927fbf5141820000000000000000000000000000000000000000000000000000000083528b6001890191600485016138d6565b03815f73ffffffffffffffffffffffffffffffffffffffff7f0000000000000000000000000000000000000000000000000000000000000000165af193841561300c575f94613044575b50602089015160408a01519260608b015192600484101561301757612d5994602489013593613b81565b825f5260066020528060405f205573ffffffffffffffffffffffffffffffffffffffff88511660208901519073ffffffffffffffffffffffffffffffffffffffff7f0000000000000000000000000000000000000000000000000000000000000000163b15611fd9576040517f42842e0e00000000000000000000000000000000000000000000000000000000815230600482015273ffffffffffffffffffffffffffffffffffffffff909116602482015260448101919091525f81806064810103818373ffffffffffffffffffffffffffffffffffffffff7f0000000000000000000000000000000000000000000000000000000000000000165af1801561300c57612ff9575b508873ffffffffffffffffffffffffffffffffffffffff89511660408a01519073ffffffffffffffffffffffffffffffffffffffff7f0000000000000000000000000000000000000000000000000000000000000000163b1561047f576040517f42842e0e00000000000000000000000000000000000000000000000000000000815230600482015273ffffffffffffffffffffffffffffffffffffffff909116602482015260448101919091528181806064810103818373ffffffffffffffffffffffffffffffffffffffff7f0000000000000000000000000000000000000000000000000000000000000000165af1801561048357612fe5575b50507f1407240319d14655cb34d8aa0cf82b7a7cac52c7cc4a745893ccd7e67b9dce938373ffffffffffffffffffffffffffffffffffffffff8a511692612fdc60208c01519160408d01519260405194859460016004359a0192869192608093969594919660a084019784526020840152604083015260608201520152565b0390a393611955565b612fee906132ff565b61247c57885f612f5d565b6130049199506132ff565b5f975f612e61565b6040513d5f823e3d90fd5b7f4e487b71000000000000000000000000000000000000000000000000000000005f52602160045260245ffd5b9093506020813d602011613070575b8161306060209383613313565b81010312611fd95751925f612d2f565b3d9150613053565b80612c84565b90506020813d6020116130a8575b8161309960209383613313565b81010312611fd957515f612c78565b3d915061308c565b90506020813d6020116130da575b816130cb60209383613313565b81010312611fd957515f612bf9565b3d91506130be565b7f4e487b71000000000000000000000000000000000000000000000000000000005f52603260045260245ffd5b6040517f1cf993f400000000000000000000000000000000000000000000000000000000815233600482015273ffffffffffffffffffffffffffffffffffffffff919091166024820152604490fd5b0390fd5b34611fd95760807ffffffffffffffffffffffffffffffffffffffffffffffffffffffffffffffffc360112611fd957613199613216565b5060243573ffffffffffffffffffffffffffffffffffffffff811603611fd95760643567ffffffffffffffff808211611fd95736602383011215611fd9578160040135908111611fd95736910160240111611fd957807f150b7a020000000000000000000000000000000000000000000000000000000060209252f35b6004359073ffffffffffffffffffffffffffffffffffffffff82168203611fd957565b9060048210156130175752565b6080810190811067ffffffffffffffff82111761326257604052565b7f4e487b71000000000000000000000000000000000000000000000000000000005f52604160045260245ffd5b60c0810190811067ffffffffffffffff82111761326257604052565b6040810190811067ffffffffffffffff82111761326257604052565b6060810190811067ffffffffffffffff82111761326257604052565b60a0810190811067ffffffffffffffff82111761326257604052565b67ffffffffffffffff811161326257604052565b90601f7fffffffffffffffffffffffffffffffffffffffffffffffffffffffffffffffe0910116810190811067ffffffffffffffff82111761326257604052565b60048210156130175752565b90816020910312611fd957518015158103611fd95790565b91908201809211611e0957565b91908251928382525f5b8481106133cd5750507fffffffffffffffffffffffffffffffffffffffffffffffffffffffffffffffe0601f845f6020809697860101520116010190565b60208183018101518483018201520161338f565b7fffffffffffffffffffffffffffffffffffffffffffffffffffffffffffffffff8114611e095760010190565b90816020910312611fd9575173ffffffffffffffffffffffffffffffffffffffff81168103611fd95790565b73ffffffffffffffffffffffffffffffffffffffff5f5416330361345a57565b60646040517f08c379a000000000000000000000000000000000000000000000000000000000815260206004820152601660248201527f4f6e6c792063616c6c61626c65206279206f776e6572000000000000000000006044820152fd5b519069ffffffffffffffffffff82168203611fd957565b81810292918115918404141715611e0957565b81156134ec570490565b7f4e487b71000000000000000000000000000000000000000000000000000000005f52601260045260245ffd5b60ff16604d8111611e0957600a0a90565b73ffffffffffffffffffffffffffffffffffffffff916040928351907f5b6cca8000000000000000000000000000000000000000000000000000000000825280600494169081858401526020928381602481857f0000000000000000000000000000000000000000000000000000000000000000165afa908115613884575f91613867575b5016801561383f579060a0859493928751958680927ffeaf968c0000000000000000000000000000000000000000000000000000000082525afa938415613835575f946137e7575b505f8413156137bf576402540be4009384810294818604149015171561379357908085928751938480927f313ce5670000000000000000000000000000000000000000000000000000000082525afa95861561378a57505f95613750575b5050670de0b6b3a7640000908181029181830414901517156137245760ff9161367d916134e2565b921660128110156136d7576012039060ff82116136ab5750906136a26136a892613519565b906134e2565b90565b6011907f4e487b71000000000000000000000000000000000000000000000000000000005f525260245ffd5b601281111561371f577fffffffffffffffffffffffffffffffffffffffffffffffffffffffffffffffee019060ff82116136ab5750906137196136a892613519565b906134cf565b505090565b6011837f4e487b71000000000000000000000000000000000000000000000000000000005f525260245ffd5b9080929550813d8311613783575b6137688183613313565b81010312611fd9575160ff81168103611fd957925f80613655565b503d61375e565b513d5f823e3d90fd5b6011857f4e487b71000000000000000000000000000000000000000000000000000000005f525260245ffd5b8486517f90ef88cf000000000000000000000000000000000000000000000000000000008152fd5b90935060a0813d60a01161382d575b8161380360a09383613313565b81010312611fd957613814816134b8565b5061382560808383015192016134b8565b50925f6135f7565b3d91506137f6565b86513d5f823e3d90fd5b8486517f989bddc7000000000000000000000000000000000000000000000000000000008152fd5b61387e9150843d86116104e4576104d58183613313565b5f6135af565b87513d5f823e3d90fd5b6040519061389b826132c7565b5f6040838281528260208201520152565b604051906138b9826132e3565b5f6080838281528260208201528260408201528260608201520152565b60808060a06102a09497969573ffffffffffffffffffffffffffffffffffffffff6102c086019916855261391d60208601825160ff60208092828151168552015116910152565b602081810151805160ff908116606089015291015116608086015261396460408201518387019060ff60408092828151168552826020820151166020860152015116910152565b606081015160ff938185809351166101008901528260208201511661012089015282604082015116610140890152826060820151166101608901520151166101808601526139d5848201516101a087019060ff60408092828151168552826020820151166020860152015116910152565b015190815115156102008501528060208301511661022085015260408201511515610240850152606082015116610260840152015115156102808201520152565b73ffffffffffffffffffffffffffffffffffffffff16604051613a38816132ab565b5f806020948584527f5361666545524332303a206c6f772d6c6576656c2063616c6c206661696c656486850152858151910182865af13d15613b74573d9067ffffffffffffffff821161326257613acb9360405192613abe877fffffffffffffffffffffffffffffffffffffffffffffffffffffffffffffffe0601f8401160185613313565b83523d5f8785013e613e68565b80519081613ad857505050565b8280613ae8938301019101613360565b15613af05750565b608490604051907f08c379a00000000000000000000000000000000000000000000000000000000082526004820152602a60248201527f5361666545524332303a204552433230206f7065726174696f6e20646964206e60448201527f6f742073756363656564000000000000000000000000000000000000000000006064820152fd5b91613acb92606091613e68565b9490939192935f9560049586841015613e3c578315613dc1575b60018414613d23575b60028414613bf8575b505050600314613bbe575b50505090565b9091925060288202918083046028149015171561372457906028613be3920690613378565b90603282018092116136ab57505f8080613bb8565b9091929650601e8502858104601e1486151715613ccb57601482029082820460141483151715613cf757613c3691613c2f91613378565b91866134cf565b90600a820291808304600a1490151715613ccb57613c8a9392613c5e611dee93603293613378565b936040519060208201928352604082015260408152613c7c816132c7565b519020066032850692613378565b60648101809111613c9f579360035f80613bad565b6011847f4e487b71000000000000000000000000000000000000000000000000000000005f525260245ffd5b6011877f4e487b71000000000000000000000000000000000000000000000000000000005f525260245ffd5b6011887f4e487b71000000000000000000000000000000000000000000000000000000005f525260245ffd5b9650601e8502858104601e1486151715613ccb57601488029088820460141489151715613cf75790613d5491613378565b613d5e88876134cf565b90600a820291808304600a1490151715613cf757613db091613d7f91613378565b611dee6028604051602081019086825287604082015260408152613da2816132c7565b519020066028880692613378565b60148101809111613ccb5796613ba4565b9650613dcd8786613378565b600a810290808204600a1490151715613ccb57613e23905f898803613e34575b611dee90611dee601e604051602081019088825289604082015260408152613e14816132c7565b5190200691601e8a0694613378565b600a8101809111613ccb5796613b9b565b506014613ded565b6021877f4e487b71000000000000000000000000000000000000000000000000000000005f525260245ffd5b91929015613ee35750815115613e7c575090565b3b15613e855790565b60646040517f08c379a000000000000000000000000000000000000000000000000000000000815260206004820152601d60248201527f416464726573733a2063616c6c20746f206e6f6e2d636f6e74726163740000006044820152fd5b825190915015613ef65750805190602001fd5b61315e906040519182917f08c379a000000000000000000000000000000000000000000000000000000000835260206004840152602483019061338556fea26469706673582212207976426f5b4adcfd7cb9ee79aed19813523ff6f7ced79b4b5c9cb08090207fb564736f6c63430008180033","linkReferences":{}},"methodIdentifiers":{"acceptOwnership()":"79ba5097","depositBeanHeads(uint256)":"c490078c","getBreedRequest(uint256)":"82b12082","getEscrowedTokenOwner(uint256)":"4565dc3e","getParentBreedingCount(uint256)":"94e99929","getRarityPoints(uint256)":"a76c2803","onERC721Received(address,address,uint256,bytes)":"150b7a02","owner()":"8da5cb5b","rawFulfillRandomWords(uint256,uint256[])":"1fe543e3","requestBreed(uint256,uint256,uint8,address)":"8702cc76","s_breedRequests(uint256)":"dd7a37a6","s_escrowedTokens(uint256)":"2e24be5d","s_lastBreedingBlock(address)":"2bc6b145","s_mutatedRarityPoints(uint256)":"7c172ef3","s_parentBreedingCount(uint256)":"58b515c8","s_vrfCoordinator()":"9eccacf6","setCoolDown(uint256)":"7c56687a","setCoordinator(address)":"8ea98117","transferOwnership(address)":"f2fde38b","withdrawBeanHeads(uint256)":"bb87eaa3","withdrawFunds(address)":"68742da6"},"id":173}