{
  "abi": [
    {
      "type": "function",
      "name": "approve",
      "inputs": [
        {
          "name": "to",
          "type": "address",
          "internalType": "address"
        },
        {
          "name": "tokenId",
          "type": "uint256",
          "internalType": "uint256"
        }
      ],
      "outputs": [],
      "stateMutability": "payable"
    },
    {
      "type": "function",
      "name": "balanceOf",
      "inputs": [
        {
          "name": "owner",
          "type": "address",
          "internalType": "address"
        }
      ],
      "outputs": [
        {
          "name": "",
          "type": "uint256",
          "internalType": "uint256"
        }
      ],
      "stateMutability": "view"
    },
    {
      "type": "function",
      "name": "batchBuyTokens",
      "inputs": [
        {
          "name": "_buyer",
          "type": "address",
          "internalType": "address"
        },
        {
          "name": "_tokenIds",
          "type": "uint256[]",
          "internalType": "uint256[]"
        },
        {
          "name": "_paymentToken",
          "type": "address",
          "internalType": "address"
        }
      ],
      "outputs": [],
      "stateMutability": "nonpayable"
    },
    {
      "type": "function",
      "name": "batchCancelTokenSales",
      "inputs": [
        {
          "name": "_tokenIds",
          "type": "uint256[]",
          "internalType": "uint256[]"
        },
        {
          "name": "_seller",
          "type": "address",
          "internalType": "address"
        }
      ],
      "outputs": [],
      "stateMutability": "nonpayable"
    },
    {
      "type": "function",
      "name": "batchSellTokens",
      "inputs": [
        {
          "name": "_tokenIds",
          "type": "uint256[]",
          "internalType": "uint256[]"
        },
        {
          "name": "_prices",
          "type": "uint256[]",
          "internalType": "uint256[]"
        }
      ],
      "outputs": [],
      "stateMutability": "nonpayable"
    },
    {
      "type": "function",
      "name": "buyToken",
      "inputs": [
        {
          "name": "_buyer",
          "type": "address",
          "internalType": "address"
        },
        {
          "name": "_tokenId",
          "type": "uint256",
          "internalType": "uint256"
        },
        {
          "name": "_paymentToken",
          "type": "address",
          "internalType": "address"
        }
      ],
      "outputs": [],
      "stateMutability": "nonpayable"
    },
    {
      "type": "function",
      "name": "cancelTokenSale",
      "inputs": [
        {
          "name": "_tokenId",
          "type": "uint256",
          "internalType": "uint256"
        }
      ],
      "outputs": [],
      "stateMutability": "nonpayable"
    },
    {
      "type": "function",
      "name": "getAllActiveSaleTokens",
      "inputs": [],
      "outputs": [
        {
          "name": "",
          "type": "uint256[]",
          "internalType": "uint256[]"
        }
      ],
      "stateMutability": "view"
    },
    {
      "type": "function",
      "name": "getApproved",
      "inputs": [
        {
          "name": "tokenId",
          "type": "uint256",
          "internalType": "uint256"
        }
      ],
      "outputs": [
        {
          "name": "",
          "type": "address",
          "internalType": "address"
        }
      ],
      "stateMutability": "view"
    },
    {
      "type": "function",
      "name": "getTokenSaleInfo",
      "inputs": [
        {
          "name": "_tokenId",
          "type": "uint256",
          "internalType": "uint256"
        }
      ],
      "outputs": [
        {
          "name": "seller",
          "type": "address",
          "internalType": "address"
        },
        {
          "name": "price",
          "type": "uint256",
          "internalType": "uint256"
        },
        {
          "name": "isActive",
          "type": "bool",
          "internalType": "bool"
        }
      ],
      "stateMutability": "view"
    },
    {
      "type": "function",
      "name": "getTokenSalePrice",
      "inputs": [
        {
          "name": "_tokenId",
          "type": "uint256",
          "internalType": "uint256"
        }
      ],
      "outputs": [
        {
          "name": "",
          "type": "uint256",
          "internalType": "uint256"
        }
      ],
      "stateMutability": "view"
    },
    {
      "type": "function",
      "name": "isApprovedForAll",
      "inputs": [
        {
          "name": "owner",
          "type": "address",
          "internalType": "address"
        },
        {
          "name": "operator",
          "type": "address",
          "internalType": "address"
        }
      ],
      "outputs": [
        {
          "name": "",
          "type": "bool",
          "internalType": "bool"
        }
      ],
      "stateMutability": "view"
    },
    {
      "type": "function",
      "name": "isTokenAllowed",
      "inputs": [
        {
          "name": "_token",
          "type": "address",
          "internalType": "address"
        }
      ],
      "outputs": [
        {
          "name": "",
          "type": "bool",
          "internalType": "bool"
        }
      ],
      "stateMutability": "view"
    },
    {
      "type": "function",
      "name": "isTokenForSale",
      "inputs": [
        {
          "name": "_tokenId",
          "type": "uint256",
          "internalType": "uint256"
        }
      ],
      "outputs": [
        {
          "name": "",
          "type": "bool",
          "internalType": "bool"
        }
      ],
      "stateMutability": "view"
    },
    {
      "type": "function",
      "name": "name",
      "inputs": [],
      "outputs": [
        {
          "name": "",
          "type": "string",
          "internalType": "string"
        }
      ],
      "stateMutability": "view"
    },
    {
      "type": "function",
      "name": "onERC721Received",
      "inputs": [
        {
          "name": "",
          "type": "address",
          "internalType": "address"
        },
        {
          "name": "",
          "type": "address",
          "internalType": "address"
        },
        {
          "name": "",
          "type": "uint256",
          "internalType": "uint256"
        },
        {
          "name": "",
          "type": "bytes",
          "internalType": "bytes"
        }
      ],
      "outputs": [
        {
          "name": "",
          "type": "bytes4",
          "internalType": "bytes4"
        }
      ],
      "stateMutability": "pure"
    },
    {
      "type": "function",
      "name": "ownerOf",
      "inputs": [
        {
          "name": "tokenId",
          "type": "uint256",
          "internalType": "uint256"
        }
      ],
      "outputs": [
        {
          "name": "",
          "type": "address",
          "internalType": "address"
        }
      ],
      "stateMutability": "view"
    },
    {
      "type": "function",
      "name": "safeTransferFrom",
      "inputs": [
        {
          "name": "from",
          "type": "address",
          "internalType": "address"
        },
        {
          "name": "to",
          "type": "address",
          "internalType": "address"
        },
        {
          "name": "tokenId",
          "type": "uint256",
          "internalType": "uint256"
        }
      ],
      "outputs": [],
      "stateMutability": "payable"
    },
    {
      "type": "function",
      "name": "safeTransferFrom",
      "inputs": [
        {
          "name": "from",
          "type": "address",
          "internalType": "address"
        },
        {
          "name": "to",
          "type": "address",
          "internalType": "address"
        },
        {
          "name": "tokenId",
          "type": "uint256",
          "internalType": "uint256"
        },
        {
          "name": "_data",
          "type": "bytes",
          "internalType": "bytes"
        }
      ],
      "outputs": [],
      "stateMutability": "payable"
    },
    {
      "type": "function",
      "name": "sellToken",
      "inputs": [
        {
          "name": "_tokenId",
          "type": "uint256",
          "internalType": "uint256"
        },
        {
          "name": "_price",
          "type": "uint256",
          "internalType": "uint256"
        }
      ],
      "outputs": [],
      "stateMutability": "nonpayable"
    },
    {
      "type": "function",
      "name": "setApprovalForAll",
      "inputs": [
        {
          "name": "operator",
          "type": "address",
          "internalType": "address"
        },
        {
          "name": "approved",
          "type": "bool",
          "internalType": "bool"
        }
      ],
      "outputs": [],
      "stateMutability": "nonpayable"
    },
    {
      "type": "function",
      "name": "symbol",
      "inputs": [],
      "outputs": [
        {
          "name": "",
          "type": "string",
          "internalType": "string"
        }
      ],
      "stateMutability": "view"
    },
    {
      "type": "function",
      "name": "totalSupply",
      "inputs": [],
      "outputs": [
        {
          "name": "",
          "type": "uint256",
          "internalType": "uint256"
        }
      ],
      "stateMutability": "view"
    },
    {
      "type": "function",
      "name": "transferFrom",
      "inputs": [
        {
          "name": "from",
          "type": "address",
          "internalType": "address"
        },
        {
          "name": "to",
          "type": "address",
          "internalType": "address"
        },
        {
          "name": "tokenId",
          "type": "uint256",
          "internalType": "uint256"
        }
      ],
      "outputs": [],
      "stateMutability": "payable"
    },
    {
      "type": "event",
      "name": "Approval",
      "inputs": [
        {
          "name": "owner",
          "type": "address",
          "indexed": true,
          "internalType": "address"
        },
        {
          "name": "approved",
          "type": "address",
          "indexed": true,
          "internalType": "address"
        },
        {
          "name": "tokenId",
          "type": "uint256",
          "indexed": true,
          "internalType": "uint256"
        }
      ],
      "anonymous": false
    },
    {
      "type": "event",
      "name": "ApprovalForAll",
      "inputs": [
        {
          "name": "owner",
          "type": "address",
          "indexed": true,
          "internalType": "address"
        },
        {
          "name": "operator",
          "type": "address",
          "indexed": true,
          "internalType": "address"
        },
        {
          "name": "approved",
          "type": "bool",
          "indexed": false,
          "internalType": "bool"
        }
      ],
      "anonymous": false
    },
    {
      "type": "event",
      "name": "ConsecutiveTransfer",
      "inputs": [
        {
          "name": "fromTokenId",
          "type": "uint256",
          "indexed": true,
          "internalType": "uint256"
        },
        {
          "name": "toTokenId",
          "type": "uint256",
          "indexed": false,
          "internalType": "uint256"
        },
        {
          "name": "from",
          "type": "address",
          "indexed": true,
          "internalType": "address"
        },
        {
          "name": "to",
          "type": "address",
          "indexed": true,
          "internalType": "address"
        }
      ],
      "anonymous": false
    },
    {
      "type": "event",
      "name": "RoyaltyPaid",
      "inputs": [
        {
          "name": "receiver",
          "type": "address",
          "indexed": true,
          "internalType": "address"
        },
        {
          "name": "tokenId",
          "type": "uint256",
          "indexed": true,
          "internalType": "uint256"
        },
        {
          "name": "salePrice",
          "type": "uint256",
          "indexed": false,
          "internalType": "uint256"
        },
        {
          "name": "royaltyAmount",
          "type": "uint256",
          "indexed": false,
          "internalType": "uint256"
        }
      ],
      "anonymous": false
    },
    {
      "type": "event",
      "name": "SetTokenPrice",
      "inputs": [
        {
          "name": "owner",
          "type": "address",
          "indexed": true,
          "internalType": "address"
        },
        {
          "name": "tokenId",
          "type": "uint256",
          "indexed": true,
          "internalType": "uint256"
        },
        {
          "name": "price",
          "type": "uint256",
          "indexed": false,
          "internalType": "uint256"
        }
      ],
      "anonymous": false
    },
    {
      "type": "event",
      "name": "TokenSaleCancelled",
      "inputs": [
        {
          "name": "owner",
          "type": "address",
          "indexed": true,
          "internalType": "address"
        },
        {
          "name": "tokenId",
          "type": "uint256",
          "indexed": true,
          "internalType": "uint256"
        }
      ],
      "anonymous": false
    },
    {
      "type": "event",
      "name": "TokenSold",
      "inputs": [
        {
          "name": "buyer",
          "type": "address",
          "indexed": true,
          "internalType": "address"
        },
        {
          "name": "seller",
          "type": "address",
          "indexed": true,
          "internalType": "address"
        },
        {
          "name": "tokenId",
          "type": "uint256",
          "indexed": true,
          "internalType": "uint256"
        },
        {
          "name": "salePrice",
          "type": "uint256",
          "indexed": false,
          "internalType": "uint256"
        }
      ],
      "anonymous": false
    },
    {
      "type": "event",
      "name": "Transfer",
      "inputs": [
        {
          "name": "from",
          "type": "address",
          "indexed": true,
          "internalType": "address"
        },
        {
          "name": "to",
          "type": "address",
          "indexed": true,
          "internalType": "address"
        },
        {
          "name": "tokenId",
          "type": "uint256",
          "indexed": true,
          "internalType": "uint256"
        }
      ],
      "anonymous": false
    },
    {
      "type": "error",
      "name": "ApprovalCallerNotOwnerNorApproved",
      "inputs": []
    },
    {
      "type": "error",
      "name": "ApprovalQueryForNonexistentToken",
      "inputs": []
    },
    {
      "type": "error",
      "name": "BalanceQueryForZeroAddress",
      "inputs": []
    },
    {
      "type": "error",
      "name": "IBeanHeadsBase__InsufficientAllowance",
      "inputs": []
    },
    {
      "type": "error",
      "name": "IBeanHeadsBase__InsufficientPayment",
      "inputs": []
    },
    {
      "type": "error",
      "name": "IBeanHeadsBase__InvalidOraclePrice",
      "inputs": []
    },
    {
      "type": "error",
      "name": "IBeanHeadsBase__NotOwner",
      "inputs": []
    },
    {
      "type": "error",
      "name": "IBeanHeadsBase__PriceMustBeGreaterThanZero",
      "inputs": []
    },
    {
      "type": "error",
      "name": "IBeanHeadsBase__TokenDoesNotExist",
      "inputs": []
    },
    {
      "type": "error",
      "name": "IBeanHeadsBase__TokenIsAlreadyListed",
      "inputs": []
    },
    {
      "type": "error",
      "name": "IBeanHeadsBase__TokenIsLocked",
      "inputs": []
    },
    {
      "type": "error",
      "name": "IBeanHeadsBase__TokenIsNotForSale",
      "inputs": []
    },
    {
      "type": "error",
      "name": "IBeanHeadsBase__TokenNotAllowed",
      "inputs": [
        {
          "name": "token",
          "type": "address",
          "internalType": "address"
        }
      ]
    },
    {
      "type": "error",
      "name": "IBeanHeadsMarketplace__InsufficientAllowance",
      "inputs": []
    },
    {
      "type": "error",
      "name": "IBeanHeadsMarketplace__InsufficientPayment",
      "inputs": []
    },
    {
      "type": "error",
      "name": "IBeanHeadsMarketplace__InvalidOraclePrice",
      "inputs": []
    },
    {
      "type": "error",
      "name": "IBeanHeadsMarketplace__MismatchedArrayLengths",
      "inputs": []
    },
    {
      "type": "error",
      "name": "IBeanHeadsMarketplace__NotOwner",
      "inputs": []
    },
    {
      "type": "error",
      "name": "IBeanHeadsMarketplace__PriceExceedsMax",
      "inputs": []
    },
    {
      "type": "error",
      "name": "IBeanHeadsMarketplace__PriceMustBeGreaterThanZero",
      "inputs": []
    },
    {
      "type": "error",
      "name": "IBeanHeadsMarketplace__TokenDoesNotExist",
      "inputs": []
    },
    {
      "type": "error",
      "name": "IBeanHeadsMarketplace__TokenNotAllowed",
      "inputs": [
        {
          "name": "token",
          "type": "address",
          "internalType": "address"
        }
      ]
    },
    {
      "type": "error",
      "name": "IBeanHeadsMarketplace__TokenNotForSale",
      "inputs": []
    },
    {
      "type": "error",
      "name": "InvalidTokenId",
      "inputs": []
    },
    {
      "type": "error",
      "name": "MintERC2309QuantityExceedsLimit",
      "inputs": []
    },
    {
      "type": "error",
      "name": "MintToZeroAddress",
      "inputs": []
    },
    {
      "type": "error",
      "name": "MintZeroQuantity",
      "inputs": []
    },
    {
      "type": "error",
      "name": "OwnerQueryForNonexistentToken",
      "inputs": []
    },
    {
      "type": "error",
      "name": "OwnershipNotInitializedForExtraData",
      "inputs": []
    },
    {
      "type": "error",
      "name": "TokenAlreadyExists",
      "inputs": []
    },
    {
      "type": "error",
      "name": "TransferCallerNotOwnerNorApproved",
      "inputs": []
    },
    {
      "type": "error",
      "name": "TransferFromIncorrectOwner",
      "inputs": []
    },
    {
      "type": "error",
      "name": "TransferToNonERC721ReceiverImplementer",
      "inputs": []
    },
    {
      "type": "error",
      "name": "TransferToZeroAddress",
      "inputs": []
    },
    {
      "type": "error",
      "name": "URIQueryForNonexistentToken",
      "inputs": []
    }
  ],
  "bytecode": {
    "object": "0x608060405234801561000f575f80fd5b506148b38061001d5f395ff3fe60806040526004361061014a575f3560e01c80634930d709116100b557806395d89b411161006e57806395d89b411461048e578063a22cb465146104b8578063b88d4fde146104e0578063cfbf9903146104fc578063e985e9c514610524578063f9eaee0d146105605761014a565b80634930d709146103605780634fed1c94146103885780636352211e146103c4578063692bf4a81461040057806370a082311461042857806371695f1d146104645761014a565b80631897bcf3116101075780631897bcf31461027457806318eef3951461029c57806323b872dd146102d85780632bda5ac3146102f45780633dda35581461031c57806342842e0e146103445761014a565b8063018f83431461014e57806306fdde031461018c578063081812fc146101b6578063095ea7b3146101f2578063150b7a021461020e57806318160ddd1461024a575b5f80fd5b348015610159575f80fd5b50610174600480360381019061016f91906135a4565b61059c565b60405161018393929190613637565b60405180910390f35b348015610197575f80fd5b506101a0610612565b6040516101ad91906136f6565b60405180910390f35b3480156101c1575f80fd5b506101dc60048036038101906101d791906135a4565b6106ab565b6040516101e99190613716565b60405180910390f35b61020c60048036038101906102079190613759565b61070d565b005b348015610219575f80fd5b50610234600480360381019061022f91906137f8565b61071d565b60405161024191906138b6565b60405180910390f35b348015610255575f80fd5b5061025e610731565b60405161026b91906138cf565b60405180910390f35b34801561027f575f80fd5b5061029a600480360381019061029591906138e8565b610758565b005b3480156102a7575f80fd5b506102c260048036038101906102bd91906135a4565b610913565b6040516102cf91906138cf565b60405180910390f35b6102f260048036038101906102ed9190613926565b610973565b005b3480156102ff575f80fd5b5061031a600480360381019061031591906135a4565b610c54565b005b348015610327575f80fd5b50610342600480360381019061033d91906139cb565b610df6565b005b61035e60048036038101906103599190613926565b610ed0565b005b34801561036b575f80fd5b5061038660048036038101906103819190613a3c565b610eef565b005b348015610393575f80fd5b506103ae60048036038101906103a991906135a4565b610f6b565b6040516103bb9190613aba565b60405180910390f35b3480156103cf575f80fd5b506103ea60048036038101906103e591906135a4565b610fc1565b6040516103f79190613716565b60405180910390f35b34801561040b575f80fd5b5061042660048036038101906104219190613ad3565b610fd2565b005b348015610433575f80fd5b5061044e60048036038101906104499190613b23565b6113c4565b60405161045b91906138cf565b60405180910390f35b34801561046f575f80fd5b50610478611461565b6040516104859190613c05565b60405180910390f35b348015610499575f80fd5b506104a2611480565b6040516104af91906136f6565b60405180910390f35b3480156104c3575f80fd5b506104de60048036038101906104d99190613c4f565b611519565b005b6104fa60048036038101906104f59190613db5565b611628565b005b348015610507575f80fd5b50610522600480360381019061051d9190613e35565b611679565b005b34801561052f575f80fd5b5061054a60048036038101906105459190613e92565b6116bc565b6040516105579190613aba565b60405180910390f35b34801561056b575f80fd5b5061058660048036038101906105819190613b23565b611753565b6040516105939190613aba565b60405180910390f35b5f805f836105a9816117b3565b6105be576105bd63527aa81660e01b611837565b5b5f6105c88661183f565b9050805f015f9054906101000a900473ffffffffffffffffffffffffffffffffffffffff168160010154826002015f9054906101000a900460ff1694509450945050509193909250565b606061061c611860565b600201805461062a90613efd565b80601f016020809104026020016040519081016040528092919081815260200182805461065690613efd565b80156106a15780601f10610678576101008083540402835291602001916106a1565b820191905f5260205f20905b81548152906001019060200180831161068457829003601f168201915b5050505050905090565b5f6106b5826117b3565b6106ca576106c963cf4700e460e01b611837565b5b6106d2611860565b6006015f8381526020019081526020015f205f015f9054906101000a900473ffffffffffffffffffffffffffffffffffffffff169050919050565b6107198282600161188c565b5050565b5f63150b7a0260e01b905095945050505050565b5f61073a6119bf565b610742611860565b6001015461074e611860565b5f01540303905090565b81610762816117b3565b6107775761077663527aa81660e01b611837565b5b5f6107806119c3565b905061078b846119ef565b73ffffffffffffffffffffffffffffffffffffffff163373ffffffffffffffffffffffffffffffffffffffff16146107ce576107cd63104d44d360e01b611837565b5b5f83116107e6576107e563af2e5d3060e01b611837565b5b6107f1333086610ed0565b60405180606001604052803373ffffffffffffffffffffffffffffffffffffffff16815260200184815260200160011515815250815f015f8681526020019081526020015f205f820151815f015f6101000a81548173ffffffffffffffffffffffffffffffffffffffff021916908373ffffffffffffffffffffffffffffffffffffffff160217905550602082015181600101556040820151816002015f6101000a81548160ff0219169083151502179055509050506108bd8482601701611a0090919063ffffffff16565b50833373ffffffffffffffffffffffffffffffffffffffff167fe1d604800ecfffb56e9d4ca585816df41dde9a764119d7ef01d927cdf8c237b08560405161090591906138cf565b60405180910390a350505050565b5f8161091e816117b3565b6109335761093263527aa81660e01b611837565b5b5f61093d8461183f565b9050806002015f9054906101000a900460ff166109655761096463782e2fe960e01b611837565b5b806001015492505050919050565b5f61097d82611a17565b905073ffffffffffffffffffffffffffffffffffffffff8473ffffffffffffffffffffffffffffffffffffffff161693508373ffffffffffffffffffffffffffffffffffffffff168173ffffffffffffffffffffffffffffffffffffffff16146109f2576109f163a114810060e01b611837565b5b5f806109fd84611b14565b91509150610a138187610a0e611b40565b611b47565b610a3e57610a2886610a23611b40565b6116bc565b610a3d57610a3c6359c896be60e01b611837565b5b5b610a4b8686866001611b8a565b8015610a55575f82555b610a5d611860565b6005015f8773ffffffffffffffffffffffffffffffffffffffff1673ffffffffffffffffffffffffffffffffffffffff1681526020019081526020015f205f81546001900391905081905550610ab1611860565b6005015f8673ffffffffffffffffffffffffffffffffffffffff1673ffffffffffffffffffffffffffffffffffffffff1681526020019081526020015f205f815460010191905081905550610b2f85610b0b888887611d53565b7c020000000000000000000000000000000000000000000000000000000017611d7a565b610b37611860565b6004015f8681526020019081526020015f20819055505f7c0200000000000000000000000000000000000000000000000000000000841603610bcf575f6001850190505f610b83611860565b6004015f8381526020019081526020015f205403610bcd57610ba3611860565b5f01548114610bcc5783610bb5611860565b6004015f8381526020019081526020015f20819055505b5b505b5f73ffffffffffffffffffffffffffffffffffffffff8673ffffffffffffffffffffffffffffffffffffffff161690508481887fddf252ad1be2c89b69c2b068fc378daa952ba7f163c4a11628f55a4df523b3ef5f80a45f8103610c3e57610c3d63ea553b3460e01b611837565b5b610c4b8787876001611da4565b50505050505050565b80610c5e816117b3565b610c7357610c7263527aa81660e01b611837565b5b5f610c7c6119c3565b90505f610c888461183f565b9050805f015f9054906101000a900473ffffffffffffffffffffffffffffffffffffffff1673ffffffffffffffffffffffffffffffffffffffff163373ffffffffffffffffffffffffffffffffffffffff1614610cf057610cef63104d44d360e01b611837565b5b806002015f9054906101000a900460ff16610d1657610d1563782e2fe960e01b611837565b5b610d3030338660405180602001604052805f815250611daa565b5f816002015f6101000a81548160ff0219169083151502179055505f81600101819055505f815f015f6101000a81548173ffffffffffffffffffffffffffffffffffffffff021916908373ffffffffffffffffffffffffffffffffffffffff160217905550610dab8483601701611dfb90919063ffffffff16565b50833373ffffffffffffffffffffffffffffffffffffffff167ffd29d40736f7e30e737c49f0da6edb357095e0117291cd63e251ef8b2a5cd57360405160405180910390a350505050565b610dfe611e12565b5f610e076119c3565b9050806005015f8373ffffffffffffffffffffffffffffffffffffffff1673ffffffffffffffffffffffffffffffffffffffff1681526020019081526020015f205f9054906101000a900460ff16610e6a57610e6963fa3d8e0160e01b611837565b5b5f80610e77868686611e6f565b91509150610e858482611f79565b610eb23330838773ffffffffffffffffffffffffffffffffffffffff1661209f909392919063ffffffff16565b610ebf8787878786612128565b505050610eca612189565b50505050565b610eea83838360405180602001604052805f815250611628565b505050565b818190508484905014610f0d57610f0c63d6b68c7c60e01b611837565b5b5f5b84849050811015610f6457610f57858583818110610f3057610f2f613f2d565b5b90506020020135848484818110610f4a57610f49613f2d565b5b90506020020135336121a0565b8080600101915050610f0f565b5050505050565b5f81610f76816117b3565b610f8b57610f8a63527aa81660e01b611837565b5b5f610f946119c3565b9050805f015f8581526020019081526020015f206002015f9054906101000a900460ff1692505050919050565b5f610fcb82611a17565b9050919050565b610fda611e12565b81610fe4816117b3565b610ff957610ff863527aa81660e01b611837565b5b5f6110026119c3565b90505f815f015f8681526020019081526020015f209050806002015f9054906101000a900460ff1661103f5761103e63782e2fe960e01b611837565b5b816005015f8573ffffffffffffffffffffffffffffffffffffffff1673ffffffffffffffffffffffffffffffffffffffff1681526020019081526020015f205f9054906101000a900460ff166110a05761109f63fa3d8e0160e01b611837565b5b5f8490505f826001015490505f6110b7878361233e565b90506110c38382611f79565b6110f03330838673ffffffffffffffffffffffffffffffffffffffff1661209f909392919063ffffffff16565b5f806110fc8a84612568565b915091505f61110b8a8361233e565b90505f818561111a9190613f87565b90505f8211156111a15761114f84838973ffffffffffffffffffffffffffffffffffffffff1661261d9092919063ffffffff16565b8b8473ffffffffffffffffffffffffffffffffffffffff167f70f417ac564051a4ecb55ef0f383eb66de1611967ce4c0bcf70edfdbb94b5c678885604051611198929190613fba565b60405180910390a35b6111ee885f015f9054906101000a900473ffffffffffffffffffffffffffffffffffffffff16828973ffffffffffffffffffffffffffffffffffffffff1661261d9092919063ffffffff16565b8a896006015f8e81526020019081526020015f205f6101000a81548173ffffffffffffffffffffffffffffffffffffffff021916908373ffffffffffffffffffffffffffffffffffffffff160217905550611259308e8e60405180602001604052805f815250611daa565b8b885f015f9054906101000a900473ffffffffffffffffffffffffffffffffffffffff1673ffffffffffffffffffffffffffffffffffffffff168e73ffffffffffffffffffffffffffffffffffffffff167fa8a7473f10e62cf9687e243de1c3ac8b3cbc3dd04b96826beb3a65b595385814886040516112d991906138cf565b60405180910390a460405180606001604052805f73ffffffffffffffffffffffffffffffffffffffff1681526020015f81526020015f1515815250895f015f8e81526020019081526020015f205f820151815f015f6101000a81548173ffffffffffffffffffffffffffffffffffffffff021916908373ffffffffffffffffffffffffffffffffffffffff160217905550602082015181600101556040820151816002015f6101000a81548160ff0219169083151502179055509050506113ac8c8a601701611dfb90919063ffffffff16565b50505050505050505050506113bf612189565b505050565b5f8073ffffffffffffffffffffffffffffffffffffffff168273ffffffffffffffffffffffffffffffffffffffff160361140957611408638f4eb60460e01b611837565b5b67ffffffffffffffff61141a611860565b6005015f8473ffffffffffffffffffffffffffffffffffffffff1673ffffffffffffffffffffffffffffffffffffffff1681526020019081526020015f2054169050919050565b60605f61146c6119c3565b905061147a816017016126a3565b91505090565b606061148a611860565b600301805461149890613efd565b80601f01602080910402602001604051908101604052809291908181526020018280546114c490613efd565b801561150f5780601f106114e65761010080835404028352916020019161150f565b820191905f5260205f20905b8154815290600101906020018083116114f257829003601f168201915b5050505050905090565b80611522611860565b6007015f61152e611b40565b73ffffffffffffffffffffffffffffffffffffffff1673ffffffffffffffffffffffffffffffffffffffff1681526020019081526020015f205f8473ffffffffffffffffffffffffffffffffffffffff1673ffffffffffffffffffffffffffffffffffffffff1681526020019081526020015f205f6101000a81548160ff0219169083151502179055508173ffffffffffffffffffffffffffffffffffffffff166115d7611b40565b73ffffffffffffffffffffffffffffffffffffffff167f17307eab39ab6107e8899845ad3d59bd9653f200f220920489ca2b5937696c318360405161161c9190613aba565b60405180910390a35050565b611633848484610973565b5f8373ffffffffffffffffffffffffffffffffffffffff163b146116735761165d848484846126c2565b6116725761167163d1a57ed660e01b611837565b5b5b50505050565b5f5b838390508110156116b6576116a984848381811061169c5761169b613f2d565b5b90506020020135836127ec565b808060010191505061167b565b50505050565b5f6116c5611860565b6007015f8473ffffffffffffffffffffffffffffffffffffffff1673ffffffffffffffffffffffffffffffffffffffff1681526020019081526020015f205f8373ffffffffffffffffffffffffffffffffffffffff1673ffffffffffffffffffffffffffffffffffffffff1681526020019081526020015f205f9054906101000a900460ff16905092915050565b5f8061175d6119c3565b9050806005015f8473ffffffffffffffffffffffffffffffffffffffff1673ffffffffffffffffffffffffffffffffffffffff1681526020019081526020015f205f9054906101000a900460ff16915050919050565b5f816117bd6119bf565b11611832576117ca611860565b5f0154821015611831575f5b5f6117df611860565b6004015f8581526020019081526020015f20549150810361180b578261180490613fe1565b92506117d6565b5f7c01000000000000000000000000000000000000000000000000000000008216149150505b5b919050565b805f5260045ffd5b5f6118486119c3565b5f015f8381526020019081526020015f209050919050565b5f807f8785b62d5a7098417c833f00e99883e36791da2bbef1ddc66d7797ca0681c2d090508091505090565b5f611896836119ef565b90508180156118d857508073ffffffffffffffffffffffffffffffffffffffff166118bf611b40565b73ffffffffffffffffffffffffffffffffffffffff1614155b15611904576118ee816118e9611b40565b61297e565b6119035761190263cfb3b94260e01b611837565b5b5b8361190d611860565b6006015f8581526020019081526020015f205f015f6101000a81548173ffffffffffffffffffffffffffffffffffffffff021916908373ffffffffffffffffffffffffffffffffffffffff160217905550828473ffffffffffffffffffffffffffffffffffffffff168273ffffffffffffffffffffffffffffffffffffffff167f8c5be1e5ebec7d5bd14f71427d1e84f3dd0314c0f7b2291e5b200ac8c7c3b92560405160405180910390a450505050565b5f90565b5f807f791cad950d3b9b323a06def8cb8b7bf2c934c7f4cea39385f023ba145f9b93ad90508091505090565b5f6119f982611a17565b9050919050565b5f611a0f835f01835f1b612a15565b905092915050565b5f81611a216119bf565b11611afe57611a2e611860565b6004015f8381526020019081526020015f205490505f8103611ad657611a52611860565b5f01548210611a6c57611a6b63df2d9b4260e01b611837565b5b5b611a75611860565b6004015f836001900393508381526020019081526020015f205490505f810315611ad1575f7c010000000000000000000000000000000000000000000000000000000082160315611b0f57611ad063df2d9b4260e01b611837565b5b611a6d565b5f7c010000000000000000000000000000000000000000000000000000000082160315611b0f575b611b0e63df2d9b4260e01b611837565b5b919050565b5f805f611b1f611860565b6006015f8581526020019081526020015f2090508092508254915050915091565b5f33905090565b5f73ffffffffffffffffffffffffffffffffffffffff8316925073ffffffffffffffffffffffffffffffffffffffff821691508382148383141790509392505050565b5f611b936119c3565b90505f5b82811015611c2a575f8185611bac9190614008565b90505f73ffffffffffffffffffffffffffffffffffffffff168773ffffffffffffffffffffffffffffffffffffffff1614158015611c065750826013015f8281526020019081526020015f205f9054906101000a900460ff165b15611c1c57611c1b630fb51c1360e01b611837565b5b508080600101915050611b97565b505f73ffffffffffffffffffffffffffffffffffffffff168573ffffffffffffffffffffffffffffffffffffffff1614611c92575f5b82811015611c90575f8185611c759190614008565b9050611c82838883612a7c565b508080600101915050611c60565b505b5f73ffffffffffffffffffffffffffffffffffffffff168473ffffffffffffffffffffffffffffffffffffffff1614611d4c575f5b82811015611d4a57816004015f8673ffffffffffffffffffffffffffffffffffffffff1673ffffffffffffffffffffffffffffffffffffffff1681526020019081526020015f208185611d1a9190614008565b908060018154018082558091505060019003905f5260205f20015f90919091909150558080600101915050611cc7565b505b5050505050565b5f8060e883901c905060e8611d69868684612b7b565b62ffffff16901b9150509392505050565b5f73ffffffffffffffffffffffffffffffffffffffff83169250814260a01b178317905092915050565b50505050565b611db5848484612b83565b5f8373ffffffffffffffffffffffffffffffffffffffff163b14611df557611ddf848484846126c2565b611df457611df363d1a57ed660e01b611837565b5b5b50505050565b5f611e0a835f01835f1b612e27565b905092915050565b5f611e1b612f23565b90506002815f015403611e63576040517f08c379a0000000000000000000000000000000000000000000000000000000008152600401611e5a90614085565b60405180910390fd5b6002815f018190555050565b60605f808585905090508067ffffffffffffffff811115611e9357611e92613c91565b5b604051908082528060200260200182016040528015611ec15781602001602082028036833780820191505090505b5092505f91505f5b81811015611f6f575f878783818110611ee557611ee4613f2d565b5b9050602002013590505f611ef88261183f565b9050806002015f9054906101000a900460ff16611f2057611f1f630a5f49d560e01b611837565b5b5f611f2f88836001015461233e565b905080878581518110611f4557611f44613f2d565b5b6020026020010181815250508086611f5d9190614008565b95505050508080600101915050611ec9565b5050935093915050565b808273ffffffffffffffffffffffffffffffffffffffff1663dd62ed3e33306040518363ffffffff1660e01b8152600401611fb59291906140a3565b602060405180830381865afa158015611fd0573d5f803e3d5ffd5b505050506040513d601f19601f82011682018060405250810190611ff491906140de565b101561200b5761200a63bf79ab0960e01b611837565b5b808273ffffffffffffffffffffffffffffffffffffffff166370a08231336040518263ffffffff1660e01b81526004016120459190613716565b602060405180830381865afa158015612060573d5f803e3d5ffd5b505050506040513d601f19601f8201168201806040525081019061208491906140de565b101561209b5761209a63ef07d5e460e01b611837565b5b5050565b612122846323b872dd60e01b8585856040516024016120c093929190614109565b604051602081830303815290604052907bffffffffffffffffffffffffffffffffffffffffffffffffffffffff19166020820180517bffffffffffffffffffffffffffffffffffffffffffffffffffffffff8381831617835250505050612f4f565b50505050565b5f5b84849050811015612181576121748686868481811061214c5761214b613f2d565b5b905060200201358585858151811061216757612166613f2d565b5b6020026020010151613014565b808060010191505061212a565b505050505050565b5f612192612f23565b90506001815f018190555050565b5f6121aa8461183f565b90505f6121b56119c3565b90506121c0856117b3565b6121d5576121d46383319d3360e01b611837565b5b8273ffffffffffffffffffffffffffffffffffffffff166121f5866119ef565b73ffffffffffffffffffffffffffffffffffffffff161461222157612220635f7b67f960e01b611837565b5b5f841161223957612238636906bb5e60e01b611837565b5b816002015f9054906101000a900460ff16156122605761225f63a9d9e89f60e01b611837565b5b61226b833087610ed0565b82825f015f6101000a81548173ffffffffffffffffffffffffffffffffffffffff021916908373ffffffffffffffffffffffffffffffffffffffff1602179055508382600101819055506001826002015f6101000a81548160ff0219169083151502179055506122e78582601701611a0090919063ffffffff16565b50848373ffffffffffffffffffffffffffffffffffffffff167fe1d604800ecfffb56e9d4ca585816df41dde9a764119d7ef01d927cdf8c237b08660405161232f91906138cf565b60405180910390a35050505050565b5f806123486119c3565b90505f816007015f8673ffffffffffffffffffffffffffffffffffffffff1673ffffffffffffffffffffffffffffffffffffffff1681526020019081526020015f205f9054906101000a900473ffffffffffffffffffffffffffffffffffffffff1690505f8173ffffffffffffffffffffffffffffffffffffffff1663feaf968c6040518163ffffffff1660e01b815260040160a060405180830381865afa1580156123f6573d5f803e3d5ffd5b505050506040513d601f19601f8201168201806040525081019061241a91906141b0565b5050509150505f8113612438576124376359ca34d460e01b611837565b5b5f6402540be4008261244a9190614227565b90505f8773ffffffffffffffffffffffffffffffffffffffff1663313ce5676040518163ffffffff1660e01b8152600401602060405180830381865afa158015612496573d5f803e3d5ffd5b505050506040513d601f19601f820116820180604052508101906124ba919061429e565b90505f82670de0b6b3a7640000896124d29190614227565b6124dc91906142f6565b905060128260ff16101561251b578160126124f79190614326565b600a6125039190614489565b8161250e91906142f6565b9650505050505050612562565b60128260ff161115612558576012826125349190614326565b600a6125409190614489565b8161254b9190614227565b9650505050505050612562565b8096505050505050505b92915050565b5f805f6125736119c3565b905080600c015f9054906101000a900473ffffffffffffffffffffffffffffffffffffffff1673ffffffffffffffffffffffffffffffffffffffff16632a55205a86866040518363ffffffff1660e01b81526004016125d3929190613fba565b6040805180830381865afa1580156125ed573d5f803e3d5ffd5b505050506040513d601f19601f8201168201806040525081019061261191906144e7565b92509250509250929050565b61269e8363a9059cbb60e01b848460405160240161263c929190614525565b604051602081830303815290604052907bffffffffffffffffffffffffffffffffffffffffffffffffffffffff19166020820180517bffffffffffffffffffffffffffffffffffffffffffffffffffffffff8381831617835250505050612f4f565b505050565b60605f6126b1835f0161322c565b905060608190508092505050919050565b5f8373ffffffffffffffffffffffffffffffffffffffff1663150b7a026126e7611b40565b8786866040518563ffffffff1660e01b8152600401612709949392919061459e565b6020604051808303815f875af192505050801561274457506040513d601f19601f820116820180604052508101906127419190614612565b60015b612799573d805f8114612772576040519150601f19603f3d011682016040523d82523d5f602084013e612777565b606091505b505f8151036127915761279063d1a57ed660e01b611837565b5b805181602001fd5b63150b7a0260e01b7bffffffffffffffffffffffffffffffffffffffffffffffffffffffff1916817bffffffffffffffffffffffffffffffffffffffffffffffffffffffff191614915050949350505050565b5f6127f68361183f565b90505f6128016119c3565b905061280c846117b3565b612821576128206383319d3360e01b611837565b5b815f015f9054906101000a900473ffffffffffffffffffffffffffffffffffffffff1673ffffffffffffffffffffffffffffffffffffffff168373ffffffffffffffffffffffffffffffffffffffff161461288757612886635f7b67f960e01b611837565b5b816002015f9054906101000a900460ff166128ad576128ac630a5f49d560e01b611837565b5b5f825f015f6101000a81548173ffffffffffffffffffffffffffffffffffffffff021916908373ffffffffffffffffffffffffffffffffffffffff1602179055505f82600101819055505f826002015f6101000a81548160ff0219169083151502179055506129288482601701611dfb90919063ffffffff16565b50612934308486612b83565b838373ffffffffffffffffffffffffffffffffffffffff167ffd29d40736f7e30e737c49f0da6edb357095e0117291cd63e251ef8b2a5cd57360405160405180910390a350505050565b5f612987611860565b6007015f8473ffffffffffffffffffffffffffffffffffffffff1673ffffffffffffffffffffffffffffffffffffffff1681526020019081526020015f205f8373ffffffffffffffffffffffffffffffffffffffff1673ffffffffffffffffffffffffffffffffffffffff1681526020019081526020015f205f9054906101000a900460ff16905092915050565b5f612a208383613285565b612a7257825f0182908060018154018082558091505060019003905f5260205f20015f9091909190915055825f0180549050836001015f8481526020019081526020015f208190555060019050612a76565b5f90505b92915050565b5f836004015f8473ffffffffffffffffffffffffffffffffffffffff1673ffffffffffffffffffffffffffffffffffffffff1681526020019081526020015f2090505f818054905090505f5b81811015612b725783838281548110612ae457612ae3613f2d565b5b905f5260205f20015403612b655782600183612b009190613f87565b81548110612b1157612b10613f2d565b5b905f5260205f200154838281548110612b2d57612b2c613f2d565b5b905f5260205f20018190555082805480612b4a57612b4961463d565b5b600190038181905f5260205f20015f90559055505050612b76565b8080600101915050612ac8565b5050505b505050565b5f9392505050565b5f612b8d82611a17565b905073ffffffffffffffffffffffffffffffffffffffff8473ffffffffffffffffffffffffffffffffffffffff161693508373ffffffffffffffffffffffffffffffffffffffff168173ffffffffffffffffffffffffffffffffffffffff1614612c0257612c0163a114810060e01b611837565b5b5f80612c0d84611b14565b91509150612c1e8686866001611b8a565b8015612c28575f82555b612c30611860565b6005015f8773ffffffffffffffffffffffffffffffffffffffff1673ffffffffffffffffffffffffffffffffffffffff1681526020019081526020015f205f81546001900391905081905550612c84611860565b6005015f8673ffffffffffffffffffffffffffffffffffffffff1673ffffffffffffffffffffffffffffffffffffffff1681526020019081526020015f205f815460010191905081905550612d0285612cde888887611d53565b7c020000000000000000000000000000000000000000000000000000000017611d7a565b612d0a611860565b6004015f8681526020019081526020015f20819055505f7c0200000000000000000000000000000000000000000000000000000000841603612da2575f6001850190505f612d56611860565b6004015f8381526020019081526020015f205403612da057612d76611860565b5f01548114612d9f5783612d88611860565b6004015f8381526020019081526020015f20819055505b5b505b5f73ffffffffffffffffffffffffffffffffffffffff8673ffffffffffffffffffffffffffffffffffffffff161690508481887fddf252ad1be2c89b69c2b068fc378daa952ba7f163c4a11628f55a4df523b3ef5f80a45f8103612e1157612e1063ea553b3460e01b611837565b5b612e1e8787876001611da4565b50505050505050565b5f80836001015f8481526020019081526020015f205490505f8114612f18575f600182612e549190613f87565b90505f6001865f0180549050612e6a9190613f87565b9050808214612ed0575f865f018281548110612e8957612e88613f2d565b5b905f5260205f200154905080875f018481548110612eaa57612ea9613f2d565b5b905f5260205f20018190555083876001015f8381526020019081526020015f2081905550505b855f01805480612ee357612ee261463d565b5b600190038181905f5260205f20015f90559055856001015f8681526020019081526020015f205f905560019350505050612f1d565b5f9150505b92915050565b5f807f862460a2be1e75f44234ae220583844903aaee6923993409e3eaa0efbd0da84190508091505090565b5f612fb0826040518060400160405280602081526020017f5361666545524332303a206c6f772d6c6576656c2063616c6c206661696c65648152508573ffffffffffffffffffffffffffffffffffffffff166132a59092919063ffffffff16565b90505f8151111561300f5780806020019051810190612fcf919061467e565b61300e576040517f08c379a000000000000000000000000000000000000000000000000000000000815260040161300590614719565b60405180910390fd5b5b505050565b5f61301d6119c3565b90505f8390505f61302d8661183f565b905061303a8685876132bc565b5f6130458786612568565b9150505f613053878361233e565b90505f81876130629190613f87565b90506130b1845f015f9054906101000a900473ffffffffffffffffffffffffffffffffffffffff16828773ffffffffffffffffffffffffffffffffffffffff1661261d9092919063ffffffff16565b87866006015f8b81526020019081526020015f205f6101000a81548173ffffffffffffffffffffffffffffffffffffffff021916908373ffffffffffffffffffffffffffffffffffffffff16021790555061311c308b8b60405180602001604052805f815250611daa565b88845f015f9054906101000a900473ffffffffffffffffffffffffffffffffffffffff1673ffffffffffffffffffffffffffffffffffffffff168b73ffffffffffffffffffffffffffffffffffffffff167fa8a7473f10e62cf9687e243de1c3ac8b3cbc3dd04b96826beb3a65b5953858148a60405161319c91906138cf565b60405180910390a45f845f015f6101000a81548173ffffffffffffffffffffffffffffffffffffffff021916908373ffffffffffffffffffffffffffffffffffffffff1602179055505f84600101819055505f846002015f6101000a81548160ff02191690831515021790555061321f8987601701611dfb90919063ffffffff16565b5050505050505050505050565b6060815f0180548060200260200160405190810160405280929190818152602001828054801561327957602002820191905f5260205f20905b815481526020019060010190808311613265575b50505050509050919050565b5f80836001015f8481526020019081526020015f20541415905092915050565b60606132b384845f856133b2565b90509392505050565b5f806132c88585612568565b915091505f73ffffffffffffffffffffffffffffffffffffffff168273ffffffffffffffffffffffffffffffffffffffff16148061330557505f81145b156133115750506133ad565b5f61331c848361233e565b90505f810361332d575050506133ad565b61335883828673ffffffffffffffffffffffffffffffffffffffff1661261d9092919063ffffffff16565b858373ffffffffffffffffffffffffffffffffffffffff167f70f417ac564051a4ecb55ef0f383eb66de1611967ce4c0bcf70edfdbb94b5c6787846040516133a1929190613fba565b60405180910390a35050505b505050565b6060824710156133f7576040517f08c379a00000000000000000000000000000000000000000000000000000000081526004016133ee906147a7565b60405180910390fd5b5f808673ffffffffffffffffffffffffffffffffffffffff16858760405161341f91906147ff565b5f6040518083038185875af1925050503d805f8114613459576040519150601f19603f3d011682016040523d82523d5f602084013e61345e565b606091505b509150915061346f8783838761347b565b92505050949350505050565b606083156134dc575f8351036134d457613494856134ef565b6134d3576040517f08c379a00000000000000000000000000000000000000000000000000000000081526004016134ca9061485f565b60405180910390fd5b5b8290506134e7565b6134e68383613511565b5b949350505050565b5f808273ffffffffffffffffffffffffffffffffffffffff163b119050919050565b5f825111156135235781518083602001fd5b806040517f08c379a000000000000000000000000000000000000000000000000000000000815260040161355791906136f6565b60405180910390fd5b5f604051905090565b5f80fd5b5f80fd5b5f819050919050565b61358381613571565b811461358d575f80fd5b50565b5f8135905061359e8161357a565b92915050565b5f602082840312156135b9576135b8613569565b5b5f6135c684828501613590565b91505092915050565b5f73ffffffffffffffffffffffffffffffffffffffff82169050919050565b5f6135f8826135cf565b9050919050565b613608816135ee565b82525050565b61361781613571565b82525050565b5f8115159050919050565b6136318161361d565b82525050565b5f60608201905061364a5f8301866135ff565b613657602083018561360e565b6136646040830184613628565b949350505050565b5f81519050919050565b5f82825260208201905092915050565b5f5b838110156136a3578082015181840152602081019050613688565b5f8484015250505050565b5f601f19601f8301169050919050565b5f6136c88261366c565b6136d28185613676565b93506136e2818560208601613686565b6136eb816136ae565b840191505092915050565b5f6020820190508181035f83015261370e81846136be565b905092915050565b5f6020820190506137295f8301846135ff565b92915050565b613738816135ee565b8114613742575f80fd5b50565b5f813590506137538161372f565b92915050565b5f806040838503121561376f5761376e613569565b5b5f61377c85828601613745565b925050602061378d85828601613590565b9150509250929050565b5f80fd5b5f80fd5b5f80fd5b5f8083601f8401126137b8576137b7613797565b5b8235905067ffffffffffffffff8111156137d5576137d461379b565b5b6020830191508360018202830111156137f1576137f061379f565b5b9250929050565b5f805f805f6080868803121561381157613810613569565b5b5f61381e88828901613745565b955050602061382f88828901613745565b945050604061384088828901613590565b935050606086013567ffffffffffffffff8111156138615761386061356d565b5b61386d888289016137a3565b92509250509295509295909350565b5f7fffffffff0000000000000000000000000000000000000000000000000000000082169050919050565b6138b08161387c565b82525050565b5f6020820190506138c95f8301846138a7565b92915050565b5f6020820190506138e25f83018461360e565b92915050565b5f80604083850312156138fe576138fd613569565b5b5f61390b85828601613590565b925050602061391c85828601613590565b9150509250929050565b5f805f6060848603121561393d5761393c613569565b5b5f61394a86828701613745565b935050602061395b86828701613745565b925050604061396c86828701613590565b9150509250925092565b5f8083601f84011261398b5761398a613797565b5b8235905067ffffffffffffffff8111156139a8576139a761379b565b5b6020830191508360208202830111156139c4576139c361379f565b5b9250929050565b5f805f80606085870312156139e3576139e2613569565b5b5f6139f087828801613745565b945050602085013567ffffffffffffffff811115613a1157613a1061356d565b5b613a1d87828801613976565b93509350506040613a3087828801613745565b91505092959194509250565b5f805f8060408587031215613a5457613a53613569565b5b5f85013567ffffffffffffffff811115613a7157613a7061356d565b5b613a7d87828801613976565b9450945050602085013567ffffffffffffffff811115613aa057613a9f61356d565b5b613aac87828801613976565b925092505092959194509250565b5f602082019050613acd5f830184613628565b92915050565b5f805f60608486031215613aea57613ae9613569565b5b5f613af786828701613745565b9350506020613b0886828701613590565b9250506040613b1986828701613745565b9150509250925092565b5f60208284031215613b3857613b37613569565b5b5f613b4584828501613745565b91505092915050565b5f81519050919050565b5f82825260208201905092915050565b5f819050602082019050919050565b613b8081613571565b82525050565b5f613b918383613b77565b60208301905092915050565b5f602082019050919050565b5f613bb382613b4e565b613bbd8185613b58565b9350613bc883613b68565b805f5b83811015613bf8578151613bdf8882613b86565b9750613bea83613b9d565b925050600181019050613bcb565b5085935050505092915050565b5f6020820190508181035f830152613c1d8184613ba9565b905092915050565b613c2e8161361d565b8114613c38575f80fd5b50565b5f81359050613c4981613c25565b92915050565b5f8060408385031215613c6557613c64613569565b5b5f613c7285828601613745565b9250506020613c8385828601613c3b565b9150509250929050565b5f80fd5b7f4e487b71000000000000000000000000000000000000000000000000000000005f52604160045260245ffd5b613cc7826136ae565b810181811067ffffffffffffffff82111715613ce657613ce5613c91565b5b80604052505050565b5f613cf8613560565b9050613d048282613cbe565b919050565b5f67ffffffffffffffff821115613d2357613d22613c91565b5b613d2c826136ae565b9050602081019050919050565b828183375f83830152505050565b5f613d59613d5484613d09565b613cef565b905082815260208101848484011115613d7557613d74613c8d565b5b613d80848285613d39565b509392505050565b5f82601f830112613d9c57613d9b613797565b5b8135613dac848260208601613d47565b91505092915050565b5f805f8060808587031215613dcd57613dcc613569565b5b5f613dda87828801613745565b9450506020613deb87828801613745565b9350506040613dfc87828801613590565b925050606085013567ffffffffffffffff811115613e1d57613e1c61356d565b5b613e2987828801613d88565b91505092959194509250565b5f805f60408486031215613e4c57613e4b613569565b5b5f84013567ffffffffffffffff811115613e6957613e6861356d565b5b613e7586828701613976565b93509350506020613e8886828701613745565b9150509250925092565b5f8060408385031215613ea857613ea7613569565b5b5f613eb585828601613745565b9250506020613ec685828601613745565b9150509250929050565b7f4e487b71000000000000000000000000000000000000000000000000000000005f52602260045260245ffd5b5f6002820490506001821680613f1457607f821691505b602082108103613f2757613f26613ed0565b5b50919050565b7f4e487b71000000000000000000000000000000000000000000000000000000005f52603260045260245ffd5b7f4e487b71000000000000000000000000000000000000000000000000000000005f52601160045260245ffd5b5f613f9182613571565b9150613f9c83613571565b9250828203905081811115613fb457613fb3613f5a565b5b92915050565b5f604082019050613fcd5f83018561360e565b613fda602083018461360e565b9392505050565b5f613feb82613571565b91505f8203613ffd57613ffc613f5a565b5b600182039050919050565b5f61401282613571565b915061401d83613571565b925082820190508082111561403557614034613f5a565b5b92915050565b7f5265656e7472616e63794c69623a207265656e7472616e742063616c6c0000005f82015250565b5f61406f601d83613676565b915061407a8261403b565b602082019050919050565b5f6020820190508181035f83015261409c81614063565b9050919050565b5f6040820190506140b65f8301856135ff565b6140c360208301846135ff565b9392505050565b5f815190506140d88161357a565b92915050565b5f602082840312156140f3576140f2613569565b5b5f614100848285016140ca565b91505092915050565b5f60608201905061411c5f8301866135ff565b61412960208301856135ff565b614136604083018461360e565b949350505050565b5f69ffffffffffffffffffff82169050919050565b61415c8161413e565b8114614166575f80fd5b50565b5f8151905061417781614153565b92915050565b5f819050919050565b61418f8161417d565b8114614199575f80fd5b50565b5f815190506141aa81614186565b92915050565b5f805f805f60a086880312156141c9576141c8613569565b5b5f6141d688828901614169565b95505060206141e78882890161419c565b94505060406141f8888289016140ca565b9350506060614209888289016140ca565b925050608061421a88828901614169565b9150509295509295909350565b5f61423182613571565b915061423c83613571565b925082820261424a81613571565b9150828204841483151761426157614260613f5a565b5b5092915050565b5f60ff82169050919050565b61427d81614268565b8114614287575f80fd5b50565b5f8151905061429881614274565b92915050565b5f602082840312156142b3576142b2613569565b5b5f6142c08482850161428a565b91505092915050565b7f4e487b71000000000000000000000000000000000000000000000000000000005f52601260045260245ffd5b5f61430082613571565b915061430b83613571565b92508261431b5761431a6142c9565b5b828204905092915050565b5f61433082614268565b915061433b83614268565b9250828203905060ff81111561435457614353613f5a565b5b92915050565b5f8160011c9050919050565b5f808291508390505b60018511156143af5780860481111561438b5761438a613f5a565b5b600185161561439a5780820291505b80810290506143a88561435a565b945061436f565b94509492505050565b5f826143c75760019050614482565b816143d4575f9050614482565b81600181146143ea57600281146143f457614423565b6001915050614482565b60ff84111561440657614405613f5a565b5b8360020a91508482111561441d5761441c613f5a565b5b50614482565b5060208310610133831016604e8410600b84101617156144585782820a90508381111561445357614452613f5a565b5b614482565b6144658484846001614366565b9250905081840481111561447c5761447b613f5a565b5b81810290505b9392505050565b5f61449382613571565b915061449e83614268565b92506144cb7fffffffffffffffffffffffffffffffffffffffffffffffffffffffffffffffff84846143b8565b905092915050565b5f815190506144e18161372f565b92915050565b5f80604083850312156144fd576144fc613569565b5b5f61450a858286016144d3565b925050602061451b858286016140ca565b9150509250929050565b5f6040820190506145385f8301856135ff565b614545602083018461360e565b9392505050565b5f81519050919050565b5f82825260208201905092915050565b5f6145708261454c565b61457a8185614556565b935061458a818560208601613686565b614593816136ae565b840191505092915050565b5f6080820190506145b15f8301876135ff565b6145be60208301866135ff565b6145cb604083018561360e565b81810360608301526145dd8184614566565b905095945050505050565b6145f18161387c565b81146145fb575f80fd5b50565b5f8151905061460c816145e8565b92915050565b5f6020828403121561462757614626613569565b5b5f614634848285016145fe565b91505092915050565b7f4e487b71000000000000000000000000000000000000000000000000000000005f52603160045260245ffd5b5f8151905061467881613c25565b92915050565b5f6020828403121561469357614692613569565b5b5f6146a08482850161466a565b91505092915050565b7f5361666545524332303a204552433230206f7065726174696f6e20646964206e5f8201527f6f74207375636365656400000000000000000000000000000000000000000000602082015250565b5f614703602a83613676565b915061470e826146a9565b604082019050919050565b5f6020820190508181035f830152614730816146f7565b9050919050565b7f416464726573733a20696e73756666696369656e742062616c616e636520666f5f8201527f722063616c6c0000000000000000000000000000000000000000000000000000602082015250565b5f614791602683613676565b915061479c82614737565b604082019050919050565b5f6020820190508181035f8301526147be81614785565b9050919050565b5f81905092915050565b5f6147d98261454c565b6147e381856147c5565b93506147f3818560208601613686565b80840191505092915050565b5f61480a82846147cf565b915081905092915050565b7f416464726573733a2063616c6c20746f206e6f6e2d636f6e74726163740000005f82015250565b5f614849601d83613676565b915061485482614815565b602082019050919050565b5f6020820190508181035f8301526148768161483d565b905091905056fea264697066735822122098a5573ba12bbb94dbbd6c8fe9988646e402eeaede6f559485be4c14646698d664736f6c63430008180033",
    "linkReferences": {}
  },
  "methodIdentifiers": {
    "approve(address,uint256)": "095ea7b3",
    "balanceOf(address)": "70a08231",
    "batchBuyTokens(address,uint256[],address)": "3dda3558",
    "batchCancelTokenSales(uint256[],address)": "cfbf9903",
    "batchSellTokens(uint256[],uint256[])": "4930d709",
    "buyToken(address,uint256,address)": "692bf4a8",
    "cancelTokenSale(uint256)": "2bda5ac3",
    "getAllActiveSaleTokens()": "71695f1d",
    "getApproved(uint256)": "081812fc",
    "getTokenSaleInfo(uint256)": "018f8343",
    "getTokenSalePrice(uint256)": "18eef395",
    "isApprovedForAll(address,address)": "e985e9c5",
    "isTokenAllowed(address)": "f9eaee0d",
    "isTokenForSale(uint256)": "4fed1c94",
    "name()": "06fdde03",
    "onERC721Received(address,address,uint256,bytes)": "150b7a02",
    "ownerOf(uint256)": "6352211e",
    "safeTransferFrom(address,address,uint256)": "42842e0e",
    "safeTransferFrom(address,address,uint256,bytes)": "b88d4fde",
    "sellToken(uint256,uint256)": "1897bcf3",
    "setApprovalForAll(address,bool)": "a22cb465",
    "symbol()": "95d89b41",
    "totalSupply()": "18160ddd",
    "transferFrom(address,address,uint256)": "23b872dd"
  },
  "id": 124
}