{
  "abi": [
    {
      "type": "function",
      "name": "approve",
      "inputs": [
        {
          "name": "to",
          "type": "address",
          "internalType": "address"
        },
        {
          "name": "tokenId",
          "type": "uint256",
          "internalType": "uint256"
        }
      ],
      "outputs": [],
      "stateMutability": "payable"
    },
    {
      "type": "function",
      "name": "balanceOf",
      "inputs": [
        {
          "name": "owner",
          "type": "address",
          "internalType": "address"
        }
      ],
      "outputs": [
        {
          "name": "",
          "type": "uint256",
          "internalType": "uint256"
        }
      ],
      "stateMutability": "view"
    },
    {
      "type": "function",
      "name": "batchBuyTokens",
      "inputs": [
        {
          "name": "_buyer",
          "type": "address",
          "internalType": "address"
        },
        {
          "name": "_tokenIds",
          "type": "uint256[]",
          "internalType": "uint256[]"
        },
        {
          "name": "_paymentToken",
          "type": "address",
          "internalType": "address"
        }
      ],
      "outputs": [],
      "stateMutability": "nonpayable"
    },
    {
      "type": "function",
      "name": "batchCancelTokenSales",
      "inputs": [
        {
          "name": "_tokenIds",
          "type": "uint256[]",
          "internalType": "uint256[]"
        },
        {
          "name": "_seller",
          "type": "address",
          "internalType": "address"
        }
      ],
      "outputs": [],
      "stateMutability": "nonpayable"
    },
    {
      "type": "function",
      "name": "batchSellTokens",
      "inputs": [
        {
          "name": "_tokenIds",
          "type": "uint256[]",
          "internalType": "uint256[]"
        },
        {
          "name": "_prices",
          "type": "uint256[]",
          "internalType": "uint256[]"
        }
      ],
      "outputs": [],
      "stateMutability": "nonpayable"
    },
    {
      "type": "function",
      "name": "buyToken",
      "inputs": [
        {
          "name": "_buyer",
          "type": "address",
          "internalType": "address"
        },
        {
          "name": "_tokenId",
          "type": "uint256",
          "internalType": "uint256"
        },
        {
          "name": "_paymentToken",
          "type": "address",
          "internalType": "address"
        }
      ],
      "outputs": [],
      "stateMutability": "nonpayable"
    },
    {
      "type": "function",
      "name": "cancelTokenSale",
      "inputs": [
        {
          "name": "_tokenId",
          "type": "uint256",
          "internalType": "uint256"
        }
      ],
      "outputs": [],
      "stateMutability": "nonpayable"
    },
    {
      "type": "function",
      "name": "getApproved",
      "inputs": [
        {
          "name": "tokenId",
          "type": "uint256",
          "internalType": "uint256"
        }
      ],
      "outputs": [
        {
          "name": "",
          "type": "address",
          "internalType": "address"
        }
      ],
      "stateMutability": "view"
    },
    {
      "type": "function",
      "name": "getTokenSaleInfo",
      "inputs": [
        {
          "name": "_tokenId",
          "type": "uint256",
          "internalType": "uint256"
        }
      ],
      "outputs": [
        {
          "name": "seller",
          "type": "address",
          "internalType": "address"
        },
        {
          "name": "price",
          "type": "uint256",
          "internalType": "uint256"
        },
        {
          "name": "isActive",
          "type": "bool",
          "internalType": "bool"
        }
      ],
      "stateMutability": "view"
    },
    {
      "type": "function",
      "name": "getTokenSalePrice",
      "inputs": [
        {
          "name": "_tokenId",
          "type": "uint256",
          "internalType": "uint256"
        }
      ],
      "outputs": [
        {
          "name": "",
          "type": "uint256",
          "internalType": "uint256"
        }
      ],
      "stateMutability": "view"
    },
    {
      "type": "function",
      "name": "isApprovedForAll",
      "inputs": [
        {
          "name": "owner",
          "type": "address",
          "internalType": "address"
        },
        {
          "name": "operator",
          "type": "address",
          "internalType": "address"
        }
      ],
      "outputs": [
        {
          "name": "",
          "type": "bool",
          "internalType": "bool"
        }
      ],
      "stateMutability": "view"
    },
    {
      "type": "function",
      "name": "isTokenAllowed",
      "inputs": [
        {
          "name": "_token",
          "type": "address",
          "internalType": "address"
        }
      ],
      "outputs": [
        {
          "name": "",
          "type": "bool",
          "internalType": "bool"
        }
      ],
      "stateMutability": "view"
    },
    {
      "type": "function",
      "name": "isTokenForSale",
      "inputs": [
        {
          "name": "_tokenId",
          "type": "uint256",
          "internalType": "uint256"
        }
      ],
      "outputs": [
        {
          "name": "",
          "type": "bool",
          "internalType": "bool"
        }
      ],
      "stateMutability": "view"
    },
    {
      "type": "function",
      "name": "name",
      "inputs": [],
      "outputs": [
        {
          "name": "",
          "type": "string",
          "internalType": "string"
        }
      ],
      "stateMutability": "view"
    },
    {
      "type": "function",
      "name": "onERC721Received",
      "inputs": [
        {
          "name": "",
          "type": "address",
          "internalType": "address"
        },
        {
          "name": "",
          "type": "address",
          "internalType": "address"
        },
        {
          "name": "",
          "type": "uint256",
          "internalType": "uint256"
        },
        {
          "name": "",
          "type": "bytes",
          "internalType": "bytes"
        }
      ],
      "outputs": [
        {
          "name": "",
          "type": "bytes4",
          "internalType": "bytes4"
        }
      ],
      "stateMutability": "pure"
    },
    {
      "type": "function",
      "name": "ownerOf",
      "inputs": [
        {
          "name": "tokenId",
          "type": "uint256",
          "internalType": "uint256"
        }
      ],
      "outputs": [
        {
          "name": "",
          "type": "address",
          "internalType": "address"
        }
      ],
      "stateMutability": "view"
    },
    {
      "type": "function",
      "name": "safeTransferFrom",
      "inputs": [
        {
          "name": "from",
          "type": "address",
          "internalType": "address"
        },
        {
          "name": "to",
          "type": "address",
          "internalType": "address"
        },
        {
          "name": "tokenId",
          "type": "uint256",
          "internalType": "uint256"
        }
      ],
      "outputs": [],
      "stateMutability": "payable"
    },
    {
      "type": "function",
      "name": "safeTransferFrom",
      "inputs": [
        {
          "name": "from",
          "type": "address",
          "internalType": "address"
        },
        {
          "name": "to",
          "type": "address",
          "internalType": "address"
        },
        {
          "name": "tokenId",
          "type": "uint256",
          "internalType": "uint256"
        },
        {
          "name": "_data",
          "type": "bytes",
          "internalType": "bytes"
        }
      ],
      "outputs": [],
      "stateMutability": "payable"
    },
    {
      "type": "function",
      "name": "sellToken",
      "inputs": [
        {
          "name": "_tokenId",
          "type": "uint256",
          "internalType": "uint256"
        },
        {
          "name": "_price",
          "type": "uint256",
          "internalType": "uint256"
        }
      ],
      "outputs": [],
      "stateMutability": "nonpayable"
    },
    {
      "type": "function",
      "name": "setApprovalForAll",
      "inputs": [
        {
          "name": "operator",
          "type": "address",
          "internalType": "address"
        },
        {
          "name": "approved",
          "type": "bool",
          "internalType": "bool"
        }
      ],
      "outputs": [],
      "stateMutability": "nonpayable"
    },
    {
      "type": "function",
      "name": "symbol",
      "inputs": [],
      "outputs": [
        {
          "name": "",
          "type": "string",
          "internalType": "string"
        }
      ],
      "stateMutability": "view"
    },
    {
      "type": "function",
      "name": "totalSupply",
      "inputs": [],
      "outputs": [
        {
          "name": "",
          "type": "uint256",
          "internalType": "uint256"
        }
      ],
      "stateMutability": "view"
    },
    {
      "type": "function",
      "name": "transferFrom",
      "inputs": [
        {
          "name": "from",
          "type": "address",
          "internalType": "address"
        },
        {
          "name": "to",
          "type": "address",
          "internalType": "address"
        },
        {
          "name": "tokenId",
          "type": "uint256",
          "internalType": "uint256"
        }
      ],
      "outputs": [],
      "stateMutability": "payable"
    },
    {
      "type": "event",
      "name": "Approval",
      "inputs": [
        {
          "name": "owner",
          "type": "address",
          "indexed": true,
          "internalType": "address"
        },
        {
          "name": "approved",
          "type": "address",
          "indexed": true,
          "internalType": "address"
        },
        {
          "name": "tokenId",
          "type": "uint256",
          "indexed": true,
          "internalType": "uint256"
        }
      ],
      "anonymous": false
    },
    {
      "type": "event",
      "name": "ApprovalForAll",
      "inputs": [
        {
          "name": "owner",
          "type": "address",
          "indexed": true,
          "internalType": "address"
        },
        {
          "name": "operator",
          "type": "address",
          "indexed": true,
          "internalType": "address"
        },
        {
          "name": "approved",
          "type": "bool",
          "indexed": false,
          "internalType": "bool"
        }
      ],
      "anonymous": false
    },
    {
      "type": "event",
      "name": "ConsecutiveTransfer",
      "inputs": [
        {
          "name": "fromTokenId",
          "type": "uint256",
          "indexed": true,
          "internalType": "uint256"
        },
        {
          "name": "toTokenId",
          "type": "uint256",
          "indexed": false,
          "internalType": "uint256"
        },
        {
          "name": "from",
          "type": "address",
          "indexed": true,
          "internalType": "address"
        },
        {
          "name": "to",
          "type": "address",
          "indexed": true,
          "internalType": "address"
        }
      ],
      "anonymous": false
    },
    {
      "type": "event",
      "name": "RoyaltyPaid",
      "inputs": [
        {
          "name": "receiver",
          "type": "address",
          "indexed": true,
          "internalType": "address"
        },
        {
          "name": "tokenId",
          "type": "uint256",
          "indexed": true,
          "internalType": "uint256"
        },
        {
          "name": "salePrice",
          "type": "uint256",
          "indexed": false,
          "internalType": "uint256"
        },
        {
          "name": "royaltyAmount",
          "type": "uint256",
          "indexed": false,
          "internalType": "uint256"
        }
      ],
      "anonymous": false
    },
    {
      "type": "event",
      "name": "SetTokenPrice",
      "inputs": [
        {
          "name": "owner",
          "type": "address",
          "indexed": true,
          "internalType": "address"
        },
        {
          "name": "tokenId",
          "type": "uint256",
          "indexed": true,
          "internalType": "uint256"
        },
        {
          "name": "price",
          "type": "uint256",
          "indexed": false,
          "internalType": "uint256"
        }
      ],
      "anonymous": false
    },
    {
      "type": "event",
      "name": "TokenSaleCancelled",
      "inputs": [
        {
          "name": "owner",
          "type": "address",
          "indexed": true,
          "internalType": "address"
        },
        {
          "name": "tokenId",
          "type": "uint256",
          "indexed": true,
          "internalType": "uint256"
        }
      ],
      "anonymous": false
    },
    {
      "type": "event",
      "name": "TokenSold",
      "inputs": [
        {
          "name": "buyer",
          "type": "address",
          "indexed": true,
          "internalType": "address"
        },
        {
          "name": "seller",
          "type": "address",
          "indexed": true,
          "internalType": "address"
        },
        {
          "name": "tokenId",
          "type": "uint256",
          "indexed": true,
          "internalType": "uint256"
        },
        {
          "name": "salePrice",
          "type": "uint256",
          "indexed": false,
          "internalType": "uint256"
        }
      ],
      "anonymous": false
    },
    {
      "type": "event",
      "name": "Transfer",
      "inputs": [
        {
          "name": "from",
          "type": "address",
          "indexed": true,
          "internalType": "address"
        },
        {
          "name": "to",
          "type": "address",
          "indexed": true,
          "internalType": "address"
        },
        {
          "name": "tokenId",
          "type": "uint256",
          "indexed": true,
          "internalType": "uint256"
        }
      ],
      "anonymous": false
    },
    {
      "type": "error",
      "name": "ApprovalCallerNotOwnerNorApproved",
      "inputs": []
    },
    {
      "type": "error",
      "name": "ApprovalQueryForNonexistentToken",
      "inputs": []
    },
    {
      "type": "error",
      "name": "BalanceQueryForZeroAddress",
      "inputs": []
    },
    {
      "type": "error",
      "name": "IBeanHeadsBase__InsufficientAllowance",
      "inputs": []
    },
    {
      "type": "error",
      "name": "IBeanHeadsBase__InsufficientPayment",
      "inputs": []
    },
    {
      "type": "error",
      "name": "IBeanHeadsBase__InvalidOraclePrice",
      "inputs": []
    },
    {
      "type": "error",
      "name": "IBeanHeadsBase__NotOwner",
      "inputs": []
    },
    {
      "type": "error",
      "name": "IBeanHeadsBase__PriceMustBeGreaterThanZero",
      "inputs": []
    },
    {
      "type": "error",
      "name": "IBeanHeadsBase__TokenDoesNotExist",
      "inputs": []
    },
    {
      "type": "error",
      "name": "IBeanHeadsBase__TokenIsAlreadyListed",
      "inputs": []
    },
    {
      "type": "error",
      "name": "IBeanHeadsBase__TokenIsLocked",
      "inputs": []
    },
    {
      "type": "error",
      "name": "IBeanHeadsBase__TokenIsNotForSale",
      "inputs": []
    },
    {
      "type": "error",
      "name": "IBeanHeadsBase__TokenNotAllowed",
      "inputs": [
        {
          "name": "token",
          "type": "address",
          "internalType": "address"
        }
      ]
    },
    {
      "type": "error",
      "name": "IBeanHeadsMarketplace__InsufficientAllowance",
      "inputs": []
    },
    {
      "type": "error",
      "name": "IBeanHeadsMarketplace__InsufficientPayment",
      "inputs": []
    },
    {
      "type": "error",
      "name": "IBeanHeadsMarketplace__InvalidOraclePrice",
      "inputs": []
    },
    {
      "type": "error",
      "name": "IBeanHeadsMarketplace__MismatchedArrayLengths",
      "inputs": []
    },
    {
      "type": "error",
      "name": "IBeanHeadsMarketplace__NotOwner",
      "inputs": []
    },
    {
      "type": "error",
      "name": "IBeanHeadsMarketplace__PriceExceedsMax",
      "inputs": []
    },
    {
      "type": "error",
      "name": "IBeanHeadsMarketplace__PriceMustBeGreaterThanZero",
      "inputs": []
    },
    {
      "type": "error",
      "name": "IBeanHeadsMarketplace__TokenDoesNotExist",
      "inputs": []
    },
    {
      "type": "error",
      "name": "IBeanHeadsMarketplace__TokenNotAllowed",
      "inputs": [
        {
          "name": "token",
          "type": "address",
          "internalType": "address"
        }
      ]
    },
    {
      "type": "error",
      "name": "IBeanHeadsMarketplace__TokenNotForSale",
      "inputs": []
    },
    {
      "type": "error",
      "name": "InvalidTokenId",
      "inputs": []
    },
    {
      "type": "error",
      "name": "MintERC2309QuantityExceedsLimit",
      "inputs": []
    },
    {
      "type": "error",
      "name": "MintToZeroAddress",
      "inputs": []
    },
    {
      "type": "error",
      "name": "MintZeroQuantity",
      "inputs": []
    },
    {
      "type": "error",
      "name": "OwnerQueryForNonexistentToken",
      "inputs": []
    },
    {
      "type": "error",
      "name": "OwnershipNotInitializedForExtraData",
      "inputs": []
    },
    {
      "type": "error",
      "name": "TokenAlreadyExists",
      "inputs": []
    },
    {
      "type": "error",
      "name": "TransferCallerNotOwnerNorApproved",
      "inputs": []
    },
    {
      "type": "error",
      "name": "TransferFromIncorrectOwner",
      "inputs": []
    },
    {
      "type": "error",
      "name": "TransferToNonERC721ReceiverImplementer",
      "inputs": []
    },
    {
      "type": "error",
      "name": "TransferToZeroAddress",
      "inputs": []
    },
    {
      "type": "error",
      "name": "URIQueryForNonexistentToken",
      "inputs": []
    }
  ],
  "bytecode": {
    "object": "0x608080604052346100165761347e908161001b8239f35b5f80fdfe60806040526004361015610011575f80fd5b5f3560e01c8063018f83431461018457806306fdde031461017f578063081812fc1461017a578063095ea7b314610175578063150b7a021461017057806318160ddd1461016b5780631897bcf31461016657806318eef3951461016157806323b872dd1461015c5780632bda5ac3146101575780633dda35581461015257806342842e0e1461014d5780634930d709146101485780634fed1c94146101435780636352211e1461013e578063692bf4a81461013957806370a082311461013457806395d89b411461012f578063a22cb4651461012a578063b88d4fde14610125578063cfbf990314610120578063e985e9c51461011b5763f9eaee0d14610116575f80fd5b611adf565b611a3e565b61189c565b6117f3565b6115e0565b6114b9565b6113de565b6110c8565b61106e565b610ff1565b610df9565b610dd7565b610bb0565b610a1d565b610a09565b610911565b6107eb565b61076d565b6106c8565b610530565b61045f565b6102c7565b346102535760207ffffffffffffffffffffffffffffffffffffffffffffffffffffffffffffffffc360112610253576004356101bf81612031565b1561022b575f527f791cad950d3b9b323a06def8cb8b7bf2c934c7f4cea39385f023ba145f9b93ad602052606060405f2073ffffffffffffffffffffffffffffffffffffffff8154169060ff600260018301549201541690604051928352602083015215156040820152f35b7f527aa816000000000000000000000000000000000000000000000000000000005f5260045ffd5b5f80fd5b91908251928382525f5b84811061029f5750507fffffffffffffffffffffffffffffffffffffffffffffffffffffffffffffffe0601f845f6020809697860101520116010190565b602081830181015184830182015201610261565b9060206102c4928181520190610257565b90565b34610253575f7ffffffffffffffffffffffffffffffffffffffffffffffffffffffffffffffffc360112610253576040515f7f8785b62d5a7098417c833f00e99883e36791da2bbef1ddc66d7797ca0681c2d25460018160011c9160018116918215610455575b6020916020851084146104285784875260208701939081156103eb5750600114610373575b61036f8661036381880382611758565b604051918291826102b3565b0390f35b7f8785b62d5a7098417c833f00e99883e36791da2bbef1ddc66d7797ca0681c2d25f90815294509192917f4eff6dd2ce7e3eed3d8c57a965022ef5c4089064f80bafbcccb1920be91b46a15b8386106103da57505050910190506103638261036f5f610353565b8054858701529482019481016103bf565b7fffffffffffffffffffffffffffffffffffffffffffffffffffffffffffffff0016845250505090151560051b0190506103638261036f5f610353565b7f4e487b71000000000000000000000000000000000000000000000000000000005f52602260045260245ffd5b92607f169261032e565b346102535760207ffffffffffffffffffffffffffffffffffffffffffffffffffffffffffffffffc3601126102535760043561049a81612031565b156104ea575f527f8785b62d5a7098417c833f00e99883e36791da2bbef1ddc66d7797ca0681c2d6602052602073ffffffffffffffffffffffffffffffffffffffff60405f205416604051908152f35b7fcf4700e4000000000000000000000000000000000000000000000000000000005f5260045ffd5b73ffffffffffffffffffffffffffffffffffffffff81160361025357565b60407ffffffffffffffffffffffffffffffffffffffffffffffffffffffffffffffffc3601126102535760043561056681610512565b6024359073ffffffffffffffffffffffffffffffffffffffff806105898461233f565b169182330361062a575b835f527f8785b62d5a7098417c833f00e99883e36791da2bbef1ddc66d7797ca0681c2d66020526106028160405f209073ffffffffffffffffffffffffffffffffffffffff167fffffffffffffffffffffffff0000000000000000000000000000000000000000825416179055565b16907f8c5be1e5ebec7d5bd14f71427d1e84f3dd0314c0f7b2291e5b200ac8c7c3b9255f80a4005b60ff61069a336106778673ffffffffffffffffffffffffffffffffffffffff165f527f8785b62d5a7098417c833f00e99883e36791da2bbef1ddc66d7797ca0681c2d760205260405f2090565b9073ffffffffffffffffffffffffffffffffffffffff165f5260205260405f2090565b5416610593577fcfb3b942000000000000000000000000000000000000000000000000000000005f5260045ffd5b346102535760807ffffffffffffffffffffffffffffffffffffffffffffffffffffffffffffffffc36011261025357610702600435610512565b61070d602435610512565b60643567ffffffffffffffff80821161025357366023830112156102535781600401359081116102535736910160240111610253576040517f150b7a02000000000000000000000000000000000000000000000000000000008152602090f35b34610253575f7ffffffffffffffffffffffffffffffffffffffffffffffffffffffffffffffffc3601126102535760207f8785b62d5a7098417c833f00e99883e36791da2bbef1ddc66d7797ca0681c2d0547f8785b62d5a7098417c833f00e99883e36791da2bbef1ddc66d7797ca0681c2d1549003604051908152f35b346102535760407ffffffffffffffffffffffffffffffffffffffffffffffffffffffffffffffffc3601126102535760043560243561082982612031565b1561022b5761086973ffffffffffffffffffffffffffffffffffffffff61084f8461233f565b1673ffffffffffffffffffffffffffffffffffffffff1690565b330361090c57801561090757610880823033611f43565b6108d761088b611799565b3381528260208201526108a16040820160019052565b6108d2845f527f791cad950d3b9b323a06def8cb8b7bf2c934c7f4cea39385f023ba145f9b93ad60205260405f2090565b611b64565b60405190815233907fe1d604800ecfffb56e9d4ca585816df41dde9a764119d7ef01d927cdf8c237b090602090a3005b61210f565b6120e7565b346102535760207ffffffffffffffffffffffffffffffffffffffffffffffffffffffffffffffffc3601126102535760043561094c81612031565b1561022b575f527f791cad950d3b9b323a06def8cb8b7bf2c934c7f4cea39385f023ba145f9b93ad60205260405f2060ff600282015416156109975760016020910154604051908152f35b7f782e2fe9000000000000000000000000000000000000000000000000000000005f5260045ffd5b7ffffffffffffffffffffffffffffffffffffffffffffffffffffffffffffffffc6060910112610253576004356109f581610512565b90602435610a0281610512565b9060443590565b610a1b610a15366109bf565b91611c0a565b005b346102535760207ffffffffffffffffffffffffffffffffffffffffffffffffffffffffffffffffc36011261025357600435610a5881612031565b1561022b57805f527f791cad950d3b9b323a06def8cb8b7bf2c934c7f4cea39385f023ba145f9b93ad60205260405f20610ac2610aa9825473ffffffffffffffffffffffffffffffffffffffff1690565b73ffffffffffffffffffffffffffffffffffffffff1690565b330361090c576002810190610adf610adb835460ff1690565b1590565b610b7a57610b25610b5392610afd610af5611f31565b86333061266b565b7fffffffffffffffffffffffffffffffffffffffffffffffffffffffffffffff008154169055565b5f60018201557fffffffffffffffffffffffff00000000000000000000000000000000000000008154169055565b337ffd29d40736f7e30e737c49f0da6edb357095e0117291cd63e251ef8b2a5cd5735f80a3005b610997565b9181601f840112156102535782359167ffffffffffffffff8311610253576020808501948460051b01011161025357565b346102535760607ffffffffffffffffffffffffffffffffffffffffffffffffffffffffffffffffc36011261025357600435610beb81610512565b60243567ffffffffffffffff811161025357610c0b903690600401610b7f565b60443590610c1882610512565b610c20612679565b60ff610c698373ffffffffffffffffffffffffffffffffffffffff165f527f791cad950d3b9b323a06def8cb8b7bf2c934c7f4cea39385f023ba145f9b93b260205260405f2090565b541615610daf57610c7981612707565b92604094610c8a6040519586611758565b828552610c9683612707565b957fffffffffffffffffffffffffffffffffffffffffffffffffffffffffffffffe0602097013660208801375f965f915b858310610d3057505050610d02610d079673ffffffffffffffffffffffffffffffffffffffff8616610cf9828261274d565b3090339061285e565b6128da565b610a1b60017f862460a2be1e75f44234ae220583844903aaee6923993409e3eaa0efbd0da84155565b909197610d3e898787611f83565b355f527f791cad950d3b9b323a06def8cb8b7bf2c934c7f4cea39385f023ba145f9b93ad8352815f20610d78610adb600283015460ff1690565b610daa57600191610d8f83610da19301548a612bce565b9081610d9b8d8d61271f565b5261249e565b98019190610cc7565b612137565b7ffa3d8e01000000000000000000000000000000000000000000000000000000005f5260045ffd5b610a1b610de3366109bf565b9060405192610df18461171b565b5f8452611fd7565b34610253576040807ffffffffffffffffffffffffffffffffffffffffffffffffffffffffffffffffc3601126102535767ffffffffffffffff60043581811161025357610e4a903690600401610b7f565b9160243590811161025357610e63903690600401610b7f565b929091838203610fc9575f5b828110610e7857005b610e83818484611f83565b3590610e90818787611f83565b3591610ec3815f527f791cad950d3b9b323a06def8cb8b7bf2c934c7f4cea39385f023ba145f9b93ad60205260405f2090565b92610ed0610adb83612031565b610fc4573373ffffffffffffffffffffffffffffffffffffffff610ef9610aa9610aa98661233f565b1603610fbf578015610fba576002840193610f15855460ff1690565b610fb5576001948286610f8293610f2d873033611f43565b80547fffffffffffffffffffffffff00000000000000000000000000000000000000001633178155015560017fffffffffffffffffffffffffffffffffffffffffffffffffffffffffffffff00825416179055565b885190815233907fe1d604800ecfffb56e9d4ca585816df41dde9a764119d7ef01d927cdf8c237b090602090a301610e6f565b6121d7565b6121af565b612187565b61215f565b7fd6b68c7c000000000000000000000000000000000000000000000000000000005f5260045ffd5b346102535760207ffffffffffffffffffffffffffffffffffffffffffffffffffffffffffffffffc3601126102535760043561102c81612031565b1561022b575f527f791cad950d3b9b323a06def8cb8b7bf2c934c7f4cea39385f023ba145f9b93ad602052602060ff600260405f200154166040519015158152f35b346102535760207ffffffffffffffffffffffffffffffffffffffffffffffffffffffffffffffffc36011261025357602073ffffffffffffffffffffffffffffffffffffffff6110bf60043561233f565b16604051908152f35b346102535760607ffffffffffffffffffffffffffffffffffffffffffffffffffffffffffffffffc3601126102535760043561110381610512565b6024356044359161111383610512565b61111b612679565b61112482612031565b1561022b5761115a825f527f791cad950d3b9b323a06def8cb8b7bf2c934c7f4cea39385f023ba145f9b93ad60205260405f2090565b9061116c610adb600284015460ff1690565b610b7a576111c4610adb6111bd8673ffffffffffffffffffffffffffffffffffffffff165f527f791cad950d3b9b323a06def8cb8b7bf2c934c7f4cea39385f023ba145f9b93b260205260405f2090565b5460ff1690565b6113d957610d07937fa8a7473f10e62cf9687e243de1c3ac8b3cbc3dd04b96826beb3a65b595385814849361132a73ffffffffffffffffffffffffffffffffffffffff916112fd8386169561128c6112556001850154988b6112268b86612bce565b9a6112318c8461274d565b61123d8c30338661285e565b8b8a61125c61124c8386612d95565b8a989198612bce565b8093611fc5565b9582611381575b5050505050611286865473ffffffffffffffffffffffffffffffffffffffff1690565b90612e64565b6112bd895f527f791cad950d3b9b323a06def8cb8b7bf2c934c7f4cea39385f023ba145f9b93b360205260405f2090565b9073ffffffffffffffffffffffffffffffffffffffff167fffffffffffffffffffffffff0000000000000000000000000000000000000000825416179055565b611310611308611f31565b88883061266b565b5473ffffffffffffffffffffffffffffffffffffffff1690565b6040519384528116931691602090a46108d2611344611799565b915f83525f60208401525f60408401525f527f791cad950d3b9b323a06def8cb8b7bf2c934c7f4cea39385f023ba145f9b93ad60205260405f2090565b6113cc836113b17f70f417ac564051a4ecb55ef0f383eb66de1611967ce4c0bcf70edfdbb94b5c6795848a612e64565b60405193849316958360209093929193604081019481520152565b0390a38b5f808a81611263565b610daf565b346102535760207ffffffffffffffffffffffffffffffffffffffffffffffffffffffffffffffffc3601126102535760043561141981610512565b73ffffffffffffffffffffffffffffffffffffffff8116156114915767ffffffffffffffff61148760209273ffffffffffffffffffffffffffffffffffffffff165f527f8785b62d5a7098417c833f00e99883e36791da2bbef1ddc66d7797ca0681c2d560205260405f2090565b5416604051908152f35b7f8f4eb604000000000000000000000000000000000000000000000000000000005f5260045ffd5b34610253575f7ffffffffffffffffffffffffffffffffffffffffffffffffffffffffffffffffc360112610253576040515f7f8785b62d5a7098417c833f00e99883e36791da2bbef1ddc66d7797ca0681c2d35460018160011c91600181169182156115cc575b6020916020851084146104285784875260208701939081156103eb57506001146115545761036f8661036381880382611758565b7f8785b62d5a7098417c833f00e99883e36791da2bbef1ddc66d7797ca0681c2d35f90815294509192917feab2a30426a14f07ecdc76635cd0729eb655bee4c9d04a8fb1b5d85c28c9dae35b8386106115bb57505050910190506103638261036f5f610353565b8054858701529482019481016115a0565b92607f1692611520565b8015150361025357565b346102535760407ffffffffffffffffffffffffffffffffffffffffffffffffffffffffffffffffc3601126102535760043561161b81610512565b73ffffffffffffffffffffffffffffffffffffffff6024359161163d836115d6565b6116bc8361168c836106773373ffffffffffffffffffffffffffffffffffffffff165f527f8785b62d5a7098417c833f00e99883e36791da2bbef1ddc66d7797ca0681c2d760205260405f2090565b9060ff7fffffffffffffffffffffffffffffffffffffffffffffffffffffffffffffff0083541691151516179055565b604051921515835216907f17307eab39ab6107e8899845ad3d59bd9653f200f220920489ca2b5937696c3160203392a3005b7f4e487b71000000000000000000000000000000000000000000000000000000005f52604160045260245ffd5b6020810190811067ffffffffffffffff82111761173757604052565b6116ee565b6040810190811067ffffffffffffffff82111761173757604052565b90601f7fffffffffffffffffffffffffffffffffffffffffffffffffffffffffffffffe0910116810190811067ffffffffffffffff82111761173757604052565b604051906060820182811067ffffffffffffffff82111761173757604052565b67ffffffffffffffff811161173757601f017fffffffffffffffffffffffffffffffffffffffffffffffffffffffffffffffe01660200190565b60807ffffffffffffffffffffffffffffffffffffffffffffffffffffffffffffffffc3601126102535760043561182981610512565b60243561183581610512565b6064359167ffffffffffffffff8311610253573660238401121561025357826004013591611862836117b9565b926118706040519485611758565b8084523660248287010111610253576020815f926024610a1b9801838801378501015260443591611fd7565b346102535760407ffffffffffffffffffffffffffffffffffffffffffffffffffffffffffffffffc3601126102535760043567ffffffffffffffff8111610253576118eb903690600401610b7f565b90602435916118f983610512565b73ffffffffffffffffffffffffffffffffffffffff8316905f5b81811061191c57005b611927818386611f83565b359061195a825f527f791cad950d3b9b323a06def8cb8b7bf2c934c7f4cea39385f023ba145f9b93ad60205260405f2090565b91611967610adb82612031565b610fc45761198c610aa9845473ffffffffffffffffffffffffffffffffffffffff1690565b8503610fbf5760028301926119a5610adb855460ff1690565b610daa576001935f85836119de611a08957fffffffffffffffffffffffff00000000000000000000000000000000000000008154169055565b01557fffffffffffffffffffffffffffffffffffffffffffffffffffffffffffffff008154169055565b611a1381883061316e565b847ffd29d40736f7e30e737c49f0da6edb357095e0117291cd63e251ef8b2a5cd5735f80a301611913565b346102535760407ffffffffffffffffffffffffffffffffffffffffffffffffffffffffffffffffc36011261025357602060ff611ad3600435611a8081610512565b61067760243591611a9083610512565b73ffffffffffffffffffffffffffffffffffffffff165f527f8785b62d5a7098417c833f00e99883e36791da2bbef1ddc66d7797ca0681c2d760205260405f2090565b54166040519015158152f35b346102535760207ffffffffffffffffffffffffffffffffffffffffffffffffffffffffffffffffc36011261025357602060ff611ad3600435611b2181610512565b73ffffffffffffffffffffffffffffffffffffffff165f527f791cad950d3b9b323a06def8cb8b7bf2c934c7f4cea39385f023ba145f9b93b260205260405f2090565b60026040611c0893611bc873ffffffffffffffffffffffffffffffffffffffff825116859073ffffffffffffffffffffffffffffffffffffffff167fffffffffffffffffffffffff0000000000000000000000000000000000000000825416179055565b602081015160018501550151151591019060ff7fffffffffffffffffffffffffffffffffffffffffffffffffffffffffffffff0083541691151516179055565b565b919091611c168261233f565b9273ffffffffffffffffffffffffffffffffffffffff809216938483821603611f2c575f8481527f8785b62d5a7098417c833f00e99883e36791da2bbef1ddc66d7797ca0681c2d6602052604090208054611c8d73ffffffffffffffffffffffffffffffffffffffff881633908114908314171590565b611ed1575b611c9d86858961251e565b611ec8575b50611cea8573ffffffffffffffffffffffffffffffffffffffff165f527f8785b62d5a7098417c833f00e99883e36791da2bbef1ddc66d7797ca0681c2d560205260405f2090565b80547fffffffffffffffffffffffffffffffffffffffffffffffffffffffffffffffff019055611d578273ffffffffffffffffffffffffffffffffffffffff165f527f8785b62d5a7098417c833f00e99883e36791da2bbef1ddc66d7797ca0681c2d560205260405f2090565b8054600101905573ffffffffffffffffffffffffffffffffffffffff82164260a01b177c020000000000000000000000000000000000000000000000000000000017611dca855f527f8785b62d5a7098417c833f00e99883e36791da2bbef1ddc66d7797ca0681c2d460205260405f2090565b557c0200000000000000000000000000000000000000000000000000000000811615611e25575b501680927fddf252ad1be2c89b69c2b068fc378daa952ba7f163c4a11628f55a4df523b3ef5f80a415611e2057565b61224f565b60018401611e5a815f527f8785b62d5a7098417c833f00e99883e36791da2bbef1ddc66d7797ca0681c2d460205260405f2090565b5415611e67575b50611df1565b7f8785b62d5a7098417c833f00e99883e36791da2bbef1ddc66d7797ca0681c2d0548114611e6157611ec0905f527f8785b62d5a7098417c833f00e99883e36791da2bbef1ddc66d7797ca0681c2d460205260405f2090565b555f80611e61565b5f90555f611ca2565b611f22610adb6111bd336106778b73ffffffffffffffffffffffffffffffffffffffff165f527f8785b62d5a7098417c833f00e99883e36791da2bbef1ddc66d7797ca0681c2d760205260405f2090565b15611c9257612227565b6121ff565b60405190611f3e8261171b565b5f8252565b9091611c089260405192610df18461171b565b7f4e487b71000000000000000000000000000000000000000000000000000000005f52603260045260245ffd5b9190811015611f935760051b0190565b611f56565b7f4e487b71000000000000000000000000000000000000000000000000000000005f52601160045260245ffd5b91908203918211611fd257565b611f98565b929190611fe5828286611c0a565b803b611ff2575b50505050565b611ffb93612f3e565b15612009575f808080611fec565b7fd1a57ed6000000000000000000000000000000000000000000000000000000005f5260045ffd5b905f917f8785b62d5a7098417c833f00e99883e36791da2bbef1ddc66d7797ca0681c2d054811061205f5750565b9091505b805f527f8785b62d5a7098417c833f00e99883e36791da2bbef1ddc66d7797ca0681c2d460205260405f2054806120c257508015611fd2577fffffffffffffffffffffffffffffffffffffffffffffffffffffffffffffffff01612063565b7c01000000000000000000000000000000000000000000000000000000009150161590565b7f104d44d3000000000000000000000000000000000000000000000000000000005f5260045ffd5b7faf2e5d30000000000000000000000000000000000000000000000000000000005f5260045ffd5b7f0a5f49d5000000000000000000000000000000000000000000000000000000005f5260045ffd5b7f83319d33000000000000000000000000000000000000000000000000000000005f5260045ffd5b7f5f7b67f9000000000000000000000000000000000000000000000000000000005f5260045ffd5b7f6906bb5e000000000000000000000000000000000000000000000000000000005f5260045ffd5b7fa9d9e89f000000000000000000000000000000000000000000000000000000005f5260045ffd5b7fa1148100000000000000000000000000000000000000000000000000000000005f5260045ffd5b7f59c896be000000000000000000000000000000000000000000000000000000005f5260045ffd5b7fea553b34000000000000000000000000000000000000000000000000000000005f5260045ffd5b7fdf2d9b42000000000000000000000000000000000000000000000000000000005f5260045ffd5b7f0fb51c13000000000000000000000000000000000000000000000000000000005f5260045ffd5b7fbf79ab09000000000000000000000000000000000000000000000000000000005f5260045ffd5b7fef07d5e4000000000000000000000000000000000000000000000000000000005f5260045ffd5b7f59ca34d4000000000000000000000000000000000000000000000000000000005f5260045ffd5b612370815f527f8785b62d5a7098417c833f00e99883e36791da2bbef1ddc66d7797ca0681c2d460205260405f2090565b549081156123a057507c010000000000000000000000000000000000000000000000000000000081166122775790565b90507f8785b62d5a7098417c833f00e99883e36791da2bbef1ddc66d7797ca0681c2d054811015612277577fffffffffffffffffffffffffffffffffffffffffffffffffffffffffffffffff905b01612420815f527f8785b62d5a7098417c833f00e99883e36791da2bbef1ddc66d7797ca0681c2d460205260405f2090565b5490811561247657507c01000000000000000000000000000000000000000000000000000000008116156102c4577fdf2d9b42000000000000000000000000000000000000000000000000000000005f5260045ffd5b7fffffffffffffffffffffffffffffffffffffffffffffffffffffffffffffffff91506123ee565b91908201809211611fd257565b8054821015611f93575f5260205f2001905f90565b908154916801000000000000000083101561173757826124e8916001611c08950181556124ab565b9091907fffffffffffffffffffffffffffffffffffffffffffffffffffffffffffffffff83549160031b92831b921b1916179055565b9190915f5b600181106125f3575073ffffffffffffffffffffffffffffffffffffffff908181166125c7575b508216612555575050565b5f5b6001811061256457505050565b6001906125c16125b18573ffffffffffffffffffffffffffffffffffffffff165f527f791cad950d3b9b323a06def8cb8b7bf2c934c7f4cea39385f023ba145f9b93b160205260405f2090565b6125bb838661249e565b906124c0565b01612557565b5f5b600181106125d7575061254a565b806125ed6125e76001938761249e565b84613032565b016125c9565b6125fd818461249e565b73ffffffffffffffffffffffffffffffffffffffff83161515908161262f575b5061262a57600101612523565b61229f565b61266591506111bd905f527f791cad950d3b9b323a06def8cb8b7bf2c934c7f4cea39385f023ba145f9b93c060205260405f2090565b5f61261d565b929190611fe582828661316e565b7f862460a2be1e75f44234ae220583844903aaee6923993409e3eaa0efbd0da84160028154146126a95760029055565b60646040517f08c379a000000000000000000000000000000000000000000000000000000000815260206004820152601d60248201527f5265656e7472616e63794c69623a207265656e7472616e742063616c6c0000006044820152fd5b67ffffffffffffffff81116117375760051b60200190565b8051821015611f935760209160051b010190565b90816020910312610253575190565b6040513d5f823e3d90fd5b6040517fdd62ed3e00000000000000000000000000000000000000000000000000000000815233600482015230602482015260209173ffffffffffffffffffffffffffffffffffffffff16908281604481855afa80156128375784915f91612841575b501061283c576040517f70a08231000000000000000000000000000000000000000000000000000000008152336004820152908290829060249082905afa918215612837575f9261280a575b50501061280557565b6122ef565b6128299250803d10612830575b6128218183611758565b810190612733565b5f806127fc565b503d612817565b612742565b6122c7565b6128589150843d8611612830576128218183611758565b5f6127b0565b9290604051927f23b872dd00000000000000000000000000000000000000000000000000000000602085015273ffffffffffffffffffffffffffffffffffffffff809216602485015216604483015260648201526064815260a081019181831067ffffffffffffffff84111761173757611c08926040526131d0565b9093915f5b8181106128ee57505050505050565b80612a92600287612902600195878c611f83565b358761290e868b61271f565b517fa8a7473f10e62cf9687e243de1c3ac8b3cbc3dd04b96826beb3a65b59538581473ffffffffffffffffffffffffffffffffffffffff845f527f791cad950d3b9b323a06def8cb8b7bf2c934c7f4cea39385f023ba145f9b93ad60205260406129f2815f209761298081878a6132e9565b6129c16129a161299b612993898c612d95565b905084612bce565b88611fc5565b8a5473ffffffffffffffffffffffffffffffffffffffff16868416612e64565b6112bd885f527f791cad950d3b9b323a06def8cb8b7bf2c934c7f4cea39385f023ba145f9b93b360205260405f2090565b612a056129fd611f31565b87873061266b565b612a3b82612a27895473ffffffffffffffffffffffffffffffffffffffff1690565b925193849316961694829190602083019252565b0390a480547fffffffffffffffffffffffff00000000000000000000000000000000000000001681555f85820155017fffffffffffffffffffffffffffffffffffffffffffffffffffffffffffffff008154169055565b016128df565b519069ffffffffffffffffffff8216820361025357565b908160a091031261025357612ac381612a98565b916020820151916040810151916102c4608060608401519301612a98565b906402540be40091828102928184041490151715611fd257565b90670de0b6b3a764000091828102928184041490151715611fd257565b81810292918115918404141715611fd257565b90816020910312610253575160ff811681036102535790565b8115612b4e570490565b7f4e487b71000000000000000000000000000000000000000000000000000000005f52601260045260245ffd5b60ff7fffffffffffffffffffffffffffffffffffffffffffffffffffffffffffffffee9116019060ff8211611fd257565b60ff166012039060ff8211611fd257565b60ff16604d8111611fd257600a0a90565b60049060a0612c23610aa9610aa96113108573ffffffffffffffffffffffffffffffffffffffff165f527f791cad950d3b9b323a06def8cb8b7bf2c934c7f4cea39385f023ba145f9b93b460205260405f2090565b604051938480927ffeaf968c0000000000000000000000000000000000000000000000000000000082525afa918215612837575f92612d5f575b505f821315612d5a576020612c8673ffffffffffffffffffffffffffffffffffffffff93612ae1565b916004604051809581937f313ce567000000000000000000000000000000000000000000000000000000008352165afa918215612837575f92612d23575b50612cd2612cd79293612afb565b612b44565b9060ff81166012811015612d01575090612cfb612cf66102c493612bac565b612bbd565b90612b44565b60121015612d1f5790612d19612cf66102c493612b7b565b90612b18565b5090565b612cd79250612d4c612cd29160203d602011612d53575b612d448183611758565b810190612b2b565b9250612cc4565b503d612d3a565b612317565b612d8291925060a03d60a011612d8e575b612d7a8183611758565b810190612aaf565b5050509050905f612c5d565b503d612d70565b7f791cad950d3b9b323a06def8cb8b7bf2c934c7f4cea39385f023ba145f9b93b954604080517f2a55205a00000000000000000000000000000000000000000000000000000000815260048101939093526024830193909352909291908390604490829073ffffffffffffffffffffffffffffffffffffffff165afa918215612837575f905f93612e2557509190565b9250506040823d604011612e5c575b81612e4160409383611758565b81010312610253576020825192612e5784610512565b015190565b3d9150612e34565b9173ffffffffffffffffffffffffffffffffffffffff604051927fa9059cbb000000000000000000000000000000000000000000000000000000006020850152166024830152604482015260448152608081019181831067ffffffffffffffff84111761173757611c08926040526131d0565b9081602091031261025357517fffffffff00000000000000000000000000000000000000000000000000000000811681036102535790565b3d15612f39573d90612f20826117b9565b91612f2e6040519384611758565b82523d5f602084013e565b606090565b92602091612fad935f73ffffffffffffffffffffffffffffffffffffffff604051809781968295847f150b7a02000000000000000000000000000000000000000000000000000000009c8d86523360048701521660248501526044840152608060648401526084830190610257565b0393165af15f9181613001575b50612fdb57612fc7612f0f565b805115612fd657805190602001fd5b612009565b7fffffffff00000000000000000000000000000000000000000000000000000000161490565b61302491925060203d60201161302b575b61301c8183611758565b810190612ed7565b905f612fba565b503d613012565b6130799073ffffffffffffffffffffffffffffffffffffffff165f527f791cad950d3b9b323a06def8cb8b7bf2c934c7f4cea39385f023ba145f9b93b160205260405f2090565b80545f5b81811061308a5750505050565b8361309582856124ab565b919054600392831b1c146130ac575060010161307d565b919293507fffffffffffffffffffffffffffffffffffffffffffffffffffffffffffffffff92838101908111611fd2576130f9926130ed6124e892876124ab565b9054911b1c91856124ab565b8154801561314157019061313e61311083836124ab565b7fffffffffffffffffffffffffffffffffffffffffffffffffffffffffffffffff82549160031b1b19169055565b55565b7f4e487b71000000000000000000000000000000000000000000000000000000005f52603160045260245ffd5b91909161317a8261233f565b9273ffffffffffffffffffffffffffffffffffffffff809216938483821603611f2c575f8481527f8785b62d5a7098417c833f00e99883e36791da2bbef1ddc66d7797ca0681c2d6602052604090208054611c92565b60405161323a9173ffffffffffffffffffffffffffffffffffffffff166131f68261173c565b5f806020958685527f5361666545524332303a206c6f772d6c6576656c2063616c6c206661696c656487860152868151910182855af1613234612f0f565b91613380565b80518061324657505050565b818391810103126102535781015161325d816115d6565b156132655750565b608490604051907f08c379a00000000000000000000000000000000000000000000000000000000082526004820152602a60248201527f5361666545524332303a204552433230206f7065726174696f6e20646964206e60448201527f6f742073756363656564000000000000000000000000000000000000000000006064820152fd5b91906132f58184612d95565b92909173ffffffffffffffffffffffffffffffffffffffff8084169485158015613378575b61336f576133289084612bce565b92831561336f577f70f417ac564051a4ecb55ef0f383eb66de1611967ce4c0bcf70edfdbb94b5c679461335d92859216612e64565b604080519182526020820192909252a3565b50505050505050565b50801561331a565b919290156133fb5750815115613394575090565b3b1561339d5790565b60646040517f08c379a000000000000000000000000000000000000000000000000000000000815260206004820152601d60248201527f416464726573733a2063616c6c20746f206e6f6e2d636f6e74726163740000006044820152fd5b82519091501561340e5750805190602001fd5b613444906040519182917f08c379a0000000000000000000000000000000000000000000000000000000008352600483016102b3565b0390fdfea2646970667358221220de9f597b79007f097a8d7285191621cde9e3a9b4b3bfc5354a75d10f0e82084464736f6c63430008180033",
    "linkReferences": {}
  },
  "methodIdentifiers": {
    "approve(address,uint256)": "095ea7b3",
    "balanceOf(address)": "70a08231",
    "batchBuyTokens(address,uint256[],address)": "3dda3558",
    "batchCancelTokenSales(uint256[],address)": "cfbf9903",
    "batchSellTokens(uint256[],uint256[])": "4930d709",
    "buyToken(address,uint256,address)": "692bf4a8",
    "cancelTokenSale(uint256)": "2bda5ac3",
    "getApproved(uint256)": "081812fc",
    "getTokenSaleInfo(uint256)": "018f8343",
    "getTokenSalePrice(uint256)": "18eef395",
    "isApprovedForAll(address,address)": "e985e9c5",
    "isTokenAllowed(address)": "f9eaee0d",
    "isTokenForSale(uint256)": "4fed1c94",
    "name()": "06fdde03",
    "onERC721Received(address,address,uint256,bytes)": "150b7a02",
    "ownerOf(uint256)": "6352211e",
    "safeTransferFrom(address,address,uint256)": "42842e0e",
    "safeTransferFrom(address,address,uint256,bytes)": "b88d4fde",
    "sellToken(uint256,uint256)": "1897bcf3",
    "setApprovalForAll(address,bool)": "a22cb465",
    "symbol()": "95d89b41",
    "totalSupply()": "18160ddd",
    "transferFrom(address,address,uint256)": "23b872dd"
  },
  "id": 120
}